{
	"FunctionsChainlink/GettingStartedConsumer.sol": {
		"GettingStartedFunctionsConsumer": {
			"abi": [
				{
					"inputs": [],
					"stateMutability": "nonpayable",
					"type": "constructor"
				},
				{
					"inputs": [],
					"name": "EmptyArgs",
					"type": "error"
				},
				{
					"inputs": [],
					"name": "EmptySource",
					"type": "error"
				},
				{
					"inputs": [],
					"name": "NoInlineSecrets",
					"type": "error"
				},
				{
					"inputs": [],
					"name": "OnlyRouterCanFulfill",
					"type": "error"
				},
				{
					"inputs": [
						{
							"internalType": "bytes32",
							"name": "requestId",
							"type": "bytes32"
						}
					],
					"name": "UnexpectedRequestID",
					"type": "error"
				},
				{
					"anonymous": false,
					"inputs": [
						{
							"indexed": true,
							"internalType": "address",
							"name": "from",
							"type": "address"
						},
						{
							"indexed": true,
							"internalType": "address",
							"name": "to",
							"type": "address"
						}
					],
					"name": "OwnershipTransferRequested",
					"type": "event"
				},
				{
					"anonymous": false,
					"inputs": [
						{
							"indexed": true,
							"internalType": "address",
							"name": "from",
							"type": "address"
						},
						{
							"indexed": true,
							"internalType": "address",
							"name": "to",
							"type": "address"
						}
					],
					"name": "OwnershipTransferred",
					"type": "event"
				},
				{
					"anonymous": false,
					"inputs": [
						{
							"indexed": true,
							"internalType": "bytes32",
							"name": "id",
							"type": "bytes32"
						}
					],
					"name": "RequestFulfilled",
					"type": "event"
				},
				{
					"anonymous": false,
					"inputs": [
						{
							"indexed": true,
							"internalType": "bytes32",
							"name": "id",
							"type": "bytes32"
						}
					],
					"name": "RequestSent",
					"type": "event"
				},
				{
					"anonymous": false,
					"inputs": [
						{
							"indexed": true,
							"internalType": "bytes32",
							"name": "requestId",
							"type": "bytes32"
						},
						{
							"indexed": false,
							"internalType": "string",
							"name": "character",
							"type": "string"
						},
						{
							"indexed": false,
							"internalType": "bytes",
							"name": "response",
							"type": "bytes"
						},
						{
							"indexed": false,
							"internalType": "bytes",
							"name": "err",
							"type": "bytes"
						}
					],
					"name": "Response",
					"type": "event"
				},
				{
					"inputs": [],
					"name": "acceptOwnership",
					"outputs": [],
					"stateMutability": "nonpayable",
					"type": "function"
				},
				{
					"inputs": [],
					"name": "character",
					"outputs": [
						{
							"internalType": "string",
							"name": "",
							"type": "string"
						}
					],
					"stateMutability": "view",
					"type": "function"
				},
				{
					"inputs": [
						{
							"internalType": "bytes32",
							"name": "requestId",
							"type": "bytes32"
						},
						{
							"internalType": "bytes",
							"name": "response",
							"type": "bytes"
						},
						{
							"internalType": "bytes",
							"name": "err",
							"type": "bytes"
						}
					],
					"name": "handleOracleFulfillment",
					"outputs": [],
					"stateMutability": "nonpayable",
					"type": "function"
				},
				{
					"inputs": [],
					"name": "owner",
					"outputs": [
						{
							"internalType": "address",
							"name": "",
							"type": "address"
						}
					],
					"stateMutability": "view",
					"type": "function"
				},
				{
					"inputs": [],
					"name": "s_lastError",
					"outputs": [
						{
							"internalType": "bytes",
							"name": "",
							"type": "bytes"
						}
					],
					"stateMutability": "view",
					"type": "function"
				},
				{
					"inputs": [],
					"name": "s_lastRequestId",
					"outputs": [
						{
							"internalType": "bytes32",
							"name": "",
							"type": "bytes32"
						}
					],
					"stateMutability": "view",
					"type": "function"
				},
				{
					"inputs": [],
					"name": "s_lastResponse",
					"outputs": [
						{
							"internalType": "bytes",
							"name": "",
							"type": "bytes"
						}
					],
					"stateMutability": "view",
					"type": "function"
				},
				{
					"inputs": [
						{
							"internalType": "uint64",
							"name": "subscriptionId",
							"type": "uint64"
						},
						{
							"internalType": "string[]",
							"name": "args",
							"type": "string[]"
						}
					],
					"name": "sendRequest",
					"outputs": [
						{
							"internalType": "bytes32",
							"name": "requestId",
							"type": "bytes32"
						}
					],
					"stateMutability": "nonpayable",
					"type": "function"
				},
				{
					"inputs": [
						{
							"internalType": "address",
							"name": "to",
							"type": "address"
						}
					],
					"name": "transferOwnership",
					"outputs": [],
					"stateMutability": "nonpayable",
					"type": "function"
				}
			],
			"devdoc": {
				"details": "This contract uses hardcoded values and should not be used in production.",
				"kind": "dev",
				"methods": {
					"handleOracleFulfillment(bytes32,bytes,bytes)": {
						"details": "Either response or error parameter will be set, but never both.",
						"params": {
							"err": "Aggregated error either from the request's source code or from the execution pipeline.",
							"requestId": "The requestId returned by FunctionsClient.sendRequest().",
							"response": "Aggregated response from the request's source code."
						}
					},
					"sendRequest(uint64,string[])": {
						"params": {
							"args": "The arguments to pass to the HTTP request",
							"subscriptionId": "The ID for the Chainlink subscription"
						},
						"returns": {
							"requestId": "The ID of the request"
						}
					}
				},
				"title": "GettingStartedFunctionsConsumer",
				"version": 1
			},
			"evm": {
				"assembly": "    /* \"FunctionsChainlink/GettingStartedConsumer.sol\":1557:1616  address router = 0x6E2dc0F9DB014aE19888F539E59285D2Ea04244C */\n  0x05\n  dup1\n  sload\n  not(sub(shl(0xa0, 0x01), 0x01))\n  and\n    /* \"FunctionsChainlink/GettingStartedConsumer.sol\":1574:1616  0x6E2dc0F9DB014aE19888F539E59285D2Ea04244C */\n  0x6e2dc0f9db014ae19888f539e59285d2ea04244c\n    /* \"FunctionsChainlink/GettingStartedConsumer.sol\":1557:1616  address router = 0x6E2dc0F9DB014aE19888F539E59285D2Ea04244C */\n  or\n  swap1\n  sstore\n    /* \"FunctionsChainlink/GettingStartedConsumer.sol\":1766:2141  string source =... */\n  0x01e0\n    /* \"FunctionsChainlink/GettingStartedConsumer.sol\":833:4422  contract GettingStartedFunctionsConsumer is FunctionsClient, ConfirmedOwner {... */\n  0x40\n    /* \"FunctionsChainlink/GettingStartedConsumer.sol\":1766:2141  string source =... */\n  mstore\n  0x0105\n    /* \"FunctionsChainlink/GettingStartedConsumer.sol\":833:4422  contract GettingStartedFunctionsConsumer is FunctionsClient, ConfirmedOwner {... */\n  0xa0\n    /* \"FunctionsChainlink/GettingStartedConsumer.sol\":1766:2141  string source =... */\n  dup2\n  dup2\n  mstore\n    /* \"FunctionsChainlink/GettingStartedConsumer.sol\":833:4422  contract GettingStartedFunctionsConsumer is FunctionsClient, ConfirmedOwner {... */\n  swap1\n    /* \"FunctionsChainlink/GettingStartedConsumer.sol\":1766:2141  string source =... */\n  data_e906a9eeb8903c8e2803ae52b2873b43408469afa2505733a0ef2c18a80a2441\n  0xc0\n  codecopy\n  0x06\n  swap1\n  tag_1\n  swap1\n  dup3\n  tag_2\n  jump\t// in\ntag_1:\n  pop\n    /* \"FunctionsChainlink/GettingStartedConsumer.sol\":2173:2197  uint32 gasLimit = 300000 */\n  0x07\n  dup1\n  sload\n  not(0xffffffff)\n  and\n    /* \"FunctionsChainlink/GettingStartedConsumer.sol\":2191:2197  300000 */\n  0x0493e0\n    /* \"FunctionsChainlink/GettingStartedConsumer.sol\":2173:2197  uint32 gasLimit = 300000 */\n  or\n  swap1\n  sstore\n    /* \"FunctionsChainlink/GettingStartedConsumer.sol\":2384:2450  0x66756e2d706f6c79676f6e2d6d756d6261692d31000000000000000000000000 */\n  0x66756e2d706f6c79676f6e2d6d756d6261692d31000000000000000000000000\n    /* \"FunctionsChainlink/GettingStartedConsumer.sol\":2360:2450  bytes32 donID =... */\n  0x08\n  sstore\n    /* \"FunctionsChainlink/GettingStartedConsumer.sol\":2671:2738  constructor() FunctionsClient(router) ConfirmedOwner(msg.sender) {} */\n  callvalue\n  dup1\n  iszero\n  tag_3\n  jumpi\n  0x00\n  dup1\n  revert\ntag_3:\n  pop\n    /* \"FunctionsChainlink/GettingStartedConsumer.sol\":2701:2707  router */\n  and(sub(shl(0xa0, 0x01), 0x01), sload(0x05))\n    /* \"@chainlink/contracts@0.8.0/src/v0.8/functions/dev/v1_0_0/FunctionsClient.sol\":736:771  i_router = IFunctionsRouter(router) */\n  0x80\n  mstore\n    /* \"FunctionsChainlink/GettingStartedConsumer.sol\":2724:2734  msg.sender */\n  caller\n  dup1\n    /* \"@chainlink/contracts@0.8.0/src/v0.8/shared/access/ConfirmedOwner.sol\":345:346  0 */\n  0x00\n    /* \"FunctionsChainlink/GettingStartedConsumer.sol\":2724:2734  msg.sender */\n  dup2\n    /* \"@chainlink/contracts@0.8.0/src/v0.8/shared/access/ConfirmedOwnerWithProposal.sol\":529:588  require(newOwner != address(0), \"Cannot set owner to zero\") */\n  tag_10\n  jumpi\n  mload(0x40)\n  shl(0xe5, 0x461bcd)\n  dup2\n  mstore\n    /* \"#utility.yul\":2937:2939   */\n  0x20\n    /* \"@chainlink/contracts@0.8.0/src/v0.8/shared/access/ConfirmedOwnerWithProposal.sol\":529:588  require(newOwner != address(0), \"Cannot set owner to zero\") */\n  0x04\n  dup3\n  add\n    /* \"#utility.yul\":2919:2940   */\n  mstore\n    /* \"#utility.yul\":2976:2978   */\n  0x18\n    /* \"#utility.yul\":2956:2974   */\n  0x24\n  dup3\n  add\n    /* \"#utility.yul\":2949:2979   */\n  mstore\n    /* \"#utility.yul\":3015:3041   */\n  0x43616e6e6f7420736574206f776e657220746f207a65726f0000000000000000\n    /* \"#utility.yul\":2995:3013   */\n  0x44\n  dup3\n  add\n    /* \"#utility.yul\":2988:3042   */\n  mstore\n    /* \"#utility.yul\":3059:3077   */\n  0x64\n  add\n    /* \"@chainlink/contracts@0.8.0/src/v0.8/shared/access/ConfirmedOwnerWithProposal.sol\":529:588  require(newOwner != address(0), \"Cannot set owner to zero\") */\ntag_11:\n  mload(0x40)\n  dup1\n  swap2\n  sub\n  swap1\n  revert\ntag_10:\n    /* \"@chainlink/contracts@0.8.0/src/v0.8/shared/access/ConfirmedOwnerWithProposal.sol\":595:602  s_owner */\n  0x00\n    /* \"@chainlink/contracts@0.8.0/src/v0.8/shared/access/ConfirmedOwnerWithProposal.sol\":595:613  s_owner = newOwner */\n  dup1\n  sload\n  not(sub(shl(0xa0, 0x01), 0x01))\n  and\n  sub(shl(0xa0, 0x01), 0x01)\n  dup5\n  dup2\n  and\n  swap2\n  swap1\n  swap2\n  or\n  swap1\n  swap2\n  sstore\n    /* \"@chainlink/contracts@0.8.0/src/v0.8/shared/access/ConfirmedOwnerWithProposal.sol\":623:649  pendingOwner != address(0) */\n  dup2\n  and\n  iszero\n    /* \"@chainlink/contracts@0.8.0/src/v0.8/shared/access/ConfirmedOwnerWithProposal.sol\":619:698  if (pendingOwner != address(0)) {... */\n  tag_14\n  jumpi\n    /* \"@chainlink/contracts@0.8.0/src/v0.8/shared/access/ConfirmedOwnerWithProposal.sol\":659:691  _transferOwnership(pendingOwner) */\n  tag_14\n    /* \"@chainlink/contracts@0.8.0/src/v0.8/shared/access/ConfirmedOwnerWithProposal.sol\":678:690  pendingOwner */\n  dup2\n    /* \"@chainlink/contracts@0.8.0/src/v0.8/shared/access/ConfirmedOwnerWithProposal.sol\":659:677  _transferOwnership */\n  tag_15\n    /* \"@chainlink/contracts@0.8.0/src/v0.8/shared/access/ConfirmedOwnerWithProposal.sol\":659:691  _transferOwnership(pendingOwner) */\n  jump\t// in\ntag_14:\n    /* \"@chainlink/contracts@0.8.0/src/v0.8/shared/access/ConfirmedOwnerWithProposal.sol\":471:702  constructor(address newOwner, address pendingOwner) {... */\n  pop\n  pop\n    /* \"@chainlink/contracts@0.8.0/src/v0.8/shared/access/ConfirmedOwner.sol\":270:351  constructor(address newOwner) ConfirmedOwnerWithProposal(newOwner, address(0)) {} */\n  pop\n    /* \"FunctionsChainlink/GettingStartedConsumer.sol\":833:4422  contract GettingStartedFunctionsConsumer is FunctionsClient, ConfirmedOwner {... */\n  jump(tag_28)\n    /* \"@chainlink/contracts@0.8.0/src/v0.8/shared/access/ConfirmedOwnerWithProposal.sol\":1482:1670  function _transferOwnership(address to) private {... */\ntag_15:\n    /* \"@chainlink/contracts@0.8.0/src/v0.8/shared/access/ConfirmedOwnerWithProposal.sol\":1550:1560  msg.sender */\n  caller\n  sub(shl(0xa0, 0x01), 0x01)\n    /* \"@chainlink/contracts@0.8.0/src/v0.8/shared/access/ConfirmedOwnerWithProposal.sol\":1544:1560  to != msg.sender */\n  dup3\n  and\n  sub\n    /* \"@chainlink/contracts@0.8.0/src/v0.8/shared/access/ConfirmedOwnerWithProposal.sol\":1536:1588  require(to != msg.sender, \"Cannot transfer to self\") */\n  tag_20\n  jumpi\n  mload(0x40)\n  shl(0xe5, 0x461bcd)\n  dup2\n  mstore\n    /* \"#utility.yul\":3290:3292   */\n  0x20\n    /* \"@chainlink/contracts@0.8.0/src/v0.8/shared/access/ConfirmedOwnerWithProposal.sol\":1536:1588  require(to != msg.sender, \"Cannot transfer to self\") */\n  0x04\n  dup3\n  add\n    /* \"#utility.yul\":3272:3293   */\n  mstore\n    /* \"#utility.yul\":3329:3331   */\n  0x17\n    /* \"#utility.yul\":3309:3327   */\n  0x24\n  dup3\n  add\n    /* \"#utility.yul\":3302:3332   */\n  mstore\n    /* \"#utility.yul\":3368:3393   */\n  0x43616e6e6f74207472616e7366657220746f2073656c66000000000000000000\n    /* \"#utility.yul\":3348:3366   */\n  0x44\n  dup3\n  add\n    /* \"#utility.yul\":3341:3394   */\n  mstore\n    /* \"#utility.yul\":3411:3429   */\n  0x64\n  add\n    /* \"@chainlink/contracts@0.8.0/src/v0.8/shared/access/ConfirmedOwnerWithProposal.sol\":1536:1588  require(to != msg.sender, \"Cannot transfer to self\") */\n  tag_11\n    /* \"#utility.yul\":3088:3435   */\n  jump\n    /* \"@chainlink/contracts@0.8.0/src/v0.8/shared/access/ConfirmedOwnerWithProposal.sol\":1536:1588  require(to != msg.sender, \"Cannot transfer to self\") */\ntag_20:\n    /* \"@chainlink/contracts@0.8.0/src/v0.8/shared/access/ConfirmedOwnerWithProposal.sol\":1595:1609  s_pendingOwner */\n  0x01\n    /* \"@chainlink/contracts@0.8.0/src/v0.8/shared/access/ConfirmedOwnerWithProposal.sol\":1595:1614  s_pendingOwner = to */\n  dup1\n  sload\n  not(sub(shl(0xa0, 0x01), 0x01))\n  and\n  sub(shl(0xa0, 0x01), 0x01)\n  dup4\n  dup2\n  and\n  swap2\n  dup3\n  or\n  swap1\n  swap3\n  sstore\n  0x00\n    /* \"@chainlink/contracts@0.8.0/src/v0.8/shared/access/ConfirmedOwnerWithProposal.sol\":1653:1660  s_owner */\n  dup1\n  sload\n    /* \"@chainlink/contracts@0.8.0/src/v0.8/shared/access/ConfirmedOwnerWithProposal.sol\":1626:1665  OwnershipTransferRequested(s_owner, to) */\n  mload(0x40)\n    /* \"@chainlink/contracts@0.8.0/src/v0.8/shared/access/ConfirmedOwnerWithProposal.sol\":1595:1614  s_pendingOwner = to */\n  swap3\n  swap4\n    /* \"@chainlink/contracts@0.8.0/src/v0.8/shared/access/ConfirmedOwnerWithProposal.sol\":1653:1660  s_owner */\n  and\n  swap2\n    /* \"@chainlink/contracts@0.8.0/src/v0.8/shared/access/ConfirmedOwnerWithProposal.sol\":1626:1665  OwnershipTransferRequested(s_owner, to) */\n  0xed8889f560326eb138920d842192f0eb3dd22b4f139c87a2c57538e05bae1278\n  swap2\n  swap1\n  log3\n    /* \"@chainlink/contracts@0.8.0/src/v0.8/shared/access/ConfirmedOwnerWithProposal.sol\":1482:1670  function _transferOwnership(address to) private {... */\n  pop\n  jump\t// out\n    /* \"#utility.yul\":14:141   */\ntag_23:\n    /* \"#utility.yul\":75:85   */\n  0x4e487b71\n    /* \"#utility.yul\":70:73   */\n  0xe0\n    /* \"#utility.yul\":66:86   */\n  shl\n    /* \"#utility.yul\":63:64   */\n  0x00\n    /* \"#utility.yul\":56:87   */\n  mstore\n    /* \"#utility.yul\":106:110   */\n  0x41\n    /* \"#utility.yul\":103:104   */\n  0x04\n    /* \"#utility.yul\":96:111   */\n  mstore\n    /* \"#utility.yul\":130:134   */\n  0x24\n    /* \"#utility.yul\":127:128   */\n  0x00\n    /* \"#utility.yul\":120:135   */\n  revert\n    /* \"#utility.yul\":146:526   */\ntag_24:\n    /* \"#utility.yul\":225:226   */\n  0x01\n    /* \"#utility.yul\":221:233   */\n  dup2\n  dup2\n  shr\n  swap1\n    /* \"#utility.yul\":268:280   */\n  dup3\n  and\n  dup1\n    /* \"#utility.yul\":289:350   */\n  tag_31\n  jumpi\n    /* \"#utility.yul\":343:347   */\n  0x7f\n    /* \"#utility.yul\":335:341   */\n  dup3\n    /* \"#utility.yul\":331:348   */\n  and\n    /* \"#utility.yul\":321:348   */\n  swap2\n  pop\n    /* \"#utility.yul\":289:350   */\ntag_31:\n    /* \"#utility.yul\":396:398   */\n  0x20\n    /* \"#utility.yul\":388:394   */\n  dup3\n    /* \"#utility.yul\":385:399   */\n  lt\n    /* \"#utility.yul\":365:383   */\n  dup2\n    /* \"#utility.yul\":362:400   */\n  sub\n    /* \"#utility.yul\":359:520   */\n  tag_32\n  jumpi\n    /* \"#utility.yul\":442:452   */\n  0x4e487b71\n    /* \"#utility.yul\":437:440   */\n  0xe0\n    /* \"#utility.yul\":433:453   */\n  shl\n    /* \"#utility.yul\":430:431   */\n  0x00\n    /* \"#utility.yul\":423:454   */\n  mstore\n    /* \"#utility.yul\":477:481   */\n  0x22\n    /* \"#utility.yul\":474:475   */\n  0x04\n    /* \"#utility.yul\":467:482   */\n  mstore\n    /* \"#utility.yul\":505:509   */\n  0x24\n    /* \"#utility.yul\":502:503   */\n  0x00\n    /* \"#utility.yul\":495:510   */\n  revert\n    /* \"#utility.yul\":359:520   */\ntag_32:\n  pop\n    /* \"#utility.yul\":146:526   */\n  swap2\n  swap1\n  pop\n  jump\t// out\n    /* \"#utility.yul\":657:1202   */\ntag_26:\n    /* \"#utility.yul\":759:761   */\n  0x1f\n    /* \"#utility.yul\":754:757   */\n  dup3\n    /* \"#utility.yul\":751:762   */\n  gt\n    /* \"#utility.yul\":748:1196   */\n  iszero\n  tag_35\n  jumpi\n    /* \"#utility.yul\":795:796   */\n  0x00\n    /* \"#utility.yul\":820:825   */\n  dup2\n    /* \"#utility.yul\":816:818   */\n  dup2\n    /* \"#utility.yul\":809:826   */\n  mstore\n    /* \"#utility.yul\":865:869   */\n  0x20\n    /* \"#utility.yul\":861:863   */\n  dup2\n    /* \"#utility.yul\":851:870   */\n  keccak256\n    /* \"#utility.yul\":935:937   */\n  0x1f\n    /* \"#utility.yul\":923:933   */\n  dup6\n    /* \"#utility.yul\":919:938   */\n  add\n    /* \"#utility.yul\":916:917   */\n  0x05\n    /* \"#utility.yul\":912:939   */\n  shr\n    /* \"#utility.yul\":906:910   */\n  dup2\n    /* \"#utility.yul\":902:940   */\n  add\n    /* \"#utility.yul\":971:975   */\n  0x20\n    /* \"#utility.yul\":959:969   */\n  dup7\n    /* \"#utility.yul\":956:976   */\n  lt\n    /* \"#utility.yul\":953:1000   */\n  iszero\n  tag_36\n  jumpi\n  pop\n    /* \"#utility.yul\":994:998   */\n  dup1\n    /* \"#utility.yul\":953:1000   */\ntag_36:\n    /* \"#utility.yul\":1049:1051   */\n  0x1f\n    /* \"#utility.yul\":1044:1047   */\n  dup6\n    /* \"#utility.yul\":1040:1052   */\n  add\n    /* \"#utility.yul\":1037:1038   */\n  0x05\n    /* \"#utility.yul\":1033:1053   */\n  shr\n    /* \"#utility.yul\":1027:1031   */\n  dup3\n    /* \"#utility.yul\":1023:1054   */\n  add\n    /* \"#utility.yul\":1013:1054   */\n  swap2\n  pop\n    /* \"#utility.yul\":1104:1186   */\ntag_37:\n    /* \"#utility.yul\":1122:1124   */\n  dup2\n    /* \"#utility.yul\":1115:1120   */\n  dup2\n    /* \"#utility.yul\":1112:1125   */\n  lt\n    /* \"#utility.yul\":1104:1186   */\n  iszero\n  tag_39\n  jumpi\n    /* \"#utility.yul\":1167:1184   */\n  dup3\n  dup2\n  sstore\n    /* \"#utility.yul\":1148:1149   */\n  0x01\n    /* \"#utility.yul\":1137:1150   */\n  add\n    /* \"#utility.yul\":1104:1186   */\n  jump(tag_37)\ntag_39:\n    /* \"#utility.yul\":1108:1111   */\n  pop\n  pop\n  pop\n    /* \"#utility.yul\":748:1196   */\ntag_35:\n    /* \"#utility.yul\":657:1202   */\n  pop\n  pop\n  pop\n  jump\t// out\n    /* \"#utility.yul\":1378:2730   */\ntag_2:\n    /* \"#utility.yul\":1498:1508   */\n  dup2\n  mload\n  sub(shl(0x40, 0x01), 0x01)\n    /* \"#utility.yul\":1520:1550   */\n  dup2\n  gt\n    /* \"#utility.yul\":1517:1573   */\n  iszero\n  tag_43\n  jumpi\n    /* \"#utility.yul\":1553:1571   */\n  tag_43\n  tag_23\n  jump\t// in\ntag_43:\n    /* \"#utility.yul\":1582:1679   */\n  tag_44\n    /* \"#utility.yul\":1672:1678   */\n  dup2\n    /* \"#utility.yul\":1632:1670   */\n  tag_45\n    /* \"#utility.yul\":1664:1668   */\n  dup5\n    /* \"#utility.yul\":1658:1669   */\n  sload\n    /* \"#utility.yul\":1632:1670   */\n  tag_24\n  jump\t// in\ntag_45:\n    /* \"#utility.yul\":1626:1630   */\n  dup5\n    /* \"#utility.yul\":1582:1679   */\n  tag_26\n  jump\t// in\ntag_44:\n    /* \"#utility.yul\":1734:1738   */\n  0x20\n  dup1\n    /* \"#utility.yul\":1798:1800   */\n  0x1f\n    /* \"#utility.yul\":1787:1801   */\n  dup4\n  gt\n    /* \"#utility.yul\":1815:1816   */\n  0x01\n    /* \"#utility.yul\":1810:2473   */\n  dup2\n  eq\n  tag_47\n  jumpi\n    /* \"#utility.yul\":2517:2518   */\n  0x00\n    /* \"#utility.yul\":2534:2540   */\n  dup5\n    /* \"#utility.yul\":2531:2620   */\n  iszero\n  tag_48\n  jumpi\n  pop\n    /* \"#utility.yul\":2586:2605   */\n  dup6\n  dup4\n  add\n    /* \"#utility.yul\":2580:2606   */\n  mload\n    /* \"#utility.yul\":2531:2620   */\ntag_48:\n  not(0x00)\n    /* \"#utility.yul\":1335:1336   */\n  0x03\n    /* \"#utility.yul\":1331:1342   */\n  dup7\n  swap1\n  shl\n    /* \"#utility.yul\":1327:1351   */\n  shr\n    /* \"#utility.yul\":1323:1352   */\n  not\n    /* \"#utility.yul\":1313:1353   */\n  and\n    /* \"#utility.yul\":1359:1360   */\n  0x01\n    /* \"#utility.yul\":1355:1366   */\n  dup6\n  swap1\n  shl\n    /* \"#utility.yul\":1310:1367   */\n  or\n    /* \"#utility.yul\":2633:2714   */\n  dup6\n  sstore\n    /* \"#utility.yul\":1780:2724   */\n  jump(tag_39)\n    /* \"#utility.yul\":1810:2473   */\ntag_47:\n    /* \"#utility.yul\":604:605   */\n  0x00\n    /* \"#utility.yul\":597:611   */\n  dup6\n  dup2\n  mstore\n    /* \"#utility.yul\":641:645   */\n  0x20\n    /* \"#utility.yul\":628:646   */\n  dup2\n  keccak256\n  not(0x1f)\n    /* \"#utility.yul\":1846:1866   */\n  dup7\n  and\n  swap2\n    /* \"#utility.yul\":1964:2200   */\ntag_51:\n    /* \"#utility.yul\":1978:1985   */\n  dup3\n    /* \"#utility.yul\":1975:1976   */\n  dup2\n    /* \"#utility.yul\":1972:1986   */\n  lt\n    /* \"#utility.yul\":1964:2200   */\n  iszero\n  tag_53\n  jumpi\n    /* \"#utility.yul\":2067:2086   */\n  dup9\n  dup7\n  add\n    /* \"#utility.yul\":2061:2087   */\n  mload\n    /* \"#utility.yul\":2046:2088   */\n  dup3\n  sstore\n    /* \"#utility.yul\":2159:2186   */\n  swap5\n  dup5\n  add\n  swap5\n    /* \"#utility.yul\":2127:2128   */\n  0x01\n    /* \"#utility.yul\":2115:2129   */\n  swap1\n  swap2\n  add\n  swap1\n    /* \"#utility.yul\":1994:2013   */\n  dup5\n  add\n    /* \"#utility.yul\":1964:2200   */\n  jump(tag_51)\ntag_53:\n    /* \"#utility.yul\":1968:1971   */\n  pop\n    /* \"#utility.yul\":2228:2234   */\n  dup6\n    /* \"#utility.yul\":2219:2226   */\n  dup3\n    /* \"#utility.yul\":2216:2235   */\n  lt\n    /* \"#utility.yul\":2213:2414   */\n  iszero\n  tag_54\n  jumpi\n    /* \"#utility.yul\":2289:2308   */\n  dup8\n  dup6\n  add\n    /* \"#utility.yul\":2283:2309   */\n  mload\n  not(0x00)\n    /* \"#utility.yul\":2372:2373   */\n  0x03\n    /* \"#utility.yul\":2368:2382   */\n  dup9\n  swap1\n  shl\n    /* \"#utility.yul\":2384:2387   */\n  0xf8\n    /* \"#utility.yul\":2364:2388   */\n  and\n    /* \"#utility.yul\":2360:2397   */\n  shr\n    /* \"#utility.yul\":2356:2398   */\n  not\n    /* \"#utility.yul\":2341:2399   */\n  and\n    /* \"#utility.yul\":2326:2400   */\n  dup2\n  sstore\n    /* \"#utility.yul\":2213:2414   */\ntag_54:\n  pop\n  pop\n  pop\n  pop\n  pop\n    /* \"#utility.yul\":2460:2461   */\n  0x01\n    /* \"#utility.yul\":2444:2458   */\n  swap1\n  dup2\n  shl\n    /* \"#utility.yul\":2440:2462   */\n  add\n    /* \"#utility.yul\":2427:2463   */\n  swap1\n  sstore\n  pop\n    /* \"#utility.yul\":1378:2730   */\n  jump\t// out\n    /* \"#utility.yul\":3088:3435   */\ntag_28:\n    /* \"FunctionsChainlink/GettingStartedConsumer.sol\":833:4422  contract GettingStartedFunctionsConsumer is FunctionsClient, ConfirmedOwner {... */\n  mload(0x80)\n  codecopy(0x00, dataOffset(sub_0), dataSize(sub_0))\n  0x00\n  assignImmutable(\"0x8e8fab5f003314da8d1873ea7720e8d9f47650136d916064d1edb8a11d682624\")\n  return(0x00, dataSize(sub_0))\nstop\ndata_e906a9eeb8903c8e2803ae52b2873b43408469afa2505733a0ef2c18a80a2441 636f6e7374206368617261637465724964203d20617267735b305d3b636f6e737420617069526573706f6e7365203d2061776169742046756e6374696f6e732e6d616b654874747052657175657374287b75726c3a206068747470733a2f2f73776170692e696e666f2f6170692f70656f706c652f247b63686172616374657249647d2f607d293b69662028617069526573706f6e73652e6572726f7229207b7468726f77204572726f72282752657175657374206661696c656427293b7d636f6e7374207b2064617461207d203d20617069526573706f6e73653b72657475726e2046756e6374696f6e732e656e636f6465537472696e6728646174612e6e616d65293b\n\nsub_0: assembly {\n        /* \"FunctionsChainlink/GettingStartedConsumer.sol\":833:4422  contract GettingStartedFunctionsConsumer is FunctionsClient, ConfirmedOwner {... */\n      mstore(0x40, 0x80)\n      callvalue\n      dup1\n      iszero\n      tag_1\n      jumpi\n      0x00\n      dup1\n      revert\n    tag_1:\n      pop\n      jumpi(tag_2, lt(calldatasize, 0x04))\n      shr(0xe0, calldataload(0x00))\n      dup1\n      0x4d2e03a0\n      gt\n      tag_12\n      jumpi\n      dup1\n      0x8da5cb5b\n      gt\n      tag_13\n      jumpi\n      dup1\n      0x8da5cb5b\n      eq\n      tag_9\n      jumpi\n      dup1\n      0xb1e21749\n      eq\n      tag_10\n      jumpi\n      dup1\n      0xf2fde38b\n      eq\n      tag_11\n      jumpi\n      0x00\n      dup1\n      revert\n    tag_13:\n      dup1\n      0x4d2e03a0\n      eq\n      tag_7\n      jumpi\n      dup1\n      0x79ba5097\n      eq\n      tag_8\n      jumpi\n      0x00\n      dup1\n      revert\n    tag_12:\n      dup1\n      0x0ca76175\n      eq\n      tag_3\n      jumpi\n      dup1\n      0x3944ea3a\n      eq\n      tag_4\n      jumpi\n      dup1\n      0x48a7d26d\n      eq\n      tag_5\n      jumpi\n      dup1\n      0x4b0795a8\n      eq\n      tag_6\n      jumpi\n    tag_2:\n      0x00\n      dup1\n      revert\n        /* \"@chainlink/contracts@0.8.0/src/v0.8/functions/dev/v1_0_0/FunctionsClient.sol\":2078:2364  function handleOracleFulfillment(bytes32 requestId, bytes memory response, bytes memory err) external override {... */\n    tag_3:\n      tag_14\n      tag_15\n      calldatasize\n      0x04\n      tag_16\n      jump\t// in\n    tag_15:\n      tag_17\n      jump\t// in\n    tag_14:\n      stop\n        /* \"FunctionsChainlink/GettingStartedConsumer.sol\":1082:1109  bytes public s_lastResponse */\n    tag_4:\n      tag_18\n      tag_19\n      jump\t// in\n    tag_18:\n      mload(0x40)\n      tag_20\n      swap2\n      swap1\n      tag_21\n      jump\t// in\n    tag_20:\n      mload(0x40)\n      dup1\n      swap2\n      sub\n      swap1\n      return\n        /* \"FunctionsChainlink/GettingStartedConsumer.sol\":2998:3605  function sendRequest(... */\n    tag_5:\n      tag_22\n      tag_23\n      calldatasize\n      0x04\n      tag_24\n      jump\t// in\n    tag_23:\n      tag_25\n      jump\t// in\n    tag_22:\n      mload(0x40)\n        /* \"#utility.yul\":3314:3339   */\n      swap1\n      dup2\n      mstore\n        /* \"#utility.yul\":3302:3304   */\n      0x20\n        /* \"#utility.yul\":3287:3305   */\n      add\n        /* \"FunctionsChainlink/GettingStartedConsumer.sol\":2998:3605  function sendRequest(... */\n      tag_20\n        /* \"#utility.yul\":3168:3345   */\n      jump\n        /* \"FunctionsChainlink/GettingStartedConsumer.sol\":1115:1139  bytes public s_lastError */\n    tag_6:\n      tag_18\n      tag_29\n      jump\t// in\n        /* \"FunctionsChainlink/GettingStartedConsumer.sol\":2523:2546  string public character */\n    tag_7:\n      tag_18\n      tag_32\n      jump\t// in\n        /* \"@chainlink/contracts@0.8.0/src/v0.8/shared/access/ConfirmedOwnerWithProposal.sol\":1001:1266  function acceptOwnership() external override {... */\n    tag_8:\n      tag_14\n      tag_36\n      jump\t// in\n        /* \"@chainlink/contracts@0.8.0/src/v0.8/shared/access/ConfirmedOwnerWithProposal.sol\":1317:1398  function owner() public view override returns (address) {... */\n    tag_9:\n        /* \"@chainlink/contracts@0.8.0/src/v0.8/shared/access/ConfirmedOwnerWithProposal.sol\":1364:1371  address */\n      0x00\n        /* \"@chainlink/contracts@0.8.0/src/v0.8/shared/access/ConfirmedOwnerWithProposal.sol\":1386:1393  s_owner */\n      sload\n        /* \"@chainlink/contracts@0.8.0/src/v0.8/shared/access/ConfirmedOwnerWithProposal.sol\":1317:1398  function owner() public view override returns (address) {... */\n      mload(0x40)\n      sub(shl(0xa0, 0x01), 0x01)\n        /* \"@chainlink/contracts@0.8.0/src/v0.8/shared/access/ConfirmedOwnerWithProposal.sol\":1386:1393  s_owner */\n      swap1\n      swap2\n      and\n        /* \"#utility.yul\":3720:3794   */\n      dup2\n      mstore\n        /* \"#utility.yul\":3708:3710   */\n      0x20\n        /* \"#utility.yul\":3693:3711   */\n      add\n        /* \"@chainlink/contracts@0.8.0/src/v0.8/shared/access/ConfirmedOwnerWithProposal.sol\":1317:1398  function owner() public view override returns (address) {... */\n      tag_20\n        /* \"#utility.yul\":3574:3800   */\n      jump\n        /* \"FunctionsChainlink/GettingStartedConsumer.sol\":1046:1076  bytes32 public s_lastRequestId */\n    tag_10:\n      tag_22\n      sload(0x02)\n      dup2\n      jump\n        /* \"@chainlink/contracts@0.8.0/src/v0.8/shared/access/ConfirmedOwnerWithProposal.sol\":811:909  function transferOwnership(address to) public override onlyOwner {... */\n    tag_11:\n      tag_14\n      tag_45\n      calldatasize\n      0x04\n      tag_46\n      jump\t// in\n    tag_45:\n      tag_47\n      jump\t// in\n        /* \"@chainlink/contracts@0.8.0/src/v0.8/functions/dev/v1_0_0/FunctionsClient.sol\":2078:2364  function handleOracleFulfillment(bytes32 requestId, bytes memory response, bytes memory err) external override {... */\n    tag_17:\n        /* \"@chainlink/contracts@0.8.0/src/v0.8/functions/dev/v1_0_0/FunctionsClient.sol\":2199:2209  msg.sender */\n      caller\n      sub(shl(0xa0, 0x01), 0x01)\n        /* \"@chainlink/contracts@0.8.0/src/v0.8/functions/dev/v1_0_0/FunctionsClient.sol\":2221:2229  i_router */\n      immutable(\"0x8e8fab5f003314da8d1873ea7720e8d9f47650136d916064d1edb8a11d682624\")\n        /* \"@chainlink/contracts@0.8.0/src/v0.8/functions/dev/v1_0_0/FunctionsClient.sol\":2199:2230  msg.sender != address(i_router) */\n      and\n      eq\n        /* \"@chainlink/contracts@0.8.0/src/v0.8/functions/dev/v1_0_0/FunctionsClient.sol\":2195:2276  if (msg.sender != address(i_router)) {... */\n      tag_49\n      jumpi\n        /* \"@chainlink/contracts@0.8.0/src/v0.8/functions/dev/v1_0_0/FunctionsClient.sol\":2247:2269  OnlyRouterCanFulfill() */\n      mload(0x40)\n      0xc6829f8300000000000000000000000000000000000000000000000000000000\n      dup2\n      mstore\n      0x04\n      add\n      mload(0x40)\n      dup1\n      swap2\n      sub\n      swap1\n      revert\n        /* \"@chainlink/contracts@0.8.0/src/v0.8/functions/dev/v1_0_0/FunctionsClient.sol\":2195:2276  if (msg.sender != address(i_router)) {... */\n    tag_49:\n        /* \"@chainlink/contracts@0.8.0/src/v0.8/functions/dev/v1_0_0/FunctionsClient.sol\":2281:2321  fulfillRequest(requestId, response, err) */\n      tag_50\n        /* \"@chainlink/contracts@0.8.0/src/v0.8/functions/dev/v1_0_0/FunctionsClient.sol\":2296:2305  requestId */\n      dup4\n        /* \"@chainlink/contracts@0.8.0/src/v0.8/functions/dev/v1_0_0/FunctionsClient.sol\":2307:2315  response */\n      dup4\n        /* \"@chainlink/contracts@0.8.0/src/v0.8/functions/dev/v1_0_0/FunctionsClient.sol\":2317:2320  err */\n      dup4\n        /* \"@chainlink/contracts@0.8.0/src/v0.8/functions/dev/v1_0_0/FunctionsClient.sol\":2281:2295  fulfillRequest */\n      tag_51\n        /* \"@chainlink/contracts@0.8.0/src/v0.8/functions/dev/v1_0_0/FunctionsClient.sol\":2281:2321  fulfillRequest(requestId, response, err) */\n      jump\t// in\n    tag_50:\n        /* \"@chainlink/contracts@0.8.0/src/v0.8/functions/dev/v1_0_0/FunctionsClient.sol\":2332:2359  RequestFulfilled(requestId) */\n      mload(0x40)\n        /* \"@chainlink/contracts@0.8.0/src/v0.8/functions/dev/v1_0_0/FunctionsClient.sol\":2349:2358  requestId */\n      dup4\n      swap1\n        /* \"@chainlink/contracts@0.8.0/src/v0.8/functions/dev/v1_0_0/FunctionsClient.sol\":2332:2359  RequestFulfilled(requestId) */\n      0x85e1543bf2f84fe80c6badbce3648c8539ad1df4d2b3d822938ca0538be727e6\n      swap1\n      0x00\n      swap1\n      log2\n        /* \"@chainlink/contracts@0.8.0/src/v0.8/functions/dev/v1_0_0/FunctionsClient.sol\":2078:2364  function handleOracleFulfillment(bytes32 requestId, bytes memory response, bytes memory err) external override {... */\n      pop\n      pop\n      pop\n      jump\t// out\n        /* \"FunctionsChainlink/GettingStartedConsumer.sol\":1082:1109  bytes public s_lastResponse */\n    tag_19:\n      0x03\n      dup1\n      sload\n      tag_52\n      swap1\n      tag_53\n      jump\t// in\n    tag_52:\n      dup1\n      0x1f\n      add\n      0x20\n      dup1\n      swap2\n      div\n      mul\n      0x20\n      add\n      mload(0x40)\n      swap1\n      dup2\n      add\n      0x40\n      mstore\n      dup1\n      swap3\n      swap2\n      swap1\n      dup2\n      dup2\n      mstore\n      0x20\n      add\n      dup3\n      dup1\n      sload\n      tag_54\n      swap1\n      tag_53\n      jump\t// in\n    tag_54:\n      dup1\n      iszero\n      tag_55\n      jumpi\n      dup1\n      0x1f\n      lt\n      tag_56\n      jumpi\n      0x0100\n      dup1\n      dup4\n      sload\n      div\n      mul\n      dup4\n      mstore\n      swap2\n      0x20\n      add\n      swap2\n      jump(tag_55)\n    tag_56:\n      dup3\n      add\n      swap2\n      swap1\n      0x00\n      mstore\n      keccak256(0x00, 0x20)\n      swap1\n    tag_57:\n      dup2\n      sload\n      dup2\n      mstore\n      swap1\n      0x01\n      add\n      swap1\n      0x20\n      add\n      dup1\n      dup4\n      gt\n      tag_57\n      jumpi\n      dup3\n      swap1\n      sub\n      0x1f\n      and\n      dup3\n      add\n      swap2\n    tag_55:\n      pop\n      pop\n      pop\n      pop\n      pop\n      dup2\n      jump\t// out\n        /* \"FunctionsChainlink/GettingStartedConsumer.sol\":2998:3605  function sendRequest(... */\n    tag_25:\n        /* \"FunctionsChainlink/GettingStartedConsumer.sol\":3116:3133  bytes32 requestId */\n      0x00\n        /* \"@chainlink/contracts@0.8.0/src/v0.8/shared/access/ConfirmedOwnerWithProposal.sol\":1941:1961  _validateOwnership() */\n      tag_59\n        /* \"@chainlink/contracts@0.8.0/src/v0.8/shared/access/ConfirmedOwnerWithProposal.sol\":1941:1959  _validateOwnership */\n      tag_60\n        /* \"@chainlink/contracts@0.8.0/src/v0.8/shared/access/ConfirmedOwnerWithProposal.sol\":1941:1961  _validateOwnership() */\n      jump\t// in\n    tag_59:\n        /* \"FunctionsChainlink/GettingStartedConsumer.sol\":3145:3180  FunctionsRequest.Request memory req */\n      tag_62\n      0x40\n      dup1\n      mload\n      0xe0\n      dup2\n      add\n      swap1\n      swap2\n      mstore\n      dup1\n      0x00\n      dup2\n      mstore\n      0x20\n      add\n      0x00\n      dup2\n      mstore\n      0x20\n      add\n      0x00\n      dup2\n      mstore\n      0x20\n      add\n      0x60\n      dup2\n      mstore\n      0x20\n      add\n      0x60\n      dup2\n      mstore\n      0x20\n      add\n      0x60\n      dup2\n      mstore\n      0x20\n      add\n      0x60\n      dup2\n      mstore\n      pop\n      swap1\n      jump\n    tag_62:\n        /* \"FunctionsChainlink/GettingStartedConsumer.sol\":3190:3238  req.initializeRequestForInlineJavaScript(source) */\n      tag_64\n        /* \"FunctionsChainlink/GettingStartedConsumer.sol\":3231:3237  source */\n      0x06\n        /* \"FunctionsChainlink/GettingStartedConsumer.sol\":3190:3238  req.initializeRequestForInlineJavaScript(source) */\n      dup1\n      sload\n      tag_65\n      swap1\n      tag_53\n      jump\t// in\n    tag_65:\n      dup1\n      0x1f\n      add\n      0x20\n      dup1\n      swap2\n      div\n      mul\n      0x20\n      add\n      mload(0x40)\n      swap1\n      dup2\n      add\n      0x40\n      mstore\n      dup1\n      swap3\n      swap2\n      swap1\n      dup2\n      dup2\n      mstore\n      0x20\n      add\n      dup3\n      dup1\n      sload\n      tag_66\n      swap1\n      tag_53\n      jump\t// in\n    tag_66:\n      dup1\n      iszero\n      tag_67\n      jumpi\n      dup1\n      0x1f\n      lt\n      tag_68\n      jumpi\n      0x0100\n      dup1\n      dup4\n      sload\n      div\n      mul\n      dup4\n      mstore\n      swap2\n      0x20\n      add\n      swap2\n      jump(tag_67)\n    tag_68:\n      dup3\n      add\n      swap2\n      swap1\n      0x00\n      mstore\n      keccak256(0x00, 0x20)\n      swap1\n    tag_69:\n      dup2\n      sload\n      dup2\n      mstore\n      swap1\n      0x01\n      add\n      swap1\n      0x20\n      add\n      dup1\n      dup4\n      gt\n      tag_69\n      jumpi\n      dup3\n      swap1\n      sub\n      0x1f\n      and\n      dup3\n      add\n      swap2\n    tag_67:\n      pop\n      pop\n      pop\n      pop\n      pop\n        /* \"FunctionsChainlink/GettingStartedConsumer.sol\":3190:3193  req */\n      dup3\n        /* \"FunctionsChainlink/GettingStartedConsumer.sol\":3190:3230  req.initializeRequestForInlineJavaScript */\n      tag_70\n      swap1\n        /* \"FunctionsChainlink/GettingStartedConsumer.sol\":3190:3238  req.initializeRequestForInlineJavaScript(source) */\n      swap2\n      swap1\n      0xffffffff\n      and\n      jump\t// in\n    tag_64:\n        /* \"FunctionsChainlink/GettingStartedConsumer.sol\":3291:3306  args.length > 0 */\n      dup3\n      iszero\n        /* \"FunctionsChainlink/GettingStartedConsumer.sol\":3287:3325  if (args.length > 0) req.setArgs(args) */\n      tag_72\n      jumpi\n        /* \"FunctionsChainlink/GettingStartedConsumer.sol\":3308:3325  req.setArgs(args) */\n      tag_72\n      tag_73\n        /* \"FunctionsChainlink/GettingStartedConsumer.sol\":3320:3324  args */\n      dup5\n      dup7\n        /* \"FunctionsChainlink/GettingStartedConsumer.sol\":3308:3325  req.setArgs(args) */\n      tag_74\n      jump\t// in\n    tag_73:\n        /* \"FunctionsChainlink/GettingStartedConsumer.sol\":3308:3311  req */\n      dup3\n      swap1\n        /* \"FunctionsChainlink/GettingStartedConsumer.sol\":3308:3319  req.setArgs */\n      tag_75\n        /* \"FunctionsChainlink/GettingStartedConsumer.sol\":3308:3325  req.setArgs(args) */\n      jump\t// in\n    tag_72:\n        /* \"FunctionsChainlink/GettingStartedConsumer.sol\":3444:3565  _sendRequest(... */\n      tag_76\n        /* \"FunctionsChainlink/GettingStartedConsumer.sol\":3470:3486  req.encodeCBOR() */\n      tag_77\n        /* \"FunctionsChainlink/GettingStartedConsumer.sol\":3470:3473  req */\n      dup3\n        /* \"FunctionsChainlink/GettingStartedConsumer.sol\":3470:3484  req.encodeCBOR */\n      tag_78\n        /* \"FunctionsChainlink/GettingStartedConsumer.sol\":3470:3486  req.encodeCBOR() */\n      jump\t// in\n    tag_77:\n        /* \"FunctionsChainlink/GettingStartedConsumer.sol\":3528:3536  gasLimit */\n      sload(0x07)\n        /* \"FunctionsChainlink/GettingStartedConsumer.sol\":3550:3555  donID */\n      sload(0x08)\n        /* \"FunctionsChainlink/GettingStartedConsumer.sol\":3500:3514  subscriptionId */\n      dup9\n      swap2\n        /* \"FunctionsChainlink/GettingStartedConsumer.sol\":3528:3536  gasLimit */\n      0xffffffff\n      and\n      swap1\n        /* \"FunctionsChainlink/GettingStartedConsumer.sol\":3444:3456  _sendRequest */\n      tag_79\n        /* \"FunctionsChainlink/GettingStartedConsumer.sol\":3444:3565  _sendRequest(... */\n      jump\t// in\n    tag_76:\n        /* \"FunctionsChainlink/GettingStartedConsumer.sol\":3426:3441  s_lastRequestId */\n      0x02\n        /* \"FunctionsChainlink/GettingStartedConsumer.sol\":3426:3565  s_lastRequestId = _sendRequest(... */\n      dup2\n      swap1\n      sstore\n      swap6\n        /* \"FunctionsChainlink/GettingStartedConsumer.sol\":2998:3605  function sendRequest(... */\n      swap5\n      pop\n      pop\n      pop\n      pop\n      pop\n      jump\t// out\n        /* \"FunctionsChainlink/GettingStartedConsumer.sol\":1115:1139  bytes public s_lastError */\n    tag_29:\n      0x04\n      dup1\n      sload\n      tag_52\n      swap1\n      tag_53\n      jump\t// in\n        /* \"FunctionsChainlink/GettingStartedConsumer.sol\":2523:2546  string public character */\n    tag_32:\n      0x09\n      dup1\n      sload\n      tag_52\n      swap1\n      tag_53\n      jump\t// in\n        /* \"@chainlink/contracts@0.8.0/src/v0.8/shared/access/ConfirmedOwnerWithProposal.sol\":1001:1266  function acceptOwnership() external override {... */\n    tag_36:\n        /* \"@chainlink/contracts@0.8.0/src/v0.8/shared/access/ConfirmedOwnerWithProposal.sol\":1074:1088  s_pendingOwner */\n      and(sub(shl(0xa0, 0x01), 0x01), sload(0x01))\n        /* \"@chainlink/contracts@0.8.0/src/v0.8/shared/access/ConfirmedOwnerWithProposal.sol\":1060:1070  msg.sender */\n      caller\n        /* \"@chainlink/contracts@0.8.0/src/v0.8/shared/access/ConfirmedOwnerWithProposal.sol\":1060:1088  msg.sender == s_pendingOwner */\n      eq\n        /* \"@chainlink/contracts@0.8.0/src/v0.8/shared/access/ConfirmedOwnerWithProposal.sol\":1052:1115  require(msg.sender == s_pendingOwner, \"Must be proposed owner\") */\n      tag_91\n      jumpi\n      mload(0x40)\n      shl(0xe5, 0x461bcd)\n      dup2\n      mstore\n        /* \"#utility.yul\":5918:5920   */\n      0x20\n        /* \"@chainlink/contracts@0.8.0/src/v0.8/shared/access/ConfirmedOwnerWithProposal.sol\":1052:1115  require(msg.sender == s_pendingOwner, \"Must be proposed owner\") */\n      0x04\n      dup3\n      add\n        /* \"#utility.yul\":5900:5921   */\n      mstore\n        /* \"#utility.yul\":5957:5959   */\n      0x16\n        /* \"#utility.yul\":5937:5955   */\n      0x24\n      dup3\n      add\n        /* \"#utility.yul\":5930:5960   */\n      mstore\n        /* \"#utility.yul\":5996:6020   */\n      0x4d7573742062652070726f706f736564206f776e657200000000000000000000\n        /* \"#utility.yul\":5976:5994   */\n      0x44\n      dup3\n      add\n        /* \"#utility.yul\":5969:6021   */\n      mstore\n        /* \"#utility.yul\":6038:6056   */\n      0x64\n      add\n        /* \"@chainlink/contracts@0.8.0/src/v0.8/shared/access/ConfirmedOwnerWithProposal.sol\":1052:1115  require(msg.sender == s_pendingOwner, \"Must be proposed owner\") */\n    tag_92:\n      mload(0x40)\n      dup1\n      swap2\n      sub\n      swap1\n      revert\n    tag_91:\n        /* \"@chainlink/contracts@0.8.0/src/v0.8/shared/access/ConfirmedOwnerWithProposal.sol\":1122:1138  address oldOwner */\n      0x00\n        /* \"@chainlink/contracts@0.8.0/src/v0.8/shared/access/ConfirmedOwnerWithProposal.sol\":1141:1148  s_owner */\n      dup1\n      sload\n        /* \"@chainlink/contracts@0.8.0/src/v0.8/shared/access/ConfirmedOwnerWithProposal.sol\":1164:1174  msg.sender */\n      caller\n      not(0xffffffffffffffffffffffffffffffffffffffff)\n        /* \"@chainlink/contracts@0.8.0/src/v0.8/shared/access/ConfirmedOwnerWithProposal.sol\":1154:1174  s_owner = msg.sender */\n      dup1\n      dup4\n      and\n      dup3\n      or\n      dup5\n      sstore\n      0x01\n        /* \"@chainlink/contracts@0.8.0/src/v0.8/shared/access/ConfirmedOwnerWithProposal.sol\":1180:1207  s_pendingOwner = address(0) */\n      dup1\n      sload\n      swap1\n      swap2\n      and\n      swap1\n      sstore\n        /* \"@chainlink/contracts@0.8.0/src/v0.8/shared/access/ConfirmedOwnerWithProposal.sol\":1219:1261  OwnershipTransferred(oldOwner, msg.sender) */\n      mload(0x40)\n      sub(shl(0xa0, 0x01), 0x01)\n        /* \"@chainlink/contracts@0.8.0/src/v0.8/shared/access/ConfirmedOwnerWithProposal.sol\":1141:1148  s_owner */\n      swap1\n      swap3\n      and\n      swap3\n        /* \"@chainlink/contracts@0.8.0/src/v0.8/shared/access/ConfirmedOwnerWithProposal.sol\":1164:1174  msg.sender */\n      swap1\n      swap2\n        /* \"@chainlink/contracts@0.8.0/src/v0.8/shared/access/ConfirmedOwnerWithProposal.sol\":1141:1148  s_owner */\n      dup4\n      swap2\n        /* \"@chainlink/contracts@0.8.0/src/v0.8/shared/access/ConfirmedOwnerWithProposal.sol\":1219:1261  OwnershipTransferred(oldOwner, msg.sender) */\n      0x8be0079c531659141344cd1fd0a4f28419497f9722a3daafe3b4186f6b6457e0\n      swap2\n      log3\n        /* \"@chainlink/contracts@0.8.0/src/v0.8/shared/access/ConfirmedOwnerWithProposal.sol\":1046:1266  {... */\n      pop\n        /* \"@chainlink/contracts@0.8.0/src/v0.8/shared/access/ConfirmedOwnerWithProposal.sol\":1001:1266  function acceptOwnership() external override {... */\n      jump\t// out\n        /* \"@chainlink/contracts@0.8.0/src/v0.8/shared/access/ConfirmedOwnerWithProposal.sol\":811:909  function transferOwnership(address to) public override onlyOwner {... */\n    tag_47:\n        /* \"@chainlink/contracts@0.8.0/src/v0.8/shared/access/ConfirmedOwnerWithProposal.sol\":1941:1961  _validateOwnership() */\n      tag_96\n        /* \"@chainlink/contracts@0.8.0/src/v0.8/shared/access/ConfirmedOwnerWithProposal.sol\":1941:1959  _validateOwnership */\n      tag_60\n        /* \"@chainlink/contracts@0.8.0/src/v0.8/shared/access/ConfirmedOwnerWithProposal.sol\":1941:1961  _validateOwnership() */\n      jump\t// in\n    tag_96:\n        /* \"@chainlink/contracts@0.8.0/src/v0.8/shared/access/ConfirmedOwnerWithProposal.sol\":882:904  _transferOwnership(to) */\n      tag_98\n        /* \"@chainlink/contracts@0.8.0/src/v0.8/shared/access/ConfirmedOwnerWithProposal.sol\":901:903  to */\n      dup2\n        /* \"@chainlink/contracts@0.8.0/src/v0.8/shared/access/ConfirmedOwnerWithProposal.sol\":882:900  _transferOwnership */\n      tag_99\n        /* \"@chainlink/contracts@0.8.0/src/v0.8/shared/access/ConfirmedOwnerWithProposal.sol\":882:904  _transferOwnership(to) */\n      jump\t// in\n    tag_98:\n        /* \"@chainlink/contracts@0.8.0/src/v0.8/shared/access/ConfirmedOwnerWithProposal.sol\":811:909  function transferOwnership(address to) public override onlyOwner {... */\n      pop\n      jump\t// out\n        /* \"FunctionsChainlink/GettingStartedConsumer.sol\":3844:4420  function fulfillRequest(... */\n    tag_51:\n        /* \"FunctionsChainlink/GettingStartedConsumer.sol\":4009:4018  requestId */\n      dup3\n        /* \"FunctionsChainlink/GettingStartedConsumer.sol\":3990:4005  s_lastRequestId */\n      sload(0x02)\n        /* \"FunctionsChainlink/GettingStartedConsumer.sol\":3990:4018  s_lastRequestId != requestId */\n      eq\n        /* \"FunctionsChainlink/GettingStartedConsumer.sol\":3986:4112  if (s_lastRequestId != requestId) {... */\n      tag_101\n      jumpi\n        /* \"FunctionsChainlink/GettingStartedConsumer.sol\":4041:4071  UnexpectedRequestID(requestId) */\n      mload(0x40)\n      0xd068bf5b00000000000000000000000000000000000000000000000000000000\n      dup2\n      mstore\n      0x04\n      dup2\n      add\n        /* \"#utility.yul\":3314:3339   */\n      dup5\n      swap1\n      mstore\n        /* \"#utility.yul\":3287:3305   */\n      0x24\n      add\n        /* \"FunctionsChainlink/GettingStartedConsumer.sol\":4041:4071  UnexpectedRequestID(requestId) */\n      tag_92\n        /* \"#utility.yul\":3168:3345   */\n      jump\n        /* \"FunctionsChainlink/GettingStartedConsumer.sol\":3986:4112  if (s_lastRequestId != requestId) {... */\n    tag_101:\n        /* \"FunctionsChainlink/GettingStartedConsumer.sol\":4203:4217  s_lastResponse */\n      0x03\n        /* \"FunctionsChainlink/GettingStartedConsumer.sol\":4203:4228  s_lastResponse = response */\n      tag_103\n        /* \"FunctionsChainlink/GettingStartedConsumer.sol\":4220:4228  response */\n      dup4\n        /* \"FunctionsChainlink/GettingStartedConsumer.sol\":4203:4217  s_lastResponse */\n      dup3\n        /* \"FunctionsChainlink/GettingStartedConsumer.sol\":4203:4228  s_lastResponse = response */\n      tag_104\n      jump\t// in\n    tag_103:\n      pop\n        /* \"FunctionsChainlink/GettingStartedConsumer.sol\":4238:4247  character */\n      0x09\n        /* \"FunctionsChainlink/GettingStartedConsumer.sol\":4238:4266  character = string(response) */\n      tag_105\n        /* \"FunctionsChainlink/GettingStartedConsumer.sol\":4257:4265  response */\n      dup4\n        /* \"FunctionsChainlink/GettingStartedConsumer.sol\":4238:4247  character */\n      dup3\n        /* \"FunctionsChainlink/GettingStartedConsumer.sol\":4238:4266  character = string(response) */\n      tag_104\n      jump\t// in\n    tag_105:\n      pop\n        /* \"FunctionsChainlink/GettingStartedConsumer.sol\":4276:4287  s_lastError */\n      0x04\n        /* \"FunctionsChainlink/GettingStartedConsumer.sol\":4276:4293  s_lastError = err */\n      tag_107\n        /* \"FunctionsChainlink/GettingStartedConsumer.sol\":4290:4293  err */\n      dup3\n        /* \"FunctionsChainlink/GettingStartedConsumer.sol\":4276:4287  s_lastError */\n      dup3\n        /* \"FunctionsChainlink/GettingStartedConsumer.sol\":4276:4293  s_lastError = err */\n      tag_104\n      jump\t// in\n    tag_107:\n      pop\n        /* \"FunctionsChainlink/GettingStartedConsumer.sol\":4363:4372  requestId */\n      dup3\n        /* \"FunctionsChainlink/GettingStartedConsumer.sol\":4354:4413  Response(requestId, character, s_lastResponse, s_lastError) */\n      0x160ed0aaffbef6885155188b91459cb5a97d5daadccf7561d8c46deea6641b50\n        /* \"FunctionsChainlink/GettingStartedConsumer.sol\":4374:4383  character */\n      0x09\n        /* \"FunctionsChainlink/GettingStartedConsumer.sol\":4385:4399  s_lastResponse */\n      0x03\n        /* \"FunctionsChainlink/GettingStartedConsumer.sol\":4401:4412  s_lastError */\n      0x04\n        /* \"FunctionsChainlink/GettingStartedConsumer.sol\":4354:4413  Response(requestId, character, s_lastResponse, s_lastError) */\n      mload(0x40)\n      tag_108\n      swap4\n      swap3\n      swap2\n      swap1\n      tag_109\n      jump\t// in\n    tag_108:\n      mload(0x40)\n      dup1\n      swap2\n      sub\n      swap1\n      log2\n        /* \"FunctionsChainlink/GettingStartedConsumer.sol\":3844:4420  function fulfillRequest(... */\n      pop\n      pop\n      pop\n      jump\t// out\n        /* \"@chainlink/contracts@0.8.0/src/v0.8/shared/access/ConfirmedOwnerWithProposal.sol\":1715:1826  function _validateOwnership() internal view {... */\n    tag_60:\n        /* \"@chainlink/contracts@0.8.0/src/v0.8/shared/access/ConfirmedOwnerWithProposal.sol\":1787:1794  s_owner */\n      and(sub(shl(0xa0, 0x01), 0x01), sload(0x00))\n        /* \"@chainlink/contracts@0.8.0/src/v0.8/shared/access/ConfirmedOwnerWithProposal.sol\":1773:1783  msg.sender */\n      caller\n        /* \"@chainlink/contracts@0.8.0/src/v0.8/shared/access/ConfirmedOwnerWithProposal.sol\":1773:1794  msg.sender == s_owner */\n      eq\n        /* \"@chainlink/contracts@0.8.0/src/v0.8/shared/access/ConfirmedOwnerWithProposal.sol\":1765:1821  require(msg.sender == s_owner, \"Only callable by owner\") */\n      tag_111\n      jumpi\n      mload(0x40)\n      shl(0xe5, 0x461bcd)\n      dup2\n      mstore\n        /* \"#utility.yul\":11161:11163   */\n      0x20\n        /* \"@chainlink/contracts@0.8.0/src/v0.8/shared/access/ConfirmedOwnerWithProposal.sol\":1765:1821  require(msg.sender == s_owner, \"Only callable by owner\") */\n      0x04\n      dup3\n      add\n        /* \"#utility.yul\":11143:11164   */\n      mstore\n        /* \"#utility.yul\":11200:11202   */\n      0x16\n        /* \"#utility.yul\":11180:11198   */\n      0x24\n      dup3\n      add\n        /* \"#utility.yul\":11173:11203   */\n      mstore\n        /* \"#utility.yul\":11239:11263   */\n      0x4f6e6c792063616c6c61626c65206279206f776e657200000000000000000000\n        /* \"#utility.yul\":11219:11237   */\n      0x44\n      dup3\n      add\n        /* \"#utility.yul\":11212:11264   */\n      mstore\n        /* \"#utility.yul\":11281:11299   */\n      0x64\n      add\n        /* \"@chainlink/contracts@0.8.0/src/v0.8/shared/access/ConfirmedOwnerWithProposal.sol\":1765:1821  require(msg.sender == s_owner, \"Only callable by owner\") */\n      tag_92\n        /* \"#utility.yul\":10959:11305   */\n      jump\n        /* \"@chainlink/contracts@0.8.0/src/v0.8/shared/access/ConfirmedOwnerWithProposal.sol\":1765:1821  require(msg.sender == s_owner, \"Only callable by owner\") */\n    tag_111:\n        /* \"@chainlink/contracts@0.8.0/src/v0.8/shared/access/ConfirmedOwnerWithProposal.sol\":1715:1826  function _validateOwnership() internal view {... */\n      jump\t// out\n        /* \"@chainlink/contracts@0.8.0/src/v0.8/functions/dev/v1_0_0/libraries/FunctionsRequest.sol\":4326:4533  function initializeRequestForInlineJavaScript(Request memory self, string memory javaScriptSource) internal pure {... */\n    tag_70:\n        /* \"@chainlink/contracts@0.8.0/src/v0.8/functions/dev/v1_0_0/libraries/FunctionsRequest.sol\":4445:4528  initializeRequest(self, Location.Inline, CodeLanguage.JavaScript, javaScriptSource) */\n      tag_115\n        /* \"@chainlink/contracts@0.8.0/src/v0.8/functions/dev/v1_0_0/libraries/FunctionsRequest.sol\":4463:4467  self */\n      dup3\n        /* \"@chainlink/contracts@0.8.0/src/v0.8/functions/dev/v1_0_0/libraries/FunctionsRequest.sol\":4469:4484  Location.Inline */\n      0x00\n        /* \"@chainlink/contracts@0.8.0/src/v0.8/functions/dev/v1_0_0/libraries/FunctionsRequest.sol\":4486:4509  CodeLanguage.JavaScript */\n      dup1\n        /* \"@chainlink/contracts@0.8.0/src/v0.8/functions/dev/v1_0_0/libraries/FunctionsRequest.sol\":4511:4527  javaScriptSource */\n      dup5\n        /* \"@chainlink/contracts@0.8.0/src/v0.8/functions/dev/v1_0_0/libraries/FunctionsRequest.sol\":4445:4462  initializeRequest */\n      tag_116\n        /* \"@chainlink/contracts@0.8.0/src/v0.8/functions/dev/v1_0_0/libraries/FunctionsRequest.sol\":4445:4528  initializeRequest(self, Location.Inline, CodeLanguage.JavaScript, javaScriptSource) */\n      jump\t// in\n    tag_115:\n        /* \"@chainlink/contracts@0.8.0/src/v0.8/functions/dev/v1_0_0/libraries/FunctionsRequest.sol\":4326:4533  function initializeRequestForInlineJavaScript(Request memory self, string memory javaScriptSource) internal pure {... */\n      pop\n      pop\n      jump\t// out\n        /* \"@chainlink/contracts@0.8.0/src/v0.8/functions/dev/v1_0_0/libraries/FunctionsRequest.sol\":5830:5978  function setArgs(Request memory self, string[] memory args) internal pure {... */\n    tag_75:\n        /* \"@chainlink/contracts@0.8.0/src/v0.8/functions/dev/v1_0_0/libraries/FunctionsRequest.sol\":5914:5918  args */\n      dup1\n        /* \"@chainlink/contracts@0.8.0/src/v0.8/functions/dev/v1_0_0/libraries/FunctionsRequest.sol\":5914:5925  args.length */\n      mload\n        /* \"@chainlink/contracts@0.8.0/src/v0.8/functions/dev/v1_0_0/libraries/FunctionsRequest.sol\":5929:5930  0 */\n      0x00\n        /* \"@chainlink/contracts@0.8.0/src/v0.8/functions/dev/v1_0_0/libraries/FunctionsRequest.sol\":5914:5930  args.length == 0 */\n      sub\n        /* \"@chainlink/contracts@0.8.0/src/v0.8/functions/dev/v1_0_0/libraries/FunctionsRequest.sol\":5910:5950  if (args.length == 0) revert EmptyArgs() */\n      tag_118\n      jumpi\n        /* \"@chainlink/contracts@0.8.0/src/v0.8/functions/dev/v1_0_0/libraries/FunctionsRequest.sol\":5939:5950  EmptyArgs() */\n      mload(0x40)\n      0xfe936cb700000000000000000000000000000000000000000000000000000000\n      dup2\n      mstore\n      0x04\n      add\n      mload(0x40)\n      dup1\n      swap2\n      sub\n      swap1\n      revert\n        /* \"@chainlink/contracts@0.8.0/src/v0.8/functions/dev/v1_0_0/libraries/FunctionsRequest.sol\":5910:5950  if (args.length == 0) revert EmptyArgs() */\n    tag_118:\n        /* \"@chainlink/contracts@0.8.0/src/v0.8/functions/dev/v1_0_0/libraries/FunctionsRequest.sol\":5957:5966  self.args */\n      0xa0\n      swap1\n      swap2\n      add\n        /* \"@chainlink/contracts@0.8.0/src/v0.8/functions/dev/v1_0_0/libraries/FunctionsRequest.sol\":5957:5973  self.args = args */\n      mstore\n        /* \"@chainlink/contracts@0.8.0/src/v0.8/functions/dev/v1_0_0/libraries/FunctionsRequest.sol\":5830:5978  function setArgs(Request memory self, string[] memory args) internal pure {... */\n      jump\t// out\n        /* \"@chainlink/contracts@0.8.0/src/v0.8/functions/dev/v1_0_0/libraries/FunctionsRequest.sol\":2161:3431  function encodeCBOR(Request memory self) internal pure returns (bytes memory) {... */\n    tag_78:\n        /* \"@chainlink/contracts@0.8.0/src/v0.8/functions/dev/v1_0_0/libraries/FunctionsRequest.sol\":2225:2237  bytes memory */\n      0x60\n        /* \"@chainlink/contracts@0.8.0/src/v0.8/functions/dev/v1_0_0/libraries/FunctionsRequest.sol\":2245:2274  CBOR.CBORBuffer memory buffer */\n      0x00\n        /* \"@chainlink/contracts@0.8.0/src/v0.8/functions/dev/v1_0_0/libraries/FunctionsRequest.sol\":2277:2309  CBOR.create(DEFAULT_BUFFER_SIZE) */\n      tag_120\n        /* \"@chainlink/contracts@0.8.0/src/v0.8/functions/dev/v1_0_0/libraries/FunctionsRequest.sol\":378:381  256 */\n      0x0100\n        /* \"@chainlink/contracts@0.8.0/src/v0.8/functions/dev/v1_0_0/libraries/FunctionsRequest.sol\":2277:2288  CBOR.create */\n      tag_121\n        /* \"@chainlink/contracts@0.8.0/src/v0.8/functions/dev/v1_0_0/libraries/FunctionsRequest.sol\":2277:2309  CBOR.create(DEFAULT_BUFFER_SIZE) */\n      jump\t// in\n    tag_120:\n        /* \"@chainlink/contracts@0.8.0/src/v0.8/functions/dev/v1_0_0/libraries/FunctionsRequest.sol\":2245:2309  CBOR.CBORBuffer memory buffer = CBOR.create(DEFAULT_BUFFER_SIZE) */\n      swap1\n      pop\n        /* \"@chainlink/contracts@0.8.0/src/v0.8/functions/dev/v1_0_0/libraries/FunctionsRequest.sol\":2316:2350  buffer.writeString(\"codeLocation\") */\n      tag_122\n      mload(0x40)\n      dup1\n      0x40\n      add\n      0x40\n      mstore\n      dup1\n      0x0c\n      dup2\n      mstore\n      0x20\n      add\n      0x636f64654c6f636174696f6e0000000000000000000000000000000000000000\n      dup2\n      mstore\n      pop\n        /* \"@chainlink/contracts@0.8.0/src/v0.8/functions/dev/v1_0_0/libraries/FunctionsRequest.sol\":2316:2322  buffer */\n      dup3\n        /* \"@chainlink/contracts@0.8.0/src/v0.8/functions/dev/v1_0_0/libraries/FunctionsRequest.sol\":2316:2334  buffer.writeString */\n      tag_123\n      swap1\n        /* \"@chainlink/contracts@0.8.0/src/v0.8/functions/dev/v1_0_0/libraries/FunctionsRequest.sol\":2316:2350  buffer.writeString(\"codeLocation\") */\n      swap2\n      swap1\n      0xffffffff\n      and\n      jump\t// in\n    tag_122:\n        /* \"@chainlink/contracts@0.8.0/src/v0.8/functions/dev/v1_0_0/libraries/FunctionsRequest.sol\":2384:2401  self.codeLocation */\n      dup3\n      mload\n        /* \"@chainlink/contracts@0.8.0/src/v0.8/functions/dev/v1_0_0/libraries/FunctionsRequest.sol\":2356:2403  buffer.writeUInt256(uint256(self.codeLocation)) */\n      tag_124\n      swap1\n        /* \"@chainlink/contracts@0.8.0/src/v0.8/functions/dev/v1_0_0/libraries/FunctionsRequest.sol\":2376:2402  uint256(self.codeLocation) */\n      0x02\n      dup2\n      gt\n      iszero\n      tag_126\n      jumpi\n      tag_126\n      tag_127\n      jump\t// in\n    tag_126:\n        /* \"@chainlink/contracts@0.8.0/src/v0.8/functions/dev/v1_0_0/libraries/FunctionsRequest.sol\":2356:2362  buffer */\n      dup3\n      swap1\n        /* \"@chainlink/contracts@0.8.0/src/v0.8/functions/dev/v1_0_0/libraries/FunctionsRequest.sol\":2356:2375  buffer.writeUInt256 */\n      tag_128\n        /* \"@chainlink/contracts@0.8.0/src/v0.8/functions/dev/v1_0_0/libraries/FunctionsRequest.sol\":2356:2403  buffer.writeUInt256(uint256(self.codeLocation)) */\n      jump\t// in\n    tag_124:\n        /* \"@chainlink/contracts@0.8.0/src/v0.8/functions/dev/v1_0_0/libraries/FunctionsRequest.sol\":2410:2440  buffer.writeString(\"language\") */\n      0x40\n      dup1\n      mload\n      dup1\n      dup3\n      add\n      swap1\n      swap2\n      mstore\n      0x08\n      dup2\n      mstore\n      0x6c616e6775616765000000000000000000000000000000000000000000000000\n      0x20\n      dup3\n      add\n      mstore\n      tag_129\n      swap1\n        /* \"@chainlink/contracts@0.8.0/src/v0.8/functions/dev/v1_0_0/libraries/FunctionsRequest.sol\":2410:2416  buffer */\n      dup3\n      swap1\n        /* \"@chainlink/contracts@0.8.0/src/v0.8/functions/dev/v1_0_0/libraries/FunctionsRequest.sol\":2410:2428  buffer.writeString */\n      tag_123\n        /* \"@chainlink/contracts@0.8.0/src/v0.8/functions/dev/v1_0_0/libraries/FunctionsRequest.sol\":2410:2440  buffer.writeString(\"language\") */\n      jump\t// in\n    tag_129:\n        /* \"@chainlink/contracts@0.8.0/src/v0.8/functions/dev/v1_0_0/libraries/FunctionsRequest.sol\":2474:2487  self.language */\n      0x40\n      dup4\n      add\n      mload\n        /* \"@chainlink/contracts@0.8.0/src/v0.8/functions/dev/v1_0_0/libraries/FunctionsRequest.sol\":2446:2489  buffer.writeUInt256(uint256(self.language)) */\n      tag_130\n      swap1\n        /* \"@chainlink/contracts@0.8.0/src/v0.8/functions/dev/v1_0_0/libraries/FunctionsRequest.sol\":2466:2488  uint256(self.language) */\n      dup1\n      iszero\n      tag_126\n      jumpi\n      tag_126\n      tag_127\n      jump\t// in\n        /* \"@chainlink/contracts@0.8.0/src/v0.8/functions/dev/v1_0_0/libraries/FunctionsRequest.sol\":2446:2489  buffer.writeUInt256(uint256(self.language)) */\n    tag_130:\n        /* \"@chainlink/contracts@0.8.0/src/v0.8/functions/dev/v1_0_0/libraries/FunctionsRequest.sol\":2496:2524  buffer.writeString(\"source\") */\n      0x40\n      dup1\n      mload\n      dup1\n      dup3\n      add\n      swap1\n      swap2\n      mstore\n      0x06\n      dup2\n      mstore\n      0x736f757263650000000000000000000000000000000000000000000000000000\n      0x20\n      dup3\n      add\n      mstore\n      tag_133\n      swap1\n        /* \"@chainlink/contracts@0.8.0/src/v0.8/functions/dev/v1_0_0/libraries/FunctionsRequest.sol\":2496:2502  buffer */\n      dup3\n      swap1\n        /* \"@chainlink/contracts@0.8.0/src/v0.8/functions/dev/v1_0_0/libraries/FunctionsRequest.sol\":2496:2514  buffer.writeString */\n      tag_123\n        /* \"@chainlink/contracts@0.8.0/src/v0.8/functions/dev/v1_0_0/libraries/FunctionsRequest.sol\":2496:2524  buffer.writeString(\"source\") */\n      jump\t// in\n    tag_133:\n        /* \"@chainlink/contracts@0.8.0/src/v0.8/functions/dev/v1_0_0/libraries/FunctionsRequest.sol\":2549:2560  self.source */\n      0x60\n      dup4\n      add\n      mload\n        /* \"@chainlink/contracts@0.8.0/src/v0.8/functions/dev/v1_0_0/libraries/FunctionsRequest.sol\":2530:2561  buffer.writeString(self.source) */\n      tag_134\n      swap1\n        /* \"@chainlink/contracts@0.8.0/src/v0.8/functions/dev/v1_0_0/libraries/FunctionsRequest.sol\":2530:2536  buffer */\n      dup3\n      swap1\n        /* \"@chainlink/contracts@0.8.0/src/v0.8/functions/dev/v1_0_0/libraries/FunctionsRequest.sol\":2530:2548  buffer.writeString */\n      tag_123\n        /* \"@chainlink/contracts@0.8.0/src/v0.8/functions/dev/v1_0_0/libraries/FunctionsRequest.sol\":2530:2561  buffer.writeString(self.source) */\n      jump\t// in\n    tag_134:\n        /* \"@chainlink/contracts@0.8.0/src/v0.8/functions/dev/v1_0_0/libraries/FunctionsRequest.sol\":2572:2581  self.args */\n      0xa0\n      dup4\n      add\n      mload\n        /* \"@chainlink/contracts@0.8.0/src/v0.8/functions/dev/v1_0_0/libraries/FunctionsRequest.sol\":2572:2588  self.args.length */\n      mload\n        /* \"@chainlink/contracts@0.8.0/src/v0.8/functions/dev/v1_0_0/libraries/FunctionsRequest.sol\":2572:2592  self.args.length > 0 */\n      iszero\n        /* \"@chainlink/contracts@0.8.0/src/v0.8/functions/dev/v1_0_0/libraries/FunctionsRequest.sol\":2568:2795  if (self.args.length > 0) {... */\n      tag_148\n      jumpi\n        /* \"@chainlink/contracts@0.8.0/src/v0.8/functions/dev/v1_0_0/libraries/FunctionsRequest.sol\":2602:2628  buffer.writeString(\"args\") */\n      0x40\n      dup1\n      mload\n      dup1\n      dup3\n      add\n      swap1\n      swap2\n      mstore\n      0x04\n      dup2\n      mstore\n      0x6172677300000000000000000000000000000000000000000000000000000000\n      0x20\n      dup3\n      add\n      mstore\n      tag_136\n      swap1\n        /* \"@chainlink/contracts@0.8.0/src/v0.8/functions/dev/v1_0_0/libraries/FunctionsRequest.sol\":2602:2608  buffer */\n      dup3\n      swap1\n        /* \"@chainlink/contracts@0.8.0/src/v0.8/functions/dev/v1_0_0/libraries/FunctionsRequest.sol\":2602:2620  buffer.writeString */\n      tag_123\n        /* \"@chainlink/contracts@0.8.0/src/v0.8/functions/dev/v1_0_0/libraries/FunctionsRequest.sol\":2602:2628  buffer.writeString(\"args\") */\n      jump\t// in\n    tag_136:\n        /* \"@chainlink/contracts@0.8.0/src/v0.8/functions/dev/v1_0_0/libraries/FunctionsRequest.sol\":2636:2655  buffer.startArray() */\n      tag_137\n        /* \"@chainlink/contracts@0.8.0/src/v0.8/functions/dev/v1_0_0/libraries/FunctionsRequest.sol\":2636:2642  buffer */\n      dup2\n        /* \"@chainlink/contracts@0.8.0/src/v0.8/functions/dev/v1_0_0/libraries/FunctionsRequest.sol\":2636:2653  buffer.startArray */\n      tag_138\n        /* \"@chainlink/contracts@0.8.0/src/v0.8/functions/dev/v1_0_0/libraries/FunctionsRequest.sol\":2636:2655  buffer.startArray() */\n      jump\t// in\n    tag_137:\n        /* \"@chainlink/contracts@0.8.0/src/v0.8/functions/dev/v1_0_0/libraries/FunctionsRequest.sol\":2668:2677  uint256 i */\n      0x00\n        /* \"@chainlink/contracts@0.8.0/src/v0.8/functions/dev/v1_0_0/libraries/FunctionsRequest.sol\":2663:2761  for (uint256 i = 0; i < self.args.length; ++i) {... */\n    tag_139:\n        /* \"@chainlink/contracts@0.8.0/src/v0.8/functions/dev/v1_0_0/libraries/FunctionsRequest.sol\":2687:2691  self */\n      dup4\n        /* \"@chainlink/contracts@0.8.0/src/v0.8/functions/dev/v1_0_0/libraries/FunctionsRequest.sol\":2687:2696  self.args */\n      0xa0\n      add\n      mload\n        /* \"@chainlink/contracts@0.8.0/src/v0.8/functions/dev/v1_0_0/libraries/FunctionsRequest.sol\":2687:2703  self.args.length */\n      mload\n        /* \"@chainlink/contracts@0.8.0/src/v0.8/functions/dev/v1_0_0/libraries/FunctionsRequest.sol\":2683:2684  i */\n      dup2\n        /* \"@chainlink/contracts@0.8.0/src/v0.8/functions/dev/v1_0_0/libraries/FunctionsRequest.sol\":2683:2703  i < self.args.length */\n      lt\n        /* \"@chainlink/contracts@0.8.0/src/v0.8/functions/dev/v1_0_0/libraries/FunctionsRequest.sol\":2663:2761  for (uint256 i = 0; i < self.args.length; ++i) {... */\n      iszero\n      tag_140\n      jumpi\n        /* \"@chainlink/contracts@0.8.0/src/v0.8/functions/dev/v1_0_0/libraries/FunctionsRequest.sol\":2720:2752  buffer.writeString(self.args[i]) */\n      tag_142\n        /* \"@chainlink/contracts@0.8.0/src/v0.8/functions/dev/v1_0_0/libraries/FunctionsRequest.sol\":2739:2743  self */\n      dup5\n        /* \"@chainlink/contracts@0.8.0/src/v0.8/functions/dev/v1_0_0/libraries/FunctionsRequest.sol\":2739:2748  self.args */\n      0xa0\n      add\n      mload\n        /* \"@chainlink/contracts@0.8.0/src/v0.8/functions/dev/v1_0_0/libraries/FunctionsRequest.sol\":2749:2750  i */\n      dup3\n        /* \"@chainlink/contracts@0.8.0/src/v0.8/functions/dev/v1_0_0/libraries/FunctionsRequest.sol\":2739:2751  self.args[i] */\n      dup2\n      mload\n      dup2\n      lt\n      tag_144\n      jumpi\n      tag_144\n      tag_145\n      jump\t// in\n    tag_144:\n      0x20\n      mul\n      0x20\n      add\n      add\n      mload\n        /* \"@chainlink/contracts@0.8.0/src/v0.8/functions/dev/v1_0_0/libraries/FunctionsRequest.sol\":2720:2726  buffer */\n      dup4\n        /* \"@chainlink/contracts@0.8.0/src/v0.8/functions/dev/v1_0_0/libraries/FunctionsRequest.sol\":2720:2738  buffer.writeString */\n      tag_123\n      swap1\n        /* \"@chainlink/contracts@0.8.0/src/v0.8/functions/dev/v1_0_0/libraries/FunctionsRequest.sol\":2720:2752  buffer.writeString(self.args[i]) */\n      swap2\n      swap1\n      0xffffffff\n      and\n      jump\t// in\n    tag_142:\n        /* \"@chainlink/contracts@0.8.0/src/v0.8/functions/dev/v1_0_0/libraries/FunctionsRequest.sol\":2705:2708  ++i */\n      tag_146\n      dup2\n      tag_147\n      jump\t// in\n    tag_146:\n      swap1\n      pop\n        /* \"@chainlink/contracts@0.8.0/src/v0.8/functions/dev/v1_0_0/libraries/FunctionsRequest.sol\":2663:2761  for (uint256 i = 0; i < self.args.length; ++i) {... */\n      jump(tag_139)\n    tag_140:\n      pop\n        /* \"@chainlink/contracts@0.8.0/src/v0.8/functions/dev/v1_0_0/libraries/FunctionsRequest.sol\":2768:2788  buffer.endSequence() */\n      tag_148\n        /* \"@chainlink/contracts@0.8.0/src/v0.8/functions/dev/v1_0_0/libraries/FunctionsRequest.sol\":2768:2774  buffer */\n      dup2\n        /* \"@chainlink/contracts@0.8.0/src/v0.8/functions/dev/v1_0_0/libraries/FunctionsRequest.sol\":2768:2786  buffer.endSequence */\n      tag_149\n        /* \"@chainlink/contracts@0.8.0/src/v0.8/functions/dev/v1_0_0/libraries/FunctionsRequest.sol\":2768:2788  buffer.endSequence() */\n      jump\t// in\n    tag_148:\n        /* \"@chainlink/contracts@0.8.0/src/v0.8/functions/dev/v1_0_0/libraries/FunctionsRequest.sol\":2805:2835  self.encryptedSecretsReference */\n      0x80\n      dup4\n      add\n      mload\n        /* \"@chainlink/contracts@0.8.0/src/v0.8/functions/dev/v1_0_0/libraries/FunctionsRequest.sol\":2805:2842  self.encryptedSecretsReference.length */\n      mload\n        /* \"@chainlink/contracts@0.8.0/src/v0.8/functions/dev/v1_0_0/libraries/FunctionsRequest.sol\":2805:2846  self.encryptedSecretsReference.length > 0 */\n      iszero\n        /* \"@chainlink/contracts@0.8.0/src/v0.8/functions/dev/v1_0_0/libraries/FunctionsRequest.sol\":2801:3147  if (self.encryptedSecretsReference.length > 0) {... */\n      tag_161\n      jumpi\n        /* \"@chainlink/contracts@0.8.0/src/v0.8/functions/dev/v1_0_0/libraries/FunctionsRequest.sol\":2884:2899  Location.Inline */\n      0x00\n        /* \"@chainlink/contracts@0.8.0/src/v0.8/functions/dev/v1_0_0/libraries/FunctionsRequest.sol\":2860:2864  self */\n      dup4\n        /* \"@chainlink/contracts@0.8.0/src/v0.8/functions/dev/v1_0_0/libraries/FunctionsRequest.sol\":2860:2880  self.secretsLocation */\n      0x20\n      add\n      mload\n        /* \"@chainlink/contracts@0.8.0/src/v0.8/functions/dev/v1_0_0/libraries/FunctionsRequest.sol\":2860:2899  self.secretsLocation == Location.Inline */\n      0x02\n      dup2\n      gt\n      iszero\n      tag_154\n      jumpi\n      tag_154\n      tag_127\n      jump\t// in\n    tag_154:\n      sub\n        /* \"@chainlink/contracts@0.8.0/src/v0.8/functions/dev/v1_0_0/libraries/FunctionsRequest.sol\":2856:2944  if (self.secretsLocation == Location.Inline) {... */\n      tag_155\n      jumpi\n        /* \"@chainlink/contracts@0.8.0/src/v0.8/functions/dev/v1_0_0/libraries/FunctionsRequest.sol\":2918:2935  NoInlineSecrets() */\n      mload(0x40)\n      0xa80d31f700000000000000000000000000000000000000000000000000000000\n      dup2\n      mstore\n      0x04\n      add\n      mload(0x40)\n      dup1\n      swap2\n      sub\n      swap1\n      revert\n        /* \"@chainlink/contracts@0.8.0/src/v0.8/functions/dev/v1_0_0/libraries/FunctionsRequest.sol\":2856:2944  if (self.secretsLocation == Location.Inline) {... */\n    tag_155:\n        /* \"@chainlink/contracts@0.8.0/src/v0.8/functions/dev/v1_0_0/libraries/FunctionsRequest.sol\":2951:2988  buffer.writeString(\"secretsLocation\") */\n      0x40\n      dup1\n      mload\n      dup1\n      dup3\n      add\n      swap1\n      swap2\n      mstore\n      0x0f\n      dup2\n      mstore\n      0x736563726574734c6f636174696f6e0000000000000000000000000000000000\n      0x20\n      dup3\n      add\n      mstore\n      tag_156\n      swap1\n        /* \"@chainlink/contracts@0.8.0/src/v0.8/functions/dev/v1_0_0/libraries/FunctionsRequest.sol\":2951:2957  buffer */\n      dup3\n      swap1\n        /* \"@chainlink/contracts@0.8.0/src/v0.8/functions/dev/v1_0_0/libraries/FunctionsRequest.sol\":2951:2969  buffer.writeString */\n      tag_123\n        /* \"@chainlink/contracts@0.8.0/src/v0.8/functions/dev/v1_0_0/libraries/FunctionsRequest.sol\":2951:2988  buffer.writeString(\"secretsLocation\") */\n      jump\t// in\n    tag_156:\n        /* \"@chainlink/contracts@0.8.0/src/v0.8/functions/dev/v1_0_0/libraries/FunctionsRequest.sol\":2996:3046  buffer.writeUInt256(uint256(self.secretsLocation)) */\n      tag_157\n        /* \"@chainlink/contracts@0.8.0/src/v0.8/functions/dev/v1_0_0/libraries/FunctionsRequest.sol\":3024:3028  self */\n      dup4\n        /* \"@chainlink/contracts@0.8.0/src/v0.8/functions/dev/v1_0_0/libraries/FunctionsRequest.sol\":3024:3044  self.secretsLocation */\n      0x20\n      add\n      mload\n        /* \"@chainlink/contracts@0.8.0/src/v0.8/functions/dev/v1_0_0/libraries/FunctionsRequest.sol\":3016:3045  uint256(self.secretsLocation) */\n      0x02\n      dup2\n      gt\n      iszero\n      tag_126\n      jumpi\n      tag_126\n      tag_127\n      jump\t// in\n        /* \"@chainlink/contracts@0.8.0/src/v0.8/functions/dev/v1_0_0/libraries/FunctionsRequest.sol\":2996:3046  buffer.writeUInt256(uint256(self.secretsLocation)) */\n    tag_157:\n        /* \"@chainlink/contracts@0.8.0/src/v0.8/functions/dev/v1_0_0/libraries/FunctionsRequest.sol\":3054:3083  buffer.writeString(\"secrets\") */\n      0x40\n      dup1\n      mload\n      dup1\n      dup3\n      add\n      swap1\n      swap2\n      mstore\n      0x07\n      dup2\n      mstore\n      0x7365637265747300000000000000000000000000000000000000000000000000\n      0x20\n      dup3\n      add\n      mstore\n      tag_160\n      swap1\n        /* \"@chainlink/contracts@0.8.0/src/v0.8/functions/dev/v1_0_0/libraries/FunctionsRequest.sol\":3054:3060  buffer */\n      dup3\n      swap1\n        /* \"@chainlink/contracts@0.8.0/src/v0.8/functions/dev/v1_0_0/libraries/FunctionsRequest.sol\":3054:3072  buffer.writeString */\n      tag_123\n        /* \"@chainlink/contracts@0.8.0/src/v0.8/functions/dev/v1_0_0/libraries/FunctionsRequest.sol\":3054:3083  buffer.writeString(\"secrets\") */\n      jump\t// in\n    tag_160:\n        /* \"@chainlink/contracts@0.8.0/src/v0.8/functions/dev/v1_0_0/libraries/FunctionsRequest.sol\":3109:3139  self.encryptedSecretsReference */\n      0x80\n      dup4\n      add\n      mload\n        /* \"@chainlink/contracts@0.8.0/src/v0.8/functions/dev/v1_0_0/libraries/FunctionsRequest.sol\":3091:3140  buffer.writeBytes(self.encryptedSecretsReference) */\n      tag_161\n      swap1\n        /* \"@chainlink/contracts@0.8.0/src/v0.8/functions/dev/v1_0_0/libraries/FunctionsRequest.sol\":3091:3097  buffer */\n      dup3\n      swap1\n        /* \"@chainlink/contracts@0.8.0/src/v0.8/functions/dev/v1_0_0/libraries/FunctionsRequest.sol\":3091:3108  buffer.writeBytes */\n      tag_162\n        /* \"@chainlink/contracts@0.8.0/src/v0.8/functions/dev/v1_0_0/libraries/FunctionsRequest.sol\":3091:3140  buffer.writeBytes(self.encryptedSecretsReference) */\n      jump\t// in\n    tag_161:\n        /* \"@chainlink/contracts@0.8.0/src/v0.8/functions/dev/v1_0_0/libraries/FunctionsRequest.sol\":3157:3171  self.bytesArgs */\n      0xc0\n      dup4\n      add\n      mload\n        /* \"@chainlink/contracts@0.8.0/src/v0.8/functions/dev/v1_0_0/libraries/FunctionsRequest.sol\":3157:3178  self.bytesArgs.length */\n      mload\n        /* \"@chainlink/contracts@0.8.0/src/v0.8/functions/dev/v1_0_0/libraries/FunctionsRequest.sol\":3157:3182  self.bytesArgs.length > 0 */\n      iszero\n        /* \"@chainlink/contracts@0.8.0/src/v0.8/functions/dev/v1_0_0/libraries/FunctionsRequest.sol\":3153:3399  if (self.bytesArgs.length > 0) {... */\n      tag_173\n      jumpi\n        /* \"@chainlink/contracts@0.8.0/src/v0.8/functions/dev/v1_0_0/libraries/FunctionsRequest.sol\":3192:3223  buffer.writeString(\"bytesArgs\") */\n      0x40\n      dup1\n      mload\n      dup1\n      dup3\n      add\n      swap1\n      swap2\n      mstore\n      0x09\n      dup2\n      mstore\n      0x6279746573417267730000000000000000000000000000000000000000000000\n      0x20\n      dup3\n      add\n      mstore\n      tag_164\n      swap1\n        /* \"@chainlink/contracts@0.8.0/src/v0.8/functions/dev/v1_0_0/libraries/FunctionsRequest.sol\":3192:3198  buffer */\n      dup3\n      swap1\n        /* \"@chainlink/contracts@0.8.0/src/v0.8/functions/dev/v1_0_0/libraries/FunctionsRequest.sol\":3192:3210  buffer.writeString */\n      tag_123\n        /* \"@chainlink/contracts@0.8.0/src/v0.8/functions/dev/v1_0_0/libraries/FunctionsRequest.sol\":3192:3223  buffer.writeString(\"bytesArgs\") */\n      jump\t// in\n    tag_164:\n        /* \"@chainlink/contracts@0.8.0/src/v0.8/functions/dev/v1_0_0/libraries/FunctionsRequest.sol\":3231:3250  buffer.startArray() */\n      tag_165\n        /* \"@chainlink/contracts@0.8.0/src/v0.8/functions/dev/v1_0_0/libraries/FunctionsRequest.sol\":3231:3237  buffer */\n      dup2\n        /* \"@chainlink/contracts@0.8.0/src/v0.8/functions/dev/v1_0_0/libraries/FunctionsRequest.sol\":3231:3248  buffer.startArray */\n      tag_138\n        /* \"@chainlink/contracts@0.8.0/src/v0.8/functions/dev/v1_0_0/libraries/FunctionsRequest.sol\":3231:3250  buffer.startArray() */\n      jump\t// in\n    tag_165:\n        /* \"@chainlink/contracts@0.8.0/src/v0.8/functions/dev/v1_0_0/libraries/FunctionsRequest.sol\":3263:3272  uint256 i */\n      0x00\n        /* \"@chainlink/contracts@0.8.0/src/v0.8/functions/dev/v1_0_0/libraries/FunctionsRequest.sol\":3258:3365  for (uint256 i = 0; i < self.bytesArgs.length; ++i) {... */\n    tag_166:\n        /* \"@chainlink/contracts@0.8.0/src/v0.8/functions/dev/v1_0_0/libraries/FunctionsRequest.sol\":3282:3286  self */\n      dup4\n        /* \"@chainlink/contracts@0.8.0/src/v0.8/functions/dev/v1_0_0/libraries/FunctionsRequest.sol\":3282:3296  self.bytesArgs */\n      0xc0\n      add\n      mload\n        /* \"@chainlink/contracts@0.8.0/src/v0.8/functions/dev/v1_0_0/libraries/FunctionsRequest.sol\":3282:3303  self.bytesArgs.length */\n      mload\n        /* \"@chainlink/contracts@0.8.0/src/v0.8/functions/dev/v1_0_0/libraries/FunctionsRequest.sol\":3278:3279  i */\n      dup2\n        /* \"@chainlink/contracts@0.8.0/src/v0.8/functions/dev/v1_0_0/libraries/FunctionsRequest.sol\":3278:3303  i < self.bytesArgs.length */\n      lt\n        /* \"@chainlink/contracts@0.8.0/src/v0.8/functions/dev/v1_0_0/libraries/FunctionsRequest.sol\":3258:3365  for (uint256 i = 0; i < self.bytesArgs.length; ++i) {... */\n      iszero\n      tag_167\n      jumpi\n        /* \"@chainlink/contracts@0.8.0/src/v0.8/functions/dev/v1_0_0/libraries/FunctionsRequest.sol\":3320:3356  buffer.writeBytes(self.bytesArgs[i]) */\n      tag_169\n        /* \"@chainlink/contracts@0.8.0/src/v0.8/functions/dev/v1_0_0/libraries/FunctionsRequest.sol\":3338:3342  self */\n      dup5\n        /* \"@chainlink/contracts@0.8.0/src/v0.8/functions/dev/v1_0_0/libraries/FunctionsRequest.sol\":3338:3352  self.bytesArgs */\n      0xc0\n      add\n      mload\n        /* \"@chainlink/contracts@0.8.0/src/v0.8/functions/dev/v1_0_0/libraries/FunctionsRequest.sol\":3353:3354  i */\n      dup3\n        /* \"@chainlink/contracts@0.8.0/src/v0.8/functions/dev/v1_0_0/libraries/FunctionsRequest.sol\":3338:3355  self.bytesArgs[i] */\n      dup2\n      mload\n      dup2\n      lt\n      tag_171\n      jumpi\n      tag_171\n      tag_145\n      jump\t// in\n    tag_171:\n      0x20\n      mul\n      0x20\n      add\n      add\n      mload\n        /* \"@chainlink/contracts@0.8.0/src/v0.8/functions/dev/v1_0_0/libraries/FunctionsRequest.sol\":3320:3326  buffer */\n      dup4\n        /* \"@chainlink/contracts@0.8.0/src/v0.8/functions/dev/v1_0_0/libraries/FunctionsRequest.sol\":3320:3337  buffer.writeBytes */\n      tag_162\n      swap1\n        /* \"@chainlink/contracts@0.8.0/src/v0.8/functions/dev/v1_0_0/libraries/FunctionsRequest.sol\":3320:3356  buffer.writeBytes(self.bytesArgs[i]) */\n      swap2\n      swap1\n      0xffffffff\n      and\n      jump\t// in\n    tag_169:\n        /* \"@chainlink/contracts@0.8.0/src/v0.8/functions/dev/v1_0_0/libraries/FunctionsRequest.sol\":3305:3308  ++i */\n      tag_172\n      dup2\n      tag_147\n      jump\t// in\n    tag_172:\n      swap1\n      pop\n        /* \"@chainlink/contracts@0.8.0/src/v0.8/functions/dev/v1_0_0/libraries/FunctionsRequest.sol\":3258:3365  for (uint256 i = 0; i < self.bytesArgs.length; ++i) {... */\n      jump(tag_166)\n    tag_167:\n      pop\n        /* \"@chainlink/contracts@0.8.0/src/v0.8/functions/dev/v1_0_0/libraries/FunctionsRequest.sol\":3372:3392  buffer.endSequence() */\n      tag_173\n        /* \"@chainlink/contracts@0.8.0/src/v0.8/functions/dev/v1_0_0/libraries/FunctionsRequest.sol\":3372:3378  buffer */\n      dup2\n        /* \"@chainlink/contracts@0.8.0/src/v0.8/functions/dev/v1_0_0/libraries/FunctionsRequest.sol\":3372:3390  buffer.endSequence */\n      tag_149\n        /* \"@chainlink/contracts@0.8.0/src/v0.8/functions/dev/v1_0_0/libraries/FunctionsRequest.sol\":3372:3392  buffer.endSequence() */\n      jump\t// in\n    tag_173:\n        /* \"@chainlink/contracts@0.8.0/src/v0.8/functions/dev/v1_0_0/libraries/FunctionsRequest.sol\":3412:3422  buffer.buf */\n      mload\n        /* \"@chainlink/contracts@0.8.0/src/v0.8/functions/dev/v1_0_0/libraries/FunctionsRequest.sol\":3412:3426  buffer.buf.buf */\n      mload\n      swap3\n        /* \"@chainlink/contracts@0.8.0/src/v0.8/functions/dev/v1_0_0/libraries/FunctionsRequest.sol\":2161:3431  function encodeCBOR(Request memory self) internal pure returns (bytes memory) {... */\n      swap2\n      pop\n      pop\n      jump\t// out\n        /* \"@chainlink/contracts@0.8.0/src/v0.8/functions/dev/v1_0_0/FunctionsClient.sol\":1158:1537  function _sendRequest(... */\n    tag_79:\n        /* \"@chainlink/contracts@0.8.0/src/v0.8/functions/dev/v1_0_0/FunctionsClient.sol\":1300:1307  bytes32 */\n      0x00\n        /* \"@chainlink/contracts@0.8.0/src/v0.8/functions/dev/v1_0_0/FunctionsClient.sol\":1315:1332  bytes32 requestId */\n      dup1\n        /* \"@chainlink/contracts@0.8.0/src/v0.8/functions/dev/v1_0_0/FunctionsClient.sol\":1335:1343  i_router */\n      immutable(\"0x8e8fab5f003314da8d1873ea7720e8d9f47650136d916064d1edb8a11d682624\")\n      sub(shl(0xa0, 0x01), 0x01)\n        /* \"@chainlink/contracts@0.8.0/src/v0.8/functions/dev/v1_0_0/FunctionsClient.sol\":1335:1355  i_router.sendRequest */\n      and\n      0x461d2762\n        /* \"@chainlink/contracts@0.8.0/src/v0.8/functions/dev/v1_0_0/FunctionsClient.sol\":1363:1377  subscriptionId */\n      dup7\n        /* \"@chainlink/contracts@0.8.0/src/v0.8/functions/dev/v1_0_0/FunctionsClient.sol\":1385:1389  data */\n      dup9\n        /* \"@chainlink/contracts@0.8.0/src/v0.8/functions/dev/v1_0_0/libraries/FunctionsRequest.sol\":325:326  1 */\n      0x01\n        /* \"@chainlink/contracts@0.8.0/src/v0.8/functions/dev/v1_0_0/FunctionsClient.sol\":1442:1458  callbackGasLimit */\n      dup9\n        /* \"@chainlink/contracts@0.8.0/src/v0.8/functions/dev/v1_0_0/FunctionsClient.sol\":1466:1471  donId */\n      dup9\n        /* \"@chainlink/contracts@0.8.0/src/v0.8/functions/dev/v1_0_0/FunctionsClient.sol\":1335:1477  i_router.sendRequest(... */\n      mload(0x40)\n      dup7\n      0xffffffff\n      and\n      0xe0\n      shl\n      dup2\n      mstore\n      0x04\n      add\n      tag_175\n      swap6\n      swap5\n      swap4\n      swap3\n      swap2\n      swap1\n      tag_176\n      jump\t// in\n    tag_175:\n      0x20\n      mload(0x40)\n      dup1\n      dup4\n      sub\n      dup2\n      0x00\n      dup8\n      gas\n      call\n      iszero\n      dup1\n      iszero\n      tag_178\n      jumpi\n      returndatasize\n      0x00\n      dup1\n      returndatacopy\n      revert(0x00, returndatasize)\n    tag_178:\n      pop\n      pop\n      pop\n      pop\n      mload(0x40)\n      returndatasize\n      not(0x1f)\n      0x1f\n      dup3\n      add\n      and\n      dup3\n      add\n      dup1\n      0x40\n      mstore\n      pop\n      dup2\n      add\n      swap1\n      tag_179\n      swap2\n      swap1\n      tag_180\n      jump\t// in\n    tag_179:\n        /* \"@chainlink/contracts@0.8.0/src/v0.8/functions/dev/v1_0_0/FunctionsClient.sol\":1488:1510  RequestSent(requestId) */\n      mload(0x40)\n        /* \"@chainlink/contracts@0.8.0/src/v0.8/functions/dev/v1_0_0/FunctionsClient.sol\":1315:1477  bytes32 requestId = i_router.sendRequest(... */\n      swap1\n      swap2\n      pop\n      dup2\n      swap1\n        /* \"@chainlink/contracts@0.8.0/src/v0.8/functions/dev/v1_0_0/FunctionsClient.sol\":1488:1510  RequestSent(requestId) */\n      0x1131472297a800fee664d1d89cfa8f7676ff07189ecc53f80bbb5f4969099db8\n      swap1\n      0x00\n      swap1\n      log2\n        /* \"@chainlink/contracts@0.8.0/src/v0.8/functions/dev/v1_0_0/FunctionsClient.sol\":1523:1532  requestId */\n      swap6\n        /* \"@chainlink/contracts@0.8.0/src/v0.8/functions/dev/v1_0_0/FunctionsClient.sol\":1158:1537  function _sendRequest(... */\n      swap5\n      pop\n      pop\n      pop\n      pop\n      pop\n      jump\t// out\n        /* \"@chainlink/contracts@0.8.0/src/v0.8/shared/access/ConfirmedOwnerWithProposal.sol\":1482:1670  function _transferOwnership(address to) private {... */\n    tag_99:\n        /* \"@chainlink/contracts@0.8.0/src/v0.8/shared/access/ConfirmedOwnerWithProposal.sol\":1550:1560  msg.sender */\n      caller\n      sub(shl(0xa0, 0x01), 0x01)\n        /* \"@chainlink/contracts@0.8.0/src/v0.8/shared/access/ConfirmedOwnerWithProposal.sol\":1544:1560  to != msg.sender */\n      dup3\n      and\n      sub\n        /* \"@chainlink/contracts@0.8.0/src/v0.8/shared/access/ConfirmedOwnerWithProposal.sol\":1536:1588  require(to != msg.sender, \"Cannot transfer to self\") */\n      tag_182\n      jumpi\n      mload(0x40)\n      shl(0xe5, 0x461bcd)\n      dup2\n      mstore\n        /* \"#utility.yul\":12966:12968   */\n      0x20\n        /* \"@chainlink/contracts@0.8.0/src/v0.8/shared/access/ConfirmedOwnerWithProposal.sol\":1536:1588  require(to != msg.sender, \"Cannot transfer to self\") */\n      0x04\n      dup3\n      add\n        /* \"#utility.yul\":12948:12969   */\n      mstore\n        /* \"#utility.yul\":13005:13007   */\n      0x17\n        /* \"#utility.yul\":12985:13003   */\n      0x24\n      dup3\n      add\n        /* \"#utility.yul\":12978:13008   */\n      mstore\n        /* \"#utility.yul\":13044:13069   */\n      0x43616e6e6f74207472616e7366657220746f2073656c66000000000000000000\n        /* \"#utility.yul\":13024:13042   */\n      0x44\n      dup3\n      add\n        /* \"#utility.yul\":13017:13070   */\n      mstore\n        /* \"#utility.yul\":13087:13105   */\n      0x64\n      add\n        /* \"@chainlink/contracts@0.8.0/src/v0.8/shared/access/ConfirmedOwnerWithProposal.sol\":1536:1588  require(to != msg.sender, \"Cannot transfer to self\") */\n      tag_92\n        /* \"#utility.yul\":12764:13111   */\n      jump\n        /* \"@chainlink/contracts@0.8.0/src/v0.8/shared/access/ConfirmedOwnerWithProposal.sol\":1536:1588  require(to != msg.sender, \"Cannot transfer to self\") */\n    tag_182:\n        /* \"@chainlink/contracts@0.8.0/src/v0.8/shared/access/ConfirmedOwnerWithProposal.sol\":1595:1609  s_pendingOwner */\n      0x01\n        /* \"@chainlink/contracts@0.8.0/src/v0.8/shared/access/ConfirmedOwnerWithProposal.sol\":1595:1614  s_pendingOwner = to */\n      dup1\n      sload\n      not(0xffffffffffffffffffffffffffffffffffffffff)\n      and\n      sub(shl(0xa0, 0x01), 0x01)\n      dup4\n      dup2\n      and\n      swap2\n      dup3\n      or\n      swap1\n      swap3\n      sstore\n      0x00\n        /* \"@chainlink/contracts@0.8.0/src/v0.8/shared/access/ConfirmedOwnerWithProposal.sol\":1653:1660  s_owner */\n      dup1\n      sload\n        /* \"@chainlink/contracts@0.8.0/src/v0.8/shared/access/ConfirmedOwnerWithProposal.sol\":1626:1665  OwnershipTransferRequested(s_owner, to) */\n      mload(0x40)\n        /* \"@chainlink/contracts@0.8.0/src/v0.8/shared/access/ConfirmedOwnerWithProposal.sol\":1595:1614  s_pendingOwner = to */\n      swap3\n      swap4\n        /* \"@chainlink/contracts@0.8.0/src/v0.8/shared/access/ConfirmedOwnerWithProposal.sol\":1653:1660  s_owner */\n      and\n      swap2\n        /* \"@chainlink/contracts@0.8.0/src/v0.8/shared/access/ConfirmedOwnerWithProposal.sol\":1626:1665  OwnershipTransferRequested(s_owner, to) */\n      0xed8889f560326eb138920d842192f0eb3dd22b4f139c87a2c57538e05bae1278\n      swap2\n      swap1\n      log3\n        /* \"@chainlink/contracts@0.8.0/src/v0.8/shared/access/ConfirmedOwnerWithProposal.sol\":1482:1670  function _transferOwnership(address to) private {... */\n      pop\n      jump\t// out\n        /* \"@chainlink/contracts@0.8.0/src/v0.8/functions/dev/v1_0_0/libraries/FunctionsRequest.sol\":3780:4087  function initializeRequest(... */\n    tag_116:\n        /* \"@chainlink/contracts@0.8.0/src/v0.8/functions/dev/v1_0_0/libraries/FunctionsRequest.sol\":3946:3952  source */\n      dup1\n        /* \"@chainlink/contracts@0.8.0/src/v0.8/functions/dev/v1_0_0/libraries/FunctionsRequest.sol\":3940:3960  bytes(source).length */\n      mload\n        /* \"@chainlink/contracts@0.8.0/src/v0.8/functions/dev/v1_0_0/libraries/FunctionsRequest.sol\":3964:3965  0 */\n      0x00\n        /* \"@chainlink/contracts@0.8.0/src/v0.8/functions/dev/v1_0_0/libraries/FunctionsRequest.sol\":3940:3965  bytes(source).length == 0 */\n      sub\n        /* \"@chainlink/contracts@0.8.0/src/v0.8/functions/dev/v1_0_0/libraries/FunctionsRequest.sol\":3936:3987  if (bytes(source).length == 0) revert EmptySource() */\n      tag_186\n      jumpi\n        /* \"@chainlink/contracts@0.8.0/src/v0.8/functions/dev/v1_0_0/libraries/FunctionsRequest.sol\":3974:3987  EmptySource() */\n      mload(0x40)\n      0x22ce3edd00000000000000000000000000000000000000000000000000000000\n      dup2\n      mstore\n      0x04\n      add\n      mload(0x40)\n      dup1\n      swap2\n      sub\n      swap1\n      revert\n        /* \"@chainlink/contracts@0.8.0/src/v0.8/functions/dev/v1_0_0/libraries/FunctionsRequest.sol\":3936:3987  if (bytes(source).length == 0) revert EmptySource() */\n    tag_186:\n        /* \"@chainlink/contracts@0.8.0/src/v0.8/functions/dev/v1_0_0/libraries/FunctionsRequest.sol\":3994:3998  self */\n      dup4\n        /* \"@chainlink/contracts@0.8.0/src/v0.8/functions/dev/v1_0_0/libraries/FunctionsRequest.sol\":4014:4026  codeLocation */\n      dup4\n        /* \"@chainlink/contracts@0.8.0/src/v0.8/functions/dev/v1_0_0/libraries/FunctionsRequest.sol\":3994:4026  self.codeLocation = codeLocation */\n      0x02\n      dup2\n      gt\n      iszero\n      tag_188\n      jumpi\n      tag_188\n      tag_127\n      jump\t// in\n    tag_188:\n      swap1\n      dup2\n      0x02\n      dup2\n      gt\n      iszero\n      tag_190\n      jumpi\n      tag_190\n      tag_127\n      jump\t// in\n    tag_190:\n      swap1\n      mstore\n      pop\n        /* \"@chainlink/contracts@0.8.0/src/v0.8/functions/dev/v1_0_0/libraries/FunctionsRequest.sol\":4032:4045  self.language */\n      0x40\n      dup5\n      add\n        /* \"@chainlink/contracts@0.8.0/src/v0.8/functions/dev/v1_0_0/libraries/FunctionsRequest.sol\":4048:4056  language */\n      dup3\n        /* \"@chainlink/contracts@0.8.0/src/v0.8/functions/dev/v1_0_0/libraries/FunctionsRequest.sol\":4032:4056  self.language = language */\n      dup1\n      iszero\n      tag_192\n      jumpi\n      tag_192\n      tag_127\n      jump\t// in\n    tag_192:\n      swap1\n      dup2\n      dup1\n      iszero\n      tag_194\n      jumpi\n      tag_194\n      tag_127\n      jump\t// in\n    tag_194:\n      swap1\n      mstore\n      pop\n        /* \"@chainlink/contracts@0.8.0/src/v0.8/functions/dev/v1_0_0/libraries/FunctionsRequest.sol\":4062:4073  self.source */\n      0x60\n      swap1\n      swap4\n      add\n        /* \"@chainlink/contracts@0.8.0/src/v0.8/functions/dev/v1_0_0/libraries/FunctionsRequest.sol\":4062:4082  self.source = source */\n      swap3\n      swap1\n      swap3\n      mstore\n      pop\n      pop\n        /* \"@chainlink/contracts@0.8.0/src/v0.8/functions/dev/v1_0_0/libraries/FunctionsRequest.sol\":3780:4087  function initializeRequest(... */\n      jump\t// out\n        /* \"@chainlink/contracts@0.8.0/src/v0.8/vendor/solidity-cborutils/v2.0.0/CBOR.sol\":1490:1663  function create(uint256 capacity) internal pure returns(CBORBuffer memory cbor) {... */\n    tag_121:\n        /* \"@chainlink/contracts@0.8.0/src/v0.8/vendor/solidity-cborutils/v2.0.0/CBOR.sol\":1546:1568  CBORBuffer memory cbor */\n      tag_195\n      tag_196\n      jump\t// in\n    tag_195:\n        /* \"@chainlink/contracts@0.8.0/src/v0.8/vendor/solidity-cborutils/v2.0.0/CBOR.sol\":1592:1600  cbor.buf */\n      dup1\n      mload\n        /* \"@chainlink/contracts@0.8.0/src/v0.8/vendor/solidity-cborutils/v2.0.0/CBOR.sol\":1580:1611  Buffer.init(cbor.buf, capacity) */\n      tag_198\n      swap1\n        /* \"@chainlink/contracts@0.8.0/src/v0.8/vendor/solidity-cborutils/v2.0.0/CBOR.sol\":1602:1610  capacity */\n      dup4\n        /* \"@chainlink/contracts@0.8.0/src/v0.8/vendor/solidity-cborutils/v2.0.0/CBOR.sol\":1580:1591  Buffer.init */\n      tag_199\n        /* \"@chainlink/contracts@0.8.0/src/v0.8/vendor/solidity-cborutils/v2.0.0/CBOR.sol\":1580:1611  Buffer.init(cbor.buf, capacity) */\n      jump\t// in\n    tag_198:\n      pop\n        /* \"@chainlink/contracts@0.8.0/src/v0.8/vendor/solidity-cborutils/v2.0.0/CBOR.sol\":1634:1635  0 */\n      0x00\n        /* \"@chainlink/contracts@0.8.0/src/v0.8/vendor/solidity-cborutils/v2.0.0/CBOR.sol\":1621:1631  cbor.depth */\n      0x20\n      dup3\n      add\n        /* \"@chainlink/contracts@0.8.0/src/v0.8/vendor/solidity-cborutils/v2.0.0/CBOR.sol\":1621:1635  cbor.depth = 0 */\n      mstore\n        /* \"@chainlink/contracts@0.8.0/src/v0.8/vendor/solidity-cborutils/v2.0.0/CBOR.sol\":1621:1625  cbor */\n      swap2\n        /* \"@chainlink/contracts@0.8.0/src/v0.8/vendor/solidity-cborutils/v2.0.0/CBOR.sol\":1490:1663  function create(uint256 capacity) internal pure returns(CBORBuffer memory cbor) {... */\n      swap1\n      pop\n      jump\t// out\n        /* \"@chainlink/contracts@0.8.0/src/v0.8/vendor/solidity-cborutils/v2.0.0/CBOR.sol\":3021:3225  function writeString(CBORBuffer memory buf, string memory value) internal pure {... */\n    tag_123:\n        /* \"@chainlink/contracts@0.8.0/src/v0.8/vendor/solidity-cborutils/v2.0.0/CBOR.sol\":3110:3180  writeFixedNumeric(buf, MAJOR_TYPE_STRING, uint64(bytes(value).length)) */\n      tag_201\n        /* \"@chainlink/contracts@0.8.0/src/v0.8/vendor/solidity-cborutils/v2.0.0/CBOR.sol\":3128:3131  buf */\n      dup3\n        /* \"@chainlink/contracts@0.8.0/src/v0.8/vendor/solidity-cborutils/v2.0.0/CBOR.sol\":998:999  3 */\n      0x03\n        /* \"@chainlink/contracts@0.8.0/src/v0.8/vendor/solidity-cborutils/v2.0.0/CBOR.sol\":3165:3170  value */\n      dup4\n        /* \"@chainlink/contracts@0.8.0/src/v0.8/vendor/solidity-cborutils/v2.0.0/CBOR.sol\":3159:3178  bytes(value).length */\n      mload\n        /* \"@chainlink/contracts@0.8.0/src/v0.8/vendor/solidity-cborutils/v2.0.0/CBOR.sol\":3110:3127  writeFixedNumeric */\n      tag_202\n        /* \"@chainlink/contracts@0.8.0/src/v0.8/vendor/solidity-cborutils/v2.0.0/CBOR.sol\":3110:3180  writeFixedNumeric(buf, MAJOR_TYPE_STRING, uint64(bytes(value).length)) */\n      jump\t// in\n    tag_201:\n        /* \"@chainlink/contracts@0.8.0/src/v0.8/vendor/solidity-cborutils/v2.0.0/CBOR.sol\":3190:3197  buf.buf */\n      dup2\n      mload\n        /* \"@chainlink/contracts@0.8.0/src/v0.8/vendor/solidity-cborutils/v2.0.0/CBOR.sol\":3190:3218  buf.buf.append(bytes(value)) */\n      tag_203\n      swap1\n        /* \"@chainlink/contracts@0.8.0/src/v0.8/vendor/solidity-cborutils/v2.0.0/CBOR.sol\":3211:3216  value */\n      dup3\n        /* \"@chainlink/contracts@0.8.0/src/v0.8/vendor/solidity-cborutils/v2.0.0/CBOR.sol\":3190:3204  buf.buf.append */\n      tag_204\n        /* \"@chainlink/contracts@0.8.0/src/v0.8/vendor/solidity-cborutils/v2.0.0/CBOR.sol\":3190:3218  buf.buf.append(bytes(value)) */\n      jump\t// in\n    tag_203:\n      pop\n        /* \"@chainlink/contracts@0.8.0/src/v0.8/vendor/solidity-cborutils/v2.0.0/CBOR.sol\":3021:3225  function writeString(CBORBuffer memory buf, string memory value) internal pure {... */\n      pop\n      pop\n      jump\t// out\n        /* \"@chainlink/contracts@0.8.0/src/v0.8/vendor/solidity-cborutils/v2.0.0/CBOR.sol\":1832:2034  function writeUInt256(CBORBuffer memory buf, uint256 value) internal pure {... */\n    tag_128:\n        /* \"@chainlink/contracts@0.8.0/src/v0.8/vendor/solidity-cborutils/v2.0.0/CBOR.sol\":1916:1923  buf.buf */\n      dup2\n      mload\n        /* \"@chainlink/contracts@0.8.0/src/v0.8/vendor/solidity-cborutils/v2.0.0/CBOR.sol\":1916:1983  buf.buf.appendUint8(uint8((MAJOR_TYPE_TAG << 5) | TAG_TYPE_BIGNUM)) */\n      tag_206\n      swap1\n        /* \"@chainlink/contracts@0.8.0/src/v0.8/vendor/solidity-cborutils/v2.0.0/CBOR.sol\":1942:1981  (MAJOR_TYPE_TAG << 5) | TAG_TYPE_BIGNUM */\n      0xc2\n        /* \"@chainlink/contracts@0.8.0/src/v0.8/vendor/solidity-cborutils/v2.0.0/CBOR.sol\":1916:1935  buf.buf.appendUint8 */\n      tag_207\n        /* \"@chainlink/contracts@0.8.0/src/v0.8/vendor/solidity-cborutils/v2.0.0/CBOR.sol\":1916:1983  buf.buf.appendUint8(uint8((MAJOR_TYPE_TAG << 5) | TAG_TYPE_BIGNUM)) */\n      jump\t// in\n    tag_206:\n      pop\n        /* \"@chainlink/contracts@0.8.0/src/v0.8/vendor/solidity-cborutils/v2.0.0/CBOR.sol\":1993:2027  writeBytes(buf, abi.encode(value)) */\n      tag_115\n        /* \"@chainlink/contracts@0.8.0/src/v0.8/vendor/solidity-cborutils/v2.0.0/CBOR.sol\":2004:2007  buf */\n      dup3\n        /* \"@chainlink/contracts@0.8.0/src/v0.8/vendor/solidity-cborutils/v2.0.0/CBOR.sol\":2020:2025  value */\n      dup3\n        /* \"@chainlink/contracts@0.8.0/src/v0.8/vendor/solidity-cborutils/v2.0.0/CBOR.sol\":2009:2026  abi.encode(value) */\n      add(0x20, mload(0x40))\n      tag_209\n      swap2\n        /* \"#utility.yul\":3314:3339   */\n      dup2\n      mstore\n        /* \"#utility.yul\":3302:3304   */\n      0x20\n        /* \"#utility.yul\":3287:3305   */\n      add\n      swap1\n        /* \"#utility.yul\":3168:3345   */\n      jump\n        /* \"@chainlink/contracts@0.8.0/src/v0.8/vendor/solidity-cborutils/v2.0.0/CBOR.sol\":2009:2026  abi.encode(value) */\n    tag_209:\n      mload(0x40)\n      0x20\n      dup2\n      dup4\n      sub\n      sub\n      dup2\n      mstore\n      swap1\n      0x40\n      mstore\n        /* \"@chainlink/contracts@0.8.0/src/v0.8/vendor/solidity-cborutils/v2.0.0/CBOR.sol\":1993:2003  writeBytes */\n      tag_162\n        /* \"@chainlink/contracts@0.8.0/src/v0.8/vendor/solidity-cborutils/v2.0.0/CBOR.sol\":1993:2027  writeBytes(buf, abi.encode(value)) */\n      jump\t// in\n        /* \"@chainlink/contracts@0.8.0/src/v0.8/vendor/solidity-cborutils/v2.0.0/CBOR.sol\":3607:3753  function startArray(CBORBuffer memory buf) internal pure {... */\n    tag_138:\n        /* \"@chainlink/contracts@0.8.0/src/v0.8/vendor/solidity-cborutils/v2.0.0/CBOR.sol\":3674:3722  writeIndefiniteLengthType(buf, MAJOR_TYPE_ARRAY) */\n      tag_212\n        /* \"@chainlink/contracts@0.8.0/src/v0.8/vendor/solidity-cborutils/v2.0.0/CBOR.sol\":3700:3703  buf */\n      dup2\n        /* \"@chainlink/contracts@0.8.0/src/v0.8/vendor/solidity-cborutils/v2.0.0/CBOR.sol\":1047:1048  4 */\n      0x04\n        /* \"@chainlink/contracts@0.8.0/src/v0.8/vendor/solidity-cborutils/v2.0.0/CBOR.sol\":3674:3699  writeIndefiniteLengthType */\n      tag_213\n        /* \"@chainlink/contracts@0.8.0/src/v0.8/vendor/solidity-cborutils/v2.0.0/CBOR.sol\":3674:3722  writeIndefiniteLengthType(buf, MAJOR_TYPE_ARRAY) */\n      jump\t// in\n    tag_212:\n        /* \"@chainlink/contracts@0.8.0/src/v0.8/vendor/solidity-cborutils/v2.0.0/CBOR.sol\":3745:3746  1 */\n      0x01\n        /* \"@chainlink/contracts@0.8.0/src/v0.8/vendor/solidity-cborutils/v2.0.0/CBOR.sol\":3732:3735  buf */\n      dup2\n        /* \"@chainlink/contracts@0.8.0/src/v0.8/vendor/solidity-cborutils/v2.0.0/CBOR.sol\":3732:3741  buf.depth */\n      0x20\n      add\n        /* \"@chainlink/contracts@0.8.0/src/v0.8/vendor/solidity-cborutils/v2.0.0/CBOR.sol\":3732:3746  buf.depth += 1 */\n      dup2\n      dup2\n      mload\n      tag_214\n      swap2\n      swap1\n      tag_215\n      jump\t// in\n    tag_214:\n      swap1\n      mstore\n      pop\n      pop\n        /* \"@chainlink/contracts@0.8.0/src/v0.8/vendor/solidity-cborutils/v2.0.0/CBOR.sol\":3607:3753  function startArray(CBORBuffer memory buf) internal pure {... */\n      jump\t// out\n        /* \"@chainlink/contracts@0.8.0/src/v0.8/vendor/solidity-cborutils/v2.0.0/CBOR.sol\":4211:4365  function endSequence(CBORBuffer memory buf) internal pure {... */\n    tag_149:\n        /* \"@chainlink/contracts@0.8.0/src/v0.8/vendor/solidity-cborutils/v2.0.0/CBOR.sol\":4279:4334  writeIndefiniteLengthType(buf, MAJOR_TYPE_CONTENT_FREE) */\n      tag_217\n        /* \"@chainlink/contracts@0.8.0/src/v0.8/vendor/solidity-cborutils/v2.0.0/CBOR.sol\":4305:4308  buf */\n      dup2\n        /* \"@chainlink/contracts@0.8.0/src/v0.8/vendor/solidity-cborutils/v2.0.0/CBOR.sol\":1197:1198  7 */\n      0x07\n        /* \"@chainlink/contracts@0.8.0/src/v0.8/vendor/solidity-cborutils/v2.0.0/CBOR.sol\":4279:4304  writeIndefiniteLengthType */\n      tag_213\n        /* \"@chainlink/contracts@0.8.0/src/v0.8/vendor/solidity-cborutils/v2.0.0/CBOR.sol\":4279:4334  writeIndefiniteLengthType(buf, MAJOR_TYPE_CONTENT_FREE) */\n      jump\t// in\n    tag_217:\n        /* \"@chainlink/contracts@0.8.0/src/v0.8/vendor/solidity-cborutils/v2.0.0/CBOR.sol\":4357:4358  1 */\n      0x01\n        /* \"@chainlink/contracts@0.8.0/src/v0.8/vendor/solidity-cborutils/v2.0.0/CBOR.sol\":4344:4347  buf */\n      dup2\n        /* \"@chainlink/contracts@0.8.0/src/v0.8/vendor/solidity-cborutils/v2.0.0/CBOR.sol\":4344:4353  buf.depth */\n      0x20\n      add\n        /* \"@chainlink/contracts@0.8.0/src/v0.8/vendor/solidity-cborutils/v2.0.0/CBOR.sol\":4344:4358  buf.depth -= 1 */\n      dup2\n      dup2\n      mload\n      tag_214\n      swap2\n      swap1\n      tag_219\n      jump\t// in\n        /* \"@chainlink/contracts@0.8.0/src/v0.8/vendor/solidity-cborutils/v2.0.0/CBOR.sol\":2828:3015  function writeBytes(CBORBuffer memory buf, bytes memory value) internal pure {... */\n    tag_162:\n        /* \"@chainlink/contracts@0.8.0/src/v0.8/vendor/solidity-cborutils/v2.0.0/CBOR.sol\":2915:2977  writeFixedNumeric(buf, MAJOR_TYPE_BYTES, uint64(value.length)) */\n      tag_201\n        /* \"@chainlink/contracts@0.8.0/src/v0.8/vendor/solidity-cborutils/v2.0.0/CBOR.sol\":2933:2936  buf */\n      dup3\n        /* \"@chainlink/contracts@0.8.0/src/v0.8/vendor/solidity-cborutils/v2.0.0/CBOR.sol\":948:949  2 */\n      0x02\n        /* \"@chainlink/contracts@0.8.0/src/v0.8/vendor/solidity-cborutils/v2.0.0/CBOR.sol\":2963:2968  value */\n      dup4\n        /* \"@chainlink/contracts@0.8.0/src/v0.8/vendor/solidity-cborutils/v2.0.0/CBOR.sol\":2963:2975  value.length */\n      mload\n        /* \"@chainlink/contracts@0.8.0/src/v0.8/vendor/solidity-cborutils/v2.0.0/CBOR.sol\":2915:2932  writeFixedNumeric */\n      tag_202\n        /* \"@chainlink/contracts@0.8.0/src/v0.8/vendor/solidity-cborutils/v2.0.0/CBOR.sol\":2915:2977  writeFixedNumeric(buf, MAJOR_TYPE_BYTES, uint64(value.length)) */\n      jump\t// in\n        /* \"@chainlink/contracts@0.8.0/src/v0.8/vendor/@ensdomains/buffer/v0.1.0/Buffer.sol\":1020:1575  function init(buffer memory buf, uint capacity) internal pure returns(buffer memory) {... */\n    tag_199:\n      0x40\n      dup1\n      mload\n      dup1\n      dup3\n      add\n      swap1\n      swap2\n      mstore\n      0x60\n      dup2\n      mstore\n      0x00\n      0x20\n      dup3\n      add\n      mstore\n        /* \"@chainlink/contracts@0.8.0/src/v0.8/vendor/@ensdomains/buffer/v0.1.0/Buffer.sol\":1119:1132  capacity % 32 */\n      tag_226\n        /* \"@chainlink/contracts@0.8.0/src/v0.8/vendor/@ensdomains/buffer/v0.1.0/Buffer.sol\":1130:1132  32 */\n      0x20\n        /* \"@chainlink/contracts@0.8.0/src/v0.8/vendor/@ensdomains/buffer/v0.1.0/Buffer.sol\":1119:1127  capacity */\n      dup4\n        /* \"@chainlink/contracts@0.8.0/src/v0.8/vendor/@ensdomains/buffer/v0.1.0/Buffer.sol\":1119:1132  capacity % 32 */\n      tag_227\n      jump\t// in\n    tag_226:\n        /* \"@chainlink/contracts@0.8.0/src/v0.8/vendor/@ensdomains/buffer/v0.1.0/Buffer.sol\":1119:1137  capacity % 32 != 0 */\n      iszero\n        /* \"@chainlink/contracts@0.8.0/src/v0.8/vendor/@ensdomains/buffer/v0.1.0/Buffer.sol\":1115:1196  if (capacity % 32 != 0) {... */\n      tag_228\n      jumpi\n        /* \"@chainlink/contracts@0.8.0/src/v0.8/vendor/@ensdomains/buffer/v0.1.0/Buffer.sol\":1171:1184  capacity % 32 */\n      tag_229\n        /* \"@chainlink/contracts@0.8.0/src/v0.8/vendor/@ensdomains/buffer/v0.1.0/Buffer.sol\":1182:1184  32 */\n      0x20\n        /* \"@chainlink/contracts@0.8.0/src/v0.8/vendor/@ensdomains/buffer/v0.1.0/Buffer.sol\":1171:1179  capacity */\n      dup4\n        /* \"@chainlink/contracts@0.8.0/src/v0.8/vendor/@ensdomains/buffer/v0.1.0/Buffer.sol\":1171:1184  capacity % 32 */\n      tag_227\n      jump\t// in\n    tag_229:\n        /* \"@chainlink/contracts@0.8.0/src/v0.8/vendor/@ensdomains/buffer/v0.1.0/Buffer.sol\":1165:1185  32 - (capacity % 32) */\n      tag_230\n      swap1\n        /* \"@chainlink/contracts@0.8.0/src/v0.8/vendor/@ensdomains/buffer/v0.1.0/Buffer.sol\":1165:1167  32 */\n      0x20\n        /* \"@chainlink/contracts@0.8.0/src/v0.8/vendor/@ensdomains/buffer/v0.1.0/Buffer.sol\":1165:1185  32 - (capacity % 32) */\n      tag_219\n      jump\t// in\n    tag_230:\n        /* \"@chainlink/contracts@0.8.0/src/v0.8/vendor/@ensdomains/buffer/v0.1.0/Buffer.sol\":1153:1185  capacity += 32 - (capacity % 32) */\n      tag_231\n      swap1\n      dup4\n      tag_215\n      jump\t// in\n    tag_231:\n      swap2\n      pop\n        /* \"@chainlink/contracts@0.8.0/src/v0.8/vendor/@ensdomains/buffer/v0.1.0/Buffer.sol\":1115:1196  if (capacity % 32 != 0) {... */\n    tag_228:\n        /* \"@chainlink/contracts@0.8.0/src/v0.8/vendor/@ensdomains/buffer/v0.1.0/Buffer.sol\":1251:1263  buf.capacity */\n      0x20\n      dup1\n      dup5\n      add\n        /* \"@chainlink/contracts@0.8.0/src/v0.8/vendor/@ensdomains/buffer/v0.1.0/Buffer.sol\":1251:1274  buf.capacity = capacity */\n      dup4\n      swap1\n      mstore\n        /* \"@chainlink/contracts@0.8.0/src/v0.8/vendor/@ensdomains/buffer/v0.1.0/Buffer.sol\":1324:1328  0x40 */\n      0x40\n        /* \"@chainlink/contracts@0.8.0/src/v0.8/vendor/@ensdomains/buffer/v0.1.0/Buffer.sol\":1318:1329  mload(0x40) */\n      mload\n        /* \"@chainlink/contracts@0.8.0/src/v0.8/vendor/@ensdomains/buffer/v0.1.0/Buffer.sol\":1342:1358  mstore(buf, ptr) */\n      dup1\n      dup6\n      mstore\n      0x00\n        /* \"@chainlink/contracts@0.8.0/src/v0.8/vendor/@ensdomains/buffer/v0.1.0/Buffer.sol\":1371:1385  mstore(ptr, 0) */\n      dup2\n      mstore\n        /* \"@chainlink/contracts@0.8.0/src/v0.8/vendor/@ensdomains/buffer/v0.1.0/Buffer.sol\":1318:1329  mload(0x40) */\n      swap1\n        /* \"@chainlink/contracts@0.8.0/src/v0.8/vendor/@ensdomains/buffer/v0.1.0/Buffer.sol\":1417:1435  add(ptr, capacity) */\n      dup2\n      dup5\n      add\n        /* \"@chainlink/contracts@0.8.0/src/v0.8/vendor/@ensdomains/buffer/v0.1.0/Buffer.sol\":1409:1436  add(32, add(ptr, capacity)) */\n      add\n        /* \"@chainlink/contracts@0.8.0/src/v0.8/vendor/@ensdomains/buffer/v0.1.0/Buffer.sol\":1452:1464  lt(fpm, ptr) */\n      dup2\n      dup2\n      lt\n        /* \"@chainlink/contracts@0.8.0/src/v0.8/vendor/@ensdomains/buffer/v0.1.0/Buffer.sol\":1449:1509  if lt(fpm, ptr) {... */\n      iszero\n      tag_232\n      jumpi\n        /* \"@chainlink/contracts@0.8.0/src/v0.8/vendor/@ensdomains/buffer/v0.1.0/Buffer.sol\":1493:1494  0 */\n      0x00\n        /* \"@chainlink/contracts@0.8.0/src/v0.8/vendor/@ensdomains/buffer/v0.1.0/Buffer.sol\":1490:1491  0 */\n      dup1\n        /* \"@chainlink/contracts@0.8.0/src/v0.8/vendor/@ensdomains/buffer/v0.1.0/Buffer.sol\":1483:1495  revert(0, 0) */\n      revert\n        /* \"@chainlink/contracts@0.8.0/src/v0.8/vendor/@ensdomains/buffer/v0.1.0/Buffer.sol\":1449:1509  if lt(fpm, ptr) {... */\n    tag_232:\n        /* \"@chainlink/contracts@0.8.0/src/v0.8/vendor/@ensdomains/buffer/v0.1.0/Buffer.sol\":1529:1533  0x40 */\n      0x40\n        /* \"@chainlink/contracts@0.8.0/src/v0.8/vendor/@ensdomains/buffer/v0.1.0/Buffer.sol\":1522:1539  mstore(0x40, fpm) */\n      mstore\n      pop\n        /* \"@chainlink/contracts@0.8.0/src/v0.8/vendor/@ensdomains/buffer/v0.1.0/Buffer.sol\":1565:1568  buf */\n      dup3\n      swap1\n      pop\n        /* \"@chainlink/contracts@0.8.0/src/v0.8/vendor/@ensdomains/buffer/v0.1.0/Buffer.sol\":1020:1575  function init(buffer memory buf, uint capacity) internal pure returns(buffer memory) {... */\n    tag_225:\n      swap3\n      swap2\n      pop\n      pop\n      jump\t// out\n        /* \"@chainlink/contracts@0.8.0/src/v0.8/vendor/solidity-cborutils/v2.0.0/CBOR.sol\":6156:6915  function writeFixedNumeric(... */\n    tag_202:\n        /* \"@chainlink/contracts@0.8.0/src/v0.8/vendor/solidity-cborutils/v2.0.0/CBOR.sol\":6299:6301  23 */\n      0x17\n        /* \"@chainlink/contracts@0.8.0/src/v0.8/vendor/solidity-cborutils/v2.0.0/CBOR.sol\":6290:6295  value */\n      dup2\n        /* \"@chainlink/contracts@0.8.0/src/v0.8/vendor/solidity-cborutils/v2.0.0/CBOR.sol\":6290:6301  value <= 23 */\n      0xffffffffffffffff\n      and\n      gt\n        /* \"@chainlink/contracts@0.8.0/src/v0.8/vendor/solidity-cborutils/v2.0.0/CBOR.sol\":6286:6909  if (value <= 23) {... */\n      tag_234\n      jumpi\n        /* \"@chainlink/contracts@0.8.0/src/v0.8/vendor/solidity-cborutils/v2.0.0/CBOR.sol\":6317:6324  buf.buf */\n      dup3\n      mload\n        /* \"@chainlink/contracts@0.8.0/src/v0.8/vendor/solidity-cborutils/v2.0.0/CBOR.sol\":6317:6365  buf.buf.appendUint8(uint8((major << 5) | value)) */\n      tag_235\n      swap1\n        /* \"@chainlink/contracts@0.8.0/src/v0.8/vendor/solidity-cborutils/v2.0.0/CBOR.sol\":6343:6363  (major << 5) | value */\n      0xe0\n        /* \"@chainlink/contracts@0.8.0/src/v0.8/vendor/solidity-cborutils/v2.0.0/CBOR.sol\":6353:6354  5 */\n      0x05\n        /* \"@chainlink/contracts@0.8.0/src/v0.8/vendor/solidity-cborutils/v2.0.0/CBOR.sol\":6344:6354  major << 5 */\n      dup6\n      swap1\n      shl\n        /* \"@chainlink/contracts@0.8.0/src/v0.8/vendor/solidity-cborutils/v2.0.0/CBOR.sol\":6343:6363  (major << 5) | value */\n      and\n      dup4\n      or\n        /* \"@chainlink/contracts@0.8.0/src/v0.8/vendor/solidity-cborutils/v2.0.0/CBOR.sol\":6317:6336  buf.buf.appendUint8 */\n      tag_207\n        /* \"@chainlink/contracts@0.8.0/src/v0.8/vendor/solidity-cborutils/v2.0.0/CBOR.sol\":6317:6365  buf.buf.appendUint8(uint8((major << 5) | value)) */\n      jump\t// in\n    tag_235:\n      pop\n        /* \"@chainlink/contracts@0.8.0/src/v0.8/vendor/solidity-cborutils/v2.0.0/CBOR.sol\":3190:3218  buf.buf.append(bytes(value)) */\n      pop\n        /* \"@chainlink/contracts@0.8.0/src/v0.8/vendor/solidity-cborutils/v2.0.0/CBOR.sol\":3021:3225  function writeString(CBORBuffer memory buf, string memory value) internal pure {... */\n      pop\n      pop\n      jump\t// out\n        /* \"@chainlink/contracts@0.8.0/src/v0.8/vendor/solidity-cborutils/v2.0.0/CBOR.sol\":6286:6909  if (value <= 23) {... */\n    tag_234:\n        /* \"@chainlink/contracts@0.8.0/src/v0.8/vendor/solidity-cborutils/v2.0.0/CBOR.sol\":6395:6399  0xFF */\n      0xff\n        /* \"@chainlink/contracts@0.8.0/src/v0.8/vendor/solidity-cborutils/v2.0.0/CBOR.sol\":6386:6391  value */\n      dup2\n        /* \"@chainlink/contracts@0.8.0/src/v0.8/vendor/solidity-cborutils/v2.0.0/CBOR.sol\":6386:6399  value <= 0xFF */\n      0xffffffffffffffff\n      and\n      gt\n        /* \"@chainlink/contracts@0.8.0/src/v0.8/vendor/solidity-cborutils/v2.0.0/CBOR.sol\":6382:6909  if (value <= 0xFF) {... */\n      tag_237\n      jumpi\n        /* \"@chainlink/contracts@0.8.0/src/v0.8/vendor/solidity-cborutils/v2.0.0/CBOR.sol\":6415:6422  buf.buf */\n      dup3\n      mload\n        /* \"@chainlink/contracts@0.8.0/src/v0.8/vendor/solidity-cborutils/v2.0.0/CBOR.sol\":6415:6460  buf.buf.appendUint8(uint8((major << 5) | 24)) */\n      tag_238\n      swap1\n        /* \"@chainlink/contracts@0.8.0/src/v0.8/vendor/solidity-cborutils/v2.0.0/CBOR.sol\":6456:6458  24 */\n      0x18\n        /* \"@chainlink/contracts@0.8.0/src/v0.8/vendor/solidity-cborutils/v2.0.0/CBOR.sol\":6442:6452  major << 5 */\n      0x1fe0\n        /* \"@chainlink/contracts@0.8.0/src/v0.8/vendor/solidity-cborutils/v2.0.0/CBOR.sol\":6451:6452  5 */\n      0x05\n        /* \"@chainlink/contracts@0.8.0/src/v0.8/vendor/solidity-cborutils/v2.0.0/CBOR.sol\":6442:6452  major << 5 */\n      dup7\n      swap1\n      shl\n      and\n        /* \"@chainlink/contracts@0.8.0/src/v0.8/vendor/solidity-cborutils/v2.0.0/CBOR.sol\":6441:6458  (major << 5) | 24 */\n      or\n        /* \"@chainlink/contracts@0.8.0/src/v0.8/vendor/solidity-cborutils/v2.0.0/CBOR.sol\":6415:6434  buf.buf.appendUint8 */\n      tag_207\n        /* \"@chainlink/contracts@0.8.0/src/v0.8/vendor/solidity-cborutils/v2.0.0/CBOR.sol\":6415:6460  buf.buf.appendUint8(uint8((major << 5) | 24)) */\n      jump\t// in\n    tag_238:\n      pop\n        /* \"@chainlink/contracts@0.8.0/src/v0.8/vendor/solidity-cborutils/v2.0.0/CBOR.sol\":6474:6481  buf.buf */\n      dup3\n      mload\n        /* \"@chainlink/contracts@0.8.0/src/v0.8/vendor/solidity-cborutils/v2.0.0/CBOR.sol\":6474:6501  buf.buf.appendInt(value, 1) */\n      tag_235\n      swap1\n      0xffffffffffffffff\n      dup4\n      and\n        /* \"@chainlink/contracts@0.8.0/src/v0.8/vendor/solidity-cborutils/v2.0.0/CBOR.sol\":6499:6500  1 */\n      0x01\n        /* \"@chainlink/contracts@0.8.0/src/v0.8/vendor/solidity-cborutils/v2.0.0/CBOR.sol\":6474:6491  buf.buf.appendInt */\n      tag_240\n        /* \"@chainlink/contracts@0.8.0/src/v0.8/vendor/solidity-cborutils/v2.0.0/CBOR.sol\":6474:6501  buf.buf.appendInt(value, 1) */\n      jump\t// in\n        /* \"@chainlink/contracts@0.8.0/src/v0.8/vendor/solidity-cborutils/v2.0.0/CBOR.sol\":6382:6909  if (value <= 0xFF) {... */\n    tag_237:\n        /* \"@chainlink/contracts@0.8.0/src/v0.8/vendor/solidity-cborutils/v2.0.0/CBOR.sol\":6531:6537  0xFFFF */\n      0xffff\n        /* \"@chainlink/contracts@0.8.0/src/v0.8/vendor/solidity-cborutils/v2.0.0/CBOR.sol\":6522:6527  value */\n      dup2\n        /* \"@chainlink/contracts@0.8.0/src/v0.8/vendor/solidity-cborutils/v2.0.0/CBOR.sol\":6522:6537  value <= 0xFFFF */\n      0xffffffffffffffff\n      and\n      gt\n        /* \"@chainlink/contracts@0.8.0/src/v0.8/vendor/solidity-cborutils/v2.0.0/CBOR.sol\":6518:6909  if (value <= 0xFFFF) {... */\n      tag_242\n      jumpi\n        /* \"@chainlink/contracts@0.8.0/src/v0.8/vendor/solidity-cborutils/v2.0.0/CBOR.sol\":6553:6560  buf.buf */\n      dup3\n      mload\n        /* \"@chainlink/contracts@0.8.0/src/v0.8/vendor/solidity-cborutils/v2.0.0/CBOR.sol\":6553:6598  buf.buf.appendUint8(uint8((major << 5) | 25)) */\n      tag_243\n      swap1\n        /* \"@chainlink/contracts@0.8.0/src/v0.8/vendor/solidity-cborutils/v2.0.0/CBOR.sol\":6594:6596  25 */\n      0x19\n        /* \"@chainlink/contracts@0.8.0/src/v0.8/vendor/solidity-cborutils/v2.0.0/CBOR.sol\":6580:6590  major << 5 */\n      0x1fe0\n        /* \"@chainlink/contracts@0.8.0/src/v0.8/vendor/solidity-cborutils/v2.0.0/CBOR.sol\":6589:6590  5 */\n      0x05\n        /* \"@chainlink/contracts@0.8.0/src/v0.8/vendor/solidity-cborutils/v2.0.0/CBOR.sol\":6580:6590  major << 5 */\n      dup7\n      swap1\n      shl\n      and\n        /* \"@chainlink/contracts@0.8.0/src/v0.8/vendor/solidity-cborutils/v2.0.0/CBOR.sol\":6579:6596  (major << 5) | 25 */\n      or\n        /* \"@chainlink/contracts@0.8.0/src/v0.8/vendor/solidity-cborutils/v2.0.0/CBOR.sol\":6553:6572  buf.buf.appendUint8 */\n      tag_207\n        /* \"@chainlink/contracts@0.8.0/src/v0.8/vendor/solidity-cborutils/v2.0.0/CBOR.sol\":6553:6598  buf.buf.appendUint8(uint8((major << 5) | 25)) */\n      jump\t// in\n    tag_243:\n      pop\n        /* \"@chainlink/contracts@0.8.0/src/v0.8/vendor/solidity-cborutils/v2.0.0/CBOR.sol\":6612:6619  buf.buf */\n      dup3\n      mload\n        /* \"@chainlink/contracts@0.8.0/src/v0.8/vendor/solidity-cborutils/v2.0.0/CBOR.sol\":6612:6639  buf.buf.appendInt(value, 2) */\n      tag_235\n      swap1\n      0xffffffffffffffff\n      dup4\n      and\n        /* \"@chainlink/contracts@0.8.0/src/v0.8/vendor/solidity-cborutils/v2.0.0/CBOR.sol\":6637:6638  2 */\n      0x02\n        /* \"@chainlink/contracts@0.8.0/src/v0.8/vendor/solidity-cborutils/v2.0.0/CBOR.sol\":6612:6629  buf.buf.appendInt */\n      tag_240\n        /* \"@chainlink/contracts@0.8.0/src/v0.8/vendor/solidity-cborutils/v2.0.0/CBOR.sol\":6612:6639  buf.buf.appendInt(value, 2) */\n      jump\t// in\n        /* \"@chainlink/contracts@0.8.0/src/v0.8/vendor/solidity-cborutils/v2.0.0/CBOR.sol\":6518:6909  if (value <= 0xFFFF) {... */\n    tag_242:\n        /* \"@chainlink/contracts@0.8.0/src/v0.8/vendor/solidity-cborutils/v2.0.0/CBOR.sol\":6669:6679  0xFFFFFFFF */\n      0xffffffff\n        /* \"@chainlink/contracts@0.8.0/src/v0.8/vendor/solidity-cborutils/v2.0.0/CBOR.sol\":6660:6665  value */\n      dup2\n        /* \"@chainlink/contracts@0.8.0/src/v0.8/vendor/solidity-cborutils/v2.0.0/CBOR.sol\":6660:6679  value <= 0xFFFFFFFF */\n      0xffffffffffffffff\n      and\n      gt\n        /* \"@chainlink/contracts@0.8.0/src/v0.8/vendor/solidity-cborutils/v2.0.0/CBOR.sol\":6656:6909  if (value <= 0xFFFFFFFF) {... */\n      tag_246\n      jumpi\n        /* \"@chainlink/contracts@0.8.0/src/v0.8/vendor/solidity-cborutils/v2.0.0/CBOR.sol\":6695:6702  buf.buf */\n      dup3\n      mload\n        /* \"@chainlink/contracts@0.8.0/src/v0.8/vendor/solidity-cborutils/v2.0.0/CBOR.sol\":6695:6740  buf.buf.appendUint8(uint8((major << 5) | 26)) */\n      tag_247\n      swap1\n        /* \"@chainlink/contracts@0.8.0/src/v0.8/vendor/solidity-cborutils/v2.0.0/CBOR.sol\":6736:6738  26 */\n      0x1a\n        /* \"@chainlink/contracts@0.8.0/src/v0.8/vendor/solidity-cborutils/v2.0.0/CBOR.sol\":6722:6732  major << 5 */\n      0x1fe0\n        /* \"@chainlink/contracts@0.8.0/src/v0.8/vendor/solidity-cborutils/v2.0.0/CBOR.sol\":6731:6732  5 */\n      0x05\n        /* \"@chainlink/contracts@0.8.0/src/v0.8/vendor/solidity-cborutils/v2.0.0/CBOR.sol\":6722:6732  major << 5 */\n      dup7\n      swap1\n      shl\n      and\n        /* \"@chainlink/contracts@0.8.0/src/v0.8/vendor/solidity-cborutils/v2.0.0/CBOR.sol\":6721:6738  (major << 5) | 26 */\n      or\n        /* \"@chainlink/contracts@0.8.0/src/v0.8/vendor/solidity-cborutils/v2.0.0/CBOR.sol\":6695:6714  buf.buf.appendUint8 */\n      tag_207\n        /* \"@chainlink/contracts@0.8.0/src/v0.8/vendor/solidity-cborutils/v2.0.0/CBOR.sol\":6695:6740  buf.buf.appendUint8(uint8((major << 5) | 26)) */\n      jump\t// in\n    tag_247:\n      pop\n        /* \"@chainlink/contracts@0.8.0/src/v0.8/vendor/solidity-cborutils/v2.0.0/CBOR.sol\":6754:6761  buf.buf */\n      dup3\n      mload\n        /* \"@chainlink/contracts@0.8.0/src/v0.8/vendor/solidity-cborutils/v2.0.0/CBOR.sol\":6754:6781  buf.buf.appendInt(value, 4) */\n      tag_235\n      swap1\n      0xffffffffffffffff\n      dup4\n      and\n        /* \"@chainlink/contracts@0.8.0/src/v0.8/vendor/solidity-cborutils/v2.0.0/CBOR.sol\":6779:6780  4 */\n      0x04\n        /* \"@chainlink/contracts@0.8.0/src/v0.8/vendor/solidity-cborutils/v2.0.0/CBOR.sol\":6754:6771  buf.buf.appendInt */\n      tag_240\n        /* \"@chainlink/contracts@0.8.0/src/v0.8/vendor/solidity-cborutils/v2.0.0/CBOR.sol\":6754:6781  buf.buf.appendInt(value, 4) */\n      jump\t// in\n        /* \"@chainlink/contracts@0.8.0/src/v0.8/vendor/solidity-cborutils/v2.0.0/CBOR.sol\":6656:6909  if (value <= 0xFFFFFFFF) {... */\n    tag_246:\n        /* \"@chainlink/contracts@0.8.0/src/v0.8/vendor/solidity-cborutils/v2.0.0/CBOR.sol\":6812:6819  buf.buf */\n      dup3\n      mload\n        /* \"@chainlink/contracts@0.8.0/src/v0.8/vendor/solidity-cborutils/v2.0.0/CBOR.sol\":6812:6857  buf.buf.appendUint8(uint8((major << 5) | 27)) */\n      tag_250\n      swap1\n        /* \"@chainlink/contracts@0.8.0/src/v0.8/vendor/solidity-cborutils/v2.0.0/CBOR.sol\":6853:6855  27 */\n      0x1b\n        /* \"@chainlink/contracts@0.8.0/src/v0.8/vendor/solidity-cborutils/v2.0.0/CBOR.sol\":6839:6849  major << 5 */\n      0x1fe0\n        /* \"@chainlink/contracts@0.8.0/src/v0.8/vendor/solidity-cborutils/v2.0.0/CBOR.sol\":6848:6849  5 */\n      0x05\n        /* \"@chainlink/contracts@0.8.0/src/v0.8/vendor/solidity-cborutils/v2.0.0/CBOR.sol\":6839:6849  major << 5 */\n      dup7\n      swap1\n      shl\n      and\n        /* \"@chainlink/contracts@0.8.0/src/v0.8/vendor/solidity-cborutils/v2.0.0/CBOR.sol\":6838:6855  (major << 5) | 27 */\n      or\n        /* \"@chainlink/contracts@0.8.0/src/v0.8/vendor/solidity-cborutils/v2.0.0/CBOR.sol\":6812:6831  buf.buf.appendUint8 */\n      tag_207\n        /* \"@chainlink/contracts@0.8.0/src/v0.8/vendor/solidity-cborutils/v2.0.0/CBOR.sol\":6812:6857  buf.buf.appendUint8(uint8((major << 5) | 27)) */\n      jump\t// in\n    tag_250:\n      pop\n        /* \"@chainlink/contracts@0.8.0/src/v0.8/vendor/solidity-cborutils/v2.0.0/CBOR.sol\":6871:6878  buf.buf */\n      dup3\n      mload\n        /* \"@chainlink/contracts@0.8.0/src/v0.8/vendor/solidity-cborutils/v2.0.0/CBOR.sol\":6871:6898  buf.buf.appendInt(value, 8) */\n      tag_235\n      swap1\n      0xffffffffffffffff\n      dup4\n      and\n        /* \"@chainlink/contracts@0.8.0/src/v0.8/vendor/solidity-cborutils/v2.0.0/CBOR.sol\":6896:6897  8 */\n      0x08\n        /* \"@chainlink/contracts@0.8.0/src/v0.8/vendor/solidity-cborutils/v2.0.0/CBOR.sol\":6871:6888  buf.buf.appendInt */\n      tag_240\n        /* \"@chainlink/contracts@0.8.0/src/v0.8/vendor/solidity-cborutils/v2.0.0/CBOR.sol\":6871:6898  buf.buf.appendInt(value, 8) */\n      jump\t// in\n        /* \"@chainlink/contracts@0.8.0/src/v0.8/vendor/@ensdomains/buffer/v0.1.0/Buffer.sol\":4539:4685  function append(buffer memory buf, bytes memory data) internal pure returns (buffer memory) {... */\n    tag_204:\n      0x40\n      dup1\n      mload\n      dup1\n      dup3\n      add\n      swap1\n      swap2\n      mstore\n      0x60\n      dup2\n      mstore\n      0x00\n      0x20\n      dup3\n      add\n      mstore\n        /* \"@chainlink/contracts@0.8.0/src/v0.8/vendor/@ensdomains/buffer/v0.1.0/Buffer.sol\":4648:4678  append(buf, data, data.length) */\n      tag_254\n        /* \"@chainlink/contracts@0.8.0/src/v0.8/vendor/@ensdomains/buffer/v0.1.0/Buffer.sol\":4655:4658  buf */\n      dup4\n        /* \"@chainlink/contracts@0.8.0/src/v0.8/vendor/@ensdomains/buffer/v0.1.0/Buffer.sol\":4660:4664  data */\n      dup4\n        /* \"@chainlink/contracts@0.8.0/src/v0.8/vendor/@ensdomains/buffer/v0.1.0/Buffer.sol\":4666:4670  data */\n      dup5\n        /* \"@chainlink/contracts@0.8.0/src/v0.8/vendor/@ensdomains/buffer/v0.1.0/Buffer.sol\":4666:4677  data.length */\n      mload\n        /* \"@chainlink/contracts@0.8.0/src/v0.8/vendor/@ensdomains/buffer/v0.1.0/Buffer.sol\":4648:4654  append */\n      tag_255\n        /* \"@chainlink/contracts@0.8.0/src/v0.8/vendor/@ensdomains/buffer/v0.1.0/Buffer.sol\":4648:4678  append(buf, data, data.length) */\n      jump\t// in\n    tag_254:\n        /* \"@chainlink/contracts@0.8.0/src/v0.8/vendor/@ensdomains/buffer/v0.1.0/Buffer.sol\":4641:4678  return append(buf, data, data.length) */\n      swap4\n        /* \"@chainlink/contracts@0.8.0/src/v0.8/vendor/@ensdomains/buffer/v0.1.0/Buffer.sol\":4539:4685  function append(buffer memory buf, bytes memory data) internal pure returns (buffer memory) {... */\n      swap3\n      pop\n      pop\n      pop\n      jump\t// out\n        /* \"@chainlink/contracts@0.8.0/src/v0.8/vendor/@ensdomains/buffer/v0.1.0/Buffer.sol\":4948:5647  function appendUint8(buffer memory buf, uint8 data) internal pure returns(buffer memory) {... */\n    tag_207:\n      0x40\n      dup1\n      mload\n      dup1\n      dup3\n      add\n      swap1\n      swap2\n      mstore\n      0x60\n      dup2\n      mstore\n      0x00\n      0x20\n      dup3\n      add\n      mstore\n        /* \"@chainlink/contracts@0.8.0/src/v0.8/vendor/@ensdomains/buffer/v0.1.0/Buffer.sol\":5058:5065  buf.buf */\n      dup3\n      mload\n        /* \"@chainlink/contracts@0.8.0/src/v0.8/vendor/@ensdomains/buffer/v0.1.0/Buffer.sol\":5058:5072  buf.buf.length */\n      mload\n        /* \"@chainlink/contracts@0.8.0/src/v0.8/vendor/@ensdomains/buffer/v0.1.0/Buffer.sol\":5047:5055  uint off */\n      0x00\n        /* \"@chainlink/contracts@0.8.0/src/v0.8/vendor/@ensdomains/buffer/v0.1.0/Buffer.sol\":5100:5107  off + 1 */\n      tag_258\n        /* \"@chainlink/contracts@0.8.0/src/v0.8/vendor/@ensdomains/buffer/v0.1.0/Buffer.sol\":5058:5072  buf.buf.length */\n      dup3\n        /* \"@chainlink/contracts@0.8.0/src/v0.8/vendor/@ensdomains/buffer/v0.1.0/Buffer.sol\":5106:5107  1 */\n      0x01\n        /* \"@chainlink/contracts@0.8.0/src/v0.8/vendor/@ensdomains/buffer/v0.1.0/Buffer.sol\":5100:5107  off + 1 */\n      tag_215\n      jump\t// in\n    tag_258:\n        /* \"@chainlink/contracts@0.8.0/src/v0.8/vendor/@ensdomains/buffer/v0.1.0/Buffer.sol\":5082:5107  uint offPlusOne = off + 1 */\n      swap1\n      pop\n        /* \"@chainlink/contracts@0.8.0/src/v0.8/vendor/@ensdomains/buffer/v0.1.0/Buffer.sol\":5128:5131  buf */\n      dup5\n        /* \"@chainlink/contracts@0.8.0/src/v0.8/vendor/@ensdomains/buffer/v0.1.0/Buffer.sol\":5128:5140  buf.capacity */\n      0x20\n      add\n      mload\n        /* \"@chainlink/contracts@0.8.0/src/v0.8/vendor/@ensdomains/buffer/v0.1.0/Buffer.sol\":5121:5124  off */\n      dup3\n        /* \"@chainlink/contracts@0.8.0/src/v0.8/vendor/@ensdomains/buffer/v0.1.0/Buffer.sol\":5121:5140  off >= buf.capacity */\n      lt\n        /* \"@chainlink/contracts@0.8.0/src/v0.8/vendor/@ensdomains/buffer/v0.1.0/Buffer.sol\":5117:5194  if (off >= buf.capacity) {... */\n      tag_260\n      jumpi\n        /* \"@chainlink/contracts@0.8.0/src/v0.8/vendor/@ensdomains/buffer/v0.1.0/Buffer.sol\":5156:5183  resize(buf, offPlusOne * 2) */\n      tag_260\n        /* \"@chainlink/contracts@0.8.0/src/v0.8/vendor/@ensdomains/buffer/v0.1.0/Buffer.sol\":5163:5166  buf */\n      dup6\n        /* \"@chainlink/contracts@0.8.0/src/v0.8/vendor/@ensdomains/buffer/v0.1.0/Buffer.sol\":5168:5182  offPlusOne * 2 */\n      tag_261\n        /* \"@chainlink/contracts@0.8.0/src/v0.8/vendor/@ensdomains/buffer/v0.1.0/Buffer.sol\":5168:5178  offPlusOne */\n      dup4\n        /* \"@chainlink/contracts@0.8.0/src/v0.8/vendor/@ensdomains/buffer/v0.1.0/Buffer.sol\":5181:5182  2 */\n      0x02\n        /* \"@chainlink/contracts@0.8.0/src/v0.8/vendor/@ensdomains/buffer/v0.1.0/Buffer.sol\":5168:5182  offPlusOne * 2 */\n      tag_262\n      jump\t// in\n    tag_261:\n        /* \"@chainlink/contracts@0.8.0/src/v0.8/vendor/@ensdomains/buffer/v0.1.0/Buffer.sol\":5156:5162  resize */\n      tag_263\n        /* \"@chainlink/contracts@0.8.0/src/v0.8/vendor/@ensdomains/buffer/v0.1.0/Buffer.sol\":5156:5183  resize(buf, offPlusOne * 2) */\n      jump\t// in\n    tag_260:\n        /* \"@chainlink/contracts@0.8.0/src/v0.8/vendor/@ensdomains/buffer/v0.1.0/Buffer.sol\":5296:5299  buf */\n      dup5\n        /* \"@chainlink/contracts@0.8.0/src/v0.8/vendor/@ensdomains/buffer/v0.1.0/Buffer.sol\":5290:5300  mload(buf) */\n      mload\n        /* \"@chainlink/contracts@0.8.0/src/v0.8/vendor/@ensdomains/buffer/v0.1.0/Buffer.sol\":5417:5419  32 */\n      0x20\n        /* \"@chainlink/contracts@0.8.0/src/v0.8/vendor/@ensdomains/buffer/v0.1.0/Buffer.sol\":5411:5414  off */\n      dup4\n        /* \"@chainlink/contracts@0.8.0/src/v0.8/vendor/@ensdomains/buffer/v0.1.0/Buffer.sol\":5403:5409  bufptr */\n      dup3\n        /* \"@chainlink/contracts@0.8.0/src/v0.8/vendor/@ensdomains/buffer/v0.1.0/Buffer.sol\":5399:5415  add(bufptr, off) */\n      add\n        /* \"@chainlink/contracts@0.8.0/src/v0.8/vendor/@ensdomains/buffer/v0.1.0/Buffer.sol\":5395:5420  add(add(bufptr, off), 32) */\n      add\n        /* \"@chainlink/contracts@0.8.0/src/v0.8/vendor/@ensdomains/buffer/v0.1.0/Buffer.sol\":5447:5451  data */\n      dup6\n        /* \"@chainlink/contracts@0.8.0/src/v0.8/vendor/@ensdomains/buffer/v0.1.0/Buffer.sol\":5441:5445  dest */\n      dup2\n        /* \"@chainlink/contracts@0.8.0/src/v0.8/vendor/@ensdomains/buffer/v0.1.0/Buffer.sol\":5433:5452  mstore8(dest, data) */\n      mstore8\n      pop\n        /* \"@chainlink/contracts@0.8.0/src/v0.8/vendor/@ensdomains/buffer/v0.1.0/Buffer.sol\":5543:5549  bufptr */\n      dup1\n        /* \"@chainlink/contracts@0.8.0/src/v0.8/vendor/@ensdomains/buffer/v0.1.0/Buffer.sol\":5537:5550  mload(bufptr) */\n      mload\n        /* \"@chainlink/contracts@0.8.0/src/v0.8/vendor/@ensdomains/buffer/v0.1.0/Buffer.sol\":5525:5535  offPlusOne */\n      dup3\n        /* \"@chainlink/contracts@0.8.0/src/v0.8/vendor/@ensdomains/buffer/v0.1.0/Buffer.sol\":5522:5551  gt(offPlusOne, mload(bufptr)) */\n      gt\n        /* \"@chainlink/contracts@0.8.0/src/v0.8/vendor/@ensdomains/buffer/v0.1.0/Buffer.sol\":5519:5610  if gt(offPlusOne, mload(bufptr)) {... */\n      iszero\n      tag_264\n      jumpi\n        /* \"@chainlink/contracts@0.8.0/src/v0.8/vendor/@ensdomains/buffer/v0.1.0/Buffer.sol\":5585:5595  offPlusOne */\n      dup2\n        /* \"@chainlink/contracts@0.8.0/src/v0.8/vendor/@ensdomains/buffer/v0.1.0/Buffer.sol\":5577:5583  bufptr */\n      dup2\n        /* \"@chainlink/contracts@0.8.0/src/v0.8/vendor/@ensdomains/buffer/v0.1.0/Buffer.sol\":5570:5596  mstore(bufptr, offPlusOne) */\n      mstore\n        /* \"@chainlink/contracts@0.8.0/src/v0.8/vendor/@ensdomains/buffer/v0.1.0/Buffer.sol\":5519:5610  if gt(offPlusOne, mload(bufptr)) {... */\n    tag_264:\n      pop\n        /* \"@chainlink/contracts@0.8.0/src/v0.8/vendor/@ensdomains/buffer/v0.1.0/Buffer.sol\":5637:5640  buf */\n      swap4\n      swap5\n        /* \"@chainlink/contracts@0.8.0/src/v0.8/vendor/@ensdomains/buffer/v0.1.0/Buffer.sol\":4948:5647  function appendUint8(buffer memory buf, uint8 data) internal pure returns(buffer memory) {... */\n      swap4\n      pop\n      pop\n      pop\n      pop\n      jump\t// out\n        /* \"@chainlink/contracts@0.8.0/src/v0.8/vendor/solidity-cborutils/v2.0.0/CBOR.sol\":6921:7087  function writeIndefiniteLengthType(CBORBuffer memory buf, uint8 major)... */\n    tag_213:\n        /* \"@chainlink/contracts@0.8.0/src/v0.8/vendor/solidity-cborutils/v2.0.0/CBOR.sol\":7035:7042  buf.buf */\n      dup2\n      mload\n        /* \"@chainlink/contracts@0.8.0/src/v0.8/vendor/solidity-cborutils/v2.0.0/CBOR.sol\":7035:7080  buf.buf.appendUint8(uint8((major << 5) | 31)) */\n      tag_203\n      swap1\n        /* \"@chainlink/contracts@0.8.0/src/v0.8/vendor/solidity-cborutils/v2.0.0/CBOR.sol\":7076:7078  31 */\n      0x1f\n        /* \"@chainlink/contracts@0.8.0/src/v0.8/vendor/solidity-cborutils/v2.0.0/CBOR.sol\":7062:7072  major << 5 */\n      0x1fe0\n        /* \"@chainlink/contracts@0.8.0/src/v0.8/vendor/solidity-cborutils/v2.0.0/CBOR.sol\":7071:7072  5 */\n      0x05\n        /* \"@chainlink/contracts@0.8.0/src/v0.8/vendor/solidity-cborutils/v2.0.0/CBOR.sol\":7062:7072  major << 5 */\n      dup6\n      swap1\n      shl\n      and\n        /* \"@chainlink/contracts@0.8.0/src/v0.8/vendor/solidity-cborutils/v2.0.0/CBOR.sol\":7061:7078  (major << 5) | 31 */\n      or\n        /* \"@chainlink/contracts@0.8.0/src/v0.8/vendor/solidity-cborutils/v2.0.0/CBOR.sol\":7035:7054  buf.buf.appendUint8 */\n      tag_207\n        /* \"@chainlink/contracts@0.8.0/src/v0.8/vendor/solidity-cborutils/v2.0.0/CBOR.sol\":7035:7080  buf.buf.appendUint8(uint8((major << 5) | 31)) */\n      jump\t// in\n        /* \"@chainlink/contracts@0.8.0/src/v0.8/vendor/@ensdomains/buffer/v0.1.0/Buffer.sol\":8083:8878  function appendInt(buffer memory buf, uint data, uint len) internal pure returns(buffer memory) {... */\n    tag_240:\n      0x40\n      dup1\n      mload\n      dup1\n      dup3\n      add\n      swap1\n      swap2\n      mstore\n      0x60\n      dup2\n      mstore\n      0x00\n      0x20\n      dup3\n      add\n      mstore\n        /* \"@chainlink/contracts@0.8.0/src/v0.8/vendor/@ensdomains/buffer/v0.1.0/Buffer.sol\":8200:8207  buf.buf */\n      dup4\n      mload\n        /* \"@chainlink/contracts@0.8.0/src/v0.8/vendor/@ensdomains/buffer/v0.1.0/Buffer.sol\":8200:8214  buf.buf.length */\n      mload\n        /* \"@chainlink/contracts@0.8.0/src/v0.8/vendor/@ensdomains/buffer/v0.1.0/Buffer.sol\":8189:8197  uint off */\n      0x00\n        /* \"@chainlink/contracts@0.8.0/src/v0.8/vendor/@ensdomains/buffer/v0.1.0/Buffer.sol\":8243:8252  len + off */\n      tag_269\n        /* \"@chainlink/contracts@0.8.0/src/v0.8/vendor/@ensdomains/buffer/v0.1.0/Buffer.sol\":8200:8214  buf.buf.length */\n      dup3\n        /* \"@chainlink/contracts@0.8.0/src/v0.8/vendor/@ensdomains/buffer/v0.1.0/Buffer.sol\":8243:8246  len */\n      dup6\n        /* \"@chainlink/contracts@0.8.0/src/v0.8/vendor/@ensdomains/buffer/v0.1.0/Buffer.sol\":8243:8252  len + off */\n      tag_215\n      jump\t// in\n    tag_269:\n        /* \"@chainlink/contracts@0.8.0/src/v0.8/vendor/@ensdomains/buffer/v0.1.0/Buffer.sol\":8224:8252  uint newCapacity = len + off */\n      swap1\n      pop\n        /* \"@chainlink/contracts@0.8.0/src/v0.8/vendor/@ensdomains/buffer/v0.1.0/Buffer.sol\":8280:8283  buf */\n      dup6\n        /* \"@chainlink/contracts@0.8.0/src/v0.8/vendor/@ensdomains/buffer/v0.1.0/Buffer.sol\":8280:8292  buf.capacity */\n      0x20\n      add\n      mload\n        /* \"@chainlink/contracts@0.8.0/src/v0.8/vendor/@ensdomains/buffer/v0.1.0/Buffer.sol\":8266:8277  newCapacity */\n      dup2\n        /* \"@chainlink/contracts@0.8.0/src/v0.8/vendor/@ensdomains/buffer/v0.1.0/Buffer.sol\":8266:8292  newCapacity > buf.capacity */\n      gt\n        /* \"@chainlink/contracts@0.8.0/src/v0.8/vendor/@ensdomains/buffer/v0.1.0/Buffer.sol\":8262:8347  if (newCapacity > buf.capacity) {... */\n      iszero\n      tag_271\n      jumpi\n        /* \"@chainlink/contracts@0.8.0/src/v0.8/vendor/@ensdomains/buffer/v0.1.0/Buffer.sol\":8308:8336  resize(buf, newCapacity * 2) */\n      tag_271\n        /* \"@chainlink/contracts@0.8.0/src/v0.8/vendor/@ensdomains/buffer/v0.1.0/Buffer.sol\":8315:8318  buf */\n      dup7\n        /* \"@chainlink/contracts@0.8.0/src/v0.8/vendor/@ensdomains/buffer/v0.1.0/Buffer.sol\":8320:8335  newCapacity * 2 */\n      tag_261\n        /* \"@chainlink/contracts@0.8.0/src/v0.8/vendor/@ensdomains/buffer/v0.1.0/Buffer.sol\":8320:8331  newCapacity */\n      dup4\n        /* \"@chainlink/contracts@0.8.0/src/v0.8/vendor/@ensdomains/buffer/v0.1.0/Buffer.sol\":8334:8335  2 */\n      0x02\n        /* \"@chainlink/contracts@0.8.0/src/v0.8/vendor/@ensdomains/buffer/v0.1.0/Buffer.sol\":8320:8335  newCapacity * 2 */\n      tag_262\n      jump\t// in\n        /* \"@chainlink/contracts@0.8.0/src/v0.8/vendor/@ensdomains/buffer/v0.1.0/Buffer.sol\":8308:8336  resize(buf, newCapacity * 2) */\n    tag_271:\n        /* \"@chainlink/contracts@0.8.0/src/v0.8/vendor/@ensdomains/buffer/v0.1.0/Buffer.sol\":8357:8366  uint mask */\n      0x00\n        /* \"@chainlink/contracts@0.8.0/src/v0.8/vendor/@ensdomains/buffer/v0.1.0/Buffer.sol\":8384:8385  1 */\n      0x01\n        /* \"@chainlink/contracts@0.8.0/src/v0.8/vendor/@ensdomains/buffer/v0.1.0/Buffer.sol\":8370:8380  256 ** len */\n      tag_273\n        /* \"@chainlink/contracts@0.8.0/src/v0.8/vendor/@ensdomains/buffer/v0.1.0/Buffer.sol\":8377:8380  len */\n      dup7\n        /* \"@chainlink/contracts@0.8.0/src/v0.8/vendor/@ensdomains/buffer/v0.1.0/Buffer.sol\":8370:8373  256 */\n      0x0100\n        /* \"@chainlink/contracts@0.8.0/src/v0.8/vendor/@ensdomains/buffer/v0.1.0/Buffer.sol\":8370:8380  256 ** len */\n      tag_274\n      jump\t// in\n    tag_273:\n        /* \"@chainlink/contracts@0.8.0/src/v0.8/vendor/@ensdomains/buffer/v0.1.0/Buffer.sol\":8369:8385  (256 ** len) - 1 */\n      tag_275\n      swap2\n      swap1\n      tag_219\n      jump\t// in\n    tag_275:\n        /* \"@chainlink/contracts@0.8.0/src/v0.8/vendor/@ensdomains/buffer/v0.1.0/Buffer.sol\":8357:8385  uint mask = (256 ** len) - 1 */\n      swap1\n      pop\n        /* \"@chainlink/contracts@0.8.0/src/v0.8/vendor/@ensdomains/buffer/v0.1.0/Buffer.sol\":8487:8490  buf */\n      dup7\n        /* \"@chainlink/contracts@0.8.0/src/v0.8/vendor/@ensdomains/buffer/v0.1.0/Buffer.sol\":8481:8491  mload(buf) */\n      mload\n        /* \"@chainlink/contracts@0.8.0/src/v0.8/vendor/@ensdomains/buffer/v0.1.0/Buffer.sol\":8606:8617  newCapacity */\n      dup3\n        /* \"@chainlink/contracts@0.8.0/src/v0.8/vendor/@ensdomains/buffer/v0.1.0/Buffer.sol\":8598:8604  bufptr */\n      dup2\n        /* \"@chainlink/contracts@0.8.0/src/v0.8/vendor/@ensdomains/buffer/v0.1.0/Buffer.sol\":8594:8618  add(bufptr, newCapacity) */\n      add\n        /* \"@chainlink/contracts@0.8.0/src/v0.8/vendor/@ensdomains/buffer/v0.1.0/Buffer.sol\":8676:8680  data */\n      dup8\n        /* \"@chainlink/contracts@0.8.0/src/v0.8/vendor/@ensdomains/buffer/v0.1.0/Buffer.sol\":8668:8672  mask */\n      dup4\n        /* \"@chainlink/contracts@0.8.0/src/v0.8/vendor/@ensdomains/buffer/v0.1.0/Buffer.sol\":8664:8673  not(mask) */\n      not\n        /* \"@chainlink/contracts@0.8.0/src/v0.8/vendor/@ensdomains/buffer/v0.1.0/Buffer.sol\":8657:8661  dest */\n      dup3\n        /* \"@chainlink/contracts@0.8.0/src/v0.8/vendor/@ensdomains/buffer/v0.1.0/Buffer.sol\":8651:8662  mload(dest) */\n      mload\n        /* \"@chainlink/contracts@0.8.0/src/v0.8/vendor/@ensdomains/buffer/v0.1.0/Buffer.sol\":8647:8674  and(mload(dest), not(mask)) */\n      and\n        /* \"@chainlink/contracts@0.8.0/src/v0.8/vendor/@ensdomains/buffer/v0.1.0/Buffer.sol\":8644:8681  or(and(mload(dest), not(mask)), data) */\n      or\n        /* \"@chainlink/contracts@0.8.0/src/v0.8/vendor/@ensdomains/buffer/v0.1.0/Buffer.sol\":8638:8642  dest */\n      dup2\n        /* \"@chainlink/contracts@0.8.0/src/v0.8/vendor/@ensdomains/buffer/v0.1.0/Buffer.sol\":8631:8682  mstore(dest, or(and(mload(dest), not(mask)), data)) */\n      mstore\n      pop\n        /* \"@chainlink/contracts@0.8.0/src/v0.8/vendor/@ensdomains/buffer/v0.1.0/Buffer.sol\":8774:8780  bufptr */\n      dup1\n        /* \"@chainlink/contracts@0.8.0/src/v0.8/vendor/@ensdomains/buffer/v0.1.0/Buffer.sol\":8768:8781  mload(bufptr) */\n      mload\n        /* \"@chainlink/contracts@0.8.0/src/v0.8/vendor/@ensdomains/buffer/v0.1.0/Buffer.sol\":8755:8766  newCapacity */\n      dup4\n        /* \"@chainlink/contracts@0.8.0/src/v0.8/vendor/@ensdomains/buffer/v0.1.0/Buffer.sol\":8752:8782  gt(newCapacity, mload(bufptr)) */\n      gt\n        /* \"@chainlink/contracts@0.8.0/src/v0.8/vendor/@ensdomains/buffer/v0.1.0/Buffer.sol\":8749:8842  if gt(newCapacity, mload(bufptr)) {... */\n      iszero\n      tag_276\n      jumpi\n        /* \"@chainlink/contracts@0.8.0/src/v0.8/vendor/@ensdomains/buffer/v0.1.0/Buffer.sol\":8816:8827  newCapacity */\n      dup3\n        /* \"@chainlink/contracts@0.8.0/src/v0.8/vendor/@ensdomains/buffer/v0.1.0/Buffer.sol\":8808:8814  bufptr */\n      dup2\n        /* \"@chainlink/contracts@0.8.0/src/v0.8/vendor/@ensdomains/buffer/v0.1.0/Buffer.sol\":8801:8828  mstore(bufptr, newCapacity) */\n      mstore\n        /* \"@chainlink/contracts@0.8.0/src/v0.8/vendor/@ensdomains/buffer/v0.1.0/Buffer.sol\":8749:8842  if gt(newCapacity, mload(bufptr)) {... */\n    tag_276:\n      pop\n        /* \"@chainlink/contracts@0.8.0/src/v0.8/vendor/@ensdomains/buffer/v0.1.0/Buffer.sol\":8868:8871  buf */\n      swap6\n      swap7\n        /* \"@chainlink/contracts@0.8.0/src/v0.8/vendor/@ensdomains/buffer/v0.1.0/Buffer.sol\":8083:8878  function appendInt(buffer memory buf, uint data, uint len) internal pure returns(buffer memory) {... */\n      swap6\n      pop\n      pop\n      pop\n      pop\n      pop\n      pop\n      jump\t// out\n        /* \"@chainlink/contracts@0.8.0/src/v0.8/vendor/@ensdomains/buffer/v0.1.0/Buffer.sol\":2844:4271  function append(buffer memory buf, bytes memory data, uint len) internal pure returns(buffer memory) {... */\n    tag_255:\n      0x40\n      dup1\n      mload\n      dup1\n      dup3\n      add\n      swap1\n      swap2\n      mstore\n      0x60\n      dup2\n      mstore\n      0x00\n      0x20\n      dup3\n      add\n      mstore\n        /* \"@chainlink/contracts@0.8.0/src/v0.8/vendor/@ensdomains/buffer/v0.1.0/Buffer.sol\":2970:2974  data */\n      dup3\n        /* \"@chainlink/contracts@0.8.0/src/v0.8/vendor/@ensdomains/buffer/v0.1.0/Buffer.sol\":2970:2981  data.length */\n      mload\n        /* \"@chainlink/contracts@0.8.0/src/v0.8/vendor/@ensdomains/buffer/v0.1.0/Buffer.sol\":2963:2966  len */\n      dup3\n        /* \"@chainlink/contracts@0.8.0/src/v0.8/vendor/@ensdomains/buffer/v0.1.0/Buffer.sol\":2963:2981  len <= data.length */\n      gt\n      iszero\n        /* \"@chainlink/contracts@0.8.0/src/v0.8/vendor/@ensdomains/buffer/v0.1.0/Buffer.sol\":2955:2982  require(len <= data.length) */\n      tag_279\n      jumpi\n      0x00\n      dup1\n      revert\n    tag_279:\n        /* \"@chainlink/contracts@0.8.0/src/v0.8/vendor/@ensdomains/buffer/v0.1.0/Buffer.sol\":3004:3011  buf.buf */\n      dup4\n      mload\n        /* \"@chainlink/contracts@0.8.0/src/v0.8/vendor/@ensdomains/buffer/v0.1.0/Buffer.sol\":3004:3018  buf.buf.length */\n      mload\n        /* \"@chainlink/contracts@0.8.0/src/v0.8/vendor/@ensdomains/buffer/v0.1.0/Buffer.sol\":2993:3001  uint off */\n      0x00\n        /* \"@chainlink/contracts@0.8.0/src/v0.8/vendor/@ensdomains/buffer/v0.1.0/Buffer.sol\":3047:3056  off + len */\n      tag_280\n        /* \"@chainlink/contracts@0.8.0/src/v0.8/vendor/@ensdomains/buffer/v0.1.0/Buffer.sol\":3053:3056  len */\n      dup5\n        /* \"@chainlink/contracts@0.8.0/src/v0.8/vendor/@ensdomains/buffer/v0.1.0/Buffer.sol\":3004:3018  buf.buf.length */\n      dup4\n        /* \"@chainlink/contracts@0.8.0/src/v0.8/vendor/@ensdomains/buffer/v0.1.0/Buffer.sol\":3047:3056  off + len */\n      tag_215\n      jump\t// in\n    tag_280:\n        /* \"@chainlink/contracts@0.8.0/src/v0.8/vendor/@ensdomains/buffer/v0.1.0/Buffer.sol\":3028:3056  uint newCapacity = off + len */\n      swap1\n      pop\n        /* \"@chainlink/contracts@0.8.0/src/v0.8/vendor/@ensdomains/buffer/v0.1.0/Buffer.sol\":3084:3087  buf */\n      dup6\n        /* \"@chainlink/contracts@0.8.0/src/v0.8/vendor/@ensdomains/buffer/v0.1.0/Buffer.sol\":3084:3096  buf.capacity */\n      0x20\n      add\n      mload\n        /* \"@chainlink/contracts@0.8.0/src/v0.8/vendor/@ensdomains/buffer/v0.1.0/Buffer.sol\":3070:3081  newCapacity */\n      dup2\n        /* \"@chainlink/contracts@0.8.0/src/v0.8/vendor/@ensdomains/buffer/v0.1.0/Buffer.sol\":3070:3096  newCapacity > buf.capacity */\n      gt\n        /* \"@chainlink/contracts@0.8.0/src/v0.8/vendor/@ensdomains/buffer/v0.1.0/Buffer.sol\":3066:3151  if (newCapacity > buf.capacity) {... */\n      iszero\n      tag_282\n      jumpi\n        /* \"@chainlink/contracts@0.8.0/src/v0.8/vendor/@ensdomains/buffer/v0.1.0/Buffer.sol\":3112:3140  resize(buf, newCapacity * 2) */\n      tag_282\n        /* \"@chainlink/contracts@0.8.0/src/v0.8/vendor/@ensdomains/buffer/v0.1.0/Buffer.sol\":3119:3122  buf */\n      dup7\n        /* \"@chainlink/contracts@0.8.0/src/v0.8/vendor/@ensdomains/buffer/v0.1.0/Buffer.sol\":3124:3139  newCapacity * 2 */\n      tag_261\n        /* \"@chainlink/contracts@0.8.0/src/v0.8/vendor/@ensdomains/buffer/v0.1.0/Buffer.sol\":3124:3135  newCapacity */\n      dup4\n        /* \"@chainlink/contracts@0.8.0/src/v0.8/vendor/@ensdomains/buffer/v0.1.0/Buffer.sol\":3138:3139  2 */\n      0x02\n        /* \"@chainlink/contracts@0.8.0/src/v0.8/vendor/@ensdomains/buffer/v0.1.0/Buffer.sol\":3124:3139  newCapacity * 2 */\n      tag_262\n      jump\t// in\n        /* \"@chainlink/contracts@0.8.0/src/v0.8/vendor/@ensdomains/buffer/v0.1.0/Buffer.sol\":3112:3140  resize(buf, newCapacity * 2) */\n    tag_282:\n        /* \"@chainlink/contracts@0.8.0/src/v0.8/vendor/@ensdomains/buffer/v0.1.0/Buffer.sol\":3284:3294  mload(buf) */\n      dup6\n      mload\n        /* \"@chainlink/contracts@0.8.0/src/v0.8/vendor/@ensdomains/buffer/v0.1.0/Buffer.sol\":3367:3380  mload(bufptr) */\n      dup1\n      mload\n        /* \"@chainlink/contracts@0.8.0/src/v0.8/vendor/@ensdomains/buffer/v0.1.0/Buffer.sol\":3480:3505  add(add(bufptr, 32), off) */\n      dup4\n      dup3\n      add\n        /* \"@chainlink/contracts@0.8.0/src/v0.8/vendor/@ensdomains/buffer/v0.1.0/Buffer.sol\":3496:3498  32 */\n      0x20\n        /* \"@chainlink/contracts@0.8.0/src/v0.8/vendor/@ensdomains/buffer/v0.1.0/Buffer.sol\":3480:3505  add(add(bufptr, 32), off) */\n      add\n      swap2\n        /* \"@chainlink/contracts@0.8.0/src/v0.8/vendor/@ensdomains/buffer/v0.1.0/Buffer.sol\":3161:3170  uint dest */\n      0x00\n      swap2\n        /* \"@chainlink/contracts@0.8.0/src/v0.8/vendor/@ensdomains/buffer/v0.1.0/Buffer.sol\":3579:3602  gt(newCapacity, buflen) */\n      dup1\n      dup6\n      gt\n        /* \"@chainlink/contracts@0.8.0/src/v0.8/vendor/@ensdomains/buffer/v0.1.0/Buffer.sol\":3576:3662  if gt(newCapacity, buflen) {... */\n      iszero\n      tag_284\n      jumpi\n        /* \"@chainlink/contracts@0.8.0/src/v0.8/vendor/@ensdomains/buffer/v0.1.0/Buffer.sol\":3636:3647  newCapacity */\n      dup5\n        /* \"@chainlink/contracts@0.8.0/src/v0.8/vendor/@ensdomains/buffer/v0.1.0/Buffer.sol\":3628:3634  bufptr */\n      dup3\n        /* \"@chainlink/contracts@0.8.0/src/v0.8/vendor/@ensdomains/buffer/v0.1.0/Buffer.sol\":3621:3648  mstore(bufptr, newCapacity) */\n      mstore\n        /* \"@chainlink/contracts@0.8.0/src/v0.8/vendor/@ensdomains/buffer/v0.1.0/Buffer.sol\":3576:3662  if gt(newCapacity, buflen) {... */\n    tag_284:\n      pop\n      pop\n      pop\n        /* \"@chainlink/contracts@0.8.0/src/v0.8/vendor/@ensdomains/buffer/v0.1.0/Buffer.sol\":3692:3694  32 */\n      0x20\n        /* \"@chainlink/contracts@0.8.0/src/v0.8/vendor/@ensdomains/buffer/v0.1.0/Buffer.sol\":3682:3695  add(data, 32) */\n      dup7\n      add\n        /* \"@chainlink/contracts@0.8.0/src/v0.8/vendor/@ensdomains/buffer/v0.1.0/Buffer.sol\":3765:3930  for (; len >= 32; len -= 32) {... */\n    tag_285:\n        /* \"@chainlink/contracts@0.8.0/src/v0.8/vendor/@ensdomains/buffer/v0.1.0/Buffer.sol\":3779:3781  32 */\n      0x20\n        /* \"@chainlink/contracts@0.8.0/src/v0.8/vendor/@ensdomains/buffer/v0.1.0/Buffer.sol\":3772:3775  len */\n      dup7\n        /* \"@chainlink/contracts@0.8.0/src/v0.8/vendor/@ensdomains/buffer/v0.1.0/Buffer.sol\":3772:3781  len >= 32 */\n      lt\n        /* \"@chainlink/contracts@0.8.0/src/v0.8/vendor/@ensdomains/buffer/v0.1.0/Buffer.sol\":3765:3930  for (; len >= 32; len -= 32) {... */\n      tag_286\n      jumpi\n        /* \"@chainlink/contracts@0.8.0/src/v0.8/vendor/@ensdomains/buffer/v0.1.0/Buffer.sol\":3848:3858  mload(src) */\n      dup1\n      mload\n        /* \"@chainlink/contracts@0.8.0/src/v0.8/vendor/@ensdomains/buffer/v0.1.0/Buffer.sol\":3835:3859  mstore(dest, mload(src)) */\n      dup3\n      mstore\n        /* \"@chainlink/contracts@0.8.0/src/v0.8/vendor/@ensdomains/buffer/v0.1.0/Buffer.sol\":3886:3896  dest += 32 */\n      tag_288\n        /* \"@chainlink/contracts@0.8.0/src/v0.8/vendor/@ensdomains/buffer/v0.1.0/Buffer.sol\":3894:3896  32 */\n      0x20\n        /* \"@chainlink/contracts@0.8.0/src/v0.8/vendor/@ensdomains/buffer/v0.1.0/Buffer.sol\":3842:3846  dest */\n      dup4\n        /* \"@chainlink/contracts@0.8.0/src/v0.8/vendor/@ensdomains/buffer/v0.1.0/Buffer.sol\":3886:3896  dest += 32 */\n      tag_215\n      jump\t// in\n    tag_288:\n      swap2\n      pop\n        /* \"@chainlink/contracts@0.8.0/src/v0.8/vendor/@ensdomains/buffer/v0.1.0/Buffer.sol\":3910:3919  src += 32 */\n      tag_289\n        /* \"@chainlink/contracts@0.8.0/src/v0.8/vendor/@ensdomains/buffer/v0.1.0/Buffer.sol\":3917:3919  32 */\n      0x20\n        /* \"@chainlink/contracts@0.8.0/src/v0.8/vendor/@ensdomains/buffer/v0.1.0/Buffer.sol\":3910:3919  src += 32 */\n      dup3\n      tag_215\n      jump\t// in\n    tag_289:\n      swap1\n      pop\n        /* \"@chainlink/contracts@0.8.0/src/v0.8/vendor/@ensdomains/buffer/v0.1.0/Buffer.sol\":3783:3792  len -= 32 */\n      tag_290\n        /* \"@chainlink/contracts@0.8.0/src/v0.8/vendor/@ensdomains/buffer/v0.1.0/Buffer.sol\":3790:3792  32 */\n      0x20\n        /* \"@chainlink/contracts@0.8.0/src/v0.8/vendor/@ensdomains/buffer/v0.1.0/Buffer.sol\":3783:3792  len -= 32 */\n      dup8\n      tag_219\n      jump\t// in\n    tag_290:\n      swap6\n      pop\n        /* \"@chainlink/contracts@0.8.0/src/v0.8/vendor/@ensdomains/buffer/v0.1.0/Buffer.sol\":3765:3930  for (; len >= 32; len -= 32) {... */\n      jump(tag_285)\n    tag_286:\n        /* \"@chainlink/contracts@0.8.0/src/v0.8/vendor/@ensdomains/buffer/v0.1.0/Buffer.sol\":4091:4101  mload(src) */\n      mload\n        /* \"@chainlink/contracts@0.8.0/src/v0.8/vendor/@ensdomains/buffer/v0.1.0/Buffer.sol\":4150:4161  mload(dest) */\n      dup2\n      mload\n      not(0x00)\n        /* \"@chainlink/contracts@0.8.0/src/v0.8/vendor/@ensdomains/buffer/v0.1.0/Buffer.sol\":4017:4019  32 */\n      0x20\n        /* \"@chainlink/contracts@0.8.0/src/v0.8/vendor/@ensdomains/buffer/v0.1.0/Buffer.sol\":4017:4025  32 - len */\n      dup9\n      swap1\n      sub\n        /* \"@chainlink/contracts@0.8.0/src/v0.8/vendor/@ensdomains/buffer/v0.1.0/Buffer.sol\":4009:4012  256 */\n      0x0100\n        /* \"@chainlink/contracts@0.8.0/src/v0.8/vendor/@ensdomains/buffer/v0.1.0/Buffer.sol\":4009:4026  256 ** (32 - len) */\n      exp\n        /* \"@chainlink/contracts@0.8.0/src/v0.8/vendor/@ensdomains/buffer/v0.1.0/Buffer.sol\":4008:4031  (256 ** (32 - len)) - 1 */\n      add\n        /* \"@chainlink/contracts@0.8.0/src/v0.8/vendor/@ensdomains/buffer/v0.1.0/Buffer.sol\":4146:4168  and(mload(dest), mask) */\n      swap1\n      dup2\n      and\n        /* \"@chainlink/contracts@0.8.0/src/v0.8/vendor/@ensdomains/buffer/v0.1.0/Buffer.sol\":4103:4112  not(mask) */\n      swap1\n      not\n        /* \"@chainlink/contracts@0.8.0/src/v0.8/vendor/@ensdomains/buffer/v0.1.0/Buffer.sol\":4087:4113  and(mload(src), not(mask)) */\n      swap2\n      swap1\n      swap2\n      and\n        /* \"@chainlink/contracts@0.8.0/src/v0.8/vendor/@ensdomains/buffer/v0.1.0/Buffer.sol\":4198:4219  or(destpart, srcpart) */\n      or\n        /* \"@chainlink/contracts@0.8.0/src/v0.8/vendor/@ensdomains/buffer/v0.1.0/Buffer.sol\":4185:4220  mstore(dest, or(destpart, srcpart)) */\n      swap1\n      mstore\n      pop\n        /* \"@chainlink/contracts@0.8.0/src/v0.8/vendor/@ensdomains/buffer/v0.1.0/Buffer.sol\":4261:4264  buf */\n      dup5\n      swap2\n      pop\n      pop\n        /* \"@chainlink/contracts@0.8.0/src/v0.8/vendor/@ensdomains/buffer/v0.1.0/Buffer.sol\":2844:4271  function append(buffer memory buf, bytes memory data, uint len) internal pure returns(buffer memory) {... */\n      swap4\n      swap3\n      pop\n      pop\n      pop\n      jump\t// out\n        /* \"@chainlink/contracts@0.8.0/src/v0.8/vendor/@ensdomains/buffer/v0.1.0/Buffer.sol\":2004:2171  function resize(buffer memory buf, uint capacity) private pure {... */\n    tag_263:\n        /* \"@chainlink/contracts@0.8.0/src/v0.8/vendor/@ensdomains/buffer/v0.1.0/Buffer.sol\":2099:2106  buf.buf */\n      dup2\n      mload\n        /* \"@chainlink/contracts@0.8.0/src/v0.8/vendor/@ensdomains/buffer/v0.1.0/Buffer.sol\":2116:2135  init(buf, capacity) */\n      tag_292\n        /* \"@chainlink/contracts@0.8.0/src/v0.8/vendor/@ensdomains/buffer/v0.1.0/Buffer.sol\":2099:2102  buf */\n      dup4\n        /* \"@chainlink/contracts@0.8.0/src/v0.8/vendor/@ensdomains/buffer/v0.1.0/Buffer.sol\":2126:2134  capacity */\n      dup4\n        /* \"@chainlink/contracts@0.8.0/src/v0.8/vendor/@ensdomains/buffer/v0.1.0/Buffer.sol\":2116:2120  init */\n      tag_199\n        /* \"@chainlink/contracts@0.8.0/src/v0.8/vendor/@ensdomains/buffer/v0.1.0/Buffer.sol\":2116:2135  init(buf, capacity) */\n      jump\t// in\n    tag_292:\n      pop\n        /* \"@chainlink/contracts@0.8.0/src/v0.8/vendor/@ensdomains/buffer/v0.1.0/Buffer.sol\":2145:2164  append(buf, oldbuf) */\n      tag_235\n        /* \"@chainlink/contracts@0.8.0/src/v0.8/vendor/@ensdomains/buffer/v0.1.0/Buffer.sol\":2152:2155  buf */\n      dup4\n        /* \"@chainlink/contracts@0.8.0/src/v0.8/vendor/@ensdomains/buffer/v0.1.0/Buffer.sol\":2157:2163  oldbuf */\n      dup3\n        /* \"@chainlink/contracts@0.8.0/src/v0.8/vendor/@ensdomains/buffer/v0.1.0/Buffer.sol\":2145:2151  append */\n      tag_204\n        /* \"@chainlink/contracts@0.8.0/src/v0.8/vendor/@ensdomains/buffer/v0.1.0/Buffer.sol\":2145:2164  append(buf, oldbuf) */\n      jump\t// in\n    tag_196:\n      mload(0x40)\n      dup1\n      0x40\n      add\n      0x40\n      mstore\n      dup1\n      tag_300\n      mload(0x40)\n      dup1\n      0x40\n      add\n      0x40\n      mstore\n      dup1\n      0x60\n      dup2\n      mstore\n      0x20\n      add\n      0x00\n      dup2\n      mstore\n      pop\n      swap1\n      jump\n    tag_300:\n      dup2\n      mstore\n      0x20\n      add\n      0x00\n      dup2\n      mstore\n      pop\n      swap1\n      jump\t// out\n        /* \"#utility.yul\":14:198   */\n    tag_301:\n      shl(0xe0, 0x4e487b71)\n        /* \"#utility.yul\":63:64   */\n      0x00\n        /* \"#utility.yul\":56:144   */\n      mstore\n        /* \"#utility.yul\":163:167   */\n      0x41\n        /* \"#utility.yul\":160:161   */\n      0x04\n        /* \"#utility.yul\":153:168   */\n      mstore\n        /* \"#utility.yul\":187:191   */\n      0x24\n        /* \"#utility.yul\":184:185   */\n      0x00\n        /* \"#utility.yul\":177:192   */\n      revert\n        /* \"#utility.yul\":203:478   */\n    tag_302:\n        /* \"#utility.yul\":274:276   */\n      0x40\n        /* \"#utility.yul\":268:277   */\n      mload\n        /* \"#utility.yul\":339:341   */\n      0x1f\n        /* \"#utility.yul\":320:333   */\n      dup3\n      add\n      not(0x1f)\n        /* \"#utility.yul\":316:343   */\n      and\n        /* \"#utility.yul\":304:344   */\n      dup2\n      add\n        /* \"#utility.yul\":374:392   */\n      0xffffffffffffffff\n        /* \"#utility.yul\":359:393   */\n      dup2\n      gt\n        /* \"#utility.yul\":395:417   */\n      dup3\n      dup3\n      lt\n        /* \"#utility.yul\":356:418   */\n      or\n        /* \"#utility.yul\":353:441   */\n      iszero\n      tag_317\n      jumpi\n        /* \"#utility.yul\":421:439   */\n      tag_317\n      tag_301\n      jump\t// in\n    tag_317:\n        /* \"#utility.yul\":457:459   */\n      0x40\n        /* \"#utility.yul\":450:472   */\n      mstore\n        /* \"#utility.yul\":203:478   */\n      swap2\n      swap1\n      pop\n      jump\t// out\n        /* \"#utility.yul\":483:889   */\n    tag_303:\n        /* \"#utility.yul\":547:552   */\n      0x00\n        /* \"#utility.yul\":581:599   */\n      0xffffffffffffffff\n        /* \"#utility.yul\":573:579   */\n      dup4\n        /* \"#utility.yul\":570:600   */\n      gt\n        /* \"#utility.yul\":567:623   */\n      iszero\n      tag_320\n      jumpi\n        /* \"#utility.yul\":603:621   */\n      tag_320\n      tag_301\n      jump\t// in\n    tag_320:\n        /* \"#utility.yul\":641:698   */\n      tag_321\n        /* \"#utility.yul\":686:688   */\n      0x1f\n        /* \"#utility.yul\":665:680   */\n      dup5\n      add\n      not(0x1f)\n        /* \"#utility.yul\":661:690   */\n      and\n        /* \"#utility.yul\":692:696   */\n      0x20\n        /* \"#utility.yul\":657:697   */\n      add\n        /* \"#utility.yul\":641:698   */\n      tag_302\n      jump\t// in\n    tag_321:\n        /* \"#utility.yul\":632:698   */\n      swap1\n      pop\n        /* \"#utility.yul\":721:727   */\n      dup3\n        /* \"#utility.yul\":714:719   */\n      dup2\n        /* \"#utility.yul\":707:728   */\n      mstore\n        /* \"#utility.yul\":761:764   */\n      dup4\n        /* \"#utility.yul\":752:758   */\n      dup4\n        /* \"#utility.yul\":747:750   */\n      dup4\n        /* \"#utility.yul\":743:759   */\n      add\n        /* \"#utility.yul\":740:765   */\n      gt\n        /* \"#utility.yul\":737:782   */\n      iszero\n      tag_322\n      jumpi\n        /* \"#utility.yul\":778:779   */\n      0x00\n        /* \"#utility.yul\":775:776   */\n      dup1\n        /* \"#utility.yul\":768:780   */\n      revert\n        /* \"#utility.yul\":737:782   */\n    tag_322:\n        /* \"#utility.yul\":827:833   */\n      dup3\n        /* \"#utility.yul\":822:825   */\n      dup3\n        /* \"#utility.yul\":815:819   */\n      0x20\n        /* \"#utility.yul\":808:813   */\n      dup4\n        /* \"#utility.yul\":804:820   */\n      add\n        /* \"#utility.yul\":791:834   */\n      calldatacopy\n        /* \"#utility.yul\":881:882   */\n      0x00\n        /* \"#utility.yul\":874:878   */\n      0x20\n        /* \"#utility.yul\":865:871   */\n      dup5\n        /* \"#utility.yul\":858:863   */\n      dup4\n        /* \"#utility.yul\":854:872   */\n      add\n        /* \"#utility.yul\":850:879   */\n      add\n        /* \"#utility.yul\":843:883   */\n      mstore\n        /* \"#utility.yul\":483:889   */\n      swap4\n      swap3\n      pop\n      pop\n      pop\n      jump\t// out\n        /* \"#utility.yul\":894:1114   */\n    tag_304:\n        /* \"#utility.yul\":936:941   */\n      0x00\n        /* \"#utility.yul\":989:992   */\n      dup3\n        /* \"#utility.yul\":982:986   */\n      0x1f\n        /* \"#utility.yul\":974:980   */\n      dup4\n        /* \"#utility.yul\":970:987   */\n      add\n        /* \"#utility.yul\":966:993   */\n      slt\n        /* \"#utility.yul\":956:1011   */\n      tag_324\n      jumpi\n        /* \"#utility.yul\":1007:1008   */\n      0x00\n        /* \"#utility.yul\":1004:1005   */\n      dup1\n        /* \"#utility.yul\":997:1009   */\n      revert\n        /* \"#utility.yul\":956:1011   */\n    tag_324:\n        /* \"#utility.yul\":1029:1108   */\n      tag_254\n        /* \"#utility.yul\":1104:1107   */\n      dup4\n        /* \"#utility.yul\":1095:1101   */\n      dup4\n        /* \"#utility.yul\":1082:1102   */\n      calldataload\n        /* \"#utility.yul\":1075:1079   */\n      0x20\n        /* \"#utility.yul\":1067:1073   */\n      dup6\n        /* \"#utility.yul\":1063:1080   */\n      add\n        /* \"#utility.yul\":1029:1108   */\n      tag_303\n      jump\t// in\n        /* \"#utility.yul\":1119:1726   */\n    tag_16:\n        /* \"#utility.yul\":1214:1220   */\n      0x00\n        /* \"#utility.yul\":1222:1228   */\n      dup1\n        /* \"#utility.yul\":1230:1236   */\n      0x00\n        /* \"#utility.yul\":1283:1285   */\n      0x60\n        /* \"#utility.yul\":1271:1280   */\n      dup5\n        /* \"#utility.yul\":1262:1269   */\n      dup7\n        /* \"#utility.yul\":1258:1281   */\n      sub\n        /* \"#utility.yul\":1254:1286   */\n      slt\n        /* \"#utility.yul\":1251:1303   */\n      iszero\n      tag_327\n      jumpi\n        /* \"#utility.yul\":1299:1300   */\n      0x00\n        /* \"#utility.yul\":1296:1297   */\n      dup1\n        /* \"#utility.yul\":1289:1301   */\n      revert\n        /* \"#utility.yul\":1251:1303   */\n    tag_327:\n        /* \"#utility.yul\":1335:1344   */\n      dup4\n        /* \"#utility.yul\":1322:1345   */\n      calldataload\n        /* \"#utility.yul\":1312:1345   */\n      swap3\n      pop\n        /* \"#utility.yul\":1396:1398   */\n      0x20\n        /* \"#utility.yul\":1385:1394   */\n      dup5\n        /* \"#utility.yul\":1381:1399   */\n      add\n        /* \"#utility.yul\":1368:1400   */\n      calldataload\n        /* \"#utility.yul\":1419:1437   */\n      0xffffffffffffffff\n        /* \"#utility.yul\":1460:1462   */\n      dup1\n        /* \"#utility.yul\":1452:1458   */\n      dup3\n        /* \"#utility.yul\":1449:1463   */\n      gt\n        /* \"#utility.yul\":1446:1480   */\n      iszero\n      tag_328\n      jumpi\n        /* \"#utility.yul\":1476:1477   */\n      0x00\n        /* \"#utility.yul\":1473:1474   */\n      dup1\n        /* \"#utility.yul\":1466:1478   */\n      revert\n        /* \"#utility.yul\":1446:1480   */\n    tag_328:\n        /* \"#utility.yul\":1499:1548   */\n      tag_329\n        /* \"#utility.yul\":1540:1547   */\n      dup8\n        /* \"#utility.yul\":1531:1537   */\n      dup4\n        /* \"#utility.yul\":1520:1529   */\n      dup9\n        /* \"#utility.yul\":1516:1538   */\n      add\n        /* \"#utility.yul\":1499:1548   */\n      tag_304\n      jump\t// in\n    tag_329:\n        /* \"#utility.yul\":1489:1548   */\n      swap4\n      pop\n        /* \"#utility.yul\":1601:1603   */\n      0x40\n        /* \"#utility.yul\":1590:1599   */\n      dup7\n        /* \"#utility.yul\":1586:1604   */\n      add\n        /* \"#utility.yul\":1573:1605   */\n      calldataload\n        /* \"#utility.yul\":1557:1605   */\n      swap2\n      pop\n        /* \"#utility.yul\":1630:1632   */\n      dup1\n        /* \"#utility.yul\":1620:1628   */\n      dup3\n        /* \"#utility.yul\":1617:1633   */\n      gt\n        /* \"#utility.yul\":1614:1650   */\n      iszero\n      tag_330\n      jumpi\n        /* \"#utility.yul\":1646:1647   */\n      0x00\n        /* \"#utility.yul\":1643:1644   */\n      dup1\n        /* \"#utility.yul\":1636:1648   */\n      revert\n        /* \"#utility.yul\":1614:1650   */\n    tag_330:\n      pop\n        /* \"#utility.yul\":1669:1720   */\n      tag_331\n        /* \"#utility.yul\":1712:1719   */\n      dup7\n        /* \"#utility.yul\":1701:1709   */\n      dup3\n        /* \"#utility.yul\":1690:1699   */\n      dup8\n        /* \"#utility.yul\":1686:1710   */\n      add\n        /* \"#utility.yul\":1669:1720   */\n      tag_304\n      jump\t// in\n    tag_331:\n        /* \"#utility.yul\":1659:1720   */\n      swap2\n      pop\n      pop\n        /* \"#utility.yul\":1119:1726   */\n      swap3\n      pop\n      swap3\n      pop\n      swap3\n      jump\t// out\n        /* \"#utility.yul\":1731:2153   */\n    tag_305:\n        /* \"#utility.yul\":1772:1775   */\n      0x00\n        /* \"#utility.yul\":1810:1815   */\n      dup2\n        /* \"#utility.yul\":1804:1816   */\n      mload\n        /* \"#utility.yul\":1837:1843   */\n      dup1\n        /* \"#utility.yul\":1832:1835   */\n      dup5\n        /* \"#utility.yul\":1825:1844   */\n      mstore\n        /* \"#utility.yul\":1862:1863   */\n      0x00\n        /* \"#utility.yul\":1872:2034   */\n    tag_333:\n        /* \"#utility.yul\":1886:1892   */\n      dup2\n        /* \"#utility.yul\":1883:1884   */\n      dup2\n        /* \"#utility.yul\":1880:1893   */\n      lt\n        /* \"#utility.yul\":1872:2034   */\n      iszero\n      tag_335\n      jumpi\n        /* \"#utility.yul\":1948:1952   */\n      0x20\n        /* \"#utility.yul\":2004:2017   */\n      dup2\n      dup6\n      add\n        /* \"#utility.yul\":2000:2022   */\n      dup2\n      add\n        /* \"#utility.yul\":1994:2023   */\n      mload\n        /* \"#utility.yul\":1976:1987   */\n      dup7\n      dup4\n      add\n        /* \"#utility.yul\":1972:1992   */\n      dup3\n      add\n        /* \"#utility.yul\":1965:2024   */\n      mstore\n        /* \"#utility.yul\":1901:1913   */\n      add\n        /* \"#utility.yul\":1872:2034   */\n      jump(tag_333)\n    tag_335:\n        /* \"#utility.yul\":1876:1879   */\n      pop\n        /* \"#utility.yul\":2079:2080   */\n      0x00\n        /* \"#utility.yul\":2072:2076   */\n      0x20\n        /* \"#utility.yul\":2063:2069   */\n      dup3\n        /* \"#utility.yul\":2058:2061   */\n      dup7\n        /* \"#utility.yul\":2054:2070   */\n      add\n        /* \"#utility.yul\":2050:2077   */\n      add\n        /* \"#utility.yul\":2043:2081   */\n      mstore\n        /* \"#utility.yul\":2142:2146   */\n      0x20\n        /* \"#utility.yul\":2135:2137   */\n      0x1f\n        /* \"#utility.yul\":2131:2138   */\n      not\n        /* \"#utility.yul\":2126:2128   */\n      0x1f\n        /* \"#utility.yul\":2118:2124   */\n      dup4\n        /* \"#utility.yul\":2114:2129   */\n      add\n        /* \"#utility.yul\":2110:2139   */\n      and\n        /* \"#utility.yul\":2105:2108   */\n      dup6\n        /* \"#utility.yul\":2101:2140   */\n      add\n        /* \"#utility.yul\":2097:2147   */\n      add\n        /* \"#utility.yul\":2090:2147   */\n      swap2\n      pop\n      pop\n        /* \"#utility.yul\":1731:2153   */\n      swap3\n      swap2\n      pop\n      pop\n      jump\t// out\n        /* \"#utility.yul\":2158:2375   */\n    tag_21:\n        /* \"#utility.yul\":2305:2307   */\n      0x20\n        /* \"#utility.yul\":2294:2303   */\n      dup2\n        /* \"#utility.yul\":2287:2308   */\n      mstore\n        /* \"#utility.yul\":2268:2272   */\n      0x00\n        /* \"#utility.yul\":2325:2369   */\n      tag_254\n        /* \"#utility.yul\":2365:2367   */\n      0x20\n        /* \"#utility.yul\":2354:2363   */\n      dup4\n        /* \"#utility.yul\":2350:2368   */\n      add\n        /* \"#utility.yul\":2342:2348   */\n      dup5\n        /* \"#utility.yul\":2325:2369   */\n      tag_305\n      jump\t// in\n        /* \"#utility.yul\":2380:3163   */\n    tag_24:\n        /* \"#utility.yul\":2486:2492   */\n      0x00\n        /* \"#utility.yul\":2494:2500   */\n      dup1\n        /* \"#utility.yul\":2502:2508   */\n      0x00\n        /* \"#utility.yul\":2555:2557   */\n      0x40\n        /* \"#utility.yul\":2543:2552   */\n      dup5\n        /* \"#utility.yul\":2534:2541   */\n      dup7\n        /* \"#utility.yul\":2530:2553   */\n      sub\n        /* \"#utility.yul\":2526:2558   */\n      slt\n        /* \"#utility.yul\":2523:2575   */\n      iszero\n      tag_339\n      jumpi\n        /* \"#utility.yul\":2571:2572   */\n      0x00\n        /* \"#utility.yul\":2568:2569   */\n      dup1\n        /* \"#utility.yul\":2561:2573   */\n      revert\n        /* \"#utility.yul\":2523:2575   */\n    tag_339:\n        /* \"#utility.yul\":2610:2619   */\n      dup4\n        /* \"#utility.yul\":2597:2620   */\n      calldataload\n        /* \"#utility.yul\":2639:2657   */\n      0xffffffffffffffff\n        /* \"#utility.yul\":2697:2699   */\n      dup1\n        /* \"#utility.yul\":2690:2695   */\n      dup3\n        /* \"#utility.yul\":2686:2700   */\n      and\n        /* \"#utility.yul\":2679:2684   */\n      dup3\n        /* \"#utility.yul\":2676:2701   */\n      eq\n        /* \"#utility.yul\":2666:2719   */\n      tag_340\n      jumpi\n        /* \"#utility.yul\":2715:2716   */\n      0x00\n        /* \"#utility.yul\":2712:2713   */\n      dup1\n        /* \"#utility.yul\":2705:2717   */\n      revert\n        /* \"#utility.yul\":2666:2719   */\n    tag_340:\n        /* \"#utility.yul\":2738:2743   */\n      swap1\n      swap4\n      pop\n        /* \"#utility.yul\":2794:2796   */\n      0x20\n        /* \"#utility.yul\":2779:2797   */\n      dup6\n      add\n        /* \"#utility.yul\":2766:2798   */\n      calldataload\n      swap1\n        /* \"#utility.yul\":2810:2824   */\n      dup1\n      dup3\n      gt\n        /* \"#utility.yul\":2807:2841   */\n      iszero\n      tag_341\n      jumpi\n        /* \"#utility.yul\":2837:2838   */\n      0x00\n        /* \"#utility.yul\":2834:2835   */\n      dup1\n        /* \"#utility.yul\":2827:2839   */\n      revert\n        /* \"#utility.yul\":2807:2841   */\n    tag_341:\n        /* \"#utility.yul\":2875:2881   */\n      dup2\n        /* \"#utility.yul\":2864:2873   */\n      dup7\n        /* \"#utility.yul\":2860:2882   */\n      add\n        /* \"#utility.yul\":2850:2882   */\n      swap2\n      pop\n        /* \"#utility.yul\":2920:2927   */\n      dup7\n        /* \"#utility.yul\":2913:2917   */\n      0x1f\n        /* \"#utility.yul\":2909:2911   */\n      dup4\n        /* \"#utility.yul\":2905:2918   */\n      add\n        /* \"#utility.yul\":2901:2928   */\n      slt\n        /* \"#utility.yul\":2891:2946   */\n      tag_342\n      jumpi\n        /* \"#utility.yul\":2942:2943   */\n      0x00\n        /* \"#utility.yul\":2939:2940   */\n      dup1\n        /* \"#utility.yul\":2932:2944   */\n      revert\n        /* \"#utility.yul\":2891:2946   */\n    tag_342:\n        /* \"#utility.yul\":2982:2984   */\n      dup2\n        /* \"#utility.yul\":2969:2985   */\n      calldataload\n        /* \"#utility.yul\":3008:3010   */\n      dup2\n        /* \"#utility.yul\":3000:3006   */\n      dup2\n        /* \"#utility.yul\":2997:3011   */\n      gt\n        /* \"#utility.yul\":2994:3028   */\n      iszero\n      tag_343\n      jumpi\n        /* \"#utility.yul\":3024:3025   */\n      0x00\n        /* \"#utility.yul\":3021:3022   */\n      dup1\n        /* \"#utility.yul\":3014:3026   */\n      revert\n        /* \"#utility.yul\":2994:3028   */\n    tag_343:\n        /* \"#utility.yul\":3077:3084   */\n      dup8\n        /* \"#utility.yul\":3072:3074   */\n      0x20\n        /* \"#utility.yul\":3062:3068   */\n      dup3\n        /* \"#utility.yul\":3059:3060   */\n      0x05\n        /* \"#utility.yul\":3055:3069   */\n      shl\n        /* \"#utility.yul\":3051:3053   */\n      dup6\n        /* \"#utility.yul\":3047:3070   */\n      add\n        /* \"#utility.yul\":3043:3075   */\n      add\n        /* \"#utility.yul\":3040:3085   */\n      gt\n        /* \"#utility.yul\":3037:3102   */\n      iszero\n      tag_344\n      jumpi\n        /* \"#utility.yul\":3098:3099   */\n      0x00\n        /* \"#utility.yul\":3095:3096   */\n      dup1\n        /* \"#utility.yul\":3088:3100   */\n      revert\n        /* \"#utility.yul\":3037:3102   */\n    tag_344:\n        /* \"#utility.yul\":3129:3131   */\n      0x20\n        /* \"#utility.yul\":3125:3127   */\n      dup4\n        /* \"#utility.yul\":3121:3132   */\n      add\n        /* \"#utility.yul\":3111:3132   */\n      swap5\n      pop\n        /* \"#utility.yul\":3151:3157   */\n      dup1\n        /* \"#utility.yul\":3141:3157   */\n      swap4\n      pop\n      pop\n      pop\n      pop\n        /* \"#utility.yul\":2380:3163   */\n      swap3\n      pop\n      swap3\n      pop\n      swap3\n      jump\t// out\n        /* \"#utility.yul\":3805:4114   */\n    tag_46:\n        /* \"#utility.yul\":3864:3870   */\n      0x00\n        /* \"#utility.yul\":3917:3919   */\n      0x20\n        /* \"#utility.yul\":3905:3914   */\n      dup3\n        /* \"#utility.yul\":3896:3903   */\n      dup5\n        /* \"#utility.yul\":3892:3915   */\n      sub\n        /* \"#utility.yul\":3888:3920   */\n      slt\n        /* \"#utility.yul\":3885:3937   */\n      iszero\n      tag_350\n      jumpi\n        /* \"#utility.yul\":3933:3934   */\n      0x00\n        /* \"#utility.yul\":3930:3931   */\n      dup1\n        /* \"#utility.yul\":3923:3935   */\n      revert\n        /* \"#utility.yul\":3885:3937   */\n    tag_350:\n        /* \"#utility.yul\":3972:3981   */\n      dup2\n        /* \"#utility.yul\":3959:3982   */\n      calldataload\n      sub(shl(0xa0, 0x01), 0x01)\n        /* \"#utility.yul\":4015:4020   */\n      dup2\n        /* \"#utility.yul\":4011:4065   */\n      and\n        /* \"#utility.yul\":4004:4009   */\n      dup2\n        /* \"#utility.yul\":4001:4066   */\n      eq\n        /* \"#utility.yul\":3991:4084   */\n      tag_254\n      jumpi\n        /* \"#utility.yul\":4080:4081   */\n      0x00\n        /* \"#utility.yul\":4077:4078   */\n      dup1\n        /* \"#utility.yul\":4070:4082   */\n      revert\n        /* \"#utility.yul\":4119:4556   */\n    tag_53:\n        /* \"#utility.yul\":4198:4199   */\n      0x01\n        /* \"#utility.yul\":4194:4206   */\n      dup2\n      dup2\n      shr\n      swap1\n        /* \"#utility.yul\":4241:4253   */\n      dup3\n      and\n      dup1\n        /* \"#utility.yul\":4262:4323   */\n      tag_353\n      jumpi\n        /* \"#utility.yul\":4316:4320   */\n      0x7f\n        /* \"#utility.yul\":4308:4314   */\n      dup3\n        /* \"#utility.yul\":4304:4321   */\n      and\n        /* \"#utility.yul\":4294:4321   */\n      swap2\n      pop\n        /* \"#utility.yul\":4262:4323   */\n    tag_353:\n        /* \"#utility.yul\":4369:4371   */\n      0x20\n        /* \"#utility.yul\":4361:4367   */\n      dup3\n        /* \"#utility.yul\":4358:4372   */\n      lt\n        /* \"#utility.yul\":4338:4356   */\n      dup2\n        /* \"#utility.yul\":4335:4373   */\n      sub\n        /* \"#utility.yul\":4332:4550   */\n      tag_354\n      jumpi\n      shl(0xe0, 0x4e487b71)\n        /* \"#utility.yul\":4403:4404   */\n      0x00\n        /* \"#utility.yul\":4396:4484   */\n      mstore\n        /* \"#utility.yul\":4507:4511   */\n      0x22\n        /* \"#utility.yul\":4504:4505   */\n      0x04\n        /* \"#utility.yul\":4497:4512   */\n      mstore\n        /* \"#utility.yul\":4535:4539   */\n      0x24\n        /* \"#utility.yul\":4532:4533   */\n      0x00\n        /* \"#utility.yul\":4525:4540   */\n      revert\n        /* \"#utility.yul\":4332:4550   */\n    tag_354:\n      pop\n        /* \"#utility.yul\":4119:4556   */\n      swap2\n      swap1\n      pop\n      jump\t// out\n        /* \"#utility.yul\":4561:5711   */\n    tag_74:\n        /* \"#utility.yul\":4699:4708   */\n      0x00\n        /* \"#utility.yul\":4733:4751   */\n      0xffffffffffffffff\n        /* \"#utility.yul\":4774:4776   */\n      dup1\n        /* \"#utility.yul\":4766:4772   */\n      dup5\n        /* \"#utility.yul\":4763:4777   */\n      gt\n        /* \"#utility.yul\":4760:4800   */\n      iszero\n      tag_357\n      jumpi\n        /* \"#utility.yul\":4780:4798   */\n      tag_357\n      tag_301\n      jump\t// in\n    tag_357:\n        /* \"#utility.yul\":4826:4832   */\n      dup4\n        /* \"#utility.yul\":4823:4824   */\n      0x05\n        /* \"#utility.yul\":4819:4833   */\n      shl\n        /* \"#utility.yul\":4852:4856   */\n      0x20\n        /* \"#utility.yul\":4876:4904   */\n      tag_358\n        /* \"#utility.yul\":4900:4902   */\n      dup2\n        /* \"#utility.yul\":4896:4898   */\n      dup4\n        /* \"#utility.yul\":4892:4903   */\n      add\n        /* \"#utility.yul\":4876:4904   */\n      tag_302\n      jump\t// in\n    tag_358:\n        /* \"#utility.yul\":4938:4957   */\n      dup7\n      dup2\n      mstore\n        /* \"#utility.yul\":5008:5022   */\n      swap2\n      dup6\n      add\n      swap2\n        /* \"#utility.yul\":4973:4985   */\n      dup2\n      dup2\n      add\n      swap1\n        /* \"#utility.yul\":5045:5059   */\n      calldatasize\n        /* \"#utility.yul\":5034:5060   */\n      dup5\n      gt\n        /* \"#utility.yul\":5031:5077   */\n      iszero\n      tag_359\n      jumpi\n        /* \"#utility.yul\":5073:5074   */\n      0x00\n        /* \"#utility.yul\":5070:5071   */\n      dup1\n        /* \"#utility.yul\":5063:5075   */\n      revert\n        /* \"#utility.yul\":5031:5077   */\n    tag_359:\n        /* \"#utility.yul\":5097:5102   */\n      dup7\n        /* \"#utility.yul\":5111:5678   */\n    tag_360:\n        /* \"#utility.yul\":5127:5133   */\n      dup5\n        /* \"#utility.yul\":5122:5125   */\n      dup2\n        /* \"#utility.yul\":5119:5134   */\n      lt\n        /* \"#utility.yul\":5111:5678   */\n      iszero\n      tag_362\n      jumpi\n        /* \"#utility.yul\":5213:5216   */\n      dup1\n        /* \"#utility.yul\":5200:5217   */\n      calldataload\n        /* \"#utility.yul\":5249:5251   */\n      dup7\n        /* \"#utility.yul\":5236:5247   */\n      dup2\n        /* \"#utility.yul\":5233:5252   */\n      gt\n        /* \"#utility.yul\":5230:5339   */\n      iszero\n      tag_363\n      jumpi\n        /* \"#utility.yul\":5293:5294   */\n      0x00\n        /* \"#utility.yul\":5322:5324   */\n      dup1\n        /* \"#utility.yul\":5318:5320   */\n      dup2\n        /* \"#utility.yul\":5311:5325   */\n      revert\n        /* \"#utility.yul\":5230:5339   */\n    tag_363:\n        /* \"#utility.yul\":5362:5385   */\n      dup9\n      add\n        /* \"#utility.yul\":5427:5441   */\n      calldatasize\n        /* \"#utility.yul\":5420:5424   */\n      0x1f\n        /* \"#utility.yul\":5412:5425   */\n      dup3\n      add\n        /* \"#utility.yul\":5408:5442   */\n      slt\n        /* \"#utility.yul\":5398:5530   */\n      tag_364\n      jumpi\n        /* \"#utility.yul\":5484:5485   */\n      0x00\n        /* \"#utility.yul\":5513:5515   */\n      dup1\n        /* \"#utility.yul\":5509:5511   */\n      dup2\n        /* \"#utility.yul\":5502:5516   */\n      revert\n        /* \"#utility.yul\":5398:5530   */\n    tag_364:\n        /* \"#utility.yul\":5555:5635   */\n      tag_365\n        /* \"#utility.yul\":5620:5634   */\n      calldatasize\n        /* \"#utility.yul\":5615:5617   */\n      dup3\n        /* \"#utility.yul\":5602:5618   */\n      calldataload\n        /* \"#utility.yul\":5597:5599   */\n      dup8\n        /* \"#utility.yul\":5593:5595   */\n      dup5\n        /* \"#utility.yul\":5589:5600   */\n      add\n        /* \"#utility.yul\":5555:5635   */\n      tag_303\n      jump\t// in\n    tag_365:\n        /* \"#utility.yul\":5543:5636   */\n      dup5\n      mstore\n      pop\n        /* \"#utility.yul\":5656:5668   */\n      swap2\n      dup4\n      add\n      swap2\n        /* \"#utility.yul\":5144:5156   */\n      dup4\n      add\n        /* \"#utility.yul\":5111:5678   */\n      jump(tag_360)\n    tag_362:\n      pop\n        /* \"#utility.yul\":5700:5705   */\n      swap8\n        /* \"#utility.yul\":4561:5711   */\n      swap7\n      pop\n      pop\n      pop\n      pop\n      pop\n      pop\n      pop\n      jump\t// out\n        /* \"#utility.yul\":6192:6736   */\n    tag_307:\n        /* \"#utility.yul\":6293:6295   */\n      0x1f\n        /* \"#utility.yul\":6288:6291   */\n      dup3\n        /* \"#utility.yul\":6285:6296   */\n      gt\n        /* \"#utility.yul\":6282:6730   */\n      iszero\n      tag_203\n      jumpi\n        /* \"#utility.yul\":6329:6330   */\n      0x00\n        /* \"#utility.yul\":6354:6359   */\n      dup2\n        /* \"#utility.yul\":6350:6352   */\n      dup2\n        /* \"#utility.yul\":6343:6360   */\n      mstore\n        /* \"#utility.yul\":6399:6403   */\n      0x20\n        /* \"#utility.yul\":6395:6397   */\n      dup2\n        /* \"#utility.yul\":6385:6404   */\n      keccak256\n        /* \"#utility.yul\":6469:6471   */\n      0x1f\n        /* \"#utility.yul\":6457:6467   */\n      dup6\n        /* \"#utility.yul\":6453:6472   */\n      add\n        /* \"#utility.yul\":6450:6451   */\n      0x05\n        /* \"#utility.yul\":6446:6473   */\n      shr\n        /* \"#utility.yul\":6440:6444   */\n      dup2\n        /* \"#utility.yul\":6436:6474   */\n      add\n        /* \"#utility.yul\":6505:6509   */\n      0x20\n        /* \"#utility.yul\":6493:6503   */\n      dup7\n        /* \"#utility.yul\":6490:6510   */\n      lt\n        /* \"#utility.yul\":6487:6534   */\n      iszero\n      tag_370\n      jumpi\n      pop\n        /* \"#utility.yul\":6528:6532   */\n      dup1\n        /* \"#utility.yul\":6487:6534   */\n    tag_370:\n        /* \"#utility.yul\":6583:6585   */\n      0x1f\n        /* \"#utility.yul\":6578:6581   */\n      dup6\n        /* \"#utility.yul\":6574:6586   */\n      add\n        /* \"#utility.yul\":6571:6572   */\n      0x05\n        /* \"#utility.yul\":6567:6587   */\n      shr\n        /* \"#utility.yul\":6561:6565   */\n      dup3\n        /* \"#utility.yul\":6557:6588   */\n      add\n        /* \"#utility.yul\":6547:6588   */\n      swap2\n      pop\n        /* \"#utility.yul\":6638:6720   */\n    tag_371:\n        /* \"#utility.yul\":6656:6658   */\n      dup2\n        /* \"#utility.yul\":6649:6654   */\n      dup2\n        /* \"#utility.yul\":6646:6659   */\n      lt\n        /* \"#utility.yul\":6638:6720   */\n      iszero\n      tag_373\n      jumpi\n        /* \"#utility.yul\":6701:6718   */\n      dup3\n      dup2\n      sstore\n        /* \"#utility.yul\":6682:6683   */\n      0x01\n        /* \"#utility.yul\":6671:6684   */\n      add\n        /* \"#utility.yul\":6638:6720   */\n      jump(tag_371)\n    tag_373:\n        /* \"#utility.yul\":6642:6645   */\n      pop\n      pop\n      pop\n        /* \"#utility.yul\":6192:6736   */\n      pop\n      pop\n      pop\n      jump\t// out\n        /* \"#utility.yul\":6912:8260   */\n    tag_104:\n        /* \"#utility.yul\":7036:7039   */\n      dup2\n        /* \"#utility.yul\":7030:7040   */\n      mload\n        /* \"#utility.yul\":7063:7081   */\n      0xffffffffffffffff\n        /* \"#utility.yul\":7055:7061   */\n      dup2\n        /* \"#utility.yul\":7052:7082   */\n      gt\n        /* \"#utility.yul\":7049:7105   */\n      iszero\n      tag_377\n      jumpi\n        /* \"#utility.yul\":7085:7103   */\n      tag_377\n      tag_301\n      jump\t// in\n    tag_377:\n        /* \"#utility.yul\":7114:7210   */\n      tag_378\n        /* \"#utility.yul\":7203:7209   */\n      dup2\n        /* \"#utility.yul\":7163:7201   */\n      tag_379\n        /* \"#utility.yul\":7195:7199   */\n      dup5\n        /* \"#utility.yul\":7189:7200   */\n      sload\n        /* \"#utility.yul\":7163:7201   */\n      tag_53\n      jump\t// in\n    tag_379:\n        /* \"#utility.yul\":7157:7161   */\n      dup5\n        /* \"#utility.yul\":7114:7210   */\n      tag_307\n      jump\t// in\n    tag_378:\n        /* \"#utility.yul\":7265:7269   */\n      0x20\n      dup1\n        /* \"#utility.yul\":7329:7331   */\n      0x1f\n        /* \"#utility.yul\":7318:7332   */\n      dup4\n      gt\n        /* \"#utility.yul\":7346:7347   */\n      0x01\n        /* \"#utility.yul\":7341:8003   */\n      dup2\n      eq\n      tag_381\n      jumpi\n        /* \"#utility.yul\":8047:8048   */\n      0x00\n        /* \"#utility.yul\":8064:8070   */\n      dup5\n        /* \"#utility.yul\":8061:8150   */\n      iszero\n      tag_382\n      jumpi\n      pop\n        /* \"#utility.yul\":8116:8135   */\n      dup6\n      dup4\n      add\n        /* \"#utility.yul\":8110:8136   */\n      mload\n        /* \"#utility.yul\":8061:8150   */\n    tag_382:\n      not(0x00)\n        /* \"#utility.yul\":6869:6870   */\n      0x03\n        /* \"#utility.yul\":6865:6876   */\n      dup7\n      swap1\n      shl\n        /* \"#utility.yul\":6861:6885   */\n      shr\n        /* \"#utility.yul\":6857:6886   */\n      not\n        /* \"#utility.yul\":6847:6887   */\n      and\n        /* \"#utility.yul\":6893:6894   */\n      0x01\n        /* \"#utility.yul\":6889:6900   */\n      dup6\n      swap1\n      shl\n        /* \"#utility.yul\":6844:6901   */\n      or\n        /* \"#utility.yul\":8163:8244   */\n      dup6\n      sstore\n        /* \"#utility.yul\":7311:8254   */\n      jump(tag_373)\n        /* \"#utility.yul\":7341:8003   */\n    tag_381:\n        /* \"#utility.yul\":6139:6140   */\n      0x00\n        /* \"#utility.yul\":6132:6146   */\n      dup6\n      dup2\n      mstore\n        /* \"#utility.yul\":6176:6180   */\n      0x20\n        /* \"#utility.yul\":6163:6181   */\n      dup2\n      keccak256\n      not(0x1f)\n        /* \"#utility.yul\":7377:7397   */\n      dup7\n      and\n      swap2\n        /* \"#utility.yul\":7494:7730   */\n    tag_385:\n        /* \"#utility.yul\":7508:7515   */\n      dup3\n        /* \"#utility.yul\":7505:7506   */\n      dup2\n        /* \"#utility.yul\":7502:7516   */\n      lt\n        /* \"#utility.yul\":7494:7730   */\n      iszero\n      tag_387\n      jumpi\n        /* \"#utility.yul\":7597:7616   */\n      dup9\n      dup7\n      add\n        /* \"#utility.yul\":7591:7617   */\n      mload\n        /* \"#utility.yul\":7576:7618   */\n      dup3\n      sstore\n        /* \"#utility.yul\":7689:7716   */\n      swap5\n      dup5\n      add\n      swap5\n        /* \"#utility.yul\":7657:7658   */\n      0x01\n        /* \"#utility.yul\":7645:7659   */\n      swap1\n      swap2\n      add\n      swap1\n        /* \"#utility.yul\":7524:7543   */\n      dup5\n      add\n        /* \"#utility.yul\":7494:7730   */\n      jump(tag_385)\n    tag_387:\n        /* \"#utility.yul\":7498:7501   */\n      pop\n        /* \"#utility.yul\":7758:7764   */\n      dup6\n        /* \"#utility.yul\":7749:7756   */\n      dup3\n        /* \"#utility.yul\":7746:7765   */\n      lt\n        /* \"#utility.yul\":7743:7944   */\n      iszero\n      tag_388\n      jumpi\n        /* \"#utility.yul\":7819:7838   */\n      dup8\n      dup6\n      add\n        /* \"#utility.yul\":7813:7839   */\n      mload\n      not(0x00)\n        /* \"#utility.yul\":7902:7903   */\n      0x03\n        /* \"#utility.yul\":7898:7912   */\n      dup9\n      swap1\n      shl\n        /* \"#utility.yul\":7914:7917   */\n      0xf8\n        /* \"#utility.yul\":7894:7918   */\n      and\n        /* \"#utility.yul\":7890:7927   */\n      shr\n        /* \"#utility.yul\":7886:7928   */\n      not\n        /* \"#utility.yul\":7871:7929   */\n      and\n        /* \"#utility.yul\":7856:7930   */\n      dup2\n      sstore\n        /* \"#utility.yul\":7743:7944   */\n    tag_388:\n      pop\n      pop\n      pop\n      pop\n      pop\n        /* \"#utility.yul\":7990:7991   */\n      0x01\n        /* \"#utility.yul\":7974:7988   */\n      swap1\n      dup2\n      shl\n        /* \"#utility.yul\":7970:7992   */\n      add\n        /* \"#utility.yul\":7957:7993   */\n      swap1\n      sstore\n      pop\n        /* \"#utility.yul\":6912:8260   */\n      jump\t// out\n        /* \"#utility.yul\":9620:10392   */\n    tag_309:\n        /* \"#utility.yul\":9670:9673   */\n      0x00\n        /* \"#utility.yul\":9711:9716   */\n      dup2\n        /* \"#utility.yul\":9705:9717   */\n      sload\n        /* \"#utility.yul\":9740:9776   */\n      tag_404\n        /* \"#utility.yul\":9766:9775   */\n      dup2\n        /* \"#utility.yul\":9740:9776   */\n      tag_53\n      jump\t// in\n    tag_404:\n        /* \"#utility.yul\":9785:9804   */\n      dup1\n      dup6\n      mstore\n        /* \"#utility.yul\":9823:9827   */\n      0x20\n        /* \"#utility.yul\":9846:9847   */\n      0x01\n        /* \"#utility.yul\":9863:9881   */\n      dup4\n      dup2\n      and\n        /* \"#utility.yul\":9890:10036   */\n      dup1\n      iszero\n      tag_406\n      jumpi\n        /* \"#utility.yul\":10050:10051   */\n      0x01\n        /* \"#utility.yul\":10045:10386   */\n      dup2\n      eq\n      tag_407\n      jumpi\n        /* \"#utility.yul\":9856:10386   */\n      jump(tag_405)\n        /* \"#utility.yul\":9890:10036   */\n    tag_406:\n      not(0xff)\n        /* \"#utility.yul\":9932:9956   */\n      dup6\n      and\n        /* \"#utility.yul\":9918:9930   */\n      dup9\n      dup5\n      add\n        /* \"#utility.yul\":9911:9957   */\n      mstore\n        /* \"#utility.yul\":10004:10018   */\n      dup4\n      iszero\n        /* \"#utility.yul\":9997:10019   */\n      iszero\n        /* \"#utility.yul\":9994:9995   */\n      0x05\n        /* \"#utility.yul\":9990:10020   */\n      shl\n        /* \"#utility.yul\":9981:10021   */\n      dup9\n      add\n        /* \"#utility.yul\":9977:10026   */\n      dup4\n      add\n      swap6\n      pop\n        /* \"#utility.yul\":9890:10036   */\n      jump(tag_405)\n        /* \"#utility.yul\":10045:10386   */\n    tag_407:\n        /* \"#utility.yul\":10076:10081   */\n      dup7\n        /* \"#utility.yul\":10073:10074   */\n      0x00\n        /* \"#utility.yul\":10066:10082   */\n      mstore\n        /* \"#utility.yul\":10123:10125   */\n      dup3\n        /* \"#utility.yul\":10120:10121   */\n      0x00\n        /* \"#utility.yul\":10110:10126   */\n      keccak256\n        /* \"#utility.yul\":10148:10149   */\n      0x00\n        /* \"#utility.yul\":10162:10336   */\n    tag_408:\n        /* \"#utility.yul\":10176:10182   */\n      dup6\n        /* \"#utility.yul\":10173:10174   */\n      dup2\n        /* \"#utility.yul\":10170:10183   */\n      lt\n        /* \"#utility.yul\":10162:10336   */\n      iszero\n      tag_410\n      jumpi\n        /* \"#utility.yul\":10263:10277   */\n      dup2\n      sload\n        /* \"#utility.yul\":10245:10256   */\n      dup11\n      dup3\n      add\n        /* \"#utility.yul\":10241:10261   */\n      dup7\n      add\n        /* \"#utility.yul\":10234:10278   */\n      mstore\n        /* \"#utility.yul\":10306:10322   */\n      swap1\n      dup4\n      add\n      swap1\n        /* \"#utility.yul\":10191:10201   */\n      dup5\n      add\n        /* \"#utility.yul\":10162:10336   */\n      jump(tag_408)\n    tag_410:\n        /* \"#utility.yul\":10360:10371   */\n      dup10\n      add\n        /* \"#utility.yul\":10356:10376   */\n      dup5\n      add\n      swap7\n      pop\n      pop\n        /* \"#utility.yul\":9856:10386   */\n    tag_405:\n      pop\n      pop\n      pop\n      pop\n      pop\n        /* \"#utility.yul\":9620:10392   */\n      swap3\n      swap2\n      pop\n      pop\n      jump\t// out\n        /* \"#utility.yul\":10397:10954   */\n    tag_109:\n        /* \"#utility.yul\":10629:10631   */\n      0x60\n        /* \"#utility.yul\":10618:10627   */\n      dup2\n        /* \"#utility.yul\":10611:10632   */\n      mstore\n        /* \"#utility.yul\":10592:10596   */\n      0x00\n        /* \"#utility.yul\":10655:10708   */\n      tag_412\n        /* \"#utility.yul\":10704:10706   */\n      0x60\n        /* \"#utility.yul\":10693:10702   */\n      dup4\n        /* \"#utility.yul\":10689:10707   */\n      add\n        /* \"#utility.yul\":10681:10687   */\n      dup7\n        /* \"#utility.yul\":10655:10708   */\n      tag_309\n      jump\t// in\n    tag_412:\n        /* \"#utility.yul\":10756:10765   */\n      dup3\n        /* \"#utility.yul\":10748:10754   */\n      dup2\n        /* \"#utility.yul\":10744:10766   */\n      sub\n        /* \"#utility.yul\":10739:10741   */\n      0x20\n        /* \"#utility.yul\":10728:10737   */\n      dup5\n        /* \"#utility.yul\":10724:10742   */\n      add\n        /* \"#utility.yul\":10717:10767   */\n      mstore\n        /* \"#utility.yul\":10790:10831   */\n      tag_413\n        /* \"#utility.yul\":10824:10830   */\n      dup2\n        /* \"#utility.yul\":10816:10822   */\n      dup7\n        /* \"#utility.yul\":10790:10831   */\n      tag_309\n      jump\t// in\n    tag_413:\n        /* \"#utility.yul\":10776:10831   */\n      swap1\n      pop\n        /* \"#utility.yul\":10879:10888   */\n      dup3\n        /* \"#utility.yul\":10871:10877   */\n      dup2\n        /* \"#utility.yul\":10867:10889   */\n      sub\n        /* \"#utility.yul\":10862:10864   */\n      0x40\n        /* \"#utility.yul\":10851:10860   */\n      dup5\n        /* \"#utility.yul\":10847:10865   */\n      add\n        /* \"#utility.yul\":10840:10890   */\n      mstore\n        /* \"#utility.yul\":10907:10948   */\n      tag_414\n        /* \"#utility.yul\":10941:10947   */\n      dup2\n        /* \"#utility.yul\":10933:10939   */\n      dup6\n        /* \"#utility.yul\":10907:10948   */\n      tag_309\n      jump\t// in\n    tag_414:\n        /* \"#utility.yul\":10899:10948   */\n      swap7\n        /* \"#utility.yul\":10397:10954   */\n      swap6\n      pop\n      pop\n      pop\n      pop\n      pop\n      pop\n      jump\t// out\n        /* \"#utility.yul\":11310:11494   */\n    tag_127:\n      shl(0xe0, 0x4e487b71)\n        /* \"#utility.yul\":11359:11360   */\n      0x00\n        /* \"#utility.yul\":11352:11440   */\n      mstore\n        /* \"#utility.yul\":11459:11463   */\n      0x21\n        /* \"#utility.yul\":11456:11457   */\n      0x04\n        /* \"#utility.yul\":11449:11464   */\n      mstore\n        /* \"#utility.yul\":11483:11487   */\n      0x24\n        /* \"#utility.yul\":11480:11481   */\n      0x00\n        /* \"#utility.yul\":11473:11488   */\n      revert\n        /* \"#utility.yul\":11499:11683   */\n    tag_145:\n      shl(0xe0, 0x4e487b71)\n        /* \"#utility.yul\":11548:11549   */\n      0x00\n        /* \"#utility.yul\":11541:11629   */\n      mstore\n        /* \"#utility.yul\":11648:11652   */\n      0x32\n        /* \"#utility.yul\":11645:11646   */\n      0x04\n        /* \"#utility.yul\":11638:11653   */\n      mstore\n        /* \"#utility.yul\":11672:11676   */\n      0x24\n        /* \"#utility.yul\":11669:11670   */\n      0x00\n        /* \"#utility.yul\":11662:11677   */\n      revert\n        /* \"#utility.yul\":11688:11872   */\n    tag_310:\n      shl(0xe0, 0x4e487b71)\n        /* \"#utility.yul\":11737:11738   */\n      0x00\n        /* \"#utility.yul\":11730:11818   */\n      mstore\n        /* \"#utility.yul\":11837:11841   */\n      0x11\n        /* \"#utility.yul\":11834:11835   */\n      0x04\n        /* \"#utility.yul\":11827:11842   */\n      mstore\n        /* \"#utility.yul\":11861:11865   */\n      0x24\n        /* \"#utility.yul\":11858:11859   */\n      0x00\n        /* \"#utility.yul\":11851:11866   */\n      revert\n        /* \"#utility.yul\":11877:12012   */\n    tag_147:\n        /* \"#utility.yul\":11916:11919   */\n      0x00\n        /* \"#utility.yul\":11937:11954   */\n      0x01\n      dup3\n      add\n        /* \"#utility.yul\":11934:11977   */\n      tag_421\n      jumpi\n        /* \"#utility.yul\":11957:11975   */\n      tag_421\n      tag_310\n      jump\t// in\n    tag_421:\n      pop\n        /* \"#utility.yul\":12004:12005   */\n      0x01\n        /* \"#utility.yul\":11993:12006   */\n      add\n      swap1\n        /* \"#utility.yul\":11877:12012   */\n      jump\t// out\n        /* \"#utility.yul\":12017:12570   */\n    tag_176:\n        /* \"#utility.yul\":12282:12300   */\n      0xffffffffffffffff\n        /* \"#utility.yul\":12274:12280   */\n      dup7\n        /* \"#utility.yul\":12270:12301   */\n      and\n        /* \"#utility.yul\":12259:12268   */\n      dup2\n        /* \"#utility.yul\":12252:12302   */\n      mstore\n        /* \"#utility.yul\":12338:12341   */\n      0xa0\n        /* \"#utility.yul\":12333:12335   */\n      0x20\n        /* \"#utility.yul\":12322:12331   */\n      dup3\n        /* \"#utility.yul\":12318:12336   */\n      add\n        /* \"#utility.yul\":12311:12342   */\n      mstore\n        /* \"#utility.yul\":12233:12237   */\n      0x00\n        /* \"#utility.yul\":12359:12404   */\n      tag_423\n        /* \"#utility.yul\":12399:12402   */\n      0xa0\n        /* \"#utility.yul\":12388:12397   */\n      dup4\n        /* \"#utility.yul\":12384:12403   */\n      add\n        /* \"#utility.yul\":12376:12382   */\n      dup8\n        /* \"#utility.yul\":12359:12404   */\n      tag_305\n      jump\t// in\n    tag_423:\n        /* \"#utility.yul\":12452:12458   */\n      0xffff\n        /* \"#utility.yul\":12440:12459   */\n      swap6\n      swap1\n      swap6\n      and\n        /* \"#utility.yul\":12435:12437   */\n      0x40\n        /* \"#utility.yul\":12420:12438   */\n      dup4\n      add\n        /* \"#utility.yul\":12413:12460   */\n      mstore\n      pop\n        /* \"#utility.yul\":12508:12518   */\n      0xffffffff\n        /* \"#utility.yul\":12496:12519   */\n      swap3\n      swap1\n      swap3\n      and\n        /* \"#utility.yul\":12491:12493   */\n      0x60\n        /* \"#utility.yul\":12476:12494   */\n      dup4\n      add\n        /* \"#utility.yul\":12469:12520   */\n      mstore\n        /* \"#utility.yul\":12551:12554   */\n      0x80\n        /* \"#utility.yul\":12536:12555   */\n      swap1\n      swap2\n      add\n        /* \"#utility.yul\":12529:12564   */\n      mstore\n        /* \"#utility.yul\":12351:12404   */\n      swap3\n        /* \"#utility.yul\":12017:12570   */\n      swap2\n      pop\n      pop\n      jump\t// out\n        /* \"#utility.yul\":12575:12759   */\n    tag_180:\n        /* \"#utility.yul\":12645:12651   */\n      0x00\n        /* \"#utility.yul\":12698:12700   */\n      0x20\n        /* \"#utility.yul\":12686:12695   */\n      dup3\n        /* \"#utility.yul\":12677:12684   */\n      dup5\n        /* \"#utility.yul\":12673:12696   */\n      sub\n        /* \"#utility.yul\":12669:12701   */\n      slt\n        /* \"#utility.yul\":12666:12718   */\n      iszero\n      tag_425\n      jumpi\n        /* \"#utility.yul\":12714:12715   */\n      0x00\n        /* \"#utility.yul\":12711:12712   */\n      dup1\n        /* \"#utility.yul\":12704:12716   */\n      revert\n        /* \"#utility.yul\":12666:12718   */\n    tag_425:\n      pop\n        /* \"#utility.yul\":12737:12753   */\n      mload\n      swap2\n        /* \"#utility.yul\":12575:12759   */\n      swap1\n      pop\n      jump\t// out\n        /* \"#utility.yul\":13298:13423   */\n    tag_215:\n        /* \"#utility.yul\":13363:13372   */\n      dup1\n      dup3\n      add\n        /* \"#utility.yul\":13384:13394   */\n      dup1\n      dup3\n      gt\n        /* \"#utility.yul\":13381:13417   */\n      iszero\n      tag_225\n      jumpi\n        /* \"#utility.yul\":13397:13415   */\n      tag_225\n      tag_310\n      jump\t// in\n        /* \"#utility.yul\":13428:13556   */\n    tag_219:\n        /* \"#utility.yul\":13495:13504   */\n      dup2\n      dup2\n      sub\n        /* \"#utility.yul\":13516:13527   */\n      dup2\n      dup2\n      gt\n        /* \"#utility.yul\":13513:13550   */\n      iszero\n      tag_225\n      jumpi\n        /* \"#utility.yul\":13530:13548   */\n      tag_225\n      tag_310\n      jump\t// in\n        /* \"#utility.yul\":13561:13827   */\n    tag_227:\n        /* \"#utility.yul\":13593:13594   */\n      0x00\n        /* \"#utility.yul\":13619:13620   */\n      dup3\n        /* \"#utility.yul\":13609:13798   */\n      tag_435\n      jumpi\n      shl(0xe0, 0x4e487b71)\n        /* \"#utility.yul\":13651:13652   */\n      0x00\n        /* \"#utility.yul\":13644:13732   */\n      mstore\n        /* \"#utility.yul\":13755:13759   */\n      0x12\n        /* \"#utility.yul\":13752:13753   */\n      0x04\n        /* \"#utility.yul\":13745:13760   */\n      mstore\n        /* \"#utility.yul\":13783:13787   */\n      0x24\n        /* \"#utility.yul\":13780:13781   */\n      0x00\n        /* \"#utility.yul\":13773:13788   */\n      revert\n        /* \"#utility.yul\":13609:13798   */\n    tag_435:\n      pop\n        /* \"#utility.yul\":13812:13821   */\n      mod\n      swap1\n        /* \"#utility.yul\":13561:13827   */\n      jump\t// out\n        /* \"#utility.yul\":13832:14000   */\n    tag_262:\n        /* \"#utility.yul\":13905:13914   */\n      dup1\n      dup3\n      mul\n        /* \"#utility.yul\":13936:13945   */\n      dup2\n      iszero\n        /* \"#utility.yul\":13953:13968   */\n      dup3\n      dup3\n      div\n        /* \"#utility.yul\":13947:13969   */\n      dup5\n      eq\n        /* \"#utility.yul\":13933:13970   */\n      or\n        /* \"#utility.yul\":13923:13994   */\n      tag_225\n      jumpi\n        /* \"#utility.yul\":13974:13992   */\n      tag_225\n      tag_310\n      jump\t// in\n        /* \"#utility.yul\":14005:14427   */\n    tag_311:\n        /* \"#utility.yul\":14094:14095   */\n      0x01\n        /* \"#utility.yul\":14137:14142   */\n      dup2\n        /* \"#utility.yul\":14094:14095   */\n      dup2\n        /* \"#utility.yul\":14151:14421   */\n    tag_440:\n        /* \"#utility.yul\":14172:14179   */\n      dup1\n        /* \"#utility.yul\":14162:14170   */\n      dup6\n        /* \"#utility.yul\":14159:14180   */\n      gt\n        /* \"#utility.yul\":14151:14421   */\n      iszero\n      tag_442\n      jumpi\n        /* \"#utility.yul\":14231:14235   */\n      dup2\n        /* \"#utility.yul\":14227:14228   */\n      0x00\n        /* \"#utility.yul\":14223:14229   */\n      not\n        /* \"#utility.yul\":14219:14236   */\n      div\n        /* \"#utility.yul\":14213:14217   */\n      dup3\n        /* \"#utility.yul\":14210:14237   */\n      gt\n        /* \"#utility.yul\":14207:14260   */\n      iszero\n      tag_444\n      jumpi\n        /* \"#utility.yul\":14240:14258   */\n      tag_444\n      tag_310\n      jump\t// in\n    tag_444:\n        /* \"#utility.yul\":14290:14297   */\n      dup1\n        /* \"#utility.yul\":14280:14288   */\n      dup6\n        /* \"#utility.yul\":14276:14298   */\n      and\n        /* \"#utility.yul\":14273:14328   */\n      iszero\n      tag_445\n      jumpi\n        /* \"#utility.yul\":14310:14326   */\n      swap2\n      dup2\n      mul\n      swap2\n        /* \"#utility.yul\":14273:14328   */\n    tag_445:\n        /* \"#utility.yul\":14389:14411   */\n      swap4\n      dup5\n      shr\n      swap4\n        /* \"#utility.yul\":14349:14364   */\n      swap1\n      dup1\n      mul\n      swap1\n        /* \"#utility.yul\":14151:14421   */\n      jump(tag_440)\n    tag_442:\n        /* \"#utility.yul\":14155:14158   */\n      pop\n        /* \"#utility.yul\":14005:14427   */\n      swap3\n      pop\n      swap3\n      swap1\n      pop\n      jump\t// out\n        /* \"#utility.yul\":14432:15238   */\n    tag_312:\n        /* \"#utility.yul\":14481:14486   */\n      0x00\n        /* \"#utility.yul\":14511:14519   */\n      dup3\n        /* \"#utility.yul\":14501:14581   */\n      tag_447\n      jumpi\n      pop\n        /* \"#utility.yul\":14552:14553   */\n      0x01\n        /* \"#utility.yul\":14566:14571   */\n      jump(tag_225)\n        /* \"#utility.yul\":14501:14581   */\n    tag_447:\n        /* \"#utility.yul\":14600:14604   */\n      dup2\n        /* \"#utility.yul\":14590:14666   */\n      tag_448\n      jumpi\n      pop\n        /* \"#utility.yul\":14637:14638   */\n      0x00\n        /* \"#utility.yul\":14651:14656   */\n      jump(tag_225)\n        /* \"#utility.yul\":14590:14666   */\n    tag_448:\n        /* \"#utility.yul\":14682:14686   */\n      dup2\n        /* \"#utility.yul\":14700:14701   */\n      0x01\n        /* \"#utility.yul\":14695:14754   */\n      dup2\n      eq\n      tag_450\n      jumpi\n        /* \"#utility.yul\":14768:14769   */\n      0x02\n        /* \"#utility.yul\":14763:14893   */\n      dup2\n      eq\n      tag_451\n      jumpi\n        /* \"#utility.yul\":14675:14893   */\n      jump(tag_449)\n        /* \"#utility.yul\":14695:14754   */\n    tag_450:\n        /* \"#utility.yul\":14725:14726   */\n      0x01\n        /* \"#utility.yul\":14716:14726   */\n      swap2\n      pop\n        /* \"#utility.yul\":14739:14744   */\n      pop\n      jump(tag_225)\n        /* \"#utility.yul\":14763:14893   */\n    tag_451:\n        /* \"#utility.yul\":14800:14803   */\n      0xff\n        /* \"#utility.yul\":14790:14798   */\n      dup5\n        /* \"#utility.yul\":14787:14804   */\n      gt\n        /* \"#utility.yul\":14784:14827   */\n      iszero\n      tag_453\n      jumpi\n        /* \"#utility.yul\":14807:14825   */\n      tag_453\n      tag_310\n      jump\t// in\n    tag_453:\n      pop\n      pop\n        /* \"#utility.yul\":14863:14864   */\n      0x01\n        /* \"#utility.yul\":14849:14865   */\n      dup3\n      shl\n        /* \"#utility.yul\":14878:14883   */\n      jump(tag_225)\n        /* \"#utility.yul\":14675:14893   */\n    tag_449:\n      pop\n        /* \"#utility.yul\":14977:14979   */\n      0x20\n        /* \"#utility.yul\":14967:14975   */\n      dup4\n        /* \"#utility.yul\":14964:14980   */\n      lt\n        /* \"#utility.yul\":14958:14961   */\n      0x0133\n        /* \"#utility.yul\":14952:14956   */\n      dup4\n        /* \"#utility.yul\":14949:14962   */\n      lt\n        /* \"#utility.yul\":14945:14981   */\n      and\n        /* \"#utility.yul\":14939:14941   */\n      0x4e\n        /* \"#utility.yul\":14929:14937   */\n      dup5\n        /* \"#utility.yul\":14926:14942   */\n      lt\n        /* \"#utility.yul\":14921:14923   */\n      0x0b\n        /* \"#utility.yul\":14915:14919   */\n      dup5\n        /* \"#utility.yul\":14912:14924   */\n      lt\n        /* \"#utility.yul\":14908:14943   */\n      and\n        /* \"#utility.yul\":14905:14982   */\n      or\n        /* \"#utility.yul\":14902:15061   */\n      iszero\n      tag_454\n      jumpi\n      pop\n        /* \"#utility.yul\":15014:15033   */\n      dup2\n      dup2\n      exp\n        /* \"#utility.yul\":15046:15051   */\n      jump(tag_225)\n        /* \"#utility.yul\":14902:15061   */\n    tag_454:\n        /* \"#utility.yul\":15093:15127   */\n      tag_455\n        /* \"#utility.yul\":15118:15126   */\n      dup4\n        /* \"#utility.yul\":15112:15116   */\n      dup4\n        /* \"#utility.yul\":15093:15127   */\n      tag_311\n      jump\t// in\n    tag_455:\n        /* \"#utility.yul\":15163:15169   */\n      dup1\n        /* \"#utility.yul\":15159:15160   */\n      0x00\n        /* \"#utility.yul\":15155:15161   */\n      not\n        /* \"#utility.yul\":15151:15170   */\n      div\n        /* \"#utility.yul\":15142:15149   */\n      dup3\n        /* \"#utility.yul\":15139:15171   */\n      gt\n        /* \"#utility.yul\":15136:15194   */\n      iszero\n      tag_457\n      jumpi\n        /* \"#utility.yul\":15174:15192   */\n      tag_457\n      tag_310\n      jump\t// in\n    tag_457:\n        /* \"#utility.yul\":15212:15232   */\n      mul\n      swap4\n        /* \"#utility.yul\":14432:15238   */\n      swap3\n      pop\n      pop\n      pop\n      jump\t// out\n        /* \"#utility.yul\":15243:15374   */\n    tag_274:\n        /* \"#utility.yul\":15303:15308   */\n      0x00\n        /* \"#utility.yul\":15332:15368   */\n      tag_254\n        /* \"#utility.yul\":15359:15367   */\n      dup4\n        /* \"#utility.yul\":15353:15357   */\n      dup4\n        /* \"#utility.yul\":15332:15368   */\n      tag_312\n      jump\t// in\n\n    auxdata: 0xa2646970667358221220596a6fc3ed8bb4d83890e72ee1f89d0319f6aa0ae9aa8bc49b03ab5a6015e3ae64736f6c63430008130033\n}\n",
				"bytecode": {
					"linkReferences": {},
					"object": "600580546001600160a01b031916736e2dc0f9db014ae19888f539e59285d2ea04244c1790556101e060405261010560a08181529062001ad060c0396006906200004a908262000281565b506007805463ffffffff1916620493e01790557f66756e2d706f6c79676f6e2d6d756d6261692d310000000000000000000000006008553480156200008e57600080fd5b506005546001600160a01b03166080523380600081620000f55760405162461bcd60e51b815260206004820152601860248201527f43616e6e6f7420736574206f776e657220746f207a65726f000000000000000060448201526064015b60405180910390fd5b600080546001600160a01b0319166001600160a01b03848116919091179091558116156200012857620001288162000131565b5050506200034d565b336001600160a01b038216036200018b5760405162461bcd60e51b815260206004820152601760248201527f43616e6e6f74207472616e7366657220746f2073656c660000000000000000006044820152606401620000ec565b600180546001600160a01b0319166001600160a01b0383811691821790925560008054604051929316917fed8889f560326eb138920d842192f0eb3dd22b4f139c87a2c57538e05bae12789190a350565b634e487b7160e01b600052604160045260246000fd5b600181811c908216806200020757607f821691505b6020821081036200022857634e487b7160e01b600052602260045260246000fd5b50919050565b601f8211156200027c57600081815260208120601f850160051c81016020861015620002575750805b601f850160051c820191505b81811015620002785782815560010162000263565b5050505b505050565b81516001600160401b038111156200029d576200029d620001dc565b620002b581620002ae8454620001f2565b846200022e565b602080601f831160018114620002ed5760008415620002d45750858301515b600019600386901b1c1916600185901b17855562000278565b600085815260208120601f198616915b828110156200031e57888601518255948401946001909101908401620002fd565b50858210156200033d5787850151600019600388901b60f8161c191681555b5050505050600190811b01905550565b6080516117606200037060003960008181610156015261097401526117606000f3fe608060405234801561001057600080fd5b50600436106100a35760003560e01c80634d2e03a0116100765780638da5cb5b1161005b5780638da5cb5b14610114578063b1e217491461012f578063f2fde38b1461013857600080fd5b80634d2e03a01461010457806379ba50971461010c57600080fd5b80630ca76175146100a85780633944ea3a146100bd57806348a7d26d146100db5780634b0795a8146100fc575b600080fd5b6100bb6100b63660046110ff565b61014b565b005b6100c56101e8565b6040516100d291906111b2565b60405180910390f35b6100ee6100e93660046111c5565b610276565b6040519081526020016100d2565b6100c56103a6565b6100c56103b3565b6100bb6103c0565b6000546040516001600160a01b0390911681526020016100d2565b6100ee60025481565b6100bb610146366004611254565b610483565b336001600160a01b037f000000000000000000000000000000000000000000000000000000000000000016146101ad576040517fc6829f8300000000000000000000000000000000000000000000000000000000815260040160405180910390fd5b6101b8838383610497565b60405183907f85e1543bf2f84fe80c6badbce3648c8539ad1df4d2b3d822938ca0538be727e690600090a2505050565b600380546101f59061127d565b80601f01602080910402602001604051908101604052809291908181526020018280546102219061127d565b801561026e5780601f106102435761010080835404028352916020019161026e565b820191906000526020600020905b81548152906001019060200180831161025157829003601f168201915b505050505081565b6000610280610540565b6102c16040805160e0810190915280600081526020016000815260200160008152602001606081526020016060815260200160608152602001606081525090565b61035e600680546102d19061127d565b80601f01602080910402602001604051908101604052809291908181526020018280546102fd9061127d565b801561034a5780601f1061031f5761010080835404028352916020019161034a565b820191906000526020600020905b81548152906001019060200180831161032d57829003601f168201915b50505050508261059c90919063ffffffff16565b82156103785761037861037184866112b7565b82906105ad565b610398610384826105f0565b600754600854889163ffffffff169061096f565b600281905595945050505050565b600480546101f59061127d565b600980546101f59061127d565b6001546001600160a01b0316331461041f5760405162461bcd60e51b815260206004820152601660248201527f4d7573742062652070726f706f736564206f776e65720000000000000000000060448201526064015b60405180910390fd5b600080543373ffffffffffffffffffffffffffffffffffffffff19808316821784556001805490911690556040516001600160a01b0390921692909183917f8be0079c531659141344cd1fd0a4f28419497f9722a3daafe3b4186f6b6457e091a350565b61048b610540565b61049481610a41565b50565b82600254146104d5576040517fd068bf5b00000000000000000000000000000000000000000000000000000000815260048101849052602401610416565b60036104e1838261139d565b5060096104ee838261139d565b5060046104fb828261139d565b50827f160ed0aaffbef6885155188b91459cb5a97d5daadccf7561d8c46deea6641b50600960036004604051610533939291906114da565b60405180910390a2505050565b6000546001600160a01b0316331461059a5760405162461bcd60e51b815260206004820152601660248201527f4f6e6c792063616c6c61626c65206279206f776e6572000000000000000000006044820152606401610416565b565b6105a98260008084610af7565b5050565b80516000036105e8576040517ffe936cb700000000000000000000000000000000000000000000000000000000815260040160405180910390fd5b60a090910152565b606060006105ff610100610b8e565b90506106496040518060400160405280600c81526020017f636f64654c6f636174696f6e000000000000000000000000000000000000000081525082610baf90919063ffffffff16565b82516106679060028111156106605761066061151d565b8290610bcd565b60408051808201909152600881527f6c616e677561676500000000000000000000000000000000000000000000000060208201526106a6908290610baf565b60408301516106bd9080156106605761066061151d565b60408051808201909152600681527f736f75726365000000000000000000000000000000000000000000000000000060208201526106fc908290610baf565b606083015161070c908290610baf565b60a083015151156107b95760408051808201909152600481527f61726773000000000000000000000000000000000000000000000000000000006020820152610756908290610baf565b61075f81610c06565b60005b8360a00151518110156107af5761079f8460a00151828151811061078857610788611533565b602002602001015183610baf90919063ffffffff16565b6107a88161155f565b9050610762565b506107b981610c2a565b608083015151156108ba576000836020015160028111156107dc576107dc61151d565b03610813576040517fa80d31f700000000000000000000000000000000000000000000000000000000815260040160405180910390fd5b60408051808201909152600f81527f736563726574734c6f636174696f6e00000000000000000000000000000000006020820152610852908290610baf565b61086b836020015160028111156106605761066061151d565b60408051808201909152600781527f736563726574730000000000000000000000000000000000000000000000000060208201526108aa908290610baf565b60808301516108ba908290610c48565b60c083015151156109675760408051808201909152600981527f62797465734172677300000000000000000000000000000000000000000000006020820152610904908290610baf565b61090d81610c06565b60005b8360c001515181101561095d5761094d8460c00151828151811061093657610936611533565b602002602001015183610c4890919063ffffffff16565b6109568161155f565b9050610910565b5061096781610c2a565b515192915050565b6000807f00000000000000000000000000000000000000000000000000000000000000006001600160a01b031663461d27628688600188886040518663ffffffff1660e01b81526004016109c7959493929190611578565b6020604051808303816000875af11580156109e6573d6000803e3d6000fd5b505050506040513d601f19601f82011682018060405250810190610a0a91906115c2565b60405190915081907f1131472297a800fee664d1d89cfa8f7676ff07189ecc53f80bbb5f4969099db890600090a295945050505050565b336001600160a01b03821603610a995760405162461bcd60e51b815260206004820152601760248201527f43616e6e6f74207472616e7366657220746f2073656c660000000000000000006044820152606401610416565b6001805473ffffffffffffffffffffffffffffffffffffffff19166001600160a01b0383811691821790925560008054604051929316917fed8889f560326eb138920d842192f0eb3dd22b4f139c87a2c57538e05bae12789190a350565b8051600003610b32576040517f22ce3edd00000000000000000000000000000000000000000000000000000000815260040160405180910390fd5b83836002811115610b4557610b4561151d565b90816002811115610b5857610b5861151d565b90525060408401828015610b6e57610b6e61151d565b90818015610b7e57610b7e61151d565b9052506060909301929092525050565b610b9661100b565b8051610ba29083610c55565b5060006020820152919050565b610bbc8260038351610ccf565b8151610bc89082610df6565b505050565b8151610bda9060c2610e1e565b506105a98282604051602001610bf291815260200190565b604051602081830303815290604052610c48565b610c11816004610e87565b600181602001818151610c2491906115db565b90525050565b610c35816007610e87565b600181602001818151610c2491906115ee565b610bbc8260028351610ccf565b604080518082019091526060815260006020820152610c75602083611601565b15610c9d57610c85602083611601565b610c909060206115ee565b610c9a90836115db565b91505b602080840183905260405180855260008152908184010181811015610cc157600080fd5b604052508290505b92915050565b60178167ffffffffffffffff1611610cfc578251610cf69060e0600585901b168317610e1e565b50505050565b60ff8167ffffffffffffffff1611610d3e578251610d25906018611fe0600586901b1617610e1e565b508251610cf69067ffffffffffffffff83166001610e9e565b61ffff8167ffffffffffffffff1611610d81578251610d68906019611fe0600586901b1617610e1e565b508251610cf69067ffffffffffffffff83166002610e9e565b63ffffffff8167ffffffffffffffff1611610dc6578251610dad90601a611fe0600586901b1617610e1e565b508251610cf69067ffffffffffffffff83166004610e9e565b8251610ddd90601b611fe0600586901b1617610e1e565b508251610cf69067ffffffffffffffff83166008610e9e565b604080518082019091526060815260006020820152610e1783838451610f23565b9392505050565b6040805180820190915260608152600060208201528251516000610e438260016115db565b905084602001518210610e6457610e6485610e5f836002611623565b610ff4565b8451602083820101858153508051821115610e7d578181525b5093949350505050565b8151610bc890601f611fe0600585901b1617610e1e565b6040805180820190915260608152600060208201528351516000610ec282856115db565b90508560200151811115610edf57610edf86610e5f836002611623565b60006001610eef8661010061171e565b610ef991906115ee565b90508651828101878319825116178152508051831115610f17578281525b50959695505050505050565b6040805180820190915260608152600060208201528251821115610f4657600080fd5b8351516000610f5584836115db565b90508560200151811115610f7257610f7286610e5f836002611623565b855180518382016020019160009180851115610f8c578482525b505050602086015b60208610610fcc5780518252610fab6020836115db565b9150610fb86020826115db565b9050610fc56020876115ee565b9550610f94565b51815160001960208890036101000a0190811690199190911617905250849150509392505050565b81516110008383610c55565b50610cf68382610df6565b6040518060400160405280611033604051806040016040528060608152602001600081525090565b8152602001600081525090565b634e487b7160e01b600052604160045260246000fd5b604051601f8201601f1916810167ffffffffffffffff8111828210171561107f5761107f611040565b604052919050565b600067ffffffffffffffff8311156110a1576110a1611040565b6110b4601f8401601f1916602001611056565b90508281528383830111156110c857600080fd5b828260208301376000602084830101529392505050565b600082601f8301126110f057600080fd5b610e1783833560208501611087565b60008060006060848603121561111457600080fd5b83359250602084013567ffffffffffffffff8082111561113357600080fd5b61113f878388016110df565b9350604086013591508082111561115557600080fd5b50611162868287016110df565b9150509250925092565b6000815180845260005b8181101561119257602081850181015186830182015201611176565b506000602082860101526020601f19601f83011685010191505092915050565b602081526000610e17602083018461116c565b6000806000604084860312156111da57600080fd5b833567ffffffffffffffff80821682146111f357600080fd5b9093506020850135908082111561120957600080fd5b818601915086601f83011261121d57600080fd5b81358181111561122c57600080fd5b8760208260051b850101111561124157600080fd5b6020830194508093505050509250925092565b60006020828403121561126657600080fd5b81356001600160a01b0381168114610e1757600080fd5b600181811c9082168061129157607f821691505b6020821081036112b157634e487b7160e01b600052602260045260246000fd5b50919050565b600067ffffffffffffffff808411156112d2576112d2611040565b8360051b60206112e3818301611056565b8681529185019181810190368411156112fb57600080fd5b865b84811015611343578035868111156113155760008081fd5b880136601f8201126113275760008081fd5b611335368235878401611087565b8452509183019183016112fd565b50979650505050505050565b601f821115610bc857600081815260208120601f850160051c810160208610156113765750805b601f850160051c820191505b8181101561139557828155600101611382565b505050505050565b815167ffffffffffffffff8111156113b7576113b7611040565b6113cb816113c5845461127d565b8461134f565b602080601f83116001811461140057600084156113e85750858301515b600019600386901b1c1916600185901b178555611395565b600085815260208120601f198616915b8281101561142f57888601518255948401946001909101908401611410565b508582101561144d5787850151600019600388901b60f8161c191681555b5050505050600190811b01905550565b6000815461146a8161127d565b80855260206001838116801561148757600181146114a1576114cf565b60ff1985168884015283151560051b8801830195506114cf565b866000528260002060005b858110156114c75781548a82018601529083019084016114ac565b890184019650505b505050505092915050565b6060815260006114ed606083018661145d565b82810360208401526114ff818661145d565b90508281036040840152611513818561145d565b9695505050505050565b634e487b7160e01b600052602160045260246000fd5b634e487b7160e01b600052603260045260246000fd5b634e487b7160e01b600052601160045260246000fd5b60006001820161157157611571611549565b5060010190565b67ffffffffffffffff8616815260a06020820152600061159b60a083018761116c565b61ffff9590951660408301525063ffffffff92909216606083015260809091015292915050565b6000602082840312156115d457600080fd5b5051919050565b80820180821115610cc957610cc9611549565b81810381811115610cc957610cc9611549565b60008261161e57634e487b7160e01b600052601260045260246000fd5b500690565b8082028115828204841417610cc957610cc9611549565b600181815b8085111561167557816000190482111561165b5761165b611549565b8085161561166857918102915b93841c939080029061163f565b509250929050565b60008261168c57506001610cc9565b8161169957506000610cc9565b81600181146116af57600281146116b9576116d5565b6001915050610cc9565b60ff8411156116ca576116ca611549565b50506001821b610cc9565b5060208310610133831016604e8410600b84101617156116f8575081810a610cc9565b611702838361163a565b806000190482111561171657611716611549565b029392505050565b6000610e17838361167d56fea2646970667358221220596a6fc3ed8bb4d83890e72ee1f89d0319f6aa0ae9aa8bc49b03ab5a6015e3ae64736f6c63430008130033636f6e7374206368617261637465724964203d20617267735b305d3b636f6e737420617069526573706f6e7365203d2061776169742046756e6374696f6e732e6d616b654874747052657175657374287b75726c3a206068747470733a2f2f73776170692e696e666f2f6170692f70656f706c652f247b63686172616374657249647d2f607d293b69662028617069526573706f6e73652e6572726f7229207b7468726f77204572726f72282752657175657374206661696c656427293b7d636f6e7374207b2064617461207d203d20617069526573706f6e73653b72657475726e2046756e6374696f6e732e656e636f6465537472696e6728646174612e6e616d65293b",
					"opcodes": "PUSH1 0x5 DUP1 SLOAD PUSH1 0x1 PUSH1 0x1 PUSH1 0xA0 SHL SUB NOT AND PUSH20 0x6E2DC0F9DB014AE19888F539E59285D2EA04244C OR SWAP1 SSTORE PUSH2 0x1E0 PUSH1 0x40 MSTORE PUSH2 0x105 PUSH1 0xA0 DUP2 DUP2 MSTORE SWAP1 PUSH3 0x1AD0 PUSH1 0xC0 CODECOPY PUSH1 0x6 SWAP1 PUSH3 0x4A SWAP1 DUP3 PUSH3 0x281 JUMP JUMPDEST POP PUSH1 0x7 DUP1 SLOAD PUSH4 0xFFFFFFFF NOT AND PUSH3 0x493E0 OR SWAP1 SSTORE PUSH32 0x66756E2D706F6C79676F6E2D6D756D6261692D31000000000000000000000000 PUSH1 0x8 SSTORE CALLVALUE DUP1 ISZERO PUSH3 0x8E JUMPI PUSH1 0x0 DUP1 REVERT JUMPDEST POP PUSH1 0x5 SLOAD PUSH1 0x1 PUSH1 0x1 PUSH1 0xA0 SHL SUB AND PUSH1 0x80 MSTORE CALLER DUP1 PUSH1 0x0 DUP2 PUSH3 0xF5 JUMPI PUSH1 0x40 MLOAD PUSH3 0x461BCD PUSH1 0xE5 SHL DUP2 MSTORE PUSH1 0x20 PUSH1 0x4 DUP3 ADD MSTORE PUSH1 0x18 PUSH1 0x24 DUP3 ADD MSTORE PUSH32 0x43616E6E6F7420736574206F776E657220746F207A65726F0000000000000000 PUSH1 0x44 DUP3 ADD MSTORE PUSH1 0x64 ADD JUMPDEST PUSH1 0x40 MLOAD DUP1 SWAP2 SUB SWAP1 REVERT JUMPDEST PUSH1 0x0 DUP1 SLOAD PUSH1 0x1 PUSH1 0x1 PUSH1 0xA0 SHL SUB NOT AND PUSH1 0x1 PUSH1 0x1 PUSH1 0xA0 SHL SUB DUP5 DUP2 AND SWAP2 SWAP1 SWAP2 OR SWAP1 SWAP2 SSTORE DUP2 AND ISZERO PUSH3 0x128 JUMPI PUSH3 0x128 DUP2 PUSH3 0x131 JUMP JUMPDEST POP POP POP PUSH3 0x34D JUMP JUMPDEST CALLER PUSH1 0x1 PUSH1 0x1 PUSH1 0xA0 SHL SUB DUP3 AND SUB PUSH3 0x18B JUMPI PUSH1 0x40 MLOAD PUSH3 0x461BCD PUSH1 0xE5 SHL DUP2 MSTORE PUSH1 0x20 PUSH1 0x4 DUP3 ADD MSTORE PUSH1 0x17 PUSH1 0x24 DUP3 ADD MSTORE PUSH32 0x43616E6E6F74207472616E7366657220746F2073656C66000000000000000000 PUSH1 0x44 DUP3 ADD MSTORE PUSH1 0x64 ADD PUSH3 0xEC JUMP JUMPDEST PUSH1 0x1 DUP1 SLOAD PUSH1 0x1 PUSH1 0x1 PUSH1 0xA0 SHL SUB NOT AND PUSH1 0x1 PUSH1 0x1 PUSH1 0xA0 SHL SUB DUP4 DUP2 AND SWAP2 DUP3 OR SWAP1 SWAP3 SSTORE PUSH1 0x0 DUP1 SLOAD PUSH1 0x40 MLOAD SWAP3 SWAP4 AND SWAP2 PUSH32 0xED8889F560326EB138920D842192F0EB3DD22B4F139C87A2C57538E05BAE1278 SWAP2 SWAP1 LOG3 POP JUMP JUMPDEST PUSH4 0x4E487B71 PUSH1 0xE0 SHL PUSH1 0x0 MSTORE PUSH1 0x41 PUSH1 0x4 MSTORE PUSH1 0x24 PUSH1 0x0 REVERT JUMPDEST PUSH1 0x1 DUP2 DUP2 SHR SWAP1 DUP3 AND DUP1 PUSH3 0x207 JUMPI PUSH1 0x7F DUP3 AND SWAP2 POP JUMPDEST PUSH1 0x20 DUP3 LT DUP2 SUB PUSH3 0x228 JUMPI PUSH4 0x4E487B71 PUSH1 0xE0 SHL PUSH1 0x0 MSTORE PUSH1 0x22 PUSH1 0x4 MSTORE PUSH1 0x24 PUSH1 0x0 REVERT JUMPDEST POP SWAP2 SWAP1 POP JUMP JUMPDEST PUSH1 0x1F DUP3 GT ISZERO PUSH3 0x27C JUMPI PUSH1 0x0 DUP2 DUP2 MSTORE PUSH1 0x20 DUP2 KECCAK256 PUSH1 0x1F DUP6 ADD PUSH1 0x5 SHR DUP2 ADD PUSH1 0x20 DUP7 LT ISZERO PUSH3 0x257 JUMPI POP DUP1 JUMPDEST PUSH1 0x1F DUP6 ADD PUSH1 0x5 SHR DUP3 ADD SWAP2 POP JUMPDEST DUP2 DUP2 LT ISZERO PUSH3 0x278 JUMPI DUP3 DUP2 SSTORE PUSH1 0x1 ADD PUSH3 0x263 JUMP JUMPDEST POP POP POP JUMPDEST POP POP POP JUMP JUMPDEST DUP2 MLOAD PUSH1 0x1 PUSH1 0x1 PUSH1 0x40 SHL SUB DUP2 GT ISZERO PUSH3 0x29D JUMPI PUSH3 0x29D PUSH3 0x1DC JUMP JUMPDEST PUSH3 0x2B5 DUP2 PUSH3 0x2AE DUP5 SLOAD PUSH3 0x1F2 JUMP JUMPDEST DUP5 PUSH3 0x22E JUMP JUMPDEST PUSH1 0x20 DUP1 PUSH1 0x1F DUP4 GT PUSH1 0x1 DUP2 EQ PUSH3 0x2ED JUMPI PUSH1 0x0 DUP5 ISZERO PUSH3 0x2D4 JUMPI POP DUP6 DUP4 ADD MLOAD JUMPDEST PUSH1 0x0 NOT PUSH1 0x3 DUP7 SWAP1 SHL SHR NOT AND PUSH1 0x1 DUP6 SWAP1 SHL OR DUP6 SSTORE PUSH3 0x278 JUMP JUMPDEST PUSH1 0x0 DUP6 DUP2 MSTORE PUSH1 0x20 DUP2 KECCAK256 PUSH1 0x1F NOT DUP7 AND SWAP2 JUMPDEST DUP3 DUP2 LT ISZERO PUSH3 0x31E JUMPI DUP9 DUP7 ADD MLOAD DUP3 SSTORE SWAP5 DUP5 ADD SWAP5 PUSH1 0x1 SWAP1 SWAP2 ADD SWAP1 DUP5 ADD PUSH3 0x2FD JUMP JUMPDEST POP DUP6 DUP3 LT ISZERO PUSH3 0x33D JUMPI DUP8 DUP6 ADD MLOAD PUSH1 0x0 NOT PUSH1 0x3 DUP9 SWAP1 SHL PUSH1 0xF8 AND SHR NOT AND DUP2 SSTORE JUMPDEST POP POP POP POP POP PUSH1 0x1 SWAP1 DUP2 SHL ADD SWAP1 SSTORE POP JUMP JUMPDEST PUSH1 0x80 MLOAD PUSH2 0x1760 PUSH3 0x370 PUSH1 0x0 CODECOPY PUSH1 0x0 DUP2 DUP2 PUSH2 0x156 ADD MSTORE PUSH2 0x974 ADD MSTORE PUSH2 0x1760 PUSH1 0x0 RETURN INVALID PUSH1 0x80 PUSH1 0x40 MSTORE CALLVALUE DUP1 ISZERO PUSH2 0x10 JUMPI PUSH1 0x0 DUP1 REVERT JUMPDEST POP PUSH1 0x4 CALLDATASIZE LT PUSH2 0xA3 JUMPI PUSH1 0x0 CALLDATALOAD PUSH1 0xE0 SHR DUP1 PUSH4 0x4D2E03A0 GT PUSH2 0x76 JUMPI DUP1 PUSH4 0x8DA5CB5B GT PUSH2 0x5B JUMPI DUP1 PUSH4 0x8DA5CB5B EQ PUSH2 0x114 JUMPI DUP1 PUSH4 0xB1E21749 EQ PUSH2 0x12F JUMPI DUP1 PUSH4 0xF2FDE38B EQ PUSH2 0x138 JUMPI PUSH1 0x0 DUP1 REVERT JUMPDEST DUP1 PUSH4 0x4D2E03A0 EQ PUSH2 0x104 JUMPI DUP1 PUSH4 0x79BA5097 EQ PUSH2 0x10C JUMPI PUSH1 0x0 DUP1 REVERT JUMPDEST DUP1 PUSH4 0xCA76175 EQ PUSH2 0xA8 JUMPI DUP1 PUSH4 0x3944EA3A EQ PUSH2 0xBD JUMPI DUP1 PUSH4 0x48A7D26D EQ PUSH2 0xDB JUMPI DUP1 PUSH4 0x4B0795A8 EQ PUSH2 0xFC JUMPI JUMPDEST PUSH1 0x0 DUP1 REVERT JUMPDEST PUSH2 0xBB PUSH2 0xB6 CALLDATASIZE PUSH1 0x4 PUSH2 0x10FF JUMP JUMPDEST PUSH2 0x14B JUMP JUMPDEST STOP JUMPDEST PUSH2 0xC5 PUSH2 0x1E8 JUMP JUMPDEST PUSH1 0x40 MLOAD PUSH2 0xD2 SWAP2 SWAP1 PUSH2 0x11B2 JUMP JUMPDEST PUSH1 0x40 MLOAD DUP1 SWAP2 SUB SWAP1 RETURN JUMPDEST PUSH2 0xEE PUSH2 0xE9 CALLDATASIZE PUSH1 0x4 PUSH2 0x11C5 JUMP JUMPDEST PUSH2 0x276 JUMP JUMPDEST PUSH1 0x40 MLOAD SWAP1 DUP2 MSTORE PUSH1 0x20 ADD PUSH2 0xD2 JUMP JUMPDEST PUSH2 0xC5 PUSH2 0x3A6 JUMP JUMPDEST PUSH2 0xC5 PUSH2 0x3B3 JUMP JUMPDEST PUSH2 0xBB PUSH2 0x3C0 JUMP JUMPDEST PUSH1 0x0 SLOAD PUSH1 0x40 MLOAD PUSH1 0x1 PUSH1 0x1 PUSH1 0xA0 SHL SUB SWAP1 SWAP2 AND DUP2 MSTORE PUSH1 0x20 ADD PUSH2 0xD2 JUMP JUMPDEST PUSH2 0xEE PUSH1 0x2 SLOAD DUP2 JUMP JUMPDEST PUSH2 0xBB PUSH2 0x146 CALLDATASIZE PUSH1 0x4 PUSH2 0x1254 JUMP JUMPDEST PUSH2 0x483 JUMP JUMPDEST CALLER PUSH1 0x1 PUSH1 0x1 PUSH1 0xA0 SHL SUB PUSH32 0x0 AND EQ PUSH2 0x1AD JUMPI PUSH1 0x40 MLOAD PUSH32 0xC6829F8300000000000000000000000000000000000000000000000000000000 DUP2 MSTORE PUSH1 0x4 ADD PUSH1 0x40 MLOAD DUP1 SWAP2 SUB SWAP1 REVERT JUMPDEST PUSH2 0x1B8 DUP4 DUP4 DUP4 PUSH2 0x497 JUMP JUMPDEST PUSH1 0x40 MLOAD DUP4 SWAP1 PUSH32 0x85E1543BF2F84FE80C6BADBCE3648C8539AD1DF4D2B3D822938CA0538BE727E6 SWAP1 PUSH1 0x0 SWAP1 LOG2 POP POP POP JUMP JUMPDEST PUSH1 0x3 DUP1 SLOAD PUSH2 0x1F5 SWAP1 PUSH2 0x127D JUMP JUMPDEST DUP1 PUSH1 0x1F ADD PUSH1 0x20 DUP1 SWAP2 DIV MUL PUSH1 0x20 ADD PUSH1 0x40 MLOAD SWAP1 DUP2 ADD PUSH1 0x40 MSTORE DUP1 SWAP3 SWAP2 SWAP1 DUP2 DUP2 MSTORE PUSH1 0x20 ADD DUP3 DUP1 SLOAD PUSH2 0x221 SWAP1 PUSH2 0x127D JUMP JUMPDEST DUP1 ISZERO PUSH2 0x26E JUMPI DUP1 PUSH1 0x1F LT PUSH2 0x243 JUMPI PUSH2 0x100 DUP1 DUP4 SLOAD DIV MUL DUP4 MSTORE SWAP2 PUSH1 0x20 ADD SWAP2 PUSH2 0x26E JUMP JUMPDEST DUP3 ADD SWAP2 SWAP1 PUSH1 0x0 MSTORE PUSH1 0x20 PUSH1 0x0 KECCAK256 SWAP1 JUMPDEST DUP2 SLOAD DUP2 MSTORE SWAP1 PUSH1 0x1 ADD SWAP1 PUSH1 0x20 ADD DUP1 DUP4 GT PUSH2 0x251 JUMPI DUP3 SWAP1 SUB PUSH1 0x1F AND DUP3 ADD SWAP2 JUMPDEST POP POP POP POP POP DUP2 JUMP JUMPDEST PUSH1 0x0 PUSH2 0x280 PUSH2 0x540 JUMP JUMPDEST PUSH2 0x2C1 PUSH1 0x40 DUP1 MLOAD PUSH1 0xE0 DUP2 ADD SWAP1 SWAP2 MSTORE DUP1 PUSH1 0x0 DUP2 MSTORE PUSH1 0x20 ADD PUSH1 0x0 DUP2 MSTORE PUSH1 0x20 ADD PUSH1 0x0 DUP2 MSTORE PUSH1 0x20 ADD PUSH1 0x60 DUP2 MSTORE PUSH1 0x20 ADD PUSH1 0x60 DUP2 MSTORE PUSH1 0x20 ADD PUSH1 0x60 DUP2 MSTORE PUSH1 0x20 ADD PUSH1 0x60 DUP2 MSTORE POP SWAP1 JUMP JUMPDEST PUSH2 0x35E PUSH1 0x6 DUP1 SLOAD PUSH2 0x2D1 SWAP1 PUSH2 0x127D JUMP JUMPDEST DUP1 PUSH1 0x1F ADD PUSH1 0x20 DUP1 SWAP2 DIV MUL PUSH1 0x20 ADD PUSH1 0x40 MLOAD SWAP1 DUP2 ADD PUSH1 0x40 MSTORE DUP1 SWAP3 SWAP2 SWAP1 DUP2 DUP2 MSTORE PUSH1 0x20 ADD DUP3 DUP1 SLOAD PUSH2 0x2FD SWAP1 PUSH2 0x127D JUMP JUMPDEST DUP1 ISZERO PUSH2 0x34A JUMPI DUP1 PUSH1 0x1F LT PUSH2 0x31F JUMPI PUSH2 0x100 DUP1 DUP4 SLOAD DIV MUL DUP4 MSTORE SWAP2 PUSH1 0x20 ADD SWAP2 PUSH2 0x34A JUMP JUMPDEST DUP3 ADD SWAP2 SWAP1 PUSH1 0x0 MSTORE PUSH1 0x20 PUSH1 0x0 KECCAK256 SWAP1 JUMPDEST DUP2 SLOAD DUP2 MSTORE SWAP1 PUSH1 0x1 ADD SWAP1 PUSH1 0x20 ADD DUP1 DUP4 GT PUSH2 0x32D JUMPI DUP3 SWAP1 SUB PUSH1 0x1F AND DUP3 ADD SWAP2 JUMPDEST POP POP POP POP POP DUP3 PUSH2 0x59C SWAP1 SWAP2 SWAP1 PUSH4 0xFFFFFFFF AND JUMP JUMPDEST DUP3 ISZERO PUSH2 0x378 JUMPI PUSH2 0x378 PUSH2 0x371 DUP5 DUP7 PUSH2 0x12B7 JUMP JUMPDEST DUP3 SWAP1 PUSH2 0x5AD JUMP JUMPDEST PUSH2 0x398 PUSH2 0x384 DUP3 PUSH2 0x5F0 JUMP JUMPDEST PUSH1 0x7 SLOAD PUSH1 0x8 SLOAD DUP9 SWAP2 PUSH4 0xFFFFFFFF AND SWAP1 PUSH2 0x96F JUMP JUMPDEST PUSH1 0x2 DUP2 SWAP1 SSTORE SWAP6 SWAP5 POP POP POP POP POP JUMP JUMPDEST PUSH1 0x4 DUP1 SLOAD PUSH2 0x1F5 SWAP1 PUSH2 0x127D JUMP JUMPDEST PUSH1 0x9 DUP1 SLOAD PUSH2 0x1F5 SWAP1 PUSH2 0x127D JUMP JUMPDEST PUSH1 0x1 SLOAD PUSH1 0x1 PUSH1 0x1 PUSH1 0xA0 SHL SUB AND CALLER EQ PUSH2 0x41F JUMPI PUSH1 0x40 MLOAD PUSH3 0x461BCD PUSH1 0xE5 SHL DUP2 MSTORE PUSH1 0x20 PUSH1 0x4 DUP3 ADD MSTORE PUSH1 0x16 PUSH1 0x24 DUP3 ADD MSTORE PUSH32 0x4D7573742062652070726F706F736564206F776E657200000000000000000000 PUSH1 0x44 DUP3 ADD MSTORE PUSH1 0x64 ADD JUMPDEST PUSH1 0x40 MLOAD DUP1 SWAP2 SUB SWAP1 REVERT JUMPDEST PUSH1 0x0 DUP1 SLOAD CALLER PUSH20 0xFFFFFFFFFFFFFFFFFFFFFFFFFFFFFFFFFFFFFFFF NOT DUP1 DUP4 AND DUP3 OR DUP5 SSTORE PUSH1 0x1 DUP1 SLOAD SWAP1 SWAP2 AND SWAP1 SSTORE PUSH1 0x40 MLOAD PUSH1 0x1 PUSH1 0x1 PUSH1 0xA0 SHL SUB SWAP1 SWAP3 AND SWAP3 SWAP1 SWAP2 DUP4 SWAP2 PUSH32 0x8BE0079C531659141344CD1FD0A4F28419497F9722A3DAAFE3B4186F6B6457E0 SWAP2 LOG3 POP JUMP JUMPDEST PUSH2 0x48B PUSH2 0x540 JUMP JUMPDEST PUSH2 0x494 DUP2 PUSH2 0xA41 JUMP JUMPDEST POP JUMP JUMPDEST DUP3 PUSH1 0x2 SLOAD EQ PUSH2 0x4D5 JUMPI PUSH1 0x40 MLOAD PUSH32 0xD068BF5B00000000000000000000000000000000000000000000000000000000 DUP2 MSTORE PUSH1 0x4 DUP2 ADD DUP5 SWAP1 MSTORE PUSH1 0x24 ADD PUSH2 0x416 JUMP JUMPDEST PUSH1 0x3 PUSH2 0x4E1 DUP4 DUP3 PUSH2 0x139D JUMP JUMPDEST POP PUSH1 0x9 PUSH2 0x4EE DUP4 DUP3 PUSH2 0x139D JUMP JUMPDEST POP PUSH1 0x4 PUSH2 0x4FB DUP3 DUP3 PUSH2 0x139D JUMP JUMPDEST POP DUP3 PUSH32 0x160ED0AAFFBEF6885155188B91459CB5A97D5DAADCCF7561D8C46DEEA6641B50 PUSH1 0x9 PUSH1 0x3 PUSH1 0x4 PUSH1 0x40 MLOAD PUSH2 0x533 SWAP4 SWAP3 SWAP2 SWAP1 PUSH2 0x14DA JUMP JUMPDEST PUSH1 0x40 MLOAD DUP1 SWAP2 SUB SWAP1 LOG2 POP POP POP JUMP JUMPDEST PUSH1 0x0 SLOAD PUSH1 0x1 PUSH1 0x1 PUSH1 0xA0 SHL SUB AND CALLER EQ PUSH2 0x59A JUMPI PUSH1 0x40 MLOAD PUSH3 0x461BCD PUSH1 0xE5 SHL DUP2 MSTORE PUSH1 0x20 PUSH1 0x4 DUP3 ADD MSTORE PUSH1 0x16 PUSH1 0x24 DUP3 ADD MSTORE PUSH32 0x4F6E6C792063616C6C61626C65206279206F776E657200000000000000000000 PUSH1 0x44 DUP3 ADD MSTORE PUSH1 0x64 ADD PUSH2 0x416 JUMP JUMPDEST JUMP JUMPDEST PUSH2 0x5A9 DUP3 PUSH1 0x0 DUP1 DUP5 PUSH2 0xAF7 JUMP JUMPDEST POP POP JUMP JUMPDEST DUP1 MLOAD PUSH1 0x0 SUB PUSH2 0x5E8 JUMPI PUSH1 0x40 MLOAD PUSH32 0xFE936CB700000000000000000000000000000000000000000000000000000000 DUP2 MSTORE PUSH1 0x4 ADD PUSH1 0x40 MLOAD DUP1 SWAP2 SUB SWAP1 REVERT JUMPDEST PUSH1 0xA0 SWAP1 SWAP2 ADD MSTORE JUMP JUMPDEST PUSH1 0x60 PUSH1 0x0 PUSH2 0x5FF PUSH2 0x100 PUSH2 0xB8E JUMP JUMPDEST SWAP1 POP PUSH2 0x649 PUSH1 0x40 MLOAD DUP1 PUSH1 0x40 ADD PUSH1 0x40 MSTORE DUP1 PUSH1 0xC DUP2 MSTORE PUSH1 0x20 ADD PUSH32 0x636F64654C6F636174696F6E0000000000000000000000000000000000000000 DUP2 MSTORE POP DUP3 PUSH2 0xBAF SWAP1 SWAP2 SWAP1 PUSH4 0xFFFFFFFF AND JUMP JUMPDEST DUP3 MLOAD PUSH2 0x667 SWAP1 PUSH1 0x2 DUP2 GT ISZERO PUSH2 0x660 JUMPI PUSH2 0x660 PUSH2 0x151D JUMP JUMPDEST DUP3 SWAP1 PUSH2 0xBCD JUMP JUMPDEST PUSH1 0x40 DUP1 MLOAD DUP1 DUP3 ADD SWAP1 SWAP2 MSTORE PUSH1 0x8 DUP2 MSTORE PUSH32 0x6C616E6775616765000000000000000000000000000000000000000000000000 PUSH1 0x20 DUP3 ADD MSTORE PUSH2 0x6A6 SWAP1 DUP3 SWAP1 PUSH2 0xBAF JUMP JUMPDEST PUSH1 0x40 DUP4 ADD MLOAD PUSH2 0x6BD SWAP1 DUP1 ISZERO PUSH2 0x660 JUMPI PUSH2 0x660 PUSH2 0x151D JUMP JUMPDEST PUSH1 0x40 DUP1 MLOAD DUP1 DUP3 ADD SWAP1 SWAP2 MSTORE PUSH1 0x6 DUP2 MSTORE PUSH32 0x736F757263650000000000000000000000000000000000000000000000000000 PUSH1 0x20 DUP3 ADD MSTORE PUSH2 0x6FC SWAP1 DUP3 SWAP1 PUSH2 0xBAF JUMP JUMPDEST PUSH1 0x60 DUP4 ADD MLOAD PUSH2 0x70C SWAP1 DUP3 SWAP1 PUSH2 0xBAF JUMP JUMPDEST PUSH1 0xA0 DUP4 ADD MLOAD MLOAD ISZERO PUSH2 0x7B9 JUMPI PUSH1 0x40 DUP1 MLOAD DUP1 DUP3 ADD SWAP1 SWAP2 MSTORE PUSH1 0x4 DUP2 MSTORE PUSH32 0x6172677300000000000000000000000000000000000000000000000000000000 PUSH1 0x20 DUP3 ADD MSTORE PUSH2 0x756 SWAP1 DUP3 SWAP1 PUSH2 0xBAF JUMP JUMPDEST PUSH2 0x75F DUP2 PUSH2 0xC06 JUMP JUMPDEST PUSH1 0x0 JUMPDEST DUP4 PUSH1 0xA0 ADD MLOAD MLOAD DUP2 LT ISZERO PUSH2 0x7AF JUMPI PUSH2 0x79F DUP5 PUSH1 0xA0 ADD MLOAD DUP3 DUP2 MLOAD DUP2 LT PUSH2 0x788 JUMPI PUSH2 0x788 PUSH2 0x1533 JUMP JUMPDEST PUSH1 0x20 MUL PUSH1 0x20 ADD ADD MLOAD DUP4 PUSH2 0xBAF SWAP1 SWAP2 SWAP1 PUSH4 0xFFFFFFFF AND JUMP JUMPDEST PUSH2 0x7A8 DUP2 PUSH2 0x155F JUMP JUMPDEST SWAP1 POP PUSH2 0x762 JUMP JUMPDEST POP PUSH2 0x7B9 DUP2 PUSH2 0xC2A JUMP JUMPDEST PUSH1 0x80 DUP4 ADD MLOAD MLOAD ISZERO PUSH2 0x8BA JUMPI PUSH1 0x0 DUP4 PUSH1 0x20 ADD MLOAD PUSH1 0x2 DUP2 GT ISZERO PUSH2 0x7DC JUMPI PUSH2 0x7DC PUSH2 0x151D JUMP JUMPDEST SUB PUSH2 0x813 JUMPI PUSH1 0x40 MLOAD PUSH32 0xA80D31F700000000000000000000000000000000000000000000000000000000 DUP2 MSTORE PUSH1 0x4 ADD PUSH1 0x40 MLOAD DUP1 SWAP2 SUB SWAP1 REVERT JUMPDEST PUSH1 0x40 DUP1 MLOAD DUP1 DUP3 ADD SWAP1 SWAP2 MSTORE PUSH1 0xF DUP2 MSTORE PUSH32 0x736563726574734C6F636174696F6E0000000000000000000000000000000000 PUSH1 0x20 DUP3 ADD MSTORE PUSH2 0x852 SWAP1 DUP3 SWAP1 PUSH2 0xBAF JUMP JUMPDEST PUSH2 0x86B DUP4 PUSH1 0x20 ADD MLOAD PUSH1 0x2 DUP2 GT ISZERO PUSH2 0x660 JUMPI PUSH2 0x660 PUSH2 0x151D JUMP JUMPDEST PUSH1 0x40 DUP1 MLOAD DUP1 DUP3 ADD SWAP1 SWAP2 MSTORE PUSH1 0x7 DUP2 MSTORE PUSH32 0x7365637265747300000000000000000000000000000000000000000000000000 PUSH1 0x20 DUP3 ADD MSTORE PUSH2 0x8AA SWAP1 DUP3 SWAP1 PUSH2 0xBAF JUMP JUMPDEST PUSH1 0x80 DUP4 ADD MLOAD PUSH2 0x8BA SWAP1 DUP3 SWAP1 PUSH2 0xC48 JUMP JUMPDEST PUSH1 0xC0 DUP4 ADD MLOAD MLOAD ISZERO PUSH2 0x967 JUMPI PUSH1 0x40 DUP1 MLOAD DUP1 DUP3 ADD SWAP1 SWAP2 MSTORE PUSH1 0x9 DUP2 MSTORE PUSH32 0x6279746573417267730000000000000000000000000000000000000000000000 PUSH1 0x20 DUP3 ADD MSTORE PUSH2 0x904 SWAP1 DUP3 SWAP1 PUSH2 0xBAF JUMP JUMPDEST PUSH2 0x90D DUP2 PUSH2 0xC06 JUMP JUMPDEST PUSH1 0x0 JUMPDEST DUP4 PUSH1 0xC0 ADD MLOAD MLOAD DUP2 LT ISZERO PUSH2 0x95D JUMPI PUSH2 0x94D DUP5 PUSH1 0xC0 ADD MLOAD DUP3 DUP2 MLOAD DUP2 LT PUSH2 0x936 JUMPI PUSH2 0x936 PUSH2 0x1533 JUMP JUMPDEST PUSH1 0x20 MUL PUSH1 0x20 ADD ADD MLOAD DUP4 PUSH2 0xC48 SWAP1 SWAP2 SWAP1 PUSH4 0xFFFFFFFF AND JUMP JUMPDEST PUSH2 0x956 DUP2 PUSH2 0x155F JUMP JUMPDEST SWAP1 POP PUSH2 0x910 JUMP JUMPDEST POP PUSH2 0x967 DUP2 PUSH2 0xC2A JUMP JUMPDEST MLOAD MLOAD SWAP3 SWAP2 POP POP JUMP JUMPDEST PUSH1 0x0 DUP1 PUSH32 0x0 PUSH1 0x1 PUSH1 0x1 PUSH1 0xA0 SHL SUB AND PUSH4 0x461D2762 DUP7 DUP9 PUSH1 0x1 DUP9 DUP9 PUSH1 0x40 MLOAD DUP7 PUSH4 0xFFFFFFFF AND PUSH1 0xE0 SHL DUP2 MSTORE PUSH1 0x4 ADD PUSH2 0x9C7 SWAP6 SWAP5 SWAP4 SWAP3 SWAP2 SWAP1 PUSH2 0x1578 JUMP JUMPDEST PUSH1 0x20 PUSH1 0x40 MLOAD DUP1 DUP4 SUB DUP2 PUSH1 0x0 DUP8 GAS CALL ISZERO DUP1 ISZERO PUSH2 0x9E6 JUMPI RETURNDATASIZE PUSH1 0x0 DUP1 RETURNDATACOPY RETURNDATASIZE PUSH1 0x0 REVERT JUMPDEST POP POP POP POP PUSH1 0x40 MLOAD RETURNDATASIZE PUSH1 0x1F NOT PUSH1 0x1F DUP3 ADD AND DUP3 ADD DUP1 PUSH1 0x40 MSTORE POP DUP2 ADD SWAP1 PUSH2 0xA0A SWAP2 SWAP1 PUSH2 0x15C2 JUMP JUMPDEST PUSH1 0x40 MLOAD SWAP1 SWAP2 POP DUP2 SWAP1 PUSH32 0x1131472297A800FEE664D1D89CFA8F7676FF07189ECC53F80BBB5F4969099DB8 SWAP1 PUSH1 0x0 SWAP1 LOG2 SWAP6 SWAP5 POP POP POP POP POP JUMP JUMPDEST CALLER PUSH1 0x1 PUSH1 0x1 PUSH1 0xA0 SHL SUB DUP3 AND SUB PUSH2 0xA99 JUMPI PUSH1 0x40 MLOAD PUSH3 0x461BCD PUSH1 0xE5 SHL DUP2 MSTORE PUSH1 0x20 PUSH1 0x4 DUP3 ADD MSTORE PUSH1 0x17 PUSH1 0x24 DUP3 ADD MSTORE PUSH32 0x43616E6E6F74207472616E7366657220746F2073656C66000000000000000000 PUSH1 0x44 DUP3 ADD MSTORE PUSH1 0x64 ADD PUSH2 0x416 JUMP JUMPDEST PUSH1 0x1 DUP1 SLOAD PUSH20 0xFFFFFFFFFFFFFFFFFFFFFFFFFFFFFFFFFFFFFFFF NOT AND PUSH1 0x1 PUSH1 0x1 PUSH1 0xA0 SHL SUB DUP4 DUP2 AND SWAP2 DUP3 OR SWAP1 SWAP3 SSTORE PUSH1 0x0 DUP1 SLOAD PUSH1 0x40 MLOAD SWAP3 SWAP4 AND SWAP2 PUSH32 0xED8889F560326EB138920D842192F0EB3DD22B4F139C87A2C57538E05BAE1278 SWAP2 SWAP1 LOG3 POP JUMP JUMPDEST DUP1 MLOAD PUSH1 0x0 SUB PUSH2 0xB32 JUMPI PUSH1 0x40 MLOAD PUSH32 0x22CE3EDD00000000000000000000000000000000000000000000000000000000 DUP2 MSTORE PUSH1 0x4 ADD PUSH1 0x40 MLOAD DUP1 SWAP2 SUB SWAP1 REVERT JUMPDEST DUP4 DUP4 PUSH1 0x2 DUP2 GT ISZERO PUSH2 0xB45 JUMPI PUSH2 0xB45 PUSH2 0x151D JUMP JUMPDEST SWAP1 DUP2 PUSH1 0x2 DUP2 GT ISZERO PUSH2 0xB58 JUMPI PUSH2 0xB58 PUSH2 0x151D JUMP JUMPDEST SWAP1 MSTORE POP PUSH1 0x40 DUP5 ADD DUP3 DUP1 ISZERO PUSH2 0xB6E JUMPI PUSH2 0xB6E PUSH2 0x151D JUMP JUMPDEST SWAP1 DUP2 DUP1 ISZERO PUSH2 0xB7E JUMPI PUSH2 0xB7E PUSH2 0x151D JUMP JUMPDEST SWAP1 MSTORE POP PUSH1 0x60 SWAP1 SWAP4 ADD SWAP3 SWAP1 SWAP3 MSTORE POP POP JUMP JUMPDEST PUSH2 0xB96 PUSH2 0x100B JUMP JUMPDEST DUP1 MLOAD PUSH2 0xBA2 SWAP1 DUP4 PUSH2 0xC55 JUMP JUMPDEST POP PUSH1 0x0 PUSH1 0x20 DUP3 ADD MSTORE SWAP2 SWAP1 POP JUMP JUMPDEST PUSH2 0xBBC DUP3 PUSH1 0x3 DUP4 MLOAD PUSH2 0xCCF JUMP JUMPDEST DUP2 MLOAD PUSH2 0xBC8 SWAP1 DUP3 PUSH2 0xDF6 JUMP JUMPDEST POP POP POP JUMP JUMPDEST DUP2 MLOAD PUSH2 0xBDA SWAP1 PUSH1 0xC2 PUSH2 0xE1E JUMP JUMPDEST POP PUSH2 0x5A9 DUP3 DUP3 PUSH1 0x40 MLOAD PUSH1 0x20 ADD PUSH2 0xBF2 SWAP2 DUP2 MSTORE PUSH1 0x20 ADD SWAP1 JUMP JUMPDEST PUSH1 0x40 MLOAD PUSH1 0x20 DUP2 DUP4 SUB SUB DUP2 MSTORE SWAP1 PUSH1 0x40 MSTORE PUSH2 0xC48 JUMP JUMPDEST PUSH2 0xC11 DUP2 PUSH1 0x4 PUSH2 0xE87 JUMP JUMPDEST PUSH1 0x1 DUP2 PUSH1 0x20 ADD DUP2 DUP2 MLOAD PUSH2 0xC24 SWAP2 SWAP1 PUSH2 0x15DB JUMP JUMPDEST SWAP1 MSTORE POP POP JUMP JUMPDEST PUSH2 0xC35 DUP2 PUSH1 0x7 PUSH2 0xE87 JUMP JUMPDEST PUSH1 0x1 DUP2 PUSH1 0x20 ADD DUP2 DUP2 MLOAD PUSH2 0xC24 SWAP2 SWAP1 PUSH2 0x15EE JUMP JUMPDEST PUSH2 0xBBC DUP3 PUSH1 0x2 DUP4 MLOAD PUSH2 0xCCF JUMP JUMPDEST PUSH1 0x40 DUP1 MLOAD DUP1 DUP3 ADD SWAP1 SWAP2 MSTORE PUSH1 0x60 DUP2 MSTORE PUSH1 0x0 PUSH1 0x20 DUP3 ADD MSTORE PUSH2 0xC75 PUSH1 0x20 DUP4 PUSH2 0x1601 JUMP JUMPDEST ISZERO PUSH2 0xC9D JUMPI PUSH2 0xC85 PUSH1 0x20 DUP4 PUSH2 0x1601 JUMP JUMPDEST PUSH2 0xC90 SWAP1 PUSH1 0x20 PUSH2 0x15EE JUMP JUMPDEST PUSH2 0xC9A SWAP1 DUP4 PUSH2 0x15DB JUMP JUMPDEST SWAP2 POP JUMPDEST PUSH1 0x20 DUP1 DUP5 ADD DUP4 SWAP1 MSTORE PUSH1 0x40 MLOAD DUP1 DUP6 MSTORE PUSH1 0x0 DUP2 MSTORE SWAP1 DUP2 DUP5 ADD ADD DUP2 DUP2 LT ISZERO PUSH2 0xCC1 JUMPI PUSH1 0x0 DUP1 REVERT JUMPDEST PUSH1 0x40 MSTORE POP DUP3 SWAP1 POP JUMPDEST SWAP3 SWAP2 POP POP JUMP JUMPDEST PUSH1 0x17 DUP2 PUSH8 0xFFFFFFFFFFFFFFFF AND GT PUSH2 0xCFC JUMPI DUP3 MLOAD PUSH2 0xCF6 SWAP1 PUSH1 0xE0 PUSH1 0x5 DUP6 SWAP1 SHL AND DUP4 OR PUSH2 0xE1E JUMP JUMPDEST POP POP POP POP JUMP JUMPDEST PUSH1 0xFF DUP2 PUSH8 0xFFFFFFFFFFFFFFFF AND GT PUSH2 0xD3E JUMPI DUP3 MLOAD PUSH2 0xD25 SWAP1 PUSH1 0x18 PUSH2 0x1FE0 PUSH1 0x5 DUP7 SWAP1 SHL AND OR PUSH2 0xE1E JUMP JUMPDEST POP DUP3 MLOAD PUSH2 0xCF6 SWAP1 PUSH8 0xFFFFFFFFFFFFFFFF DUP4 AND PUSH1 0x1 PUSH2 0xE9E JUMP JUMPDEST PUSH2 0xFFFF DUP2 PUSH8 0xFFFFFFFFFFFFFFFF AND GT PUSH2 0xD81 JUMPI DUP3 MLOAD PUSH2 0xD68 SWAP1 PUSH1 0x19 PUSH2 0x1FE0 PUSH1 0x5 DUP7 SWAP1 SHL AND OR PUSH2 0xE1E JUMP JUMPDEST POP DUP3 MLOAD PUSH2 0xCF6 SWAP1 PUSH8 0xFFFFFFFFFFFFFFFF DUP4 AND PUSH1 0x2 PUSH2 0xE9E JUMP JUMPDEST PUSH4 0xFFFFFFFF DUP2 PUSH8 0xFFFFFFFFFFFFFFFF AND GT PUSH2 0xDC6 JUMPI DUP3 MLOAD PUSH2 0xDAD SWAP1 PUSH1 0x1A PUSH2 0x1FE0 PUSH1 0x5 DUP7 SWAP1 SHL AND OR PUSH2 0xE1E JUMP JUMPDEST POP DUP3 MLOAD PUSH2 0xCF6 SWAP1 PUSH8 0xFFFFFFFFFFFFFFFF DUP4 AND PUSH1 0x4 PUSH2 0xE9E JUMP JUMPDEST DUP3 MLOAD PUSH2 0xDDD SWAP1 PUSH1 0x1B PUSH2 0x1FE0 PUSH1 0x5 DUP7 SWAP1 SHL AND OR PUSH2 0xE1E JUMP JUMPDEST POP DUP3 MLOAD PUSH2 0xCF6 SWAP1 PUSH8 0xFFFFFFFFFFFFFFFF DUP4 AND PUSH1 0x8 PUSH2 0xE9E JUMP JUMPDEST PUSH1 0x40 DUP1 MLOAD DUP1 DUP3 ADD SWAP1 SWAP2 MSTORE PUSH1 0x60 DUP2 MSTORE PUSH1 0x0 PUSH1 0x20 DUP3 ADD MSTORE PUSH2 0xE17 DUP4 DUP4 DUP5 MLOAD PUSH2 0xF23 JUMP JUMPDEST SWAP4 SWAP3 POP POP POP JUMP JUMPDEST PUSH1 0x40 DUP1 MLOAD DUP1 DUP3 ADD SWAP1 SWAP2 MSTORE PUSH1 0x60 DUP2 MSTORE PUSH1 0x0 PUSH1 0x20 DUP3 ADD MSTORE DUP3 MLOAD MLOAD PUSH1 0x0 PUSH2 0xE43 DUP3 PUSH1 0x1 PUSH2 0x15DB JUMP JUMPDEST SWAP1 POP DUP5 PUSH1 0x20 ADD MLOAD DUP3 LT PUSH2 0xE64 JUMPI PUSH2 0xE64 DUP6 PUSH2 0xE5F DUP4 PUSH1 0x2 PUSH2 0x1623 JUMP JUMPDEST PUSH2 0xFF4 JUMP JUMPDEST DUP5 MLOAD PUSH1 0x20 DUP4 DUP3 ADD ADD DUP6 DUP2 MSTORE8 POP DUP1 MLOAD DUP3 GT ISZERO PUSH2 0xE7D JUMPI DUP2 DUP2 MSTORE JUMPDEST POP SWAP4 SWAP5 SWAP4 POP POP POP POP JUMP JUMPDEST DUP2 MLOAD PUSH2 0xBC8 SWAP1 PUSH1 0x1F PUSH2 0x1FE0 PUSH1 0x5 DUP6 SWAP1 SHL AND OR PUSH2 0xE1E JUMP JUMPDEST PUSH1 0x40 DUP1 MLOAD DUP1 DUP3 ADD SWAP1 SWAP2 MSTORE PUSH1 0x60 DUP2 MSTORE PUSH1 0x0 PUSH1 0x20 DUP3 ADD MSTORE DUP4 MLOAD MLOAD PUSH1 0x0 PUSH2 0xEC2 DUP3 DUP6 PUSH2 0x15DB JUMP JUMPDEST SWAP1 POP DUP6 PUSH1 0x20 ADD MLOAD DUP2 GT ISZERO PUSH2 0xEDF JUMPI PUSH2 0xEDF DUP7 PUSH2 0xE5F DUP4 PUSH1 0x2 PUSH2 0x1623 JUMP JUMPDEST PUSH1 0x0 PUSH1 0x1 PUSH2 0xEEF DUP7 PUSH2 0x100 PUSH2 0x171E JUMP JUMPDEST PUSH2 0xEF9 SWAP2 SWAP1 PUSH2 0x15EE JUMP JUMPDEST SWAP1 POP DUP7 MLOAD DUP3 DUP2 ADD DUP8 DUP4 NOT DUP3 MLOAD AND OR DUP2 MSTORE POP DUP1 MLOAD DUP4 GT ISZERO PUSH2 0xF17 JUMPI DUP3 DUP2 MSTORE JUMPDEST POP SWAP6 SWAP7 SWAP6 POP POP POP POP POP POP JUMP JUMPDEST PUSH1 0x40 DUP1 MLOAD DUP1 DUP3 ADD SWAP1 SWAP2 MSTORE PUSH1 0x60 DUP2 MSTORE PUSH1 0x0 PUSH1 0x20 DUP3 ADD MSTORE DUP3 MLOAD DUP3 GT ISZERO PUSH2 0xF46 JUMPI PUSH1 0x0 DUP1 REVERT JUMPDEST DUP4 MLOAD MLOAD PUSH1 0x0 PUSH2 0xF55 DUP5 DUP4 PUSH2 0x15DB JUMP JUMPDEST SWAP1 POP DUP6 PUSH1 0x20 ADD MLOAD DUP2 GT ISZERO PUSH2 0xF72 JUMPI PUSH2 0xF72 DUP7 PUSH2 0xE5F DUP4 PUSH1 0x2 PUSH2 0x1623 JUMP JUMPDEST DUP6 MLOAD DUP1 MLOAD DUP4 DUP3 ADD PUSH1 0x20 ADD SWAP2 PUSH1 0x0 SWAP2 DUP1 DUP6 GT ISZERO PUSH2 0xF8C JUMPI DUP5 DUP3 MSTORE JUMPDEST POP POP POP PUSH1 0x20 DUP7 ADD JUMPDEST PUSH1 0x20 DUP7 LT PUSH2 0xFCC JUMPI DUP1 MLOAD DUP3 MSTORE PUSH2 0xFAB PUSH1 0x20 DUP4 PUSH2 0x15DB JUMP JUMPDEST SWAP2 POP PUSH2 0xFB8 PUSH1 0x20 DUP3 PUSH2 0x15DB JUMP JUMPDEST SWAP1 POP PUSH2 0xFC5 PUSH1 0x20 DUP8 PUSH2 0x15EE JUMP JUMPDEST SWAP6 POP PUSH2 0xF94 JUMP JUMPDEST MLOAD DUP2 MLOAD PUSH1 0x0 NOT PUSH1 0x20 DUP9 SWAP1 SUB PUSH2 0x100 EXP ADD SWAP1 DUP2 AND SWAP1 NOT SWAP2 SWAP1 SWAP2 AND OR SWAP1 MSTORE POP DUP5 SWAP2 POP POP SWAP4 SWAP3 POP POP POP JUMP JUMPDEST DUP2 MLOAD PUSH2 0x1000 DUP4 DUP4 PUSH2 0xC55 JUMP JUMPDEST POP PUSH2 0xCF6 DUP4 DUP3 PUSH2 0xDF6 JUMP JUMPDEST PUSH1 0x40 MLOAD DUP1 PUSH1 0x40 ADD PUSH1 0x40 MSTORE DUP1 PUSH2 0x1033 PUSH1 0x40 MLOAD DUP1 PUSH1 0x40 ADD PUSH1 0x40 MSTORE DUP1 PUSH1 0x60 DUP2 MSTORE PUSH1 0x20 ADD PUSH1 0x0 DUP2 MSTORE POP SWAP1 JUMP JUMPDEST DUP2 MSTORE PUSH1 0x20 ADD PUSH1 0x0 DUP2 MSTORE POP SWAP1 JUMP JUMPDEST PUSH4 0x4E487B71 PUSH1 0xE0 SHL PUSH1 0x0 MSTORE PUSH1 0x41 PUSH1 0x4 MSTORE PUSH1 0x24 PUSH1 0x0 REVERT JUMPDEST PUSH1 0x40 MLOAD PUSH1 0x1F DUP3 ADD PUSH1 0x1F NOT AND DUP2 ADD PUSH8 0xFFFFFFFFFFFFFFFF DUP2 GT DUP3 DUP3 LT OR ISZERO PUSH2 0x107F JUMPI PUSH2 0x107F PUSH2 0x1040 JUMP JUMPDEST PUSH1 0x40 MSTORE SWAP2 SWAP1 POP JUMP JUMPDEST PUSH1 0x0 PUSH8 0xFFFFFFFFFFFFFFFF DUP4 GT ISZERO PUSH2 0x10A1 JUMPI PUSH2 0x10A1 PUSH2 0x1040 JUMP JUMPDEST PUSH2 0x10B4 PUSH1 0x1F DUP5 ADD PUSH1 0x1F NOT AND PUSH1 0x20 ADD PUSH2 0x1056 JUMP JUMPDEST SWAP1 POP DUP3 DUP2 MSTORE DUP4 DUP4 DUP4 ADD GT ISZERO PUSH2 0x10C8 JUMPI PUSH1 0x0 DUP1 REVERT JUMPDEST DUP3 DUP3 PUSH1 0x20 DUP4 ADD CALLDATACOPY PUSH1 0x0 PUSH1 0x20 DUP5 DUP4 ADD ADD MSTORE SWAP4 SWAP3 POP POP POP JUMP JUMPDEST PUSH1 0x0 DUP3 PUSH1 0x1F DUP4 ADD SLT PUSH2 0x10F0 JUMPI PUSH1 0x0 DUP1 REVERT JUMPDEST PUSH2 0xE17 DUP4 DUP4 CALLDATALOAD PUSH1 0x20 DUP6 ADD PUSH2 0x1087 JUMP JUMPDEST PUSH1 0x0 DUP1 PUSH1 0x0 PUSH1 0x60 DUP5 DUP7 SUB SLT ISZERO PUSH2 0x1114 JUMPI PUSH1 0x0 DUP1 REVERT JUMPDEST DUP4 CALLDATALOAD SWAP3 POP PUSH1 0x20 DUP5 ADD CALLDATALOAD PUSH8 0xFFFFFFFFFFFFFFFF DUP1 DUP3 GT ISZERO PUSH2 0x1133 JUMPI PUSH1 0x0 DUP1 REVERT JUMPDEST PUSH2 0x113F DUP8 DUP4 DUP9 ADD PUSH2 0x10DF JUMP JUMPDEST SWAP4 POP PUSH1 0x40 DUP7 ADD CALLDATALOAD SWAP2 POP DUP1 DUP3 GT ISZERO PUSH2 0x1155 JUMPI PUSH1 0x0 DUP1 REVERT JUMPDEST POP PUSH2 0x1162 DUP7 DUP3 DUP8 ADD PUSH2 0x10DF JUMP JUMPDEST SWAP2 POP POP SWAP3 POP SWAP3 POP SWAP3 JUMP JUMPDEST PUSH1 0x0 DUP2 MLOAD DUP1 DUP5 MSTORE PUSH1 0x0 JUMPDEST DUP2 DUP2 LT ISZERO PUSH2 0x1192 JUMPI PUSH1 0x20 DUP2 DUP6 ADD DUP2 ADD MLOAD DUP7 DUP4 ADD DUP3 ADD MSTORE ADD PUSH2 0x1176 JUMP JUMPDEST POP PUSH1 0x0 PUSH1 0x20 DUP3 DUP7 ADD ADD MSTORE PUSH1 0x20 PUSH1 0x1F NOT PUSH1 0x1F DUP4 ADD AND DUP6 ADD ADD SWAP2 POP POP SWAP3 SWAP2 POP POP JUMP JUMPDEST PUSH1 0x20 DUP2 MSTORE PUSH1 0x0 PUSH2 0xE17 PUSH1 0x20 DUP4 ADD DUP5 PUSH2 0x116C JUMP JUMPDEST PUSH1 0x0 DUP1 PUSH1 0x0 PUSH1 0x40 DUP5 DUP7 SUB SLT ISZERO PUSH2 0x11DA JUMPI PUSH1 0x0 DUP1 REVERT JUMPDEST DUP4 CALLDATALOAD PUSH8 0xFFFFFFFFFFFFFFFF DUP1 DUP3 AND DUP3 EQ PUSH2 0x11F3 JUMPI PUSH1 0x0 DUP1 REVERT JUMPDEST SWAP1 SWAP4 POP PUSH1 0x20 DUP6 ADD CALLDATALOAD SWAP1 DUP1 DUP3 GT ISZERO PUSH2 0x1209 JUMPI PUSH1 0x0 DUP1 REVERT JUMPDEST DUP2 DUP7 ADD SWAP2 POP DUP7 PUSH1 0x1F DUP4 ADD SLT PUSH2 0x121D JUMPI PUSH1 0x0 DUP1 REVERT JUMPDEST DUP2 CALLDATALOAD DUP2 DUP2 GT ISZERO PUSH2 0x122C JUMPI PUSH1 0x0 DUP1 REVERT JUMPDEST DUP8 PUSH1 0x20 DUP3 PUSH1 0x5 SHL DUP6 ADD ADD GT ISZERO PUSH2 0x1241 JUMPI PUSH1 0x0 DUP1 REVERT JUMPDEST PUSH1 0x20 DUP4 ADD SWAP5 POP DUP1 SWAP4 POP POP POP POP SWAP3 POP SWAP3 POP SWAP3 JUMP JUMPDEST PUSH1 0x0 PUSH1 0x20 DUP3 DUP5 SUB SLT ISZERO PUSH2 0x1266 JUMPI PUSH1 0x0 DUP1 REVERT JUMPDEST DUP2 CALLDATALOAD PUSH1 0x1 PUSH1 0x1 PUSH1 0xA0 SHL SUB DUP2 AND DUP2 EQ PUSH2 0xE17 JUMPI PUSH1 0x0 DUP1 REVERT JUMPDEST PUSH1 0x1 DUP2 DUP2 SHR SWAP1 DUP3 AND DUP1 PUSH2 0x1291 JUMPI PUSH1 0x7F DUP3 AND SWAP2 POP JUMPDEST PUSH1 0x20 DUP3 LT DUP2 SUB PUSH2 0x12B1 JUMPI PUSH4 0x4E487B71 PUSH1 0xE0 SHL PUSH1 0x0 MSTORE PUSH1 0x22 PUSH1 0x4 MSTORE PUSH1 0x24 PUSH1 0x0 REVERT JUMPDEST POP SWAP2 SWAP1 POP JUMP JUMPDEST PUSH1 0x0 PUSH8 0xFFFFFFFFFFFFFFFF DUP1 DUP5 GT ISZERO PUSH2 0x12D2 JUMPI PUSH2 0x12D2 PUSH2 0x1040 JUMP JUMPDEST DUP4 PUSH1 0x5 SHL PUSH1 0x20 PUSH2 0x12E3 DUP2 DUP4 ADD PUSH2 0x1056 JUMP JUMPDEST DUP7 DUP2 MSTORE SWAP2 DUP6 ADD SWAP2 DUP2 DUP2 ADD SWAP1 CALLDATASIZE DUP5 GT ISZERO PUSH2 0x12FB JUMPI PUSH1 0x0 DUP1 REVERT JUMPDEST DUP7 JUMPDEST DUP5 DUP2 LT ISZERO PUSH2 0x1343 JUMPI DUP1 CALLDATALOAD DUP7 DUP2 GT ISZERO PUSH2 0x1315 JUMPI PUSH1 0x0 DUP1 DUP2 REVERT JUMPDEST DUP9 ADD CALLDATASIZE PUSH1 0x1F DUP3 ADD SLT PUSH2 0x1327 JUMPI PUSH1 0x0 DUP1 DUP2 REVERT JUMPDEST PUSH2 0x1335 CALLDATASIZE DUP3 CALLDATALOAD DUP8 DUP5 ADD PUSH2 0x1087 JUMP JUMPDEST DUP5 MSTORE POP SWAP2 DUP4 ADD SWAP2 DUP4 ADD PUSH2 0x12FD JUMP JUMPDEST POP SWAP8 SWAP7 POP POP POP POP POP POP POP JUMP JUMPDEST PUSH1 0x1F DUP3 GT ISZERO PUSH2 0xBC8 JUMPI PUSH1 0x0 DUP2 DUP2 MSTORE PUSH1 0x20 DUP2 KECCAK256 PUSH1 0x1F DUP6 ADD PUSH1 0x5 SHR DUP2 ADD PUSH1 0x20 DUP7 LT ISZERO PUSH2 0x1376 JUMPI POP DUP1 JUMPDEST PUSH1 0x1F DUP6 ADD PUSH1 0x5 SHR DUP3 ADD SWAP2 POP JUMPDEST DUP2 DUP2 LT ISZERO PUSH2 0x1395 JUMPI DUP3 DUP2 SSTORE PUSH1 0x1 ADD PUSH2 0x1382 JUMP JUMPDEST POP POP POP POP POP POP JUMP JUMPDEST DUP2 MLOAD PUSH8 0xFFFFFFFFFFFFFFFF DUP2 GT ISZERO PUSH2 0x13B7 JUMPI PUSH2 0x13B7 PUSH2 0x1040 JUMP JUMPDEST PUSH2 0x13CB DUP2 PUSH2 0x13C5 DUP5 SLOAD PUSH2 0x127D JUMP JUMPDEST DUP5 PUSH2 0x134F JUMP JUMPDEST PUSH1 0x20 DUP1 PUSH1 0x1F DUP4 GT PUSH1 0x1 DUP2 EQ PUSH2 0x1400 JUMPI PUSH1 0x0 DUP5 ISZERO PUSH2 0x13E8 JUMPI POP DUP6 DUP4 ADD MLOAD JUMPDEST PUSH1 0x0 NOT PUSH1 0x3 DUP7 SWAP1 SHL SHR NOT AND PUSH1 0x1 DUP6 SWAP1 SHL OR DUP6 SSTORE PUSH2 0x1395 JUMP JUMPDEST PUSH1 0x0 DUP6 DUP2 MSTORE PUSH1 0x20 DUP2 KECCAK256 PUSH1 0x1F NOT DUP7 AND SWAP2 JUMPDEST DUP3 DUP2 LT ISZERO PUSH2 0x142F JUMPI DUP9 DUP7 ADD MLOAD DUP3 SSTORE SWAP5 DUP5 ADD SWAP5 PUSH1 0x1 SWAP1 SWAP2 ADD SWAP1 DUP5 ADD PUSH2 0x1410 JUMP JUMPDEST POP DUP6 DUP3 LT ISZERO PUSH2 0x144D JUMPI DUP8 DUP6 ADD MLOAD PUSH1 0x0 NOT PUSH1 0x3 DUP9 SWAP1 SHL PUSH1 0xF8 AND SHR NOT AND DUP2 SSTORE JUMPDEST POP POP POP POP POP PUSH1 0x1 SWAP1 DUP2 SHL ADD SWAP1 SSTORE POP JUMP JUMPDEST PUSH1 0x0 DUP2 SLOAD PUSH2 0x146A DUP2 PUSH2 0x127D JUMP JUMPDEST DUP1 DUP6 MSTORE PUSH1 0x20 PUSH1 0x1 DUP4 DUP2 AND DUP1 ISZERO PUSH2 0x1487 JUMPI PUSH1 0x1 DUP2 EQ PUSH2 0x14A1 JUMPI PUSH2 0x14CF JUMP JUMPDEST PUSH1 0xFF NOT DUP6 AND DUP9 DUP5 ADD MSTORE DUP4 ISZERO ISZERO PUSH1 0x5 SHL DUP9 ADD DUP4 ADD SWAP6 POP PUSH2 0x14CF JUMP JUMPDEST DUP7 PUSH1 0x0 MSTORE DUP3 PUSH1 0x0 KECCAK256 PUSH1 0x0 JUMPDEST DUP6 DUP2 LT ISZERO PUSH2 0x14C7 JUMPI DUP2 SLOAD DUP11 DUP3 ADD DUP7 ADD MSTORE SWAP1 DUP4 ADD SWAP1 DUP5 ADD PUSH2 0x14AC JUMP JUMPDEST DUP10 ADD DUP5 ADD SWAP7 POP POP JUMPDEST POP POP POP POP POP SWAP3 SWAP2 POP POP JUMP JUMPDEST PUSH1 0x60 DUP2 MSTORE PUSH1 0x0 PUSH2 0x14ED PUSH1 0x60 DUP4 ADD DUP7 PUSH2 0x145D JUMP JUMPDEST DUP3 DUP2 SUB PUSH1 0x20 DUP5 ADD MSTORE PUSH2 0x14FF DUP2 DUP7 PUSH2 0x145D JUMP JUMPDEST SWAP1 POP DUP3 DUP2 SUB PUSH1 0x40 DUP5 ADD MSTORE PUSH2 0x1513 DUP2 DUP6 PUSH2 0x145D JUMP JUMPDEST SWAP7 SWAP6 POP POP POP POP POP POP JUMP JUMPDEST PUSH4 0x4E487B71 PUSH1 0xE0 SHL PUSH1 0x0 MSTORE PUSH1 0x21 PUSH1 0x4 MSTORE PUSH1 0x24 PUSH1 0x0 REVERT JUMPDEST PUSH4 0x4E487B71 PUSH1 0xE0 SHL PUSH1 0x0 MSTORE PUSH1 0x32 PUSH1 0x4 MSTORE PUSH1 0x24 PUSH1 0x0 REVERT JUMPDEST PUSH4 0x4E487B71 PUSH1 0xE0 SHL PUSH1 0x0 MSTORE PUSH1 0x11 PUSH1 0x4 MSTORE PUSH1 0x24 PUSH1 0x0 REVERT JUMPDEST PUSH1 0x0 PUSH1 0x1 DUP3 ADD PUSH2 0x1571 JUMPI PUSH2 0x1571 PUSH2 0x1549 JUMP JUMPDEST POP PUSH1 0x1 ADD SWAP1 JUMP JUMPDEST PUSH8 0xFFFFFFFFFFFFFFFF DUP7 AND DUP2 MSTORE PUSH1 0xA0 PUSH1 0x20 DUP3 ADD MSTORE PUSH1 0x0 PUSH2 0x159B PUSH1 0xA0 DUP4 ADD DUP8 PUSH2 0x116C JUMP JUMPDEST PUSH2 0xFFFF SWAP6 SWAP1 SWAP6 AND PUSH1 0x40 DUP4 ADD MSTORE POP PUSH4 0xFFFFFFFF SWAP3 SWAP1 SWAP3 AND PUSH1 0x60 DUP4 ADD MSTORE PUSH1 0x80 SWAP1 SWAP2 ADD MSTORE SWAP3 SWAP2 POP POP JUMP JUMPDEST PUSH1 0x0 PUSH1 0x20 DUP3 DUP5 SUB SLT ISZERO PUSH2 0x15D4 JUMPI PUSH1 0x0 DUP1 REVERT JUMPDEST POP MLOAD SWAP2 SWAP1 POP JUMP JUMPDEST DUP1 DUP3 ADD DUP1 DUP3 GT ISZERO PUSH2 0xCC9 JUMPI PUSH2 0xCC9 PUSH2 0x1549 JUMP JUMPDEST DUP2 DUP2 SUB DUP2 DUP2 GT ISZERO PUSH2 0xCC9 JUMPI PUSH2 0xCC9 PUSH2 0x1549 JUMP JUMPDEST PUSH1 0x0 DUP3 PUSH2 0x161E JUMPI PUSH4 0x4E487B71 PUSH1 0xE0 SHL PUSH1 0x0 MSTORE PUSH1 0x12 PUSH1 0x4 MSTORE PUSH1 0x24 PUSH1 0x0 REVERT JUMPDEST POP MOD SWAP1 JUMP JUMPDEST DUP1 DUP3 MUL DUP2 ISZERO DUP3 DUP3 DIV DUP5 EQ OR PUSH2 0xCC9 JUMPI PUSH2 0xCC9 PUSH2 0x1549 JUMP JUMPDEST PUSH1 0x1 DUP2 DUP2 JUMPDEST DUP1 DUP6 GT ISZERO PUSH2 0x1675 JUMPI DUP2 PUSH1 0x0 NOT DIV DUP3 GT ISZERO PUSH2 0x165B JUMPI PUSH2 0x165B PUSH2 0x1549 JUMP JUMPDEST DUP1 DUP6 AND ISZERO PUSH2 0x1668 JUMPI SWAP2 DUP2 MUL SWAP2 JUMPDEST SWAP4 DUP5 SHR SWAP4 SWAP1 DUP1 MUL SWAP1 PUSH2 0x163F JUMP JUMPDEST POP SWAP3 POP SWAP3 SWAP1 POP JUMP JUMPDEST PUSH1 0x0 DUP3 PUSH2 0x168C JUMPI POP PUSH1 0x1 PUSH2 0xCC9 JUMP JUMPDEST DUP2 PUSH2 0x1699 JUMPI POP PUSH1 0x0 PUSH2 0xCC9 JUMP JUMPDEST DUP2 PUSH1 0x1 DUP2 EQ PUSH2 0x16AF JUMPI PUSH1 0x2 DUP2 EQ PUSH2 0x16B9 JUMPI PUSH2 0x16D5 JUMP JUMPDEST PUSH1 0x1 SWAP2 POP POP PUSH2 0xCC9 JUMP JUMPDEST PUSH1 0xFF DUP5 GT ISZERO PUSH2 0x16CA JUMPI PUSH2 0x16CA PUSH2 0x1549 JUMP JUMPDEST POP POP PUSH1 0x1 DUP3 SHL PUSH2 0xCC9 JUMP JUMPDEST POP PUSH1 0x20 DUP4 LT PUSH2 0x133 DUP4 LT AND PUSH1 0x4E DUP5 LT PUSH1 0xB DUP5 LT AND OR ISZERO PUSH2 0x16F8 JUMPI POP DUP2 DUP2 EXP PUSH2 0xCC9 JUMP JUMPDEST PUSH2 0x1702 DUP4 DUP4 PUSH2 0x163A JUMP JUMPDEST DUP1 PUSH1 0x0 NOT DIV DUP3 GT ISZERO PUSH2 0x1716 JUMPI PUSH2 0x1716 PUSH2 0x1549 JUMP JUMPDEST MUL SWAP4 SWAP3 POP POP POP JUMP JUMPDEST PUSH1 0x0 PUSH2 0xE17 DUP4 DUP4 PUSH2 0x167D JUMP INVALID LOG2 PUSH5 0x6970667358 0x22 SLT KECCAK256 MSIZE PUSH11 0x6FC3ED8BB4D83890E72EE1 0xF8 SWAP14 SUB NOT 0xF6 0xAA EXP 0xE9 0xAA DUP12 0xC4 SWAP12 SUB 0xAB GAS PUSH1 0x15 0xE3 0xAE PUSH5 0x736F6C6343 STOP ADDMOD SGT STOP CALLER PUSH4 0x6F6E7374 KECCAK256 PUSH4 0x68617261 PUSH4 0x74657249 PUSH5 0x203D206172 PUSH8 0x735B305D3B636F6E PUSH20 0x7420617069526573706F6E7365203D2061776169 PUSH21 0x2046756E6374696F6E732E6D616B65487474705265 PUSH18 0x75657374287B75726C3A206068747470733A 0x2F 0x2F PUSH20 0x776170692E696E666F2F6170692F70656F706C65 0x2F 0x24 PUSH28 0x63686172616374657249647D2F607D293B6966202861706952657370 PUSH16 0x6E73652E6572726F7229207B7468726F PUSH24 0x204572726F72282752657175657374206661696C65642729 EXTCODESIZE PUSH30 0x636F6E7374207B2064617461207D203D20617069526573706F6E73653B72 PUSH6 0x7475726E2046 PUSH22 0x6E6374696F6E732E656E636F6465537472696E672864 PUSH2 0x7461 0x2E PUSH15 0x616D65293B00000000000000000000 "
				},
				"gasEstimates": {
					"creation": {
						"codeDepositCost": "1196800",
						"executionCost": "infinite",
						"totalCost": "infinite"
					},
					"external": {
						"acceptOwnership()": "52332",
						"character()": "infinite",
						"handleOracleFulfillment(bytes32,bytes,bytes)": "infinite",
						"owner()": "2323",
						"s_lastError()": "infinite",
						"s_lastRequestId()": "2339",
						"s_lastResponse()": "infinite",
						"sendRequest(uint64,string[])": "infinite",
						"transferOwnership(address)": "30455"
					},
					"internal": {
						"fulfillRequest(bytes32,bytes memory,bytes memory)": "infinite"
					}
				},
				"methodIdentifiers": {
					"acceptOwnership()": "79ba5097",
					"character()": "4d2e03a0",
					"handleOracleFulfillment(bytes32,bytes,bytes)": "0ca76175",
					"owner()": "8da5cb5b",
					"s_lastError()": "4b0795a8",
					"s_lastRequestId()": "b1e21749",
					"s_lastResponse()": "3944ea3a",
					"sendRequest(uint64,string[])": "48a7d26d",
					"transferOwnership(address)": "f2fde38b"
				}
			},
			"storageLayout": {
				"storage": [
					{
						"astId": 991,
						"contract": "FunctionsChainlink/GettingStartedConsumer.sol:GettingStartedFunctionsConsumer",
						"label": "s_owner",
						"offset": 0,
						"slot": "0",
						"type": "t_address"
					},
					{
						"astId": 993,
						"contract": "FunctionsChainlink/GettingStartedConsumer.sol:GettingStartedFunctionsConsumer",
						"label": "s_pendingOwner",
						"offset": 0,
						"slot": "1",
						"type": "t_address"
					},
					{
						"astId": 2460,
						"contract": "FunctionsChainlink/GettingStartedConsumer.sol:GettingStartedFunctionsConsumer",
						"label": "s_lastRequestId",
						"offset": 0,
						"slot": "2",
						"type": "t_bytes32"
					},
					{
						"astId": 2462,
						"contract": "FunctionsChainlink/GettingStartedConsumer.sol:GettingStartedFunctionsConsumer",
						"label": "s_lastResponse",
						"offset": 0,
						"slot": "3",
						"type": "t_bytes_storage"
					},
					{
						"astId": 2464,
						"contract": "FunctionsChainlink/GettingStartedConsumer.sol:GettingStartedFunctionsConsumer",
						"label": "s_lastError",
						"offset": 0,
						"slot": "4",
						"type": "t_bytes_storage"
					},
					{
						"astId": 2481,
						"contract": "FunctionsChainlink/GettingStartedConsumer.sol:GettingStartedFunctionsConsumer",
						"label": "router",
						"offset": 0,
						"slot": "5",
						"type": "t_address"
					},
					{
						"astId": 2484,
						"contract": "FunctionsChainlink/GettingStartedConsumer.sol:GettingStartedFunctionsConsumer",
						"label": "source",
						"offset": 0,
						"slot": "6",
						"type": "t_string_storage"
					},
					{
						"astId": 2487,
						"contract": "FunctionsChainlink/GettingStartedConsumer.sol:GettingStartedFunctionsConsumer",
						"label": "gasLimit",
						"offset": 0,
						"slot": "7",
						"type": "t_uint32"
					},
					{
						"astId": 2490,
						"contract": "FunctionsChainlink/GettingStartedConsumer.sol:GettingStartedFunctionsConsumer",
						"label": "donID",
						"offset": 0,
						"slot": "8",
						"type": "t_bytes32"
					},
					{
						"astId": 2492,
						"contract": "FunctionsChainlink/GettingStartedConsumer.sol:GettingStartedFunctionsConsumer",
						"label": "character",
						"offset": 0,
						"slot": "9",
						"type": "t_string_storage"
					}
				],
				"types": {
					"t_address": {
						"encoding": "inplace",
						"label": "address",
						"numberOfBytes": "20"
					},
					"t_bytes32": {
						"encoding": "inplace",
						"label": "bytes32",
						"numberOfBytes": "32"
					},
					"t_bytes_storage": {
						"encoding": "bytes",
						"label": "bytes",
						"numberOfBytes": "32"
					},
					"t_string_storage": {
						"encoding": "bytes",
						"label": "string",
						"numberOfBytes": "32"
					},
					"t_uint32": {
						"encoding": "inplace",
						"label": "uint32",
						"numberOfBytes": "4"
					}
				}
			},
			"userdoc": {
				"kind": "user",
				"methods": {
					"acceptOwnership()": {
						"notice": "Allows an ownership transfer to be completed by the recipient."
					},
					"constructor": {
						"notice": "Initializes the contract with the Chainlink router address and sets the contract owner"
					},
					"handleOracleFulfillment(bytes32,bytes,bytes)": {
						"notice": "Chainlink Functions response handler called by the Functions Router during fullilment from the designated transmitter node in an OCR round."
					},
					"owner()": {
						"notice": "Get the current owner"
					},
					"sendRequest(uint64,string[])": {
						"notice": "Sends an HTTP request for character information"
					},
					"transferOwnership(address)": {
						"notice": "Allows an owner to begin transferring ownership to a new address, pending."
					}
				},
				"notice": "This is an example contract to show how to make HTTP requests using Chainlink",
				"version": 1
			}
		}
	}
}