{
	"AutomationChainlink/CustomLogic.sol": {
		"AutoCtr1": {
			"abi": [
				{
					"inputs": [],
					"stateMutability": "nonpayable",
					"type": "constructor"
				},
				{
					"anonymous": false,
					"inputs": [
						{
							"indexed": true,
							"internalType": "address",
							"name": "addr",
							"type": "address"
						},
						{
							"indexed": true,
							"internalType": "bytes",
							"name": "checkD",
							"type": "bytes"
						},
						{
							"indexed": false,
							"internalType": "uint256",
							"name": "timestamp",
							"type": "uint256"
						},
						{
							"indexed": false,
							"internalType": "uint256",
							"name": "blocknbr",
							"type": "uint256"
						},
						{
							"indexed": false,
							"internalType": "uint256",
							"name": "curcount",
							"type": "uint256"
						}
					],
					"name": "Logger",
					"type": "event"
				},
				{
					"inputs": [
						{
							"internalType": "bytes",
							"name": "checkData",
							"type": "bytes"
						}
					],
					"name": "checkUpkeep",
					"outputs": [
						{
							"internalType": "bool",
							"name": "upkeepNeeded",
							"type": "bool"
						},
						{
							"internalType": "bytes",
							"name": "performData",
							"type": "bytes"
						}
					],
					"stateMutability": "view",
					"type": "function"
				},
				{
					"inputs": [],
					"name": "interval",
					"outputs": [
						{
							"internalType": "uint256",
							"name": "",
							"type": "uint256"
						}
					],
					"stateMutability": "view",
					"type": "function"
				},
				{
					"inputs": [],
					"name": "maxCounter",
					"outputs": [
						{
							"internalType": "uint256",
							"name": "",
							"type": "uint256"
						}
					],
					"stateMutability": "view",
					"type": "function"
				},
				{
					"inputs": [
						{
							"internalType": "bytes",
							"name": "performData",
							"type": "bytes"
						}
					],
					"name": "performUpkeep",
					"outputs": [],
					"stateMutability": "nonpayable",
					"type": "function"
				},
				{
					"inputs": [
						{
							"internalType": "bytes",
							"name": "",
							"type": "bytes"
						}
					],
					"name": "s_targets",
					"outputs": [
						{
							"internalType": "uint256",
							"name": "lastTimeStamp",
							"type": "uint256"
						},
						{
							"internalType": "uint256",
							"name": "counter",
							"type": "uint256"
						},
						{
							"internalType": "address",
							"name": "sender",
							"type": "address"
						}
					],
					"stateMutability": "view",
					"type": "function"
				}
			],
			"devdoc": {
				"kind": "dev",
				"methods": {},
				"version": 1
			},
			"evm": {
				"assembly": "    /* \"AutomationChainlink/CustomLogic.sol\":305:1533  contract AutoCtr1 is AutomationCompatibleInterface {... */\n  mstore(0x40, 0x80)\n    /* \"AutomationChainlink/CustomLogic.sol\":694:758  constructor() {... */\n  callvalue\n  dup1\n  iszero\n  tag_1\n  jumpi\n  0x00\n  dup1\n  revert\ntag_1:\n  pop\n    /* \"AutomationChainlink/CustomLogic.sol\":727:729  60 */\n  0x3c\n    /* \"AutomationChainlink/CustomLogic.sol\":716:724  interval */\n  0x00\n    /* \"AutomationChainlink/CustomLogic.sol\":716:729  interval = 60 */\n  sstore\n    /* \"AutomationChainlink/CustomLogic.sol\":750:751  4 */\n  0x04\n    /* \"AutomationChainlink/CustomLogic.sol\":737:747  maxCounter */\n  0x01\n    /* \"AutomationChainlink/CustomLogic.sol\":737:751  maxCounter = 4 */\n  sstore\n    /* \"AutomationChainlink/CustomLogic.sol\":305:1533  contract AutoCtr1 is AutomationCompatibleInterface {... */\n  dataSize(sub_0)\n  dup1\n  dataOffset(sub_0)\n  0x00\n  codecopy\n  0x00\n  return\nstop\n\nsub_0: assembly {\n        /* \"AutomationChainlink/CustomLogic.sol\":305:1533  contract AutoCtr1 is AutomationCompatibleInterface {... */\n      mstore(0x40, 0x80)\n      callvalue\n      dup1\n      iszero\n      tag_1\n      jumpi\n      0x00\n      dup1\n      revert\n    tag_1:\n      pop\n      jumpi(tag_2, lt(calldatasize, 0x04))\n      shr(0xe0, calldataload(0x00))\n      dup1\n      0x6e04ff0d\n      gt\n      tag_8\n      jumpi\n      dup1\n      0x6e04ff0d\n      eq\n      tag_5\n      jumpi\n      dup1\n      0x869d2d86\n      eq\n      tag_6\n      jumpi\n      dup1\n      0x947a36fb\n      eq\n      tag_7\n      jumpi\n      0x00\n      dup1\n      revert\n    tag_8:\n      dup1\n      0x43e5553b\n      eq\n      tag_3\n      jumpi\n      dup1\n      0x4585e33b\n      eq\n      tag_4\n      jumpi\n    tag_2:\n      0x00\n      dup1\n      revert\n        /* \"AutomationChainlink/CustomLogic.sol\":388:410  uint public maxCounter */\n    tag_3:\n      tag_9\n      sload(0x01)\n      dup2\n      jump\n    tag_9:\n      mload(0x40)\n        /* \"#utility.yul\":160:185   */\n      swap1\n      dup2\n      mstore\n        /* \"#utility.yul\":148:150   */\n      0x20\n        /* \"#utility.yul\":133:151   */\n      add\n        /* \"AutomationChainlink/CustomLogic.sol\":388:410  uint public maxCounter */\n    tag_11:\n      mload(0x40)\n      dup1\n      swap2\n      sub\n      swap1\n      return\n        /* \"AutomationChainlink/CustomLogic.sol\":1114:1531  function performUpkeep(bytes calldata performData ) external override {... */\n    tag_4:\n      tag_13\n      tag_14\n      calldatasize\n      0x04\n      tag_15\n      jump\t// in\n    tag_14:\n      tag_16\n      jump\t// in\n    tag_13:\n      stop\n        /* \"AutomationChainlink/CustomLogic.sol\":765:1108  function checkUpkeep(bytes calldata checkData) external view  override returns (bool upkeepNeeded, bytes memory  performData ) {... */\n    tag_5:\n      tag_17\n      tag_18\n      calldatasize\n      0x04\n      tag_15\n      jump\t// in\n    tag_18:\n      tag_19\n      jump\t// in\n    tag_17:\n      mload(0x40)\n      tag_11\n      swap3\n      swap2\n      swap1\n      tag_21\n      jump\t// in\n        /* \"AutomationChainlink/CustomLogic.sol\":646:687  mapping(bytes => Target) public s_targets */\n    tag_6:\n      tag_22\n      tag_23\n      calldatasize\n      0x04\n      tag_24\n      jump\t// in\n    tag_23:\n      dup1\n      mload\n      0x20\n      dup2\n      dup4\n      add\n      dup2\n      add\n      dup1\n      mload\n      0x02\n      dup1\n      dup4\n      mstore\n      swap4\n      dup4\n      add\n      swap3\n      swap1\n      swap5\n      add\n      swap2\n      swap1\n      swap2\n      keccak256\n      swap3\n      swap1\n      mstore\n      dup2\n      sload\n      0x01\n      dup4\n      add\n      sload\n      swap3\n      swap1\n      swap2\n      add\n      sload\n      swap1\n      swap2\n      swap1\n      0xffffffffffffffffffffffffffffffffffffffff\n      and\n      dup4\n      jump\n    tag_22:\n      0x40\n      dup1\n      mload\n        /* \"#utility.yul\":2741:2766   */\n      swap4\n      dup5\n      mstore\n        /* \"#utility.yul\":2797:2799   */\n      0x20\n        /* \"#utility.yul\":2782:2800   */\n      dup5\n      add\n        /* \"#utility.yul\":2775:2809   */\n      swap3\n      swap1\n      swap3\n      mstore\n        /* \"#utility.yul\":2857:2899   */\n      0xffffffffffffffffffffffffffffffffffffffff\n        /* \"#utility.yul\":2845:2900   */\n      and\n        /* \"#utility.yul\":2825:2843   */\n      swap1\n      dup3\n      add\n        /* \"#utility.yul\":2818:2901   */\n      mstore\n        /* \"#utility.yul\":2729:2731   */\n      0x60\n        /* \"#utility.yul\":2714:2732   */\n      add\n        /* \"AutomationChainlink/CustomLogic.sol\":646:687  mapping(bytes => Target) public s_targets */\n      tag_11\n        /* \"#utility.yul\":2539:2907   */\n      jump\n        /* \"AutomationChainlink/CustomLogic.sol\":362:382  uint public interval */\n    tag_7:\n      tag_9\n      sload(0x00)\n      dup2\n      jump\n        /* \"AutomationChainlink/CustomLogic.sol\":1114:1531  function performUpkeep(bytes calldata performData ) external override {... */\n    tag_16:\n        /* \"AutomationChainlink/CustomLogic.sol\":1194:1208  uint currCount */\n      0x00\n        /* \"AutomationChainlink/CustomLogic.sol\":1261:1276  block.timestamp */\n      timestamp\n        /* \"AutomationChainlink/CustomLogic.sol\":1222:1231  s_targets */\n      0x02\n        /* \"AutomationChainlink/CustomLogic.sol\":1232:1243  performData */\n      dup5\n      dup5\n        /* \"AutomationChainlink/CustomLogic.sol\":1222:1244  s_targets[performData] */\n      mload(0x40)\n      tag_32\n      swap3\n      swap2\n      swap1\n      tag_33\n      jump\t// in\n    tag_32:\n      swap1\n      dup2\n      mstore\n      mload(0x40)\n      swap1\n      dup2\n      swap1\n      sub\n      0x20\n      add\n      dup2\n      keccak256\n        /* \"AutomationChainlink/CustomLogic.sol\":1222:1276  s_targets[performData].lastTimeStamp = block.timestamp */\n      swap2\n      swap1\n      swap2\n      sstore\n        /* \"AutomationChainlink/CustomLogic.sol\":1318:1328  msg.sender */\n      caller\n      swap1\n        /* \"AutomationChainlink/CustomLogic.sol\":1286:1295  s_targets */\n      0x02\n      swap1\n        /* \"AutomationChainlink/CustomLogic.sol\":1286:1308  s_targets[performData] */\n      tag_34\n      swap1\n        /* \"AutomationChainlink/CustomLogic.sol\":1296:1307  performData */\n      dup7\n      swap1\n      dup7\n      swap1\n        /* \"AutomationChainlink/CustomLogic.sol\":1286:1308  s_targets[performData] */\n      tag_33\n      jump\t// in\n    tag_34:\n      swap1\n      dup2\n      mstore\n      mload(0x40)\n      swap1\n      dup2\n      swap1\n      sub\n      0x20\n      add\n      dup2\n      keccak256\n        /* \"AutomationChainlink/CustomLogic.sol\":1286:1315  s_targets[performData].sender */\n      0x02\n      swap1\n      dup2\n      add\n        /* \"AutomationChainlink/CustomLogic.sol\":1286:1328  s_targets[performData].sender = msg.sender */\n      dup1\n      sload\n      0xffffffffffffffffffffffffffffffffffffffff\n      swap5\n      swap1\n      swap5\n      and\n      0xffffffffffffffffffffffff0000000000000000000000000000000000000000\n      swap1\n      swap5\n      and\n      swap4\n      swap1\n      swap4\n      or\n      swap1\n      swap3\n      sstore\n        /* \"AutomationChainlink/CustomLogic.sol\":1350:1372  s_targets[performData] */\n      tag_35\n      swap1\n        /* \"AutomationChainlink/CustomLogic.sol\":1360:1371  performData */\n      dup6\n      swap1\n      dup6\n      swap1\n        /* \"AutomationChainlink/CustomLogic.sol\":1350:1372  s_targets[performData] */\n      tag_33\n      jump\t// in\n    tag_35:\n      swap1\n      dup2\n      mstore\n      0x20\n      add\n      mload(0x40)\n      dup1\n      swap2\n      sub\n      swap1\n      keccak256\n        /* \"AutomationChainlink/CustomLogic.sol\":1350:1380  s_targets[performData].counter */\n      0x01\n      add\n      sload\n        /* \"AutomationChainlink/CustomLogic.sol\":1382:1383  1 */\n      0x01\n        /* \"AutomationChainlink/CustomLogic.sol\":1350:1383  s_targets[performData].counter +1 */\n      tag_36\n      swap2\n      swap1\n      tag_37\n      jump\t// in\n    tag_36:\n        /* \"AutomationChainlink/CustomLogic.sol\":1338:1383  currCount = s_targets[performData].counter +1 */\n      swap1\n      pop\n        /* \"AutomationChainlink/CustomLogic.sol\":1417:1428  performData */\n      dup3\n      dup3\n        /* \"AutomationChainlink/CustomLogic.sol\":1398:1470  Logger(msg.sender, performData, block.timestamp,block.number, currCount) */\n      mload(0x40)\n      tag_38\n      swap3\n      swap2\n      swap1\n      tag_33\n      jump\t// in\n    tag_38:\n      0x40\n      dup1\n      mload\n      swap2\n      dup3\n      swap1\n      sub\n      dup3\n      keccak256\n        /* \"AutomationChainlink/CustomLogic.sol\":1430:1445  block.timestamp */\n      timestamp\n        /* \"#utility.yul\":3709:3734   */\n      dup4\n      mstore\n        /* \"AutomationChainlink/CustomLogic.sol\":1446:1458  block.number */\n      number\n        /* \"#utility.yul\":3765:3767   */\n      0x20\n        /* \"#utility.yul\":3750:3768   */\n      dup5\n      add\n        /* \"#utility.yul\":3743:3777   */\n      mstore\n        /* \"#utility.yul\":3793:3811   */\n      swap1\n      dup3\n      add\n        /* \"#utility.yul\":3786:3820   */\n      dup4\n      swap1\n      mstore\n        /* \"AutomationChainlink/CustomLogic.sol\":1398:1470  Logger(msg.sender, performData, block.timestamp,block.number, currCount) */\n      swap1\n        /* \"AutomationChainlink/CustomLogic.sol\":1405:1415  msg.sender */\n      caller\n      swap1\n        /* \"AutomationChainlink/CustomLogic.sol\":1398:1470  Logger(msg.sender, performData, block.timestamp,block.number, currCount) */\n      0x7ebc83017616f46acf1c69dd1d6b6af8dbd64e181a65c938f55201137b846ef3\n      swap1\n        /* \"#utility.yul\":3697:3699   */\n      0x60\n        /* \"#utility.yul\":3682:3700   */\n      add\n        /* \"AutomationChainlink/CustomLogic.sol\":1398:1470  Logger(msg.sender, performData, block.timestamp,block.number, currCount) */\n      mload(0x40)\n      dup1\n      swap2\n      sub\n      swap1\n      log3\n        /* \"AutomationChainlink/CustomLogic.sol\":1513:1522  currCount */\n      dup1\n        /* \"AutomationChainlink/CustomLogic.sol\":1480:1489  s_targets */\n      0x02\n        /* \"AutomationChainlink/CustomLogic.sol\":1490:1501  performData */\n      dup5\n      dup5\n        /* \"AutomationChainlink/CustomLogic.sol\":1480:1502  s_targets[performData] */\n      mload(0x40)\n      tag_41\n      swap3\n      swap2\n      swap1\n      tag_33\n      jump\t// in\n    tag_41:\n      swap1\n      dup2\n      mstore\n      mload(0x40)\n      swap1\n      dup2\n      swap1\n      sub\n      0x20\n      add\n      swap1\n      keccak256\n        /* \"AutomationChainlink/CustomLogic.sol\":1480:1510  s_targets[performData].counter */\n      0x01\n      add\n        /* \"AutomationChainlink/CustomLogic.sol\":1480:1522  s_targets[performData].counter = currCount */\n      sstore\n      pop\n      pop\n      pop\n        /* \"AutomationChainlink/CustomLogic.sol\":1114:1531  function performUpkeep(bytes calldata performData ) external override {... */\n      jump\t// out\n        /* \"AutomationChainlink/CustomLogic.sol\":765:1108  function checkUpkeep(bytes calldata checkData) external view  override returns (bool upkeepNeeded, bytes memory  performData ) {... */\n    tag_19:\n        /* \"AutomationChainlink/CustomLogic.sol\":845:862  bool upkeepNeeded */\n      0x00\n        /* \"AutomationChainlink/CustomLogic.sol\":864:889  bytes memory  performData */\n      0x60\n        /* \"AutomationChainlink/CustomLogic.sol\":938:948  maxCounter */\n      sload(0x01)\n        /* \"AutomationChainlink/CustomLogic.sol\":909:918  s_targets */\n      0x02\n        /* \"AutomationChainlink/CustomLogic.sol\":919:928  checkData */\n      dup6\n      dup6\n        /* \"AutomationChainlink/CustomLogic.sol\":909:929  s_targets[checkData] */\n      mload(0x40)\n      tag_43\n      swap3\n      swap2\n      swap1\n      tag_33\n      jump\t// in\n    tag_43:\n      swap1\n      dup2\n      mstore\n      0x20\n      add\n      mload(0x40)\n      dup1\n      swap2\n      sub\n      swap1\n      keccak256\n        /* \"AutomationChainlink/CustomLogic.sol\":909:937  s_targets[checkData].counter */\n      0x01\n      add\n      sload\n        /* \"AutomationChainlink/CustomLogic.sol\":909:948  s_targets[checkData].counter<maxCounter */\n      lt\n        /* \"AutomationChainlink/CustomLogic.sol\":908:1016  (s_targets[checkData].counter<maxCounter)&&(block.timestamp - s_targets[checkData].lastTimeStamp) > interval */\n      dup1\n      iszero\n      tag_44\n      jumpi\n      pop\n        /* \"AutomationChainlink/CustomLogic.sol\":1008:1016  interval */\n      sload(0x00)\n        /* \"AutomationChainlink/CustomLogic.sol\":970:979  s_targets */\n      0x02\n        /* \"AutomationChainlink/CustomLogic.sol\":980:989  checkData */\n      dup6\n      dup6\n        /* \"AutomationChainlink/CustomLogic.sol\":970:990  s_targets[checkData] */\n      mload(0x40)\n      tag_45\n      swap3\n      swap2\n      swap1\n      tag_33\n      jump\t// in\n    tag_45:\n      swap1\n      dup2\n      mstore\n      mload(0x40)\n      swap1\n      dup2\n      swap1\n      sub\n      0x20\n      add\n      swap1\n      keccak256\n        /* \"AutomationChainlink/CustomLogic.sol\":970:1004  s_targets[checkData].lastTimeStamp */\n      sload\n        /* \"AutomationChainlink/CustomLogic.sol\":952:1004  block.timestamp - s_targets[checkData].lastTimeStamp */\n      tag_46\n      swap1\n        /* \"AutomationChainlink/CustomLogic.sol\":952:967  block.timestamp */\n      timestamp\n        /* \"AutomationChainlink/CustomLogic.sol\":952:1004  block.timestamp - s_targets[checkData].lastTimeStamp */\n      tag_47\n      jump\t// in\n    tag_46:\n        /* \"AutomationChainlink/CustomLogic.sol\":951:1016  (block.timestamp - s_targets[checkData].lastTimeStamp) > interval */\n      gt\n        /* \"AutomationChainlink/CustomLogic.sol\":908:1016  (s_targets[checkData].counter<maxCounter)&&(block.timestamp - s_targets[checkData].lastTimeStamp) > interval */\n    tag_44:\n        /* \"AutomationChainlink/CustomLogic.sol\":904:1102  if ((s_targets[checkData].counter<maxCounter)&&(block.timestamp - s_targets[checkData].lastTimeStamp) > interval ) {... */\n      iszero\n      tag_48\n      jumpi\n        /* \"AutomationChainlink/CustomLogic.sol\":1042:1046  true */\n      0x01\n        /* \"AutomationChainlink/CustomLogic.sol\":1047:1056  checkData */\n      dup5\n      dup5\n        /* \"AutomationChainlink/CustomLogic.sol\":1035:1057  return(true,checkData) */\n      dup2\n      dup2\n      dup1\n      dup1\n      0x1f\n      add\n      0x20\n      dup1\n      swap2\n      div\n      mul\n      0x20\n      add\n      mload(0x40)\n      swap1\n      dup2\n      add\n      0x40\n      mstore\n      dup1\n      swap4\n      swap3\n      swap2\n      swap1\n      dup2\n      dup2\n      mstore\n      0x20\n      add\n      dup4\n      dup4\n      dup1\n      dup3\n      dup5\n      calldatacopy\n      0x00\n      swap3\n      add\n      swap2\n      swap1\n      swap2\n      mstore\n      pop\n      swap6\n      swap8\n      pop\n      swap2\n      swap6\n      pop\n      tag_49\n      swap5\n      pop\n      pop\n      pop\n      pop\n      pop\n      jump\n        /* \"AutomationChainlink/CustomLogic.sol\":904:1102  if ((s_targets[checkData].counter<maxCounter)&&(block.timestamp - s_targets[checkData].lastTimeStamp) > interval ) {... */\n    tag_48:\n        /* \"AutomationChainlink/CustomLogic.sol\":1084:1089  false */\n      0x00\n        /* \"AutomationChainlink/CustomLogic.sol\":1090:1099  checkData */\n      dup5\n      dup5\n        /* \"AutomationChainlink/CustomLogic.sol\":1077:1100  return(false,checkData) */\n      dup2\n      dup2\n      dup1\n      dup1\n      0x1f\n      add\n      0x20\n      dup1\n      swap2\n      div\n      mul\n      0x20\n      add\n      mload(0x40)\n      swap1\n      dup2\n      add\n      0x40\n      mstore\n      dup1\n      swap4\n      swap3\n      swap2\n      swap1\n      dup2\n      dup2\n      mstore\n      0x20\n      add\n      dup4\n      dup4\n      dup1\n      dup3\n      dup5\n      calldatacopy\n      0x00\n      swap3\n      add\n      swap2\n      swap1\n      swap2\n      mstore\n      pop\n      swap6\n      swap8\n      pop\n      swap2\n      swap6\n      pop\n      tag_49\n      swap5\n      pop\n      pop\n      pop\n      pop\n      pop\n      jump\n        /* \"AutomationChainlink/CustomLogic.sol\":904:1102  if ((s_targets[checkData].counter<maxCounter)&&(block.timestamp - s_targets[checkData].lastTimeStamp) > interval ) {... */\n    tag_49:\n        /* \"AutomationChainlink/CustomLogic.sol\":765:1108  function checkUpkeep(bytes calldata checkData) external view  override returns (bool upkeepNeeded, bytes memory  performData ) {... */\n      swap3\n      pop\n      swap3\n      swap1\n      pop\n      jump\t// out\n        /* \"#utility.yul\":196:787   */\n    tag_15:\n        /* \"#utility.yul\":266:272   */\n      0x00\n        /* \"#utility.yul\":274:280   */\n      dup1\n        /* \"#utility.yul\":327:329   */\n      0x20\n        /* \"#utility.yul\":315:324   */\n      dup4\n        /* \"#utility.yul\":306:313   */\n      dup6\n        /* \"#utility.yul\":302:325   */\n      sub\n        /* \"#utility.yul\":298:330   */\n      slt\n        /* \"#utility.yul\":295:347   */\n      iszero\n      tag_55\n      jumpi\n        /* \"#utility.yul\":343:344   */\n      0x00\n        /* \"#utility.yul\":340:341   */\n      dup1\n        /* \"#utility.yul\":333:345   */\n      revert\n        /* \"#utility.yul\":295:347   */\n    tag_55:\n        /* \"#utility.yul\":383:392   */\n      dup3\n        /* \"#utility.yul\":370:393   */\n      calldataload\n        /* \"#utility.yul\":412:430   */\n      0xffffffffffffffff\n        /* \"#utility.yul\":453:455   */\n      dup1\n        /* \"#utility.yul\":445:451   */\n      dup3\n        /* \"#utility.yul\":442:456   */\n      gt\n        /* \"#utility.yul\":439:473   */\n      iszero\n      tag_56\n      jumpi\n        /* \"#utility.yul\":469:470   */\n      0x00\n        /* \"#utility.yul\":466:467   */\n      dup1\n        /* \"#utility.yul\":459:471   */\n      revert\n        /* \"#utility.yul\":439:473   */\n    tag_56:\n        /* \"#utility.yul\":507:513   */\n      dup2\n        /* \"#utility.yul\":496:505   */\n      dup6\n        /* \"#utility.yul\":492:514   */\n      add\n        /* \"#utility.yul\":482:514   */\n      swap2\n      pop\n        /* \"#utility.yul\":552:559   */\n      dup6\n        /* \"#utility.yul\":545:549   */\n      0x1f\n        /* \"#utility.yul\":541:543   */\n      dup4\n        /* \"#utility.yul\":537:550   */\n      add\n        /* \"#utility.yul\":533:560   */\n      slt\n        /* \"#utility.yul\":523:578   */\n      tag_57\n      jumpi\n        /* \"#utility.yul\":574:575   */\n      0x00\n        /* \"#utility.yul\":571:572   */\n      dup1\n        /* \"#utility.yul\":564:576   */\n      revert\n        /* \"#utility.yul\":523:578   */\n    tag_57:\n        /* \"#utility.yul\":614:616   */\n      dup2\n        /* \"#utility.yul\":601:617   */\n      calldataload\n        /* \"#utility.yul\":640:642   */\n      dup2\n        /* \"#utility.yul\":632:638   */\n      dup2\n        /* \"#utility.yul\":629:643   */\n      gt\n        /* \"#utility.yul\":626:660   */\n      iszero\n      tag_58\n      jumpi\n        /* \"#utility.yul\":656:657   */\n      0x00\n        /* \"#utility.yul\":653:654   */\n      dup1\n        /* \"#utility.yul\":646:658   */\n      revert\n        /* \"#utility.yul\":626:660   */\n    tag_58:\n        /* \"#utility.yul\":701:708   */\n      dup7\n        /* \"#utility.yul\":696:698   */\n      0x20\n        /* \"#utility.yul\":687:693   */\n      dup3\n        /* \"#utility.yul\":683:685   */\n      dup6\n        /* \"#utility.yul\":679:694   */\n      add\n        /* \"#utility.yul\":675:699   */\n      add\n        /* \"#utility.yul\":672:709   */\n      gt\n        /* \"#utility.yul\":669:726   */\n      iszero\n      tag_59\n      jumpi\n        /* \"#utility.yul\":722:723   */\n      0x00\n        /* \"#utility.yul\":719:720   */\n      dup1\n        /* \"#utility.yul\":712:724   */\n      revert\n        /* \"#utility.yul\":669:726   */\n    tag_59:\n        /* \"#utility.yul\":753:755   */\n      0x20\n        /* \"#utility.yul\":745:756   */\n      swap3\n      swap1\n      swap3\n      add\n      swap7\n        /* \"#utility.yul\":775:781   */\n      swap2\n      swap6\n      pop\n        /* \"#utility.yul\":196:787   */\n      swap1\n      swap4\n      pop\n      pop\n      pop\n      pop\n      jump\t// out\n        /* \"#utility.yul\":792:1419   */\n    tag_21:\n        /* \"#utility.yul\":975:981   */\n      dup3\n        /* \"#utility.yul\":968:982   */\n      iszero\n        /* \"#utility.yul\":961:983   */\n      iszero\n        /* \"#utility.yul\":950:959   */\n      dup2\n        /* \"#utility.yul\":943:984   */\n      mstore\n        /* \"#utility.yul\":924:928   */\n      0x00\n        /* \"#utility.yul\":1003:1005   */\n      0x20\n        /* \"#utility.yul\":1041:1043   */\n      0x40\n        /* \"#utility.yul\":1036:1038   */\n      0x20\n        /* \"#utility.yul\":1025:1034   */\n      dup5\n        /* \"#utility.yul\":1021:1039   */\n      add\n        /* \"#utility.yul\":1014:1044   */\n      mstore\n        /* \"#utility.yul\":1073:1079   */\n      dup4\n        /* \"#utility.yul\":1067:1080   */\n      mload\n        /* \"#utility.yul\":1116:1122   */\n      dup1\n        /* \"#utility.yul\":1111:1113   */\n      0x40\n        /* \"#utility.yul\":1100:1109   */\n      dup6\n        /* \"#utility.yul\":1096:1114   */\n      add\n        /* \"#utility.yul\":1089:1123   */\n      mstore\n        /* \"#utility.yul\":1141:1142   */\n      0x00\n        /* \"#utility.yul\":1151:1291   */\n    tag_61:\n        /* \"#utility.yul\":1165:1171   */\n      dup2\n        /* \"#utility.yul\":1162:1163   */\n      dup2\n        /* \"#utility.yul\":1159:1172   */\n      lt\n        /* \"#utility.yul\":1151:1291   */\n      iszero\n      tag_63\n      jumpi\n        /* \"#utility.yul\":1260:1274   */\n      dup6\n      dup2\n      add\n        /* \"#utility.yul\":1256:1279   */\n      dup4\n      add\n        /* \"#utility.yul\":1250:1280   */\n      mload\n        /* \"#utility.yul\":1226:1243   */\n      dup6\n      dup3\n      add\n        /* \"#utility.yul\":1245:1247   */\n      0x60\n        /* \"#utility.yul\":1222:1248   */\n      add\n        /* \"#utility.yul\":1215:1281   */\n      mstore\n        /* \"#utility.yul\":1180:1190   */\n      dup3\n      add\n        /* \"#utility.yul\":1151:1291   */\n      jump(tag_61)\n    tag_63:\n        /* \"#utility.yul\":1155:1158   */\n      pop\n        /* \"#utility.yul\":1340:1341   */\n      0x00\n        /* \"#utility.yul\":1335:1337   */\n      0x60\n        /* \"#utility.yul\":1326:1332   */\n      dup3\n        /* \"#utility.yul\":1315:1324   */\n      dup7\n        /* \"#utility.yul\":1311:1333   */\n      add\n        /* \"#utility.yul\":1307:1338   */\n      add\n        /* \"#utility.yul\":1300:1342   */\n      mstore\n        /* \"#utility.yul\":1410:1412   */\n      0x60\n        /* \"#utility.yul\":1403:1405   */\n      0x1f\n        /* \"#utility.yul\":1399:1406   */\n      not\n        /* \"#utility.yul\":1394:1396   */\n      0x1f\n        /* \"#utility.yul\":1386:1392   */\n      dup4\n        /* \"#utility.yul\":1382:1397   */\n      add\n        /* \"#utility.yul\":1378:1407   */\n      and\n        /* \"#utility.yul\":1367:1376   */\n      dup6\n        /* \"#utility.yul\":1363:1408   */\n      add\n        /* \"#utility.yul\":1359:1413   */\n      add\n        /* \"#utility.yul\":1351:1413   */\n      swap3\n      pop\n      pop\n      pop\n        /* \"#utility.yul\":792:1419   */\n      swap4\n      swap3\n      pop\n      pop\n      pop\n      jump\t// out\n        /* \"#utility.yul\":1424:1608   */\n    tag_50:\n      shl(0xe0, 0x4e487b71)\n        /* \"#utility.yul\":1473:1474   */\n      0x00\n        /* \"#utility.yul\":1466:1554   */\n      mstore\n        /* \"#utility.yul\":1573:1577   */\n      0x41\n        /* \"#utility.yul\":1570:1571   */\n      0x04\n        /* \"#utility.yul\":1563:1578   */\n      mstore\n        /* \"#utility.yul\":1597:1601   */\n      0x24\n        /* \"#utility.yul\":1594:1595   */\n      0x00\n        /* \"#utility.yul\":1587:1602   */\n      revert\n        /* \"#utility.yul\":1613:2534   */\n    tag_24:\n        /* \"#utility.yul\":1681:1687   */\n      0x00\n        /* \"#utility.yul\":1734:1736   */\n      0x20\n        /* \"#utility.yul\":1722:1731   */\n      dup3\n        /* \"#utility.yul\":1713:1720   */\n      dup5\n        /* \"#utility.yul\":1709:1732   */\n      sub\n        /* \"#utility.yul\":1705:1737   */\n      slt\n        /* \"#utility.yul\":1702:1754   */\n      iszero\n      tag_66\n      jumpi\n        /* \"#utility.yul\":1750:1751   */\n      0x00\n        /* \"#utility.yul\":1747:1748   */\n      dup1\n        /* \"#utility.yul\":1740:1752   */\n      revert\n        /* \"#utility.yul\":1702:1754   */\n    tag_66:\n        /* \"#utility.yul\":1790:1799   */\n      dup2\n        /* \"#utility.yul\":1777:1800   */\n      calldataload\n        /* \"#utility.yul\":1819:1837   */\n      0xffffffffffffffff\n        /* \"#utility.yul\":1860:1862   */\n      dup1\n        /* \"#utility.yul\":1852:1858   */\n      dup3\n        /* \"#utility.yul\":1849:1863   */\n      gt\n        /* \"#utility.yul\":1846:1880   */\n      iszero\n      tag_67\n      jumpi\n        /* \"#utility.yul\":1876:1877   */\n      0x00\n        /* \"#utility.yul\":1873:1874   */\n      dup1\n        /* \"#utility.yul\":1866:1878   */\n      revert\n        /* \"#utility.yul\":1846:1880   */\n    tag_67:\n        /* \"#utility.yul\":1914:1920   */\n      dup2\n        /* \"#utility.yul\":1903:1912   */\n      dup5\n        /* \"#utility.yul\":1899:1921   */\n      add\n        /* \"#utility.yul\":1889:1921   */\n      swap2\n      pop\n        /* \"#utility.yul\":1959:1966   */\n      dup5\n        /* \"#utility.yul\":1952:1956   */\n      0x1f\n        /* \"#utility.yul\":1948:1950   */\n      dup4\n        /* \"#utility.yul\":1944:1957   */\n      add\n        /* \"#utility.yul\":1940:1967   */\n      slt\n        /* \"#utility.yul\":1930:1985   */\n      tag_68\n      jumpi\n        /* \"#utility.yul\":1981:1982   */\n      0x00\n        /* \"#utility.yul\":1978:1979   */\n      dup1\n        /* \"#utility.yul\":1971:1983   */\n      revert\n        /* \"#utility.yul\":1930:1985   */\n    tag_68:\n        /* \"#utility.yul\":2017:2019   */\n      dup2\n        /* \"#utility.yul\":2004:2020   */\n      calldataload\n        /* \"#utility.yul\":2039:2041   */\n      dup2\n        /* \"#utility.yul\":2035:2037   */\n      dup2\n        /* \"#utility.yul\":2032:2042   */\n      gt\n        /* \"#utility.yul\":2029:2065   */\n      iszero\n      tag_70\n      jumpi\n        /* \"#utility.yul\":2045:2063   */\n      tag_70\n      tag_50\n      jump\t// in\n    tag_70:\n        /* \"#utility.yul\":2120:2122   */\n      0x40\n        /* \"#utility.yul\":2114:2123   */\n      mload\n        /* \"#utility.yul\":2088:2090   */\n      0x1f\n        /* \"#utility.yul\":2174:2187   */\n      dup3\n      add\n      not(0x1f)\n        /* \"#utility.yul\":2170:2192   */\n      swap1\n      dup2\n      and\n        /* \"#utility.yul\":2194:2196   */\n      0x3f\n        /* \"#utility.yul\":2166:2197   */\n      add\n        /* \"#utility.yul\":2162:2202   */\n      and\n        /* \"#utility.yul\":2150:2203   */\n      dup2\n      add\n      swap1\n        /* \"#utility.yul\":2218:2236   */\n      dup4\n      dup3\n      gt\n        /* \"#utility.yul\":2238:2260   */\n      dup2\n      dup4\n      lt\n        /* \"#utility.yul\":2215:2261   */\n      or\n        /* \"#utility.yul\":2212:2284   */\n      iszero\n      tag_72\n      jumpi\n        /* \"#utility.yul\":2264:2282   */\n      tag_72\n      tag_50\n      jump\t// in\n    tag_72:\n        /* \"#utility.yul\":2304:2314   */\n      dup2\n        /* \"#utility.yul\":2300:2302   */\n      0x40\n        /* \"#utility.yul\":2293:2315   */\n      mstore\n        /* \"#utility.yul\":2339:2341   */\n      dup3\n        /* \"#utility.yul\":2331:2337   */\n      dup2\n        /* \"#utility.yul\":2324:2342   */\n      mstore\n        /* \"#utility.yul\":2379:2386   */\n      dup8\n        /* \"#utility.yul\":2374:2376   */\n      0x20\n        /* \"#utility.yul\":2369:2371   */\n      dup5\n        /* \"#utility.yul\":2365:2367   */\n      dup8\n        /* \"#utility.yul\":2361:2372   */\n      add\n        /* \"#utility.yul\":2357:2377   */\n      add\n        /* \"#utility.yul\":2354:2387   */\n      gt\n        /* \"#utility.yul\":2351:2404   */\n      iszero\n      tag_73\n      jumpi\n        /* \"#utility.yul\":2400:2401   */\n      0x00\n        /* \"#utility.yul\":2397:2398   */\n      dup1\n        /* \"#utility.yul\":2390:2402   */\n      revert\n        /* \"#utility.yul\":2351:2404   */\n    tag_73:\n        /* \"#utility.yul\":2456:2458   */\n      dup3\n        /* \"#utility.yul\":2451:2453   */\n      0x20\n        /* \"#utility.yul\":2447:2449   */\n      dup7\n        /* \"#utility.yul\":2443:2454   */\n      add\n        /* \"#utility.yul\":2438:2440   */\n      0x20\n        /* \"#utility.yul\":2430:2436   */\n      dup4\n        /* \"#utility.yul\":2426:2441   */\n      add\n        /* \"#utility.yul\":2413:2459   */\n      calldatacopy\n        /* \"#utility.yul\":2501:2502   */\n      0x00\n        /* \"#utility.yul\":2479:2494   */\n      swap3\n      dup2\n      add\n        /* \"#utility.yul\":2496:2498   */\n      0x20\n        /* \"#utility.yul\":2475:2499   */\n      add\n        /* \"#utility.yul\":2468:2503   */\n      swap3\n      swap1\n      swap3\n      mstore\n      pop\n        /* \"#utility.yul\":2483:2489   */\n      swap6\n        /* \"#utility.yul\":1613:2534   */\n      swap5\n      pop\n      pop\n      pop\n      pop\n      pop\n      jump\t// out\n        /* \"#utility.yul\":2912:3183   */\n    tag_33:\n        /* \"#utility.yul\":3095:3101   */\n      dup2\n        /* \"#utility.yul\":3087:3093   */\n      dup4\n        /* \"#utility.yul\":3082:3085   */\n      dup3\n        /* \"#utility.yul\":3069:3102   */\n      calldatacopy\n        /* \"#utility.yul\":3051:3054   */\n      0x00\n        /* \"#utility.yul\":3121:3137   */\n      swap2\n      add\n        /* \"#utility.yul\":3146:3159   */\n      swap1\n      dup2\n      mstore\n        /* \"#utility.yul\":3121:3137   */\n      swap2\n        /* \"#utility.yul\":2912:3183   */\n      swap1\n      pop\n      jump\t// out\n        /* \"#utility.yul\":3188:3372   */\n    tag_51:\n      shl(0xe0, 0x4e487b71)\n        /* \"#utility.yul\":3237:3238   */\n      0x00\n        /* \"#utility.yul\":3230:3318   */\n      mstore\n        /* \"#utility.yul\":3337:3341   */\n      0x11\n        /* \"#utility.yul\":3334:3335   */\n      0x04\n        /* \"#utility.yul\":3327:3342   */\n      mstore\n        /* \"#utility.yul\":3361:3365   */\n      0x24\n        /* \"#utility.yul\":3358:3359   */\n      0x00\n        /* \"#utility.yul\":3351:3366   */\n      revert\n        /* \"#utility.yul\":3377:3502   */\n    tag_37:\n        /* \"#utility.yul\":3442:3451   */\n      dup1\n      dup3\n      add\n        /* \"#utility.yul\":3463:3473   */\n      dup1\n      dup3\n      gt\n        /* \"#utility.yul\":3460:3496   */\n      iszero\n      tag_79\n      jumpi\n        /* \"#utility.yul\":3476:3494   */\n      tag_79\n      tag_51\n      jump\t// in\n    tag_79:\n        /* \"#utility.yul\":3377:3502   */\n      swap3\n      swap2\n      pop\n      pop\n      jump\t// out\n        /* \"#utility.yul\":3831:3959   */\n    tag_47:\n        /* \"#utility.yul\":3898:3907   */\n      dup2\n      dup2\n      sub\n        /* \"#utility.yul\":3919:3930   */\n      dup2\n      dup2\n      gt\n        /* \"#utility.yul\":3916:3953   */\n      iszero\n      tag_79\n      jumpi\n        /* \"#utility.yul\":3933:3951   */\n      tag_79\n      tag_51\n      jump\t// in\n\n    auxdata: 0xa2646970667358221220d953c93d3d82cf4eca08923d17190bc3ac05d6f125d2e5030cd3725e0c7ce60b64736f6c63430008180033\n}\n",
				"bytecode": {
					"linkReferences": {},
					"object": "608060405234801561000f575f80fd5b50603c5f55600460015561058c806100265f395ff3fe608060405234801561000f575f80fd5b5060043610610064575f3560e01c80636e04ff0d1161004d5780636e04ff0d14610099578063869d2d86146100ba578063947a36fb1461013f575f80fd5b806343e5553b146100685780634585e33b14610084575b5f80fd5b61007160015481565b6040519081526020015b60405180910390f35b610097610092366004610386565b610147565b005b6100ac6100a7366004610386565b61028b565b60405161007b9291906103f2565b61010e6100c836600461045c565b80516020818301810180516002808352938301929094019190912092905281546001830154929091015490919073ffffffffffffffffffffffffffffffffffffffff1683565b60408051938452602084019290925273ffffffffffffffffffffffffffffffffffffffff169082015260600161007b565b6100715f5481565b5f426002848460405161015b929190610507565b9081526040519081900360200181209190915533906002906101809086908690610507565b9081526040519081900360200181206002908101805473ffffffffffffffffffffffffffffffffffffffff949094167fffffffffffffffffffffffff0000000000000000000000000000000000000000909416939093179092556101e79085908590610507565b9081526020016040518091039020600101546001610205919061052a565b90508282604051610217929190610507565b604080519182900382204283524360208401529082018390529033907f7ebc83017616f46acf1c69dd1d6b6af8dbd64e181a65c938f55201137b846ef39060600160405180910390a38060028484604051610273929190610507565b90815260405190819003602001902060010155505050565b5f6060600154600285856040516102a3929190610507565b9081526020016040518091039020600101541080156102ed57505f54600285856040516102d1929190610507565b908152604051908190036020019020546102eb9042610543565b115b15610339576001848481818080601f0160208091040260200160405190810160405280939291908181526020018383808284375f9201919091525095975091955061037f945050505050565b5f848481818080601f0160208091040260200160405190810160405280939291908181526020018383808284375f9201919091525095975091955061037f945050505050565b9250929050565b5f8060208385031215610397575f80fd5b823567ffffffffffffffff808211156103ae575f80fd5b818501915085601f8301126103c1575f80fd5b8135818111156103cf575f80fd5b8660208285010111156103e0575f80fd5b60209290920196919550909350505050565b82151581525f60206040602084015283518060408501525f5b818110156104275785810183015185820160600152820161040b565b505f606082860101526060601f19601f830116850101925050509392505050565b634e487b7160e01b5f52604160045260245ffd5b5f6020828403121561046c575f80fd5b813567ffffffffffffffff80821115610483575f80fd5b818401915084601f830112610496575f80fd5b8135818111156104a8576104a8610448565b604051601f8201601f19908116603f011681019083821181831017156104d0576104d0610448565b816040528281528760208487010111156104e8575f80fd5b826020860160208301375f928101602001929092525095945050505050565b818382375f9101908152919050565b634e487b7160e01b5f52601160045260245ffd5b8082018082111561053d5761053d610516565b92915050565b8181038181111561053d5761053d61051656fea2646970667358221220d953c93d3d82cf4eca08923d17190bc3ac05d6f125d2e5030cd3725e0c7ce60b64736f6c63430008180033",
					"opcodes": "PUSH1 0x80 PUSH1 0x40 MSTORE CALLVALUE DUP1 ISZERO PUSH2 0xF JUMPI PUSH0 DUP1 REVERT JUMPDEST POP PUSH1 0x3C PUSH0 SSTORE PUSH1 0x4 PUSH1 0x1 SSTORE PUSH2 0x58C DUP1 PUSH2 0x26 PUSH0 CODECOPY PUSH0 RETURN INVALID PUSH1 0x80 PUSH1 0x40 MSTORE CALLVALUE DUP1 ISZERO PUSH2 0xF JUMPI PUSH0 DUP1 REVERT JUMPDEST POP PUSH1 0x4 CALLDATASIZE LT PUSH2 0x64 JUMPI PUSH0 CALLDATALOAD PUSH1 0xE0 SHR DUP1 PUSH4 0x6E04FF0D GT PUSH2 0x4D JUMPI DUP1 PUSH4 0x6E04FF0D EQ PUSH2 0x99 JUMPI DUP1 PUSH4 0x869D2D86 EQ PUSH2 0xBA JUMPI DUP1 PUSH4 0x947A36FB EQ PUSH2 0x13F JUMPI PUSH0 DUP1 REVERT JUMPDEST DUP1 PUSH4 0x43E5553B EQ PUSH2 0x68 JUMPI DUP1 PUSH4 0x4585E33B EQ PUSH2 0x84 JUMPI JUMPDEST PUSH0 DUP1 REVERT JUMPDEST PUSH2 0x71 PUSH1 0x1 SLOAD DUP2 JUMP JUMPDEST PUSH1 0x40 MLOAD SWAP1 DUP2 MSTORE PUSH1 0x20 ADD JUMPDEST PUSH1 0x40 MLOAD DUP1 SWAP2 SUB SWAP1 RETURN JUMPDEST PUSH2 0x97 PUSH2 0x92 CALLDATASIZE PUSH1 0x4 PUSH2 0x386 JUMP JUMPDEST PUSH2 0x147 JUMP JUMPDEST STOP JUMPDEST PUSH2 0xAC PUSH2 0xA7 CALLDATASIZE PUSH1 0x4 PUSH2 0x386 JUMP JUMPDEST PUSH2 0x28B JUMP JUMPDEST PUSH1 0x40 MLOAD PUSH2 0x7B SWAP3 SWAP2 SWAP1 PUSH2 0x3F2 JUMP JUMPDEST PUSH2 0x10E PUSH2 0xC8 CALLDATASIZE PUSH1 0x4 PUSH2 0x45C JUMP JUMPDEST DUP1 MLOAD PUSH1 0x20 DUP2 DUP4 ADD DUP2 ADD DUP1 MLOAD PUSH1 0x2 DUP1 DUP4 MSTORE SWAP4 DUP4 ADD SWAP3 SWAP1 SWAP5 ADD SWAP2 SWAP1 SWAP2 KECCAK256 SWAP3 SWAP1 MSTORE DUP2 SLOAD PUSH1 0x1 DUP4 ADD SLOAD SWAP3 SWAP1 SWAP2 ADD SLOAD SWAP1 SWAP2 SWAP1 PUSH20 0xFFFFFFFFFFFFFFFFFFFFFFFFFFFFFFFFFFFFFFFF AND DUP4 JUMP JUMPDEST PUSH1 0x40 DUP1 MLOAD SWAP4 DUP5 MSTORE PUSH1 0x20 DUP5 ADD SWAP3 SWAP1 SWAP3 MSTORE PUSH20 0xFFFFFFFFFFFFFFFFFFFFFFFFFFFFFFFFFFFFFFFF AND SWAP1 DUP3 ADD MSTORE PUSH1 0x60 ADD PUSH2 0x7B JUMP JUMPDEST PUSH2 0x71 PUSH0 SLOAD DUP2 JUMP JUMPDEST PUSH0 TIMESTAMP PUSH1 0x2 DUP5 DUP5 PUSH1 0x40 MLOAD PUSH2 0x15B SWAP3 SWAP2 SWAP1 PUSH2 0x507 JUMP JUMPDEST SWAP1 DUP2 MSTORE PUSH1 0x40 MLOAD SWAP1 DUP2 SWAP1 SUB PUSH1 0x20 ADD DUP2 KECCAK256 SWAP2 SWAP1 SWAP2 SSTORE CALLER SWAP1 PUSH1 0x2 SWAP1 PUSH2 0x180 SWAP1 DUP7 SWAP1 DUP7 SWAP1 PUSH2 0x507 JUMP JUMPDEST SWAP1 DUP2 MSTORE PUSH1 0x40 MLOAD SWAP1 DUP2 SWAP1 SUB PUSH1 0x20 ADD DUP2 KECCAK256 PUSH1 0x2 SWAP1 DUP2 ADD DUP1 SLOAD PUSH20 0xFFFFFFFFFFFFFFFFFFFFFFFFFFFFFFFFFFFFFFFF SWAP5 SWAP1 SWAP5 AND PUSH32 0xFFFFFFFFFFFFFFFFFFFFFFFF0000000000000000000000000000000000000000 SWAP1 SWAP5 AND SWAP4 SWAP1 SWAP4 OR SWAP1 SWAP3 SSTORE PUSH2 0x1E7 SWAP1 DUP6 SWAP1 DUP6 SWAP1 PUSH2 0x507 JUMP JUMPDEST SWAP1 DUP2 MSTORE PUSH1 0x20 ADD PUSH1 0x40 MLOAD DUP1 SWAP2 SUB SWAP1 KECCAK256 PUSH1 0x1 ADD SLOAD PUSH1 0x1 PUSH2 0x205 SWAP2 SWAP1 PUSH2 0x52A JUMP JUMPDEST SWAP1 POP DUP3 DUP3 PUSH1 0x40 MLOAD PUSH2 0x217 SWAP3 SWAP2 SWAP1 PUSH2 0x507 JUMP JUMPDEST PUSH1 0x40 DUP1 MLOAD SWAP2 DUP3 SWAP1 SUB DUP3 KECCAK256 TIMESTAMP DUP4 MSTORE NUMBER PUSH1 0x20 DUP5 ADD MSTORE SWAP1 DUP3 ADD DUP4 SWAP1 MSTORE SWAP1 CALLER SWAP1 PUSH32 0x7EBC83017616F46ACF1C69DD1D6B6AF8DBD64E181A65C938F55201137B846EF3 SWAP1 PUSH1 0x60 ADD PUSH1 0x40 MLOAD DUP1 SWAP2 SUB SWAP1 LOG3 DUP1 PUSH1 0x2 DUP5 DUP5 PUSH1 0x40 MLOAD PUSH2 0x273 SWAP3 SWAP2 SWAP1 PUSH2 0x507 JUMP JUMPDEST SWAP1 DUP2 MSTORE PUSH1 0x40 MLOAD SWAP1 DUP2 SWAP1 SUB PUSH1 0x20 ADD SWAP1 KECCAK256 PUSH1 0x1 ADD SSTORE POP POP POP JUMP JUMPDEST PUSH0 PUSH1 0x60 PUSH1 0x1 SLOAD PUSH1 0x2 DUP6 DUP6 PUSH1 0x40 MLOAD PUSH2 0x2A3 SWAP3 SWAP2 SWAP1 PUSH2 0x507 JUMP JUMPDEST SWAP1 DUP2 MSTORE PUSH1 0x20 ADD PUSH1 0x40 MLOAD DUP1 SWAP2 SUB SWAP1 KECCAK256 PUSH1 0x1 ADD SLOAD LT DUP1 ISZERO PUSH2 0x2ED JUMPI POP PUSH0 SLOAD PUSH1 0x2 DUP6 DUP6 PUSH1 0x40 MLOAD PUSH2 0x2D1 SWAP3 SWAP2 SWAP1 PUSH2 0x507 JUMP JUMPDEST SWAP1 DUP2 MSTORE PUSH1 0x40 MLOAD SWAP1 DUP2 SWAP1 SUB PUSH1 0x20 ADD SWAP1 KECCAK256 SLOAD PUSH2 0x2EB SWAP1 TIMESTAMP PUSH2 0x543 JUMP JUMPDEST GT JUMPDEST ISZERO PUSH2 0x339 JUMPI PUSH1 0x1 DUP5 DUP5 DUP2 DUP2 DUP1 DUP1 PUSH1 0x1F ADD PUSH1 0x20 DUP1 SWAP2 DIV MUL PUSH1 0x20 ADD PUSH1 0x40 MLOAD SWAP1 DUP2 ADD PUSH1 0x40 MSTORE DUP1 SWAP4 SWAP3 SWAP2 SWAP1 DUP2 DUP2 MSTORE PUSH1 0x20 ADD DUP4 DUP4 DUP1 DUP3 DUP5 CALLDATACOPY PUSH0 SWAP3 ADD SWAP2 SWAP1 SWAP2 MSTORE POP SWAP6 SWAP8 POP SWAP2 SWAP6 POP PUSH2 0x37F SWAP5 POP POP POP POP POP JUMP JUMPDEST PUSH0 DUP5 DUP5 DUP2 DUP2 DUP1 DUP1 PUSH1 0x1F ADD PUSH1 0x20 DUP1 SWAP2 DIV MUL PUSH1 0x20 ADD PUSH1 0x40 MLOAD SWAP1 DUP2 ADD PUSH1 0x40 MSTORE DUP1 SWAP4 SWAP3 SWAP2 SWAP1 DUP2 DUP2 MSTORE PUSH1 0x20 ADD DUP4 DUP4 DUP1 DUP3 DUP5 CALLDATACOPY PUSH0 SWAP3 ADD SWAP2 SWAP1 SWAP2 MSTORE POP SWAP6 SWAP8 POP SWAP2 SWAP6 POP PUSH2 0x37F SWAP5 POP POP POP POP POP JUMP JUMPDEST SWAP3 POP SWAP3 SWAP1 POP JUMP JUMPDEST PUSH0 DUP1 PUSH1 0x20 DUP4 DUP6 SUB SLT ISZERO PUSH2 0x397 JUMPI PUSH0 DUP1 REVERT JUMPDEST DUP3 CALLDATALOAD PUSH8 0xFFFFFFFFFFFFFFFF DUP1 DUP3 GT ISZERO PUSH2 0x3AE JUMPI PUSH0 DUP1 REVERT JUMPDEST DUP2 DUP6 ADD SWAP2 POP DUP6 PUSH1 0x1F DUP4 ADD SLT PUSH2 0x3C1 JUMPI PUSH0 DUP1 REVERT JUMPDEST DUP2 CALLDATALOAD DUP2 DUP2 GT ISZERO PUSH2 0x3CF JUMPI PUSH0 DUP1 REVERT JUMPDEST DUP7 PUSH1 0x20 DUP3 DUP6 ADD ADD GT ISZERO PUSH2 0x3E0 JUMPI PUSH0 DUP1 REVERT JUMPDEST PUSH1 0x20 SWAP3 SWAP1 SWAP3 ADD SWAP7 SWAP2 SWAP6 POP SWAP1 SWAP4 POP POP POP POP JUMP JUMPDEST DUP3 ISZERO ISZERO DUP2 MSTORE PUSH0 PUSH1 0x20 PUSH1 0x40 PUSH1 0x20 DUP5 ADD MSTORE DUP4 MLOAD DUP1 PUSH1 0x40 DUP6 ADD MSTORE PUSH0 JUMPDEST DUP2 DUP2 LT ISZERO PUSH2 0x427 JUMPI DUP6 DUP2 ADD DUP4 ADD MLOAD DUP6 DUP3 ADD PUSH1 0x60 ADD MSTORE DUP3 ADD PUSH2 0x40B JUMP JUMPDEST POP PUSH0 PUSH1 0x60 DUP3 DUP7 ADD ADD MSTORE PUSH1 0x60 PUSH1 0x1F NOT PUSH1 0x1F DUP4 ADD AND DUP6 ADD ADD SWAP3 POP POP POP SWAP4 SWAP3 POP POP POP JUMP JUMPDEST PUSH4 0x4E487B71 PUSH1 0xE0 SHL PUSH0 MSTORE PUSH1 0x41 PUSH1 0x4 MSTORE PUSH1 0x24 PUSH0 REVERT JUMPDEST PUSH0 PUSH1 0x20 DUP3 DUP5 SUB SLT ISZERO PUSH2 0x46C JUMPI PUSH0 DUP1 REVERT JUMPDEST DUP2 CALLDATALOAD PUSH8 0xFFFFFFFFFFFFFFFF DUP1 DUP3 GT ISZERO PUSH2 0x483 JUMPI PUSH0 DUP1 REVERT JUMPDEST DUP2 DUP5 ADD SWAP2 POP DUP5 PUSH1 0x1F DUP4 ADD SLT PUSH2 0x496 JUMPI PUSH0 DUP1 REVERT JUMPDEST DUP2 CALLDATALOAD DUP2 DUP2 GT ISZERO PUSH2 0x4A8 JUMPI PUSH2 0x4A8 PUSH2 0x448 JUMP JUMPDEST PUSH1 0x40 MLOAD PUSH1 0x1F DUP3 ADD PUSH1 0x1F NOT SWAP1 DUP2 AND PUSH1 0x3F ADD AND DUP2 ADD SWAP1 DUP4 DUP3 GT DUP2 DUP4 LT OR ISZERO PUSH2 0x4D0 JUMPI PUSH2 0x4D0 PUSH2 0x448 JUMP JUMPDEST DUP2 PUSH1 0x40 MSTORE DUP3 DUP2 MSTORE DUP8 PUSH1 0x20 DUP5 DUP8 ADD ADD GT ISZERO PUSH2 0x4E8 JUMPI PUSH0 DUP1 REVERT JUMPDEST DUP3 PUSH1 0x20 DUP7 ADD PUSH1 0x20 DUP4 ADD CALLDATACOPY PUSH0 SWAP3 DUP2 ADD PUSH1 0x20 ADD SWAP3 SWAP1 SWAP3 MSTORE POP SWAP6 SWAP5 POP POP POP POP POP JUMP JUMPDEST DUP2 DUP4 DUP3 CALLDATACOPY PUSH0 SWAP2 ADD SWAP1 DUP2 MSTORE SWAP2 SWAP1 POP JUMP JUMPDEST PUSH4 0x4E487B71 PUSH1 0xE0 SHL PUSH0 MSTORE PUSH1 0x11 PUSH1 0x4 MSTORE PUSH1 0x24 PUSH0 REVERT JUMPDEST DUP1 DUP3 ADD DUP1 DUP3 GT ISZERO PUSH2 0x53D JUMPI PUSH2 0x53D PUSH2 0x516 JUMP JUMPDEST SWAP3 SWAP2 POP POP JUMP JUMPDEST DUP2 DUP2 SUB DUP2 DUP2 GT ISZERO PUSH2 0x53D JUMPI PUSH2 0x53D PUSH2 0x516 JUMP INVALID LOG2 PUSH5 0x6970667358 0x22 SLT KECCAK256 0xD9 MSTORE8 0xC9 RETURNDATASIZE RETURNDATASIZE DUP3 0xCF 0x4E 0xCA ADDMOD SWAP3 RETURNDATASIZE OR NOT SIGNEXTEND 0xC3 0xAC SDIV 0xD6 CALL 0x25 0xD2 0xE5 SUB 0xC 0xD3 PUSH19 0x5E0C7CE60B64736F6C63430008180033000000 "
				},
				"gasEstimates": {
					"creation": {
						"codeDepositCost": "284000",
						"executionCost": "44533",
						"totalCost": "328533"
					},
					"external": {
						"checkUpkeep(bytes)": "infinite",
						"interval()": "2326",
						"maxCounter()": "2284",
						"performUpkeep(bytes)": "infinite",
						"s_targets(bytes)": "infinite"
					}
				},
				"methodIdentifiers": {
					"checkUpkeep(bytes)": "6e04ff0d",
					"interval()": "947a36fb",
					"maxCounter()": "43e5553b",
					"performUpkeep(bytes)": "4585e33b",
					"s_targets(bytes)": "869d2d86"
				}
			},
			"storageLayout": {
				"storage": [
					{
						"astId": 21,
						"contract": "AutomationChainlink/CustomLogic.sol:AutoCtr1",
						"label": "interval",
						"offset": 0,
						"slot": "0",
						"type": "t_uint256"
					},
					{
						"astId": 23,
						"contract": "AutomationChainlink/CustomLogic.sol:AutoCtr1",
						"label": "maxCounter",
						"offset": 0,
						"slot": "1",
						"type": "t_uint256"
					},
					{
						"astId": 47,
						"contract": "AutomationChainlink/CustomLogic.sol:AutoCtr1",
						"label": "s_targets",
						"offset": 0,
						"slot": "2",
						"type": "t_mapping(t_bytes_memory_ptr,t_struct(Target)42_storage)"
					}
				],
				"types": {
					"t_address": {
						"encoding": "inplace",
						"label": "address",
						"numberOfBytes": "20"
					},
					"t_bytes_memory_ptr": {
						"encoding": "bytes",
						"label": "bytes",
						"numberOfBytes": "32"
					},
					"t_mapping(t_bytes_memory_ptr,t_struct(Target)42_storage)": {
						"encoding": "mapping",
						"key": "t_bytes_memory_ptr",
						"label": "mapping(bytes => struct AutoCtr1.Target)",
						"numberOfBytes": "32",
						"value": "t_struct(Target)42_storage"
					},
					"t_struct(Target)42_storage": {
						"encoding": "inplace",
						"label": "struct AutoCtr1.Target",
						"members": [
							{
								"astId": 37,
								"contract": "AutomationChainlink/CustomLogic.sol:AutoCtr1",
								"label": "lastTimeStamp",
								"offset": 0,
								"slot": "0",
								"type": "t_uint256"
							},
							{
								"astId": 39,
								"contract": "AutomationChainlink/CustomLogic.sol:AutoCtr1",
								"label": "counter",
								"offset": 0,
								"slot": "1",
								"type": "t_uint256"
							},
							{
								"astId": 41,
								"contract": "AutomationChainlink/CustomLogic.sol:AutoCtr1",
								"label": "sender",
								"offset": 0,
								"slot": "2",
								"type": "t_address"
							}
						],
						"numberOfBytes": "96"
					},
					"t_uint256": {
						"encoding": "inplace",
						"label": "uint256",
						"numberOfBytes": "32"
					}
				}
			},
			"userdoc": {
				"kind": "user",
				"methods": {},
				"version": 1
			}
		}
	}
}