{
	"data": {
		"bytecode": {
			"linkReferences": {},
			"object": "60806040525f8055348015610012575f80fd5b506101a3806100205f395ff3fe608060405234801561000f575f80fd5b506004361061003f575f3560e01c806306661abd146100435780636f72704d1461005d578063d826f88f14610070575b5f80fd5b61004b5f5481565b60405190815260200160405180910390f35b61004b61006b366004610118565b610078565b61004b6100d3565b5f815f80828254610089919061012f565b90915550505f5460408051918252436020830152839133917f5af8784c5375a746b2138424a802dfcba19fe90eb87ca3e8dc033207eb91d5ad910160405180910390a350505f5490565b5f808055604080514381526020810183905233917f68c0fc8ae3e1d3c6f6a451f4d5ee5436dd8688a9753328bdbb279c12f2c3e53d910160405180910390a2505f5490565b5f60208284031215610128575f80fd5b5035919050565b80820180821115610167577f4e487b71000000000000000000000000000000000000000000000000000000005f52601160045260245ffd5b9291505056fea2646970667358221220818cf222d1335fbe5f9f5b3133001a5291b30b83ef65e7a0e3994e22715457ee64736f6c63430008180033",
			"opcodes": "PUSH1 0x80 PUSH1 0x40 MSTORE PUSH0 DUP1 SSTORE CALLVALUE DUP1 ISZERO PUSH2 0x12 JUMPI PUSH0 DUP1 REVERT JUMPDEST POP PUSH2 0x1A3 DUP1 PUSH2 0x20 PUSH0 CODECOPY PUSH0 RETURN INVALID PUSH1 0x80 PUSH1 0x40 MSTORE CALLVALUE DUP1 ISZERO PUSH2 0xF JUMPI PUSH0 DUP1 REVERT JUMPDEST POP PUSH1 0x4 CALLDATASIZE LT PUSH2 0x3F JUMPI PUSH0 CALLDATALOAD PUSH1 0xE0 SHR DUP1 PUSH4 0x6661ABD EQ PUSH2 0x43 JUMPI DUP1 PUSH4 0x6F72704D EQ PUSH2 0x5D JUMPI DUP1 PUSH4 0xD826F88F EQ PUSH2 0x70 JUMPI JUMPDEST PUSH0 DUP1 REVERT JUMPDEST PUSH2 0x4B PUSH0 SLOAD DUP2 JUMP JUMPDEST PUSH1 0x40 MLOAD SWAP1 DUP2 MSTORE PUSH1 0x20 ADD PUSH1 0x40 MLOAD DUP1 SWAP2 SUB SWAP1 RETURN JUMPDEST PUSH2 0x4B PUSH2 0x6B CALLDATASIZE PUSH1 0x4 PUSH2 0x118 JUMP JUMPDEST PUSH2 0x78 JUMP JUMPDEST PUSH2 0x4B PUSH2 0xD3 JUMP JUMPDEST PUSH0 DUP2 PUSH0 DUP1 DUP3 DUP3 SLOAD PUSH2 0x89 SWAP2 SWAP1 PUSH2 0x12F JUMP JUMPDEST SWAP1 SWAP2 SSTORE POP POP PUSH0 SLOAD PUSH1 0x40 DUP1 MLOAD SWAP2 DUP3 MSTORE NUMBER PUSH1 0x20 DUP4 ADD MSTORE DUP4 SWAP2 CALLER SWAP2 PUSH32 0x5AF8784C5375A746B2138424A802DFCBA19FE90EB87CA3E8DC033207EB91D5AD SWAP2 ADD PUSH1 0x40 MLOAD DUP1 SWAP2 SUB SWAP1 LOG3 POP POP PUSH0 SLOAD SWAP1 JUMP JUMPDEST PUSH0 DUP1 DUP1 SSTORE PUSH1 0x40 DUP1 MLOAD NUMBER DUP2 MSTORE PUSH1 0x20 DUP2 ADD DUP4 SWAP1 MSTORE CALLER SWAP2 PUSH32 0x68C0FC8AE3E1D3C6F6A451F4D5EE5436DD8688A9753328BDBB279C12F2C3E53D SWAP2 ADD PUSH1 0x40 MLOAD DUP1 SWAP2 SUB SWAP1 LOG2 POP PUSH0 SLOAD SWAP1 JUMP JUMPDEST PUSH0 PUSH1 0x20 DUP3 DUP5 SUB SLT ISZERO PUSH2 0x128 JUMPI PUSH0 DUP1 REVERT JUMPDEST POP CALLDATALOAD SWAP2 SWAP1 POP JUMP JUMPDEST DUP1 DUP3 ADD DUP1 DUP3 GT ISZERO PUSH2 0x167 JUMPI PUSH32 0x4E487B7100000000000000000000000000000000000000000000000000000000 PUSH0 MSTORE PUSH1 0x11 PUSH1 0x4 MSTORE PUSH1 0x24 PUSH0 REVERT JUMPDEST SWAP3 SWAP2 POP POP JUMP INVALID LOG2 PUSH5 0x6970667358 0x22 SLT KECCAK256 DUP2 DUP13 CALLCODE 0x22 0xD1 CALLER PUSH0 0xBE PUSH0 SWAP16 JUMPDEST BALANCE CALLER STOP BYTE MSTORE SWAP2 0xB3 SIGNEXTEND DUP4 0xEF PUSH6 0xE7A0E3994E22 PUSH18 0x5457EE64736F6C6343000818003300000000 "
		},
		"gasEstimates": {
			"creation": {
				"codeDepositCost": "83800",
				"executionCost": "5138",
				"totalCost": "88938"
			},
			"external": {
				"addInteger(uint256)": "30861",
				"count()": "2259",
				"reset()": "9032"
			}
		},
		"methodIdentifiers": {
			"addInteger(uint256)": "6f72704d",
			"count()": "06661abd",
			"reset()": "d826f88f"
		}
	},
	"abi": [
		{
			"anonymous": false,
			"inputs": [
				{
					"indexed": true,
					"internalType": "address",
					"name": "sndrAddress",
					"type": "address"
				},
				{
					"indexed": true,
					"internalType": "uint256",
					"name": "intToAdd",
					"type": "uint256"
				},
				{
					"indexed": false,
					"internalType": "uint256",
					"name": "curcount",
					"type": "uint256"
				},
				{
					"indexed": false,
					"internalType": "uint256",
					"name": "blocknbr",
					"type": "uint256"
				}
			],
			"name": "intAdded",
			"type": "event"
		},
		{
			"anonymous": false,
			"inputs": [
				{
					"indexed": true,
					"internalType": "address",
					"name": "sndrAddress",
					"type": "address"
				},
				{
					"indexed": false,
					"internalType": "uint256",
					"name": "blocknbr",
					"type": "uint256"
				},
				{
					"indexed": false,
					"internalType": "uint256",
					"name": "curcount",
					"type": "uint256"
				}
			],
			"name": "intReset",
			"type": "event"
		},
		{
			"inputs": [
				{
					"internalType": "uint256",
					"name": "intToAdd",
					"type": "uint256"
				}
			],
			"name": "addInteger",
			"outputs": [
				{
					"internalType": "uint256",
					"name": "",
					"type": "uint256"
				}
			],
			"stateMutability": "nonpayable",
			"type": "function"
		},
		{
			"inputs": [],
			"name": "count",
			"outputs": [
				{
					"internalType": "uint256",
					"name": "",
					"type": "uint256"
				}
			],
			"stateMutability": "view",
			"type": "function"
		},
		{
			"inputs": [],
			"name": "reset",
			"outputs": [
				{
					"internalType": "uint256",
					"name": "",
					"type": "uint256"
				}
			],
			"stateMutability": "nonpayable",
			"type": "function"
		}
	]
}