{
	"VRFV2/VRFv2Consumer.sol": {
		"VRFv2Consumer": {
			"abi": [
				{
					"inputs": [
						{
							"internalType": "uint64",
							"name": "subscriptionId",
							"type": "uint64"
						}
					],
					"stateMutability": "nonpayable",
					"type": "constructor"
				},
				{
					"inputs": [
						{
							"internalType": "address",
							"name": "have",
							"type": "address"
						},
						{
							"internalType": "address",
							"name": "want",
							"type": "address"
						}
					],
					"name": "OnlyCoordinatorCanFulfill",
					"type": "error"
				},
				{
					"anonymous": false,
					"inputs": [
						{
							"indexed": true,
							"internalType": "address",
							"name": "from",
							"type": "address"
						},
						{
							"indexed": true,
							"internalType": "address",
							"name": "to",
							"type": "address"
						}
					],
					"name": "OwnershipTransferRequested",
					"type": "event"
				},
				{
					"anonymous": false,
					"inputs": [
						{
							"indexed": true,
							"internalType": "address",
							"name": "from",
							"type": "address"
						},
						{
							"indexed": true,
							"internalType": "address",
							"name": "to",
							"type": "address"
						}
					],
					"name": "OwnershipTransferred",
					"type": "event"
				},
				{
					"anonymous": false,
					"inputs": [
						{
							"indexed": false,
							"internalType": "uint256",
							"name": "requestId",
							"type": "uint256"
						},
						{
							"indexed": false,
							"internalType": "uint256[]",
							"name": "randomWords",
							"type": "uint256[]"
						}
					],
					"name": "RequestFulfilled",
					"type": "event"
				},
				{
					"anonymous": false,
					"inputs": [
						{
							"indexed": false,
							"internalType": "uint256",
							"name": "requestId",
							"type": "uint256"
						},
						{
							"indexed": false,
							"internalType": "uint32",
							"name": "numWords",
							"type": "uint32"
						}
					],
					"name": "RequestSent",
					"type": "event"
				},
				{
					"inputs": [],
					"name": "acceptOwnership",
					"outputs": [],
					"stateMutability": "nonpayable",
					"type": "function"
				},
				{
					"inputs": [
						{
							"internalType": "uint256",
							"name": "_requestId",
							"type": "uint256"
						}
					],
					"name": "getRequestStatus",
					"outputs": [
						{
							"internalType": "bool",
							"name": "fulfilled",
							"type": "bool"
						},
						{
							"internalType": "uint256[]",
							"name": "randomWords",
							"type": "uint256[]"
						}
					],
					"stateMutability": "view",
					"type": "function"
				},
				{
					"inputs": [],
					"name": "lastRequestId",
					"outputs": [
						{
							"internalType": "uint256",
							"name": "",
							"type": "uint256"
						}
					],
					"stateMutability": "view",
					"type": "function"
				},
				{
					"inputs": [],
					"name": "owner",
					"outputs": [
						{
							"internalType": "address",
							"name": "",
							"type": "address"
						}
					],
					"stateMutability": "view",
					"type": "function"
				},
				{
					"inputs": [
						{
							"internalType": "uint256",
							"name": "requestId",
							"type": "uint256"
						},
						{
							"internalType": "uint256[]",
							"name": "randomWords",
							"type": "uint256[]"
						}
					],
					"name": "rawFulfillRandomWords",
					"outputs": [],
					"stateMutability": "nonpayable",
					"type": "function"
				},
				{
					"inputs": [
						{
							"internalType": "uint256",
							"name": "",
							"type": "uint256"
						}
					],
					"name": "requestIds",
					"outputs": [
						{
							"internalType": "uint256",
							"name": "",
							"type": "uint256"
						}
					],
					"stateMutability": "view",
					"type": "function"
				},
				{
					"inputs": [],
					"name": "requestRandomWords",
					"outputs": [
						{
							"internalType": "uint256",
							"name": "requestId",
							"type": "uint256"
						}
					],
					"stateMutability": "nonpayable",
					"type": "function"
				},
				{
					"inputs": [
						{
							"internalType": "uint256",
							"name": "",
							"type": "uint256"
						}
					],
					"name": "s_requests",
					"outputs": [
						{
							"internalType": "bool",
							"name": "fulfilled",
							"type": "bool"
						},
						{
							"internalType": "bool",
							"name": "exists",
							"type": "bool"
						}
					],
					"stateMutability": "view",
					"type": "function"
				},
				{
					"inputs": [
						{
							"internalType": "address",
							"name": "to",
							"type": "address"
						}
					],
					"name": "transferOwnership",
					"outputs": [],
					"stateMutability": "nonpayable",
					"type": "function"
				}
			],
			"devdoc": {
				"kind": "dev",
				"methods": {},
				"version": 1
			},
			"evm": {
				"assembly": "    /* \"VRFV2/VRFv2Consumer.sol\":849:4417  contract VRFv2Consumer is VRFConsumerBaseV2, ConfirmedOwner {... */\n  mstore(0x40, 0xa0)\n    /* \"VRFV2/VRFv2Consumer.sol\":1791:1857  0x474e34a077df58807dbe9c96d3c009b23b3c6d0cce433e59bbf5b34f823bc56c */\n  0x474e34a077df58807dbe9c96d3c009b23b3c6d0cce433e59bbf5b34f823bc56c\n    /* \"VRFV2/VRFv2Consumer.sol\":1765:1857  bytes32 keyHash =... */\n  0x06\n  sstore\n    /* \"VRFV2/VRFv2Consumer.sol\":2274:2306  uint32 callbackGasLimit = 100000 */\n  0x07\n  dup1\n  sload\n  not(sub(shl(0x50, 0x01), 0x01))\n    /* \"VRFV2/VRFv2Consumer.sol\":2524:2543  uint32 numWords = 2 */\n  and\n  0x020003000186a0\n  or\n  swap1\n  sstore\n    /* \"VRFV2/VRFv2Consumer.sol\":2658:2981  constructor(... */\n  callvalue\n  dup1\n  iszero\n  tag_1\n  jumpi\n  0x00\n  dup1\n  revert\ntag_1:\n  pop\n  mload(0x40)\n  sub(codesize, bytecodeSize)\n  dup1\n  bytecodeSize\n  dup4\n  codecopy\n  dup2\n  add\n  0x40\n  dup2\n  swap1\n  mstore\n  tag_2\n  swap2\n  tag_3\n  jump\t// in\ntag_2:\n    /* \"VRFV2/VRFv2Consumer.sol\":2733:2775  0x8103B0A8A00be2DDC778e6e7eaa21791Cd364625 */\n  0x8103b0a8a00be2ddc778e6e7eaa21791cd364625\n    /* \"@chainlink/contracts@0.8.0/src/v0.8/vrf/VRFConsumerBaseV2.sol\":5599:5631  vrfCoordinator = _vrfCoordinator */\n  0x80\n  mstore\n    /* \"VRFV2/VRFv2Consumer.sol\":2800:2810  msg.sender */\n  caller\n  dup1\n    /* \"@chainlink/contracts@0.8.0/src/v0.8/shared/access/ConfirmedOwner.sol\":345:346  0 */\n  0x00\n    /* \"VRFV2/VRFv2Consumer.sol\":2800:2810  msg.sender */\n  dup2\n    /* \"@chainlink/contracts@0.8.0/src/v0.8/shared/access/ConfirmedOwnerWithProposal.sol\":529:588  require(newOwner != address(0), \"Cannot set owner to zero\") */\n  tag_10\n  jumpi\n  mload(0x40)\n  shl(0xe5, 0x461bcd)\n  dup2\n  mstore\n    /* \"#utility.yul\":509:511   */\n  0x20\n    /* \"@chainlink/contracts@0.8.0/src/v0.8/shared/access/ConfirmedOwnerWithProposal.sol\":529:588  require(newOwner != address(0), \"Cannot set owner to zero\") */\n  0x04\n  dup3\n  add\n    /* \"#utility.yul\":491:512   */\n  mstore\n    /* \"#utility.yul\":548:550   */\n  0x18\n    /* \"#utility.yul\":528:546   */\n  0x24\n  dup3\n  add\n    /* \"#utility.yul\":521:551   */\n  mstore\n    /* \"#utility.yul\":587:613   */\n  0x43616e6e6f7420736574206f776e657220746f207a65726f0000000000000000\n    /* \"#utility.yul\":567:585   */\n  0x44\n  dup3\n  add\n    /* \"#utility.yul\":560:614   */\n  mstore\n    /* \"#utility.yul\":631:649   */\n  0x64\n  add\n    /* \"@chainlink/contracts@0.8.0/src/v0.8/shared/access/ConfirmedOwnerWithProposal.sol\":529:588  require(newOwner != address(0), \"Cannot set owner to zero\") */\ntag_11:\n  mload(0x40)\n  dup1\n  swap2\n  sub\n  swap1\n  revert\ntag_10:\n    /* \"@chainlink/contracts@0.8.0/src/v0.8/shared/access/ConfirmedOwnerWithProposal.sol\":595:602  s_owner */\n  0x00\n    /* \"@chainlink/contracts@0.8.0/src/v0.8/shared/access/ConfirmedOwnerWithProposal.sol\":595:613  s_owner = newOwner */\n  dup1\n  sload\n  not(sub(shl(0xa0, 0x01), 0x01))\n  and\n  sub(shl(0xa0, 0x01), 0x01)\n  dup5\n  dup2\n  and\n  swap2\n  swap1\n  swap2\n  or\n  swap1\n  swap2\n  sstore\n    /* \"@chainlink/contracts@0.8.0/src/v0.8/shared/access/ConfirmedOwnerWithProposal.sol\":623:649  pendingOwner != address(0) */\n  dup2\n  and\n  iszero\n    /* \"@chainlink/contracts@0.8.0/src/v0.8/shared/access/ConfirmedOwnerWithProposal.sol\":619:698  if (pendingOwner != address(0)) {... */\n  tag_14\n  jumpi\n    /* \"@chainlink/contracts@0.8.0/src/v0.8/shared/access/ConfirmedOwnerWithProposal.sol\":659:691  _transferOwnership(pendingOwner) */\n  tag_14\n    /* \"@chainlink/contracts@0.8.0/src/v0.8/shared/access/ConfirmedOwnerWithProposal.sol\":678:690  pendingOwner */\n  dup2\n    /* \"@chainlink/contracts@0.8.0/src/v0.8/shared/access/ConfirmedOwnerWithProposal.sol\":659:677  _transferOwnership */\n  tag_15\n    /* \"@chainlink/contracts@0.8.0/src/v0.8/shared/access/ConfirmedOwnerWithProposal.sol\":659:691  _transferOwnership(pendingOwner) */\n  jump\t// in\ntag_14:\n  pop\n  pop\n    /* \"VRFV2/VRFv2Consumer.sol\":2826:2837  COORDINATOR */\n  0x03\n    /* \"VRFV2/VRFv2Consumer.sol\":2826:2931  COORDINATOR = VRFCoordinatorV2Interface(... */\n  dup1\n  sload\n  sub(shl(0x40, 0x01), 0x01)\n    /* \"VRFV2/VRFv2Consumer.sol\":2941:2974  s_subscriptionId = subscriptionId */\n  swap1\n  swap4\n  and\n  shl(0xa0, 0x01)\n  mul\n  not(sub(shl(0xe0, 0x01), 0x01))\n  swap1\n  swap4\n  and\n  swap3\n  swap1\n  swap3\n  or\n    /* \"VRFV2/VRFv2Consumer.sol\":2879:2921  0x8103B0A8A00be2DDC778e6e7eaa21791Cd364625 */\n  0x8103b0a8a00be2ddc778e6e7eaa21791cd364625\n    /* \"VRFV2/VRFv2Consumer.sol\":2941:2974  s_subscriptionId = subscriptionId */\n  or\n  swap1\n  swap2\n  sstore\n  pop\n    /* \"VRFV2/VRFv2Consumer.sol\":849:4417  contract VRFv2Consumer is VRFConsumerBaseV2, ConfirmedOwner {... */\n  jump(tag_23)\n    /* \"@chainlink/contracts@0.8.0/src/v0.8/shared/access/ConfirmedOwnerWithProposal.sol\":1482:1670  function _transferOwnership(address to) private {... */\ntag_15:\n    /* \"@chainlink/contracts@0.8.0/src/v0.8/shared/access/ConfirmedOwnerWithProposal.sol\":1550:1560  msg.sender */\n  caller\n  sub(shl(0xa0, 0x01), 0x01)\n    /* \"@chainlink/contracts@0.8.0/src/v0.8/shared/access/ConfirmedOwnerWithProposal.sol\":1544:1560  to != msg.sender */\n  dup3\n  and\n  sub\n    /* \"@chainlink/contracts@0.8.0/src/v0.8/shared/access/ConfirmedOwnerWithProposal.sol\":1536:1588  require(to != msg.sender, \"Cannot transfer to self\") */\n  tag_20\n  jumpi\n  mload(0x40)\n  shl(0xe5, 0x461bcd)\n  dup2\n  mstore\n    /* \"#utility.yul\":862:864   */\n  0x20\n    /* \"@chainlink/contracts@0.8.0/src/v0.8/shared/access/ConfirmedOwnerWithProposal.sol\":1536:1588  require(to != msg.sender, \"Cannot transfer to self\") */\n  0x04\n  dup3\n  add\n    /* \"#utility.yul\":844:865   */\n  mstore\n    /* \"#utility.yul\":901:903   */\n  0x17\n    /* \"#utility.yul\":881:899   */\n  0x24\n  dup3\n  add\n    /* \"#utility.yul\":874:904   */\n  mstore\n    /* \"#utility.yul\":940:965   */\n  0x43616e6e6f74207472616e7366657220746f2073656c66000000000000000000\n    /* \"#utility.yul\":920:938   */\n  0x44\n  dup3\n  add\n    /* \"#utility.yul\":913:966   */\n  mstore\n    /* \"#utility.yul\":983:1001   */\n  0x64\n  add\n    /* \"@chainlink/contracts@0.8.0/src/v0.8/shared/access/ConfirmedOwnerWithProposal.sol\":1536:1588  require(to != msg.sender, \"Cannot transfer to self\") */\n  tag_11\n    /* \"#utility.yul\":660:1007   */\n  jump\n    /* \"@chainlink/contracts@0.8.0/src/v0.8/shared/access/ConfirmedOwnerWithProposal.sol\":1536:1588  require(to != msg.sender, \"Cannot transfer to self\") */\ntag_20:\n    /* \"@chainlink/contracts@0.8.0/src/v0.8/shared/access/ConfirmedOwnerWithProposal.sol\":1595:1609  s_pendingOwner */\n  0x01\n    /* \"@chainlink/contracts@0.8.0/src/v0.8/shared/access/ConfirmedOwnerWithProposal.sol\":1595:1614  s_pendingOwner = to */\n  dup1\n  sload\n  not(sub(shl(0xa0, 0x01), 0x01))\n  and\n  sub(shl(0xa0, 0x01), 0x01)\n  dup4\n  dup2\n  and\n  swap2\n  dup3\n  or\n  swap1\n  swap3\n  sstore\n  0x00\n    /* \"@chainlink/contracts@0.8.0/src/v0.8/shared/access/ConfirmedOwnerWithProposal.sol\":1653:1660  s_owner */\n  dup1\n  sload\n    /* \"@chainlink/contracts@0.8.0/src/v0.8/shared/access/ConfirmedOwnerWithProposal.sol\":1626:1665  OwnershipTransferRequested(s_owner, to) */\n  mload(0x40)\n    /* \"@chainlink/contracts@0.8.0/src/v0.8/shared/access/ConfirmedOwnerWithProposal.sol\":1595:1614  s_pendingOwner = to */\n  swap3\n  swap4\n    /* \"@chainlink/contracts@0.8.0/src/v0.8/shared/access/ConfirmedOwnerWithProposal.sol\":1653:1660  s_owner */\n  and\n  swap2\n    /* \"@chainlink/contracts@0.8.0/src/v0.8/shared/access/ConfirmedOwnerWithProposal.sol\":1626:1665  OwnershipTransferRequested(s_owner, to) */\n  0xed8889f560326eb138920d842192f0eb3dd22b4f139c87a2c57538e05bae1278\n  swap2\n  swap1\n  log3\n    /* \"@chainlink/contracts@0.8.0/src/v0.8/shared/access/ConfirmedOwnerWithProposal.sol\":1482:1670  function _transferOwnership(address to) private {... */\n  pop\n  jump\t// out\n    /* \"#utility.yul\":14:302   */\ntag_3:\n    /* \"#utility.yul\":83:89   */\n  0x00\n    /* \"#utility.yul\":136:138   */\n  0x20\n    /* \"#utility.yul\":124:133   */\n  dup3\n    /* \"#utility.yul\":115:122   */\n  dup5\n    /* \"#utility.yul\":111:134   */\n  sub\n    /* \"#utility.yul\":107:139   */\n  slt\n    /* \"#utility.yul\":104:156   */\n  iszero\n  tag_25\n  jumpi\n    /* \"#utility.yul\":152:153   */\n  0x00\n    /* \"#utility.yul\":149:150   */\n  dup1\n    /* \"#utility.yul\":142:154   */\n  revert\n    /* \"#utility.yul\":104:156   */\ntag_25:\n    /* \"#utility.yul\":178:194   */\n  dup2\n  mload\n  sub(shl(0x40, 0x01), 0x01)\n    /* \"#utility.yul\":223:253   */\n  dup2\n  and\n    /* \"#utility.yul\":213:254   */\n  dup2\n  eq\n    /* \"#utility.yul\":203:272   */\n  tag_26\n  jumpi\n    /* \"#utility.yul\":268:269   */\n  0x00\n    /* \"#utility.yul\":265:266   */\n  dup1\n    /* \"#utility.yul\":258:270   */\n  revert\n    /* \"#utility.yul\":203:272   */\ntag_26:\n    /* \"#utility.yul\":291:296   */\n  swap4\n    /* \"#utility.yul\":14:302   */\n  swap3\n  pop\n  pop\n  pop\n  jump\t// out\n    /* \"#utility.yul\":660:1007   */\ntag_23:\n    /* \"VRFV2/VRFv2Consumer.sol\":849:4417  contract VRFv2Consumer is VRFConsumerBaseV2, ConfirmedOwner {... */\n  mload(0x80)\n  codecopy(0x00, dataOffset(sub_0), dataSize(sub_0))\n  0x00\n  assignImmutable(\"0x064aab4cf973af3102587bae83caeab28cf75517d40727c9b952f0d14fb521fa\")\n  return(0x00, dataSize(sub_0))\nstop\n\nsub_0: assembly {\n        /* \"VRFV2/VRFv2Consumer.sol\":849:4417  contract VRFv2Consumer is VRFConsumerBaseV2, ConfirmedOwner {... */\n      mstore(0x40, 0x80)\n      callvalue\n      dup1\n      iszero\n      tag_1\n      jumpi\n      0x00\n      dup1\n      revert\n    tag_1:\n      pop\n      jumpi(tag_2, lt(calldatasize, 0x04))\n      shr(0xe0, calldataload(0x00))\n      dup1\n      0xa168fa89\n      gt\n      tag_12\n      jumpi\n      dup1\n      0xe0c86289\n      gt\n      tag_13\n      jumpi\n      dup1\n      0xe0c86289\n      eq\n      tag_9\n      jumpi\n      dup1\n      0xf2fde38b\n      eq\n      tag_10\n      jumpi\n      dup1\n      0xfc2a88c3\n      eq\n      tag_11\n      jumpi\n      0x00\n      dup1\n      revert\n    tag_13:\n      dup1\n      0xa168fa89\n      eq\n      tag_7\n      jumpi\n      dup1\n      0xd8a4676f\n      eq\n      tag_8\n      jumpi\n      0x00\n      dup1\n      revert\n    tag_12:\n      dup1\n      0x1fe543e3\n      eq\n      tag_3\n      jumpi\n      dup1\n      0x79ba5097\n      eq\n      tag_4\n      jumpi\n      dup1\n      0x8796ba8c\n      eq\n      tag_5\n      jumpi\n      dup1\n      0x8da5cb5b\n      eq\n      tag_6\n      jumpi\n    tag_2:\n      0x00\n      dup1\n      revert\n        /* \"@chainlink/contracts@0.8.0/src/v0.8/vrf/VRFConsumerBaseV2.sol\":6618:6874  function rawFulfillRandomWords(uint256 requestId, uint256[] memory randomWords) external {... */\n    tag_3:\n      tag_14\n      tag_15\n      calldatasize\n      0x04\n      tag_16\n      jump\t// in\n    tag_15:\n      tag_17\n      jump\t// in\n    tag_14:\n      stop\n        /* \"@chainlink/contracts@0.8.0/src/v0.8/shared/access/ConfirmedOwnerWithProposal.sol\":1001:1266  function acceptOwnership() external override {... */\n    tag_4:\n      tag_14\n      tag_19\n      jump\t// in\n        /* \"VRFV2/VRFv2Consumer.sol\":1466:1493  uint256[] public requestIds */\n    tag_5:\n      tag_20\n      tag_21\n      calldatasize\n      0x04\n      tag_22\n      jump\t// in\n    tag_21:\n      tag_23\n      jump\t// in\n    tag_20:\n      mload(0x40)\n        /* \"#utility.yul\":1722:1747   */\n      swap1\n      dup2\n      mstore\n        /* \"#utility.yul\":1710:1712   */\n      0x20\n        /* \"#utility.yul\":1695:1713   */\n      add\n        /* \"VRFV2/VRFv2Consumer.sol\":1466:1493  uint256[] public requestIds */\n    tag_24:\n      mload(0x40)\n      dup1\n      swap2\n      sub\n      swap1\n      return\n        /* \"@chainlink/contracts@0.8.0/src/v0.8/shared/access/ConfirmedOwnerWithProposal.sol\":1317:1398  function owner() public view override returns (address) {... */\n    tag_6:\n        /* \"@chainlink/contracts@0.8.0/src/v0.8/shared/access/ConfirmedOwnerWithProposal.sol\":1364:1371  address */\n      0x00\n        /* \"@chainlink/contracts@0.8.0/src/v0.8/shared/access/ConfirmedOwnerWithProposal.sol\":1386:1393  s_owner */\n      sload\n        /* \"@chainlink/contracts@0.8.0/src/v0.8/shared/access/ConfirmedOwnerWithProposal.sol\":1317:1398  function owner() public view override returns (address) {... */\n      mload(0x40)\n      sub(shl(0xa0, 0x01), 0x01)\n        /* \"@chainlink/contracts@0.8.0/src/v0.8/shared/access/ConfirmedOwnerWithProposal.sol\":1386:1393  s_owner */\n      swap1\n      swap2\n      and\n        /* \"#utility.yul\":1904:1978   */\n      dup2\n      mstore\n        /* \"#utility.yul\":1892:1894   */\n      0x20\n        /* \"#utility.yul\":1877:1895   */\n      add\n        /* \"@chainlink/contracts@0.8.0/src/v0.8/shared/access/ConfirmedOwnerWithProposal.sol\":1317:1398  function owner() public view override returns (address) {... */\n      tag_24\n        /* \"#utility.yul\":1758:1984   */\n      jump\n        /* \"VRFV2/VRFv2Consumer.sol\":1239:1298  mapping(uint256 => RequestStatus)... */\n    tag_7:\n      tag_30\n      tag_31\n      calldatasize\n      0x04\n      tag_22\n      jump\t// in\n    tag_31:\n      mstore(0x20, 0x02)\n      0x00\n      swap1\n      dup2\n      mstore\n      0x40\n      swap1\n      keccak256\n      sload\n      0xff\n      dup1\n      dup3\n      and\n      swap2\n      0x0100\n      swap1\n      div\n      and\n      dup3\n      jump\n    tag_30:\n      0x40\n      dup1\n      mload\n        /* \"#utility.yul\":2176:2190   */\n      swap3\n      iszero\n        /* \"#utility.yul\":2169:2191   */\n      iszero\n        /* \"#utility.yul\":2151:2192   */\n      dup4\n      mstore\n        /* \"#utility.yul\":2235:2249   */\n      swap1\n      iszero\n        /* \"#utility.yul\":2228:2250   */\n      iszero\n        /* \"#utility.yul\":2223:2225   */\n      0x20\n        /* \"#utility.yul\":2208:2226   */\n      dup4\n      add\n        /* \"#utility.yul\":2201:2251   */\n      mstore\n        /* \"#utility.yul\":2124:2142   */\n      add\n        /* \"VRFV2/VRFv2Consumer.sol\":1239:1298  mapping(uint256 => RequestStatus)... */\n      tag_24\n        /* \"#utility.yul\":1989:2257   */\n      jump\n        /* \"VRFV2/VRFv2Consumer.sol\":4090:4415  function getRequestStatus(... */\n    tag_8:\n      tag_35\n      tag_36\n      calldatasize\n      0x04\n      tag_22\n      jump\t// in\n    tag_36:\n      tag_37\n      jump\t// in\n    tag_35:\n      mload(0x40)\n      tag_24\n      swap3\n      swap2\n      swap1\n      tag_39\n      jump\t// in\n        /* \"VRFV2/VRFv2Consumer.sol\":3043:3718  function requestRandomWords()... */\n    tag_9:\n      tag_20\n      tag_41\n      jump\t// in\n        /* \"@chainlink/contracts@0.8.0/src/v0.8/shared/access/ConfirmedOwnerWithProposal.sol\":811:909  function transferOwnership(address to) public override onlyOwner {... */\n    tag_10:\n      tag_14\n      tag_44\n      calldatasize\n      0x04\n      tag_45\n      jump\t// in\n    tag_44:\n      tag_46\n      jump\t// in\n        /* \"VRFV2/VRFv2Consumer.sol\":1499:1527  uint256 public lastRequestId */\n    tag_11:\n      tag_20\n      sload(0x05)\n      dup2\n      jump\n        /* \"@chainlink/contracts@0.8.0/src/v0.8/vrf/VRFConsumerBaseV2.sol\":6618:6874  function rawFulfillRandomWords(uint256 requestId, uint256[] memory randomWords) external {... */\n    tag_17:\n        /* \"@chainlink/contracts@0.8.0/src/v0.8/vrf/VRFConsumerBaseV2.sol\":6717:6727  msg.sender */\n      caller\n      sub(shl(0xa0, 0x01), 0x01)\n        /* \"@chainlink/contracts@0.8.0/src/v0.8/vrf/VRFConsumerBaseV2.sol\":6731:6745  vrfCoordinator */\n      immutable(\"0x064aab4cf973af3102587bae83caeab28cf75517d40727c9b952f0d14fb521fa\")\n        /* \"@chainlink/contracts@0.8.0/src/v0.8/vrf/VRFConsumerBaseV2.sol\":6717:6745  msg.sender != vrfCoordinator */\n      and\n      eq\n        /* \"@chainlink/contracts@0.8.0/src/v0.8/vrf/VRFConsumerBaseV2.sol\":6713:6822  if (msg.sender != vrfCoordinator) {... */\n      tag_51\n      jumpi\n        /* \"@chainlink/contracts@0.8.0/src/v0.8/vrf/VRFConsumerBaseV2.sol\":6762:6815  OnlyCoordinatorCanFulfill(msg.sender, vrfCoordinator) */\n      mload(0x40)\n      0x1cf993f400000000000000000000000000000000000000000000000000000000\n      dup2\n      mstore\n        /* \"@chainlink/contracts@0.8.0/src/v0.8/vrf/VRFConsumerBaseV2.sol\":6788:6798  msg.sender */\n      caller\n        /* \"@chainlink/contracts@0.8.0/src/v0.8/vrf/VRFConsumerBaseV2.sol\":6762:6815  OnlyCoordinatorCanFulfill(msg.sender, vrfCoordinator) */\n      0x04\n      dup3\n      add\n        /* \"#utility.yul\":3598:3632   */\n      mstore\n      sub(shl(0xa0, 0x01), 0x01)\n        /* \"@chainlink/contracts@0.8.0/src/v0.8/vrf/VRFConsumerBaseV2.sol\":6800:6814  vrfCoordinator */\n      immutable(\"0x064aab4cf973af3102587bae83caeab28cf75517d40727c9b952f0d14fb521fa\")\n        /* \"#utility.yul\":3668:3683   */\n      and\n        /* \"#utility.yul\":3648:3666   */\n      0x24\n      dup3\n      add\n        /* \"#utility.yul\":3641:3684   */\n      mstore\n        /* \"#utility.yul\":3510:3528   */\n      0x44\n      add\n        /* \"@chainlink/contracts@0.8.0/src/v0.8/vrf/VRFConsumerBaseV2.sol\":6762:6815  OnlyCoordinatorCanFulfill(msg.sender, vrfCoordinator) */\n    tag_52:\n      mload(0x40)\n      dup1\n      swap2\n      sub\n      swap1\n      revert\n        /* \"@chainlink/contracts@0.8.0/src/v0.8/vrf/VRFConsumerBaseV2.sol\":6713:6822  if (msg.sender != vrfCoordinator) {... */\n    tag_51:\n        /* \"@chainlink/contracts@0.8.0/src/v0.8/vrf/VRFConsumerBaseV2.sol\":6827:6869  fulfillRandomWords(requestId, randomWords) */\n      tag_54\n        /* \"@chainlink/contracts@0.8.0/src/v0.8/vrf/VRFConsumerBaseV2.sol\":6846:6855  requestId */\n      dup3\n        /* \"@chainlink/contracts@0.8.0/src/v0.8/vrf/VRFConsumerBaseV2.sol\":6857:6868  randomWords */\n      dup3\n        /* \"@chainlink/contracts@0.8.0/src/v0.8/vrf/VRFConsumerBaseV2.sol\":6827:6845  fulfillRandomWords */\n      tag_55\n        /* \"@chainlink/contracts@0.8.0/src/v0.8/vrf/VRFConsumerBaseV2.sol\":6827:6869  fulfillRandomWords(requestId, randomWords) */\n      jump\t// in\n    tag_54:\n        /* \"@chainlink/contracts@0.8.0/src/v0.8/vrf/VRFConsumerBaseV2.sol\":6618:6874  function rawFulfillRandomWords(uint256 requestId, uint256[] memory randomWords) external {... */\n      pop\n      pop\n      jump\t// out\n        /* \"@chainlink/contracts@0.8.0/src/v0.8/shared/access/ConfirmedOwnerWithProposal.sol\":1001:1266  function acceptOwnership() external override {... */\n    tag_19:\n        /* \"@chainlink/contracts@0.8.0/src/v0.8/shared/access/ConfirmedOwnerWithProposal.sol\":1074:1088  s_pendingOwner */\n      and(sub(shl(0xa0, 0x01), 0x01), sload(0x01))\n        /* \"@chainlink/contracts@0.8.0/src/v0.8/shared/access/ConfirmedOwnerWithProposal.sol\":1060:1070  msg.sender */\n      caller\n        /* \"@chainlink/contracts@0.8.0/src/v0.8/shared/access/ConfirmedOwnerWithProposal.sol\":1060:1088  msg.sender == s_pendingOwner */\n      eq\n        /* \"@chainlink/contracts@0.8.0/src/v0.8/shared/access/ConfirmedOwnerWithProposal.sol\":1052:1115  require(msg.sender == s_pendingOwner, \"Must be proposed owner\") */\n      tag_57\n      jumpi\n      mload(0x40)\n      shl(0xe5, 0x461bcd)\n      dup2\n      mstore\n        /* \"#utility.yul\":3897:3899   */\n      0x20\n        /* \"@chainlink/contracts@0.8.0/src/v0.8/shared/access/ConfirmedOwnerWithProposal.sol\":1052:1115  require(msg.sender == s_pendingOwner, \"Must be proposed owner\") */\n      0x04\n      dup3\n      add\n        /* \"#utility.yul\":3879:3900   */\n      mstore\n        /* \"#utility.yul\":3936:3938   */\n      0x16\n        /* \"#utility.yul\":3916:3934   */\n      0x24\n      dup3\n      add\n        /* \"#utility.yul\":3909:3939   */\n      mstore\n        /* \"#utility.yul\":3975:3999   */\n      0x4d7573742062652070726f706f736564206f776e657200000000000000000000\n        /* \"#utility.yul\":3955:3973   */\n      0x44\n      dup3\n      add\n        /* \"#utility.yul\":3948:4000   */\n      mstore\n        /* \"#utility.yul\":4017:4035   */\n      0x64\n      add\n        /* \"@chainlink/contracts@0.8.0/src/v0.8/shared/access/ConfirmedOwnerWithProposal.sol\":1052:1115  require(msg.sender == s_pendingOwner, \"Must be proposed owner\") */\n      tag_52\n        /* \"#utility.yul\":3695:4041   */\n      jump\n        /* \"@chainlink/contracts@0.8.0/src/v0.8/shared/access/ConfirmedOwnerWithProposal.sol\":1052:1115  require(msg.sender == s_pendingOwner, \"Must be proposed owner\") */\n    tag_57:\n        /* \"@chainlink/contracts@0.8.0/src/v0.8/shared/access/ConfirmedOwnerWithProposal.sol\":1122:1138  address oldOwner */\n      0x00\n        /* \"@chainlink/contracts@0.8.0/src/v0.8/shared/access/ConfirmedOwnerWithProposal.sol\":1141:1148  s_owner */\n      dup1\n      sload\n        /* \"@chainlink/contracts@0.8.0/src/v0.8/shared/access/ConfirmedOwnerWithProposal.sol\":1164:1174  msg.sender */\n      caller\n      not(0xffffffffffffffffffffffffffffffffffffffff)\n        /* \"@chainlink/contracts@0.8.0/src/v0.8/shared/access/ConfirmedOwnerWithProposal.sol\":1154:1174  s_owner = msg.sender */\n      dup1\n      dup4\n      and\n      dup3\n      or\n      dup5\n      sstore\n      0x01\n        /* \"@chainlink/contracts@0.8.0/src/v0.8/shared/access/ConfirmedOwnerWithProposal.sol\":1180:1207  s_pendingOwner = address(0) */\n      dup1\n      sload\n      swap1\n      swap2\n      and\n      swap1\n      sstore\n        /* \"@chainlink/contracts@0.8.0/src/v0.8/shared/access/ConfirmedOwnerWithProposal.sol\":1219:1261  OwnershipTransferred(oldOwner, msg.sender) */\n      mload(0x40)\n      sub(shl(0xa0, 0x01), 0x01)\n        /* \"@chainlink/contracts@0.8.0/src/v0.8/shared/access/ConfirmedOwnerWithProposal.sol\":1141:1148  s_owner */\n      swap1\n      swap3\n      and\n      swap3\n        /* \"@chainlink/contracts@0.8.0/src/v0.8/shared/access/ConfirmedOwnerWithProposal.sol\":1164:1174  msg.sender */\n      swap1\n      swap2\n        /* \"@chainlink/contracts@0.8.0/src/v0.8/shared/access/ConfirmedOwnerWithProposal.sol\":1141:1148  s_owner */\n      dup4\n      swap2\n        /* \"@chainlink/contracts@0.8.0/src/v0.8/shared/access/ConfirmedOwnerWithProposal.sol\":1219:1261  OwnershipTransferred(oldOwner, msg.sender) */\n      0x8be0079c531659141344cd1fd0a4f28419497f9722a3daafe3b4186f6b6457e0\n      swap2\n      log3\n        /* \"@chainlink/contracts@0.8.0/src/v0.8/shared/access/ConfirmedOwnerWithProposal.sol\":1046:1266  {... */\n      pop\n        /* \"@chainlink/contracts@0.8.0/src/v0.8/shared/access/ConfirmedOwnerWithProposal.sol\":1001:1266  function acceptOwnership() external override {... */\n      jump\t// out\n        /* \"VRFV2/VRFv2Consumer.sol\":1466:1493  uint256[] public requestIds */\n    tag_23:\n      0x04\n      dup2\n      dup2\n      sload\n      dup2\n      lt\n      tag_60\n      jumpi\n      0x00\n      dup1\n      revert\n    tag_60:\n      0x00\n      swap2\n      dup3\n      mstore\n      0x20\n      swap1\n      swap2\n      keccak256\n      add\n      sload\n      swap1\n      pop\n      dup2\n      jump\t// out\n        /* \"VRFV2/VRFv2Consumer.sol\":4090:4415  function getRequestStatus(... */\n    tag_37:\n        /* \"VRFV2/VRFv2Consumer.sol\":4173:4187  bool fulfilled */\n      0x00\n        /* \"VRFV2/VRFv2Consumer.sol\":4237:4259  s_requests[_requestId] */\n      dup2\n      dup2\n      mstore\n        /* \"VRFV2/VRFv2Consumer.sol\":4237:4247  s_requests */\n      0x02\n        /* \"VRFV2/VRFv2Consumer.sol\":4237:4259  s_requests[_requestId] */\n      0x20\n      mstore\n      0x40\n      dup2\n      keccak256\n        /* \"VRFV2/VRFv2Consumer.sol\":4237:4266  s_requests[_requestId].exists */\n      sload\n        /* \"VRFV2/VRFv2Consumer.sol\":4189:4217  uint256[] memory randomWords */\n      0x60\n      swap1\n        /* \"VRFV2/VRFv2Consumer.sol\":4237:4266  s_requests[_requestId].exists */\n      0x0100\n      swap1\n      div\n      0xff\n      and\n        /* \"VRFV2/VRFv2Consumer.sol\":4229:4288  require(s_requests[_requestId].exists, \"request not found\") */\n      tag_64\n      jumpi\n      mload(0x40)\n      shl(0xe5, 0x461bcd)\n      dup2\n      mstore\n        /* \"#utility.yul\":4248:4250   */\n      0x20\n        /* \"VRFV2/VRFv2Consumer.sol\":4229:4288  require(s_requests[_requestId].exists, \"request not found\") */\n      0x04\n      dup3\n      add\n        /* \"#utility.yul\":4230:4251   */\n      mstore\n        /* \"#utility.yul\":4287:4289   */\n      0x11\n        /* \"#utility.yul\":4267:4285   */\n      0x24\n      dup3\n      add\n        /* \"#utility.yul\":4260:4290   */\n      mstore\n        /* \"#utility.yul\":4326:4345   */\n      0x72657175657374206e6f7420666f756e64000000000000000000000000000000\n        /* \"#utility.yul\":4306:4324   */\n      0x44\n      dup3\n      add\n        /* \"#utility.yul\":4299:4346   */\n      mstore\n        /* \"#utility.yul\":4363:4381   */\n      0x64\n      add\n        /* \"VRFV2/VRFv2Consumer.sol\":4229:4288  require(s_requests[_requestId].exists, \"request not found\") */\n      tag_52\n        /* \"#utility.yul\":4046:4387   */\n      jump\n        /* \"VRFV2/VRFv2Consumer.sol\":4229:4288  require(s_requests[_requestId].exists, \"request not found\") */\n    tag_64:\n        /* \"VRFV2/VRFv2Consumer.sol\":4298:4326  RequestStatus memory request */\n      0x00\n        /* \"VRFV2/VRFv2Consumer.sol\":4329:4351  s_requests[_requestId] */\n      dup4\n      dup2\n      mstore\n        /* \"VRFV2/VRFv2Consumer.sol\":4329:4339  s_requests */\n      0x02\n        /* \"VRFV2/VRFv2Consumer.sol\":4329:4351  s_requests[_requestId] */\n      0x20\n      swap1\n      dup2\n      mstore\n      0x40\n      dup1\n      dup4\n      keccak256\n        /* \"VRFV2/VRFv2Consumer.sol\":4298:4351  RequestStatus memory request = s_requests[_requestId] */\n      dup2\n      mload\n      0x60\n      dup2\n      add\n      dup4\n      mstore\n      dup2\n      sload\n      0xff\n      dup1\n      dup3\n      and\n      iszero\n      iszero\n      dup4\n      mstore\n      0x0100\n      swap1\n      swap2\n      div\n      and\n      iszero\n      iszero\n      dup2\n      dup6\n      add\n      mstore\n      0x01\n      dup3\n      add\n      dup1\n      sload\n      dup5\n      mload\n      dup2\n      dup8\n      mul\n      dup2\n      add\n      dup8\n      add\n      dup7\n      mstore\n      dup2\n      dup2\n      mstore\n      swap3\n      swap6\n        /* \"VRFV2/VRFv2Consumer.sol\":4329:4351  s_requests[_requestId] */\n      swap4\n      swap5\n        /* \"VRFV2/VRFv2Consumer.sol\":4298:4351  RequestStatus memory request = s_requests[_requestId] */\n      dup7\n      add\n      swap4\n      dup4\n      add\n      dup3\n      dup3\n      dup1\n      iszero\n      tag_67\n      jumpi\n      0x20\n      mul\n      dup3\n      add\n      swap2\n      swap1\n      0x00\n      mstore\n      keccak256(0x00, 0x20)\n      swap1\n    tag_68:\n      dup2\n      sload\n      dup2\n      mstore\n      0x20\n      add\n      swap1\n      0x01\n      add\n      swap1\n      dup1\n      dup4\n      gt\n      tag_68\n      jumpi\n    tag_67:\n      pop\n      pop\n      pop\n      pop\n      pop\n      dup2\n      mstore\n      pop\n      pop\n      swap1\n      pop\n        /* \"VRFV2/VRFv2Consumer.sol\":4369:4376  request */\n      dup1\n        /* \"VRFV2/VRFv2Consumer.sol\":4369:4386  request.fulfilled */\n      0x00\n      add\n      mload\n        /* \"VRFV2/VRFv2Consumer.sol\":4388:4395  request */\n      dup2\n        /* \"VRFV2/VRFv2Consumer.sol\":4388:4407  request.randomWords */\n      0x40\n      add\n      mload\n        /* \"VRFV2/VRFv2Consumer.sol\":4361:4408  return (request.fulfilled, request.randomWords) */\n      swap3\n      pop\n      swap3\n      pop\n      pop\n        /* \"VRFV2/VRFv2Consumer.sol\":4090:4415  function getRequestStatus(... */\n      swap2\n      pop\n      swap2\n      jump\t// out\n        /* \"VRFV2/VRFv2Consumer.sol\":3043:3718  function requestRandomWords()... */\n    tag_41:\n        /* \"VRFV2/VRFv2Consumer.sol\":3125:3142  uint256 requestId */\n      0x00\n        /* \"@chainlink/contracts@0.8.0/src/v0.8/shared/access/ConfirmedOwnerWithProposal.sol\":1941:1961  _validateOwnership() */\n      tag_70\n        /* \"@chainlink/contracts@0.8.0/src/v0.8/shared/access/ConfirmedOwnerWithProposal.sol\":1941:1959  _validateOwnership */\n      tag_71\n        /* \"@chainlink/contracts@0.8.0/src/v0.8/shared/access/ConfirmedOwnerWithProposal.sol\":1941:1961  _validateOwnership() */\n      jump\t// in\n    tag_70:\n        /* \"VRFV2/VRFv2Consumer.sol\":3232:3243  COORDINATOR */\n      sload(0x03)\n        /* \"VRFV2/VRFv2Consumer.sol\":3276:3283  keyHash */\n      sload(0x06)\n        /* \"VRFV2/VRFv2Consumer.sol\":3327:3347  requestConfirmations */\n      sload(0x07)\n        /* \"VRFV2/VRFv2Consumer.sol\":3232:3409  COORDINATOR.requestRandomWords(... */\n      mload(0x40)\n      0x5d3b1d3000000000000000000000000000000000000000000000000000000000\n      dup2\n      mstore\n        /* \"VRFV2/VRFv2Consumer.sol\":3327:3347  requestConfirmations */\n      0x04\n        /* \"VRFV2/VRFv2Consumer.sol\":3232:3409  COORDINATOR.requestRandomWords(... */\n      dup2\n      add\n        /* \"#utility.yul\":4643:4668   */\n      swap3\n      swap1\n      swap3\n      mstore\n        /* \"VRFV2/VRFv2Consumer.sol\":3297:3313  s_subscriptionId */\n      0x010000000000000000000000000000000000000000\n      dup4\n      div\n      0xffffffffffffffff\n      and\n        /* \"#utility.yul\":4684:4702   */\n      0x24\n      dup4\n      add\n        /* \"#utility.yul\":4677:4736   */\n      mstore\n        /* \"VRFV2/VRFv2Consumer.sol\":3327:3347  requestConfirmations */\n      0x0100000000\n      dup2\n      div\n      0xffff\n      and\n        /* \"#utility.yul\":4752:4770   */\n      0x44\n      dup4\n      add\n        /* \"#utility.yul\":4745:4792   */\n      mstore\n        /* \"VRFV2/VRFv2Consumer.sol\":3361:3377  callbackGasLimit */\n      0xffffffff\n      dup1\n      dup3\n      and\n        /* \"#utility.yul\":4837:4855   */\n      0x64\n      dup5\n      add\n        /* \"#utility.yul\":4830:4873   */\n      mstore\n        /* \"VRFV2/VRFv2Consumer.sol\":3391:3399  numWords */\n      0x01000000000000\n      swap1\n      swap2\n      div\n      and\n        /* \"#utility.yul\":4889:4908   */\n      0x84\n      dup3\n      add\n        /* \"#utility.yul\":4882:4926   */\n      mstore\n      sub(shl(0xa0, 0x01), 0x01)\n        /* \"VRFV2/VRFv2Consumer.sol\":3232:3243  COORDINATOR */\n      swap1\n      swap2\n      and\n      swap1\n        /* \"VRFV2/VRFv2Consumer.sol\":3232:3262  COORDINATOR.requestRandomWords */\n      0x5d3b1d30\n      swap1\n        /* \"#utility.yul\":4615:4634   */\n      0xa4\n      add\n        /* \"VRFV2/VRFv2Consumer.sol\":3232:3409  COORDINATOR.requestRandomWords(... */\n      0x20\n      mload(0x40)\n      dup1\n      dup4\n      sub\n      dup2\n      0x00\n      dup8\n      gas\n      call\n      iszero\n      dup1\n      iszero\n      tag_76\n      jumpi\n      returndatasize\n      0x00\n      dup1\n      returndatacopy\n      revert(0x00, returndatasize)\n    tag_76:\n      pop\n      pop\n      pop\n      pop\n      mload(0x40)\n      returndatasize\n      not(0x1f)\n      0x1f\n      dup3\n      add\n      and\n      dup3\n      add\n      dup1\n      0x40\n      mstore\n      pop\n      dup2\n      add\n      swap1\n      tag_77\n      swap2\n      swap1\n      tag_78\n      jump\t// in\n    tag_77:\n        /* \"VRFV2/VRFv2Consumer.sol\":3443:3567  RequestStatus({... */\n      0x40\n      dup1\n      mload\n      0x60\n      dup2\n      add\n      dup3\n      mstore\n      0x00\n      dup1\n      dup3\n      mstore\n      0x01\n      0x20\n      dup1\n      dup5\n      add\n      dup3\n      dup2\n      mstore\n        /* \"VRFV2/VRFv2Consumer.sol\":3484:3500  new uint256[](0) */\n      dup6\n      mload\n      dup5\n      dup2\n      mstore\n      dup1\n      dup4\n      add\n      dup8\n      mstore\n        /* \"VRFV2/VRFv2Consumer.sol\":3443:3567  RequestStatus({... */\n      dup6\n      dup8\n      add\n      swap1\n      dup2\n      mstore\n        /* \"VRFV2/VRFv2Consumer.sol\":3419:3440  s_requests[requestId] */\n      dup8\n      dup6\n      mstore\n        /* \"VRFV2/VRFv2Consumer.sol\":3419:3429  s_requests */\n      0x02\n        /* \"VRFV2/VRFv2Consumer.sol\":3419:3440  s_requests[requestId] */\n      dup4\n      mstore\n      swap6\n      swap1\n      swap4\n      keccak256\n        /* \"VRFV2/VRFv2Consumer.sol\":3419:3567  s_requests[requestId] = RequestStatus({... */\n      dup5\n      mload\n      dup2\n      sload\n      swap5\n      mload\n      not(0xffff)\n      swap1\n      swap6\n      and\n      swap1\n      iszero\n      iszero\n      not(0xff00)\n      and\n      or\n      0x0100\n      swap5\n      iszero\n      iszero\n      swap5\n      swap1\n      swap5\n      mul\n      swap4\n      swap1\n      swap4\n      or\n      dup4\n      sstore\n      swap4\n      mload\n      dup1\n      mload\n        /* \"VRFV2/VRFv2Consumer.sol\":3220:3409  requestId = COORDINATOR.requestRandomWords(... */\n      swap6\n      swap7\n      pop\n        /* \"VRFV2/VRFv2Consumer.sol\":3443:3567  RequestStatus({... */\n      swap3\n      swap5\n        /* \"VRFV2/VRFv2Consumer.sol\":3419:3440  s_requests[requestId] */\n      swap2\n      swap4\n        /* \"VRFV2/VRFv2Consumer.sol\":3419:3567  s_requests[requestId] = RequestStatus({... */\n      tag_83\n      swap4\n      swap2\n      dup6\n      add\n      swap3\n      swap2\n      add\n      swap1\n      tag_84\n      jump\t// in\n    tag_83:\n      pop\n      pop\n        /* \"VRFV2/VRFv2Consumer.sol\":3577:3587  requestIds */\n      0x04\n        /* \"VRFV2/VRFv2Consumer.sol\":3577:3603  requestIds.push(requestId) */\n      dup1\n      sload\n      0x01\n      dup2\n      add\n      dup3\n      sstore\n      0x00\n      swap2\n      swap1\n      swap2\n      mstore\n      0x8a35acfbc15ff81a39ae7d344fd709f28e8600b4aa8c65c6b64bfe7fe36bd19b\n      add\n      dup3\n      swap1\n      sstore\n      pop\n        /* \"VRFV2/VRFv2Consumer.sol\":3613:3626  lastRequestId */\n      0x05\n        /* \"VRFV2/VRFv2Consumer.sol\":3613:3638  lastRequestId = requestId */\n      dup2\n      swap1\n      sstore\n        /* \"VRFV2/VRFv2Consumer.sol\":3676:3684  numWords */\n      sload(0x07)\n        /* \"VRFV2/VRFv2Consumer.sol\":3653:3685  RequestSent(requestId, numWords) */\n      0x40\n      dup1\n      mload\n        /* \"#utility.yul\":5298:5323   */\n      dup4\n      dup2\n      mstore\n        /* \"VRFV2/VRFv2Consumer.sol\":3676:3684  numWords */\n      0x01000000000000\n      swap1\n      swap3\n      div\n      0xffffffff\n      and\n        /* \"#utility.yul\":5354:5356   */\n      0x20\n        /* \"#utility.yul\":5339:5357   */\n      dup4\n      add\n        /* \"#utility.yul\":5332:5383   */\n      mstore\n        /* \"VRFV2/VRFv2Consumer.sol\":3653:3685  RequestSent(requestId, numWords) */\n      0xcc58b13ad3eab50626c6a6300b1d139cd6ebb1688a7cced9461c2f7e762665ee\n      swap2\n        /* \"#utility.yul\":5271:5289   */\n      add\n        /* \"VRFV2/VRFv2Consumer.sol\":3653:3685  RequestSent(requestId, numWords) */\n      mload(0x40)\n      dup1\n      swap2\n      sub\n      swap1\n      log1\n        /* \"VRFV2/VRFv2Consumer.sol\":3043:3718  function requestRandomWords()... */\n      swap1\n      jump\t// out\n        /* \"@chainlink/contracts@0.8.0/src/v0.8/shared/access/ConfirmedOwnerWithProposal.sol\":811:909  function transferOwnership(address to) public override onlyOwner {... */\n    tag_46:\n        /* \"@chainlink/contracts@0.8.0/src/v0.8/shared/access/ConfirmedOwnerWithProposal.sol\":1941:1961  _validateOwnership() */\n      tag_89\n        /* \"@chainlink/contracts@0.8.0/src/v0.8/shared/access/ConfirmedOwnerWithProposal.sol\":1941:1959  _validateOwnership */\n      tag_71\n        /* \"@chainlink/contracts@0.8.0/src/v0.8/shared/access/ConfirmedOwnerWithProposal.sol\":1941:1961  _validateOwnership() */\n      jump\t// in\n    tag_89:\n        /* \"@chainlink/contracts@0.8.0/src/v0.8/shared/access/ConfirmedOwnerWithProposal.sol\":882:904  _transferOwnership(to) */\n      tag_91\n        /* \"@chainlink/contracts@0.8.0/src/v0.8/shared/access/ConfirmedOwnerWithProposal.sol\":901:903  to */\n      dup2\n        /* \"@chainlink/contracts@0.8.0/src/v0.8/shared/access/ConfirmedOwnerWithProposal.sol\":882:900  _transferOwnership */\n      tag_92\n        /* \"@chainlink/contracts@0.8.0/src/v0.8/shared/access/ConfirmedOwnerWithProposal.sol\":882:904  _transferOwnership(to) */\n      jump\t// in\n    tag_91:\n        /* \"@chainlink/contracts@0.8.0/src/v0.8/shared/access/ConfirmedOwnerWithProposal.sol\":811:909  function transferOwnership(address to) public override onlyOwner {... */\n      pop\n      jump\t// out\n        /* \"VRFV2/VRFv2Consumer.sol\":3724:4084  function fulfillRandomWords(... */\n    tag_55:\n        /* \"VRFV2/VRFv2Consumer.sol\":3861:3883  s_requests[_requestId] */\n      0x00\n      dup3\n      dup2\n      mstore\n        /* \"VRFV2/VRFv2Consumer.sol\":3861:3871  s_requests */\n      0x02\n        /* \"VRFV2/VRFv2Consumer.sol\":3861:3883  s_requests[_requestId] */\n      0x20\n      mstore\n      0x40\n      swap1\n      keccak256\n        /* \"VRFV2/VRFv2Consumer.sol\":3861:3890  s_requests[_requestId].exists */\n      sload\n      0x0100\n      swap1\n      div\n      0xff\n      and\n        /* \"VRFV2/VRFv2Consumer.sol\":3853:3912  require(s_requests[_requestId].exists, \"request not found\") */\n      tag_94\n      jumpi\n      mload(0x40)\n      shl(0xe5, 0x461bcd)\n      dup2\n      mstore\n        /* \"#utility.yul\":4248:4250   */\n      0x20\n        /* \"VRFV2/VRFv2Consumer.sol\":3853:3912  require(s_requests[_requestId].exists, \"request not found\") */\n      0x04\n      dup3\n      add\n        /* \"#utility.yul\":4230:4251   */\n      mstore\n        /* \"#utility.yul\":4287:4289   */\n      0x11\n        /* \"#utility.yul\":4267:4285   */\n      0x24\n      dup3\n      add\n        /* \"#utility.yul\":4260:4290   */\n      mstore\n        /* \"#utility.yul\":4326:4345   */\n      0x72657175657374206e6f7420666f756e64000000000000000000000000000000\n        /* \"#utility.yul\":4306:4324   */\n      0x44\n      dup3\n      add\n        /* \"#utility.yul\":4299:4346   */\n      mstore\n        /* \"#utility.yul\":4363:4381   */\n      0x64\n      add\n        /* \"VRFV2/VRFv2Consumer.sol\":3853:3912  require(s_requests[_requestId].exists, \"request not found\") */\n      tag_52\n        /* \"#utility.yul\":4046:4387   */\n      jump\n        /* \"VRFV2/VRFv2Consumer.sol\":3853:3912  require(s_requests[_requestId].exists, \"request not found\") */\n    tag_94:\n        /* \"VRFV2/VRFv2Consumer.sol\":3922:3944  s_requests[_requestId] */\n      0x00\n      dup3\n      dup2\n      mstore\n        /* \"VRFV2/VRFv2Consumer.sol\":3922:3932  s_requests */\n      0x02\n        /* \"VRFV2/VRFv2Consumer.sol\":3922:3944  s_requests[_requestId] */\n      0x20\n      swap1\n      dup2\n      mstore\n      0x40\n      swap1\n      swap2\n      keccak256\n        /* \"VRFV2/VRFv2Consumer.sol\":3922:3961  s_requests[_requestId].fulfilled = true */\n      dup1\n      sload\n      not(0xff)\n      and\n        /* \"VRFV2/VRFv2Consumer.sol\":3957:3961  true */\n      0x01\n        /* \"VRFV2/VRFv2Consumer.sol\":3922:3961  s_requests[_requestId].fulfilled = true */\n      swap1\n      dup2\n      or\n      dup3\n      sstore\n        /* \"VRFV2/VRFv2Consumer.sol\":3971:4020  s_requests[_requestId].randomWords = _randomWords */\n      dup4\n      mload\n      tag_96\n      swap4\n        /* \"VRFV2/VRFv2Consumer.sol\":3971:4005  s_requests[_requestId].randomWords */\n      swap3\n      swap1\n      swap2\n      add\n      swap2\n        /* \"VRFV2/VRFv2Consumer.sol\":3971:4020  s_requests[_requestId].randomWords = _randomWords */\n      dup5\n      add\n      swap1\n      tag_84\n      jump\t// in\n    tag_96:\n      pop\n        /* \"VRFV2/VRFv2Consumer.sol\":4035:4077  RequestFulfilled(_requestId, _randomWords) */\n      0xfe2e2d779dba245964d4e3ef9b994be63856fd568bf7d3ca9e224755cb1bd54d\n        /* \"VRFV2/VRFv2Consumer.sol\":4052:4062  _requestId */\n      dup3\n        /* \"VRFV2/VRFv2Consumer.sol\":4064:4076  _randomWords */\n      dup3\n        /* \"VRFV2/VRFv2Consumer.sol\":4035:4077  RequestFulfilled(_requestId, _randomWords) */\n      mload(0x40)\n      tag_97\n      swap3\n      swap2\n      swap1\n      tag_98\n      jump\t// in\n    tag_97:\n      mload(0x40)\n      dup1\n      swap2\n      sub\n      swap1\n      log1\n        /* \"VRFV2/VRFv2Consumer.sol\":3724:4084  function fulfillRandomWords(... */\n      pop\n      pop\n      jump\t// out\n        /* \"@chainlink/contracts@0.8.0/src/v0.8/shared/access/ConfirmedOwnerWithProposal.sol\":1715:1826  function _validateOwnership() internal view {... */\n    tag_71:\n        /* \"@chainlink/contracts@0.8.0/src/v0.8/shared/access/ConfirmedOwnerWithProposal.sol\":1787:1794  s_owner */\n      and(sub(shl(0xa0, 0x01), 0x01), sload(0x00))\n        /* \"@chainlink/contracts@0.8.0/src/v0.8/shared/access/ConfirmedOwnerWithProposal.sol\":1773:1783  msg.sender */\n      caller\n        /* \"@chainlink/contracts@0.8.0/src/v0.8/shared/access/ConfirmedOwnerWithProposal.sol\":1773:1794  msg.sender == s_owner */\n      eq\n        /* \"@chainlink/contracts@0.8.0/src/v0.8/shared/access/ConfirmedOwnerWithProposal.sol\":1765:1821  require(msg.sender == s_owner, \"Only callable by owner\") */\n      tag_100\n      jumpi\n      mload(0x40)\n      shl(0xe5, 0x461bcd)\n      dup2\n      mstore\n        /* \"#utility.yul\":5933:5935   */\n      0x20\n        /* \"@chainlink/contracts@0.8.0/src/v0.8/shared/access/ConfirmedOwnerWithProposal.sol\":1765:1821  require(msg.sender == s_owner, \"Only callable by owner\") */\n      0x04\n      dup3\n      add\n        /* \"#utility.yul\":5915:5936   */\n      mstore\n        /* \"#utility.yul\":5972:5974   */\n      0x16\n        /* \"#utility.yul\":5952:5970   */\n      0x24\n      dup3\n      add\n        /* \"#utility.yul\":5945:5975   */\n      mstore\n        /* \"#utility.yul\":6011:6035   */\n      0x4f6e6c792063616c6c61626c65206279206f776e657200000000000000000000\n        /* \"#utility.yul\":5991:6009   */\n      0x44\n      dup3\n      add\n        /* \"#utility.yul\":5984:6036   */\n      mstore\n        /* \"#utility.yul\":6053:6071   */\n      0x64\n      add\n        /* \"@chainlink/contracts@0.8.0/src/v0.8/shared/access/ConfirmedOwnerWithProposal.sol\":1765:1821  require(msg.sender == s_owner, \"Only callable by owner\") */\n      tag_52\n        /* \"#utility.yul\":5731:6077   */\n      jump\n        /* \"@chainlink/contracts@0.8.0/src/v0.8/shared/access/ConfirmedOwnerWithProposal.sol\":1765:1821  require(msg.sender == s_owner, \"Only callable by owner\") */\n    tag_100:\n        /* \"@chainlink/contracts@0.8.0/src/v0.8/shared/access/ConfirmedOwnerWithProposal.sol\":1715:1826  function _validateOwnership() internal view {... */\n      jump\t// out\n        /* \"@chainlink/contracts@0.8.0/src/v0.8/shared/access/ConfirmedOwnerWithProposal.sol\":1482:1670  function _transferOwnership(address to) private {... */\n    tag_92:\n        /* \"@chainlink/contracts@0.8.0/src/v0.8/shared/access/ConfirmedOwnerWithProposal.sol\":1550:1560  msg.sender */\n      caller\n      sub(shl(0xa0, 0x01), 0x01)\n        /* \"@chainlink/contracts@0.8.0/src/v0.8/shared/access/ConfirmedOwnerWithProposal.sol\":1544:1560  to != msg.sender */\n      dup3\n      and\n      sub\n        /* \"@chainlink/contracts@0.8.0/src/v0.8/shared/access/ConfirmedOwnerWithProposal.sol\":1536:1588  require(to != msg.sender, \"Cannot transfer to self\") */\n      tag_104\n      jumpi\n      mload(0x40)\n      shl(0xe5, 0x461bcd)\n      dup2\n      mstore\n        /* \"#utility.yul\":6284:6286   */\n      0x20\n        /* \"@chainlink/contracts@0.8.0/src/v0.8/shared/access/ConfirmedOwnerWithProposal.sol\":1536:1588  require(to != msg.sender, \"Cannot transfer to self\") */\n      0x04\n      dup3\n      add\n        /* \"#utility.yul\":6266:6287   */\n      mstore\n        /* \"#utility.yul\":6323:6325   */\n      0x17\n        /* \"#utility.yul\":6303:6321   */\n      0x24\n      dup3\n      add\n        /* \"#utility.yul\":6296:6326   */\n      mstore\n        /* \"#utility.yul\":6362:6387   */\n      0x43616e6e6f74207472616e7366657220746f2073656c66000000000000000000\n        /* \"#utility.yul\":6342:6360   */\n      0x44\n      dup3\n      add\n        /* \"#utility.yul\":6335:6388   */\n      mstore\n        /* \"#utility.yul\":6405:6423   */\n      0x64\n      add\n        /* \"@chainlink/contracts@0.8.0/src/v0.8/shared/access/ConfirmedOwnerWithProposal.sol\":1536:1588  require(to != msg.sender, \"Cannot transfer to self\") */\n      tag_52\n        /* \"#utility.yul\":6082:6429   */\n      jump\n        /* \"@chainlink/contracts@0.8.0/src/v0.8/shared/access/ConfirmedOwnerWithProposal.sol\":1536:1588  require(to != msg.sender, \"Cannot transfer to self\") */\n    tag_104:\n        /* \"@chainlink/contracts@0.8.0/src/v0.8/shared/access/ConfirmedOwnerWithProposal.sol\":1595:1609  s_pendingOwner */\n      0x01\n        /* \"@chainlink/contracts@0.8.0/src/v0.8/shared/access/ConfirmedOwnerWithProposal.sol\":1595:1614  s_pendingOwner = to */\n      dup1\n      sload\n      not(0xffffffffffffffffffffffffffffffffffffffff)\n      and\n      sub(shl(0xa0, 0x01), 0x01)\n      dup4\n      dup2\n      and\n      swap2\n      dup3\n      or\n      swap1\n      swap3\n      sstore\n      0x00\n        /* \"@chainlink/contracts@0.8.0/src/v0.8/shared/access/ConfirmedOwnerWithProposal.sol\":1653:1660  s_owner */\n      dup1\n      sload\n        /* \"@chainlink/contracts@0.8.0/src/v0.8/shared/access/ConfirmedOwnerWithProposal.sol\":1626:1665  OwnershipTransferRequested(s_owner, to) */\n      mload(0x40)\n        /* \"@chainlink/contracts@0.8.0/src/v0.8/shared/access/ConfirmedOwnerWithProposal.sol\":1595:1614  s_pendingOwner = to */\n      swap3\n      swap4\n        /* \"@chainlink/contracts@0.8.0/src/v0.8/shared/access/ConfirmedOwnerWithProposal.sol\":1653:1660  s_owner */\n      and\n      swap2\n        /* \"@chainlink/contracts@0.8.0/src/v0.8/shared/access/ConfirmedOwnerWithProposal.sol\":1626:1665  OwnershipTransferRequested(s_owner, to) */\n      0xed8889f560326eb138920d842192f0eb3dd22b4f139c87a2c57538e05bae1278\n      swap2\n      swap1\n      log3\n        /* \"@chainlink/contracts@0.8.0/src/v0.8/shared/access/ConfirmedOwnerWithProposal.sol\":1482:1670  function _transferOwnership(address to) private {... */\n      pop\n      jump\t// out\n    tag_84:\n      dup3\n      dup1\n      sload\n      dup3\n      dup3\n      sstore\n      swap1\n      0x00\n      mstore\n      keccak256(0x00, 0x20)\n      swap1\n      dup2\n      add\n      swap3\n      dup3\n      iszero\n      tag_109\n      jumpi\n      swap2\n      0x20\n      mul\n      dup3\n      add\n    tag_108:\n      dup3\n      dup2\n      gt\n      iszero\n      tag_109\n      jumpi\n      dup3\n      mload\n      dup3\n      sstore\n      swap2\n      0x20\n      add\n      swap2\n      swap1\n      0x01\n      add\n      swap1\n      jump(tag_108)\n    tag_109:\n      pop\n      tag_110\n      swap3\n      swap2\n      pop\n      tag_111\n      jump\t// in\n    tag_110:\n      pop\n      swap1\n      jump\t// out\n    tag_111:\n    tag_112:\n      dup1\n      dup3\n      gt\n      iszero\n      tag_110\n      jumpi\n      0x00\n      dup2\n      sstore\n      0x01\n      add\n      jump(tag_112)\n        /* \"#utility.yul\":14:198   */\n    tag_81:\n        /* \"#utility.yul\":66:143   */\n      0x4e487b7100000000000000000000000000000000000000000000000000000000\n        /* \"#utility.yul\":63:64   */\n      0x00\n        /* \"#utility.yul\":56:144   */\n      mstore\n        /* \"#utility.yul\":163:167   */\n      0x41\n        /* \"#utility.yul\":160:161   */\n      0x04\n        /* \"#utility.yul\":153:168   */\n      mstore\n        /* \"#utility.yul\":187:191   */\n      0x24\n        /* \"#utility.yul\":184:185   */\n      0x00\n        /* \"#utility.yul\":177:192   */\n      revert\n        /* \"#utility.yul\":203:1386   */\n    tag_16:\n        /* \"#utility.yul\":296:302   */\n      0x00\n        /* \"#utility.yul\":304:310   */\n      dup1\n        /* \"#utility.yul\":357:359   */\n      0x40\n        /* \"#utility.yul\":345:354   */\n      dup4\n        /* \"#utility.yul\":336:343   */\n      dup6\n        /* \"#utility.yul\":332:355   */\n      sub\n        /* \"#utility.yul\":328:360   */\n      slt\n        /* \"#utility.yul\":325:377   */\n      iszero\n      tag_118\n      jumpi\n        /* \"#utility.yul\":373:374   */\n      0x00\n        /* \"#utility.yul\":370:371   */\n      dup1\n        /* \"#utility.yul\":363:375   */\n      revert\n        /* \"#utility.yul\":325:377   */\n    tag_118:\n        /* \"#utility.yul\":409:418   */\n      dup3\n        /* \"#utility.yul\":396:419   */\n      calldataload\n        /* \"#utility.yul\":386:419   */\n      swap2\n      pop\n        /* \"#utility.yul\":438:440   */\n      0x20\n        /* \"#utility.yul\":491:493   */\n      dup1\n        /* \"#utility.yul\":480:489   */\n      dup5\n        /* \"#utility.yul\":476:494   */\n      add\n        /* \"#utility.yul\":463:495   */\n      calldataload\n        /* \"#utility.yul\":514:532   */\n      0xffffffffffffffff\n        /* \"#utility.yul\":555:557   */\n      dup1\n        /* \"#utility.yul\":547:553   */\n      dup3\n        /* \"#utility.yul\":544:558   */\n      gt\n        /* \"#utility.yul\":541:575   */\n      iszero\n      tag_119\n      jumpi\n        /* \"#utility.yul\":571:572   */\n      0x00\n        /* \"#utility.yul\":568:569   */\n      dup1\n        /* \"#utility.yul\":561:573   */\n      revert\n        /* \"#utility.yul\":541:575   */\n    tag_119:\n        /* \"#utility.yul\":609:615   */\n      dup2\n        /* \"#utility.yul\":598:607   */\n      dup7\n        /* \"#utility.yul\":594:616   */\n      add\n        /* \"#utility.yul\":584:616   */\n      swap2\n      pop\n        /* \"#utility.yul\":654:661   */\n      dup7\n        /* \"#utility.yul\":647:651   */\n      0x1f\n        /* \"#utility.yul\":643:645   */\n      dup4\n        /* \"#utility.yul\":639:652   */\n      add\n        /* \"#utility.yul\":635:662   */\n      slt\n        /* \"#utility.yul\":625:680   */\n      tag_120\n      jumpi\n        /* \"#utility.yul\":676:677   */\n      0x00\n        /* \"#utility.yul\":673:674   */\n      dup1\n        /* \"#utility.yul\":666:678   */\n      revert\n        /* \"#utility.yul\":625:680   */\n    tag_120:\n        /* \"#utility.yul\":712:714   */\n      dup2\n        /* \"#utility.yul\":699:715   */\n      calldataload\n        /* \"#utility.yul\":734:736   */\n      dup2\n        /* \"#utility.yul\":730:732   */\n      dup2\n        /* \"#utility.yul\":727:737   */\n      gt\n        /* \"#utility.yul\":724:760   */\n      iszero\n      tag_122\n      jumpi\n        /* \"#utility.yul\":740:758   */\n      tag_122\n      tag_81\n      jump\t// in\n    tag_122:\n        /* \"#utility.yul\":786:788   */\n      dup1\n        /* \"#utility.yul\":783:784   */\n      0x05\n        /* \"#utility.yul\":779:789   */\n      shl\n        /* \"#utility.yul\":818:820   */\n      0x40\n        /* \"#utility.yul\":812:821   */\n      mload\n        /* \"#utility.yul\":881:883   */\n      0x1f\n        /* \"#utility.yul\":877:884   */\n      not\n        /* \"#utility.yul\":872:874   */\n      0x3f\n        /* \"#utility.yul\":868:870   */\n      dup4\n        /* \"#utility.yul\":864:875   */\n      add\n        /* \"#utility.yul\":860:885   */\n      and\n        /* \"#utility.yul\":852:858   */\n      dup2\n        /* \"#utility.yul\":848:886   */\n      add\n        /* \"#utility.yul\":936:942   */\n      dup2\n        /* \"#utility.yul\":924:934   */\n      dup2\n        /* \"#utility.yul\":921:943   */\n      lt\n        /* \"#utility.yul\":916:918   */\n      dup6\n        /* \"#utility.yul\":904:914   */\n      dup3\n        /* \"#utility.yul\":901:919   */\n      gt\n        /* \"#utility.yul\":898:944   */\n      or\n        /* \"#utility.yul\":895:967   */\n      iszero\n      tag_124\n      jumpi\n        /* \"#utility.yul\":947:965   */\n      tag_124\n      tag_81\n      jump\t// in\n    tag_124:\n        /* \"#utility.yul\":983:985   */\n      0x40\n        /* \"#utility.yul\":976:998   */\n      mstore\n        /* \"#utility.yul\":1033:1051   */\n      swap2\n      dup3\n      mstore\n        /* \"#utility.yul\":1067:1082   */\n      dup5\n      dup3\n      add\n      swap3\n      pop\n        /* \"#utility.yul\":1109:1120   */\n      dup4\n      dup2\n      add\n        /* \"#utility.yul\":1105:1125   */\n      dup6\n      add\n      swap2\n        /* \"#utility.yul\":1137:1156   */\n      dup10\n      dup4\n      gt\n        /* \"#utility.yul\":1134:1173   */\n      iszero\n      tag_125\n      jumpi\n        /* \"#utility.yul\":1169:1170   */\n      0x00\n        /* \"#utility.yul\":1166:1167   */\n      dup1\n        /* \"#utility.yul\":1159:1171   */\n      revert\n        /* \"#utility.yul\":1134:1173   */\n    tag_125:\n        /* \"#utility.yul\":1193:1204   */\n      swap4\n      dup6\n      add\n      swap4\n        /* \"#utility.yul\":1213:1355   */\n    tag_126:\n        /* \"#utility.yul\":1229:1235   */\n      dup3\n        /* \"#utility.yul\":1224:1227   */\n      dup6\n        /* \"#utility.yul\":1221:1236   */\n      lt\n        /* \"#utility.yul\":1213:1355   */\n      iszero\n      tag_128\n      jumpi\n        /* \"#utility.yul\":1295:1312   */\n      dup5\n      calldataload\n        /* \"#utility.yul\":1283:1313   */\n      dup5\n      mstore\n        /* \"#utility.yul\":1246:1258   */\n      swap4\n      dup6\n      add\n      swap4\n        /* \"#utility.yul\":1333:1345   */\n      swap3\n      dup6\n      add\n      swap3\n        /* \"#utility.yul\":1213:1355   */\n      jump(tag_126)\n    tag_128:\n        /* \"#utility.yul\":1374:1380   */\n      dup1\n        /* \"#utility.yul\":1364:1380   */\n      swap7\n      pop\n      pop\n      pop\n      pop\n      pop\n      pop\n      pop\n        /* \"#utility.yul\":203:1386   */\n      swap3\n      pop\n      swap3\n      swap1\n      pop\n      jump\t// out\n        /* \"#utility.yul\":1391:1571   */\n    tag_22:\n        /* \"#utility.yul\":1450:1456   */\n      0x00\n        /* \"#utility.yul\":1503:1505   */\n      0x20\n        /* \"#utility.yul\":1491:1500   */\n      dup3\n        /* \"#utility.yul\":1482:1489   */\n      dup5\n        /* \"#utility.yul\":1478:1501   */\n      sub\n        /* \"#utility.yul\":1474:1506   */\n      slt\n        /* \"#utility.yul\":1471:1523   */\n      iszero\n      tag_130\n      jumpi\n        /* \"#utility.yul\":1519:1520   */\n      0x00\n        /* \"#utility.yul\":1516:1517   */\n      dup1\n        /* \"#utility.yul\":1509:1521   */\n      revert\n        /* \"#utility.yul\":1471:1523   */\n    tag_130:\n      pop\n        /* \"#utility.yul\":1542:1565   */\n      calldataload\n      swap2\n        /* \"#utility.yul\":1391:1571   */\n      swap1\n      pop\n      jump\t// out\n        /* \"#utility.yul\":2262:2697   */\n    tag_114:\n        /* \"#utility.yul\":2315:2318   */\n      0x00\n        /* \"#utility.yul\":2353:2358   */\n      dup2\n        /* \"#utility.yul\":2347:2359   */\n      mload\n        /* \"#utility.yul\":2380:2386   */\n      dup1\n        /* \"#utility.yul\":2375:2378   */\n      dup5\n        /* \"#utility.yul\":2368:2387   */\n      mstore\n        /* \"#utility.yul\":2406:2410   */\n      0x20\n        /* \"#utility.yul\":2435:2437   */\n      dup1\n        /* \"#utility.yul\":2430:2433   */\n      dup6\n        /* \"#utility.yul\":2426:2438   */\n      add\n        /* \"#utility.yul\":2419:2438   */\n      swap5\n      pop\n        /* \"#utility.yul\":2472:2474   */\n      dup1\n        /* \"#utility.yul\":2465:2470   */\n      dup5\n        /* \"#utility.yul\":2461:2475   */\n      add\n        /* \"#utility.yul\":2493:2494   */\n      0x00\n        /* \"#utility.yul\":2503:2672   */\n    tag_135:\n        /* \"#utility.yul\":2517:2523   */\n      dup4\n        /* \"#utility.yul\":2514:2515   */\n      dup2\n        /* \"#utility.yul\":2511:2524   */\n      lt\n        /* \"#utility.yul\":2503:2672   */\n      iszero\n      tag_137\n      jumpi\n        /* \"#utility.yul\":2578:2591   */\n      dup2\n      mload\n        /* \"#utility.yul\":2566:2592   */\n      dup8\n      mstore\n        /* \"#utility.yul\":2612:2624   */\n      swap6\n      dup3\n      add\n      swap6\n        /* \"#utility.yul\":2647:2662   */\n      swap1\n      dup3\n      add\n      swap1\n        /* \"#utility.yul\":2539:2540   */\n      0x01\n        /* \"#utility.yul\":2532:2541   */\n      add\n        /* \"#utility.yul\":2503:2672   */\n      jump(tag_135)\n    tag_137:\n      pop\n        /* \"#utility.yul\":2688:2691   */\n      swap5\n      swap6\n        /* \"#utility.yul\":2262:2697   */\n      swap5\n      pop\n      pop\n      pop\n      pop\n      pop\n      jump\t// out\n        /* \"#utility.yul\":2702:3044   */\n    tag_39:\n        /* \"#utility.yul\":2917:2923   */\n      dup3\n        /* \"#utility.yul\":2910:2924   */\n      iszero\n        /* \"#utility.yul\":2903:2925   */\n      iszero\n        /* \"#utility.yul\":2892:2901   */\n      dup2\n        /* \"#utility.yul\":2885:2926   */\n      mstore\n        /* \"#utility.yul\":2962:2964   */\n      0x40\n        /* \"#utility.yul\":2957:2959   */\n      0x20\n        /* \"#utility.yul\":2946:2955   */\n      dup3\n        /* \"#utility.yul\":2942:2960   */\n      add\n        /* \"#utility.yul\":2935:2965   */\n      mstore\n        /* \"#utility.yul\":2866:2870   */\n      0x00\n        /* \"#utility.yul\":2982:3038   */\n      tag_139\n        /* \"#utility.yul\":3034:3036   */\n      0x40\n        /* \"#utility.yul\":3023:3032   */\n      dup4\n        /* \"#utility.yul\":3019:3037   */\n      add\n        /* \"#utility.yul\":3011:3017   */\n      dup5\n        /* \"#utility.yul\":2982:3038   */\n      tag_114\n      jump\t// in\n    tag_139:\n        /* \"#utility.yul\":2974:3038   */\n      swap5\n        /* \"#utility.yul\":2702:3044   */\n      swap4\n      pop\n      pop\n      pop\n      pop\n      jump\t// out\n        /* \"#utility.yul\":3049:3358   */\n    tag_45:\n        /* \"#utility.yul\":3108:3114   */\n      0x00\n        /* \"#utility.yul\":3161:3163   */\n      0x20\n        /* \"#utility.yul\":3149:3158   */\n      dup3\n        /* \"#utility.yul\":3140:3147   */\n      dup5\n        /* \"#utility.yul\":3136:3159   */\n      sub\n        /* \"#utility.yul\":3132:3164   */\n      slt\n        /* \"#utility.yul\":3129:3181   */\n      iszero\n      tag_141\n      jumpi\n        /* \"#utility.yul\":3177:3178   */\n      0x00\n        /* \"#utility.yul\":3174:3175   */\n      dup1\n        /* \"#utility.yul\":3167:3179   */\n      revert\n        /* \"#utility.yul\":3129:3181   */\n    tag_141:\n        /* \"#utility.yul\":3216:3225   */\n      dup2\n        /* \"#utility.yul\":3203:3226   */\n      calldataload\n      sub(shl(0xa0, 0x01), 0x01)\n        /* \"#utility.yul\":3259:3264   */\n      dup2\n        /* \"#utility.yul\":3255:3309   */\n      and\n        /* \"#utility.yul\":3248:3253   */\n      dup2\n        /* \"#utility.yul\":3245:3310   */\n      eq\n        /* \"#utility.yul\":3235:3328   */\n      tag_142\n      jumpi\n        /* \"#utility.yul\":3324:3325   */\n      0x00\n        /* \"#utility.yul\":3321:3322   */\n      dup1\n        /* \"#utility.yul\":3314:3326   */\n      revert\n        /* \"#utility.yul\":3235:3328   */\n    tag_142:\n        /* \"#utility.yul\":3347:3352   */\n      swap4\n        /* \"#utility.yul\":3049:3358   */\n      swap3\n      pop\n      pop\n      pop\n      jump\t// out\n        /* \"#utility.yul\":4937:5121   */\n    tag_78:\n        /* \"#utility.yul\":5007:5013   */\n      0x00\n        /* \"#utility.yul\":5060:5062   */\n      0x20\n        /* \"#utility.yul\":5048:5057   */\n      dup3\n        /* \"#utility.yul\":5039:5046   */\n      dup5\n        /* \"#utility.yul\":5035:5058   */\n      sub\n        /* \"#utility.yul\":5031:5063   */\n      slt\n        /* \"#utility.yul\":5028:5080   */\n      iszero\n      tag_148\n      jumpi\n        /* \"#utility.yul\":5076:5077   */\n      0x00\n        /* \"#utility.yul\":5073:5074   */\n      dup1\n        /* \"#utility.yul\":5066:5078   */\n      revert\n        /* \"#utility.yul\":5028:5080   */\n    tag_148:\n      pop\n        /* \"#utility.yul\":5099:5115   */\n      mload\n      swap2\n        /* \"#utility.yul\":4937:5121   */\n      swap1\n      pop\n      jump\t// out\n        /* \"#utility.yul\":5394:5726   */\n    tag_98:\n        /* \"#utility.yul\":5601:5607   */\n      dup3\n        /* \"#utility.yul\":5590:5599   */\n      dup2\n        /* \"#utility.yul\":5583:5608   */\n      mstore\n        /* \"#utility.yul\":5644:5646   */\n      0x40\n        /* \"#utility.yul\":5639:5641   */\n      0x20\n        /* \"#utility.yul\":5628:5637   */\n      dup3\n        /* \"#utility.yul\":5624:5642   */\n      add\n        /* \"#utility.yul\":5617:5647   */\n      mstore\n        /* \"#utility.yul\":5564:5568   */\n      0x00\n        /* \"#utility.yul\":5664:5720   */\n      tag_139\n        /* \"#utility.yul\":5716:5718   */\n      0x40\n        /* \"#utility.yul\":5705:5714   */\n      dup4\n        /* \"#utility.yul\":5701:5719   */\n      add\n        /* \"#utility.yul\":5693:5699   */\n      dup5\n        /* \"#utility.yul\":5664:5720   */\n      tag_114\n      jump\t// in\n\n    auxdata: 0xa2646970667358221220ee6bc7967e0c06454debaae31953352eaf21697e549ddab7f4c36b9ce904608664736f6c63430008130033\n}\n",
				"bytecode": {
					"linkReferences": {},
					"object": "60a06040527f474e34a077df58807dbe9c96d3c009b23b3c6d0cce433e59bbf5b34f823bc56c600655600780546001600160501b03191666020003000186a017905534801561004d57600080fd5b50604051610cad380380610cad83398101604081905261006c916101f9565b738103b0a8a00be2ddc778e6e7eaa21791cd36462560805233806000816100da5760405162461bcd60e51b815260206004820152601860248201527f43616e6e6f7420736574206f776e657220746f207a65726f000000000000000060448201526064015b60405180910390fd5b600080546001600160a01b0319166001600160a01b038481169190911790915581161561010a5761010a81610150565b5050600380546001600160401b03909316600160a01b026001600160e01b031990931692909217738103b0a8a00be2ddc778e6e7eaa21791cd3646251790915550610229565b336001600160a01b038216036101a85760405162461bcd60e51b815260206004820152601760248201527f43616e6e6f74207472616e7366657220746f2073656c6600000000000000000060448201526064016100d1565b600180546001600160a01b0319166001600160a01b0383811691821790925560008054604051929316917fed8889f560326eb138920d842192f0eb3dd22b4f139c87a2c57538e05bae12789190a350565b60006020828403121561020b57600080fd5b81516001600160401b038116811461022257600080fd5b9392505050565b608051610a6261024b6000396000818161019901526101f40152610a626000f3fe608060405234801561001057600080fd5b50600436106100a35760003560e01c8063a168fa8911610076578063e0c862891161005b578063e0c862891461016a578063f2fde38b14610172578063fc2a88c31461018557600080fd5b8063a168fa8914610106578063d8a4676f1461014957600080fd5b80631fe543e3146100a857806379ba5097146100bd5780638796ba8c146100c55780638da5cb5b146100eb575b600080fd5b6100bb6100b6366004610889565b61018e565b005b6100bb610234565b6100d86100d3366004610953565b6102f2565b6040519081526020015b60405180910390f35b6000546040516001600160a01b0390911681526020016100e2565b610132610114366004610953565b60026020526000908152604090205460ff8082169161010090041682565b6040805192151583529015156020830152016100e2565b61015c610157366004610953565b610313565b6040516100e29291906109a7565b6100d8610413565b6100bb6101803660046109ca565b610602565b6100d860055481565b336001600160a01b037f00000000000000000000000000000000000000000000000000000000000000001614610226576040517f1cf993f40000000000000000000000000000000000000000000000000000000081523360048201526001600160a01b037f00000000000000000000000000000000000000000000000000000000000000001660248201526044015b60405180910390fd5b6102308282610616565b5050565b6001546001600160a01b0316331461028e5760405162461bcd60e51b815260206004820152601660248201527f4d7573742062652070726f706f736564206f776e657200000000000000000000604482015260640161021d565b600080543373ffffffffffffffffffffffffffffffffffffffff19808316821784556001805490911690556040516001600160a01b0390921692909183917f8be0079c531659141344cd1fd0a4f28419497f9722a3daafe3b4186f6b6457e091a350565b6004818154811061030257600080fd5b600091825260209091200154905081565b600081815260026020526040812054606090610100900460ff166103795760405162461bcd60e51b815260206004820152601160248201527f72657175657374206e6f7420666f756e64000000000000000000000000000000604482015260640161021d565b60008381526002602090815260408083208151606081018352815460ff80821615158352610100909104161515818501526001820180548451818702810187018652818152929593948601938301828280156103f457602002820191906000526020600020905b8154815260200190600101908083116103e0575b5050505050815250509050806000015181604001519250925050915091565b600061041d6106e8565b6003546006546007546040517f5d3b1d30000000000000000000000000000000000000000000000000000000008152600481019290925274010000000000000000000000000000000000000000830467ffffffffffffffff166024830152640100000000810461ffff16604483015263ffffffff808216606484015266010000000000009091041660848201526001600160a01b0390911690635d3b1d309060a4016020604051808303816000875af11580156104de573d6000803e3d6000fd5b505050506040513d601f19601f8201168201806040525081019061050291906109fa565b6040805160608101825260008082526001602080840182815285518481528083018752858701908152878552600283529590932084518154945161ffff1990951690151561ff0019161761010094151594909402939093178355935180519596509294919361057793918501929101906107fa565b5050600480546001810182556000919091527f8a35acfbc15ff81a39ae7d344fd709f28e8600b4aa8c65c6b64bfe7fe36bd19b0182905550600581905560075460408051838152660100000000000090920463ffffffff1660208301527fcc58b13ad3eab50626c6a6300b1d139cd6ebb1688a7cced9461c2f7e762665ee910160405180910390a190565b61060a6106e8565b61061381610744565b50565b600082815260026020526040902054610100900460ff166106795760405162461bcd60e51b815260206004820152601160248201527f72657175657374206e6f7420666f756e64000000000000000000000000000000604482015260640161021d565b6000828152600260209081526040909120805460ff19166001908117825583516106aa9392909101918401906107fa565b507ffe2e2d779dba245964d4e3ef9b994be63856fd568bf7d3ca9e224755cb1bd54d82826040516106dc929190610a13565b60405180910390a15050565b6000546001600160a01b031633146107425760405162461bcd60e51b815260206004820152601660248201527f4f6e6c792063616c6c61626c65206279206f776e657200000000000000000000604482015260640161021d565b565b336001600160a01b0382160361079c5760405162461bcd60e51b815260206004820152601760248201527f43616e6e6f74207472616e7366657220746f2073656c66000000000000000000604482015260640161021d565b6001805473ffffffffffffffffffffffffffffffffffffffff19166001600160a01b0383811691821790925560008054604051929316917fed8889f560326eb138920d842192f0eb3dd22b4f139c87a2c57538e05bae12789190a350565b828054828255906000526020600020908101928215610835579160200282015b8281111561083557825182559160200191906001019061081a565b50610841929150610845565b5090565b5b808211156108415760008155600101610846565b7f4e487b7100000000000000000000000000000000000000000000000000000000600052604160045260246000fd5b6000806040838503121561089c57600080fd5b8235915060208084013567ffffffffffffffff808211156108bc57600080fd5b818601915086601f8301126108d057600080fd5b8135818111156108e2576108e261085a565b8060051b604051601f19603f830116810181811085821117156109075761090761085a565b60405291825284820192508381018501918983111561092557600080fd5b938501935b828510156109435784358452938501939285019261092a565b8096505050505050509250929050565b60006020828403121561096557600080fd5b5035919050565b600081518084526020808501945080840160005b8381101561099c57815187529582019590820190600101610980565b509495945050505050565b82151581526040602082015260006109c2604083018461096c565b949350505050565b6000602082840312156109dc57600080fd5b81356001600160a01b03811681146109f357600080fd5b9392505050565b600060208284031215610a0c57600080fd5b5051919050565b8281526040602082015260006109c2604083018461096c56fea2646970667358221220ee6bc7967e0c06454debaae31953352eaf21697e549ddab7f4c36b9ce904608664736f6c63430008130033",
					"opcodes": "PUSH1 0xA0 PUSH1 0x40 MSTORE PUSH32 0x474E34A077DF58807DBE9C96D3C009B23B3C6D0CCE433E59BBF5B34F823BC56C PUSH1 0x6 SSTORE PUSH1 0x7 DUP1 SLOAD PUSH1 0x1 PUSH1 0x1 PUSH1 0x50 SHL SUB NOT AND PUSH7 0x20003000186A0 OR SWAP1 SSTORE CALLVALUE DUP1 ISZERO PUSH2 0x4D JUMPI PUSH1 0x0 DUP1 REVERT JUMPDEST POP PUSH1 0x40 MLOAD PUSH2 0xCAD CODESIZE SUB DUP1 PUSH2 0xCAD DUP4 CODECOPY DUP2 ADD PUSH1 0x40 DUP2 SWAP1 MSTORE PUSH2 0x6C SWAP2 PUSH2 0x1F9 JUMP JUMPDEST PUSH20 0x8103B0A8A00BE2DDC778E6E7EAA21791CD364625 PUSH1 0x80 MSTORE CALLER DUP1 PUSH1 0x0 DUP2 PUSH2 0xDA JUMPI PUSH1 0x40 MLOAD PUSH3 0x461BCD PUSH1 0xE5 SHL DUP2 MSTORE PUSH1 0x20 PUSH1 0x4 DUP3 ADD MSTORE PUSH1 0x18 PUSH1 0x24 DUP3 ADD MSTORE PUSH32 0x43616E6E6F7420736574206F776E657220746F207A65726F0000000000000000 PUSH1 0x44 DUP3 ADD MSTORE PUSH1 0x64 ADD JUMPDEST PUSH1 0x40 MLOAD DUP1 SWAP2 SUB SWAP1 REVERT JUMPDEST PUSH1 0x0 DUP1 SLOAD PUSH1 0x1 PUSH1 0x1 PUSH1 0xA0 SHL SUB NOT AND PUSH1 0x1 PUSH1 0x1 PUSH1 0xA0 SHL SUB DUP5 DUP2 AND SWAP2 SWAP1 SWAP2 OR SWAP1 SWAP2 SSTORE DUP2 AND ISZERO PUSH2 0x10A JUMPI PUSH2 0x10A DUP2 PUSH2 0x150 JUMP JUMPDEST POP POP PUSH1 0x3 DUP1 SLOAD PUSH1 0x1 PUSH1 0x1 PUSH1 0x40 SHL SUB SWAP1 SWAP4 AND PUSH1 0x1 PUSH1 0xA0 SHL MUL PUSH1 0x1 PUSH1 0x1 PUSH1 0xE0 SHL SUB NOT SWAP1 SWAP4 AND SWAP3 SWAP1 SWAP3 OR PUSH20 0x8103B0A8A00BE2DDC778E6E7EAA21791CD364625 OR SWAP1 SWAP2 SSTORE POP PUSH2 0x229 JUMP JUMPDEST CALLER PUSH1 0x1 PUSH1 0x1 PUSH1 0xA0 SHL SUB DUP3 AND SUB PUSH2 0x1A8 JUMPI PUSH1 0x40 MLOAD PUSH3 0x461BCD PUSH1 0xE5 SHL DUP2 MSTORE PUSH1 0x20 PUSH1 0x4 DUP3 ADD MSTORE PUSH1 0x17 PUSH1 0x24 DUP3 ADD MSTORE PUSH32 0x43616E6E6F74207472616E7366657220746F2073656C66000000000000000000 PUSH1 0x44 DUP3 ADD MSTORE PUSH1 0x64 ADD PUSH2 0xD1 JUMP JUMPDEST PUSH1 0x1 DUP1 SLOAD PUSH1 0x1 PUSH1 0x1 PUSH1 0xA0 SHL SUB NOT AND PUSH1 0x1 PUSH1 0x1 PUSH1 0xA0 SHL SUB DUP4 DUP2 AND SWAP2 DUP3 OR SWAP1 SWAP3 SSTORE PUSH1 0x0 DUP1 SLOAD PUSH1 0x40 MLOAD SWAP3 SWAP4 AND SWAP2 PUSH32 0xED8889F560326EB138920D842192F0EB3DD22B4F139C87A2C57538E05BAE1278 SWAP2 SWAP1 LOG3 POP JUMP JUMPDEST PUSH1 0x0 PUSH1 0x20 DUP3 DUP5 SUB SLT ISZERO PUSH2 0x20B JUMPI PUSH1 0x0 DUP1 REVERT JUMPDEST DUP2 MLOAD PUSH1 0x1 PUSH1 0x1 PUSH1 0x40 SHL SUB DUP2 AND DUP2 EQ PUSH2 0x222 JUMPI PUSH1 0x0 DUP1 REVERT JUMPDEST SWAP4 SWAP3 POP POP POP JUMP JUMPDEST PUSH1 0x80 MLOAD PUSH2 0xA62 PUSH2 0x24B PUSH1 0x0 CODECOPY PUSH1 0x0 DUP2 DUP2 PUSH2 0x199 ADD MSTORE PUSH2 0x1F4 ADD MSTORE PUSH2 0xA62 PUSH1 0x0 RETURN INVALID PUSH1 0x80 PUSH1 0x40 MSTORE CALLVALUE DUP1 ISZERO PUSH2 0x10 JUMPI PUSH1 0x0 DUP1 REVERT JUMPDEST POP PUSH1 0x4 CALLDATASIZE LT PUSH2 0xA3 JUMPI PUSH1 0x0 CALLDATALOAD PUSH1 0xE0 SHR DUP1 PUSH4 0xA168FA89 GT PUSH2 0x76 JUMPI DUP1 PUSH4 0xE0C86289 GT PUSH2 0x5B JUMPI DUP1 PUSH4 0xE0C86289 EQ PUSH2 0x16A JUMPI DUP1 PUSH4 0xF2FDE38B EQ PUSH2 0x172 JUMPI DUP1 PUSH4 0xFC2A88C3 EQ PUSH2 0x185 JUMPI PUSH1 0x0 DUP1 REVERT JUMPDEST DUP1 PUSH4 0xA168FA89 EQ PUSH2 0x106 JUMPI DUP1 PUSH4 0xD8A4676F EQ PUSH2 0x149 JUMPI PUSH1 0x0 DUP1 REVERT JUMPDEST DUP1 PUSH4 0x1FE543E3 EQ PUSH2 0xA8 JUMPI DUP1 PUSH4 0x79BA5097 EQ PUSH2 0xBD JUMPI DUP1 PUSH4 0x8796BA8C EQ PUSH2 0xC5 JUMPI DUP1 PUSH4 0x8DA5CB5B EQ PUSH2 0xEB JUMPI JUMPDEST PUSH1 0x0 DUP1 REVERT JUMPDEST PUSH2 0xBB PUSH2 0xB6 CALLDATASIZE PUSH1 0x4 PUSH2 0x889 JUMP JUMPDEST PUSH2 0x18E JUMP JUMPDEST STOP JUMPDEST PUSH2 0xBB PUSH2 0x234 JUMP JUMPDEST PUSH2 0xD8 PUSH2 0xD3 CALLDATASIZE PUSH1 0x4 PUSH2 0x953 JUMP JUMPDEST PUSH2 0x2F2 JUMP JUMPDEST PUSH1 0x40 MLOAD SWAP1 DUP2 MSTORE PUSH1 0x20 ADD JUMPDEST PUSH1 0x40 MLOAD DUP1 SWAP2 SUB SWAP1 RETURN JUMPDEST PUSH1 0x0 SLOAD PUSH1 0x40 MLOAD PUSH1 0x1 PUSH1 0x1 PUSH1 0xA0 SHL SUB SWAP1 SWAP2 AND DUP2 MSTORE PUSH1 0x20 ADD PUSH2 0xE2 JUMP JUMPDEST PUSH2 0x132 PUSH2 0x114 CALLDATASIZE PUSH1 0x4 PUSH2 0x953 JUMP JUMPDEST PUSH1 0x2 PUSH1 0x20 MSTORE PUSH1 0x0 SWAP1 DUP2 MSTORE PUSH1 0x40 SWAP1 KECCAK256 SLOAD PUSH1 0xFF DUP1 DUP3 AND SWAP2 PUSH2 0x100 SWAP1 DIV AND DUP3 JUMP JUMPDEST PUSH1 0x40 DUP1 MLOAD SWAP3 ISZERO ISZERO DUP4 MSTORE SWAP1 ISZERO ISZERO PUSH1 0x20 DUP4 ADD MSTORE ADD PUSH2 0xE2 JUMP JUMPDEST PUSH2 0x15C PUSH2 0x157 CALLDATASIZE PUSH1 0x4 PUSH2 0x953 JUMP JUMPDEST PUSH2 0x313 JUMP JUMPDEST PUSH1 0x40 MLOAD PUSH2 0xE2 SWAP3 SWAP2 SWAP1 PUSH2 0x9A7 JUMP JUMPDEST PUSH2 0xD8 PUSH2 0x413 JUMP JUMPDEST PUSH2 0xBB PUSH2 0x180 CALLDATASIZE PUSH1 0x4 PUSH2 0x9CA JUMP JUMPDEST PUSH2 0x602 JUMP JUMPDEST PUSH2 0xD8 PUSH1 0x5 SLOAD DUP2 JUMP JUMPDEST CALLER PUSH1 0x1 PUSH1 0x1 PUSH1 0xA0 SHL SUB PUSH32 0x0 AND EQ PUSH2 0x226 JUMPI PUSH1 0x40 MLOAD PUSH32 0x1CF993F400000000000000000000000000000000000000000000000000000000 DUP2 MSTORE CALLER PUSH1 0x4 DUP3 ADD MSTORE PUSH1 0x1 PUSH1 0x1 PUSH1 0xA0 SHL SUB PUSH32 0x0 AND PUSH1 0x24 DUP3 ADD MSTORE PUSH1 0x44 ADD JUMPDEST PUSH1 0x40 MLOAD DUP1 SWAP2 SUB SWAP1 REVERT JUMPDEST PUSH2 0x230 DUP3 DUP3 PUSH2 0x616 JUMP JUMPDEST POP POP JUMP JUMPDEST PUSH1 0x1 SLOAD PUSH1 0x1 PUSH1 0x1 PUSH1 0xA0 SHL SUB AND CALLER EQ PUSH2 0x28E JUMPI PUSH1 0x40 MLOAD PUSH3 0x461BCD PUSH1 0xE5 SHL DUP2 MSTORE PUSH1 0x20 PUSH1 0x4 DUP3 ADD MSTORE PUSH1 0x16 PUSH1 0x24 DUP3 ADD MSTORE PUSH32 0x4D7573742062652070726F706F736564206F776E657200000000000000000000 PUSH1 0x44 DUP3 ADD MSTORE PUSH1 0x64 ADD PUSH2 0x21D JUMP JUMPDEST PUSH1 0x0 DUP1 SLOAD CALLER PUSH20 0xFFFFFFFFFFFFFFFFFFFFFFFFFFFFFFFFFFFFFFFF NOT DUP1 DUP4 AND DUP3 OR DUP5 SSTORE PUSH1 0x1 DUP1 SLOAD SWAP1 SWAP2 AND SWAP1 SSTORE PUSH1 0x40 MLOAD PUSH1 0x1 PUSH1 0x1 PUSH1 0xA0 SHL SUB SWAP1 SWAP3 AND SWAP3 SWAP1 SWAP2 DUP4 SWAP2 PUSH32 0x8BE0079C531659141344CD1FD0A4F28419497F9722A3DAAFE3B4186F6B6457E0 SWAP2 LOG3 POP JUMP JUMPDEST PUSH1 0x4 DUP2 DUP2 SLOAD DUP2 LT PUSH2 0x302 JUMPI PUSH1 0x0 DUP1 REVERT JUMPDEST PUSH1 0x0 SWAP2 DUP3 MSTORE PUSH1 0x20 SWAP1 SWAP2 KECCAK256 ADD SLOAD SWAP1 POP DUP2 JUMP JUMPDEST PUSH1 0x0 DUP2 DUP2 MSTORE PUSH1 0x2 PUSH1 0x20 MSTORE PUSH1 0x40 DUP2 KECCAK256 SLOAD PUSH1 0x60 SWAP1 PUSH2 0x100 SWAP1 DIV PUSH1 0xFF AND PUSH2 0x379 JUMPI PUSH1 0x40 MLOAD PUSH3 0x461BCD PUSH1 0xE5 SHL DUP2 MSTORE PUSH1 0x20 PUSH1 0x4 DUP3 ADD MSTORE PUSH1 0x11 PUSH1 0x24 DUP3 ADD MSTORE PUSH32 0x72657175657374206E6F7420666F756E64000000000000000000000000000000 PUSH1 0x44 DUP3 ADD MSTORE PUSH1 0x64 ADD PUSH2 0x21D JUMP JUMPDEST PUSH1 0x0 DUP4 DUP2 MSTORE PUSH1 0x2 PUSH1 0x20 SWAP1 DUP2 MSTORE PUSH1 0x40 DUP1 DUP4 KECCAK256 DUP2 MLOAD PUSH1 0x60 DUP2 ADD DUP4 MSTORE DUP2 SLOAD PUSH1 0xFF DUP1 DUP3 AND ISZERO ISZERO DUP4 MSTORE PUSH2 0x100 SWAP1 SWAP2 DIV AND ISZERO ISZERO DUP2 DUP6 ADD MSTORE PUSH1 0x1 DUP3 ADD DUP1 SLOAD DUP5 MLOAD DUP2 DUP8 MUL DUP2 ADD DUP8 ADD DUP7 MSTORE DUP2 DUP2 MSTORE SWAP3 SWAP6 SWAP4 SWAP5 DUP7 ADD SWAP4 DUP4 ADD DUP3 DUP3 DUP1 ISZERO PUSH2 0x3F4 JUMPI PUSH1 0x20 MUL DUP3 ADD SWAP2 SWAP1 PUSH1 0x0 MSTORE PUSH1 0x20 PUSH1 0x0 KECCAK256 SWAP1 JUMPDEST DUP2 SLOAD DUP2 MSTORE PUSH1 0x20 ADD SWAP1 PUSH1 0x1 ADD SWAP1 DUP1 DUP4 GT PUSH2 0x3E0 JUMPI JUMPDEST POP POP POP POP POP DUP2 MSTORE POP POP SWAP1 POP DUP1 PUSH1 0x0 ADD MLOAD DUP2 PUSH1 0x40 ADD MLOAD SWAP3 POP SWAP3 POP POP SWAP2 POP SWAP2 JUMP JUMPDEST PUSH1 0x0 PUSH2 0x41D PUSH2 0x6E8 JUMP JUMPDEST PUSH1 0x3 SLOAD PUSH1 0x6 SLOAD PUSH1 0x7 SLOAD PUSH1 0x40 MLOAD PUSH32 0x5D3B1D3000000000000000000000000000000000000000000000000000000000 DUP2 MSTORE PUSH1 0x4 DUP2 ADD SWAP3 SWAP1 SWAP3 MSTORE PUSH21 0x10000000000000000000000000000000000000000 DUP4 DIV PUSH8 0xFFFFFFFFFFFFFFFF AND PUSH1 0x24 DUP4 ADD MSTORE PUSH5 0x100000000 DUP2 DIV PUSH2 0xFFFF AND PUSH1 0x44 DUP4 ADD MSTORE PUSH4 0xFFFFFFFF DUP1 DUP3 AND PUSH1 0x64 DUP5 ADD MSTORE PUSH7 0x1000000000000 SWAP1 SWAP2 DIV AND PUSH1 0x84 DUP3 ADD MSTORE PUSH1 0x1 PUSH1 0x1 PUSH1 0xA0 SHL SUB SWAP1 SWAP2 AND SWAP1 PUSH4 0x5D3B1D30 SWAP1 PUSH1 0xA4 ADD PUSH1 0x20 PUSH1 0x40 MLOAD DUP1 DUP4 SUB DUP2 PUSH1 0x0 DUP8 GAS CALL ISZERO DUP1 ISZERO PUSH2 0x4DE JUMPI RETURNDATASIZE PUSH1 0x0 DUP1 RETURNDATACOPY RETURNDATASIZE PUSH1 0x0 REVERT JUMPDEST POP POP POP POP PUSH1 0x40 MLOAD RETURNDATASIZE PUSH1 0x1F NOT PUSH1 0x1F DUP3 ADD AND DUP3 ADD DUP1 PUSH1 0x40 MSTORE POP DUP2 ADD SWAP1 PUSH2 0x502 SWAP2 SWAP1 PUSH2 0x9FA JUMP JUMPDEST PUSH1 0x40 DUP1 MLOAD PUSH1 0x60 DUP2 ADD DUP3 MSTORE PUSH1 0x0 DUP1 DUP3 MSTORE PUSH1 0x1 PUSH1 0x20 DUP1 DUP5 ADD DUP3 DUP2 MSTORE DUP6 MLOAD DUP5 DUP2 MSTORE DUP1 DUP4 ADD DUP8 MSTORE DUP6 DUP8 ADD SWAP1 DUP2 MSTORE DUP8 DUP6 MSTORE PUSH1 0x2 DUP4 MSTORE SWAP6 SWAP1 SWAP4 KECCAK256 DUP5 MLOAD DUP2 SLOAD SWAP5 MLOAD PUSH2 0xFFFF NOT SWAP1 SWAP6 AND SWAP1 ISZERO ISZERO PUSH2 0xFF00 NOT AND OR PUSH2 0x100 SWAP5 ISZERO ISZERO SWAP5 SWAP1 SWAP5 MUL SWAP4 SWAP1 SWAP4 OR DUP4 SSTORE SWAP4 MLOAD DUP1 MLOAD SWAP6 SWAP7 POP SWAP3 SWAP5 SWAP2 SWAP4 PUSH2 0x577 SWAP4 SWAP2 DUP6 ADD SWAP3 SWAP2 ADD SWAP1 PUSH2 0x7FA JUMP JUMPDEST POP POP PUSH1 0x4 DUP1 SLOAD PUSH1 0x1 DUP2 ADD DUP3 SSTORE PUSH1 0x0 SWAP2 SWAP1 SWAP2 MSTORE PUSH32 0x8A35ACFBC15FF81A39AE7D344FD709F28E8600B4AA8C65C6B64BFE7FE36BD19B ADD DUP3 SWAP1 SSTORE POP PUSH1 0x5 DUP2 SWAP1 SSTORE PUSH1 0x7 SLOAD PUSH1 0x40 DUP1 MLOAD DUP4 DUP2 MSTORE PUSH7 0x1000000000000 SWAP1 SWAP3 DIV PUSH4 0xFFFFFFFF AND PUSH1 0x20 DUP4 ADD MSTORE PUSH32 0xCC58B13AD3EAB50626C6A6300B1D139CD6EBB1688A7CCED9461C2F7E762665EE SWAP2 ADD PUSH1 0x40 MLOAD DUP1 SWAP2 SUB SWAP1 LOG1 SWAP1 JUMP JUMPDEST PUSH2 0x60A PUSH2 0x6E8 JUMP JUMPDEST PUSH2 0x613 DUP2 PUSH2 0x744 JUMP JUMPDEST POP JUMP JUMPDEST PUSH1 0x0 DUP3 DUP2 MSTORE PUSH1 0x2 PUSH1 0x20 MSTORE PUSH1 0x40 SWAP1 KECCAK256 SLOAD PUSH2 0x100 SWAP1 DIV PUSH1 0xFF AND PUSH2 0x679 JUMPI PUSH1 0x40 MLOAD PUSH3 0x461BCD PUSH1 0xE5 SHL DUP2 MSTORE PUSH1 0x20 PUSH1 0x4 DUP3 ADD MSTORE PUSH1 0x11 PUSH1 0x24 DUP3 ADD MSTORE PUSH32 0x72657175657374206E6F7420666F756E64000000000000000000000000000000 PUSH1 0x44 DUP3 ADD MSTORE PUSH1 0x64 ADD PUSH2 0x21D JUMP JUMPDEST PUSH1 0x0 DUP3 DUP2 MSTORE PUSH1 0x2 PUSH1 0x20 SWAP1 DUP2 MSTORE PUSH1 0x40 SWAP1 SWAP2 KECCAK256 DUP1 SLOAD PUSH1 0xFF NOT AND PUSH1 0x1 SWAP1 DUP2 OR DUP3 SSTORE DUP4 MLOAD PUSH2 0x6AA SWAP4 SWAP3 SWAP1 SWAP2 ADD SWAP2 DUP5 ADD SWAP1 PUSH2 0x7FA JUMP JUMPDEST POP PUSH32 0xFE2E2D779DBA245964D4E3EF9B994BE63856FD568BF7D3CA9E224755CB1BD54D DUP3 DUP3 PUSH1 0x40 MLOAD PUSH2 0x6DC SWAP3 SWAP2 SWAP1 PUSH2 0xA13 JUMP JUMPDEST PUSH1 0x40 MLOAD DUP1 SWAP2 SUB SWAP1 LOG1 POP POP JUMP JUMPDEST PUSH1 0x0 SLOAD PUSH1 0x1 PUSH1 0x1 PUSH1 0xA0 SHL SUB AND CALLER EQ PUSH2 0x742 JUMPI PUSH1 0x40 MLOAD PUSH3 0x461BCD PUSH1 0xE5 SHL DUP2 MSTORE PUSH1 0x20 PUSH1 0x4 DUP3 ADD MSTORE PUSH1 0x16 PUSH1 0x24 DUP3 ADD MSTORE PUSH32 0x4F6E6C792063616C6C61626C65206279206F776E657200000000000000000000 PUSH1 0x44 DUP3 ADD MSTORE PUSH1 0x64 ADD PUSH2 0x21D JUMP JUMPDEST JUMP JUMPDEST CALLER PUSH1 0x1 PUSH1 0x1 PUSH1 0xA0 SHL SUB DUP3 AND SUB PUSH2 0x79C JUMPI PUSH1 0x40 MLOAD PUSH3 0x461BCD PUSH1 0xE5 SHL DUP2 MSTORE PUSH1 0x20 PUSH1 0x4 DUP3 ADD MSTORE PUSH1 0x17 PUSH1 0x24 DUP3 ADD MSTORE PUSH32 0x43616E6E6F74207472616E7366657220746F2073656C66000000000000000000 PUSH1 0x44 DUP3 ADD MSTORE PUSH1 0x64 ADD PUSH2 0x21D JUMP JUMPDEST PUSH1 0x1 DUP1 SLOAD PUSH20 0xFFFFFFFFFFFFFFFFFFFFFFFFFFFFFFFFFFFFFFFF NOT AND PUSH1 0x1 PUSH1 0x1 PUSH1 0xA0 SHL SUB DUP4 DUP2 AND SWAP2 DUP3 OR SWAP1 SWAP3 SSTORE PUSH1 0x0 DUP1 SLOAD PUSH1 0x40 MLOAD SWAP3 SWAP4 AND SWAP2 PUSH32 0xED8889F560326EB138920D842192F0EB3DD22B4F139C87A2C57538E05BAE1278 SWAP2 SWAP1 LOG3 POP JUMP JUMPDEST DUP3 DUP1 SLOAD DUP3 DUP3 SSTORE SWAP1 PUSH1 0x0 MSTORE PUSH1 0x20 PUSH1 0x0 KECCAK256 SWAP1 DUP2 ADD SWAP3 DUP3 ISZERO PUSH2 0x835 JUMPI SWAP2 PUSH1 0x20 MUL DUP3 ADD JUMPDEST DUP3 DUP2 GT ISZERO PUSH2 0x835 JUMPI DUP3 MLOAD DUP3 SSTORE SWAP2 PUSH1 0x20 ADD SWAP2 SWAP1 PUSH1 0x1 ADD SWAP1 PUSH2 0x81A JUMP JUMPDEST POP PUSH2 0x841 SWAP3 SWAP2 POP PUSH2 0x845 JUMP JUMPDEST POP SWAP1 JUMP JUMPDEST JUMPDEST DUP1 DUP3 GT ISZERO PUSH2 0x841 JUMPI PUSH1 0x0 DUP2 SSTORE PUSH1 0x1 ADD PUSH2 0x846 JUMP JUMPDEST PUSH32 0x4E487B7100000000000000000000000000000000000000000000000000000000 PUSH1 0x0 MSTORE PUSH1 0x41 PUSH1 0x4 MSTORE PUSH1 0x24 PUSH1 0x0 REVERT JUMPDEST PUSH1 0x0 DUP1 PUSH1 0x40 DUP4 DUP6 SUB SLT ISZERO PUSH2 0x89C JUMPI PUSH1 0x0 DUP1 REVERT JUMPDEST DUP3 CALLDATALOAD SWAP2 POP PUSH1 0x20 DUP1 DUP5 ADD CALLDATALOAD PUSH8 0xFFFFFFFFFFFFFFFF DUP1 DUP3 GT ISZERO PUSH2 0x8BC JUMPI PUSH1 0x0 DUP1 REVERT JUMPDEST DUP2 DUP7 ADD SWAP2 POP DUP7 PUSH1 0x1F DUP4 ADD SLT PUSH2 0x8D0 JUMPI PUSH1 0x0 DUP1 REVERT JUMPDEST DUP2 CALLDATALOAD DUP2 DUP2 GT ISZERO PUSH2 0x8E2 JUMPI PUSH2 0x8E2 PUSH2 0x85A JUMP JUMPDEST DUP1 PUSH1 0x5 SHL PUSH1 0x40 MLOAD PUSH1 0x1F NOT PUSH1 0x3F DUP4 ADD AND DUP2 ADD DUP2 DUP2 LT DUP6 DUP3 GT OR ISZERO PUSH2 0x907 JUMPI PUSH2 0x907 PUSH2 0x85A JUMP JUMPDEST PUSH1 0x40 MSTORE SWAP2 DUP3 MSTORE DUP5 DUP3 ADD SWAP3 POP DUP4 DUP2 ADD DUP6 ADD SWAP2 DUP10 DUP4 GT ISZERO PUSH2 0x925 JUMPI PUSH1 0x0 DUP1 REVERT JUMPDEST SWAP4 DUP6 ADD SWAP4 JUMPDEST DUP3 DUP6 LT ISZERO PUSH2 0x943 JUMPI DUP5 CALLDATALOAD DUP5 MSTORE SWAP4 DUP6 ADD SWAP4 SWAP3 DUP6 ADD SWAP3 PUSH2 0x92A JUMP JUMPDEST DUP1 SWAP7 POP POP POP POP POP POP POP SWAP3 POP SWAP3 SWAP1 POP JUMP JUMPDEST PUSH1 0x0 PUSH1 0x20 DUP3 DUP5 SUB SLT ISZERO PUSH2 0x965 JUMPI PUSH1 0x0 DUP1 REVERT JUMPDEST POP CALLDATALOAD SWAP2 SWAP1 POP JUMP JUMPDEST PUSH1 0x0 DUP2 MLOAD DUP1 DUP5 MSTORE PUSH1 0x20 DUP1 DUP6 ADD SWAP5 POP DUP1 DUP5 ADD PUSH1 0x0 JUMPDEST DUP4 DUP2 LT ISZERO PUSH2 0x99C JUMPI DUP2 MLOAD DUP8 MSTORE SWAP6 DUP3 ADD SWAP6 SWAP1 DUP3 ADD SWAP1 PUSH1 0x1 ADD PUSH2 0x980 JUMP JUMPDEST POP SWAP5 SWAP6 SWAP5 POP POP POP POP POP JUMP JUMPDEST DUP3 ISZERO ISZERO DUP2 MSTORE PUSH1 0x40 PUSH1 0x20 DUP3 ADD MSTORE PUSH1 0x0 PUSH2 0x9C2 PUSH1 0x40 DUP4 ADD DUP5 PUSH2 0x96C JUMP JUMPDEST SWAP5 SWAP4 POP POP POP POP JUMP JUMPDEST PUSH1 0x0 PUSH1 0x20 DUP3 DUP5 SUB SLT ISZERO PUSH2 0x9DC JUMPI PUSH1 0x0 DUP1 REVERT JUMPDEST DUP2 CALLDATALOAD PUSH1 0x1 PUSH1 0x1 PUSH1 0xA0 SHL SUB DUP2 AND DUP2 EQ PUSH2 0x9F3 JUMPI PUSH1 0x0 DUP1 REVERT JUMPDEST SWAP4 SWAP3 POP POP POP JUMP JUMPDEST PUSH1 0x0 PUSH1 0x20 DUP3 DUP5 SUB SLT ISZERO PUSH2 0xA0C JUMPI PUSH1 0x0 DUP1 REVERT JUMPDEST POP MLOAD SWAP2 SWAP1 POP JUMP JUMPDEST DUP3 DUP2 MSTORE PUSH1 0x40 PUSH1 0x20 DUP3 ADD MSTORE PUSH1 0x0 PUSH2 0x9C2 PUSH1 0x40 DUP4 ADD DUP5 PUSH2 0x96C JUMP INVALID LOG2 PUSH5 0x6970667358 0x22 SLT KECCAK256 0xEE PUSH12 0xC7967E0C06454DEBAAE31953 CALLDATALOAD 0x2E 0xAF 0x21 PUSH10 0x7E549DDAB7F4C36B9CE9 DIV PUSH1 0x86 PUSH5 0x736F6C6343 STOP ADDMOD SGT STOP CALLER "
				},
				"gasEstimates": {
					"creation": {
						"codeDepositCost": "531600",
						"executionCost": "infinite",
						"totalCost": "infinite"
					},
					"external": {
						"acceptOwnership()": "52310",
						"getRequestStatus(uint256)": "infinite",
						"lastRequestId()": "2350",
						"owner()": "2368",
						"rawFulfillRandomWords(uint256,uint256[])": "infinite",
						"requestIds(uint256)": "4609",
						"requestRandomWords()": "infinite",
						"s_requests(uint256)": "2520",
						"transferOwnership(address)": "30433"
					},
					"internal": {
						"fulfillRandomWords(uint256,uint256[] memory)": "infinite"
					}
				},
				"methodIdentifiers": {
					"acceptOwnership()": "79ba5097",
					"getRequestStatus(uint256)": "d8a4676f",
					"lastRequestId()": "fc2a88c3",
					"owner()": "8da5cb5b",
					"rawFulfillRandomWords(uint256,uint256[])": "1fe543e3",
					"requestIds(uint256)": "8796ba8c",
					"requestRandomWords()": "e0c86289",
					"s_requests(uint256)": "a168fa89",
					"transferOwnership(address)": "f2fde38b"
				}
			},
			"storageLayout": {
				"storage": [
					{
						"astId": 123,
						"contract": "VRFV2/VRFv2Consumer.sol:VRFv2Consumer",
						"label": "s_owner",
						"offset": 0,
						"slot": "0",
						"type": "t_address"
					},
					{
						"astId": 125,
						"contract": "VRFV2/VRFv2Consumer.sol:VRFv2Consumer",
						"label": "s_pendingOwner",
						"offset": 0,
						"slot": "1",
						"type": "t_address"
					},
					{
						"astId": 390,
						"contract": "VRFV2/VRFv2Consumer.sol:VRFv2Consumer",
						"label": "s_requests",
						"offset": 0,
						"slot": "2",
						"type": "t_mapping(t_uint256,t_struct(RequestStatus)385_storage)"
					},
					{
						"astId": 393,
						"contract": "VRFV2/VRFv2Consumer.sol:VRFv2Consumer",
						"label": "COORDINATOR",
						"offset": 0,
						"slot": "3",
						"type": "t_contract(VRFCoordinatorV2Interface)95"
					},
					{
						"astId": 395,
						"contract": "VRFV2/VRFv2Consumer.sol:VRFv2Consumer",
						"label": "s_subscriptionId",
						"offset": 20,
						"slot": "3",
						"type": "t_uint64"
					},
					{
						"astId": 398,
						"contract": "VRFV2/VRFv2Consumer.sol:VRFv2Consumer",
						"label": "requestIds",
						"offset": 0,
						"slot": "4",
						"type": "t_array(t_uint256)dyn_storage"
					},
					{
						"astId": 400,
						"contract": "VRFV2/VRFv2Consumer.sol:VRFv2Consumer",
						"label": "lastRequestId",
						"offset": 0,
						"slot": "5",
						"type": "t_uint256"
					},
					{
						"astId": 403,
						"contract": "VRFV2/VRFv2Consumer.sol:VRFv2Consumer",
						"label": "keyHash",
						"offset": 0,
						"slot": "6",
						"type": "t_bytes32"
					},
					{
						"astId": 406,
						"contract": "VRFV2/VRFv2Consumer.sol:VRFv2Consumer",
						"label": "callbackGasLimit",
						"offset": 0,
						"slot": "7",
						"type": "t_uint32"
					},
					{
						"astId": 409,
						"contract": "VRFV2/VRFv2Consumer.sol:VRFv2Consumer",
						"label": "requestConfirmations",
						"offset": 4,
						"slot": "7",
						"type": "t_uint16"
					},
					{
						"astId": 412,
						"contract": "VRFV2/VRFv2Consumer.sol:VRFv2Consumer",
						"label": "numWords",
						"offset": 6,
						"slot": "7",
						"type": "t_uint32"
					}
				],
				"types": {
					"t_address": {
						"encoding": "inplace",
						"label": "address",
						"numberOfBytes": "20"
					},
					"t_array(t_uint256)dyn_storage": {
						"base": "t_uint256",
						"encoding": "dynamic_array",
						"label": "uint256[]",
						"numberOfBytes": "32"
					},
					"t_bool": {
						"encoding": "inplace",
						"label": "bool",
						"numberOfBytes": "1"
					},
					"t_bytes32": {
						"encoding": "inplace",
						"label": "bytes32",
						"numberOfBytes": "32"
					},
					"t_contract(VRFCoordinatorV2Interface)95": {
						"encoding": "inplace",
						"label": "contract VRFCoordinatorV2Interface",
						"numberOfBytes": "20"
					},
					"t_mapping(t_uint256,t_struct(RequestStatus)385_storage)": {
						"encoding": "mapping",
						"key": "t_uint256",
						"label": "mapping(uint256 => struct VRFv2Consumer.RequestStatus)",
						"numberOfBytes": "32",
						"value": "t_struct(RequestStatus)385_storage"
					},
					"t_struct(RequestStatus)385_storage": {
						"encoding": "inplace",
						"label": "struct VRFv2Consumer.RequestStatus",
						"members": [
							{
								"astId": 379,
								"contract": "VRFV2/VRFv2Consumer.sol:VRFv2Consumer",
								"label": "fulfilled",
								"offset": 0,
								"slot": "0",
								"type": "t_bool"
							},
							{
								"astId": 381,
								"contract": "VRFV2/VRFv2Consumer.sol:VRFv2Consumer",
								"label": "exists",
								"offset": 1,
								"slot": "0",
								"type": "t_bool"
							},
							{
								"astId": 384,
								"contract": "VRFV2/VRFv2Consumer.sol:VRFv2Consumer",
								"label": "randomWords",
								"offset": 0,
								"slot": "1",
								"type": "t_array(t_uint256)dyn_storage"
							}
						],
						"numberOfBytes": "64"
					},
					"t_uint16": {
						"encoding": "inplace",
						"label": "uint16",
						"numberOfBytes": "2"
					},
					"t_uint256": {
						"encoding": "inplace",
						"label": "uint256",
						"numberOfBytes": "32"
					},
					"t_uint32": {
						"encoding": "inplace",
						"label": "uint32",
						"numberOfBytes": "4"
					},
					"t_uint64": {
						"encoding": "inplace",
						"label": "uint64",
						"numberOfBytes": "8"
					}
				}
			},
			"userdoc": {
				"kind": "user",
				"methods": {
					"acceptOwnership()": {
						"notice": "Allows an ownership transfer to be completed by the recipient."
					},
					"constructor": {
						"notice": "HARDCODED FOR SEPOLIA COORDINATOR: 0x8103B0A8A00be2DDC778e6e7eaa21791Cd364625"
					},
					"owner()": {
						"notice": "Get the current owner"
					},
					"transferOwnership(address)": {
						"notice": "Allows an owner to begin transferring ownership to a new address, pending."
					}
				},
				"notice": "THIS IS AN EXAMPLE CONTRACT THAT USES HARDCODED VALUES FOR CLARITY. THIS IS AN EXAMPLE CONTRACT THAT USES UN-AUDITED CODE. DO NOT USE THIS CODE IN PRODUCTION.",
				"version": 1
			}
		}
	}
}