{
	"https://github.com/smartcontractkit/chainlink/blob/master/contracts/src/v0.7/dev/AggregatorProxy.sol": {
		"AggregatorProxy": {
			"abi": [
				{
					"inputs": [
						{
							"internalType": "address",
							"name": "aggregatorAddress",
							"type": "address"
						}
					],
					"stateMutability": "nonpayable",
					"type": "constructor"
				},
				{
					"anonymous": false,
					"inputs": [
						{
							"indexed": true,
							"internalType": "address",
							"name": "previous",
							"type": "address"
						},
						{
							"indexed": true,
							"internalType": "address",
							"name": "latest",
							"type": "address"
						}
					],
					"name": "AggregatorConfirmed",
					"type": "event"
				},
				{
					"anonymous": false,
					"inputs": [
						{
							"indexed": true,
							"internalType": "address",
							"name": "current",
							"type": "address"
						},
						{
							"indexed": true,
							"internalType": "address",
							"name": "proposed",
							"type": "address"
						}
					],
					"name": "AggregatorProposed",
					"type": "event"
				},
				{
					"anonymous": false,
					"inputs": [
						{
							"indexed": true,
							"internalType": "int256",
							"name": "current",
							"type": "int256"
						},
						{
							"indexed": true,
							"internalType": "uint256",
							"name": "roundId",
							"type": "uint256"
						},
						{
							"indexed": false,
							"internalType": "uint256",
							"name": "updatedAt",
							"type": "uint256"
						}
					],
					"name": "AnswerUpdated",
					"type": "event"
				},
				{
					"anonymous": false,
					"inputs": [
						{
							"indexed": true,
							"internalType": "uint256",
							"name": "roundId",
							"type": "uint256"
						},
						{
							"indexed": true,
							"internalType": "address",
							"name": "startedBy",
							"type": "address"
						},
						{
							"indexed": false,
							"internalType": "uint256",
							"name": "startedAt",
							"type": "uint256"
						}
					],
					"name": "NewRound",
					"type": "event"
				},
				{
					"anonymous": false,
					"inputs": [
						{
							"indexed": true,
							"internalType": "address",
							"name": "from",
							"type": "address"
						},
						{
							"indexed": true,
							"internalType": "address",
							"name": "to",
							"type": "address"
						}
					],
					"name": "OwnershipTransferRequested",
					"type": "event"
				},
				{
					"anonymous": false,
					"inputs": [
						{
							"indexed": true,
							"internalType": "address",
							"name": "from",
							"type": "address"
						},
						{
							"indexed": true,
							"internalType": "address",
							"name": "to",
							"type": "address"
						}
					],
					"name": "OwnershipTransferred",
					"type": "event"
				},
				{
					"inputs": [],
					"name": "acceptOwnership",
					"outputs": [],
					"stateMutability": "nonpayable",
					"type": "function"
				},
				{
					"inputs": [],
					"name": "aggregator",
					"outputs": [
						{
							"internalType": "address",
							"name": "",
							"type": "address"
						}
					],
					"stateMutability": "view",
					"type": "function"
				},
				{
					"inputs": [
						{
							"internalType": "address",
							"name": "aggregatorAddress",
							"type": "address"
						}
					],
					"name": "confirmAggregator",
					"outputs": [],
					"stateMutability": "nonpayable",
					"type": "function"
				},
				{
					"inputs": [],
					"name": "decimals",
					"outputs": [
						{
							"internalType": "uint8",
							"name": "",
							"type": "uint8"
						}
					],
					"stateMutability": "view",
					"type": "function"
				},
				{
					"inputs": [],
					"name": "description",
					"outputs": [
						{
							"internalType": "string",
							"name": "",
							"type": "string"
						}
					],
					"stateMutability": "view",
					"type": "function"
				},
				{
					"inputs": [
						{
							"internalType": "uint256",
							"name": "roundId",
							"type": "uint256"
						}
					],
					"name": "getAnswer",
					"outputs": [
						{
							"internalType": "int256",
							"name": "answer",
							"type": "int256"
						}
					],
					"stateMutability": "view",
					"type": "function"
				},
				{
					"inputs": [
						{
							"internalType": "uint80",
							"name": "roundId",
							"type": "uint80"
						}
					],
					"name": "getRoundData",
					"outputs": [
						{
							"internalType": "uint80",
							"name": "id",
							"type": "uint80"
						},
						{
							"internalType": "int256",
							"name": "answer",
							"type": "int256"
						},
						{
							"internalType": "uint256",
							"name": "startedAt",
							"type": "uint256"
						},
						{
							"internalType": "uint256",
							"name": "updatedAt",
							"type": "uint256"
						},
						{
							"internalType": "uint80",
							"name": "answeredInRound",
							"type": "uint80"
						}
					],
					"stateMutability": "view",
					"type": "function"
				},
				{
					"inputs": [
						{
							"internalType": "uint256",
							"name": "roundId",
							"type": "uint256"
						}
					],
					"name": "getTimestamp",
					"outputs": [
						{
							"internalType": "uint256",
							"name": "updatedAt",
							"type": "uint256"
						}
					],
					"stateMutability": "view",
					"type": "function"
				},
				{
					"inputs": [],
					"name": "latestAnswer",
					"outputs": [
						{
							"internalType": "int256",
							"name": "answer",
							"type": "int256"
						}
					],
					"stateMutability": "view",
					"type": "function"
				},
				{
					"inputs": [],
					"name": "latestRound",
					"outputs": [
						{
							"internalType": "uint256",
							"name": "roundId",
							"type": "uint256"
						}
					],
					"stateMutability": "view",
					"type": "function"
				},
				{
					"inputs": [],
					"name": "latestRoundData",
					"outputs": [
						{
							"internalType": "uint80",
							"name": "id",
							"type": "uint80"
						},
						{
							"internalType": "int256",
							"name": "answer",
							"type": "int256"
						},
						{
							"internalType": "uint256",
							"name": "startedAt",
							"type": "uint256"
						},
						{
							"internalType": "uint256",
							"name": "updatedAt",
							"type": "uint256"
						},
						{
							"internalType": "uint80",
							"name": "answeredInRound",
							"type": "uint80"
						}
					],
					"stateMutability": "view",
					"type": "function"
				},
				{
					"inputs": [],
					"name": "latestTimestamp",
					"outputs": [
						{
							"internalType": "uint256",
							"name": "updatedAt",
							"type": "uint256"
						}
					],
					"stateMutability": "view",
					"type": "function"
				},
				{
					"inputs": [],
					"name": "owner",
					"outputs": [
						{
							"internalType": "address",
							"name": "",
							"type": "address"
						}
					],
					"stateMutability": "view",
					"type": "function"
				},
				{
					"inputs": [
						{
							"internalType": "uint16",
							"name": "phaseId",
							"type": "uint16"
						}
					],
					"name": "phaseAggregators",
					"outputs": [
						{
							"internalType": "address",
							"name": "",
							"type": "address"
						}
					],
					"stateMutability": "view",
					"type": "function"
				},
				{
					"inputs": [],
					"name": "phaseId",
					"outputs": [
						{
							"internalType": "uint16",
							"name": "",
							"type": "uint16"
						}
					],
					"stateMutability": "view",
					"type": "function"
				},
				{
					"inputs": [
						{
							"internalType": "address",
							"name": "aggregatorAddress",
							"type": "address"
						}
					],
					"name": "proposeAggregator",
					"outputs": [],
					"stateMutability": "nonpayable",
					"type": "function"
				},
				{
					"inputs": [],
					"name": "proposedAggregator",
					"outputs": [
						{
							"internalType": "address",
							"name": "",
							"type": "address"
						}
					],
					"stateMutability": "view",
					"type": "function"
				},
				{
					"inputs": [
						{
							"internalType": "uint80",
							"name": "roundId",
							"type": "uint80"
						}
					],
					"name": "proposedGetRoundData",
					"outputs": [
						{
							"internalType": "uint80",
							"name": "id",
							"type": "uint80"
						},
						{
							"internalType": "int256",
							"name": "answer",
							"type": "int256"
						},
						{
							"internalType": "uint256",
							"name": "startedAt",
							"type": "uint256"
						},
						{
							"internalType": "uint256",
							"name": "updatedAt",
							"type": "uint256"
						},
						{
							"internalType": "uint80",
							"name": "answeredInRound",
							"type": "uint80"
						}
					],
					"stateMutability": "view",
					"type": "function"
				},
				{
					"inputs": [],
					"name": "proposedLatestRoundData",
					"outputs": [
						{
							"internalType": "uint80",
							"name": "id",
							"type": "uint80"
						},
						{
							"internalType": "int256",
							"name": "answer",
							"type": "int256"
						},
						{
							"internalType": "uint256",
							"name": "startedAt",
							"type": "uint256"
						},
						{
							"internalType": "uint256",
							"name": "updatedAt",
							"type": "uint256"
						},
						{
							"internalType": "uint80",
							"name": "answeredInRound",
							"type": "uint80"
						}
					],
					"stateMutability": "view",
					"type": "function"
				},
				{
					"inputs": [
						{
							"internalType": "address",
							"name": "to",
							"type": "address"
						}
					],
					"name": "transferOwnership",
					"outputs": [],
					"stateMutability": "nonpayable",
					"type": "function"
				},
				{
					"inputs": [],
					"name": "version",
					"outputs": [
						{
							"internalType": "uint256",
							"name": "",
							"type": "uint256"
						}
					],
					"stateMutability": "view",
					"type": "function"
				}
			],
			"devdoc": {
				"kind": "dev",
				"methods": {
					"confirmAggregator(address)": {
						"details": "Reverts if the given address doesn't match what was previously proposed",
						"params": {
							"aggregatorAddress": "The new address for the aggregator contract"
						}
					},
					"getAnswer(uint256)": {
						"details": "#[deprecated] Use getRoundData instead. This does not error if no answer has been reached, it will simply return 0. Either wait to point to an already answered Aggregator or use the recommended getRoundData instead which includes better verification information.",
						"params": {
							"roundId": "the answer number to retrieve the answer for"
						}
					},
					"getRoundData(uint80)": {
						"details": "Note that answer and updatedAt may change between queries.",
						"params": {
							"roundId": "the requested round ID as presented through the proxy, this is made up of the aggregator's round ID with the phase ID encoded in the two highest order bytes"
						},
						"returns": {
							"answer": "is the answer for the given round",
							"answeredInRound": "is the round ID of the round in which the answer was computed. (Only some AggregatorV3Interface implementations return meaningful values)",
							"id": "is the round ID from the aggregator for which the data was retrieved combined with an phase to ensure that round IDs get larger as time moves forward.",
							"startedAt": "is the timestamp when the round was started. (Only some AggregatorV3Interface implementations return meaningful values)",
							"updatedAt": "is the timestamp when the round last was updated (i.e. answer was last computed)"
						}
					},
					"getTimestamp(uint256)": {
						"details": "#[deprecated] Use getRoundData instead. This does not error if no answer has been reached, it will simply return 0. Either wait to point to an already answered Aggregator or use the recommended getRoundData instead which includes better verification information.",
						"params": {
							"roundId": "the answer number to retrieve the updated timestamp for"
						}
					},
					"latestAnswer()": {
						"details": "#[deprecated] Use latestRoundData instead. This does not error if no answer has been reached, it will simply return 0. Either wait to point to an already answered Aggregator or use the recommended latestRoundData instead which includes better verification information."
					},
					"latestRound()": {
						"details": "#[deprecated] Use latestRoundData instead. This does not error if no answer has been reached, it will simply return 0. Either wait to point to an already answered Aggregator or use the recommended latestRoundData instead which includes better verification information."
					},
					"latestRoundData()": {
						"details": "Note that answer and updatedAt may change between queries.",
						"returns": {
							"answer": "is the answer for the given round",
							"answeredInRound": "is the round ID of the round in which the answer was computed. (Only some AggregatorV3Interface implementations return meaningful values)",
							"id": "is the round ID from the aggregator for which the data was retrieved combined with an phase to ensure that round IDs get larger as time moves forward.",
							"startedAt": "is the timestamp when the round was started. (Only some AggregatorV3Interface implementations return meaningful values)",
							"updatedAt": "is the timestamp when the round last was updated (i.e. answer was last computed)"
						}
					},
					"latestTimestamp()": {
						"details": "#[deprecated] Use latestRoundData instead. This does not error if no answer has been reached, it will simply return 0. Either wait to point to an already answered Aggregator or use the recommended latestRoundData instead which includes better verification information."
					},
					"phaseAggregators(uint16)": {
						"params": {
							"phaseId": "uint16"
						}
					},
					"proposeAggregator(address)": {
						"params": {
							"aggregatorAddress": "The new address for the aggregator contract"
						}
					},
					"proposedGetRoundData(uint80)": {
						"params": {
							"roundId": "the round ID to retrieve the round data for"
						},
						"returns": {
							"answer": "is the answer for the given round",
							"answeredInRound": "is the round ID of the round in which the answer was computed.",
							"id": "is the round ID for which data was retrieved",
							"startedAt": "is the timestamp when the round was started. (Only some AggregatorV3Interface implementations return meaningful values)",
							"updatedAt": "is the timestamp when the round last was updated (i.e. answer was last computed)"
						}
					},
					"proposedLatestRoundData()": {
						"returns": {
							"answer": "is the answer for the given round",
							"answeredInRound": "is the round ID of the round in which the answer was computed.",
							"id": "is the round ID for which data was retrieved",
							"startedAt": "is the timestamp when the round was started. (Only some AggregatorV3Interface implementations return meaningful values)",
							"updatedAt": "is the timestamp when the round last was updated (i.e. answer was last computed)"
						}
					}
				},
				"title": "A trusted proxy for updating where current answers are read from",
				"version": 1
			},
			"evm": {
				"assembly": "    /* \"https://github.com/smartcontractkit/chainlink/blob/master/contracts/src/v0.7/dev/AggregatorProxy.sol\":395:13716  contract AggregatorProxy is AggregatorProxyInterface, ConfirmedOwner {... */\n  mstore(0x40, 0x80)\n    /* \"https://github.com/smartcontractkit/chainlink/blob/master/contracts/src/v0.7/dev/AggregatorProxy.sol\":1031:1140  constructor(address aggregatorAddress) ConfirmedOwner(msg.sender) {... */\n  callvalue\n  dup1\n  iszero\n  tag_1\n  jumpi\n  0x00\n  dup1\n  revert\ntag_1:\n  pop\n  mload(0x40)\n  sub(codesize, bytecodeSize)\n  dup1\n  bytecodeSize\n  dup4\n  codecopy\n  dup2\n  dup2\n  add\n  0x40\n  mstore\n  0x20\n  dup2\n  lt\n  iszero\n  tag_2\n  jumpi\n  0x00\n  dup1\n  revert\ntag_2:\n  pop\n  mload\n    /* \"https://github.com/smartcontractkit/chainlink/blob/master/contracts/src/v0.7/dev/AggregatorProxy.sol\":1085:1095  msg.sender */\n  caller\n  dup1\n    /* \"https://github.com/smartcontractkit/chainlink/blob/master/contracts/src/v0.7/ConfirmedOwner.sol\":345:346  0 */\n  0x00\n    /* \"https://github.com/smartcontractkit/chainlink/blob/master/contracts/src/v0.7/ConfirmedOwnerWithProposal.sol\":552:574  newOwner != address(0) */\n  dup2\n    /* \"https://github.com/smartcontractkit/chainlink/blob/master/contracts/src/v0.7/ConfirmedOwnerWithProposal.sol\":544:603  require(newOwner != address(0), \"Cannot set owner to zero\") */\n  tag_7\n  jumpi\n  0x40\n  dup1\n  mload\n  shl(0xe5, 0x461bcd)\n  dup2\n  mstore\n  0x20\n  0x04\n  dup3\n  add\n  mstore\n  0x18\n  0x24\n  dup3\n  add\n  mstore\n  0x43616e6e6f7420736574206f776e657220746f207a65726f0000000000000000\n  0x44\n  dup3\n  add\n  mstore\n  swap1\n  mload\n  swap1\n  dup2\n  swap1\n  sub\n  0x64\n  add\n  swap1\n  revert\ntag_7:\n    /* \"https://github.com/smartcontractkit/chainlink/blob/master/contracts/src/v0.7/ConfirmedOwnerWithProposal.sol\":610:617  s_owner */\n  0x00\n    /* \"https://github.com/smartcontractkit/chainlink/blob/master/contracts/src/v0.7/ConfirmedOwnerWithProposal.sol\":610:628  s_owner = newOwner */\n  dup1\n  sload\n  not(sub(shl(0xa0, 0x01), 0x01))\n  and\n  sub(shl(0xa0, 0x01), 0x01)\n  dup5\n  dup2\n  and\n  swap2\n  swap1\n  swap2\n  or\n  swap1\n  swap2\n  sstore\n    /* \"https://github.com/smartcontractkit/chainlink/blob/master/contracts/src/v0.7/ConfirmedOwnerWithProposal.sol\":638:664  pendingOwner != address(0) */\n  dup2\n  and\n  iszero\n    /* \"https://github.com/smartcontractkit/chainlink/blob/master/contracts/src/v0.7/ConfirmedOwnerWithProposal.sol\":634:713  if (pendingOwner != address(0)) {... */\n  tag_9\n  jumpi\n    /* \"https://github.com/smartcontractkit/chainlink/blob/master/contracts/src/v0.7/ConfirmedOwnerWithProposal.sol\":674:706  _transferOwnership(pendingOwner) */\n  tag_9\n    /* \"https://github.com/smartcontractkit/chainlink/blob/master/contracts/src/v0.7/ConfirmedOwnerWithProposal.sol\":693:705  pendingOwner */\n  dup2\n    /* \"https://github.com/smartcontractkit/chainlink/blob/master/contracts/src/v0.7/ConfirmedOwnerWithProposal.sol\":674:692  _transferOwnership */\n  tag_10\n    /* \"https://github.com/smartcontractkit/chainlink/blob/master/contracts/src/v0.7/ConfirmedOwnerWithProposal.sol\":674:706  _transferOwnership(pendingOwner) */\n  jump\t// in\ntag_9:\n    /* \"https://github.com/smartcontractkit/chainlink/blob/master/contracts/src/v0.7/ConfirmedOwnerWithProposal.sol\":486:717  constructor(address newOwner, address pendingOwner) {... */\n  pop\n  pop\n    /* \"https://github.com/smartcontractkit/chainlink/blob/master/contracts/src/v0.7/ConfirmedOwner.sol\":270:351  constructor(address newOwner) ConfirmedOwnerWithProposal(newOwner, address(0)) {} */\n  pop\n    /* \"https://github.com/smartcontractkit/chainlink/blob/master/contracts/src/v0.7/dev/AggregatorProxy.sol\":1103:1135  setAggregator(aggregatorAddress) */\n  tag_13\n    /* \"https://github.com/smartcontractkit/chainlink/blob/master/contracts/src/v0.7/dev/AggregatorProxy.sol\":1117:1134  aggregatorAddress */\n  dup2\n    /* \"https://github.com/smartcontractkit/chainlink/blob/master/contracts/src/v0.7/dev/AggregatorProxy.sol\":1103:1116  setAggregator */\n  shl(0x20, tag_14)\n    /* \"https://github.com/smartcontractkit/chainlink/blob/master/contracts/src/v0.7/dev/AggregatorProxy.sol\":1103:1135  setAggregator(aggregatorAddress) */\n  0x20\n  shr\n  jump\t// in\ntag_13:\n    /* \"https://github.com/smartcontractkit/chainlink/blob/master/contracts/src/v0.7/dev/AggregatorProxy.sol\":1031:1140  constructor(address aggregatorAddress) ConfirmedOwner(msg.sender) {... */\n  pop\n    /* \"https://github.com/smartcontractkit/chainlink/blob/master/contracts/src/v0.7/dev/AggregatorProxy.sol\":395:13716  contract AggregatorProxy is AggregatorProxyInterface, ConfirmedOwner {... */\n  jump(tag_15)\n    /* \"https://github.com/smartcontractkit/chainlink/blob/master/contracts/src/v0.7/ConfirmedOwnerWithProposal.sol\":1497:1685  function _transferOwnership(address to) private {... */\ntag_10:\n  sub(shl(0xa0, 0x01), 0x01)\n    /* \"https://github.com/smartcontractkit/chainlink/blob/master/contracts/src/v0.7/ConfirmedOwnerWithProposal.sol\":1559:1575  to != msg.sender */\n  dup2\n  and\n    /* \"https://github.com/smartcontractkit/chainlink/blob/master/contracts/src/v0.7/ConfirmedOwnerWithProposal.sol\":1565:1575  msg.sender */\n  caller\n    /* \"https://github.com/smartcontractkit/chainlink/blob/master/contracts/src/v0.7/ConfirmedOwnerWithProposal.sol\":1559:1575  to != msg.sender */\n  eq\n  iszero\n    /* \"https://github.com/smartcontractkit/chainlink/blob/master/contracts/src/v0.7/ConfirmedOwnerWithProposal.sol\":1551:1603  require(to != msg.sender, \"Cannot transfer to self\") */\n  tag_17\n  jumpi\n  0x40\n  dup1\n  mload\n  shl(0xe5, 0x461bcd)\n  dup2\n  mstore\n  0x20\n  0x04\n  dup3\n  add\n  mstore\n  0x17\n  0x24\n  dup3\n  add\n  mstore\n  0x43616e6e6f74207472616e7366657220746f2073656c66000000000000000000\n  0x44\n  dup3\n  add\n  mstore\n  swap1\n  mload\n  swap1\n  dup2\n  swap1\n  sub\n  0x64\n  add\n  swap1\n  revert\ntag_17:\n    /* \"https://github.com/smartcontractkit/chainlink/blob/master/contracts/src/v0.7/ConfirmedOwnerWithProposal.sol\":1610:1624  s_pendingOwner */\n  0x01\n    /* \"https://github.com/smartcontractkit/chainlink/blob/master/contracts/src/v0.7/ConfirmedOwnerWithProposal.sol\":1610:1629  s_pendingOwner = to */\n  dup1\n  sload\n  not(sub(shl(0xa0, 0x01), 0x01))\n  and\n  sub(shl(0xa0, 0x01), 0x01)\n  dup4\n  dup2\n  and\n  swap2\n  dup3\n  or\n  swap1\n  swap3\n  sstore\n  0x00\n    /* \"https://github.com/smartcontractkit/chainlink/blob/master/contracts/src/v0.7/ConfirmedOwnerWithProposal.sol\":1668:1675  s_owner */\n  dup1\n  sload\n    /* \"https://github.com/smartcontractkit/chainlink/blob/master/contracts/src/v0.7/ConfirmedOwnerWithProposal.sol\":1641:1680  OwnershipTransferRequested(s_owner, to) */\n  mload(0x40)\n    /* \"https://github.com/smartcontractkit/chainlink/blob/master/contracts/src/v0.7/ConfirmedOwnerWithProposal.sol\":1610:1629  s_pendingOwner = to */\n  swap3\n  swap4\n    /* \"https://github.com/smartcontractkit/chainlink/blob/master/contracts/src/v0.7/ConfirmedOwnerWithProposal.sol\":1668:1675  s_owner */\n  and\n  swap2\n    /* \"https://github.com/smartcontractkit/chainlink/blob/master/contracts/src/v0.7/ConfirmedOwnerWithProposal.sol\":1641:1680  OwnershipTransferRequested(s_owner, to) */\n  0xed8889f560326eb138920d842192f0eb3dd22b4f139c87a2c57538e05bae1278\n  swap2\n  swap1\n  log3\n    /* \"https://github.com/smartcontractkit/chainlink/blob/master/contracts/src/v0.7/ConfirmedOwnerWithProposal.sol\":1497:1685  function _transferOwnership(address to) private {... */\n  pop\n  jump\t// out\n    /* \"https://github.com/smartcontractkit/chainlink/blob/master/contracts/src/v0.7/dev/AggregatorProxy.sol\":12477:12731  function setAggregator(address aggregatorAddress) internal {... */\ntag_14:\n    /* \"https://github.com/smartcontractkit/chainlink/blob/master/contracts/src/v0.7/dev/AggregatorProxy.sol\":12554:12568  s_currentPhase */\n  0x04\n    /* \"https://github.com/smartcontractkit/chainlink/blob/master/contracts/src/v0.7/dev/AggregatorProxy.sol\":12554:12571  s_currentPhase.id */\n  dup1\n  sload\n    /* \"https://github.com/smartcontractkit/chainlink/blob/master/contracts/src/v0.7/dev/AggregatorProxy.sol\":12598:12652  Phase(id, AggregatorProxyInterface(aggregatorAddress)) */\n  0x40\n  dup1\n  mload\n  dup1\n  dup3\n  add\n  dup3\n  mstore\n    /* \"https://github.com/smartcontractkit/chainlink/blob/master/contracts/src/v0.7/dev/AggregatorProxy.sol\":12554:12571  s_currentPhase.id */\n  0x01\n  0xffff\n  dup1\n  dup6\n  and\n    /* \"https://github.com/smartcontractkit/chainlink/blob/master/contracts/src/v0.7/dev/AggregatorProxy.sol\":12554:12575  s_currentPhase.id + 1 */\n  swap2\n  swap1\n  swap2\n  add\n    /* \"https://github.com/smartcontractkit/chainlink/blob/master/contracts/src/v0.7/dev/AggregatorProxy.sol\":12598:12652  Phase(id, AggregatorProxyInterface(aggregatorAddress)) */\n  and\n  dup1\n  dup3\n  mstore\n  sub(shl(0xa0, 0x01), 0x01)\n  swap6\n  swap1\n  swap6\n  and\n  0x20\n  swap2\n  dup3\n  add\n  dup2\n  swap1\n  mstore\n  not(0xffff)\n    /* \"https://github.com/smartcontractkit/chainlink/blob/master/contracts/src/v0.7/dev/AggregatorProxy.sol\":12581:12652  s_currentPhase = Phase(id, AggregatorProxyInterface(aggregatorAddress)) */\n  swap1\n  swap4\n  and\n  dup6\n  or\n  not(sub(shl(0xb0, 0x01), 0x010000))\n  and\n  0x010000\n  dup5\n  mul\n  or\n  swap1\n  swap4\n  sstore\n  0x00\n    /* \"https://github.com/smartcontractkit/chainlink/blob/master/contracts/src/v0.7/dev/AggregatorProxy.sol\":12658:12680  s_phaseAggregators[id] */\n  swap4\n  dup5\n  mstore\n    /* \"https://github.com/smartcontractkit/chainlink/blob/master/contracts/src/v0.7/dev/AggregatorProxy.sol\":12658:12676  s_phaseAggregators */\n  0x03\n    /* \"https://github.com/smartcontractkit/chainlink/blob/master/contracts/src/v0.7/dev/AggregatorProxy.sol\":12658:12680  s_phaseAggregators[id] */\n  swap1\n  swap3\n  mstore\n  swap2\n  keccak256\n    /* \"https://github.com/smartcontractkit/chainlink/blob/master/contracts/src/v0.7/dev/AggregatorProxy.sol\":12658:12726  s_phaseAggregators[id] = AggregatorProxyInterface(aggregatorAddress) */\n  dup1\n  sload\n  not(sub(shl(0xa0, 0x01), 0x01))\n  and\n  swap1\n  swap2\n  or\n  swap1\n  sstore\n    /* \"https://github.com/smartcontractkit/chainlink/blob/master/contracts/src/v0.7/dev/AggregatorProxy.sol\":12477:12731  function setAggregator(address aggregatorAddress) internal {... */\n  jump\t// out\n    /* \"https://github.com/smartcontractkit/chainlink/blob/master/contracts/src/v0.7/dev/AggregatorProxy.sol\":395:13716  contract AggregatorProxy is AggregatorProxyInterface, ConfirmedOwner {... */\ntag_15:\n  dataSize(sub_0)\n  dup1\n  dataOffset(sub_0)\n  0x00\n  codecopy\n  0x00\n  return\nstop\n\nsub_0: assembly {\n        /* \"https://github.com/smartcontractkit/chainlink/blob/master/contracts/src/v0.7/dev/AggregatorProxy.sol\":395:13716  contract AggregatorProxy is AggregatorProxyInterface, ConfirmedOwner {... */\n      mstore(0x40, 0x80)\n      callvalue\n      dup1\n      iszero\n      tag_1\n      jumpi\n      0x00\n      dup1\n      revert\n    tag_1:\n      pop\n      jumpi(tag_2, lt(calldatasize, 0x04))\n      shr(0xe0, calldataload(0x00))\n      dup1\n      0x8da5cb5b\n      gt\n      tag_24\n      jumpi\n      dup1\n      0xb633620c\n      gt\n      tag_25\n      jumpi\n      dup1\n      0xf2fde38b\n      gt\n      tag_26\n      jumpi\n      dup1\n      0xf2fde38b\n      eq\n      tag_21\n      jumpi\n      dup1\n      0xf8a2abd3\n      eq\n      tag_22\n      jumpi\n      dup1\n      0xfeaf968c\n      eq\n      tag_23\n      jumpi\n      jump(tag_2)\n    tag_26:\n      dup1\n      0xb633620c\n      eq\n      tag_18\n      jumpi\n      dup1\n      0xc1597304\n      eq\n      tag_19\n      jumpi\n      dup1\n      0xe8c4be30\n      eq\n      tag_20\n      jumpi\n      jump(tag_2)\n    tag_25:\n      dup1\n      0x9a6fc8f5\n      gt\n      tag_27\n      jumpi\n      dup1\n      0x9a6fc8f5\n      eq\n      tag_15\n      jumpi\n      dup1\n      0xa928c096\n      eq\n      tag_16\n      jumpi\n      dup1\n      0xb5ab58dc\n      eq\n      tag_17\n      jumpi\n      jump(tag_2)\n    tag_27:\n      dup1\n      0x8da5cb5b\n      eq\n      tag_13\n      jumpi\n      dup1\n      0x8f6b4d91\n      eq\n      tag_14\n      jumpi\n      jump(tag_2)\n    tag_24:\n      dup1\n      0x6001ac53\n      gt\n      tag_28\n      jumpi\n      dup1\n      0x7284e416\n      gt\n      tag_29\n      jumpi\n      dup1\n      0x7284e416\n      eq\n      tag_10\n      jumpi\n      dup1\n      0x79ba5097\n      eq\n      tag_11\n      jumpi\n      dup1\n      0x8205bf6a\n      eq\n      tag_12\n      jumpi\n      jump(tag_2)\n    tag_29:\n      dup1\n      0x6001ac53\n      eq\n      tag_8\n      jumpi\n      dup1\n      0x668a0f02\n      eq\n      tag_9\n      jumpi\n      jump(tag_2)\n    tag_28:\n      dup1\n      0x50d25bcd\n      gt\n      tag_30\n      jumpi\n      dup1\n      0x50d25bcd\n      eq\n      tag_5\n      jumpi\n      dup1\n      0x54fd4d50\n      eq\n      tag_6\n      jumpi\n      dup1\n      0x58303b10\n      eq\n      tag_7\n      jumpi\n      jump(tag_2)\n    tag_30:\n      dup1\n      0x245a7bfc\n      eq\n      tag_3\n      jumpi\n      dup1\n      0x313ce567\n      eq\n      tag_4\n      jumpi\n    tag_2:\n      0x00\n      dup1\n      revert\n        /* \"https://github.com/smartcontractkit/chainlink/blob/master/contracts/src/v0.7/dev/AggregatorProxy.sol\":10040:10155  function aggregator() external view override returns (address) {... */\n    tag_3:\n      tag_31\n      tag_32\n      jump\t// in\n    tag_31:\n      0x40\n      dup1\n      mload\n      sub(shl(0xa0, 0x01), 0x01)\n      swap1\n      swap3\n      and\n      dup3\n      mstore\n      mload\n      swap1\n      dup2\n      swap1\n      sub\n      0x20\n      add\n      swap1\n      return\n        /* \"https://github.com/smartcontractkit/chainlink/blob/master/contracts/src/v0.7/dev/AggregatorProxy.sol\":10409:10522  function decimals() external view override returns (uint8) {... */\n    tag_4:\n      tag_33\n      tag_34\n      jump\t// in\n    tag_33:\n      0x40\n      dup1\n      mload\n      0xff\n      swap1\n      swap3\n      and\n      dup3\n      mstore\n      mload\n      swap1\n      dup2\n      swap1\n      sub\n      0x20\n      add\n      swap1\n      return\n        /* \"https://github.com/smartcontractkit/chainlink/blob/master/contracts/src/v0.7/dev/AggregatorProxy.sol\":1523:1658  function latestAnswer() public view virtual override returns (int256 answer) {... */\n    tag_5:\n      tag_35\n      tag_36\n      jump\t// in\n    tag_35:\n      0x40\n      dup1\n      mload\n      swap2\n      dup3\n      mstore\n      mload\n      swap1\n      dup2\n      swap1\n      sub\n      0x20\n      add\n      swap1\n      return\n        /* \"https://github.com/smartcontractkit/chainlink/blob/master/contracts/src/v0.7/dev/AggregatorProxy.sol\":10632:10745  function version() external view override returns (uint256) {... */\n    tag_6:\n      tag_35\n      tag_38\n      jump\t// in\n        /* \"https://github.com/smartcontractkit/chainlink/blob/master/contracts/src/v0.7/dev/AggregatorProxy.sol\":10216:10310  function phaseId() external view override returns (uint16) {... */\n    tag_7:\n      tag_39\n      tag_40\n      jump\t// in\n    tag_39:\n      0x40\n      dup1\n      mload\n      0xffff\n      swap1\n      swap3\n      and\n      dup3\n      mstore\n      mload\n      swap1\n      dup2\n      swap1\n      sub\n      0x20\n      add\n      swap1\n      return\n        /* \"https://github.com/smartcontractkit/chainlink/blob/master/contracts/src/v0.7/dev/AggregatorProxy.sol\":8814:9122  function proposedGetRoundData(uint80 roundId)... */\n    tag_8:\n      tag_41\n      0x04\n      dup1\n      calldatasize\n      sub\n      0x20\n      dup2\n      lt\n      iszero\n      tag_42\n      jumpi\n      0x00\n      dup1\n      revert\n    tag_42:\n      pop\n      calldataload\n      0xffffffffffffffffffff\n      and\n      tag_43\n      jump\t// in\n    tag_41:\n      mload(0x40)\n      dup1\n      dup7\n      0xffffffffffffffffffff\n      and\n      dup2\n      mstore\n      0x20\n      add\n      dup6\n      dup2\n      mstore\n      0x20\n      add\n      dup5\n      dup2\n      mstore\n      0x20\n      add\n      dup4\n      dup2\n      mstore\n      0x20\n      add\n      dup3\n      0xffffffffffffffffffff\n      and\n      dup2\n      mstore\n      0x20\n      add\n      swap6\n      pop\n      pop\n      pop\n      pop\n      pop\n      pop\n      mload(0x40)\n      dup1\n      swap2\n      sub\n      swap1\n      return\n        /* \"https://github.com/smartcontractkit/chainlink/blob/master/contracts/src/v0.7/dev/AggregatorProxy.sol\":4333:4551  function latestRound() public view virtual override returns (uint256 roundId) {... */\n    tag_9:\n      tag_35\n      tag_45\n      jump\t// in\n        /* \"https://github.com/smartcontractkit/chainlink/blob/master/contracts/src/v0.7/dev/AggregatorProxy.sol\":10837:10964  function description() external view override returns (string memory) {... */\n    tag_10:\n      tag_46\n      tag_47\n      jump\t// in\n    tag_46:\n      0x40\n      dup1\n      mload\n      0x20\n      dup1\n      dup3\n      mstore\n      dup4\n      mload\n      dup2\n      dup4\n      add\n      mstore\n      dup4\n      mload\n      swap2\n      swap3\n      dup4\n      swap3\n      swap1\n      dup4\n      add\n      swap2\n      dup6\n      add\n      swap1\n      dup1\n      dup4\n      dup4\n      0x00\n    tag_48:\n      dup4\n      dup2\n      lt\n      iszero\n      tag_50\n      jumpi\n      dup2\n      dup2\n      add\n      mload\n      dup4\n      dup3\n      add\n      mstore\n      0x20\n      add\n      jump(tag_48)\n    tag_50:\n      pop\n      pop\n      pop\n      pop\n      swap1\n      pop\n      swap1\n      dup2\n      add\n      swap1\n      0x1f\n      and\n      dup1\n      iszero\n      tag_51\n      jumpi\n      dup1\n      dup3\n      sub\n      dup1\n      mload\n      0x01\n      dup4\n      0x20\n      sub\n      0x0100\n      exp\n      sub\n      not\n      and\n      dup2\n      mstore\n      0x20\n      add\n      swap2\n      pop\n    tag_51:\n      pop\n      swap3\n      pop\n      pop\n      pop\n      mload(0x40)\n      dup1\n      swap2\n      sub\n      swap1\n      return\n        /* \"https://github.com/smartcontractkit/chainlink/blob/master/contracts/src/v0.7/ConfirmedOwnerWithProposal.sol\":1016:1281  function acceptOwnership() external override {... */\n    tag_11:\n      tag_52\n      tag_53\n      jump\t// in\n    tag_52:\n      stop\n        /* \"https://github.com/smartcontractkit/chainlink/blob/master/contracts/src/v0.7/dev/AggregatorProxy.sol\":2046:2191  function latestTimestamp() public view virtual override returns (uint256 updatedAt) {... */\n    tag_12:\n      tag_35\n      tag_55\n      jump\t// in\n        /* \"https://github.com/smartcontractkit/chainlink/blob/master/contracts/src/v0.7/ConfirmedOwnerWithProposal.sol\":1332:1413  function owner() public view override returns (address) {... */\n    tag_13:\n      tag_31\n      tag_57\n      jump\t// in\n        /* \"https://github.com/smartcontractkit/chainlink/blob/master/contracts/src/v0.7/dev/AggregatorProxy.sol\":9670:9963  function proposedLatestRoundData()... */\n    tag_14:\n      tag_41\n      tag_59\n      jump\t// in\n        /* \"https://github.com/smartcontractkit/chainlink/blob/master/contracts/src/v0.7/dev/AggregatorProxy.sol\":5982:6482  function getRoundData(uint80 roundId)... */\n    tag_15:\n      tag_41\n      0x04\n      dup1\n      calldatasize\n      sub\n      0x20\n      dup2\n      lt\n      iszero\n      tag_61\n      jumpi\n      0x00\n      dup1\n      revert\n    tag_61:\n      pop\n      calldataload\n      0xffffffffffffffffffff\n      and\n      tag_62\n      jump\t// in\n        /* \"https://github.com/smartcontractkit/chainlink/blob/master/contracts/src/v0.7/dev/AggregatorProxy.sol\":12064:12447  function confirmAggregator(address aggregatorAddress) external onlyOwner {... */\n    tag_16:\n      tag_52\n      0x04\n      dup1\n      calldatasize\n      sub\n      0x20\n      dup2\n      lt\n      iszero\n      tag_64\n      jumpi\n      0x00\n      dup1\n      revert\n    tag_64:\n      pop\n      calldataload\n      sub(shl(0xa0, 0x01), 0x01)\n      and\n      tag_65\n      jump\t// in\n        /* \"https://github.com/smartcontractkit/chainlink/blob/master/contracts/src/v0.7/dev/AggregatorProxy.sol\":2602:2978  function getAnswer(uint256 roundId) public view virtual override returns (int256 answer) {... */\n    tag_17:\n      tag_35\n      0x04\n      dup1\n      calldatasize\n      sub\n      0x20\n      dup2\n      lt\n      iszero\n      tag_67\n      jumpi\n      0x00\n      dup1\n      revert\n    tag_67:\n      pop\n      calldataload\n      tag_68\n      jump\t// in\n        /* \"https://github.com/smartcontractkit/chainlink/blob/master/contracts/src/v0.7/dev/AggregatorProxy.sol\":3428:3814  function getTimestamp(uint256 roundId) public view virtual override returns (uint256 updatedAt) {... */\n    tag_18:\n      tag_35\n      0x04\n      dup1\n      calldatasize\n      sub\n      0x20\n      dup2\n      lt\n      iszero\n      tag_70\n      jumpi\n      0x00\n      dup1\n      revert\n    tag_70:\n      pop\n      calldataload\n      tag_71\n      jump\t// in\n        /* \"https://github.com/smartcontractkit/chainlink/blob/master/contracts/src/v0.7/dev/AggregatorProxy.sol\":11256:11393  function phaseAggregators(uint16 phaseId) external view override returns (address) {... */\n    tag_19:\n      tag_31\n      0x04\n      dup1\n      calldatasize\n      sub\n      0x20\n      dup2\n      lt\n      iszero\n      tag_73\n      jumpi\n      0x00\n      dup1\n      revert\n    tag_73:\n      pop\n      calldataload\n      0xffff\n      and\n      tag_74\n      jump\t// in\n        /* \"https://github.com/smartcontractkit/chainlink/blob/master/contracts/src/v0.7/dev/AggregatorProxy.sol\":11033:11151  function proposedAggregator() external view override returns (address) {... */\n    tag_20:\n      tag_31\n      tag_76\n      jump\t// in\n        /* \"https://github.com/smartcontractkit/chainlink/blob/master/contracts/src/v0.7/ConfirmedOwnerWithProposal.sol\":826:924  function transferOwnership(address to) public override onlyOwner {... */\n    tag_21:\n      tag_52\n      0x04\n      dup1\n      calldatasize\n      sub\n      0x20\n      dup2\n      lt\n      iszero\n      tag_78\n      jumpi\n      0x00\n      dup1\n      revert\n    tag_78:\n      pop\n      calldataload\n      sub(shl(0xa0, 0x01), 0x01)\n      and\n      tag_79\n      jump\t// in\n        /* \"https://github.com/smartcontractkit/chainlink/blob/master/contracts/src/v0.7/dev/AggregatorProxy.sol\":11557:11791  function proposeAggregator(address aggregatorAddress) external onlyOwner {... */\n    tag_22:\n      tag_52\n      0x04\n      dup1\n      calldatasize\n      sub\n      0x20\n      dup2\n      lt\n      iszero\n      tag_81\n      jumpi\n      0x00\n      dup1\n      revert\n    tag_81:\n      pop\n      calldataload\n      sub(shl(0xa0, 0x01), 0x01)\n      and\n      tag_82\n      jump\t// in\n        /* \"https://github.com/smartcontractkit/chainlink/blob/master/contracts/src/v0.7/dev/AggregatorProxy.sol\":7735:8202  function latestRoundData()... */\n    tag_23:\n      tag_41\n      tag_84\n      jump\t// in\n        /* \"https://github.com/smartcontractkit/chainlink/blob/master/contracts/src/v0.7/dev/AggregatorProxy.sol\":10040:10155  function aggregator() external view override returns (address) {... */\n    tag_32:\n        /* \"https://github.com/smartcontractkit/chainlink/blob/master/contracts/src/v0.7/dev/AggregatorProxy.sol\":10124:10138  s_currentPhase */\n      0x04\n        /* \"https://github.com/smartcontractkit/chainlink/blob/master/contracts/src/v0.7/dev/AggregatorProxy.sol\":10124:10149  s_currentPhase.aggregator */\n      sload\n      0x010000\n      swap1\n      div\n      sub(shl(0xa0, 0x01), 0x01)\n      and\n      swap1\n        /* \"https://github.com/smartcontractkit/chainlink/blob/master/contracts/src/v0.7/dev/AggregatorProxy.sol\":10040:10155  function aggregator() external view override returns (address) {... */\n      jump\t// out\n        /* \"https://github.com/smartcontractkit/chainlink/blob/master/contracts/src/v0.7/dev/AggregatorProxy.sol\":10409:10522  function decimals() external view override returns (uint8) {... */\n    tag_34:\n        /* \"https://github.com/smartcontractkit/chainlink/blob/master/contracts/src/v0.7/dev/AggregatorProxy.sol\":10461:10466  uint8 */\n      0x00\n        /* \"https://github.com/smartcontractkit/chainlink/blob/master/contracts/src/v0.7/dev/AggregatorProxy.sol\":10481:10495  s_currentPhase */\n      0x04\n        /* \"https://github.com/smartcontractkit/chainlink/blob/master/contracts/src/v0.7/dev/AggregatorProxy.sol\":10481:10506  s_currentPhase.aggregator */\n      0x00\n      add\n      0x02\n      swap1\n      sload\n      swap1\n      0x0100\n      exp\n      swap1\n      div\n      sub(shl(0xa0, 0x01), 0x01)\n      and\n      sub(shl(0xa0, 0x01), 0x01)\n        /* \"https://github.com/smartcontractkit/chainlink/blob/master/contracts/src/v0.7/dev/AggregatorProxy.sol\":10481:10515  s_currentPhase.aggregator.decimals */\n      and\n      0x313ce567\n        /* \"https://github.com/smartcontractkit/chainlink/blob/master/contracts/src/v0.7/dev/AggregatorProxy.sol\":10481:10517  s_currentPhase.aggregator.decimals() */\n      mload(0x40)\n      dup2\n      0xffffffff\n      and\n      0xe0\n      shl\n      dup2\n      mstore\n      0x04\n      add\n      0x20\n      mload(0x40)\n      dup1\n      dup4\n      sub\n      dup2\n      dup7\n      dup1\n      extcodesize\n      iszero\n      dup1\n      iszero\n      tag_87\n      jumpi\n      0x00\n      dup1\n      revert\n    tag_87:\n      pop\n      gas\n      staticcall\n      iszero\n      dup1\n      iszero\n      tag_89\n      jumpi\n      returndatasize\n      0x00\n      dup1\n      returndatacopy\n      revert(0x00, returndatasize)\n    tag_89:\n      pop\n      pop\n      pop\n      pop\n      mload(0x40)\n      returndatasize\n      0x20\n      dup2\n      lt\n      iszero\n      tag_90\n      jumpi\n      0x00\n      dup1\n      revert\n    tag_90:\n      pop\n      mload\n      swap1\n      pop\n        /* \"https://github.com/smartcontractkit/chainlink/blob/master/contracts/src/v0.7/dev/AggregatorProxy.sol\":10409:10522  function decimals() external view override returns (uint8) {... */\n      swap1\n      jump\t// out\n        /* \"https://github.com/smartcontractkit/chainlink/blob/master/contracts/src/v0.7/dev/AggregatorProxy.sol\":1523:1658  function latestAnswer() public view virtual override returns (int256 answer) {... */\n    tag_36:\n        /* \"https://github.com/smartcontractkit/chainlink/blob/master/contracts/src/v0.7/dev/AggregatorProxy.sol\":1585:1598  int256 answer */\n      0x00\n        /* \"https://github.com/smartcontractkit/chainlink/blob/master/contracts/src/v0.7/dev/AggregatorProxy.sol\":1613:1627  s_currentPhase */\n      0x04\n        /* \"https://github.com/smartcontractkit/chainlink/blob/master/contracts/src/v0.7/dev/AggregatorProxy.sol\":1613:1638  s_currentPhase.aggregator */\n      0x00\n      add\n      0x02\n      swap1\n      sload\n      swap1\n      0x0100\n      exp\n      swap1\n      div\n      sub(shl(0xa0, 0x01), 0x01)\n      and\n      sub(shl(0xa0, 0x01), 0x01)\n        /* \"https://github.com/smartcontractkit/chainlink/blob/master/contracts/src/v0.7/dev/AggregatorProxy.sol\":1613:1651  s_currentPhase.aggregator.latestAnswer */\n      and\n      0x50d25bcd\n        /* \"https://github.com/smartcontractkit/chainlink/blob/master/contracts/src/v0.7/dev/AggregatorProxy.sol\":1613:1653  s_currentPhase.aggregator.latestAnswer() */\n      mload(0x40)\n      dup2\n      0xffffffff\n      and\n      0xe0\n      shl\n      dup2\n      mstore\n      0x04\n      add\n      0x20\n      mload(0x40)\n      dup1\n      dup4\n      sub\n      dup2\n      dup7\n      dup1\n      extcodesize\n      iszero\n      dup1\n      iszero\n      tag_87\n      jumpi\n      0x00\n      dup1\n      revert\n        /* \"https://github.com/smartcontractkit/chainlink/blob/master/contracts/src/v0.7/dev/AggregatorProxy.sol\":10632:10745  function version() external view override returns (uint256) {... */\n    tag_38:\n        /* \"https://github.com/smartcontractkit/chainlink/blob/master/contracts/src/v0.7/dev/AggregatorProxy.sol\":10683:10690  uint256 */\n      0x00\n        /* \"https://github.com/smartcontractkit/chainlink/blob/master/contracts/src/v0.7/dev/AggregatorProxy.sol\":10705:10719  s_currentPhase */\n      0x04\n        /* \"https://github.com/smartcontractkit/chainlink/blob/master/contracts/src/v0.7/dev/AggregatorProxy.sol\":10705:10730  s_currentPhase.aggregator */\n      0x00\n      add\n      0x02\n      swap1\n      sload\n      swap1\n      0x0100\n      exp\n      swap1\n      div\n      sub(shl(0xa0, 0x01), 0x01)\n      and\n      sub(shl(0xa0, 0x01), 0x01)\n        /* \"https://github.com/smartcontractkit/chainlink/blob/master/contracts/src/v0.7/dev/AggregatorProxy.sol\":10705:10738  s_currentPhase.aggregator.version */\n      and\n      0x54fd4d50\n        /* \"https://github.com/smartcontractkit/chainlink/blob/master/contracts/src/v0.7/dev/AggregatorProxy.sol\":10705:10740  s_currentPhase.aggregator.version() */\n      mload(0x40)\n      dup2\n      0xffffffff\n      and\n      0xe0\n      shl\n      dup2\n      mstore\n      0x04\n      add\n      0x20\n      mload(0x40)\n      dup1\n      dup4\n      sub\n      dup2\n      dup7\n      dup1\n      extcodesize\n      iszero\n      dup1\n      iszero\n      tag_87\n      jumpi\n      0x00\n      dup1\n      revert\n        /* \"https://github.com/smartcontractkit/chainlink/blob/master/contracts/src/v0.7/dev/AggregatorProxy.sol\":10216:10310  function phaseId() external view override returns (uint16) {... */\n    tag_40:\n        /* \"https://github.com/smartcontractkit/chainlink/blob/master/contracts/src/v0.7/dev/AggregatorProxy.sol\":10288:10302  s_currentPhase */\n      0x04\n        /* \"https://github.com/smartcontractkit/chainlink/blob/master/contracts/src/v0.7/dev/AggregatorProxy.sol\":10288:10305  s_currentPhase.id */\n      sload\n      0xffff\n      and\n        /* \"https://github.com/smartcontractkit/chainlink/blob/master/contracts/src/v0.7/dev/AggregatorProxy.sol\":10216:10310  function phaseId() external view override returns (uint16) {... */\n      swap1\n      jump\t// out\n        /* \"https://github.com/smartcontractkit/chainlink/blob/master/contracts/src/v0.7/dev/AggregatorProxy.sol\":8814:9122  function proposedGetRoundData(uint80 roundId)... */\n    tag_43:\n        /* \"https://github.com/smartcontractkit/chainlink/blob/master/contracts/src/v0.7/dev/AggregatorProxy.sol\":13632:13652  s_proposedAggregator */\n      sload(0x02)\n        /* \"https://github.com/smartcontractkit/chainlink/blob/master/contracts/src/v0.7/dev/AggregatorProxy.sol\":8943:8952  uint80 id */\n      0x00\n      swap1\n      dup2\n      swap1\n      dup2\n      swap1\n      dup2\n      swap1\n      dup2\n      swap1\n      sub(shl(0xa0, 0x01), 0x01)\n        /* \"https://github.com/smartcontractkit/chainlink/blob/master/contracts/src/v0.7/dev/AggregatorProxy.sol\":13632:13652  s_proposedAggregator */\n      and\n        /* \"https://github.com/smartcontractkit/chainlink/blob/master/contracts/src/v0.7/dev/AggregatorProxy.sol\":13616:13702  require(address(s_proposedAggregator) != address(0), \"No proposed aggregator present\") */\n      tag_103\n      jumpi\n      0x40\n      dup1\n      mload\n      shl(0xe5, 0x461bcd)\n      dup2\n      mstore\n      0x20\n      0x04\n      dup3\n      add\n      mstore\n      0x1e\n      0x24\n      dup3\n      add\n      mstore\n      0x4e6f2070726f706f7365642061676772656761746f722070726573656e740000\n      0x44\n      dup3\n      add\n      mstore\n      swap1\n      mload\n      swap1\n      dup2\n      swap1\n      sub\n      0x64\n      add\n      swap1\n      revert\n    tag_103:\n        /* \"https://github.com/smartcontractkit/chainlink/blob/master/contracts/src/v0.7/dev/AggregatorProxy.sol\":9075:9095  s_proposedAggregator */\n      sload(0x02)\n        /* \"https://github.com/smartcontractkit/chainlink/blob/master/contracts/src/v0.7/dev/AggregatorProxy.sol\":9075:9117  s_proposedAggregator.getRoundData(roundId) */\n      0x40\n      dup1\n      mload\n      shl(0xe0, 0x9a6fc8f5)\n      dup2\n      mstore\n      0xffffffffffffffffffff\n      dup10\n      and\n      0x04\n      dup3\n      add\n      mstore\n      swap1\n      mload\n      sub(shl(0xa0, 0x01), 0x01)\n        /* \"https://github.com/smartcontractkit/chainlink/blob/master/contracts/src/v0.7/dev/AggregatorProxy.sol\":9075:9095  s_proposedAggregator */\n      swap1\n      swap3\n      and\n      swap2\n        /* \"https://github.com/smartcontractkit/chainlink/blob/master/contracts/src/v0.7/dev/AggregatorProxy.sol\":9075:9108  s_proposedAggregator.getRoundData */\n      0x9a6fc8f5\n      swap2\n        /* \"https://github.com/smartcontractkit/chainlink/blob/master/contracts/src/v0.7/dev/AggregatorProxy.sol\":9075:9117  s_proposedAggregator.getRoundData(roundId) */\n      0x24\n      dup1\n      dup3\n      add\n      swap3\n      0xa0\n      swap3\n      swap1\n      swap2\n      swap1\n      dup3\n      swap1\n      sub\n      add\n      dup2\n        /* \"https://github.com/smartcontractkit/chainlink/blob/master/contracts/src/v0.7/dev/AggregatorProxy.sol\":9075:9095  s_proposedAggregator */\n      dup7\n        /* \"https://github.com/smartcontractkit/chainlink/blob/master/contracts/src/v0.7/dev/AggregatorProxy.sol\":9075:9117  s_proposedAggregator.getRoundData(roundId) */\n      dup1\n      extcodesize\n      iszero\n      dup1\n      iszero\n      tag_105\n      jumpi\n      0x00\n      dup1\n      revert\n    tag_105:\n      pop\n      gas\n      staticcall\n      iszero\n      dup1\n      iszero\n      tag_107\n      jumpi\n      returndatasize\n      0x00\n      dup1\n      returndatacopy\n      revert(0x00, returndatasize)\n    tag_107:\n      pop\n      pop\n      pop\n      pop\n      mload(0x40)\n      returndatasize\n      0xa0\n      dup2\n      lt\n      iszero\n      tag_108\n      jumpi\n      0x00\n      dup1\n      revert\n    tag_108:\n      pop\n      dup1\n      mload\n      0x20\n      dup3\n      add\n      mload\n      0x40\n      dup4\n      add\n      mload\n      0x60\n      dup5\n      add\n      mload\n      0x80\n      swap1\n      swap5\n      add\n      mload\n      swap3\n      swap11\n      swap2\n      swap10\n      pop\n      swap8\n      pop\n      swap2\n      swap6\n      pop\n      swap4\n      pop\n        /* \"https://github.com/smartcontractkit/chainlink/blob/master/contracts/src/v0.7/dev/AggregatorProxy.sol\":8814:9122  function proposedGetRoundData(uint80 roundId)... */\n      swap2\n      pop\n      pop\n      jump\t// out\n        /* \"https://github.com/smartcontractkit/chainlink/blob/master/contracts/src/v0.7/dev/AggregatorProxy.sol\":4333:4551  function latestRound() public view virtual override returns (uint256 roundId) {... */\n    tag_45:\n        /* \"https://github.com/smartcontractkit/chainlink/blob/master/contracts/src/v0.7/dev/AggregatorProxy.sol\":4417:4452  Phase memory phase = s_currentPhase */\n      0x40\n      dup1\n      mload\n      dup1\n      dup3\n      add\n      dup3\n      mstore\n        /* \"https://github.com/smartcontractkit/chainlink/blob/master/contracts/src/v0.7/dev/AggregatorProxy.sol\":4438:4452  s_currentPhase */\n      0x04\n        /* \"https://github.com/smartcontractkit/chainlink/blob/master/contracts/src/v0.7/dev/AggregatorProxy.sol\":4417:4452  Phase memory phase = s_currentPhase */\n      dup1\n      sload\n      0xffff\n      dup2\n      and\n      dup1\n      dup5\n      mstore\n      0x010000\n      swap1\n      swap2\n      div\n      sub(shl(0xa0, 0x01), 0x01)\n      and\n      0x20\n      dup1\n      dup6\n      add\n      dup3\n      swap1\n      mstore\n        /* \"https://github.com/smartcontractkit/chainlink/blob/master/contracts/src/v0.7/dev/AggregatorProxy.sol\":4514:4544  phase.aggregator.latestRound() */\n      dup6\n      mload\n      0x668a0f0200000000000000000000000000000000000000000000000000000000\n      dup2\n      mstore\n      swap6\n      mload\n      0x00\n      swap7\n        /* \"https://github.com/smartcontractkit/chainlink/blob/master/contracts/src/v0.7/dev/AggregatorProxy.sol\":4488:4546  addPhase(phase.id, uint64(phase.aggregator.latestRound())) */\n      tag_110\n      swap6\n        /* \"https://github.com/smartcontractkit/chainlink/blob/master/contracts/src/v0.7/dev/AggregatorProxy.sol\":4514:4542  phase.aggregator.latestRound */\n      0x668a0f02\n      swap4\n        /* \"https://github.com/smartcontractkit/chainlink/blob/master/contracts/src/v0.7/dev/AggregatorProxy.sol\":4514:4544  phase.aggregator.latestRound() */\n      dup3\n      dup3\n      add\n      swap4\n        /* \"https://github.com/smartcontractkit/chainlink/blob/master/contracts/src/v0.7/dev/AggregatorProxy.sol\":4417:4452  Phase memory phase = s_currentPhase */\n      swap1\n      swap3\n        /* \"https://github.com/smartcontractkit/chainlink/blob/master/contracts/src/v0.7/dev/AggregatorProxy.sol\":4514:4544  phase.aggregator.latestRound() */\n      swap1\n      swap2\n      swap1\n      dup3\n      swap1\n      sub\n      add\n      dup2\n        /* \"https://github.com/smartcontractkit/chainlink/blob/master/contracts/src/v0.7/dev/AggregatorProxy.sol\":4417:4452  Phase memory phase = s_currentPhase */\n      dup7\n        /* \"https://github.com/smartcontractkit/chainlink/blob/master/contracts/src/v0.7/dev/AggregatorProxy.sol\":4514:4544  phase.aggregator.latestRound() */\n      dup1\n      extcodesize\n      iszero\n      dup1\n      iszero\n      tag_111\n      jumpi\n      0x00\n      dup1\n      revert\n    tag_111:\n      pop\n      gas\n      staticcall\n      iszero\n      dup1\n      iszero\n      tag_113\n      jumpi\n      returndatasize\n      0x00\n      dup1\n      returndatacopy\n      revert(0x00, returndatasize)\n    tag_113:\n      pop\n      pop\n      pop\n      pop\n      mload(0x40)\n      returndatasize\n      0x20\n      dup2\n      lt\n      iszero\n      tag_114\n      jumpi\n      0x00\n      dup1\n      revert\n    tag_114:\n      pop\n      mload\n        /* \"https://github.com/smartcontractkit/chainlink/blob/master/contracts/src/v0.7/dev/AggregatorProxy.sol\":4488:4496  addPhase */\n      tag_115\n        /* \"https://github.com/smartcontractkit/chainlink/blob/master/contracts/src/v0.7/dev/AggregatorProxy.sol\":4488:4546  addPhase(phase.id, uint64(phase.aggregator.latestRound())) */\n      jump\t// in\n    tag_110:\n        /* \"https://github.com/smartcontractkit/chainlink/blob/master/contracts/src/v0.7/dev/AggregatorProxy.sol\":4481:4546  return addPhase(phase.id, uint64(phase.aggregator.latestRound())) */\n      0xffffffffffffffffffff\n      and\n      swap2\n      pop\n      pop\n        /* \"https://github.com/smartcontractkit/chainlink/blob/master/contracts/src/v0.7/dev/AggregatorProxy.sol\":4333:4551  function latestRound() public view virtual override returns (uint256 roundId) {... */\n      swap1\n      jump\t// out\n        /* \"https://github.com/smartcontractkit/chainlink/blob/master/contracts/src/v0.7/dev/AggregatorProxy.sol\":10837:10964  function description() external view override returns (string memory) {... */\n    tag_47:\n        /* \"https://github.com/smartcontractkit/chainlink/blob/master/contracts/src/v0.7/dev/AggregatorProxy.sol\":10892:10905  string memory */\n      0x60\n        /* \"https://github.com/smartcontractkit/chainlink/blob/master/contracts/src/v0.7/dev/AggregatorProxy.sol\":10920:10934  s_currentPhase */\n      0x04\n        /* \"https://github.com/smartcontractkit/chainlink/blob/master/contracts/src/v0.7/dev/AggregatorProxy.sol\":10920:10945  s_currentPhase.aggregator */\n      0x00\n      add\n      0x02\n      swap1\n      sload\n      swap1\n      0x0100\n      exp\n      swap1\n      div\n      sub(shl(0xa0, 0x01), 0x01)\n      and\n      sub(shl(0xa0, 0x01), 0x01)\n        /* \"https://github.com/smartcontractkit/chainlink/blob/master/contracts/src/v0.7/dev/AggregatorProxy.sol\":10920:10957  s_currentPhase.aggregator.description */\n      and\n      0x7284e416\n        /* \"https://github.com/smartcontractkit/chainlink/blob/master/contracts/src/v0.7/dev/AggregatorProxy.sol\":10920:10959  s_currentPhase.aggregator.description() */\n      mload(0x40)\n      dup2\n      0xffffffff\n      and\n      0xe0\n      shl\n      dup2\n      mstore\n      0x04\n      add\n      0x00\n      mload(0x40)\n      dup1\n      dup4\n      sub\n      dup2\n      dup7\n      dup1\n      extcodesize\n      iszero\n      dup1\n      iszero\n      tag_117\n      jumpi\n      0x00\n      dup1\n      revert\n    tag_117:\n      pop\n      gas\n      staticcall\n      iszero\n      dup1\n      iszero\n      tag_119\n      jumpi\n      returndatasize\n      0x00\n      dup1\n      returndatacopy\n      revert(0x00, returndatasize)\n    tag_119:\n      pop\n      pop\n      pop\n      pop\n      mload(0x40)\n      returndatasize\n      0x00\n      dup3\n      returndatacopy\n      0x1f\n      returndatasize\n      swap1\n      dup2\n      add\n      not(0x1f)\n      and\n      dup3\n      add\n      0x40\n      mstore\n      0x20\n      dup2\n      lt\n      iszero\n      tag_120\n      jumpi\n      0x00\n      dup1\n      revert\n    tag_120:\n      dup2\n      add\n      swap1\n      dup1\n      dup1\n      mload\n      mload(0x40)\n      swap4\n      swap3\n      swap2\n      swap1\n      dup5\n      0x0100000000\n      dup3\n      gt\n      iszero\n      tag_121\n      jumpi\n      0x00\n      dup1\n      revert\n    tag_121:\n      swap1\n      dup4\n      add\n      swap1\n      0x20\n      dup3\n      add\n      dup6\n      dup2\n      gt\n      iszero\n      tag_122\n      jumpi\n      0x00\n      dup1\n      revert\n    tag_122:\n      dup3\n      mload\n      0x0100000000\n      dup2\n      gt\n      dup3\n      dup3\n      add\n      dup9\n      lt\n      or\n      iszero\n      tag_123\n      jumpi\n      0x00\n      dup1\n      revert\n    tag_123:\n      dup3\n      mstore\n      pop\n      dup2\n      mload\n      0x20\n      swap2\n      dup3\n      add\n      swap3\n      swap1\n      swap2\n      add\n      swap1\n      dup1\n      dup4\n      dup4\n      0x00\n    tag_124:\n      dup4\n      dup2\n      lt\n      iszero\n      tag_126\n      jumpi\n      dup2\n      dup2\n      add\n      mload\n      dup4\n      dup3\n      add\n      mstore\n      0x20\n      add\n      jump(tag_124)\n    tag_126:\n      pop\n      pop\n      pop\n      pop\n      swap1\n      pop\n      swap1\n      dup2\n      add\n      swap1\n      0x1f\n      and\n      dup1\n      iszero\n      tag_127\n      jumpi\n      dup1\n      dup3\n      sub\n      dup1\n      mload\n      0x01\n      dup4\n      0x20\n      sub\n      0x0100\n      exp\n      sub\n      not\n      and\n      dup2\n      mstore\n      0x20\n      add\n      swap2\n      pop\n    tag_127:\n      pop\n      0x40\n      mstore\n      pop\n      pop\n      pop\n        /* \"https://github.com/smartcontractkit/chainlink/blob/master/contracts/src/v0.7/dev/AggregatorProxy.sol\":10913:10959  return s_currentPhase.aggregator.description() */\n      swap1\n      pop\n        /* \"https://github.com/smartcontractkit/chainlink/blob/master/contracts/src/v0.7/dev/AggregatorProxy.sol\":10837:10964  function description() external view override returns (string memory) {... */\n      swap1\n      jump\t// out\n        /* \"https://github.com/smartcontractkit/chainlink/blob/master/contracts/src/v0.7/ConfirmedOwnerWithProposal.sol\":1016:1281  function acceptOwnership() external override {... */\n    tag_53:\n        /* \"https://github.com/smartcontractkit/chainlink/blob/master/contracts/src/v0.7/ConfirmedOwnerWithProposal.sol\":1089:1103  s_pendingOwner */\n      and(sub(shl(0xa0, 0x01), 0x01), sload(0x01))\n        /* \"https://github.com/smartcontractkit/chainlink/blob/master/contracts/src/v0.7/ConfirmedOwnerWithProposal.sol\":1075:1085  msg.sender */\n      caller\n        /* \"https://github.com/smartcontractkit/chainlink/blob/master/contracts/src/v0.7/ConfirmedOwnerWithProposal.sol\":1075:1103  msg.sender == s_pendingOwner */\n      eq\n        /* \"https://github.com/smartcontractkit/chainlink/blob/master/contracts/src/v0.7/ConfirmedOwnerWithProposal.sol\":1067:1130  require(msg.sender == s_pendingOwner, \"Must be proposed owner\") */\n      tag_129\n      jumpi\n      0x40\n      dup1\n      mload\n      shl(0xe5, 0x461bcd)\n      dup2\n      mstore\n      0x20\n      0x04\n      dup3\n      add\n      mstore\n      0x16\n      0x24\n      dup3\n      add\n      mstore\n      0x4d7573742062652070726f706f736564206f776e657200000000000000000000\n      0x44\n      dup3\n      add\n      mstore\n      swap1\n      mload\n      swap1\n      dup2\n      swap1\n      sub\n      0x64\n      add\n      swap1\n      revert\n    tag_129:\n        /* \"https://github.com/smartcontractkit/chainlink/blob/master/contracts/src/v0.7/ConfirmedOwnerWithProposal.sol\":1137:1153  address oldOwner */\n      0x00\n        /* \"https://github.com/smartcontractkit/chainlink/blob/master/contracts/src/v0.7/ConfirmedOwnerWithProposal.sol\":1156:1163  s_owner */\n      dup1\n      sload\n        /* \"https://github.com/smartcontractkit/chainlink/blob/master/contracts/src/v0.7/ConfirmedOwnerWithProposal.sol\":1179:1189  msg.sender */\n      caller\n      not(sub(shl(0xa0, 0x01), 0x01))\n        /* \"https://github.com/smartcontractkit/chainlink/blob/master/contracts/src/v0.7/ConfirmedOwnerWithProposal.sol\":1169:1189  s_owner = msg.sender */\n      dup1\n      dup4\n      and\n      dup3\n      or\n      dup5\n      sstore\n      0x01\n        /* \"https://github.com/smartcontractkit/chainlink/blob/master/contracts/src/v0.7/ConfirmedOwnerWithProposal.sol\":1195:1222  s_pendingOwner = address(0) */\n      dup1\n      sload\n      swap1\n      swap2\n      and\n      swap1\n      sstore\n        /* \"https://github.com/smartcontractkit/chainlink/blob/master/contracts/src/v0.7/ConfirmedOwnerWithProposal.sol\":1234:1276  OwnershipTransferred(oldOwner, msg.sender) */\n      mload(0x40)\n      sub(shl(0xa0, 0x01), 0x01)\n        /* \"https://github.com/smartcontractkit/chainlink/blob/master/contracts/src/v0.7/ConfirmedOwnerWithProposal.sol\":1156:1163  s_owner */\n      swap1\n      swap3\n      and\n      swap3\n        /* \"https://github.com/smartcontractkit/chainlink/blob/master/contracts/src/v0.7/ConfirmedOwnerWithProposal.sol\":1179:1189  msg.sender */\n      swap1\n      swap2\n        /* \"https://github.com/smartcontractkit/chainlink/blob/master/contracts/src/v0.7/ConfirmedOwnerWithProposal.sol\":1156:1163  s_owner */\n      dup4\n      swap2\n        /* \"https://github.com/smartcontractkit/chainlink/blob/master/contracts/src/v0.7/ConfirmedOwnerWithProposal.sol\":1234:1276  OwnershipTransferred(oldOwner, msg.sender) */\n      0x8be0079c531659141344cd1fd0a4f28419497f9722a3daafe3b4186f6b6457e0\n      swap2\n      log3\n        /* \"https://github.com/smartcontractkit/chainlink/blob/master/contracts/src/v0.7/ConfirmedOwnerWithProposal.sol\":1016:1281  function acceptOwnership() external override {... */\n      pop\n      jump\t// out\n        /* \"https://github.com/smartcontractkit/chainlink/blob/master/contracts/src/v0.7/dev/AggregatorProxy.sol\":2046:2191  function latestTimestamp() public view virtual override returns (uint256 updatedAt) {... */\n    tag_55:\n        /* \"https://github.com/smartcontractkit/chainlink/blob/master/contracts/src/v0.7/dev/AggregatorProxy.sol\":2111:2128  uint256 updatedAt */\n      0x00\n        /* \"https://github.com/smartcontractkit/chainlink/blob/master/contracts/src/v0.7/dev/AggregatorProxy.sol\":2143:2157  s_currentPhase */\n      0x04\n        /* \"https://github.com/smartcontractkit/chainlink/blob/master/contracts/src/v0.7/dev/AggregatorProxy.sol\":2143:2168  s_currentPhase.aggregator */\n      0x00\n      add\n      0x02\n      swap1\n      sload\n      swap1\n      0x0100\n      exp\n      swap1\n      div\n      sub(shl(0xa0, 0x01), 0x01)\n      and\n      sub(shl(0xa0, 0x01), 0x01)\n        /* \"https://github.com/smartcontractkit/chainlink/blob/master/contracts/src/v0.7/dev/AggregatorProxy.sol\":2143:2184  s_currentPhase.aggregator.latestTimestamp */\n      and\n      0x8205bf6a\n        /* \"https://github.com/smartcontractkit/chainlink/blob/master/contracts/src/v0.7/dev/AggregatorProxy.sol\":2143:2186  s_currentPhase.aggregator.latestTimestamp() */\n      mload(0x40)\n      dup2\n      0xffffffff\n      and\n      0xe0\n      shl\n      dup2\n      mstore\n      0x04\n      add\n      0x20\n      mload(0x40)\n      dup1\n      dup4\n      sub\n      dup2\n      dup7\n      dup1\n      extcodesize\n      iszero\n      dup1\n      iszero\n      tag_87\n      jumpi\n      0x00\n      dup1\n      revert\n        /* \"https://github.com/smartcontractkit/chainlink/blob/master/contracts/src/v0.7/ConfirmedOwnerWithProposal.sol\":1332:1413  function owner() public view override returns (address) {... */\n    tag_57:\n        /* \"https://github.com/smartcontractkit/chainlink/blob/master/contracts/src/v0.7/ConfirmedOwnerWithProposal.sol\":1379:1386  address */\n      0x00\n        /* \"https://github.com/smartcontractkit/chainlink/blob/master/contracts/src/v0.7/ConfirmedOwnerWithProposal.sol\":1401:1408  s_owner */\n      sload\n      sub(shl(0xa0, 0x01), 0x01)\n      and\n        /* \"https://github.com/smartcontractkit/chainlink/blob/master/contracts/src/v0.7/ConfirmedOwnerWithProposal.sol\":1332:1413  function owner() public view override returns (address) {... */\n      swap1\n      jump\t// out\n        /* \"https://github.com/smartcontractkit/chainlink/blob/master/contracts/src/v0.7/dev/AggregatorProxy.sol\":9670:9963  function proposedLatestRoundData()... */\n    tag_59:\n        /* \"https://github.com/smartcontractkit/chainlink/blob/master/contracts/src/v0.7/dev/AggregatorProxy.sol\":13632:13652  s_proposedAggregator */\n      sload(0x02)\n        /* \"https://github.com/smartcontractkit/chainlink/blob/master/contracts/src/v0.7/dev/AggregatorProxy.sol\":9788:9797  uint80 id */\n      0x00\n      swap1\n      dup2\n      swap1\n      dup2\n      swap1\n      dup2\n      swap1\n      dup2\n      swap1\n      sub(shl(0xa0, 0x01), 0x01)\n        /* \"https://github.com/smartcontractkit/chainlink/blob/master/contracts/src/v0.7/dev/AggregatorProxy.sol\":13632:13652  s_proposedAggregator */\n      and\n        /* \"https://github.com/smartcontractkit/chainlink/blob/master/contracts/src/v0.7/dev/AggregatorProxy.sol\":13616:13702  require(address(s_proposedAggregator) != address(0), \"No proposed aggregator present\") */\n      tag_137\n      jumpi\n      0x40\n      dup1\n      mload\n      shl(0xe5, 0x461bcd)\n      dup2\n      mstore\n      0x20\n      0x04\n      dup3\n      add\n      mstore\n      0x1e\n      0x24\n      dup3\n      add\n      mstore\n      0x4e6f2070726f706f7365642061676772656761746f722070726573656e740000\n      0x44\n      dup3\n      add\n      mstore\n      swap1\n      mload\n      swap1\n      dup2\n      swap1\n      sub\n      0x64\n      add\n      swap1\n      revert\n    tag_137:\n        /* \"https://github.com/smartcontractkit/chainlink/blob/master/contracts/src/v0.7/dev/AggregatorProxy.sol\":9920:9940  s_proposedAggregator */\n      0x02\n      0x00\n      swap1\n      sload\n      swap1\n      0x0100\n      exp\n      swap1\n      div\n      sub(shl(0xa0, 0x01), 0x01)\n      and\n      sub(shl(0xa0, 0x01), 0x01)\n        /* \"https://github.com/smartcontractkit/chainlink/blob/master/contracts/src/v0.7/dev/AggregatorProxy.sol\":9920:9956  s_proposedAggregator.latestRoundData */\n      and\n      0xfeaf968c\n        /* \"https://github.com/smartcontractkit/chainlink/blob/master/contracts/src/v0.7/dev/AggregatorProxy.sol\":9920:9958  s_proposedAggregator.latestRoundData() */\n      mload(0x40)\n      dup2\n      0xffffffff\n      and\n      0xe0\n      shl\n      dup2\n      mstore\n      0x04\n      add\n      0xa0\n      mload(0x40)\n      dup1\n      dup4\n      sub\n      dup2\n      dup7\n      dup1\n      extcodesize\n      iszero\n      dup1\n      iszero\n      tag_139\n      jumpi\n      0x00\n      dup1\n      revert\n    tag_139:\n      pop\n      gas\n      staticcall\n      iszero\n      dup1\n      iszero\n      tag_141\n      jumpi\n      returndatasize\n      0x00\n      dup1\n      returndatacopy\n      revert(0x00, returndatasize)\n    tag_141:\n      pop\n      pop\n      pop\n      pop\n      mload(0x40)\n      returndatasize\n      0xa0\n      dup2\n      lt\n      iszero\n      tag_142\n      jumpi\n      0x00\n      dup1\n      revert\n    tag_142:\n      pop\n      dup1\n      mload\n      0x20\n      dup3\n      add\n      mload\n      0x40\n      dup4\n      add\n      mload\n      0x60\n      dup5\n      add\n      mload\n      0x80\n      swap1\n      swap5\n      add\n      mload\n      swap3\n      swap10\n      swap2\n      swap9\n      pop\n      swap7\n      pop\n      swap2\n      swap5\n      pop\n      swap3\n      pop\n        /* \"https://github.com/smartcontractkit/chainlink/blob/master/contracts/src/v0.7/dev/AggregatorProxy.sol\":9670:9963  function proposedLatestRoundData()... */\n      swap1\n      pop\n      jump\t// out\n        /* \"https://github.com/smartcontractkit/chainlink/blob/master/contracts/src/v0.7/dev/AggregatorProxy.sol\":5982:6482  function getRoundData(uint80 roundId)... */\n    tag_62:\n        /* \"https://github.com/smartcontractkit/chainlink/blob/master/contracts/src/v0.7/dev/AggregatorProxy.sol\":6085:6094  uint80 id */\n      0x00\n        /* \"https://github.com/smartcontractkit/chainlink/blob/master/contracts/src/v0.7/dev/AggregatorProxy.sol\":6102:6115  int256 answer */\n      dup1\n        /* \"https://github.com/smartcontractkit/chainlink/blob/master/contracts/src/v0.7/dev/AggregatorProxy.sol\":6123:6140  uint256 startedAt */\n      0x00\n        /* \"https://github.com/smartcontractkit/chainlink/blob/master/contracts/src/v0.7/dev/AggregatorProxy.sol\":6148:6165  uint256 updatedAt */\n      dup1\n        /* \"https://github.com/smartcontractkit/chainlink/blob/master/contracts/src/v0.7/dev/AggregatorProxy.sol\":6173:6195  uint80 answeredInRound */\n      0x00\n        /* \"https://github.com/smartcontractkit/chainlink/blob/master/contracts/src/v0.7/dev/AggregatorProxy.sol\":6211:6225  uint16 phaseId */\n      dup1\n        /* \"https://github.com/smartcontractkit/chainlink/blob/master/contracts/src/v0.7/dev/AggregatorProxy.sol\":6227:6251  uint64 aggregatorRoundId */\n      0x00\n        /* \"https://github.com/smartcontractkit/chainlink/blob/master/contracts/src/v0.7/dev/AggregatorProxy.sol\":6255:6272  parseIds(roundId) */\n      tag_144\n        /* \"https://github.com/smartcontractkit/chainlink/blob/master/contracts/src/v0.7/dev/AggregatorProxy.sol\":6264:6271  roundId */\n      dup9\n        /* \"https://github.com/smartcontractkit/chainlink/blob/master/contracts/src/v0.7/dev/AggregatorProxy.sol\":6255:6272  parseIds(roundId) */\n      0xffffffffffffffffffff\n      and\n        /* \"https://github.com/smartcontractkit/chainlink/blob/master/contracts/src/v0.7/dev/AggregatorProxy.sol\":6255:6263  parseIds */\n      tag_145\n        /* \"https://github.com/smartcontractkit/chainlink/blob/master/contracts/src/v0.7/dev/AggregatorProxy.sol\":6255:6272  parseIds(roundId) */\n      jump\t// in\n    tag_144:\n        /* \"https://github.com/smartcontractkit/chainlink/blob/master/contracts/src/v0.7/dev/AggregatorProxy.sol\":6333:6360  s_phaseAggregators[phaseId] */\n      0xffff\n      dup3\n      and\n      0x00\n      swap1\n      dup2\n      mstore\n        /* \"https://github.com/smartcontractkit/chainlink/blob/master/contracts/src/v0.7/dev/AggregatorProxy.sol\":6333:6351  s_phaseAggregators */\n      0x03\n        /* \"https://github.com/smartcontractkit/chainlink/blob/master/contracts/src/v0.7/dev/AggregatorProxy.sol\":6333:6360  s_phaseAggregators[phaseId] */\n      0x20\n      mstore\n      0x40\n      swap1\n      dup2\n      swap1\n      keccak256\n      sload\n        /* \"https://github.com/smartcontractkit/chainlink/blob/master/contracts/src/v0.7/dev/AggregatorProxy.sol\":6333:6392  s_phaseAggregators[phaseId].getRoundData(aggregatorRoundId) */\n      dup2\n      mload\n      shl(0xe0, 0x9a6fc8f5)\n      dup2\n      mstore\n      0xffffffffffffffff\n      dup5\n      and\n      0x04\n      dup3\n      add\n      mstore\n      swap2\n      mload\n        /* \"https://github.com/smartcontractkit/chainlink/blob/master/contracts/src/v0.7/dev/AggregatorProxy.sol\":6210:6272  (uint16 phaseId, uint64 aggregatorRoundId) = parseIds(roundId) */\n      swap4\n      swap6\n      pop\n      swap2\n      swap4\n      pop\n      sub(shl(0xa0, 0x01), 0x01)\n        /* \"https://github.com/smartcontractkit/chainlink/blob/master/contracts/src/v0.7/dev/AggregatorProxy.sol\":6333:6360  s_phaseAggregators[phaseId] */\n      swap1\n      swap2\n      and\n      swap2\n        /* \"https://github.com/smartcontractkit/chainlink/blob/master/contracts/src/v0.7/dev/AggregatorProxy.sol\":6333:6373  s_phaseAggregators[phaseId].getRoundData */\n      0x9a6fc8f5\n      swap2\n        /* \"https://github.com/smartcontractkit/chainlink/blob/master/contracts/src/v0.7/dev/AggregatorProxy.sol\":6333:6392  s_phaseAggregators[phaseId].getRoundData(aggregatorRoundId) */\n      0x24\n      dup1\n      dup3\n      add\n      swap3\n      0xa0\n      swap3\n      swap1\n      swap2\n      swap1\n      dup3\n      swap1\n      sub\n      add\n      dup2\n        /* \"https://github.com/smartcontractkit/chainlink/blob/master/contracts/src/v0.7/dev/AggregatorProxy.sol\":6333:6360  s_phaseAggregators[phaseId] */\n      dup7\n        /* \"https://github.com/smartcontractkit/chainlink/blob/master/contracts/src/v0.7/dev/AggregatorProxy.sol\":6333:6392  s_phaseAggregators[phaseId].getRoundData(aggregatorRoundId) */\n      dup1\n      extcodesize\n      iszero\n      dup1\n      iszero\n      tag_146\n      jumpi\n      0x00\n      dup1\n      revert\n    tag_146:\n      pop\n      gas\n      staticcall\n      iszero\n      dup1\n      iszero\n      tag_148\n      jumpi\n      returndatasize\n      0x00\n      dup1\n      returndatacopy\n      revert(0x00, returndatasize)\n    tag_148:\n      pop\n      pop\n      pop\n      pop\n      mload(0x40)\n      returndatasize\n      0xa0\n      dup2\n      lt\n      iszero\n      tag_149\n      jumpi\n      0x00\n      dup1\n      revert\n    tag_149:\n      pop\n      dup1\n      mload\n      0x20\n      dup3\n      add\n      mload\n      0x40\n      dup4\n      add\n      mload\n      0x60\n      dup5\n      add\n      mload\n      0x80\n      swap1\n      swap5\n      add\n      mload\n      swap3\n      swap11\n      pop\n      swap1\n      swap9\n      pop\n      swap7\n      pop\n      swap1\n      swap5\n      pop\n      swap3\n      pop\n        /* \"https://github.com/smartcontractkit/chainlink/blob/master/contracts/src/v0.7/dev/AggregatorProxy.sol\":6406:6477  addPhaseIds(id, answer, startedAt, updatedAt, answeredInRound, phaseId) */\n      tag_150\n        /* \"https://github.com/smartcontractkit/chainlink/blob/master/contracts/src/v0.7/dev/AggregatorProxy.sol\":6333:6392  s_phaseAggregators[phaseId].getRoundData(aggregatorRoundId) */\n      dup8\n      dup8\n      dup8\n      dup8\n      dup8\n        /* \"https://github.com/smartcontractkit/chainlink/blob/master/contracts/src/v0.7/dev/AggregatorProxy.sol\":6469:6476  phaseId */\n      dup8\n        /* \"https://github.com/smartcontractkit/chainlink/blob/master/contracts/src/v0.7/dev/AggregatorProxy.sol\":6406:6417  addPhaseIds */\n      tag_151\n        /* \"https://github.com/smartcontractkit/chainlink/blob/master/contracts/src/v0.7/dev/AggregatorProxy.sol\":6406:6477  addPhaseIds(id, answer, startedAt, updatedAt, answeredInRound, phaseId) */\n      jump\t// in\n    tag_150:\n        /* \"https://github.com/smartcontractkit/chainlink/blob/master/contracts/src/v0.7/dev/AggregatorProxy.sol\":6399:6477  return addPhaseIds(id, answer, startedAt, updatedAt, answeredInRound, phaseId) */\n      swap4\n      swap13\n      swap3\n      swap12\n      pop\n      swap1\n      swap10\n      pop\n      swap8\n      pop\n      swap1\n      swap6\n      pop\n        /* \"https://github.com/smartcontractkit/chainlink/blob/master/contracts/src/v0.7/dev/AggregatorProxy.sol\":5982:6482  function getRoundData(uint80 roundId)... */\n      swap4\n      pop\n      pop\n      pop\n      pop\n      jump\t// out\n        /* \"https://github.com/smartcontractkit/chainlink/blob/master/contracts/src/v0.7/dev/AggregatorProxy.sol\":12064:12447  function confirmAggregator(address aggregatorAddress) external onlyOwner {... */\n    tag_65:\n        /* \"https://github.com/smartcontractkit/chainlink/blob/master/contracts/src/v0.7/ConfirmedOwnerWithProposal.sol\":1956:1976  _validateOwnership() */\n      tag_153\n        /* \"https://github.com/smartcontractkit/chainlink/blob/master/contracts/src/v0.7/ConfirmedOwnerWithProposal.sol\":1956:1974  _validateOwnership */\n      tag_154\n        /* \"https://github.com/smartcontractkit/chainlink/blob/master/contracts/src/v0.7/ConfirmedOwnerWithProposal.sol\":1956:1976  _validateOwnership() */\n      jump\t// in\n    tag_153:\n        /* \"https://github.com/smartcontractkit/chainlink/blob/master/contracts/src/v0.7/dev/AggregatorProxy.sol\":12180:12200  s_proposedAggregator */\n      sload(0x02)\n      sub(shl(0xa0, 0x01), 0x01)\n        /* \"https://github.com/smartcontractkit/chainlink/blob/master/contracts/src/v0.7/dev/AggregatorProxy.sol\":12151:12201  aggregatorAddress == address(s_proposedAggregator) */\n      dup3\n      dup2\n      and\n        /* \"https://github.com/smartcontractkit/chainlink/blob/master/contracts/src/v0.7/dev/AggregatorProxy.sol\":12180:12200  s_proposedAggregator */\n      swap2\n      and\n        /* \"https://github.com/smartcontractkit/chainlink/blob/master/contracts/src/v0.7/dev/AggregatorProxy.sol\":12151:12201  aggregatorAddress == address(s_proposedAggregator) */\n      eq\n        /* \"https://github.com/smartcontractkit/chainlink/blob/master/contracts/src/v0.7/dev/AggregatorProxy.sol\":12143:12233  require(aggregatorAddress == address(s_proposedAggregator), \"Invalid proposed aggregator\") */\n      tag_156\n      jumpi\n      0x40\n      dup1\n      mload\n      shl(0xe5, 0x461bcd)\n      dup2\n      mstore\n      0x20\n      0x04\n      dup3\n      add\n      mstore\n      0x1b\n      0x24\n      dup3\n      add\n      mstore\n      0x496e76616c69642070726f706f7365642061676772656761746f720000000000\n      0x44\n      dup3\n      add\n      mstore\n      swap1\n      mload\n      swap1\n      dup2\n      swap1\n      sub\n      0x64\n      add\n      swap1\n      revert\n    tag_156:\n        /* \"https://github.com/smartcontractkit/chainlink/blob/master/contracts/src/v0.7/dev/AggregatorProxy.sol\":12276:12290  s_currentPhase */\n      0x04\n        /* \"https://github.com/smartcontractkit/chainlink/blob/master/contracts/src/v0.7/dev/AggregatorProxy.sol\":12276:12301  s_currentPhase.aggregator */\n      sload\n      0x02\n        /* \"https://github.com/smartcontractkit/chainlink/blob/master/contracts/src/v0.7/dev/AggregatorProxy.sol\":12308:12335  delete s_proposedAggregator */\n      dup1\n      sload\n      not(sub(shl(0xa0, 0x01), 0x01))\n      and\n      swap1\n      sstore\n        /* \"https://github.com/smartcontractkit/chainlink/blob/master/contracts/src/v0.7/dev/AggregatorProxy.sol\":12276:12301  s_currentPhase.aggregator */\n      0x010000\n      swap1\n      div\n      sub(shl(0xa0, 0x01), 0x01)\n      and\n        /* \"https://github.com/smartcontractkit/chainlink/blob/master/contracts/src/v0.7/dev/AggregatorProxy.sol\":12341:12373  setAggregator(aggregatorAddress) */\n      tag_157\n        /* \"https://github.com/smartcontractkit/chainlink/blob/master/contracts/src/v0.7/dev/AggregatorProxy.sol\":12355:12372  aggregatorAddress */\n      dup3\n        /* \"https://github.com/smartcontractkit/chainlink/blob/master/contracts/src/v0.7/dev/AggregatorProxy.sol\":12341:12354  setAggregator */\n      tag_158\n        /* \"https://github.com/smartcontractkit/chainlink/blob/master/contracts/src/v0.7/dev/AggregatorProxy.sol\":12341:12373  setAggregator(aggregatorAddress) */\n      jump\t// in\n    tag_157:\n        /* \"https://github.com/smartcontractkit/chainlink/blob/master/contracts/src/v0.7/dev/AggregatorProxy.sol\":12424:12441  aggregatorAddress */\n      dup2\n      sub(shl(0xa0, 0x01), 0x01)\n        /* \"https://github.com/smartcontractkit/chainlink/blob/master/contracts/src/v0.7/dev/AggregatorProxy.sol\":12384:12442  AggregatorConfirmed(previousAggregator, aggregatorAddress) */\n      and\n        /* \"https://github.com/smartcontractkit/chainlink/blob/master/contracts/src/v0.7/dev/AggregatorProxy.sol\":12404:12422  previousAggregator */\n      dup2\n      sub(shl(0xa0, 0x01), 0x01)\n        /* \"https://github.com/smartcontractkit/chainlink/blob/master/contracts/src/v0.7/dev/AggregatorProxy.sol\":12384:12442  AggregatorConfirmed(previousAggregator, aggregatorAddress) */\n      and\n      0x33745f67a407dcb785417f9c123dd3641479a102674b6e35c1f10975625b90e9\n      mload(0x40)\n      mload(0x40)\n      dup1\n      swap2\n      sub\n      swap1\n      log3\n        /* \"https://github.com/smartcontractkit/chainlink/blob/master/contracts/src/v0.7/ConfirmedOwnerWithProposal.sol\":1982:1983  _ */\n      pop\n        /* \"https://github.com/smartcontractkit/chainlink/blob/master/contracts/src/v0.7/dev/AggregatorProxy.sol\":12064:12447  function confirmAggregator(address aggregatorAddress) external onlyOwner {... */\n      pop\n      jump\t// out\n        /* \"https://github.com/smartcontractkit/chainlink/blob/master/contracts/src/v0.7/dev/AggregatorProxy.sol\":2602:2978  function getAnswer(uint256 roundId) public view virtual override returns (int256 answer) {... */\n    tag_68:\n        /* \"https://github.com/smartcontractkit/chainlink/blob/master/contracts/src/v0.7/dev/AggregatorProxy.sol\":2676:2689  int256 answer */\n      0x00\n        /* \"https://github.com/smartcontractkit/chainlink/blob/master/contracts/src/v0.7/dev/AggregatorProxy.sol\":833:867  2**(PHASE_OFFSET + PHASE_SIZE) - 1 */\n      0xffffffffffffffffffff\n        /* \"https://github.com/smartcontractkit/chainlink/blob/master/contracts/src/v0.7/dev/AggregatorProxy.sol\":2701:2717  roundId > MAX_ID */\n      dup3\n      gt\n        /* \"https://github.com/smartcontractkit/chainlink/blob/master/contracts/src/v0.7/dev/AggregatorProxy.sol\":2697:2727  if (roundId > MAX_ID) return 0 */\n      iszero\n      tag_160\n      jumpi\n      pop\n        /* \"https://github.com/smartcontractkit/chainlink/blob/master/contracts/src/v0.7/dev/AggregatorProxy.sol\":2726:2727  0 */\n      0x00\n        /* \"https://github.com/smartcontractkit/chainlink/blob/master/contracts/src/v0.7/dev/AggregatorProxy.sol\":2719:2727  return 0 */\n      jump(tag_159)\n        /* \"https://github.com/smartcontractkit/chainlink/blob/master/contracts/src/v0.7/dev/AggregatorProxy.sol\":2697:2727  if (roundId > MAX_ID) return 0 */\n    tag_160:\n        /* \"https://github.com/smartcontractkit/chainlink/blob/master/contracts/src/v0.7/dev/AggregatorProxy.sol\":2735:2749  uint16 phaseId */\n      0x00\n        /* \"https://github.com/smartcontractkit/chainlink/blob/master/contracts/src/v0.7/dev/AggregatorProxy.sol\":2751:2775  uint64 aggregatorRoundId */\n      dup1\n        /* \"https://github.com/smartcontractkit/chainlink/blob/master/contracts/src/v0.7/dev/AggregatorProxy.sol\":2779:2796  parseIds(roundId) */\n      tag_161\n        /* \"https://github.com/smartcontractkit/chainlink/blob/master/contracts/src/v0.7/dev/AggregatorProxy.sol\":2788:2795  roundId */\n      dup5\n        /* \"https://github.com/smartcontractkit/chainlink/blob/master/contracts/src/v0.7/dev/AggregatorProxy.sol\":2779:2787  parseIds */\n      tag_145\n        /* \"https://github.com/smartcontractkit/chainlink/blob/master/contracts/src/v0.7/dev/AggregatorProxy.sol\":2779:2796  parseIds(roundId) */\n      jump\t// in\n    tag_161:\n        /* \"https://github.com/smartcontractkit/chainlink/blob/master/contracts/src/v0.7/dev/AggregatorProxy.sol\":2840:2867  s_phaseAggregators[phaseId] */\n      0xffff\n      dup3\n      and\n        /* \"https://github.com/smartcontractkit/chainlink/blob/master/contracts/src/v0.7/dev/AggregatorProxy.sol\":2802:2837  AggregatorProxyInterface aggregator */\n      0x00\n        /* \"https://github.com/smartcontractkit/chainlink/blob/master/contracts/src/v0.7/dev/AggregatorProxy.sol\":2840:2867  s_phaseAggregators[phaseId] */\n      swap1\n      dup2\n      mstore\n        /* \"https://github.com/smartcontractkit/chainlink/blob/master/contracts/src/v0.7/dev/AggregatorProxy.sol\":2840:2858  s_phaseAggregators */\n      0x03\n        /* \"https://github.com/smartcontractkit/chainlink/blob/master/contracts/src/v0.7/dev/AggregatorProxy.sol\":2840:2867  s_phaseAggregators[phaseId] */\n      0x20\n      mstore\n      0x40\n      swap1\n      keccak256\n      sload\n        /* \"https://github.com/smartcontractkit/chainlink/blob/master/contracts/src/v0.7/dev/AggregatorProxy.sol\":2734:2796  (uint16 phaseId, uint64 aggregatorRoundId) = parseIds(roundId) */\n      swap2\n      swap4\n      pop\n      swap2\n      pop\n      sub(shl(0xa0, 0x01), 0x01)\n        /* \"https://github.com/smartcontractkit/chainlink/blob/master/contracts/src/v0.7/dev/AggregatorProxy.sol\":2840:2867  s_phaseAggregators[phaseId] */\n      and\n        /* \"https://github.com/smartcontractkit/chainlink/blob/master/contracts/src/v0.7/dev/AggregatorProxy.sol\":2877:2910  address(aggregator) == address(0) */\n      dup1\n        /* \"https://github.com/smartcontractkit/chainlink/blob/master/contracts/src/v0.7/dev/AggregatorProxy.sol\":2873:2920  if (address(aggregator) == address(0)) return 0 */\n      tag_162\n      jumpi\n        /* \"https://github.com/smartcontractkit/chainlink/blob/master/contracts/src/v0.7/dev/AggregatorProxy.sol\":2919:2920  0 */\n      0x00\n        /* \"https://github.com/smartcontractkit/chainlink/blob/master/contracts/src/v0.7/dev/AggregatorProxy.sol\":2912:2920  return 0 */\n      swap4\n      pop\n      pop\n      pop\n      pop\n      jump(tag_159)\n        /* \"https://github.com/smartcontractkit/chainlink/blob/master/contracts/src/v0.7/dev/AggregatorProxy.sol\":2873:2920  if (address(aggregator) == address(0)) return 0 */\n    tag_162:\n        /* \"https://github.com/smartcontractkit/chainlink/blob/master/contracts/src/v0.7/dev/AggregatorProxy.sol\":2934:2944  aggregator */\n      dup1\n      sub(shl(0xa0, 0x01), 0x01)\n        /* \"https://github.com/smartcontractkit/chainlink/blob/master/contracts/src/v0.7/dev/AggregatorProxy.sol\":2934:2954  aggregator.getAnswer */\n      and\n      0xb5ab58dc\n        /* \"https://github.com/smartcontractkit/chainlink/blob/master/contracts/src/v0.7/dev/AggregatorProxy.sol\":2955:2972  aggregatorRoundId */\n      dup4\n        /* \"https://github.com/smartcontractkit/chainlink/blob/master/contracts/src/v0.7/dev/AggregatorProxy.sol\":2934:2973  aggregator.getAnswer(aggregatorRoundId) */\n      mload(0x40)\n      dup3\n      0xffffffff\n      and\n      0xe0\n      shl\n      dup2\n      mstore\n      0x04\n      add\n      dup1\n      dup3\n      0xffffffffffffffff\n      and\n      dup2\n      mstore\n      0x20\n      add\n      swap2\n      pop\n      pop\n      0x20\n      mload(0x40)\n      dup1\n      dup4\n      sub\n      dup2\n      dup7\n      dup1\n      extcodesize\n      iszero\n      dup1\n      iszero\n      tag_163\n      jumpi\n      0x00\n      dup1\n      revert\n    tag_163:\n      pop\n      gas\n      staticcall\n      iszero\n      dup1\n      iszero\n      tag_165\n      jumpi\n      returndatasize\n      0x00\n      dup1\n      returndatacopy\n      revert(0x00, returndatasize)\n    tag_165:\n      pop\n      pop\n      pop\n      pop\n      mload(0x40)\n      returndatasize\n      0x20\n      dup2\n      lt\n      iszero\n      tag_166\n      jumpi\n      0x00\n      dup1\n      revert\n    tag_166:\n      pop\n      mload\n      swap4\n      pop\n      pop\n      pop\n      pop\n        /* \"https://github.com/smartcontractkit/chainlink/blob/master/contracts/src/v0.7/dev/AggregatorProxy.sol\":2602:2978  function getAnswer(uint256 roundId) public view virtual override returns (int256 answer) {... */\n    tag_159:\n      swap2\n      swap1\n      pop\n      jump\t// out\n        /* \"https://github.com/smartcontractkit/chainlink/blob/master/contracts/src/v0.7/dev/AggregatorProxy.sol\":3428:3814  function getTimestamp(uint256 roundId) public view virtual override returns (uint256 updatedAt) {... */\n    tag_71:\n        /* \"https://github.com/smartcontractkit/chainlink/blob/master/contracts/src/v0.7/dev/AggregatorProxy.sol\":3505:3522  uint256 updatedAt */\n      0x00\n        /* \"https://github.com/smartcontractkit/chainlink/blob/master/contracts/src/v0.7/dev/AggregatorProxy.sol\":833:867  2**(PHASE_OFFSET + PHASE_SIZE) - 1 */\n      0xffffffffffffffffffff\n        /* \"https://github.com/smartcontractkit/chainlink/blob/master/contracts/src/v0.7/dev/AggregatorProxy.sol\":3534:3550  roundId > MAX_ID */\n      dup3\n      gt\n        /* \"https://github.com/smartcontractkit/chainlink/blob/master/contracts/src/v0.7/dev/AggregatorProxy.sol\":3530:3560  if (roundId > MAX_ID) return 0 */\n      iszero\n      tag_168\n      jumpi\n      pop\n        /* \"https://github.com/smartcontractkit/chainlink/blob/master/contracts/src/v0.7/dev/AggregatorProxy.sol\":3559:3560  0 */\n      0x00\n        /* \"https://github.com/smartcontractkit/chainlink/blob/master/contracts/src/v0.7/dev/AggregatorProxy.sol\":3552:3560  return 0 */\n      jump(tag_159)\n        /* \"https://github.com/smartcontractkit/chainlink/blob/master/contracts/src/v0.7/dev/AggregatorProxy.sol\":3530:3560  if (roundId > MAX_ID) return 0 */\n    tag_168:\n        /* \"https://github.com/smartcontractkit/chainlink/blob/master/contracts/src/v0.7/dev/AggregatorProxy.sol\":3568:3582  uint16 phaseId */\n      0x00\n        /* \"https://github.com/smartcontractkit/chainlink/blob/master/contracts/src/v0.7/dev/AggregatorProxy.sol\":3584:3608  uint64 aggregatorRoundId */\n      dup1\n        /* \"https://github.com/smartcontractkit/chainlink/blob/master/contracts/src/v0.7/dev/AggregatorProxy.sol\":3612:3629  parseIds(roundId) */\n      tag_169\n        /* \"https://github.com/smartcontractkit/chainlink/blob/master/contracts/src/v0.7/dev/AggregatorProxy.sol\":3621:3628  roundId */\n      dup5\n        /* \"https://github.com/smartcontractkit/chainlink/blob/master/contracts/src/v0.7/dev/AggregatorProxy.sol\":3612:3620  parseIds */\n      tag_145\n        /* \"https://github.com/smartcontractkit/chainlink/blob/master/contracts/src/v0.7/dev/AggregatorProxy.sol\":3612:3629  parseIds(roundId) */\n      jump\t// in\n    tag_169:\n        /* \"https://github.com/smartcontractkit/chainlink/blob/master/contracts/src/v0.7/dev/AggregatorProxy.sol\":3673:3700  s_phaseAggregators[phaseId] */\n      0xffff\n      dup3\n      and\n        /* \"https://github.com/smartcontractkit/chainlink/blob/master/contracts/src/v0.7/dev/AggregatorProxy.sol\":3635:3670  AggregatorProxyInterface aggregator */\n      0x00\n        /* \"https://github.com/smartcontractkit/chainlink/blob/master/contracts/src/v0.7/dev/AggregatorProxy.sol\":3673:3700  s_phaseAggregators[phaseId] */\n      swap1\n      dup2\n      mstore\n        /* \"https://github.com/smartcontractkit/chainlink/blob/master/contracts/src/v0.7/dev/AggregatorProxy.sol\":3673:3691  s_phaseAggregators */\n      0x03\n        /* \"https://github.com/smartcontractkit/chainlink/blob/master/contracts/src/v0.7/dev/AggregatorProxy.sol\":3673:3700  s_phaseAggregators[phaseId] */\n      0x20\n      mstore\n      0x40\n      swap1\n      keccak256\n      sload\n        /* \"https://github.com/smartcontractkit/chainlink/blob/master/contracts/src/v0.7/dev/AggregatorProxy.sol\":3567:3629  (uint16 phaseId, uint64 aggregatorRoundId) = parseIds(roundId) */\n      swap2\n      swap4\n      pop\n      swap2\n      pop\n      sub(shl(0xa0, 0x01), 0x01)\n        /* \"https://github.com/smartcontractkit/chainlink/blob/master/contracts/src/v0.7/dev/AggregatorProxy.sol\":3673:3700  s_phaseAggregators[phaseId] */\n      and\n        /* \"https://github.com/smartcontractkit/chainlink/blob/master/contracts/src/v0.7/dev/AggregatorProxy.sol\":3710:3743  address(aggregator) == address(0) */\n      dup1\n        /* \"https://github.com/smartcontractkit/chainlink/blob/master/contracts/src/v0.7/dev/AggregatorProxy.sol\":3706:3753  if (address(aggregator) == address(0)) return 0 */\n      tag_170\n      jumpi\n        /* \"https://github.com/smartcontractkit/chainlink/blob/master/contracts/src/v0.7/dev/AggregatorProxy.sol\":3752:3753  0 */\n      0x00\n        /* \"https://github.com/smartcontractkit/chainlink/blob/master/contracts/src/v0.7/dev/AggregatorProxy.sol\":3745:3753  return 0 */\n      swap4\n      pop\n      pop\n      pop\n      pop\n      jump(tag_159)\n        /* \"https://github.com/smartcontractkit/chainlink/blob/master/contracts/src/v0.7/dev/AggregatorProxy.sol\":3706:3753  if (address(aggregator) == address(0)) return 0 */\n    tag_170:\n        /* \"https://github.com/smartcontractkit/chainlink/blob/master/contracts/src/v0.7/dev/AggregatorProxy.sol\":3767:3777  aggregator */\n      dup1\n      sub(shl(0xa0, 0x01), 0x01)\n        /* \"https://github.com/smartcontractkit/chainlink/blob/master/contracts/src/v0.7/dev/AggregatorProxy.sol\":3767:3790  aggregator.getTimestamp */\n      and\n      0xb633620c\n        /* \"https://github.com/smartcontractkit/chainlink/blob/master/contracts/src/v0.7/dev/AggregatorProxy.sol\":3791:3808  aggregatorRoundId */\n      dup4\n        /* \"https://github.com/smartcontractkit/chainlink/blob/master/contracts/src/v0.7/dev/AggregatorProxy.sol\":3767:3809  aggregator.getTimestamp(aggregatorRoundId) */\n      mload(0x40)\n      dup3\n      0xffffffff\n      and\n      0xe0\n      shl\n      dup2\n      mstore\n      0x04\n      add\n      dup1\n      dup3\n      0xffffffffffffffff\n      and\n      dup2\n      mstore\n      0x20\n      add\n      swap2\n      pop\n      pop\n      0x20\n      mload(0x40)\n      dup1\n      dup4\n      sub\n      dup2\n      dup7\n      dup1\n      extcodesize\n      iszero\n      dup1\n      iszero\n      tag_163\n      jumpi\n      0x00\n      dup1\n      revert\n        /* \"https://github.com/smartcontractkit/chainlink/blob/master/contracts/src/v0.7/dev/AggregatorProxy.sol\":11256:11393  function phaseAggregators(uint16 phaseId) external view override returns (address) {... */\n    tag_74:\n        /* \"https://github.com/smartcontractkit/chainlink/blob/master/contracts/src/v0.7/dev/AggregatorProxy.sol\":11360:11387  s_phaseAggregators[phaseId] */\n      0xffff\n      and\n        /* \"https://github.com/smartcontractkit/chainlink/blob/master/contracts/src/v0.7/dev/AggregatorProxy.sol\":11330:11337  address */\n      0x00\n        /* \"https://github.com/smartcontractkit/chainlink/blob/master/contracts/src/v0.7/dev/AggregatorProxy.sol\":11360:11387  s_phaseAggregators[phaseId] */\n      swap1\n      dup2\n      mstore\n        /* \"https://github.com/smartcontractkit/chainlink/blob/master/contracts/src/v0.7/dev/AggregatorProxy.sol\":11360:11378  s_phaseAggregators */\n      0x03\n        /* \"https://github.com/smartcontractkit/chainlink/blob/master/contracts/src/v0.7/dev/AggregatorProxy.sol\":11360:11387  s_phaseAggregators[phaseId] */\n      0x20\n      mstore\n      0x40\n      swap1\n      keccak256\n      sload\n      sub(shl(0xa0, 0x01), 0x01)\n      and\n      swap1\n        /* \"https://github.com/smartcontractkit/chainlink/blob/master/contracts/src/v0.7/dev/AggregatorProxy.sol\":11256:11393  function phaseAggregators(uint16 phaseId) external view override returns (address) {... */\n      jump\t// out\n        /* \"https://github.com/smartcontractkit/chainlink/blob/master/contracts/src/v0.7/dev/AggregatorProxy.sol\":11033:11151  function proposedAggregator() external view override returns (address) {... */\n    tag_76:\n        /* \"https://github.com/smartcontractkit/chainlink/blob/master/contracts/src/v0.7/dev/AggregatorProxy.sol\":11125:11145  s_proposedAggregator */\n      and(sub(shl(0xa0, 0x01), 0x01), sload(0x02))\n        /* \"https://github.com/smartcontractkit/chainlink/blob/master/contracts/src/v0.7/dev/AggregatorProxy.sol\":11033:11151  function proposedAggregator() external view override returns (address) {... */\n      swap1\n      jump\t// out\n        /* \"https://github.com/smartcontractkit/chainlink/blob/master/contracts/src/v0.7/ConfirmedOwnerWithProposal.sol\":826:924  function transferOwnership(address to) public override onlyOwner {... */\n    tag_79:\n        /* \"https://github.com/smartcontractkit/chainlink/blob/master/contracts/src/v0.7/ConfirmedOwnerWithProposal.sol\":1956:1976  _validateOwnership() */\n      tag_178\n        /* \"https://github.com/smartcontractkit/chainlink/blob/master/contracts/src/v0.7/ConfirmedOwnerWithProposal.sol\":1956:1974  _validateOwnership */\n      tag_154\n        /* \"https://github.com/smartcontractkit/chainlink/blob/master/contracts/src/v0.7/ConfirmedOwnerWithProposal.sol\":1956:1976  _validateOwnership() */\n      jump\t// in\n    tag_178:\n        /* \"https://github.com/smartcontractkit/chainlink/blob/master/contracts/src/v0.7/ConfirmedOwnerWithProposal.sol\":897:919  _transferOwnership(to) */\n      tag_180\n        /* \"https://github.com/smartcontractkit/chainlink/blob/master/contracts/src/v0.7/ConfirmedOwnerWithProposal.sol\":916:918  to */\n      dup2\n        /* \"https://github.com/smartcontractkit/chainlink/blob/master/contracts/src/v0.7/ConfirmedOwnerWithProposal.sol\":897:915  _transferOwnership */\n      tag_181\n        /* \"https://github.com/smartcontractkit/chainlink/blob/master/contracts/src/v0.7/ConfirmedOwnerWithProposal.sol\":897:919  _transferOwnership(to) */\n      jump\t// in\n    tag_180:\n        /* \"https://github.com/smartcontractkit/chainlink/blob/master/contracts/src/v0.7/ConfirmedOwnerWithProposal.sol\":826:924  function transferOwnership(address to) public override onlyOwner {... */\n      pop\n      jump\t// out\n        /* \"https://github.com/smartcontractkit/chainlink/blob/master/contracts/src/v0.7/dev/AggregatorProxy.sol\":11557:11791  function proposeAggregator(address aggregatorAddress) external onlyOwner {... */\n    tag_82:\n        /* \"https://github.com/smartcontractkit/chainlink/blob/master/contracts/src/v0.7/ConfirmedOwnerWithProposal.sol\":1956:1976  _validateOwnership() */\n      tag_183\n        /* \"https://github.com/smartcontractkit/chainlink/blob/master/contracts/src/v0.7/ConfirmedOwnerWithProposal.sol\":1956:1974  _validateOwnership */\n      tag_154\n        /* \"https://github.com/smartcontractkit/chainlink/blob/master/contracts/src/v0.7/ConfirmedOwnerWithProposal.sol\":1956:1976  _validateOwnership() */\n      jump\t// in\n    tag_183:\n        /* \"https://github.com/smartcontractkit/chainlink/blob/master/contracts/src/v0.7/dev/AggregatorProxy.sol\":11636:11656  s_proposedAggregator */\n      0x02\n        /* \"https://github.com/smartcontractkit/chainlink/blob/master/contracts/src/v0.7/dev/AggregatorProxy.sol\":11636:11702  s_proposedAggregator = AggregatorProxyInterface(aggregatorAddress) */\n      dup1\n      sload\n      not(sub(shl(0xa0, 0x01), 0x01))\n      and\n      sub(shl(0xa0, 0x01), 0x01)\n      dup4\n      dup2\n      and\n      swap2\n      dup3\n      or\n      swap1\n      swap3\n      sstore\n        /* \"https://github.com/smartcontractkit/chainlink/blob/master/contracts/src/v0.7/dev/AggregatorProxy.sol\":11740:11754  s_currentPhase */\n      0x04\n        /* \"https://github.com/smartcontractkit/chainlink/blob/master/contracts/src/v0.7/dev/AggregatorProxy.sol\":11740:11765  s_currentPhase.aggregator */\n      sload\n        /* \"https://github.com/smartcontractkit/chainlink/blob/master/contracts/src/v0.7/dev/AggregatorProxy.sol\":11713:11786  AggregatorProposed(address(s_currentPhase.aggregator), aggregatorAddress) */\n      mload(0x40)\n        /* \"https://github.com/smartcontractkit/chainlink/blob/master/contracts/src/v0.7/dev/AggregatorProxy.sol\":11636:11702  s_proposedAggregator = AggregatorProxyInterface(aggregatorAddress) */\n      swap2\n      swap3\n        /* \"https://github.com/smartcontractkit/chainlink/blob/master/contracts/src/v0.7/dev/AggregatorProxy.sol\":11740:11765  s_currentPhase.aggregator */\n      0x010000\n      swap1\n      swap2\n      div\n      and\n      swap1\n        /* \"https://github.com/smartcontractkit/chainlink/blob/master/contracts/src/v0.7/dev/AggregatorProxy.sol\":11713:11786  AggregatorProposed(address(s_currentPhase.aggregator), aggregatorAddress) */\n      0xc0f151710f03d713b71d9970cee0d5b11ddc9a7552abaa3f6ee818010f21600d\n      swap1\n      0x00\n      swap1\n      log3\n        /* \"https://github.com/smartcontractkit/chainlink/blob/master/contracts/src/v0.7/dev/AggregatorProxy.sol\":11557:11791  function proposeAggregator(address aggregatorAddress) external onlyOwner {... */\n      pop\n      jump\t// out\n        /* \"https://github.com/smartcontractkit/chainlink/blob/master/contracts/src/v0.7/dev/AggregatorProxy.sol\":7735:8202  function latestRoundData()... */\n    tag_84:\n        /* \"https://github.com/smartcontractkit/chainlink/blob/master/contracts/src/v0.7/dev/AggregatorProxy.sol\":7952:7989  Phase memory current = s_currentPhase */\n      0x40\n      dup1\n      mload\n      dup1\n      dup3\n      add\n      dup3\n      mstore\n        /* \"https://github.com/smartcontractkit/chainlink/blob/master/contracts/src/v0.7/dev/AggregatorProxy.sol\":7975:7989  s_currentPhase */\n      0x04\n        /* \"https://github.com/smartcontractkit/chainlink/blob/master/contracts/src/v0.7/dev/AggregatorProxy.sol\":7952:7989  Phase memory current = s_currentPhase */\n      dup1\n      sload\n      0xffff\n      dup2\n      and\n      dup4\n      mstore\n      0x010000\n      swap1\n      div\n      sub(shl(0xa0, 0x01), 0x01)\n      and\n      0x20\n      dup4\n      add\n      dup2\n      swap1\n      mstore\n        /* \"https://github.com/smartcontractkit/chainlink/blob/master/contracts/src/v0.7/dev/AggregatorProxy.sol\":8073:8109  current.aggregator.latestRoundData() */\n      dup4\n      mload\n      0xfeaf968c00000000000000000000000000000000000000000000000000000000\n      dup2\n      mstore\n      swap4\n      mload\n      0x00\n      swap5\n      dup6\n      swap5\n      dup6\n      swap5\n      dup6\n      swap5\n      dup6\n      swap5\n        /* \"https://github.com/smartcontractkit/chainlink/blob/master/contracts/src/v0.7/dev/AggregatorProxy.sol\":7952:7989  Phase memory current = s_currentPhase */\n      swap3\n      swap4\n      swap1\n      swap3\n        /* \"https://github.com/smartcontractkit/chainlink/blob/master/contracts/src/v0.7/dev/AggregatorProxy.sol\":8073:8107  current.aggregator.latestRoundData */\n      0xfeaf968c\n      swap3\n        /* \"https://github.com/smartcontractkit/chainlink/blob/master/contracts/src/v0.7/dev/AggregatorProxy.sol\":8073:8109  current.aggregator.latestRoundData() */\n      dup3\n      dup2\n      add\n      swap3\n      0xa0\n      swap3\n      swap2\n      swap1\n      dup3\n      swap1\n      sub\n      add\n      dup2\n        /* \"https://github.com/smartcontractkit/chainlink/blob/master/contracts/src/v0.7/dev/AggregatorProxy.sol\":7952:7989  Phase memory current = s_currentPhase */\n      dup7\n        /* \"https://github.com/smartcontractkit/chainlink/blob/master/contracts/src/v0.7/dev/AggregatorProxy.sol\":8073:8109  current.aggregator.latestRoundData() */\n      dup1\n      extcodesize\n      iszero\n      dup1\n      iszero\n      tag_186\n      jumpi\n      0x00\n      dup1\n      revert\n    tag_186:\n      pop\n      gas\n      staticcall\n      iszero\n      dup1\n      iszero\n      tag_188\n      jumpi\n      returndatasize\n      0x00\n      dup1\n      returndatacopy\n      revert(0x00, returndatasize)\n    tag_188:\n      pop\n      pop\n      pop\n      pop\n      mload(0x40)\n      returndatasize\n      0xa0\n      dup2\n      lt\n      iszero\n      tag_189\n      jumpi\n      0x00\n      dup1\n      revert\n    tag_189:\n      pop\n      dup1\n      mload\n      0x20\n      dup3\n      add\n      mload\n      0x40\n      dup4\n      add\n      mload\n      0x60\n      dup5\n      add\n      mload\n      0x80\n      swap1\n      swap5\n      add\n      mload\n        /* \"https://github.com/smartcontractkit/chainlink/blob/master/contracts/src/v0.7/dev/AggregatorProxy.sol\":8186:8196  current.id */\n      dup6\n      mload\n        /* \"https://github.com/smartcontractkit/chainlink/blob/master/contracts/src/v0.7/dev/AggregatorProxy.sol\":8073:8109  current.aggregator.latestRoundData() */\n      swap4\n      swap11\n      pop\n      swap2\n      swap9\n      pop\n      swap7\n      pop\n      swap2\n      swap5\n      pop\n      swap1\n      swap3\n      pop\n        /* \"https://github.com/smartcontractkit/chainlink/blob/master/contracts/src/v0.7/dev/AggregatorProxy.sol\":8123:8197  addPhaseIds(id, answer, startedAt, updatedAt, answeredInRound, current.id) */\n      tag_190\n      swap1\n        /* \"https://github.com/smartcontractkit/chainlink/blob/master/contracts/src/v0.7/dev/AggregatorProxy.sol\":8073:8109  current.aggregator.latestRoundData() */\n      dup8\n      swap1\n      dup8\n      swap1\n      dup8\n      swap1\n      dup8\n      swap1\n      dup8\n      swap1\n        /* \"https://github.com/smartcontractkit/chainlink/blob/master/contracts/src/v0.7/dev/AggregatorProxy.sol\":8123:8134  addPhaseIds */\n      tag_151\n        /* \"https://github.com/smartcontractkit/chainlink/blob/master/contracts/src/v0.7/dev/AggregatorProxy.sol\":8123:8197  addPhaseIds(id, answer, startedAt, updatedAt, answeredInRound, current.id) */\n      jump\t// in\n    tag_190:\n        /* \"https://github.com/smartcontractkit/chainlink/blob/master/contracts/src/v0.7/dev/AggregatorProxy.sol\":8116:8197  return addPhaseIds(id, answer, startedAt, updatedAt, answeredInRound, current.id) */\n      swap6\n      pop\n      swap6\n      pop\n      swap6\n      pop\n      swap6\n      pop\n      swap6\n      pop\n      pop\n        /* \"https://github.com/smartcontractkit/chainlink/blob/master/contracts/src/v0.7/dev/AggregatorProxy.sol\":7735:8202  function latestRoundData()... */\n      swap1\n      swap2\n      swap3\n      swap4\n      swap5\n      jump\t// out\n        /* \"https://github.com/smartcontractkit/chainlink/blob/master/contracts/src/v0.7/dev/AggregatorProxy.sol\":12735:12888  function addPhase(uint16 phase, uint64 originalId) internal pure returns (uint80) {... */\n    tag_115:\n        /* \"https://github.com/smartcontractkit/chainlink/blob/master/contracts/src/v0.7/dev/AggregatorProxy.sol\":12837:12882  (uint256(phase) << PHASE_OFFSET) | originalId */\n      0xffffffffffffffff\n      and\n        /* \"https://github.com/smartcontractkit/chainlink/blob/master/contracts/src/v0.7/dev/AggregatorProxy.sol\":749:751  64 */\n      0x40\n        /* \"https://github.com/smartcontractkit/chainlink/blob/master/contracts/src/v0.7/dev/AggregatorProxy.sol\":12838:12868  uint256(phase) << PHASE_OFFSET */\n      swap2\n      swap1\n      swap2\n      shl\n      0xffff0000000000000000\n      and\n        /* \"https://github.com/smartcontractkit/chainlink/blob/master/contracts/src/v0.7/dev/AggregatorProxy.sol\":12837:12882  (uint256(phase) << PHASE_OFFSET) | originalId */\n      or\n      swap1\n        /* \"https://github.com/smartcontractkit/chainlink/blob/master/contracts/src/v0.7/dev/AggregatorProxy.sol\":12735:12888  function addPhase(uint16 phase, uint64 originalId) internal pure returns (uint80) {... */\n      jump\t// out\n        /* \"https://github.com/smartcontractkit/chainlink/blob/master/contracts/src/v0.7/dev/AggregatorProxy.sol\":12892:13115  function parseIds(uint256 roundId) internal pure returns (uint16, uint64) {... */\n    tag_145:\n        /* \"https://github.com/smartcontractkit/chainlink/blob/master/contracts/src/v0.7/dev/AggregatorProxy.sol\":749:751  64 */\n      0x40\n        /* \"https://github.com/smartcontractkit/chainlink/blob/master/contracts/src/v0.7/dev/AggregatorProxy.sol\":12996:13019  roundId >> PHASE_OFFSET */\n      dup2\n      swap1\n      shr\n        /* \"https://github.com/smartcontractkit/chainlink/blob/master/contracts/src/v0.7/dev/AggregatorProxy.sol\":12892:13115  function parseIds(uint256 roundId) internal pure returns (uint16, uint64) {... */\n      swap2\n      jump\t// out\n        /* \"https://github.com/smartcontractkit/chainlink/blob/master/contracts/src/v0.7/dev/AggregatorProxy.sol\":13119:13556  function addPhaseIds(... */\n    tag_151:\n        /* \"https://github.com/smartcontractkit/chainlink/blob/master/contracts/src/v0.7/dev/AggregatorProxy.sol\":13319:13325  uint80 */\n      0x00\n        /* \"https://github.com/smartcontractkit/chainlink/blob/master/contracts/src/v0.7/dev/AggregatorProxy.sol\":13333:13339  int256 */\n      dup1\n        /* \"https://github.com/smartcontractkit/chainlink/blob/master/contracts/src/v0.7/dev/AggregatorProxy.sol\":13347:13354  uint256 */\n      0x00\n        /* \"https://github.com/smartcontractkit/chainlink/blob/master/contracts/src/v0.7/dev/AggregatorProxy.sol\":13362:13369  uint256 */\n      dup1\n        /* \"https://github.com/smartcontractkit/chainlink/blob/master/contracts/src/v0.7/dev/AggregatorProxy.sol\":13377:13383  uint80 */\n      0x00\n        /* \"https://github.com/smartcontractkit/chainlink/blob/master/contracts/src/v0.7/dev/AggregatorProxy.sol\":13413:13447  addPhase(phaseId, uint64(roundId)) */\n      tag_194\n        /* \"https://github.com/smartcontractkit/chainlink/blob/master/contracts/src/v0.7/dev/AggregatorProxy.sol\":13422:13429  phaseId */\n      dup7\n        /* \"https://github.com/smartcontractkit/chainlink/blob/master/contracts/src/v0.7/dev/AggregatorProxy.sol\":13438:13445  roundId */\n      dup13\n        /* \"https://github.com/smartcontractkit/chainlink/blob/master/contracts/src/v0.7/dev/AggregatorProxy.sol\":13413:13421  addPhase */\n      tag_115\n        /* \"https://github.com/smartcontractkit/chainlink/blob/master/contracts/src/v0.7/dev/AggregatorProxy.sol\":13413:13447  addPhase(phaseId, uint64(roundId)) */\n      jump\t// in\n    tag_194:\n        /* \"https://github.com/smartcontractkit/chainlink/blob/master/contracts/src/v0.7/dev/AggregatorProxy.sol\":13455:13461  answer */\n      dup11\n        /* \"https://github.com/smartcontractkit/chainlink/blob/master/contracts/src/v0.7/dev/AggregatorProxy.sol\":13469:13478  startedAt */\n      dup11\n        /* \"https://github.com/smartcontractkit/chainlink/blob/master/contracts/src/v0.7/dev/AggregatorProxy.sol\":13486:13495  updatedAt */\n      dup11\n        /* \"https://github.com/smartcontractkit/chainlink/blob/master/contracts/src/v0.7/dev/AggregatorProxy.sol\":13503:13545  addPhase(phaseId, uint64(answeredInRound)) */\n      tag_195\n        /* \"https://github.com/smartcontractkit/chainlink/blob/master/contracts/src/v0.7/dev/AggregatorProxy.sol\":13512:13519  phaseId */\n      dup11\n        /* \"https://github.com/smartcontractkit/chainlink/blob/master/contracts/src/v0.7/dev/AggregatorProxy.sol\":13528:13543  answeredInRound */\n      dup13\n        /* \"https://github.com/smartcontractkit/chainlink/blob/master/contracts/src/v0.7/dev/AggregatorProxy.sol\":13503:13511  addPhase */\n      tag_115\n        /* \"https://github.com/smartcontractkit/chainlink/blob/master/contracts/src/v0.7/dev/AggregatorProxy.sol\":13503:13545  addPhase(phaseId, uint64(answeredInRound)) */\n      jump\t// in\n    tag_195:\n        /* \"https://github.com/smartcontractkit/chainlink/blob/master/contracts/src/v0.7/dev/AggregatorProxy.sol\":13398:13551  return (... */\n      swap4\n      swap16\n      swap3\n      swap15\n      pop\n      swap1\n      swap13\n      pop\n      swap11\n      pop\n      swap1\n      swap9\n      pop\n        /* \"https://github.com/smartcontractkit/chainlink/blob/master/contracts/src/v0.7/dev/AggregatorProxy.sol\":13119:13556  function addPhaseIds(... */\n      swap7\n      pop\n      pop\n      pop\n      pop\n      pop\n      pop\n      pop\n      jump\t// out\n        /* \"https://github.com/smartcontractkit/chainlink/blob/master/contracts/src/v0.7/ConfirmedOwnerWithProposal.sol\":1730:1841  function _validateOwnership() internal view {... */\n    tag_154:\n        /* \"https://github.com/smartcontractkit/chainlink/blob/master/contracts/src/v0.7/ConfirmedOwnerWithProposal.sol\":1802:1809  s_owner */\n      and(sub(shl(0xa0, 0x01), 0x01), sload(0x00))\n        /* \"https://github.com/smartcontractkit/chainlink/blob/master/contracts/src/v0.7/ConfirmedOwnerWithProposal.sol\":1788:1798  msg.sender */\n      caller\n        /* \"https://github.com/smartcontractkit/chainlink/blob/master/contracts/src/v0.7/ConfirmedOwnerWithProposal.sol\":1788:1809  msg.sender == s_owner */\n      eq\n        /* \"https://github.com/smartcontractkit/chainlink/blob/master/contracts/src/v0.7/ConfirmedOwnerWithProposal.sol\":1780:1836  require(msg.sender == s_owner, \"Only callable by owner\") */\n      tag_197\n      jumpi\n      0x40\n      dup1\n      mload\n      shl(0xe5, 0x461bcd)\n      dup2\n      mstore\n      0x20\n      0x04\n      dup3\n      add\n      mstore\n      0x16\n      0x24\n      dup3\n      add\n      mstore\n      0x4f6e6c792063616c6c61626c65206279206f776e657200000000000000000000\n      0x44\n      dup3\n      add\n      mstore\n      swap1\n      mload\n      swap1\n      dup2\n      swap1\n      sub\n      0x64\n      add\n      swap1\n      revert\n    tag_197:\n        /* \"https://github.com/smartcontractkit/chainlink/blob/master/contracts/src/v0.7/ConfirmedOwnerWithProposal.sol\":1730:1841  function _validateOwnership() internal view {... */\n      jump\t// out\n        /* \"https://github.com/smartcontractkit/chainlink/blob/master/contracts/src/v0.7/dev/AggregatorProxy.sol\":12477:12731  function setAggregator(address aggregatorAddress) internal {... */\n    tag_158:\n        /* \"https://github.com/smartcontractkit/chainlink/blob/master/contracts/src/v0.7/dev/AggregatorProxy.sol\":12554:12568  s_currentPhase */\n      0x04\n        /* \"https://github.com/smartcontractkit/chainlink/blob/master/contracts/src/v0.7/dev/AggregatorProxy.sol\":12554:12571  s_currentPhase.id */\n      dup1\n      sload\n        /* \"https://github.com/smartcontractkit/chainlink/blob/master/contracts/src/v0.7/dev/AggregatorProxy.sol\":12598:12652  Phase(id, AggregatorProxyInterface(aggregatorAddress)) */\n      0x40\n      dup1\n      mload\n      dup1\n      dup3\n      add\n      dup3\n      mstore\n        /* \"https://github.com/smartcontractkit/chainlink/blob/master/contracts/src/v0.7/dev/AggregatorProxy.sol\":12554:12571  s_currentPhase.id */\n      0x01\n      0xffff\n      dup1\n      dup6\n      and\n        /* \"https://github.com/smartcontractkit/chainlink/blob/master/contracts/src/v0.7/dev/AggregatorProxy.sol\":12554:12575  s_currentPhase.id + 1 */\n      swap2\n      swap1\n      swap2\n      add\n        /* \"https://github.com/smartcontractkit/chainlink/blob/master/contracts/src/v0.7/dev/AggregatorProxy.sol\":12598:12652  Phase(id, AggregatorProxyInterface(aggregatorAddress)) */\n      and\n      dup1\n      dup3\n      mstore\n      sub(shl(0xa0, 0x01), 0x01)\n      swap6\n      swap1\n      swap6\n      and\n      0x20\n      swap2\n      dup3\n      add\n      dup2\n      swap1\n      mstore\n      not(0xffff)\n        /* \"https://github.com/smartcontractkit/chainlink/blob/master/contracts/src/v0.7/dev/AggregatorProxy.sol\":12581:12652  s_currentPhase = Phase(id, AggregatorProxyInterface(aggregatorAddress)) */\n      swap1\n      swap4\n      and\n      dup6\n      or\n      0xffffffffffffffffffff0000000000000000000000000000000000000000ffff\n      and\n      0x010000\n      dup5\n      mul\n      or\n      swap1\n      swap4\n      sstore\n      0x00\n        /* \"https://github.com/smartcontractkit/chainlink/blob/master/contracts/src/v0.7/dev/AggregatorProxy.sol\":12658:12680  s_phaseAggregators[id] */\n      swap4\n      dup5\n      mstore\n        /* \"https://github.com/smartcontractkit/chainlink/blob/master/contracts/src/v0.7/dev/AggregatorProxy.sol\":12658:12676  s_phaseAggregators */\n      0x03\n        /* \"https://github.com/smartcontractkit/chainlink/blob/master/contracts/src/v0.7/dev/AggregatorProxy.sol\":12658:12680  s_phaseAggregators[id] */\n      swap1\n      swap3\n      mstore\n      swap2\n      keccak256\n        /* \"https://github.com/smartcontractkit/chainlink/blob/master/contracts/src/v0.7/dev/AggregatorProxy.sol\":12658:12726  s_phaseAggregators[id] = AggregatorProxyInterface(aggregatorAddress) */\n      dup1\n      sload\n      not(sub(shl(0xa0, 0x01), 0x01))\n      and\n      swap1\n      swap2\n      or\n      swap1\n      sstore\n        /* \"https://github.com/smartcontractkit/chainlink/blob/master/contracts/src/v0.7/dev/AggregatorProxy.sol\":12477:12731  function setAggregator(address aggregatorAddress) internal {... */\n      jump\t// out\n        /* \"https://github.com/smartcontractkit/chainlink/blob/master/contracts/src/v0.7/ConfirmedOwnerWithProposal.sol\":1497:1685  function _transferOwnership(address to) private {... */\n    tag_181:\n      sub(shl(0xa0, 0x01), 0x01)\n        /* \"https://github.com/smartcontractkit/chainlink/blob/master/contracts/src/v0.7/ConfirmedOwnerWithProposal.sol\":1559:1575  to != msg.sender */\n      dup2\n      and\n        /* \"https://github.com/smartcontractkit/chainlink/blob/master/contracts/src/v0.7/ConfirmedOwnerWithProposal.sol\":1565:1575  msg.sender */\n      caller\n        /* \"https://github.com/smartcontractkit/chainlink/blob/master/contracts/src/v0.7/ConfirmedOwnerWithProposal.sol\":1559:1575  to != msg.sender */\n      eq\n      iszero\n        /* \"https://github.com/smartcontractkit/chainlink/blob/master/contracts/src/v0.7/ConfirmedOwnerWithProposal.sol\":1551:1603  require(to != msg.sender, \"Cannot transfer to self\") */\n      tag_200\n      jumpi\n      0x40\n      dup1\n      mload\n      shl(0xe5, 0x461bcd)\n      dup2\n      mstore\n      0x20\n      0x04\n      dup3\n      add\n      mstore\n      0x17\n      0x24\n      dup3\n      add\n      mstore\n      0x43616e6e6f74207472616e7366657220746f2073656c66000000000000000000\n      0x44\n      dup3\n      add\n      mstore\n      swap1\n      mload\n      swap1\n      dup2\n      swap1\n      sub\n      0x64\n      add\n      swap1\n      revert\n    tag_200:\n        /* \"https://github.com/smartcontractkit/chainlink/blob/master/contracts/src/v0.7/ConfirmedOwnerWithProposal.sol\":1610:1624  s_pendingOwner */\n      0x01\n        /* \"https://github.com/smartcontractkit/chainlink/blob/master/contracts/src/v0.7/ConfirmedOwnerWithProposal.sol\":1610:1629  s_pendingOwner = to */\n      dup1\n      sload\n      not(sub(shl(0xa0, 0x01), 0x01))\n      and\n      sub(shl(0xa0, 0x01), 0x01)\n      dup4\n      dup2\n      and\n      swap2\n      dup3\n      or\n      swap1\n      swap3\n      sstore\n      0x00\n        /* \"https://github.com/smartcontractkit/chainlink/blob/master/contracts/src/v0.7/ConfirmedOwnerWithProposal.sol\":1668:1675  s_owner */\n      dup1\n      sload\n        /* \"https://github.com/smartcontractkit/chainlink/blob/master/contracts/src/v0.7/ConfirmedOwnerWithProposal.sol\":1641:1680  OwnershipTransferRequested(s_owner, to) */\n      mload(0x40)\n        /* \"https://github.com/smartcontractkit/chainlink/blob/master/contracts/src/v0.7/ConfirmedOwnerWithProposal.sol\":1610:1629  s_pendingOwner = to */\n      swap3\n      swap4\n        /* \"https://github.com/smartcontractkit/chainlink/blob/master/contracts/src/v0.7/ConfirmedOwnerWithProposal.sol\":1668:1675  s_owner */\n      and\n      swap2\n        /* \"https://github.com/smartcontractkit/chainlink/blob/master/contracts/src/v0.7/ConfirmedOwnerWithProposal.sol\":1641:1680  OwnershipTransferRequested(s_owner, to) */\n      0xed8889f560326eb138920d842192f0eb3dd22b4f139c87a2c57538e05bae1278\n      swap2\n      swap1\n      log3\n        /* \"https://github.com/smartcontractkit/chainlink/blob/master/contracts/src/v0.7/ConfirmedOwnerWithProposal.sol\":1497:1685  function _transferOwnership(address to) private {... */\n      pop\n      jump\t// out\n\n    auxdata: 0xa2646970667358221220192d572a4a44a6bf77cafc414753463fcb816d7355899638a7de5577a2132ccf64736f6c63430007060033\n}\n",
				"bytecode": {
					"linkReferences": {},
					"object": "608060405234801561001057600080fd5b506040516113c53803806113c58339818101604052602081101561003357600080fd5b5051338060008161008b576040805162461bcd60e51b815260206004820152601860248201527f43616e6e6f7420736574206f776e657220746f207a65726f0000000000000000604482015290519081900360640190fd5b600080546001600160a01b0319166001600160a01b03848116919091179091558116156100bb576100bb816100d3565b5050506100cd8161018260201b60201c565b506101f1565b6001600160a01b038116331415610131576040805162461bcd60e51b815260206004820152601760248201527f43616e6e6f74207472616e7366657220746f2073656c66000000000000000000604482015290519081900360640190fd5b600180546001600160a01b0319166001600160a01b0383811691821790925560008054604051929316917fed8889f560326eb138920d842192f0eb3dd22b4f139c87a2c57538e05bae12789190a350565b60048054604080518082018252600161ffff80851691909101168082526001600160a01b0395909516602091820181905261ffff19909316851762010000600160b01b0319166201000084021790935560009384526003909252912080546001600160a01b0319169091179055565b6111c5806102006000396000f3fe608060405234801561001057600080fd5b50600436106101775760003560e01c80638da5cb5b116100d8578063b633620c1161008c578063f2fde38b11610066578063f2fde38b146103cb578063f8a2abd3146103f1578063feaf968c1461041757610177565b8063b633620c14610385578063c1597304146103a2578063e8c4be30146103c357610177565b80639a6fc8f5116100bd5780639a6fc8f514610319578063a928c09614610342578063b5ab58dc1461036857610177565b80638da5cb5b146103095780638f6b4d911461031157610177565b80636001ac531161012f5780637284e416116101145780637284e4161461027a57806379ba5097146102f75780638205bf6a1461030157610177565b80636001ac53146101ff578063668a0f021461027257610177565b806350d25bcd1161016057806350d25bcd146101be57806354fd4d50146101d857806358303b10146101e057610177565b8063245a7bfc1461017c578063313ce567146101a0575b600080fd5b61018461041f565b604080516001600160a01b039092168252519081900360200190f35b6101a8610434565b6040805160ff9092168252519081900360200190f35b6101c66104b8565b60408051918252519081900360200190f35b6101c661050b565b6101e861055e565b6040805161ffff9092168252519081900360200190f35b6102286004803603602081101561021557600080fd5b503569ffffffffffffffffffff16610568565b604051808669ffffffffffffffffffff1681526020018581526020018481526020018381526020018269ffffffffffffffffffff1681526020019550505050505060405180910390f35b6101c661067a565b61028261073b565b6040805160208082528351818301528351919283929083019185019080838360005b838110156102bc5781810151838201526020016102a4565b50505050905090810190601f1680156102e95780820380516001836020036101000a031916815260200191505b509250505060405180910390f35b6102ff610880565b005b6101c6610936565b610184610989565b610228610998565b6102286004803603602081101561032f57600080fd5b503569ffffffffffffffffffff16610aa0565b6102ff6004803603602081101561035857600080fd5b50356001600160a01b0316610b9d565b6101c66004803603602081101561037e57600080fd5b5035610c76565b6101c66004803603602081101561039b57600080fd5b5035610d56565b610184600480360360208110156103b857600080fd5b503561ffff16610dff565b610184610e1e565b6102ff600480360360208110156103e157600080fd5b50356001600160a01b0316610e2d565b6102ff6004803603602081101561040757600080fd5b50356001600160a01b0316610e41565b610228610ea2565b6004546201000090046001600160a01b031690565b6000600460000160029054906101000a90046001600160a01b03166001600160a01b031663313ce5676040518163ffffffff1660e01b815260040160206040518083038186803b15801561048757600080fd5b505afa15801561049b573d6000803e3d6000fd5b505050506040513d60208110156104b157600080fd5b5051905090565b6000600460000160029054906101000a90046001600160a01b03166001600160a01b03166350d25bcd6040518163ffffffff1660e01b815260040160206040518083038186803b15801561048757600080fd5b6000600460000160029054906101000a90046001600160a01b03166001600160a01b03166354fd4d506040518163ffffffff1660e01b815260040160206040518083038186803b15801561048757600080fd5b60045461ffff1690565b60025460009081908190819081906001600160a01b03166105d0576040805162461bcd60e51b815260206004820152601e60248201527f4e6f2070726f706f7365642061676772656761746f722070726573656e740000604482015290519081900360640190fd5b60025460408051639a6fc8f560e01b815269ffffffffffffffffffff8916600482015290516001600160a01b0390921691639a6fc8f59160248082019260a092909190829003018186803b15801561062757600080fd5b505afa15801561063b573d6000803e3d6000fd5b505050506040513d60a081101561065157600080fd5b508051602082015160408301516060840151608090940151929a91995097509195509350915050565b6040805180820182526004805461ffff8116808452620100009091046001600160a01b0316602080850182905285517f668a0f0200000000000000000000000000000000000000000000000000000000815295516000966107299563668a0f0293828201939092909190829003018186803b1580156106f857600080fd5b505afa15801561070c573d6000803e3d6000fd5b505050506040513d602081101561072257600080fd5b5051610f9c565b69ffffffffffffffffffff1691505090565b6060600460000160029054906101000a90046001600160a01b03166001600160a01b0316637284e4166040518163ffffffff1660e01b815260040160006040518083038186803b15801561078e57600080fd5b505afa1580156107a2573d6000803e3d6000fd5b505050506040513d6000823e601f3d908101601f1916820160405260208110156107cb57600080fd5b81019080805160405193929190846401000000008211156107eb57600080fd5b90830190602082018581111561080057600080fd5b825164010000000081118282018810171561081a57600080fd5b82525081516020918201929091019080838360005b8381101561084757818101518382015260200161082f565b50505050905090810190601f1680156108745780820380516001836020036101000a031916815260200191505b50604052505050905090565b6001546001600160a01b031633146108df576040805162461bcd60e51b815260206004820152601660248201527f4d7573742062652070726f706f736564206f776e657200000000000000000000604482015290519081900360640190fd5b60008054336001600160a01b0319808316821784556001805490911690556040516001600160a01b0390921692909183917f8be0079c531659141344cd1fd0a4f28419497f9722a3daafe3b4186f6b6457e091a350565b6000600460000160029054906101000a90046001600160a01b03166001600160a01b0316638205bf6a6040518163ffffffff1660e01b815260040160206040518083038186803b15801561048757600080fd5b6000546001600160a01b031690565b60025460009081908190819081906001600160a01b0316610a00576040805162461bcd60e51b815260206004820152601e60248201527f4e6f2070726f706f7365642061676772656761746f722070726573656e740000604482015290519081900360640190fd5b600260009054906101000a90046001600160a01b03166001600160a01b031663feaf968c6040518163ffffffff1660e01b815260040160a06040518083038186803b158015610a4e57600080fd5b505afa158015610a62573d6000803e3d6000fd5b505050506040513d60a0811015610a7857600080fd5b5080516020820151604083015160608401516080909401519299919850965091945092509050565b6000806000806000806000610ac08869ffffffffffffffffffff16610fbc565b61ffff821660009081526003602052604090819020548151639a6fc8f560e01b815267ffffffffffffffff8416600482015291519395509193506001600160a01b0390911691639a6fc8f59160248082019260a092909190829003018186803b158015610b2c57600080fd5b505afa158015610b40573d6000803e3d6000fd5b505050506040513d60a0811015610b5657600080fd5b508051602082015160408301516060840151608090940151929a5090985096509094509250610b89878787878787610fc4565b939c929b5090995097509095509350505050565b610ba5610ffa565b6002546001600160a01b03828116911614610c07576040805162461bcd60e51b815260206004820152601b60248201527f496e76616c69642070726f706f7365642061676772656761746f720000000000604482015290519081900360640190fd5b600454600280546001600160a01b03191690556201000090046001600160a01b0316610c328261105b565b816001600160a01b0316816001600160a01b03167f33745f67a407dcb785417f9c123dd3641479a102674b6e35c1f10975625b90e960405160405180910390a35050565b600069ffffffffffffffffffff821115610c9257506000610d51565b600080610c9e84610fbc565b61ffff821660009081526003602052604090205491935091506001600160a01b031680610cd15760009350505050610d51565b806001600160a01b031663b5ab58dc836040518263ffffffff1660e01b8152600401808267ffffffffffffffff16815260200191505060206040518083038186803b158015610d1f57600080fd5b505afa158015610d33573d6000803e3d6000fd5b505050506040513d6020811015610d4957600080fd5b505193505050505b919050565b600069ffffffffffffffffffff821115610d7257506000610d51565b600080610d7e84610fbc565b61ffff821660009081526003602052604090205491935091506001600160a01b031680610db15760009350505050610d51565b806001600160a01b031663b633620c836040518263ffffffff1660e01b8152600401808267ffffffffffffffff16815260200191505060206040518083038186803b158015610d1f57600080fd5b61ffff166000908152600360205260409020546001600160a01b031690565b6002546001600160a01b031690565b610e35610ffa565b610e3e816110e0565b50565b610e49610ffa565b600280546001600160a01b0319166001600160a01b0383811691821790925560045460405191926201000090910416907fc0f151710f03d713b71d9970cee0d5b11ddc9a7552abaa3f6ee818010f21600d90600090a350565b6040805180820182526004805461ffff811683526201000090046001600160a01b03166020830181905283517ffeaf968c000000000000000000000000000000000000000000000000000000008152935160009485948594859485949293909263feaf968c928281019260a0929190829003018186803b158015610f2557600080fd5b505afa158015610f39573d6000803e3d6000fd5b505050506040513d60a0811015610f4f57600080fd5b5080516020820151604083015160608401516080909401518551939a509198509650919450909250610f8a9087908790879087908790610fc4565b95509550955095509550509091929394565b67ffffffffffffffff1660409190911b69ffff0000000000000000161790565b604081901c91565b6000806000806000610fd6868c610f9c565b8a8a8a610fe38a8c610f9c565b939f929e50909c509a509098509650505050505050565b6000546001600160a01b03163314611059576040805162461bcd60e51b815260206004820152601660248201527f4f6e6c792063616c6c61626c65206279206f776e657200000000000000000000604482015290519081900360640190fd5b565b60048054604080518082018252600161ffff80851691909101168082526001600160a01b0395909516602091820181905261ffff1990931685177fffffffffffffffffffff0000000000000000000000000000000000000000ffff166201000084021790935560009384526003909252912080546001600160a01b0319169091179055565b6001600160a01b03811633141561113e576040805162461bcd60e51b815260206004820152601760248201527f43616e6e6f74207472616e7366657220746f2073656c66000000000000000000604482015290519081900360640190fd5b600180546001600160a01b0319166001600160a01b0383811691821790925560008054604051929316917fed8889f560326eb138920d842192f0eb3dd22b4f139c87a2c57538e05bae12789190a35056fea2646970667358221220192d572a4a44a6bf77cafc414753463fcb816d7355899638a7de5577a2132ccf64736f6c63430007060033",
					"opcodes": "PUSH1 0x80 PUSH1 0x40 MSTORE CALLVALUE DUP1 ISZERO PUSH2 0x10 JUMPI PUSH1 0x0 DUP1 REVERT JUMPDEST POP PUSH1 0x40 MLOAD PUSH2 0x13C5 CODESIZE SUB DUP1 PUSH2 0x13C5 DUP4 CODECOPY DUP2 DUP2 ADD PUSH1 0x40 MSTORE PUSH1 0x20 DUP2 LT ISZERO PUSH2 0x33 JUMPI PUSH1 0x0 DUP1 REVERT JUMPDEST POP MLOAD CALLER DUP1 PUSH1 0x0 DUP2 PUSH2 0x8B JUMPI PUSH1 0x40 DUP1 MLOAD PUSH3 0x461BCD PUSH1 0xE5 SHL DUP2 MSTORE PUSH1 0x20 PUSH1 0x4 DUP3 ADD MSTORE PUSH1 0x18 PUSH1 0x24 DUP3 ADD MSTORE PUSH32 0x43616E6E6F7420736574206F776E657220746F207A65726F0000000000000000 PUSH1 0x44 DUP3 ADD MSTORE SWAP1 MLOAD SWAP1 DUP2 SWAP1 SUB PUSH1 0x64 ADD SWAP1 REVERT JUMPDEST PUSH1 0x0 DUP1 SLOAD PUSH1 0x1 PUSH1 0x1 PUSH1 0xA0 SHL SUB NOT AND PUSH1 0x1 PUSH1 0x1 PUSH1 0xA0 SHL SUB DUP5 DUP2 AND SWAP2 SWAP1 SWAP2 OR SWAP1 SWAP2 SSTORE DUP2 AND ISZERO PUSH2 0xBB JUMPI PUSH2 0xBB DUP2 PUSH2 0xD3 JUMP JUMPDEST POP POP POP PUSH2 0xCD DUP2 PUSH2 0x182 PUSH1 0x20 SHL PUSH1 0x20 SHR JUMP JUMPDEST POP PUSH2 0x1F1 JUMP JUMPDEST PUSH1 0x1 PUSH1 0x1 PUSH1 0xA0 SHL SUB DUP2 AND CALLER EQ ISZERO PUSH2 0x131 JUMPI PUSH1 0x40 DUP1 MLOAD PUSH3 0x461BCD PUSH1 0xE5 SHL DUP2 MSTORE PUSH1 0x20 PUSH1 0x4 DUP3 ADD MSTORE PUSH1 0x17 PUSH1 0x24 DUP3 ADD MSTORE PUSH32 0x43616E6E6F74207472616E7366657220746F2073656C66000000000000000000 PUSH1 0x44 DUP3 ADD MSTORE SWAP1 MLOAD SWAP1 DUP2 SWAP1 SUB PUSH1 0x64 ADD SWAP1 REVERT JUMPDEST PUSH1 0x1 DUP1 SLOAD PUSH1 0x1 PUSH1 0x1 PUSH1 0xA0 SHL SUB NOT AND PUSH1 0x1 PUSH1 0x1 PUSH1 0xA0 SHL SUB DUP4 DUP2 AND SWAP2 DUP3 OR SWAP1 SWAP3 SSTORE PUSH1 0x0 DUP1 SLOAD PUSH1 0x40 MLOAD SWAP3 SWAP4 AND SWAP2 PUSH32 0xED8889F560326EB138920D842192F0EB3DD22B4F139C87A2C57538E05BAE1278 SWAP2 SWAP1 LOG3 POP JUMP JUMPDEST PUSH1 0x4 DUP1 SLOAD PUSH1 0x40 DUP1 MLOAD DUP1 DUP3 ADD DUP3 MSTORE PUSH1 0x1 PUSH2 0xFFFF DUP1 DUP6 AND SWAP2 SWAP1 SWAP2 ADD AND DUP1 DUP3 MSTORE PUSH1 0x1 PUSH1 0x1 PUSH1 0xA0 SHL SUB SWAP6 SWAP1 SWAP6 AND PUSH1 0x20 SWAP2 DUP3 ADD DUP2 SWAP1 MSTORE PUSH2 0xFFFF NOT SWAP1 SWAP4 AND DUP6 OR PUSH3 0x10000 PUSH1 0x1 PUSH1 0xB0 SHL SUB NOT AND PUSH3 0x10000 DUP5 MUL OR SWAP1 SWAP4 SSTORE PUSH1 0x0 SWAP4 DUP5 MSTORE PUSH1 0x3 SWAP1 SWAP3 MSTORE SWAP2 KECCAK256 DUP1 SLOAD PUSH1 0x1 PUSH1 0x1 PUSH1 0xA0 SHL SUB NOT AND SWAP1 SWAP2 OR SWAP1 SSTORE JUMP JUMPDEST PUSH2 0x11C5 DUP1 PUSH2 0x200 PUSH1 0x0 CODECOPY PUSH1 0x0 RETURN INVALID PUSH1 0x80 PUSH1 0x40 MSTORE CALLVALUE DUP1 ISZERO PUSH2 0x10 JUMPI PUSH1 0x0 DUP1 REVERT JUMPDEST POP PUSH1 0x4 CALLDATASIZE LT PUSH2 0x177 JUMPI PUSH1 0x0 CALLDATALOAD PUSH1 0xE0 SHR DUP1 PUSH4 0x8DA5CB5B GT PUSH2 0xD8 JUMPI DUP1 PUSH4 0xB633620C GT PUSH2 0x8C JUMPI DUP1 PUSH4 0xF2FDE38B GT PUSH2 0x66 JUMPI DUP1 PUSH4 0xF2FDE38B EQ PUSH2 0x3CB JUMPI DUP1 PUSH4 0xF8A2ABD3 EQ PUSH2 0x3F1 JUMPI DUP1 PUSH4 0xFEAF968C EQ PUSH2 0x417 JUMPI PUSH2 0x177 JUMP JUMPDEST DUP1 PUSH4 0xB633620C EQ PUSH2 0x385 JUMPI DUP1 PUSH4 0xC1597304 EQ PUSH2 0x3A2 JUMPI DUP1 PUSH4 0xE8C4BE30 EQ PUSH2 0x3C3 JUMPI PUSH2 0x177 JUMP JUMPDEST DUP1 PUSH4 0x9A6FC8F5 GT PUSH2 0xBD JUMPI DUP1 PUSH4 0x9A6FC8F5 EQ PUSH2 0x319 JUMPI DUP1 PUSH4 0xA928C096 EQ PUSH2 0x342 JUMPI DUP1 PUSH4 0xB5AB58DC EQ PUSH2 0x368 JUMPI PUSH2 0x177 JUMP JUMPDEST DUP1 PUSH4 0x8DA5CB5B EQ PUSH2 0x309 JUMPI DUP1 PUSH4 0x8F6B4D91 EQ PUSH2 0x311 JUMPI PUSH2 0x177 JUMP JUMPDEST DUP1 PUSH4 0x6001AC53 GT PUSH2 0x12F JUMPI DUP1 PUSH4 0x7284E416 GT PUSH2 0x114 JUMPI DUP1 PUSH4 0x7284E416 EQ PUSH2 0x27A JUMPI DUP1 PUSH4 0x79BA5097 EQ PUSH2 0x2F7 JUMPI DUP1 PUSH4 0x8205BF6A EQ PUSH2 0x301 JUMPI PUSH2 0x177 JUMP JUMPDEST DUP1 PUSH4 0x6001AC53 EQ PUSH2 0x1FF JUMPI DUP1 PUSH4 0x668A0F02 EQ PUSH2 0x272 JUMPI PUSH2 0x177 JUMP JUMPDEST DUP1 PUSH4 0x50D25BCD GT PUSH2 0x160 JUMPI DUP1 PUSH4 0x50D25BCD EQ PUSH2 0x1BE JUMPI DUP1 PUSH4 0x54FD4D50 EQ PUSH2 0x1D8 JUMPI DUP1 PUSH4 0x58303B10 EQ PUSH2 0x1E0 JUMPI PUSH2 0x177 JUMP JUMPDEST DUP1 PUSH4 0x245A7BFC EQ PUSH2 0x17C JUMPI DUP1 PUSH4 0x313CE567 EQ PUSH2 0x1A0 JUMPI JUMPDEST PUSH1 0x0 DUP1 REVERT JUMPDEST PUSH2 0x184 PUSH2 0x41F JUMP JUMPDEST PUSH1 0x40 DUP1 MLOAD PUSH1 0x1 PUSH1 0x1 PUSH1 0xA0 SHL SUB SWAP1 SWAP3 AND DUP3 MSTORE MLOAD SWAP1 DUP2 SWAP1 SUB PUSH1 0x20 ADD SWAP1 RETURN JUMPDEST PUSH2 0x1A8 PUSH2 0x434 JUMP JUMPDEST PUSH1 0x40 DUP1 MLOAD PUSH1 0xFF SWAP1 SWAP3 AND DUP3 MSTORE MLOAD SWAP1 DUP2 SWAP1 SUB PUSH1 0x20 ADD SWAP1 RETURN JUMPDEST PUSH2 0x1C6 PUSH2 0x4B8 JUMP JUMPDEST PUSH1 0x40 DUP1 MLOAD SWAP2 DUP3 MSTORE MLOAD SWAP1 DUP2 SWAP1 SUB PUSH1 0x20 ADD SWAP1 RETURN JUMPDEST PUSH2 0x1C6 PUSH2 0x50B JUMP JUMPDEST PUSH2 0x1E8 PUSH2 0x55E JUMP JUMPDEST PUSH1 0x40 DUP1 MLOAD PUSH2 0xFFFF SWAP1 SWAP3 AND DUP3 MSTORE MLOAD SWAP1 DUP2 SWAP1 SUB PUSH1 0x20 ADD SWAP1 RETURN JUMPDEST PUSH2 0x228 PUSH1 0x4 DUP1 CALLDATASIZE SUB PUSH1 0x20 DUP2 LT ISZERO PUSH2 0x215 JUMPI PUSH1 0x0 DUP1 REVERT JUMPDEST POP CALLDATALOAD PUSH10 0xFFFFFFFFFFFFFFFFFFFF AND PUSH2 0x568 JUMP JUMPDEST PUSH1 0x40 MLOAD DUP1 DUP7 PUSH10 0xFFFFFFFFFFFFFFFFFFFF AND DUP2 MSTORE PUSH1 0x20 ADD DUP6 DUP2 MSTORE PUSH1 0x20 ADD DUP5 DUP2 MSTORE PUSH1 0x20 ADD DUP4 DUP2 MSTORE PUSH1 0x20 ADD DUP3 PUSH10 0xFFFFFFFFFFFFFFFFFFFF AND DUP2 MSTORE PUSH1 0x20 ADD SWAP6 POP POP POP POP POP POP PUSH1 0x40 MLOAD DUP1 SWAP2 SUB SWAP1 RETURN JUMPDEST PUSH2 0x1C6 PUSH2 0x67A JUMP JUMPDEST PUSH2 0x282 PUSH2 0x73B JUMP JUMPDEST PUSH1 0x40 DUP1 MLOAD PUSH1 0x20 DUP1 DUP3 MSTORE DUP4 MLOAD DUP2 DUP4 ADD MSTORE DUP4 MLOAD SWAP2 SWAP3 DUP4 SWAP3 SWAP1 DUP4 ADD SWAP2 DUP6 ADD SWAP1 DUP1 DUP4 DUP4 PUSH1 0x0 JUMPDEST DUP4 DUP2 LT ISZERO PUSH2 0x2BC JUMPI DUP2 DUP2 ADD MLOAD DUP4 DUP3 ADD MSTORE PUSH1 0x20 ADD PUSH2 0x2A4 JUMP JUMPDEST POP POP POP POP SWAP1 POP SWAP1 DUP2 ADD SWAP1 PUSH1 0x1F AND DUP1 ISZERO PUSH2 0x2E9 JUMPI DUP1 DUP3 SUB DUP1 MLOAD PUSH1 0x1 DUP4 PUSH1 0x20 SUB PUSH2 0x100 EXP SUB NOT AND DUP2 MSTORE PUSH1 0x20 ADD SWAP2 POP JUMPDEST POP SWAP3 POP POP POP PUSH1 0x40 MLOAD DUP1 SWAP2 SUB SWAP1 RETURN JUMPDEST PUSH2 0x2FF PUSH2 0x880 JUMP JUMPDEST STOP JUMPDEST PUSH2 0x1C6 PUSH2 0x936 JUMP JUMPDEST PUSH2 0x184 PUSH2 0x989 JUMP JUMPDEST PUSH2 0x228 PUSH2 0x998 JUMP JUMPDEST PUSH2 0x228 PUSH1 0x4 DUP1 CALLDATASIZE SUB PUSH1 0x20 DUP2 LT ISZERO PUSH2 0x32F JUMPI PUSH1 0x0 DUP1 REVERT JUMPDEST POP CALLDATALOAD PUSH10 0xFFFFFFFFFFFFFFFFFFFF AND PUSH2 0xAA0 JUMP JUMPDEST PUSH2 0x2FF PUSH1 0x4 DUP1 CALLDATASIZE SUB PUSH1 0x20 DUP2 LT ISZERO PUSH2 0x358 JUMPI PUSH1 0x0 DUP1 REVERT JUMPDEST POP CALLDATALOAD PUSH1 0x1 PUSH1 0x1 PUSH1 0xA0 SHL SUB AND PUSH2 0xB9D JUMP JUMPDEST PUSH2 0x1C6 PUSH1 0x4 DUP1 CALLDATASIZE SUB PUSH1 0x20 DUP2 LT ISZERO PUSH2 0x37E JUMPI PUSH1 0x0 DUP1 REVERT JUMPDEST POP CALLDATALOAD PUSH2 0xC76 JUMP JUMPDEST PUSH2 0x1C6 PUSH1 0x4 DUP1 CALLDATASIZE SUB PUSH1 0x20 DUP2 LT ISZERO PUSH2 0x39B JUMPI PUSH1 0x0 DUP1 REVERT JUMPDEST POP CALLDATALOAD PUSH2 0xD56 JUMP JUMPDEST PUSH2 0x184 PUSH1 0x4 DUP1 CALLDATASIZE SUB PUSH1 0x20 DUP2 LT ISZERO PUSH2 0x3B8 JUMPI PUSH1 0x0 DUP1 REVERT JUMPDEST POP CALLDATALOAD PUSH2 0xFFFF AND PUSH2 0xDFF JUMP JUMPDEST PUSH2 0x184 PUSH2 0xE1E JUMP JUMPDEST PUSH2 0x2FF PUSH1 0x4 DUP1 CALLDATASIZE SUB PUSH1 0x20 DUP2 LT ISZERO PUSH2 0x3E1 JUMPI PUSH1 0x0 DUP1 REVERT JUMPDEST POP CALLDATALOAD PUSH1 0x1 PUSH1 0x1 PUSH1 0xA0 SHL SUB AND PUSH2 0xE2D JUMP JUMPDEST PUSH2 0x2FF PUSH1 0x4 DUP1 CALLDATASIZE SUB PUSH1 0x20 DUP2 LT ISZERO PUSH2 0x407 JUMPI PUSH1 0x0 DUP1 REVERT JUMPDEST POP CALLDATALOAD PUSH1 0x1 PUSH1 0x1 PUSH1 0xA0 SHL SUB AND PUSH2 0xE41 JUMP JUMPDEST PUSH2 0x228 PUSH2 0xEA2 JUMP JUMPDEST PUSH1 0x4 SLOAD PUSH3 0x10000 SWAP1 DIV PUSH1 0x1 PUSH1 0x1 PUSH1 0xA0 SHL SUB AND SWAP1 JUMP JUMPDEST PUSH1 0x0 PUSH1 0x4 PUSH1 0x0 ADD PUSH1 0x2 SWAP1 SLOAD SWAP1 PUSH2 0x100 EXP SWAP1 DIV PUSH1 0x1 PUSH1 0x1 PUSH1 0xA0 SHL SUB AND PUSH1 0x1 PUSH1 0x1 PUSH1 0xA0 SHL SUB AND PUSH4 0x313CE567 PUSH1 0x40 MLOAD DUP2 PUSH4 0xFFFFFFFF AND PUSH1 0xE0 SHL DUP2 MSTORE PUSH1 0x4 ADD PUSH1 0x20 PUSH1 0x40 MLOAD DUP1 DUP4 SUB DUP2 DUP7 DUP1 EXTCODESIZE ISZERO DUP1 ISZERO PUSH2 0x487 JUMPI PUSH1 0x0 DUP1 REVERT JUMPDEST POP GAS STATICCALL ISZERO DUP1 ISZERO PUSH2 0x49B JUMPI RETURNDATASIZE PUSH1 0x0 DUP1 RETURNDATACOPY RETURNDATASIZE PUSH1 0x0 REVERT JUMPDEST POP POP POP POP PUSH1 0x40 MLOAD RETURNDATASIZE PUSH1 0x20 DUP2 LT ISZERO PUSH2 0x4B1 JUMPI PUSH1 0x0 DUP1 REVERT JUMPDEST POP MLOAD SWAP1 POP SWAP1 JUMP JUMPDEST PUSH1 0x0 PUSH1 0x4 PUSH1 0x0 ADD PUSH1 0x2 SWAP1 SLOAD SWAP1 PUSH2 0x100 EXP SWAP1 DIV PUSH1 0x1 PUSH1 0x1 PUSH1 0xA0 SHL SUB AND PUSH1 0x1 PUSH1 0x1 PUSH1 0xA0 SHL SUB AND PUSH4 0x50D25BCD PUSH1 0x40 MLOAD DUP2 PUSH4 0xFFFFFFFF AND PUSH1 0xE0 SHL DUP2 MSTORE PUSH1 0x4 ADD PUSH1 0x20 PUSH1 0x40 MLOAD DUP1 DUP4 SUB DUP2 DUP7 DUP1 EXTCODESIZE ISZERO DUP1 ISZERO PUSH2 0x487 JUMPI PUSH1 0x0 DUP1 REVERT JUMPDEST PUSH1 0x0 PUSH1 0x4 PUSH1 0x0 ADD PUSH1 0x2 SWAP1 SLOAD SWAP1 PUSH2 0x100 EXP SWAP1 DIV PUSH1 0x1 PUSH1 0x1 PUSH1 0xA0 SHL SUB AND PUSH1 0x1 PUSH1 0x1 PUSH1 0xA0 SHL SUB AND PUSH4 0x54FD4D50 PUSH1 0x40 MLOAD DUP2 PUSH4 0xFFFFFFFF AND PUSH1 0xE0 SHL DUP2 MSTORE PUSH1 0x4 ADD PUSH1 0x20 PUSH1 0x40 MLOAD DUP1 DUP4 SUB DUP2 DUP7 DUP1 EXTCODESIZE ISZERO DUP1 ISZERO PUSH2 0x487 JUMPI PUSH1 0x0 DUP1 REVERT JUMPDEST PUSH1 0x4 SLOAD PUSH2 0xFFFF AND SWAP1 JUMP JUMPDEST PUSH1 0x2 SLOAD PUSH1 0x0 SWAP1 DUP2 SWAP1 DUP2 SWAP1 DUP2 SWAP1 DUP2 SWAP1 PUSH1 0x1 PUSH1 0x1 PUSH1 0xA0 SHL SUB AND PUSH2 0x5D0 JUMPI PUSH1 0x40 DUP1 MLOAD PUSH3 0x461BCD PUSH1 0xE5 SHL DUP2 MSTORE PUSH1 0x20 PUSH1 0x4 DUP3 ADD MSTORE PUSH1 0x1E PUSH1 0x24 DUP3 ADD MSTORE PUSH32 0x4E6F2070726F706F7365642061676772656761746F722070726573656E740000 PUSH1 0x44 DUP3 ADD MSTORE SWAP1 MLOAD SWAP1 DUP2 SWAP1 SUB PUSH1 0x64 ADD SWAP1 REVERT JUMPDEST PUSH1 0x2 SLOAD PUSH1 0x40 DUP1 MLOAD PUSH4 0x9A6FC8F5 PUSH1 0xE0 SHL DUP2 MSTORE PUSH10 0xFFFFFFFFFFFFFFFFFFFF DUP10 AND PUSH1 0x4 DUP3 ADD MSTORE SWAP1 MLOAD PUSH1 0x1 PUSH1 0x1 PUSH1 0xA0 SHL SUB SWAP1 SWAP3 AND SWAP2 PUSH4 0x9A6FC8F5 SWAP2 PUSH1 0x24 DUP1 DUP3 ADD SWAP3 PUSH1 0xA0 SWAP3 SWAP1 SWAP2 SWAP1 DUP3 SWAP1 SUB ADD DUP2 DUP7 DUP1 EXTCODESIZE ISZERO DUP1 ISZERO PUSH2 0x627 JUMPI PUSH1 0x0 DUP1 REVERT JUMPDEST POP GAS STATICCALL ISZERO DUP1 ISZERO PUSH2 0x63B JUMPI RETURNDATASIZE PUSH1 0x0 DUP1 RETURNDATACOPY RETURNDATASIZE PUSH1 0x0 REVERT JUMPDEST POP POP POP POP PUSH1 0x40 MLOAD RETURNDATASIZE PUSH1 0xA0 DUP2 LT ISZERO PUSH2 0x651 JUMPI PUSH1 0x0 DUP1 REVERT JUMPDEST POP DUP1 MLOAD PUSH1 0x20 DUP3 ADD MLOAD PUSH1 0x40 DUP4 ADD MLOAD PUSH1 0x60 DUP5 ADD MLOAD PUSH1 0x80 SWAP1 SWAP5 ADD MLOAD SWAP3 SWAP11 SWAP2 SWAP10 POP SWAP8 POP SWAP2 SWAP6 POP SWAP4 POP SWAP2 POP POP JUMP JUMPDEST PUSH1 0x40 DUP1 MLOAD DUP1 DUP3 ADD DUP3 MSTORE PUSH1 0x4 DUP1 SLOAD PUSH2 0xFFFF DUP2 AND DUP1 DUP5 MSTORE PUSH3 0x10000 SWAP1 SWAP2 DIV PUSH1 0x1 PUSH1 0x1 PUSH1 0xA0 SHL SUB AND PUSH1 0x20 DUP1 DUP6 ADD DUP3 SWAP1 MSTORE DUP6 MLOAD PUSH32 0x668A0F0200000000000000000000000000000000000000000000000000000000 DUP2 MSTORE SWAP6 MLOAD PUSH1 0x0 SWAP7 PUSH2 0x729 SWAP6 PUSH4 0x668A0F02 SWAP4 DUP3 DUP3 ADD SWAP4 SWAP1 SWAP3 SWAP1 SWAP2 SWAP1 DUP3 SWAP1 SUB ADD DUP2 DUP7 DUP1 EXTCODESIZE ISZERO DUP1 ISZERO PUSH2 0x6F8 JUMPI PUSH1 0x0 DUP1 REVERT JUMPDEST POP GAS STATICCALL ISZERO DUP1 ISZERO PUSH2 0x70C JUMPI RETURNDATASIZE PUSH1 0x0 DUP1 RETURNDATACOPY RETURNDATASIZE PUSH1 0x0 REVERT JUMPDEST POP POP POP POP PUSH1 0x40 MLOAD RETURNDATASIZE PUSH1 0x20 DUP2 LT ISZERO PUSH2 0x722 JUMPI PUSH1 0x0 DUP1 REVERT JUMPDEST POP MLOAD PUSH2 0xF9C JUMP JUMPDEST PUSH10 0xFFFFFFFFFFFFFFFFFFFF AND SWAP2 POP POP SWAP1 JUMP JUMPDEST PUSH1 0x60 PUSH1 0x4 PUSH1 0x0 ADD PUSH1 0x2 SWAP1 SLOAD SWAP1 PUSH2 0x100 EXP SWAP1 DIV PUSH1 0x1 PUSH1 0x1 PUSH1 0xA0 SHL SUB AND PUSH1 0x1 PUSH1 0x1 PUSH1 0xA0 SHL SUB AND PUSH4 0x7284E416 PUSH1 0x40 MLOAD DUP2 PUSH4 0xFFFFFFFF AND PUSH1 0xE0 SHL DUP2 MSTORE PUSH1 0x4 ADD PUSH1 0x0 PUSH1 0x40 MLOAD DUP1 DUP4 SUB DUP2 DUP7 DUP1 EXTCODESIZE ISZERO DUP1 ISZERO PUSH2 0x78E JUMPI PUSH1 0x0 DUP1 REVERT JUMPDEST POP GAS STATICCALL ISZERO DUP1 ISZERO PUSH2 0x7A2 JUMPI RETURNDATASIZE PUSH1 0x0 DUP1 RETURNDATACOPY RETURNDATASIZE PUSH1 0x0 REVERT JUMPDEST POP POP POP POP PUSH1 0x40 MLOAD RETURNDATASIZE PUSH1 0x0 DUP3 RETURNDATACOPY PUSH1 0x1F RETURNDATASIZE SWAP1 DUP2 ADD PUSH1 0x1F NOT AND DUP3 ADD PUSH1 0x40 MSTORE PUSH1 0x20 DUP2 LT ISZERO PUSH2 0x7CB JUMPI PUSH1 0x0 DUP1 REVERT JUMPDEST DUP2 ADD SWAP1 DUP1 DUP1 MLOAD PUSH1 0x40 MLOAD SWAP4 SWAP3 SWAP2 SWAP1 DUP5 PUSH5 0x100000000 DUP3 GT ISZERO PUSH2 0x7EB JUMPI PUSH1 0x0 DUP1 REVERT JUMPDEST SWAP1 DUP4 ADD SWAP1 PUSH1 0x20 DUP3 ADD DUP6 DUP2 GT ISZERO PUSH2 0x800 JUMPI PUSH1 0x0 DUP1 REVERT JUMPDEST DUP3 MLOAD PUSH5 0x100000000 DUP2 GT DUP3 DUP3 ADD DUP9 LT OR ISZERO PUSH2 0x81A JUMPI PUSH1 0x0 DUP1 REVERT JUMPDEST DUP3 MSTORE POP DUP2 MLOAD PUSH1 0x20 SWAP2 DUP3 ADD SWAP3 SWAP1 SWAP2 ADD SWAP1 DUP1 DUP4 DUP4 PUSH1 0x0 JUMPDEST DUP4 DUP2 LT ISZERO PUSH2 0x847 JUMPI DUP2 DUP2 ADD MLOAD DUP4 DUP3 ADD MSTORE PUSH1 0x20 ADD PUSH2 0x82F JUMP JUMPDEST POP POP POP POP SWAP1 POP SWAP1 DUP2 ADD SWAP1 PUSH1 0x1F AND DUP1 ISZERO PUSH2 0x874 JUMPI DUP1 DUP3 SUB DUP1 MLOAD PUSH1 0x1 DUP4 PUSH1 0x20 SUB PUSH2 0x100 EXP SUB NOT AND DUP2 MSTORE PUSH1 0x20 ADD SWAP2 POP JUMPDEST POP PUSH1 0x40 MSTORE POP POP POP SWAP1 POP SWAP1 JUMP JUMPDEST PUSH1 0x1 SLOAD PUSH1 0x1 PUSH1 0x1 PUSH1 0xA0 SHL SUB AND CALLER EQ PUSH2 0x8DF JUMPI PUSH1 0x40 DUP1 MLOAD PUSH3 0x461BCD PUSH1 0xE5 SHL DUP2 MSTORE PUSH1 0x20 PUSH1 0x4 DUP3 ADD MSTORE PUSH1 0x16 PUSH1 0x24 DUP3 ADD MSTORE PUSH32 0x4D7573742062652070726F706F736564206F776E657200000000000000000000 PUSH1 0x44 DUP3 ADD MSTORE SWAP1 MLOAD SWAP1 DUP2 SWAP1 SUB PUSH1 0x64 ADD SWAP1 REVERT JUMPDEST PUSH1 0x0 DUP1 SLOAD CALLER PUSH1 0x1 PUSH1 0x1 PUSH1 0xA0 SHL SUB NOT DUP1 DUP4 AND DUP3 OR DUP5 SSTORE PUSH1 0x1 DUP1 SLOAD SWAP1 SWAP2 AND SWAP1 SSTORE PUSH1 0x40 MLOAD PUSH1 0x1 PUSH1 0x1 PUSH1 0xA0 SHL SUB SWAP1 SWAP3 AND SWAP3 SWAP1 SWAP2 DUP4 SWAP2 PUSH32 0x8BE0079C531659141344CD1FD0A4F28419497F9722A3DAAFE3B4186F6B6457E0 SWAP2 LOG3 POP JUMP JUMPDEST PUSH1 0x0 PUSH1 0x4 PUSH1 0x0 ADD PUSH1 0x2 SWAP1 SLOAD SWAP1 PUSH2 0x100 EXP SWAP1 DIV PUSH1 0x1 PUSH1 0x1 PUSH1 0xA0 SHL SUB AND PUSH1 0x1 PUSH1 0x1 PUSH1 0xA0 SHL SUB AND PUSH4 0x8205BF6A PUSH1 0x40 MLOAD DUP2 PUSH4 0xFFFFFFFF AND PUSH1 0xE0 SHL DUP2 MSTORE PUSH1 0x4 ADD PUSH1 0x20 PUSH1 0x40 MLOAD DUP1 DUP4 SUB DUP2 DUP7 DUP1 EXTCODESIZE ISZERO DUP1 ISZERO PUSH2 0x487 JUMPI PUSH1 0x0 DUP1 REVERT JUMPDEST PUSH1 0x0 SLOAD PUSH1 0x1 PUSH1 0x1 PUSH1 0xA0 SHL SUB AND SWAP1 JUMP JUMPDEST PUSH1 0x2 SLOAD PUSH1 0x0 SWAP1 DUP2 SWAP1 DUP2 SWAP1 DUP2 SWAP1 DUP2 SWAP1 PUSH1 0x1 PUSH1 0x1 PUSH1 0xA0 SHL SUB AND PUSH2 0xA00 JUMPI PUSH1 0x40 DUP1 MLOAD PUSH3 0x461BCD PUSH1 0xE5 SHL DUP2 MSTORE PUSH1 0x20 PUSH1 0x4 DUP3 ADD MSTORE PUSH1 0x1E PUSH1 0x24 DUP3 ADD MSTORE PUSH32 0x4E6F2070726F706F7365642061676772656761746F722070726573656E740000 PUSH1 0x44 DUP3 ADD MSTORE SWAP1 MLOAD SWAP1 DUP2 SWAP1 SUB PUSH1 0x64 ADD SWAP1 REVERT JUMPDEST PUSH1 0x2 PUSH1 0x0 SWAP1 SLOAD SWAP1 PUSH2 0x100 EXP SWAP1 DIV PUSH1 0x1 PUSH1 0x1 PUSH1 0xA0 SHL SUB AND PUSH1 0x1 PUSH1 0x1 PUSH1 0xA0 SHL SUB AND PUSH4 0xFEAF968C PUSH1 0x40 MLOAD DUP2 PUSH4 0xFFFFFFFF AND PUSH1 0xE0 SHL DUP2 MSTORE PUSH1 0x4 ADD PUSH1 0xA0 PUSH1 0x40 MLOAD DUP1 DUP4 SUB DUP2 DUP7 DUP1 EXTCODESIZE ISZERO DUP1 ISZERO PUSH2 0xA4E JUMPI PUSH1 0x0 DUP1 REVERT JUMPDEST POP GAS STATICCALL ISZERO DUP1 ISZERO PUSH2 0xA62 JUMPI RETURNDATASIZE PUSH1 0x0 DUP1 RETURNDATACOPY RETURNDATASIZE PUSH1 0x0 REVERT JUMPDEST POP POP POP POP PUSH1 0x40 MLOAD RETURNDATASIZE PUSH1 0xA0 DUP2 LT ISZERO PUSH2 0xA78 JUMPI PUSH1 0x0 DUP1 REVERT JUMPDEST POP DUP1 MLOAD PUSH1 0x20 DUP3 ADD MLOAD PUSH1 0x40 DUP4 ADD MLOAD PUSH1 0x60 DUP5 ADD MLOAD PUSH1 0x80 SWAP1 SWAP5 ADD MLOAD SWAP3 SWAP10 SWAP2 SWAP9 POP SWAP7 POP SWAP2 SWAP5 POP SWAP3 POP SWAP1 POP JUMP JUMPDEST PUSH1 0x0 DUP1 PUSH1 0x0 DUP1 PUSH1 0x0 DUP1 PUSH1 0x0 PUSH2 0xAC0 DUP9 PUSH10 0xFFFFFFFFFFFFFFFFFFFF AND PUSH2 0xFBC JUMP JUMPDEST PUSH2 0xFFFF DUP3 AND PUSH1 0x0 SWAP1 DUP2 MSTORE PUSH1 0x3 PUSH1 0x20 MSTORE PUSH1 0x40 SWAP1 DUP2 SWAP1 KECCAK256 SLOAD DUP2 MLOAD PUSH4 0x9A6FC8F5 PUSH1 0xE0 SHL DUP2 MSTORE PUSH8 0xFFFFFFFFFFFFFFFF DUP5 AND PUSH1 0x4 DUP3 ADD MSTORE SWAP2 MLOAD SWAP4 SWAP6 POP SWAP2 SWAP4 POP PUSH1 0x1 PUSH1 0x1 PUSH1 0xA0 SHL SUB SWAP1 SWAP2 AND SWAP2 PUSH4 0x9A6FC8F5 SWAP2 PUSH1 0x24 DUP1 DUP3 ADD SWAP3 PUSH1 0xA0 SWAP3 SWAP1 SWAP2 SWAP1 DUP3 SWAP1 SUB ADD DUP2 DUP7 DUP1 EXTCODESIZE ISZERO DUP1 ISZERO PUSH2 0xB2C JUMPI PUSH1 0x0 DUP1 REVERT JUMPDEST POP GAS STATICCALL ISZERO DUP1 ISZERO PUSH2 0xB40 JUMPI RETURNDATASIZE PUSH1 0x0 DUP1 RETURNDATACOPY RETURNDATASIZE PUSH1 0x0 REVERT JUMPDEST POP POP POP POP PUSH1 0x40 MLOAD RETURNDATASIZE PUSH1 0xA0 DUP2 LT ISZERO PUSH2 0xB56 JUMPI PUSH1 0x0 DUP1 REVERT JUMPDEST POP DUP1 MLOAD PUSH1 0x20 DUP3 ADD MLOAD PUSH1 0x40 DUP4 ADD MLOAD PUSH1 0x60 DUP5 ADD MLOAD PUSH1 0x80 SWAP1 SWAP5 ADD MLOAD SWAP3 SWAP11 POP SWAP1 SWAP9 POP SWAP7 POP SWAP1 SWAP5 POP SWAP3 POP PUSH2 0xB89 DUP8 DUP8 DUP8 DUP8 DUP8 DUP8 PUSH2 0xFC4 JUMP JUMPDEST SWAP4 SWAP13 SWAP3 SWAP12 POP SWAP1 SWAP10 POP SWAP8 POP SWAP1 SWAP6 POP SWAP4 POP POP POP POP JUMP JUMPDEST PUSH2 0xBA5 PUSH2 0xFFA JUMP JUMPDEST PUSH1 0x2 SLOAD PUSH1 0x1 PUSH1 0x1 PUSH1 0xA0 SHL SUB DUP3 DUP2 AND SWAP2 AND EQ PUSH2 0xC07 JUMPI PUSH1 0x40 DUP1 MLOAD PUSH3 0x461BCD PUSH1 0xE5 SHL DUP2 MSTORE PUSH1 0x20 PUSH1 0x4 DUP3 ADD MSTORE PUSH1 0x1B PUSH1 0x24 DUP3 ADD MSTORE PUSH32 0x496E76616C69642070726F706F7365642061676772656761746F720000000000 PUSH1 0x44 DUP3 ADD MSTORE SWAP1 MLOAD SWAP1 DUP2 SWAP1 SUB PUSH1 0x64 ADD SWAP1 REVERT JUMPDEST PUSH1 0x4 SLOAD PUSH1 0x2 DUP1 SLOAD PUSH1 0x1 PUSH1 0x1 PUSH1 0xA0 SHL SUB NOT AND SWAP1 SSTORE PUSH3 0x10000 SWAP1 DIV PUSH1 0x1 PUSH1 0x1 PUSH1 0xA0 SHL SUB AND PUSH2 0xC32 DUP3 PUSH2 0x105B JUMP JUMPDEST DUP2 PUSH1 0x1 PUSH1 0x1 PUSH1 0xA0 SHL SUB AND DUP2 PUSH1 0x1 PUSH1 0x1 PUSH1 0xA0 SHL SUB AND PUSH32 0x33745F67A407DCB785417F9C123DD3641479A102674B6E35C1F10975625B90E9 PUSH1 0x40 MLOAD PUSH1 0x40 MLOAD DUP1 SWAP2 SUB SWAP1 LOG3 POP POP JUMP JUMPDEST PUSH1 0x0 PUSH10 0xFFFFFFFFFFFFFFFFFFFF DUP3 GT ISZERO PUSH2 0xC92 JUMPI POP PUSH1 0x0 PUSH2 0xD51 JUMP JUMPDEST PUSH1 0x0 DUP1 PUSH2 0xC9E DUP5 PUSH2 0xFBC JUMP JUMPDEST PUSH2 0xFFFF DUP3 AND PUSH1 0x0 SWAP1 DUP2 MSTORE PUSH1 0x3 PUSH1 0x20 MSTORE PUSH1 0x40 SWAP1 KECCAK256 SLOAD SWAP2 SWAP4 POP SWAP2 POP PUSH1 0x1 PUSH1 0x1 PUSH1 0xA0 SHL SUB AND DUP1 PUSH2 0xCD1 JUMPI PUSH1 0x0 SWAP4 POP POP POP POP PUSH2 0xD51 JUMP JUMPDEST DUP1 PUSH1 0x1 PUSH1 0x1 PUSH1 0xA0 SHL SUB AND PUSH4 0xB5AB58DC DUP4 PUSH1 0x40 MLOAD DUP3 PUSH4 0xFFFFFFFF AND PUSH1 0xE0 SHL DUP2 MSTORE PUSH1 0x4 ADD DUP1 DUP3 PUSH8 0xFFFFFFFFFFFFFFFF AND DUP2 MSTORE PUSH1 0x20 ADD SWAP2 POP POP PUSH1 0x20 PUSH1 0x40 MLOAD DUP1 DUP4 SUB DUP2 DUP7 DUP1 EXTCODESIZE ISZERO DUP1 ISZERO PUSH2 0xD1F JUMPI PUSH1 0x0 DUP1 REVERT JUMPDEST POP GAS STATICCALL ISZERO DUP1 ISZERO PUSH2 0xD33 JUMPI RETURNDATASIZE PUSH1 0x0 DUP1 RETURNDATACOPY RETURNDATASIZE PUSH1 0x0 REVERT JUMPDEST POP POP POP POP PUSH1 0x40 MLOAD RETURNDATASIZE PUSH1 0x20 DUP2 LT ISZERO PUSH2 0xD49 JUMPI PUSH1 0x0 DUP1 REVERT JUMPDEST POP MLOAD SWAP4 POP POP POP POP JUMPDEST SWAP2 SWAP1 POP JUMP JUMPDEST PUSH1 0x0 PUSH10 0xFFFFFFFFFFFFFFFFFFFF DUP3 GT ISZERO PUSH2 0xD72 JUMPI POP PUSH1 0x0 PUSH2 0xD51 JUMP JUMPDEST PUSH1 0x0 DUP1 PUSH2 0xD7E DUP5 PUSH2 0xFBC JUMP JUMPDEST PUSH2 0xFFFF DUP3 AND PUSH1 0x0 SWAP1 DUP2 MSTORE PUSH1 0x3 PUSH1 0x20 MSTORE PUSH1 0x40 SWAP1 KECCAK256 SLOAD SWAP2 SWAP4 POP SWAP2 POP PUSH1 0x1 PUSH1 0x1 PUSH1 0xA0 SHL SUB AND DUP1 PUSH2 0xDB1 JUMPI PUSH1 0x0 SWAP4 POP POP POP POP PUSH2 0xD51 JUMP JUMPDEST DUP1 PUSH1 0x1 PUSH1 0x1 PUSH1 0xA0 SHL SUB AND PUSH4 0xB633620C DUP4 PUSH1 0x40 MLOAD DUP3 PUSH4 0xFFFFFFFF AND PUSH1 0xE0 SHL DUP2 MSTORE PUSH1 0x4 ADD DUP1 DUP3 PUSH8 0xFFFFFFFFFFFFFFFF AND DUP2 MSTORE PUSH1 0x20 ADD SWAP2 POP POP PUSH1 0x20 PUSH1 0x40 MLOAD DUP1 DUP4 SUB DUP2 DUP7 DUP1 EXTCODESIZE ISZERO DUP1 ISZERO PUSH2 0xD1F JUMPI PUSH1 0x0 DUP1 REVERT JUMPDEST PUSH2 0xFFFF AND PUSH1 0x0 SWAP1 DUP2 MSTORE PUSH1 0x3 PUSH1 0x20 MSTORE PUSH1 0x40 SWAP1 KECCAK256 SLOAD PUSH1 0x1 PUSH1 0x1 PUSH1 0xA0 SHL SUB AND SWAP1 JUMP JUMPDEST PUSH1 0x2 SLOAD PUSH1 0x1 PUSH1 0x1 PUSH1 0xA0 SHL SUB AND SWAP1 JUMP JUMPDEST PUSH2 0xE35 PUSH2 0xFFA JUMP JUMPDEST PUSH2 0xE3E DUP2 PUSH2 0x10E0 JUMP JUMPDEST POP JUMP JUMPDEST PUSH2 0xE49 PUSH2 0xFFA JUMP JUMPDEST PUSH1 0x2 DUP1 SLOAD PUSH1 0x1 PUSH1 0x1 PUSH1 0xA0 SHL SUB NOT AND PUSH1 0x1 PUSH1 0x1 PUSH1 0xA0 SHL SUB DUP4 DUP2 AND SWAP2 DUP3 OR SWAP1 SWAP3 SSTORE PUSH1 0x4 SLOAD PUSH1 0x40 MLOAD SWAP2 SWAP3 PUSH3 0x10000 SWAP1 SWAP2 DIV AND SWAP1 PUSH32 0xC0F151710F03D713B71D9970CEE0D5B11DDC9A7552ABAA3F6EE818010F21600D SWAP1 PUSH1 0x0 SWAP1 LOG3 POP JUMP JUMPDEST PUSH1 0x40 DUP1 MLOAD DUP1 DUP3 ADD DUP3 MSTORE PUSH1 0x4 DUP1 SLOAD PUSH2 0xFFFF DUP2 AND DUP4 MSTORE PUSH3 0x10000 SWAP1 DIV PUSH1 0x1 PUSH1 0x1 PUSH1 0xA0 SHL SUB AND PUSH1 0x20 DUP4 ADD DUP2 SWAP1 MSTORE DUP4 MLOAD PUSH32 0xFEAF968C00000000000000000000000000000000000000000000000000000000 DUP2 MSTORE SWAP4 MLOAD PUSH1 0x0 SWAP5 DUP6 SWAP5 DUP6 SWAP5 DUP6 SWAP5 DUP6 SWAP5 SWAP3 SWAP4 SWAP1 SWAP3 PUSH4 0xFEAF968C SWAP3 DUP3 DUP2 ADD SWAP3 PUSH1 0xA0 SWAP3 SWAP2 SWAP1 DUP3 SWAP1 SUB ADD DUP2 DUP7 DUP1 EXTCODESIZE ISZERO DUP1 ISZERO PUSH2 0xF25 JUMPI PUSH1 0x0 DUP1 REVERT JUMPDEST POP GAS STATICCALL ISZERO DUP1 ISZERO PUSH2 0xF39 JUMPI RETURNDATASIZE PUSH1 0x0 DUP1 RETURNDATACOPY RETURNDATASIZE PUSH1 0x0 REVERT JUMPDEST POP POP POP POP PUSH1 0x40 MLOAD RETURNDATASIZE PUSH1 0xA0 DUP2 LT ISZERO PUSH2 0xF4F JUMPI PUSH1 0x0 DUP1 REVERT JUMPDEST POP DUP1 MLOAD PUSH1 0x20 DUP3 ADD MLOAD PUSH1 0x40 DUP4 ADD MLOAD PUSH1 0x60 DUP5 ADD MLOAD PUSH1 0x80 SWAP1 SWAP5 ADD MLOAD DUP6 MLOAD SWAP4 SWAP11 POP SWAP2 SWAP9 POP SWAP7 POP SWAP2 SWAP5 POP SWAP1 SWAP3 POP PUSH2 0xF8A SWAP1 DUP8 SWAP1 DUP8 SWAP1 DUP8 SWAP1 DUP8 SWAP1 DUP8 SWAP1 PUSH2 0xFC4 JUMP JUMPDEST SWAP6 POP SWAP6 POP SWAP6 POP SWAP6 POP SWAP6 POP POP SWAP1 SWAP2 SWAP3 SWAP4 SWAP5 JUMP JUMPDEST PUSH8 0xFFFFFFFFFFFFFFFF AND PUSH1 0x40 SWAP2 SWAP1 SWAP2 SHL PUSH10 0xFFFF0000000000000000 AND OR SWAP1 JUMP JUMPDEST PUSH1 0x40 DUP2 SWAP1 SHR SWAP2 JUMP JUMPDEST PUSH1 0x0 DUP1 PUSH1 0x0 DUP1 PUSH1 0x0 PUSH2 0xFD6 DUP7 DUP13 PUSH2 0xF9C JUMP JUMPDEST DUP11 DUP11 DUP11 PUSH2 0xFE3 DUP11 DUP13 PUSH2 0xF9C JUMP JUMPDEST SWAP4 SWAP16 SWAP3 SWAP15 POP SWAP1 SWAP13 POP SWAP11 POP SWAP1 SWAP9 POP SWAP7 POP POP POP POP POP POP POP JUMP JUMPDEST PUSH1 0x0 SLOAD PUSH1 0x1 PUSH1 0x1 PUSH1 0xA0 SHL SUB AND CALLER EQ PUSH2 0x1059 JUMPI PUSH1 0x40 DUP1 MLOAD PUSH3 0x461BCD PUSH1 0xE5 SHL DUP2 MSTORE PUSH1 0x20 PUSH1 0x4 DUP3 ADD MSTORE PUSH1 0x16 PUSH1 0x24 DUP3 ADD MSTORE PUSH32 0x4F6E6C792063616C6C61626C65206279206F776E657200000000000000000000 PUSH1 0x44 DUP3 ADD MSTORE SWAP1 MLOAD SWAP1 DUP2 SWAP1 SUB PUSH1 0x64 ADD SWAP1 REVERT JUMPDEST JUMP JUMPDEST PUSH1 0x4 DUP1 SLOAD PUSH1 0x40 DUP1 MLOAD DUP1 DUP3 ADD DUP3 MSTORE PUSH1 0x1 PUSH2 0xFFFF DUP1 DUP6 AND SWAP2 SWAP1 SWAP2 ADD AND DUP1 DUP3 MSTORE PUSH1 0x1 PUSH1 0x1 PUSH1 0xA0 SHL SUB SWAP6 SWAP1 SWAP6 AND PUSH1 0x20 SWAP2 DUP3 ADD DUP2 SWAP1 MSTORE PUSH2 0xFFFF NOT SWAP1 SWAP4 AND DUP6 OR PUSH32 0xFFFFFFFFFFFFFFFFFFFF0000000000000000000000000000000000000000FFFF AND PUSH3 0x10000 DUP5 MUL OR SWAP1 SWAP4 SSTORE PUSH1 0x0 SWAP4 DUP5 MSTORE PUSH1 0x3 SWAP1 SWAP3 MSTORE SWAP2 KECCAK256 DUP1 SLOAD PUSH1 0x1 PUSH1 0x1 PUSH1 0xA0 SHL SUB NOT AND SWAP1 SWAP2 OR SWAP1 SSTORE JUMP JUMPDEST PUSH1 0x1 PUSH1 0x1 PUSH1 0xA0 SHL SUB DUP2 AND CALLER EQ ISZERO PUSH2 0x113E JUMPI PUSH1 0x40 DUP1 MLOAD PUSH3 0x461BCD PUSH1 0xE5 SHL DUP2 MSTORE PUSH1 0x20 PUSH1 0x4 DUP3 ADD MSTORE PUSH1 0x17 PUSH1 0x24 DUP3 ADD MSTORE PUSH32 0x43616E6E6F74207472616E7366657220746F2073656C66000000000000000000 PUSH1 0x44 DUP3 ADD MSTORE SWAP1 MLOAD SWAP1 DUP2 SWAP1 SUB PUSH1 0x64 ADD SWAP1 REVERT JUMPDEST PUSH1 0x1 DUP1 SLOAD PUSH1 0x1 PUSH1 0x1 PUSH1 0xA0 SHL SUB NOT AND PUSH1 0x1 PUSH1 0x1 PUSH1 0xA0 SHL SUB DUP4 DUP2 AND SWAP2 DUP3 OR SWAP1 SWAP3 SSTORE PUSH1 0x0 DUP1 SLOAD PUSH1 0x40 MLOAD SWAP3 SWAP4 AND SWAP2 PUSH32 0xED8889F560326EB138920D842192F0EB3DD22B4F139C87A2C57538E05BAE1278 SWAP2 SWAP1 LOG3 POP JUMP INVALID LOG2 PUSH5 0x6970667358 0x22 SLT KECCAK256 NOT 0x2D JUMPI 0x2A 0x4A DIFFICULTY 0xA6 0xBF PUSH24 0xCAFC414753463FCB816D7355899638A7DE5577A2132CCF64 PUSH20 0x6F6C634300070600330000000000000000000000 "
				},
				"gasEstimates": {
					"creation": {
						"codeDepositCost": "909800",
						"executionCost": "infinite",
						"totalCost": "infinite"
					},
					"external": {
						"acceptOwnership()": "44266",
						"aggregator()": "1095",
						"confirmAggregator(address)": "67125",
						"decimals()": "infinite",
						"description()": "infinite",
						"getAnswer(uint256)": "infinite",
						"getRoundData(uint80)": "infinite",
						"getTimestamp(uint256)": "infinite",
						"latestAnswer()": "infinite",
						"latestRound()": "infinite",
						"latestRoundData()": "infinite",
						"latestTimestamp()": "infinite",
						"owner()": "1083",
						"phaseAggregators(uint16)": "1224",
						"phaseId()": "1103",
						"proposeAggregator(address)": "24349",
						"proposedAggregator()": "1126",
						"proposedGetRoundData(uint80)": "infinite",
						"proposedLatestRoundData()": "infinite",
						"transferOwnership(address)": "24385",
						"version()": "infinite"
					},
					"internal": {
						"addPhase(uint16,uint64)": "42",
						"addPhaseIds(uint80,int256,uint256,uint256,uint80,uint16)": "infinite",
						"parseIds(uint256)": "24",
						"setAggregator(address)": "infinite"
					}
				},
				"methodIdentifiers": {
					"acceptOwnership()": "79ba5097",
					"aggregator()": "245a7bfc",
					"confirmAggregator(address)": "a928c096",
					"decimals()": "313ce567",
					"description()": "7284e416",
					"getAnswer(uint256)": "b5ab58dc",
					"getRoundData(uint80)": "9a6fc8f5",
					"getTimestamp(uint256)": "b633620c",
					"latestAnswer()": "50d25bcd",
					"latestRound()": "668a0f02",
					"latestRoundData()": "feaf968c",
					"latestTimestamp()": "8205bf6a",
					"owner()": "8da5cb5b",
					"phaseAggregators(uint16)": "c1597304",
					"phaseId()": "58303b10",
					"proposeAggregator(address)": "f8a2abd3",
					"proposedAggregator()": "e8c4be30",
					"proposedGetRoundData(uint80)": "6001ac53",
					"proposedLatestRoundData()": "8f6b4d91",
					"transferOwnership(address)": "f2fde38b",
					"version()": "54fd4d50"
				}
			},
			"storageLayout": {
				"storage": [
					{
						"astId": 247,
						"contract": "https://github.com/smartcontractkit/chainlink/blob/master/contracts/src/v0.7/dev/AggregatorProxy.sol:AggregatorProxy",
						"label": "s_owner",
						"offset": 0,
						"slot": "0",
						"type": "t_address"
					},
					{
						"astId": 249,
						"contract": "https://github.com/smartcontractkit/chainlink/blob/master/contracts/src/v0.7/dev/AggregatorProxy.sol:AggregatorProxy",
						"label": "s_pendingOwner",
						"offset": 0,
						"slot": "1",
						"type": "t_address"
					},
					{
						"astId": 417,
						"contract": "https://github.com/smartcontractkit/chainlink/blob/master/contracts/src/v0.7/dev/AggregatorProxy.sol:AggregatorProxy",
						"label": "s_proposedAggregator",
						"offset": 0,
						"slot": "2",
						"type": "t_contract(AggregatorProxyInterface)1154"
					},
					{
						"astId": 421,
						"contract": "https://github.com/smartcontractkit/chainlink/blob/master/contracts/src/v0.7/dev/AggregatorProxy.sol:AggregatorProxy",
						"label": "s_phaseAggregators",
						"offset": 0,
						"slot": "3",
						"type": "t_mapping(t_uint16,t_contract(AggregatorProxyInterface)1154)"
					},
					{
						"astId": 423,
						"contract": "https://github.com/smartcontractkit/chainlink/blob/master/contracts/src/v0.7/dev/AggregatorProxy.sol:AggregatorProxy",
						"label": "s_currentPhase",
						"offset": 0,
						"slot": "4",
						"type": "t_struct(Phase)415_storage"
					}
				],
				"types": {
					"t_address": {
						"encoding": "inplace",
						"label": "address",
						"numberOfBytes": "20"
					},
					"t_contract(AggregatorProxyInterface)1154": {
						"encoding": "inplace",
						"label": "contract AggregatorProxyInterface",
						"numberOfBytes": "20"
					},
					"t_mapping(t_uint16,t_contract(AggregatorProxyInterface)1154)": {
						"encoding": "mapping",
						"key": "t_uint16",
						"label": "mapping(uint16 => contract AggregatorProxyInterface)",
						"numberOfBytes": "32",
						"value": "t_contract(AggregatorProxyInterface)1154"
					},
					"t_struct(Phase)415_storage": {
						"encoding": "inplace",
						"label": "struct AggregatorProxy.Phase",
						"members": [
							{
								"astId": 412,
								"contract": "https://github.com/smartcontractkit/chainlink/blob/master/contracts/src/v0.7/dev/AggregatorProxy.sol:AggregatorProxy",
								"label": "id",
								"offset": 0,
								"slot": "0",
								"type": "t_uint16"
							},
							{
								"astId": 414,
								"contract": "https://github.com/smartcontractkit/chainlink/blob/master/contracts/src/v0.7/dev/AggregatorProxy.sol:AggregatorProxy",
								"label": "aggregator",
								"offset": 2,
								"slot": "0",
								"type": "t_contract(AggregatorProxyInterface)1154"
							}
						],
						"numberOfBytes": "32"
					},
					"t_uint16": {
						"encoding": "inplace",
						"label": "uint16",
						"numberOfBytes": "2"
					}
				}
			},
			"userdoc": {
				"kind": "user",
				"methods": {
					"acceptOwnership()": {
						"notice": "Allows an ownership transfer to be completed by the recipient."
					},
					"aggregator()": {
						"notice": "returns the current phase's aggregator address."
					},
					"confirmAggregator(address)": {
						"notice": "Allows the owner to confirm and change the address to the proposed aggregator"
					},
					"decimals()": {
						"notice": "represents the number of decimals the aggregator responses represent."
					},
					"description()": {
						"notice": "returns the description of the aggregator the proxy points to."
					},
					"getAnswer(uint256)": {
						"notice": "get past rounds answers"
					},
					"getRoundData(uint80)": {
						"notice": "get data about a round. Consumers are encouraged to check that they're receiving fresh data by inspecting the updatedAt and answeredInRound return values. Note that different underlying implementations of AggregatorV3Interface have slightly different semantics for some of the return values. Consumers should determine what implementations they expect to receive data from and validate that they can properly handle return data from all of them."
					},
					"getTimestamp(uint256)": {
						"notice": "get block timestamp when an answer was last updated"
					},
					"latestAnswer()": {
						"notice": "Reads the current answer from aggregator delegated to."
					},
					"latestRound()": {
						"notice": "get the latest completed round where the answer was updated. This ID includes the proxy's phase, to make sure round IDs increase even when switching to a newly deployed aggregator."
					},
					"latestRoundData()": {
						"notice": "get data about the latest round. Consumers are encouraged to check that they're receiving fresh data by inspecting the updatedAt and answeredInRound return values. Note that different underlying implementations of AggregatorV3Interface have slightly different semantics for some of the return values. Consumers should determine what implementations they expect to receive data from and validate that they can properly handle return data from all of them."
					},
					"latestTimestamp()": {
						"notice": "Reads the last updated height from aggregator delegated to."
					},
					"owner()": {
						"notice": "Get the current owner"
					},
					"phaseAggregators(uint16)": {
						"notice": "return a phase aggregator using the phaseId"
					},
					"phaseId()": {
						"notice": "returns the current phase's ID."
					},
					"proposeAggregator(address)": {
						"notice": "Allows the owner to propose a new address for the aggregator"
					},
					"proposedAggregator()": {
						"notice": "returns the current proposed aggregator"
					},
					"proposedGetRoundData(uint80)": {
						"notice": "Used if an aggregator contract has been proposed."
					},
					"proposedLatestRoundData()": {
						"notice": "Used if an aggregator contract has been proposed."
					},
					"transferOwnership(address)": {
						"notice": "Allows an owner to begin transferring ownership to a new address, pending."
					},
					"version()": {
						"notice": "the version number representing the type of aggregator the proxy points to."
					}
				},
				"notice": "This contract provides a consistent address for the CurrentAnswerInterface but delegates where it reads from to the owner, who is trusted to update it.",
				"version": 1
			}
		}
	}
}