{
	"DataFeed/PriceConverter.sol": {
		"PriceConverter": {
			"abi": [
				{
					"inputs": [
						{
							"internalType": "address",
							"name": "_base",
							"type": "address"
						},
						{
							"internalType": "address",
							"name": "_quote",
							"type": "address"
						},
						{
							"internalType": "uint8",
							"name": "_decimals",
							"type": "uint8"
						}
					],
					"name": "getDerivedPrice",
					"outputs": [
						{
							"internalType": "int256",
							"name": "",
							"type": "int256"
						}
					],
					"stateMutability": "view",
					"type": "function"
				},
				{
					"inputs": [
						{
							"internalType": "int256",
							"name": "_price",
							"type": "int256"
						},
						{
							"internalType": "uint8",
							"name": "_priceDecimals",
							"type": "uint8"
						},
						{
							"internalType": "uint8",
							"name": "_decimals",
							"type": "uint8"
						}
					],
					"name": "scalePrice",
					"outputs": [
						{
							"internalType": "int256",
							"name": "",
							"type": "int256"
						}
					],
					"stateMutability": "pure",
					"type": "function"
				}
			],
			"devdoc": {
				"kind": "dev",
				"methods": {},
				"version": 1
			},
			"evm": {
				"assembly": "    /* \"DataFeed/PriceConverter.sol\":541:1847  contract PriceConverter {... */\n  mstore(0x40, 0x80)\n  callvalue\n  dup1\n  iszero\n  tag_1\n  jumpi\n  0x00\n  dup1\n  revert\ntag_1:\n  pop\n  dataSize(sub_0)\n  dup1\n  dataOffset(sub_0)\n  0x00\n  codecopy\n  0x00\n  return\nstop\n\nsub_0: assembly {\n        /* \"DataFeed/PriceConverter.sol\":541:1847  contract PriceConverter {... */\n      mstore(0x40, 0x80)\n      callvalue\n      dup1\n      iszero\n      tag_1\n      jumpi\n      0x00\n      dup1\n      revert\n    tag_1:\n      pop\n      jumpi(tag_2, lt(calldatasize, 0x04))\n      shr(0xe0, calldataload(0x00))\n      dup1\n      0x97436655\n      eq\n      tag_3\n      jumpi\n      dup1\n      0xd0a0758c\n      eq\n      tag_4\n      jumpi\n    tag_2:\n      0x00\n      dup1\n      revert\n        /* \"DataFeed/PriceConverter.sol\":571:1421  function getDerivedPrice(... */\n    tag_3:\n      tag_5\n      tag_6\n      calldatasize\n      0x04\n      tag_7\n      jump\t// in\n    tag_6:\n      tag_8\n      jump\t// in\n    tag_5:\n      mload(0x40)\n        /* \"#utility.yul\":874:899   */\n      swap1\n      dup2\n      mstore\n        /* \"#utility.yul\":862:864   */\n      0x20\n        /* \"#utility.yul\":847:865   */\n      add\n        /* \"DataFeed/PriceConverter.sol\":571:1421  function getDerivedPrice(... */\n      mload(0x40)\n      dup1\n      swap2\n      sub\n      swap1\n      return\n        /* \"DataFeed/PriceConverter.sol\":1427:1845  function scalePrice(... */\n    tag_4:\n      tag_5\n      tag_12\n      calldatasize\n      0x04\n      tag_13\n      jump\t// in\n    tag_12:\n      tag_14\n      jump\t// in\n        /* \"DataFeed/PriceConverter.sol\":571:1421  function getDerivedPrice(... */\n    tag_8:\n        /* \"DataFeed/PriceConverter.sol\":695:701  int256 */\n      0x00\n        /* \"DataFeed/PriceConverter.sol\":734:754  _decimals > uint8(0) */\n      0xff\n      dup3\n      and\n      iszero\n      dup1\n      iszero\n      swap1\n        /* \"DataFeed/PriceConverter.sol\":734:780  _decimals > uint8(0) && _decimals <= uint8(18) */\n      tag_17\n      jumpi\n      pop\n        /* \"DataFeed/PriceConverter.sol\":777:779  18 */\n      0x12\n        /* \"DataFeed/PriceConverter.sol\":758:780  _decimals <= uint8(18) */\n      0xff\n      dup4\n      and\n      gt\n      iszero\n        /* \"DataFeed/PriceConverter.sol\":734:780  _decimals > uint8(0) && _decimals <= uint8(18) */\n    tag_17:\n        /* \"DataFeed/PriceConverter.sol\":713:823  require(... */\n      tag_18\n      jumpi\n      mload(0x40)\n      0x08c379a000000000000000000000000000000000000000000000000000000000\n      dup2\n      mstore\n        /* \"#utility.yul\":1564:1566   */\n      0x20\n        /* \"DataFeed/PriceConverter.sol\":713:823  require(... */\n      0x04\n      dup3\n      add\n        /* \"#utility.yul\":1546:1567   */\n      mstore\n        /* \"#utility.yul\":1603:1605   */\n      0x11\n        /* \"#utility.yul\":1583:1601   */\n      0x24\n      dup3\n      add\n        /* \"#utility.yul\":1576:1606   */\n      mstore\n        /* \"#utility.yul\":1642:1661   */\n      0x496e76616c6964205f646563696d616c73000000000000000000000000000000\n        /* \"#utility.yul\":1622:1640   */\n      0x44\n      dup3\n      add\n        /* \"#utility.yul\":1615:1662   */\n      mstore\n        /* \"#utility.yul\":1679:1697   */\n      0x64\n      add\n        /* \"DataFeed/PriceConverter.sol\":713:823  require(... */\n      mload(0x40)\n      dup1\n      swap2\n      sub\n      swap1\n      revert\n    tag_18:\n        /* \"DataFeed/PriceConverter.sol\":833:848  int256 decimals */\n      0x00\n        /* \"DataFeed/PriceConverter.sol\":858:880  10**uint256(_decimals) */\n      tag_21\n        /* \"DataFeed/PriceConverter.sol\":862:880  uint256(_decimals) */\n      0xff\n      dup5\n      and\n        /* \"DataFeed/PriceConverter.sol\":858:860  10 */\n      0x0a\n        /* \"DataFeed/PriceConverter.sol\":858:880  10**uint256(_decimals) */\n      tag_22\n      jump\t// in\n    tag_21:\n        /* \"DataFeed/PriceConverter.sol\":833:881  int256 decimals = int256(10**uint256(_decimals)) */\n      swap1\n      pop\n        /* \"DataFeed/PriceConverter.sol\":894:910  int256 basePrice */\n      0x00\n        /* \"DataFeed/PriceConverter.sol\":942:947  _base */\n      dup6\n      sub(shl(0xa0, 0x01), 0x01)\n        /* \"DataFeed/PriceConverter.sol\":920:977  AggregatorV3Interface(_base)... */\n      and\n      0xfeaf968c\n        /* \"DataFeed/PriceConverter.sol\":920:979  AggregatorV3Interface(_base)... */\n      mload(0x40)\n      dup2\n      0xffffffff\n      and\n      0xe0\n      shl\n      dup2\n      mstore\n      0x04\n      add\n      0xa0\n      mload(0x40)\n      dup1\n      dup4\n      sub\n      dup2\n      dup7\n      gas\n      staticcall\n      iszero\n      dup1\n      iszero\n      tag_24\n      jumpi\n      returndatasize\n      0x00\n      dup1\n      returndatacopy\n      revert(0x00, returndatasize)\n    tag_24:\n      pop\n      pop\n      pop\n      pop\n      mload(0x40)\n      returndatasize\n      not(0x1f)\n      0x1f\n      dup3\n      add\n      and\n      dup3\n      add\n      dup1\n      0x40\n      mstore\n      pop\n      dup2\n      add\n      swap1\n      tag_25\n      swap2\n      swap1\n      tag_26\n      jump\t// in\n    tag_25:\n        /* \"DataFeed/PriceConverter.sol\":891:979  (, int256 basePrice, , , ) = AggregatorV3Interface(_base)... */\n      pop\n      pop\n      pop\n      swap2\n      pop\n      pop\n        /* \"DataFeed/PriceConverter.sol\":989:1007  uint8 baseDecimals */\n      0x00\n        /* \"DataFeed/PriceConverter.sol\":1032:1037  _base */\n      dup7\n      sub(shl(0xa0, 0x01), 0x01)\n        /* \"DataFeed/PriceConverter.sol\":1010:1047  AggregatorV3Interface(_base).decimals */\n      and\n      0x313ce567\n        /* \"DataFeed/PriceConverter.sol\":1010:1049  AggregatorV3Interface(_base).decimals() */\n      mload(0x40)\n      dup2\n      0xffffffff\n      and\n      0xe0\n      shl\n      dup2\n      mstore\n      0x04\n      add\n      0x20\n      mload(0x40)\n      dup1\n      dup4\n      sub\n      dup2\n      dup7\n      gas\n      staticcall\n      iszero\n      dup1\n      iszero\n      tag_28\n      jumpi\n      returndatasize\n      0x00\n      dup1\n      returndatacopy\n      revert(0x00, returndatasize)\n    tag_28:\n      pop\n      pop\n      pop\n      pop\n      mload(0x40)\n      returndatasize\n      not(0x1f)\n      0x1f\n      dup3\n      add\n      and\n      dup3\n      add\n      dup1\n      0x40\n      mstore\n      pop\n      dup2\n      add\n      swap1\n      tag_29\n      swap2\n      swap1\n      tag_30\n      jump\t// in\n    tag_29:\n        /* \"DataFeed/PriceConverter.sol\":989:1049  uint8 baseDecimals = AggregatorV3Interface(_base).decimals() */\n      swap1\n      pop\n        /* \"DataFeed/PriceConverter.sol\":1071:1117  scalePrice(basePrice, baseDecimals, _decimals) */\n      tag_31\n        /* \"DataFeed/PriceConverter.sol\":1082:1091  basePrice */\n      dup3\n        /* \"DataFeed/PriceConverter.sol\":1093:1105  baseDecimals */\n      dup3\n        /* \"DataFeed/PriceConverter.sol\":1107:1116  _decimals */\n      dup8\n        /* \"DataFeed/PriceConverter.sol\":1071:1081  scalePrice */\n      tag_14\n        /* \"DataFeed/PriceConverter.sol\":1071:1117  scalePrice(basePrice, baseDecimals, _decimals) */\n      jump\t// in\n    tag_31:\n        /* \"DataFeed/PriceConverter.sol\":1059:1117  basePrice = scalePrice(basePrice, baseDecimals, _decimals) */\n      swap2\n      pop\n        /* \"DataFeed/PriceConverter.sol\":1131:1148  int256 quotePrice */\n      0x00\n        /* \"DataFeed/PriceConverter.sol\":1180:1186  _quote */\n      dup7\n      sub(shl(0xa0, 0x01), 0x01)\n        /* \"DataFeed/PriceConverter.sol\":1158:1216  AggregatorV3Interface(_quote)... */\n      and\n      0xfeaf968c\n        /* \"DataFeed/PriceConverter.sol\":1158:1218  AggregatorV3Interface(_quote)... */\n      mload(0x40)\n      dup2\n      0xffffffff\n      and\n      0xe0\n      shl\n      dup2\n      mstore\n      0x04\n      add\n      0xa0\n      mload(0x40)\n      dup1\n      dup4\n      sub\n      dup2\n      dup7\n      gas\n      staticcall\n      iszero\n      dup1\n      iszero\n      tag_33\n      jumpi\n      returndatasize\n      0x00\n      dup1\n      returndatacopy\n      revert(0x00, returndatasize)\n    tag_33:\n      pop\n      pop\n      pop\n      pop\n      mload(0x40)\n      returndatasize\n      not(0x1f)\n      0x1f\n      dup3\n      add\n      and\n      dup3\n      add\n      dup1\n      0x40\n      mstore\n      pop\n      dup2\n      add\n      swap1\n      tag_34\n      swap2\n      swap1\n      tag_26\n      jump\t// in\n    tag_34:\n        /* \"DataFeed/PriceConverter.sol\":1128:1218  (, int256 quotePrice, , , ) = AggregatorV3Interface(_quote)... */\n      pop\n      pop\n      pop\n      swap2\n      pop\n      pop\n        /* \"DataFeed/PriceConverter.sol\":1228:1247  uint8 quoteDecimals */\n      0x00\n        /* \"DataFeed/PriceConverter.sol\":1272:1278  _quote */\n      dup8\n      sub(shl(0xa0, 0x01), 0x01)\n        /* \"DataFeed/PriceConverter.sol\":1250:1288  AggregatorV3Interface(_quote).decimals */\n      and\n      0x313ce567\n        /* \"DataFeed/PriceConverter.sol\":1250:1290  AggregatorV3Interface(_quote).decimals() */\n      mload(0x40)\n      dup2\n      0xffffffff\n      and\n      0xe0\n      shl\n      dup2\n      mstore\n      0x04\n      add\n      0x20\n      mload(0x40)\n      dup1\n      dup4\n      sub\n      dup2\n      dup7\n      gas\n      staticcall\n      iszero\n      dup1\n      iszero\n      tag_36\n      jumpi\n      returndatasize\n      0x00\n      dup1\n      returndatacopy\n      revert(0x00, returndatasize)\n    tag_36:\n      pop\n      pop\n      pop\n      pop\n      mload(0x40)\n      returndatasize\n      not(0x1f)\n      0x1f\n      dup3\n      add\n      and\n      dup3\n      add\n      dup1\n      0x40\n      mstore\n      pop\n      dup2\n      add\n      swap1\n      tag_37\n      swap2\n      swap1\n      tag_30\n      jump\t// in\n    tag_37:\n        /* \"DataFeed/PriceConverter.sol\":1228:1290  uint8 quoteDecimals = AggregatorV3Interface(_quote).decimals() */\n      swap1\n      pop\n        /* \"DataFeed/PriceConverter.sol\":1313:1361  scalePrice(quotePrice, quoteDecimals, _decimals) */\n      tag_38\n        /* \"DataFeed/PriceConverter.sol\":1324:1334  quotePrice */\n      dup3\n        /* \"DataFeed/PriceConverter.sol\":1336:1349  quoteDecimals */\n      dup3\n        /* \"DataFeed/PriceConverter.sol\":1351:1360  _decimals */\n      dup10\n        /* \"DataFeed/PriceConverter.sol\":1313:1323  scalePrice */\n      tag_14\n        /* \"DataFeed/PriceConverter.sol\":1313:1361  scalePrice(quotePrice, quoteDecimals, _decimals) */\n      jump\t// in\n    tag_38:\n        /* \"DataFeed/PriceConverter.sol\":1300:1361  quotePrice = scalePrice(quotePrice, quoteDecimals, _decimals) */\n      swap2\n      pop\n      dup2\n        /* \"DataFeed/PriceConverter.sol\":1380:1400  basePrice * decimals */\n      tag_39\n        /* \"DataFeed/PriceConverter.sol\":1392:1400  decimals */\n      dup7\n        /* \"DataFeed/PriceConverter.sol\":1380:1389  basePrice */\n      dup7\n        /* \"DataFeed/PriceConverter.sol\":1380:1400  basePrice * decimals */\n      tag_40\n      jump\t// in\n    tag_39:\n        /* \"DataFeed/PriceConverter.sol\":1379:1414  (basePrice * decimals) / quotePrice */\n      tag_41\n      swap2\n      swap1\n      tag_42\n      jump\t// in\n    tag_41:\n        /* \"DataFeed/PriceConverter.sol\":1372:1414  return (basePrice * decimals) / quotePrice */\n      swap6\n      pop\n      pop\n      pop\n      pop\n      pop\n      pop\n        /* \"DataFeed/PriceConverter.sol\":571:1421  function getDerivedPrice(... */\n    tag_16:\n      swap4\n      swap3\n      pop\n      pop\n      pop\n      jump\t// out\n        /* \"DataFeed/PriceConverter.sol\":1427:1845  function scalePrice(... */\n    tag_14:\n        /* \"DataFeed/PriceConverter.sol\":1552:1558  int256 */\n      0x00\n        /* \"DataFeed/PriceConverter.sol\":1591:1600  _decimals */\n      dup2\n        /* \"DataFeed/PriceConverter.sol\":1574:1600  _priceDecimals < _decimals */\n      0xff\n      and\n        /* \"DataFeed/PriceConverter.sol\":1574:1588  _priceDecimals */\n      dup4\n        /* \"DataFeed/PriceConverter.sol\":1574:1600  _priceDecimals < _decimals */\n      0xff\n      and\n      lt\n        /* \"DataFeed/PriceConverter.sol\":1570:1816  if (_priceDecimals < _decimals) {... */\n      iszero\n      tag_44\n      jumpi\n        /* \"DataFeed/PriceConverter.sol\":1651:1677  _decimals - _priceDecimals */\n      tag_45\n        /* \"DataFeed/PriceConverter.sol\":1663:1677  _priceDecimals */\n      dup4\n        /* \"DataFeed/PriceConverter.sol\":1651:1660  _decimals */\n      dup4\n        /* \"DataFeed/PriceConverter.sol\":1651:1677  _decimals - _priceDecimals */\n      tag_46\n      jump\t// in\n    tag_45:\n        /* \"DataFeed/PriceConverter.sol\":1639:1678  10**uint256(_decimals - _priceDecimals) */\n      tag_47\n      swap1\n        /* \"DataFeed/PriceConverter.sol\":1643:1678  uint256(_decimals - _priceDecimals) */\n      0xff\n      and\n        /* \"DataFeed/PriceConverter.sol\":1639:1641  10 */\n      0x0a\n        /* \"DataFeed/PriceConverter.sol\":1639:1678  10**uint256(_decimals - _priceDecimals) */\n      tag_22\n      jump\t// in\n    tag_47:\n        /* \"DataFeed/PriceConverter.sol\":1623:1679  _price * int256(10**uint256(_decimals - _priceDecimals)) */\n      tag_48\n      swap1\n        /* \"DataFeed/PriceConverter.sol\":1623:1629  _price */\n      dup6\n        /* \"DataFeed/PriceConverter.sol\":1623:1679  _price * int256(10**uint256(_decimals - _priceDecimals)) */\n      tag_40\n      jump\t// in\n    tag_48:\n        /* \"DataFeed/PriceConverter.sol\":1616:1679  return _price * int256(10**uint256(_decimals - _priceDecimals)) */\n      swap1\n      pop\n      jump(tag_16)\n        /* \"DataFeed/PriceConverter.sol\":1570:1816  if (_priceDecimals < _decimals) {... */\n    tag_44:\n        /* \"DataFeed/PriceConverter.sol\":1717:1726  _decimals */\n      dup2\n        /* \"DataFeed/PriceConverter.sol\":1700:1726  _priceDecimals > _decimals */\n      0xff\n      and\n        /* \"DataFeed/PriceConverter.sol\":1700:1714  _priceDecimals */\n      dup4\n        /* \"DataFeed/PriceConverter.sol\":1700:1726  _priceDecimals > _decimals */\n      0xff\n      and\n      gt\n        /* \"DataFeed/PriceConverter.sol\":1696:1816  if (_priceDecimals > _decimals) {... */\n      iszero\n      tag_50\n      jumpi\n        /* \"DataFeed/PriceConverter.sol\":1777:1803  _priceDecimals - _decimals */\n      tag_51\n        /* \"DataFeed/PriceConverter.sol\":1794:1803  _decimals */\n      dup3\n        /* \"DataFeed/PriceConverter.sol\":1777:1791  _priceDecimals */\n      dup5\n        /* \"DataFeed/PriceConverter.sol\":1777:1803  _priceDecimals - _decimals */\n      tag_46\n      jump\t// in\n    tag_51:\n        /* \"DataFeed/PriceConverter.sol\":1765:1804  10**uint256(_priceDecimals - _decimals) */\n      tag_52\n      swap1\n        /* \"DataFeed/PriceConverter.sol\":1769:1804  uint256(_priceDecimals - _decimals) */\n      0xff\n      and\n        /* \"DataFeed/PriceConverter.sol\":1765:1767  10 */\n      0x0a\n        /* \"DataFeed/PriceConverter.sol\":1765:1804  10**uint256(_priceDecimals - _decimals) */\n      tag_22\n      jump\t// in\n    tag_52:\n        /* \"DataFeed/PriceConverter.sol\":1749:1805  _price / int256(10**uint256(_priceDecimals - _decimals)) */\n      tag_48\n      swap1\n        /* \"DataFeed/PriceConverter.sol\":1749:1755  _price */\n      dup6\n        /* \"DataFeed/PriceConverter.sol\":1749:1805  _price / int256(10**uint256(_priceDecimals - _decimals)) */\n      tag_42\n      jump\t// in\n        /* \"DataFeed/PriceConverter.sol\":1696:1816  if (_priceDecimals > _decimals) {... */\n    tag_50:\n      pop\n        /* \"DataFeed/PriceConverter.sol\":1832:1838  _price */\n      swap2\n      swap3\n        /* \"DataFeed/PriceConverter.sol\":1427:1845  function scalePrice(... */\n      swap2\n      pop\n      pop\n      jump\t// out\n        /* \"#utility.yul\":14:210   */\n    tag_54:\n        /* \"#utility.yul\":82:102   */\n      dup1\n      calldataload\n      sub(shl(0xa0, 0x01), 0x01)\n        /* \"#utility.yul\":131:185   */\n      dup2\n      and\n        /* \"#utility.yul\":121:186   */\n      dup2\n      eq\n        /* \"#utility.yul\":111:204   */\n      tag_62\n      jumpi\n        /* \"#utility.yul\":200:201   */\n      0x00\n        /* \"#utility.yul\":197:198   */\n      dup1\n        /* \"#utility.yul\":190:202   */\n      revert\n        /* \"#utility.yul\":111:204   */\n    tag_62:\n        /* \"#utility.yul\":14:210   */\n      swap2\n      swap1\n      pop\n      jump\t// out\n        /* \"#utility.yul\":215:329   */\n    tag_55:\n        /* \"#utility.yul\":299:303   */\n      0xff\n        /* \"#utility.yul\":292:297   */\n      dup2\n        /* \"#utility.yul\":288:304   */\n      and\n        /* \"#utility.yul\":281:286   */\n      dup2\n        /* \"#utility.yul\":278:305   */\n      eq\n        /* \"#utility.yul\":268:323   */\n      tag_64\n      jumpi\n        /* \"#utility.yul\":319:320   */\n      0x00\n        /* \"#utility.yul\":316:317   */\n      dup1\n        /* \"#utility.yul\":309:321   */\n      revert\n        /* \"#utility.yul\":268:323   */\n    tag_64:\n        /* \"#utility.yul\":215:329   */\n      pop\n      jump\t// out\n        /* \"#utility.yul\":334:725   */\n    tag_7:\n        /* \"#utility.yul\":409:415   */\n      0x00\n        /* \"#utility.yul\":417:423   */\n      dup1\n        /* \"#utility.yul\":425:431   */\n      0x00\n        /* \"#utility.yul\":478:480   */\n      0x60\n        /* \"#utility.yul\":466:475   */\n      dup5\n        /* \"#utility.yul\":457:464   */\n      dup7\n        /* \"#utility.yul\":453:476   */\n      sub\n        /* \"#utility.yul\":449:481   */\n      slt\n        /* \"#utility.yul\":446:498   */\n      iszero\n      tag_66\n      jumpi\n        /* \"#utility.yul\":494:495   */\n      0x00\n        /* \"#utility.yul\":491:492   */\n      dup1\n        /* \"#utility.yul\":484:496   */\n      revert\n        /* \"#utility.yul\":446:498   */\n    tag_66:\n        /* \"#utility.yul\":517:546   */\n      tag_67\n        /* \"#utility.yul\":536:545   */\n      dup5\n        /* \"#utility.yul\":517:546   */\n      tag_54\n      jump\t// in\n    tag_67:\n        /* \"#utility.yul\":507:546   */\n      swap3\n      pop\n        /* \"#utility.yul\":565:603   */\n      tag_68\n        /* \"#utility.yul\":599:601   */\n      0x20\n        /* \"#utility.yul\":588:597   */\n      dup6\n        /* \"#utility.yul\":584:602   */\n      add\n        /* \"#utility.yul\":565:603   */\n      tag_54\n      jump\t// in\n    tag_68:\n        /* \"#utility.yul\":555:603   */\n      swap2\n      pop\n        /* \"#utility.yul\":653:655   */\n      0x40\n        /* \"#utility.yul\":642:651   */\n      dup5\n        /* \"#utility.yul\":638:656   */\n      add\n        /* \"#utility.yul\":625:657   */\n      calldataload\n        /* \"#utility.yul\":666:695   */\n      tag_69\n        /* \"#utility.yul\":689:694   */\n      dup2\n        /* \"#utility.yul\":666:695   */\n      tag_55\n      jump\t// in\n    tag_69:\n        /* \"#utility.yul\":714:719   */\n      dup1\n        /* \"#utility.yul\":704:719   */\n      swap2\n      pop\n      pop\n        /* \"#utility.yul\":334:725   */\n      swap3\n      pop\n      swap3\n      pop\n      swap3\n      jump\t// out\n        /* \"#utility.yul\":910:1357   */\n    tag_13:\n        /* \"#utility.yul\":982:988   */\n      0x00\n        /* \"#utility.yul\":990:996   */\n      dup1\n        /* \"#utility.yul\":998:1004   */\n      0x00\n        /* \"#utility.yul\":1051:1053   */\n      0x60\n        /* \"#utility.yul\":1039:1048   */\n      dup5\n        /* \"#utility.yul\":1030:1037   */\n      dup7\n        /* \"#utility.yul\":1026:1049   */\n      sub\n        /* \"#utility.yul\":1022:1054   */\n      slt\n        /* \"#utility.yul\":1019:1071   */\n      iszero\n      tag_72\n      jumpi\n        /* \"#utility.yul\":1067:1068   */\n      0x00\n        /* \"#utility.yul\":1064:1065   */\n      dup1\n        /* \"#utility.yul\":1057:1069   */\n      revert\n        /* \"#utility.yul\":1019:1071   */\n    tag_72:\n        /* \"#utility.yul\":1103:1112   */\n      dup4\n        /* \"#utility.yul\":1090:1113   */\n      calldataload\n        /* \"#utility.yul\":1080:1113   */\n      swap3\n      pop\n        /* \"#utility.yul\":1163:1165   */\n      0x20\n        /* \"#utility.yul\":1152:1161   */\n      dup5\n        /* \"#utility.yul\":1148:1166   */\n      add\n        /* \"#utility.yul\":1135:1167   */\n      calldataload\n        /* \"#utility.yul\":1176:1205   */\n      tag_68\n        /* \"#utility.yul\":1199:1204   */\n      dup2\n        /* \"#utility.yul\":1176:1205   */\n      tag_55\n      jump\t// in\n        /* \"#utility.yul\":1708:1892   */\n    tag_56:\n      shl(0xe0, 0x4e487b71)\n        /* \"#utility.yul\":1757:1758   */\n      0x00\n        /* \"#utility.yul\":1750:1838   */\n      mstore\n        /* \"#utility.yul\":1857:1861   */\n      0x11\n        /* \"#utility.yul\":1854:1855   */\n      0x04\n        /* \"#utility.yul\":1847:1862   */\n      mstore\n        /* \"#utility.yul\":1881:1885   */\n      0x24\n        /* \"#utility.yul\":1878:1879   */\n      0x00\n        /* \"#utility.yul\":1871:1886   */\n      revert\n        /* \"#utility.yul\":1897:2313   */\n    tag_57:\n        /* \"#utility.yul\":1986:1987   */\n      0x01\n        /* \"#utility.yul\":2023:2028   */\n      dup2\n        /* \"#utility.yul\":1986:1987   */\n      dup2\n        /* \"#utility.yul\":2037:2307   */\n    tag_78:\n        /* \"#utility.yul\":2058:2065   */\n      dup1\n        /* \"#utility.yul\":2048:2056   */\n      dup6\n        /* \"#utility.yul\":2045:2066   */\n      gt\n        /* \"#utility.yul\":2037:2307   */\n      iszero\n      tag_80\n      jumpi\n        /* \"#utility.yul\":2117:2121   */\n      dup2\n        /* \"#utility.yul\":2113:2114   */\n      0x00\n        /* \"#utility.yul\":2109:2115   */\n      not\n        /* \"#utility.yul\":2105:2122   */\n      div\n        /* \"#utility.yul\":2099:2103   */\n      dup3\n        /* \"#utility.yul\":2096:2123   */\n      gt\n        /* \"#utility.yul\":2093:2146   */\n      iszero\n      tag_82\n      jumpi\n        /* \"#utility.yul\":2126:2144   */\n      tag_82\n      tag_56\n      jump\t// in\n    tag_82:\n        /* \"#utility.yul\":2176:2183   */\n      dup1\n        /* \"#utility.yul\":2166:2174   */\n      dup6\n        /* \"#utility.yul\":2162:2184   */\n      and\n        /* \"#utility.yul\":2159:2214   */\n      iszero\n      tag_83\n      jumpi\n        /* \"#utility.yul\":2196:2212   */\n      swap2\n      dup2\n      mul\n      swap2\n        /* \"#utility.yul\":2159:2214   */\n    tag_83:\n        /* \"#utility.yul\":2275:2297   */\n      swap4\n      dup5\n      shr\n      swap4\n        /* \"#utility.yul\":2235:2250   */\n      swap1\n      dup1\n      mul\n      swap1\n        /* \"#utility.yul\":2037:2307   */\n      jump(tag_78)\n    tag_80:\n        /* \"#utility.yul\":2041:2044   */\n      pop\n        /* \"#utility.yul\":1897:2313   */\n      swap3\n      pop\n      swap3\n      swap1\n      pop\n      jump\t// out\n        /* \"#utility.yul\":2318:3124   */\n    tag_58:\n        /* \"#utility.yul\":2367:2372   */\n      0x00\n        /* \"#utility.yul\":2397:2405   */\n      dup3\n        /* \"#utility.yul\":2387:2467   */\n      tag_85\n      jumpi\n      pop\n        /* \"#utility.yul\":2438:2439   */\n      0x01\n        /* \"#utility.yul\":2452:2457   */\n      jump(tag_84)\n        /* \"#utility.yul\":2387:2467   */\n    tag_85:\n        /* \"#utility.yul\":2486:2490   */\n      dup2\n        /* \"#utility.yul\":2476:2552   */\n      tag_86\n      jumpi\n      pop\n        /* \"#utility.yul\":2523:2524   */\n      0x00\n        /* \"#utility.yul\":2537:2542   */\n      jump(tag_84)\n        /* \"#utility.yul\":2476:2552   */\n    tag_86:\n        /* \"#utility.yul\":2568:2572   */\n      dup2\n        /* \"#utility.yul\":2586:2587   */\n      0x01\n        /* \"#utility.yul\":2581:2640   */\n      dup2\n      eq\n      tag_88\n      jumpi\n        /* \"#utility.yul\":2654:2655   */\n      0x02\n        /* \"#utility.yul\":2649:2779   */\n      dup2\n      eq\n      tag_89\n      jumpi\n        /* \"#utility.yul\":2561:2779   */\n      jump(tag_87)\n        /* \"#utility.yul\":2581:2640   */\n    tag_88:\n        /* \"#utility.yul\":2611:2612   */\n      0x01\n        /* \"#utility.yul\":2602:2612   */\n      swap2\n      pop\n        /* \"#utility.yul\":2625:2630   */\n      pop\n      jump(tag_84)\n        /* \"#utility.yul\":2649:2779   */\n    tag_89:\n        /* \"#utility.yul\":2686:2689   */\n      0xff\n        /* \"#utility.yul\":2676:2684   */\n      dup5\n        /* \"#utility.yul\":2673:2690   */\n      gt\n        /* \"#utility.yul\":2670:2713   */\n      iszero\n      tag_91\n      jumpi\n        /* \"#utility.yul\":2693:2711   */\n      tag_91\n      tag_56\n      jump\t// in\n    tag_91:\n      pop\n      pop\n        /* \"#utility.yul\":2749:2750   */\n      0x01\n        /* \"#utility.yul\":2735:2751   */\n      dup3\n      shl\n        /* \"#utility.yul\":2764:2769   */\n      jump(tag_84)\n        /* \"#utility.yul\":2561:2779   */\n    tag_87:\n      pop\n        /* \"#utility.yul\":2863:2865   */\n      0x20\n        /* \"#utility.yul\":2853:2861   */\n      dup4\n        /* \"#utility.yul\":2850:2866   */\n      lt\n        /* \"#utility.yul\":2844:2847   */\n      0x0133\n        /* \"#utility.yul\":2838:2842   */\n      dup4\n        /* \"#utility.yul\":2835:2848   */\n      lt\n        /* \"#utility.yul\":2831:2867   */\n      and\n        /* \"#utility.yul\":2825:2827   */\n      0x4e\n        /* \"#utility.yul\":2815:2823   */\n      dup5\n        /* \"#utility.yul\":2812:2828   */\n      lt\n        /* \"#utility.yul\":2807:2809   */\n      0x0b\n        /* \"#utility.yul\":2801:2805   */\n      dup5\n        /* \"#utility.yul\":2798:2810   */\n      lt\n        /* \"#utility.yul\":2794:2829   */\n      and\n        /* \"#utility.yul\":2791:2868   */\n      or\n        /* \"#utility.yul\":2788:2947   */\n      iszero\n      tag_92\n      jumpi\n      pop\n        /* \"#utility.yul\":2900:2919   */\n      dup2\n      dup2\n      exp\n        /* \"#utility.yul\":2932:2937   */\n      jump(tag_84)\n        /* \"#utility.yul\":2788:2947   */\n    tag_92:\n        /* \"#utility.yul\":2979:3013   */\n      tag_93\n        /* \"#utility.yul\":3004:3012   */\n      dup4\n        /* \"#utility.yul\":2998:3002   */\n      dup4\n        /* \"#utility.yul\":2979:3013   */\n      tag_57\n      jump\t// in\n    tag_93:\n        /* \"#utility.yul\":3049:3055   */\n      dup1\n        /* \"#utility.yul\":3045:3046   */\n      0x00\n        /* \"#utility.yul\":3041:3047   */\n      not\n        /* \"#utility.yul\":3037:3056   */\n      div\n        /* \"#utility.yul\":3028:3035   */\n      dup3\n        /* \"#utility.yul\":3025:3057   */\n      gt\n        /* \"#utility.yul\":3022:3080   */\n      iszero\n      tag_95\n      jumpi\n        /* \"#utility.yul\":3060:3078   */\n      tag_95\n      tag_56\n      jump\t// in\n    tag_95:\n        /* \"#utility.yul\":3098:3118   */\n      mul\n      swap1\n      pop\n        /* \"#utility.yul\":2318:3124   */\n    tag_84:\n      swap3\n      swap2\n      pop\n      pop\n      jump\t// out\n        /* \"#utility.yul\":3129:3260   */\n    tag_22:\n        /* \"#utility.yul\":3189:3194   */\n      0x00\n        /* \"#utility.yul\":3218:3254   */\n      tag_16\n        /* \"#utility.yul\":3245:3253   */\n      dup4\n        /* \"#utility.yul\":3239:3243   */\n      dup4\n        /* \"#utility.yul\":3218:3254   */\n      tag_58\n      jump\t// in\n        /* \"#utility.yul\":3265:3444   */\n    tag_59:\n        /* \"#utility.yul\":3343:3356   */\n      dup1\n      mload\n        /* \"#utility.yul\":3396:3418   */\n      0xffffffffffffffffffff\n        /* \"#utility.yul\":3385:3419   */\n      dup2\n      and\n        /* \"#utility.yul\":3375:3420   */\n      dup2\n      eq\n        /* \"#utility.yul\":3365:3438   */\n      tag_62\n      jumpi\n        /* \"#utility.yul\":3434:3435   */\n      0x00\n        /* \"#utility.yul\":3431:3432   */\n      dup1\n        /* \"#utility.yul\":3424:3436   */\n      revert\n        /* \"#utility.yul\":3449:3922   */\n    tag_26:\n        /* \"#utility.yul\":3552:3558   */\n      0x00\n        /* \"#utility.yul\":3560:3566   */\n      dup1\n        /* \"#utility.yul\":3568:3574   */\n      0x00\n        /* \"#utility.yul\":3576:3582   */\n      dup1\n        /* \"#utility.yul\":3584:3590   */\n      0x00\n        /* \"#utility.yul\":3637:3640   */\n      0xa0\n        /* \"#utility.yul\":3625:3634   */\n      dup7\n        /* \"#utility.yul\":3616:3623   */\n      dup9\n        /* \"#utility.yul\":3612:3635   */\n      sub\n        /* \"#utility.yul\":3608:3641   */\n      slt\n        /* \"#utility.yul\":3605:3658   */\n      iszero\n      tag_101\n      jumpi\n        /* \"#utility.yul\":3654:3655   */\n      0x00\n        /* \"#utility.yul\":3651:3652   */\n      dup1\n        /* \"#utility.yul\":3644:3656   */\n      revert\n        /* \"#utility.yul\":3605:3658   */\n    tag_101:\n        /* \"#utility.yul\":3677:3716   */\n      tag_102\n        /* \"#utility.yul\":3706:3715   */\n      dup7\n        /* \"#utility.yul\":3677:3716   */\n      tag_59\n      jump\t// in\n    tag_102:\n        /* \"#utility.yul\":3667:3716   */\n      swap5\n      pop\n        /* \"#utility.yul\":3756:3758   */\n      0x20\n        /* \"#utility.yul\":3745:3754   */\n      dup7\n        /* \"#utility.yul\":3741:3759   */\n      add\n        /* \"#utility.yul\":3735:3760   */\n      mload\n        /* \"#utility.yul\":3725:3760   */\n      swap4\n      pop\n        /* \"#utility.yul\":3800:3802   */\n      0x40\n        /* \"#utility.yul\":3789:3798   */\n      dup7\n        /* \"#utility.yul\":3785:3803   */\n      add\n        /* \"#utility.yul\":3779:3804   */\n      mload\n        /* \"#utility.yul\":3769:3804   */\n      swap3\n      pop\n        /* \"#utility.yul\":3844:3846   */\n      0x60\n        /* \"#utility.yul\":3833:3842   */\n      dup7\n        /* \"#utility.yul\":3829:3847   */\n      add\n        /* \"#utility.yul\":3823:3848   */\n      mload\n        /* \"#utility.yul\":3813:3848   */\n      swap2\n      pop\n        /* \"#utility.yul\":3867:3916   */\n      tag_103\n        /* \"#utility.yul\":3911:3914   */\n      0x80\n        /* \"#utility.yul\":3900:3909   */\n      dup8\n        /* \"#utility.yul\":3896:3915   */\n      add\n        /* \"#utility.yul\":3867:3916   */\n      tag_59\n      jump\t// in\n    tag_103:\n        /* \"#utility.yul\":3857:3916   */\n      swap1\n      pop\n        /* \"#utility.yul\":3449:3922   */\n      swap3\n      swap6\n      pop\n      swap3\n      swap6\n      swap1\n      swap4\n      pop\n      jump\t// out\n        /* \"#utility.yul\":3927:4174   */\n    tag_30:\n        /* \"#utility.yul\":3995:4001   */\n      0x00\n        /* \"#utility.yul\":4048:4050   */\n      0x20\n        /* \"#utility.yul\":4036:4045   */\n      dup3\n        /* \"#utility.yul\":4027:4034   */\n      dup5\n        /* \"#utility.yul\":4023:4046   */\n      sub\n        /* \"#utility.yul\":4019:4051   */\n      slt\n        /* \"#utility.yul\":4016:4068   */\n      iszero\n      tag_105\n      jumpi\n        /* \"#utility.yul\":4064:4065   */\n      0x00\n        /* \"#utility.yul\":4061:4062   */\n      dup1\n        /* \"#utility.yul\":4054:4066   */\n      revert\n        /* \"#utility.yul\":4016:4068   */\n    tag_105:\n        /* \"#utility.yul\":4096:4105   */\n      dup2\n        /* \"#utility.yul\":4090:4106   */\n      mload\n        /* \"#utility.yul\":4115:4144   */\n      tag_16\n        /* \"#utility.yul\":4138:4143   */\n      dup2\n        /* \"#utility.yul\":4115:4144   */\n      tag_55\n      jump\t// in\n        /* \"#utility.yul\":4179:4416   */\n    tag_40:\n        /* \"#utility.yul\":4251:4260   */\n      dup1\n      dup3\n      mul\n        /* \"#utility.yul\":4218:4225   */\n      0x00\n        /* \"#utility.yul\":4276:4285   */\n      dup3\n      slt\n      shl(0xff, 0x01)\n        /* \"#utility.yul\":4287:4305   */\n      dup5\n      eq\n        /* \"#utility.yul\":4272:4306   */\n      and\n        /* \"#utility.yul\":4269:4329   */\n      iszero\n      tag_109\n      jumpi\n        /* \"#utility.yul\":4309:4327   */\n      tag_109\n      tag_56\n      jump\t// in\n    tag_109:\n        /* \"#utility.yul\":4382:4383   */\n      dup2\n        /* \"#utility.yul\":4373:4380   */\n      dup2\n        /* \"#utility.yul\":4368:4384   */\n      sdiv\n        /* \"#utility.yul\":4365:4366   */\n      dup4\n        /* \"#utility.yul\":4362:4385   */\n      eq\n        /* \"#utility.yul\":4358:4359   */\n      dup3\n        /* \"#utility.yul\":4351:4360   */\n      iszero\n        /* \"#utility.yul\":4348:4386   */\n      or\n        /* \"#utility.yul\":4338:4410   */\n      tag_84\n      jumpi\n        /* \"#utility.yul\":4390:4408   */\n      tag_84\n      tag_56\n      jump\t// in\n        /* \"#utility.yul\":4421:4768   */\n    tag_42:\n        /* \"#utility.yul\":4460:4461   */\n      0x00\n        /* \"#utility.yul\":4486:4487   */\n      dup3\n        /* \"#utility.yul\":4476:4665   */\n      tag_113\n      jumpi\n      shl(0xe0, 0x4e487b71)\n        /* \"#utility.yul\":4518:4519   */\n      0x00\n        /* \"#utility.yul\":4511:4599   */\n      mstore\n        /* \"#utility.yul\":4622:4626   */\n      0x12\n        /* \"#utility.yul\":4619:4620   */\n      0x04\n        /* \"#utility.yul\":4612:4627   */\n      mstore\n        /* \"#utility.yul\":4650:4654   */\n      0x24\n        /* \"#utility.yul\":4647:4648   */\n      0x00\n        /* \"#utility.yul\":4640:4655   */\n      revert\n        /* \"#utility.yul\":4476:4665   */\n    tag_113:\n      shl(0xff, 0x01)\n        /* \"#utility.yul\":4681:4699   */\n      dup3\n      eq\n      not(0x00)\n        /* \"#utility.yul\":4701:4714   */\n      dup5\n      eq\n        /* \"#utility.yul\":4677:4715   */\n      and\n        /* \"#utility.yul\":4674:4738   */\n      iszero\n      tag_115\n      jumpi\n        /* \"#utility.yul\":4718:4736   */\n      tag_115\n      tag_56\n      jump\t// in\n    tag_115:\n      pop\n        /* \"#utility.yul\":4752:4762   */\n      sdiv\n      swap1\n        /* \"#utility.yul\":4421:4768   */\n      jump\t// out\n        /* \"#utility.yul\":4773:4924   */\n    tag_46:\n        /* \"#utility.yul\":4863:4867   */\n      0xff\n        /* \"#utility.yul\":4856:4868   */\n      dup3\n      dup2\n      and\n        /* \"#utility.yul\":4842:4854   */\n      dup3\n      dup3\n      and\n        /* \"#utility.yul\":4838:4869   */\n      sub\n      swap1\n        /* \"#utility.yul\":4881:4895   */\n      dup2\n      gt\n        /* \"#utility.yul\":4878:4918   */\n      iszero\n      tag_84\n      jumpi\n        /* \"#utility.yul\":4898:4916   */\n      tag_84\n      tag_56\n      jump\t// in\n\n    auxdata: 0xa264697066735822122056105bf63634c227b140acee7cc92079f74a5d187606980f3ab7f504252bd66164736f6c63430008180033\n}\n",
				"bytecode": {
					"linkReferences": {},
					"object": "608060405234801561000f575f80fd5b5061060f8061001d5f395ff3fe608060405234801561000f575f80fd5b5060043610610034575f3560e01c80639743665514610038578063d0a0758c1461005d575b5f80fd5b61004b610046366004610370565b610070565b60405190815260200160405180910390f35b61004b61006b3660046103b4565b6102d4565b5f60ff8216158015906100875750601260ff831611155b6100f1576040517f08c379a000000000000000000000000000000000000000000000000000000000815260206004820152601160248201527f496e76616c6964205f646563696d616c73000000000000000000000000000000604482015260640160405180910390fd5b5f61010060ff8416600a6104ce565b90505f856001600160a01b031663feaf968c6040518163ffffffff1660e01b815260040160a060405180830381865afa15801561013f573d5f803e3d5ffd5b505050506040513d601f19601f8201168201806040525081019061016391906104f2565b5050509150505f866001600160a01b031663313ce5676040518163ffffffff1660e01b8152600401602060405180830381865afa1580156101a6573d5f803e3d5ffd5b505050506040513d601f19601f820116820180604052508101906101ca919061053e565b90506101d78282876102d4565b91505f866001600160a01b031663feaf968c6040518163ffffffff1660e01b815260040160a060405180830381865afa158015610216573d5f803e3d5ffd5b505050506040513d601f19601f8201168201806040525081019061023a91906104f2565b5050509150505f876001600160a01b031663313ce5676040518163ffffffff1660e01b8152600401602060405180830381865afa15801561027d573d5f803e3d5ffd5b505050506040513d601f19601f820116820180604052508101906102a1919061053e565b90506102ae8282896102d4565b9150816102bb8686610559565b6102c59190610588565b955050505050505b9392505050565b5f8160ff168360ff16101561030c576102ed83836105c0565b6102fb9060ff16600a6104ce565b6103059085610559565b90506102cd565b8160ff168360ff16111561033c5761032482846105c0565b6103329060ff16600a6104ce565b6103059085610588565b509192915050565b80356001600160a01b038116811461035a575f80fd5b919050565b60ff8116811461036d575f80fd5b50565b5f805f60608486031215610382575f80fd5b61038b84610344565b925061039960208501610344565b915060408401356103a98161035f565b809150509250925092565b5f805f606084860312156103c6575f80fd5b8335925060208401356103998161035f565b634e487b7160e01b5f52601160045260245ffd5b600181815b8085111561042657815f190482111561040c5761040c6103d8565b8085161561041957918102915b93841c93908002906103f1565b509250929050565b5f8261043c575060016104c8565b8161044857505f6104c8565b816001811461045e576002811461046857610484565b60019150506104c8565b60ff841115610479576104796103d8565b50506001821b6104c8565b5060208310610133831016604e8410600b84101617156104a7575081810a6104c8565b6104b183836103ec565b805f19048211156104c4576104c46103d8565b0290505b92915050565b5f6102cd838361042e565b805169ffffffffffffffffffff8116811461035a575f80fd5b5f805f805f60a08688031215610506575f80fd5b61050f866104d9565b9450602086015193506040860151925060608601519150610532608087016104d9565b90509295509295909350565b5f6020828403121561054e575f80fd5b81516102cd8161035f565b8082025f8212600160ff1b84141615610574576105746103d8565b81810583148215176104c8576104c86103d8565b5f826105a257634e487b7160e01b5f52601260045260245ffd5b600160ff1b82145f19841416156105bb576105bb6103d8565b500590565b60ff82811682821603908111156104c8576104c86103d856fea264697066735822122056105bf63634c227b140acee7cc92079f74a5d187606980f3ab7f504252bd66164736f6c63430008180033",
					"opcodes": "PUSH1 0x80 PUSH1 0x40 MSTORE CALLVALUE DUP1 ISZERO PUSH2 0xF JUMPI PUSH0 DUP1 REVERT JUMPDEST POP PUSH2 0x60F DUP1 PUSH2 0x1D PUSH0 CODECOPY PUSH0 RETURN INVALID PUSH1 0x80 PUSH1 0x40 MSTORE CALLVALUE DUP1 ISZERO PUSH2 0xF JUMPI PUSH0 DUP1 REVERT JUMPDEST POP PUSH1 0x4 CALLDATASIZE LT PUSH2 0x34 JUMPI PUSH0 CALLDATALOAD PUSH1 0xE0 SHR DUP1 PUSH4 0x97436655 EQ PUSH2 0x38 JUMPI DUP1 PUSH4 0xD0A0758C EQ PUSH2 0x5D JUMPI JUMPDEST PUSH0 DUP1 REVERT JUMPDEST PUSH2 0x4B PUSH2 0x46 CALLDATASIZE PUSH1 0x4 PUSH2 0x370 JUMP JUMPDEST PUSH2 0x70 JUMP JUMPDEST PUSH1 0x40 MLOAD SWAP1 DUP2 MSTORE PUSH1 0x20 ADD PUSH1 0x40 MLOAD DUP1 SWAP2 SUB SWAP1 RETURN JUMPDEST PUSH2 0x4B PUSH2 0x6B CALLDATASIZE PUSH1 0x4 PUSH2 0x3B4 JUMP JUMPDEST PUSH2 0x2D4 JUMP JUMPDEST PUSH0 PUSH1 0xFF DUP3 AND ISZERO DUP1 ISZERO SWAP1 PUSH2 0x87 JUMPI POP PUSH1 0x12 PUSH1 0xFF DUP4 AND GT ISZERO JUMPDEST PUSH2 0xF1 JUMPI PUSH1 0x40 MLOAD PUSH32 0x8C379A000000000000000000000000000000000000000000000000000000000 DUP2 MSTORE PUSH1 0x20 PUSH1 0x4 DUP3 ADD MSTORE PUSH1 0x11 PUSH1 0x24 DUP3 ADD MSTORE PUSH32 0x496E76616C6964205F646563696D616C73000000000000000000000000000000 PUSH1 0x44 DUP3 ADD MSTORE PUSH1 0x64 ADD PUSH1 0x40 MLOAD DUP1 SWAP2 SUB SWAP1 REVERT JUMPDEST PUSH0 PUSH2 0x100 PUSH1 0xFF DUP5 AND PUSH1 0xA PUSH2 0x4CE JUMP JUMPDEST SWAP1 POP PUSH0 DUP6 PUSH1 0x1 PUSH1 0x1 PUSH1 0xA0 SHL SUB AND PUSH4 0xFEAF968C PUSH1 0x40 MLOAD DUP2 PUSH4 0xFFFFFFFF AND PUSH1 0xE0 SHL DUP2 MSTORE PUSH1 0x4 ADD PUSH1 0xA0 PUSH1 0x40 MLOAD DUP1 DUP4 SUB DUP2 DUP7 GAS STATICCALL ISZERO DUP1 ISZERO PUSH2 0x13F JUMPI RETURNDATASIZE PUSH0 DUP1 RETURNDATACOPY RETURNDATASIZE PUSH0 REVERT JUMPDEST POP POP POP POP PUSH1 0x40 MLOAD RETURNDATASIZE PUSH1 0x1F NOT PUSH1 0x1F DUP3 ADD AND DUP3 ADD DUP1 PUSH1 0x40 MSTORE POP DUP2 ADD SWAP1 PUSH2 0x163 SWAP2 SWAP1 PUSH2 0x4F2 JUMP JUMPDEST POP POP POP SWAP2 POP POP PUSH0 DUP7 PUSH1 0x1 PUSH1 0x1 PUSH1 0xA0 SHL SUB AND PUSH4 0x313CE567 PUSH1 0x40 MLOAD DUP2 PUSH4 0xFFFFFFFF AND PUSH1 0xE0 SHL DUP2 MSTORE PUSH1 0x4 ADD PUSH1 0x20 PUSH1 0x40 MLOAD DUP1 DUP4 SUB DUP2 DUP7 GAS STATICCALL ISZERO DUP1 ISZERO PUSH2 0x1A6 JUMPI RETURNDATASIZE PUSH0 DUP1 RETURNDATACOPY RETURNDATASIZE PUSH0 REVERT JUMPDEST POP POP POP POP PUSH1 0x40 MLOAD RETURNDATASIZE PUSH1 0x1F NOT PUSH1 0x1F DUP3 ADD AND DUP3 ADD DUP1 PUSH1 0x40 MSTORE POP DUP2 ADD SWAP1 PUSH2 0x1CA SWAP2 SWAP1 PUSH2 0x53E JUMP JUMPDEST SWAP1 POP PUSH2 0x1D7 DUP3 DUP3 DUP8 PUSH2 0x2D4 JUMP JUMPDEST SWAP2 POP PUSH0 DUP7 PUSH1 0x1 PUSH1 0x1 PUSH1 0xA0 SHL SUB AND PUSH4 0xFEAF968C PUSH1 0x40 MLOAD DUP2 PUSH4 0xFFFFFFFF AND PUSH1 0xE0 SHL DUP2 MSTORE PUSH1 0x4 ADD PUSH1 0xA0 PUSH1 0x40 MLOAD DUP1 DUP4 SUB DUP2 DUP7 GAS STATICCALL ISZERO DUP1 ISZERO PUSH2 0x216 JUMPI RETURNDATASIZE PUSH0 DUP1 RETURNDATACOPY RETURNDATASIZE PUSH0 REVERT JUMPDEST POP POP POP POP PUSH1 0x40 MLOAD RETURNDATASIZE PUSH1 0x1F NOT PUSH1 0x1F DUP3 ADD AND DUP3 ADD DUP1 PUSH1 0x40 MSTORE POP DUP2 ADD SWAP1 PUSH2 0x23A SWAP2 SWAP1 PUSH2 0x4F2 JUMP JUMPDEST POP POP POP SWAP2 POP POP PUSH0 DUP8 PUSH1 0x1 PUSH1 0x1 PUSH1 0xA0 SHL SUB AND PUSH4 0x313CE567 PUSH1 0x40 MLOAD DUP2 PUSH4 0xFFFFFFFF AND PUSH1 0xE0 SHL DUP2 MSTORE PUSH1 0x4 ADD PUSH1 0x20 PUSH1 0x40 MLOAD DUP1 DUP4 SUB DUP2 DUP7 GAS STATICCALL ISZERO DUP1 ISZERO PUSH2 0x27D JUMPI RETURNDATASIZE PUSH0 DUP1 RETURNDATACOPY RETURNDATASIZE PUSH0 REVERT JUMPDEST POP POP POP POP PUSH1 0x40 MLOAD RETURNDATASIZE PUSH1 0x1F NOT PUSH1 0x1F DUP3 ADD AND DUP3 ADD DUP1 PUSH1 0x40 MSTORE POP DUP2 ADD SWAP1 PUSH2 0x2A1 SWAP2 SWAP1 PUSH2 0x53E JUMP JUMPDEST SWAP1 POP PUSH2 0x2AE DUP3 DUP3 DUP10 PUSH2 0x2D4 JUMP JUMPDEST SWAP2 POP DUP2 PUSH2 0x2BB DUP7 DUP7 PUSH2 0x559 JUMP JUMPDEST PUSH2 0x2C5 SWAP2 SWAP1 PUSH2 0x588 JUMP JUMPDEST SWAP6 POP POP POP POP POP POP JUMPDEST SWAP4 SWAP3 POP POP POP JUMP JUMPDEST PUSH0 DUP2 PUSH1 0xFF AND DUP4 PUSH1 0xFF AND LT ISZERO PUSH2 0x30C JUMPI PUSH2 0x2ED DUP4 DUP4 PUSH2 0x5C0 JUMP JUMPDEST PUSH2 0x2FB SWAP1 PUSH1 0xFF AND PUSH1 0xA PUSH2 0x4CE JUMP JUMPDEST PUSH2 0x305 SWAP1 DUP6 PUSH2 0x559 JUMP JUMPDEST SWAP1 POP PUSH2 0x2CD JUMP JUMPDEST DUP2 PUSH1 0xFF AND DUP4 PUSH1 0xFF AND GT ISZERO PUSH2 0x33C JUMPI PUSH2 0x324 DUP3 DUP5 PUSH2 0x5C0 JUMP JUMPDEST PUSH2 0x332 SWAP1 PUSH1 0xFF AND PUSH1 0xA PUSH2 0x4CE JUMP JUMPDEST PUSH2 0x305 SWAP1 DUP6 PUSH2 0x588 JUMP JUMPDEST POP SWAP2 SWAP3 SWAP2 POP POP JUMP JUMPDEST DUP1 CALLDATALOAD PUSH1 0x1 PUSH1 0x1 PUSH1 0xA0 SHL SUB DUP2 AND DUP2 EQ PUSH2 0x35A JUMPI PUSH0 DUP1 REVERT JUMPDEST SWAP2 SWAP1 POP JUMP JUMPDEST PUSH1 0xFF DUP2 AND DUP2 EQ PUSH2 0x36D JUMPI PUSH0 DUP1 REVERT JUMPDEST POP JUMP JUMPDEST PUSH0 DUP1 PUSH0 PUSH1 0x60 DUP5 DUP7 SUB SLT ISZERO PUSH2 0x382 JUMPI PUSH0 DUP1 REVERT JUMPDEST PUSH2 0x38B DUP5 PUSH2 0x344 JUMP JUMPDEST SWAP3 POP PUSH2 0x399 PUSH1 0x20 DUP6 ADD PUSH2 0x344 JUMP JUMPDEST SWAP2 POP PUSH1 0x40 DUP5 ADD CALLDATALOAD PUSH2 0x3A9 DUP2 PUSH2 0x35F JUMP JUMPDEST DUP1 SWAP2 POP POP SWAP3 POP SWAP3 POP SWAP3 JUMP JUMPDEST PUSH0 DUP1 PUSH0 PUSH1 0x60 DUP5 DUP7 SUB SLT ISZERO PUSH2 0x3C6 JUMPI PUSH0 DUP1 REVERT JUMPDEST DUP4 CALLDATALOAD SWAP3 POP PUSH1 0x20 DUP5 ADD CALLDATALOAD PUSH2 0x399 DUP2 PUSH2 0x35F JUMP JUMPDEST PUSH4 0x4E487B71 PUSH1 0xE0 SHL PUSH0 MSTORE PUSH1 0x11 PUSH1 0x4 MSTORE PUSH1 0x24 PUSH0 REVERT JUMPDEST PUSH1 0x1 DUP2 DUP2 JUMPDEST DUP1 DUP6 GT ISZERO PUSH2 0x426 JUMPI DUP2 PUSH0 NOT DIV DUP3 GT ISZERO PUSH2 0x40C JUMPI PUSH2 0x40C PUSH2 0x3D8 JUMP JUMPDEST DUP1 DUP6 AND ISZERO PUSH2 0x419 JUMPI SWAP2 DUP2 MUL SWAP2 JUMPDEST SWAP4 DUP5 SHR SWAP4 SWAP1 DUP1 MUL SWAP1 PUSH2 0x3F1 JUMP JUMPDEST POP SWAP3 POP SWAP3 SWAP1 POP JUMP JUMPDEST PUSH0 DUP3 PUSH2 0x43C JUMPI POP PUSH1 0x1 PUSH2 0x4C8 JUMP JUMPDEST DUP2 PUSH2 0x448 JUMPI POP PUSH0 PUSH2 0x4C8 JUMP JUMPDEST DUP2 PUSH1 0x1 DUP2 EQ PUSH2 0x45E JUMPI PUSH1 0x2 DUP2 EQ PUSH2 0x468 JUMPI PUSH2 0x484 JUMP JUMPDEST PUSH1 0x1 SWAP2 POP POP PUSH2 0x4C8 JUMP JUMPDEST PUSH1 0xFF DUP5 GT ISZERO PUSH2 0x479 JUMPI PUSH2 0x479 PUSH2 0x3D8 JUMP JUMPDEST POP POP PUSH1 0x1 DUP3 SHL PUSH2 0x4C8 JUMP JUMPDEST POP PUSH1 0x20 DUP4 LT PUSH2 0x133 DUP4 LT AND PUSH1 0x4E DUP5 LT PUSH1 0xB DUP5 LT AND OR ISZERO PUSH2 0x4A7 JUMPI POP DUP2 DUP2 EXP PUSH2 0x4C8 JUMP JUMPDEST PUSH2 0x4B1 DUP4 DUP4 PUSH2 0x3EC JUMP JUMPDEST DUP1 PUSH0 NOT DIV DUP3 GT ISZERO PUSH2 0x4C4 JUMPI PUSH2 0x4C4 PUSH2 0x3D8 JUMP JUMPDEST MUL SWAP1 POP JUMPDEST SWAP3 SWAP2 POP POP JUMP JUMPDEST PUSH0 PUSH2 0x2CD DUP4 DUP4 PUSH2 0x42E JUMP JUMPDEST DUP1 MLOAD PUSH10 0xFFFFFFFFFFFFFFFFFFFF DUP2 AND DUP2 EQ PUSH2 0x35A JUMPI PUSH0 DUP1 REVERT JUMPDEST PUSH0 DUP1 PUSH0 DUP1 PUSH0 PUSH1 0xA0 DUP7 DUP9 SUB SLT ISZERO PUSH2 0x506 JUMPI PUSH0 DUP1 REVERT JUMPDEST PUSH2 0x50F DUP7 PUSH2 0x4D9 JUMP JUMPDEST SWAP5 POP PUSH1 0x20 DUP7 ADD MLOAD SWAP4 POP PUSH1 0x40 DUP7 ADD MLOAD SWAP3 POP PUSH1 0x60 DUP7 ADD MLOAD SWAP2 POP PUSH2 0x532 PUSH1 0x80 DUP8 ADD PUSH2 0x4D9 JUMP JUMPDEST SWAP1 POP SWAP3 SWAP6 POP SWAP3 SWAP6 SWAP1 SWAP4 POP JUMP JUMPDEST PUSH0 PUSH1 0x20 DUP3 DUP5 SUB SLT ISZERO PUSH2 0x54E JUMPI PUSH0 DUP1 REVERT JUMPDEST DUP2 MLOAD PUSH2 0x2CD DUP2 PUSH2 0x35F JUMP JUMPDEST DUP1 DUP3 MUL PUSH0 DUP3 SLT PUSH1 0x1 PUSH1 0xFF SHL DUP5 EQ AND ISZERO PUSH2 0x574 JUMPI PUSH2 0x574 PUSH2 0x3D8 JUMP JUMPDEST DUP2 DUP2 SDIV DUP4 EQ DUP3 ISZERO OR PUSH2 0x4C8 JUMPI PUSH2 0x4C8 PUSH2 0x3D8 JUMP JUMPDEST PUSH0 DUP3 PUSH2 0x5A2 JUMPI PUSH4 0x4E487B71 PUSH1 0xE0 SHL PUSH0 MSTORE PUSH1 0x12 PUSH1 0x4 MSTORE PUSH1 0x24 PUSH0 REVERT JUMPDEST PUSH1 0x1 PUSH1 0xFF SHL DUP3 EQ PUSH0 NOT DUP5 EQ AND ISZERO PUSH2 0x5BB JUMPI PUSH2 0x5BB PUSH2 0x3D8 JUMP JUMPDEST POP SDIV SWAP1 JUMP JUMPDEST PUSH1 0xFF DUP3 DUP2 AND DUP3 DUP3 AND SUB SWAP1 DUP2 GT ISZERO PUSH2 0x4C8 JUMPI PUSH2 0x4C8 PUSH2 0x3D8 JUMP INVALID LOG2 PUSH5 0x6970667358 0x22 SLT KECCAK256 JUMP LT JUMPDEST 0xF6 CALLDATASIZE CALLVALUE 0xC2 0x27 0xB1 BLOCKHASH 0xAC 0xEE PUSH29 0xC92079F74A5D187606980F3AB7F504252BD66164736F6C634300081800 CALLER "
				},
				"gasEstimates": {
					"creation": {
						"codeDepositCost": "310200",
						"executionCost": "347",
						"totalCost": "310547"
					},
					"external": {
						"getDerivedPrice(address,address,uint8)": "infinite",
						"scalePrice(int256,uint8,uint8)": "infinite"
					}
				},
				"methodIdentifiers": {
					"getDerivedPrice(address,address,uint8)": "97436655",
					"scalePrice(int256,uint8,uint8)": "d0a0758c"
				}
			},
			"storageLayout": {
				"storage": [],
				"types": null
			},
			"userdoc": {
				"kind": "user",
				"methods": {},
				"notice": "THIS IS AN EXAMPLE CONTRACT THAT USES HARDCODED VALUES FOR CLARITY. THIS IS AN EXAMPLE CONTRACT THAT USES UN-AUDITED CODE. DO NOT USE THIS CODE IN PRODUCTION.",
				"version": 1
			}
		}
	}
}