{
	"data": {
		"bytecode": {
			"linkReferences": {},
			"object": "600580546001600160a01b031916736e2dc0f9db014ae19888f539e59285d2ea04244c1790556101e060405261010560a08181529062001ad060c0396006906200004a908262000281565b506007805463ffffffff1916620493e01790557f66756e2d706f6c79676f6e2d6d756d6261692d310000000000000000000000006008553480156200008e57600080fd5b506005546001600160a01b03166080523380600081620000f55760405162461bcd60e51b815260206004820152601860248201527f43616e6e6f7420736574206f776e657220746f207a65726f000000000000000060448201526064015b60405180910390fd5b600080546001600160a01b0319166001600160a01b03848116919091179091558116156200012857620001288162000131565b5050506200034d565b336001600160a01b038216036200018b5760405162461bcd60e51b815260206004820152601760248201527f43616e6e6f74207472616e7366657220746f2073656c660000000000000000006044820152606401620000ec565b600180546001600160a01b0319166001600160a01b0383811691821790925560008054604051929316917fed8889f560326eb138920d842192f0eb3dd22b4f139c87a2c57538e05bae12789190a350565b634e487b7160e01b600052604160045260246000fd5b600181811c908216806200020757607f821691505b6020821081036200022857634e487b7160e01b600052602260045260246000fd5b50919050565b601f8211156200027c57600081815260208120601f850160051c81016020861015620002575750805b601f850160051c820191505b81811015620002785782815560010162000263565b5050505b505050565b81516001600160401b038111156200029d576200029d620001dc565b620002b581620002ae8454620001f2565b846200022e565b602080601f831160018114620002ed5760008415620002d45750858301515b600019600386901b1c1916600185901b17855562000278565b600085815260208120601f198616915b828110156200031e57888601518255948401946001909101908401620002fd565b50858210156200033d5787850151600019600388901b60f8161c191681555b5050505050600190811b01905550565b6080516117606200037060003960008181610156015261097401526117606000f3fe608060405234801561001057600080fd5b50600436106100a35760003560e01c80634d2e03a0116100765780638da5cb5b1161005b5780638da5cb5b14610114578063b1e217491461012f578063f2fde38b1461013857600080fd5b80634d2e03a01461010457806379ba50971461010c57600080fd5b80630ca76175146100a85780633944ea3a146100bd57806348a7d26d146100db5780634b0795a8146100fc575b600080fd5b6100bb6100b63660046110ff565b61014b565b005b6100c56101e8565b6040516100d291906111b2565b60405180910390f35b6100ee6100e93660046111c5565b610276565b6040519081526020016100d2565b6100c56103a6565b6100c56103b3565b6100bb6103c0565b6000546040516001600160a01b0390911681526020016100d2565b6100ee60025481565b6100bb610146366004611254565b610483565b336001600160a01b037f000000000000000000000000000000000000000000000000000000000000000016146101ad576040517fc6829f8300000000000000000000000000000000000000000000000000000000815260040160405180910390fd5b6101b8838383610497565b60405183907f85e1543bf2f84fe80c6badbce3648c8539ad1df4d2b3d822938ca0538be727e690600090a2505050565b600380546101f59061127d565b80601f01602080910402602001604051908101604052809291908181526020018280546102219061127d565b801561026e5780601f106102435761010080835404028352916020019161026e565b820191906000526020600020905b81548152906001019060200180831161025157829003601f168201915b505050505081565b6000610280610540565b6102c16040805160e0810190915280600081526020016000815260200160008152602001606081526020016060815260200160608152602001606081525090565b61035e600680546102d19061127d565b80601f01602080910402602001604051908101604052809291908181526020018280546102fd9061127d565b801561034a5780601f1061031f5761010080835404028352916020019161034a565b820191906000526020600020905b81548152906001019060200180831161032d57829003601f168201915b50505050508261059c90919063ffffffff16565b82156103785761037861037184866112b7565b82906105ad565b610398610384826105f0565b600754600854889163ffffffff169061096f565b600281905595945050505050565b600480546101f59061127d565b600980546101f59061127d565b6001546001600160a01b0316331461041f5760405162461bcd60e51b815260206004820152601660248201527f4d7573742062652070726f706f736564206f776e65720000000000000000000060448201526064015b60405180910390fd5b600080543373ffffffffffffffffffffffffffffffffffffffff19808316821784556001805490911690556040516001600160a01b0390921692909183917f8be0079c531659141344cd1fd0a4f28419497f9722a3daafe3b4186f6b6457e091a350565b61048b610540565b61049481610a41565b50565b82600254146104d5576040517fd068bf5b00000000000000000000000000000000000000000000000000000000815260048101849052602401610416565b60036104e1838261139d565b5060096104ee838261139d565b5060046104fb828261139d565b50827f160ed0aaffbef6885155188b91459cb5a97d5daadccf7561d8c46deea6641b50600960036004604051610533939291906114da565b60405180910390a2505050565b6000546001600160a01b0316331461059a5760405162461bcd60e51b815260206004820152601660248201527f4f6e6c792063616c6c61626c65206279206f776e6572000000000000000000006044820152606401610416565b565b6105a98260008084610af7565b5050565b80516000036105e8576040517ffe936cb700000000000000000000000000000000000000000000000000000000815260040160405180910390fd5b60a090910152565b606060006105ff610100610b8e565b90506106496040518060400160405280600c81526020017f636f64654c6f636174696f6e000000000000000000000000000000000000000081525082610baf90919063ffffffff16565b82516106679060028111156106605761066061151d565b8290610bcd565b60408051808201909152600881527f6c616e677561676500000000000000000000000000000000000000000000000060208201526106a6908290610baf565b60408301516106bd9080156106605761066061151d565b60408051808201909152600681527f736f75726365000000000000000000000000000000000000000000000000000060208201526106fc908290610baf565b606083015161070c908290610baf565b60a083015151156107b95760408051808201909152600481527f61726773000000000000000000000000000000000000000000000000000000006020820152610756908290610baf565b61075f81610c06565b60005b8360a00151518110156107af5761079f8460a00151828151811061078857610788611533565b602002602001015183610baf90919063ffffffff16565b6107a88161155f565b9050610762565b506107b981610c2a565b608083015151156108ba576000836020015160028111156107dc576107dc61151d565b03610813576040517fa80d31f700000000000000000000000000000000000000000000000000000000815260040160405180910390fd5b60408051808201909152600f81527f736563726574734c6f636174696f6e00000000000000000000000000000000006020820152610852908290610baf565b61086b836020015160028111156106605761066061151d565b60408051808201909152600781527f736563726574730000000000000000000000000000000000000000000000000060208201526108aa908290610baf565b60808301516108ba908290610c48565b60c083015151156109675760408051808201909152600981527f62797465734172677300000000000000000000000000000000000000000000006020820152610904908290610baf565b61090d81610c06565b60005b8360c001515181101561095d5761094d8460c00151828151811061093657610936611533565b602002602001015183610c4890919063ffffffff16565b6109568161155f565b9050610910565b5061096781610c2a565b515192915050565b6000807f00000000000000000000000000000000000000000000000000000000000000006001600160a01b031663461d27628688600188886040518663ffffffff1660e01b81526004016109c7959493929190611578565b6020604051808303816000875af11580156109e6573d6000803e3d6000fd5b505050506040513d601f19601f82011682018060405250810190610a0a91906115c2565b60405190915081907f1131472297a800fee664d1d89cfa8f7676ff07189ecc53f80bbb5f4969099db890600090a295945050505050565b336001600160a01b03821603610a995760405162461bcd60e51b815260206004820152601760248201527f43616e6e6f74207472616e7366657220746f2073656c660000000000000000006044820152606401610416565b6001805473ffffffffffffffffffffffffffffffffffffffff19166001600160a01b0383811691821790925560008054604051929316917fed8889f560326eb138920d842192f0eb3dd22b4f139c87a2c57538e05bae12789190a350565b8051600003610b32576040517f22ce3edd00000000000000000000000000000000000000000000000000000000815260040160405180910390fd5b83836002811115610b4557610b4561151d565b90816002811115610b5857610b5861151d565b90525060408401828015610b6e57610b6e61151d565b90818015610b7e57610b7e61151d565b9052506060909301929092525050565b610b9661100b565b8051610ba29083610c55565b5060006020820152919050565b610bbc8260038351610ccf565b8151610bc89082610df6565b505050565b8151610bda9060c2610e1e565b506105a98282604051602001610bf291815260200190565b604051602081830303815290604052610c48565b610c11816004610e87565b600181602001818151610c2491906115db565b90525050565b610c35816007610e87565b600181602001818151610c2491906115ee565b610bbc8260028351610ccf565b604080518082019091526060815260006020820152610c75602083611601565b15610c9d57610c85602083611601565b610c909060206115ee565b610c9a90836115db565b91505b602080840183905260405180855260008152908184010181811015610cc157600080fd5b604052508290505b92915050565b60178167ffffffffffffffff1611610cfc578251610cf69060e0600585901b168317610e1e565b50505050565b60ff8167ffffffffffffffff1611610d3e578251610d25906018611fe0600586901b1617610e1e565b508251610cf69067ffffffffffffffff83166001610e9e565b61ffff8167ffffffffffffffff1611610d81578251610d68906019611fe0600586901b1617610e1e565b508251610cf69067ffffffffffffffff83166002610e9e565b63ffffffff8167ffffffffffffffff1611610dc6578251610dad90601a611fe0600586901b1617610e1e565b508251610cf69067ffffffffffffffff83166004610e9e565b8251610ddd90601b611fe0600586901b1617610e1e565b508251610cf69067ffffffffffffffff83166008610e9e565b604080518082019091526060815260006020820152610e1783838451610f23565b9392505050565b6040805180820190915260608152600060208201528251516000610e438260016115db565b905084602001518210610e6457610e6485610e5f836002611623565b610ff4565b8451602083820101858153508051821115610e7d578181525b5093949350505050565b8151610bc890601f611fe0600585901b1617610e1e565b6040805180820190915260608152600060208201528351516000610ec282856115db565b90508560200151811115610edf57610edf86610e5f836002611623565b60006001610eef8661010061171e565b610ef991906115ee565b90508651828101878319825116178152508051831115610f17578281525b50959695505050505050565b6040805180820190915260608152600060208201528251821115610f4657600080fd5b8351516000610f5584836115db565b90508560200151811115610f7257610f7286610e5f836002611623565b855180518382016020019160009180851115610f8c578482525b505050602086015b60208610610fcc5780518252610fab6020836115db565b9150610fb86020826115db565b9050610fc56020876115ee565b9550610f94565b51815160001960208890036101000a0190811690199190911617905250849150509392505050565b81516110008383610c55565b50610cf68382610df6565b6040518060400160405280611033604051806040016040528060608152602001600081525090565b8152602001600081525090565b634e487b7160e01b600052604160045260246000fd5b604051601f8201601f1916810167ffffffffffffffff8111828210171561107f5761107f611040565b604052919050565b600067ffffffffffffffff8311156110a1576110a1611040565b6110b4601f8401601f1916602001611056565b90508281528383830111156110c857600080fd5b828260208301376000602084830101529392505050565b600082601f8301126110f057600080fd5b610e1783833560208501611087565b60008060006060848603121561111457600080fd5b83359250602084013567ffffffffffffffff8082111561113357600080fd5b61113f878388016110df565b9350604086013591508082111561115557600080fd5b50611162868287016110df565b9150509250925092565b6000815180845260005b8181101561119257602081850181015186830182015201611176565b506000602082860101526020601f19601f83011685010191505092915050565b602081526000610e17602083018461116c565b6000806000604084860312156111da57600080fd5b833567ffffffffffffffff80821682146111f357600080fd5b9093506020850135908082111561120957600080fd5b818601915086601f83011261121d57600080fd5b81358181111561122c57600080fd5b8760208260051b850101111561124157600080fd5b6020830194508093505050509250925092565b60006020828403121561126657600080fd5b81356001600160a01b0381168114610e1757600080fd5b600181811c9082168061129157607f821691505b6020821081036112b157634e487b7160e01b600052602260045260246000fd5b50919050565b600067ffffffffffffffff808411156112d2576112d2611040565b8360051b60206112e3818301611056565b8681529185019181810190368411156112fb57600080fd5b865b84811015611343578035868111156113155760008081fd5b880136601f8201126113275760008081fd5b611335368235878401611087565b8452509183019183016112fd565b50979650505050505050565b601f821115610bc857600081815260208120601f850160051c810160208610156113765750805b601f850160051c820191505b8181101561139557828155600101611382565b505050505050565b815167ffffffffffffffff8111156113b7576113b7611040565b6113cb816113c5845461127d565b8461134f565b602080601f83116001811461140057600084156113e85750858301515b600019600386901b1c1916600185901b178555611395565b600085815260208120601f198616915b8281101561142f57888601518255948401946001909101908401611410565b508582101561144d5787850151600019600388901b60f8161c191681555b5050505050600190811b01905550565b6000815461146a8161127d565b80855260206001838116801561148757600181146114a1576114cf565b60ff1985168884015283151560051b8801830195506114cf565b866000528260002060005b858110156114c75781548a82018601529083019084016114ac565b890184019650505b505050505092915050565b6060815260006114ed606083018661145d565b82810360208401526114ff818661145d565b90508281036040840152611513818561145d565b9695505050505050565b634e487b7160e01b600052602160045260246000fd5b634e487b7160e01b600052603260045260246000fd5b634e487b7160e01b600052601160045260246000fd5b60006001820161157157611571611549565b5060010190565b67ffffffffffffffff8616815260a06020820152600061159b60a083018761116c565b61ffff9590951660408301525063ffffffff92909216606083015260809091015292915050565b6000602082840312156115d457600080fd5b5051919050565b80820180821115610cc957610cc9611549565b81810381811115610cc957610cc9611549565b60008261161e57634e487b7160e01b600052601260045260246000fd5b500690565b8082028115828204841417610cc957610cc9611549565b600181815b8085111561167557816000190482111561165b5761165b611549565b8085161561166857918102915b93841c939080029061163f565b509250929050565b60008261168c57506001610cc9565b8161169957506000610cc9565b81600181146116af57600281146116b9576116d5565b6001915050610cc9565b60ff8411156116ca576116ca611549565b50506001821b610cc9565b5060208310610133831016604e8410600b84101617156116f8575081810a610cc9565b611702838361163a565b806000190482111561171657611716611549565b029392505050565b6000610e17838361167d56fea2646970667358221220596a6fc3ed8bb4d83890e72ee1f89d0319f6aa0ae9aa8bc49b03ab5a6015e3ae64736f6c63430008130033636f6e7374206368617261637465724964203d20617267735b305d3b636f6e737420617069526573706f6e7365203d2061776169742046756e6374696f6e732e6d616b654874747052657175657374287b75726c3a206068747470733a2f2f73776170692e696e666f2f6170692f70656f706c652f247b63686172616374657249647d2f607d293b69662028617069526573706f6e73652e6572726f7229207b7468726f77204572726f72282752657175657374206661696c656427293b7d636f6e7374207b2064617461207d203d20617069526573706f6e73653b72657475726e2046756e6374696f6e732e656e636f6465537472696e6728646174612e6e616d65293b",
			"opcodes": "PUSH1 0x5 DUP1 SLOAD PUSH1 0x1 PUSH1 0x1 PUSH1 0xA0 SHL SUB NOT AND PUSH20 0x6E2DC0F9DB014AE19888F539E59285D2EA04244C OR SWAP1 SSTORE PUSH2 0x1E0 PUSH1 0x40 MSTORE PUSH2 0x105 PUSH1 0xA0 DUP2 DUP2 MSTORE SWAP1 PUSH3 0x1AD0 PUSH1 0xC0 CODECOPY PUSH1 0x6 SWAP1 PUSH3 0x4A SWAP1 DUP3 PUSH3 0x281 JUMP JUMPDEST POP PUSH1 0x7 DUP1 SLOAD PUSH4 0xFFFFFFFF NOT AND PUSH3 0x493E0 OR SWAP1 SSTORE PUSH32 0x66756E2D706F6C79676F6E2D6D756D6261692D31000000000000000000000000 PUSH1 0x8 SSTORE CALLVALUE DUP1 ISZERO PUSH3 0x8E JUMPI PUSH1 0x0 DUP1 REVERT JUMPDEST POP PUSH1 0x5 SLOAD PUSH1 0x1 PUSH1 0x1 PUSH1 0xA0 SHL SUB AND PUSH1 0x80 MSTORE CALLER DUP1 PUSH1 0x0 DUP2 PUSH3 0xF5 JUMPI PUSH1 0x40 MLOAD PUSH3 0x461BCD PUSH1 0xE5 SHL DUP2 MSTORE PUSH1 0x20 PUSH1 0x4 DUP3 ADD MSTORE PUSH1 0x18 PUSH1 0x24 DUP3 ADD MSTORE PUSH32 0x43616E6E6F7420736574206F776E657220746F207A65726F0000000000000000 PUSH1 0x44 DUP3 ADD MSTORE PUSH1 0x64 ADD JUMPDEST PUSH1 0x40 MLOAD DUP1 SWAP2 SUB SWAP1 REVERT JUMPDEST PUSH1 0x0 DUP1 SLOAD PUSH1 0x1 PUSH1 0x1 PUSH1 0xA0 SHL SUB NOT AND PUSH1 0x1 PUSH1 0x1 PUSH1 0xA0 SHL SUB DUP5 DUP2 AND SWAP2 SWAP1 SWAP2 OR SWAP1 SWAP2 SSTORE DUP2 AND ISZERO PUSH3 0x128 JUMPI PUSH3 0x128 DUP2 PUSH3 0x131 JUMP JUMPDEST POP POP POP PUSH3 0x34D JUMP JUMPDEST CALLER PUSH1 0x1 PUSH1 0x1 PUSH1 0xA0 SHL SUB DUP3 AND SUB PUSH3 0x18B JUMPI PUSH1 0x40 MLOAD PUSH3 0x461BCD PUSH1 0xE5 SHL DUP2 MSTORE PUSH1 0x20 PUSH1 0x4 DUP3 ADD MSTORE PUSH1 0x17 PUSH1 0x24 DUP3 ADD MSTORE PUSH32 0x43616E6E6F74207472616E7366657220746F2073656C66000000000000000000 PUSH1 0x44 DUP3 ADD MSTORE PUSH1 0x64 ADD PUSH3 0xEC JUMP JUMPDEST PUSH1 0x1 DUP1 SLOAD PUSH1 0x1 PUSH1 0x1 PUSH1 0xA0 SHL SUB NOT AND PUSH1 0x1 PUSH1 0x1 PUSH1 0xA0 SHL SUB DUP4 DUP2 AND SWAP2 DUP3 OR SWAP1 SWAP3 SSTORE PUSH1 0x0 DUP1 SLOAD PUSH1 0x40 MLOAD SWAP3 SWAP4 AND SWAP2 PUSH32 0xED8889F560326EB138920D842192F0EB3DD22B4F139C87A2C57538E05BAE1278 SWAP2 SWAP1 LOG3 POP JUMP JUMPDEST PUSH4 0x4E487B71 PUSH1 0xE0 SHL PUSH1 0x0 MSTORE PUSH1 0x41 PUSH1 0x4 MSTORE PUSH1 0x24 PUSH1 0x0 REVERT JUMPDEST PUSH1 0x1 DUP2 DUP2 SHR SWAP1 DUP3 AND DUP1 PUSH3 0x207 JUMPI PUSH1 0x7F DUP3 AND SWAP2 POP JUMPDEST PUSH1 0x20 DUP3 LT DUP2 SUB PUSH3 0x228 JUMPI PUSH4 0x4E487B71 PUSH1 0xE0 SHL PUSH1 0x0 MSTORE PUSH1 0x22 PUSH1 0x4 MSTORE PUSH1 0x24 PUSH1 0x0 REVERT JUMPDEST POP SWAP2 SWAP1 POP JUMP JUMPDEST PUSH1 0x1F DUP3 GT ISZERO PUSH3 0x27C JUMPI PUSH1 0x0 DUP2 DUP2 MSTORE PUSH1 0x20 DUP2 KECCAK256 PUSH1 0x1F DUP6 ADD PUSH1 0x5 SHR DUP2 ADD PUSH1 0x20 DUP7 LT ISZERO PUSH3 0x257 JUMPI POP DUP1 JUMPDEST PUSH1 0x1F DUP6 ADD PUSH1 0x5 SHR DUP3 ADD SWAP2 POP JUMPDEST DUP2 DUP2 LT ISZERO PUSH3 0x278 JUMPI DUP3 DUP2 SSTORE PUSH1 0x1 ADD PUSH3 0x263 JUMP JUMPDEST POP POP POP JUMPDEST POP POP POP JUMP JUMPDEST DUP2 MLOAD PUSH1 0x1 PUSH1 0x1 PUSH1 0x40 SHL SUB DUP2 GT ISZERO PUSH3 0x29D JUMPI PUSH3 0x29D PUSH3 0x1DC JUMP JUMPDEST PUSH3 0x2B5 DUP2 PUSH3 0x2AE DUP5 SLOAD PUSH3 0x1F2 JUMP JUMPDEST DUP5 PUSH3 0x22E JUMP JUMPDEST PUSH1 0x20 DUP1 PUSH1 0x1F DUP4 GT PUSH1 0x1 DUP2 EQ PUSH3 0x2ED JUMPI PUSH1 0x0 DUP5 ISZERO PUSH3 0x2D4 JUMPI POP DUP6 DUP4 ADD MLOAD JUMPDEST PUSH1 0x0 NOT PUSH1 0x3 DUP7 SWAP1 SHL SHR NOT AND PUSH1 0x1 DUP6 SWAP1 SHL OR DUP6 SSTORE PUSH3 0x278 JUMP JUMPDEST PUSH1 0x0 DUP6 DUP2 MSTORE PUSH1 0x20 DUP2 KECCAK256 PUSH1 0x1F NOT DUP7 AND SWAP2 JUMPDEST DUP3 DUP2 LT ISZERO PUSH3 0x31E JUMPI DUP9 DUP7 ADD MLOAD DUP3 SSTORE SWAP5 DUP5 ADD SWAP5 PUSH1 0x1 SWAP1 SWAP2 ADD SWAP1 DUP5 ADD PUSH3 0x2FD JUMP JUMPDEST POP DUP6 DUP3 LT ISZERO PUSH3 0x33D JUMPI DUP8 DUP6 ADD MLOAD PUSH1 0x0 NOT PUSH1 0x3 DUP9 SWAP1 SHL PUSH1 0xF8 AND SHR NOT AND DUP2 SSTORE JUMPDEST POP POP POP POP POP PUSH1 0x1 SWAP1 DUP2 SHL ADD SWAP1 SSTORE POP JUMP JUMPDEST PUSH1 0x80 MLOAD PUSH2 0x1760 PUSH3 0x370 PUSH1 0x0 CODECOPY PUSH1 0x0 DUP2 DUP2 PUSH2 0x156 ADD MSTORE PUSH2 0x974 ADD MSTORE PUSH2 0x1760 PUSH1 0x0 RETURN INVALID PUSH1 0x80 PUSH1 0x40 MSTORE CALLVALUE DUP1 ISZERO PUSH2 0x10 JUMPI PUSH1 0x0 DUP1 REVERT JUMPDEST POP PUSH1 0x4 CALLDATASIZE LT PUSH2 0xA3 JUMPI PUSH1 0x0 CALLDATALOAD PUSH1 0xE0 SHR DUP1 PUSH4 0x4D2E03A0 GT PUSH2 0x76 JUMPI DUP1 PUSH4 0x8DA5CB5B GT PUSH2 0x5B JUMPI DUP1 PUSH4 0x8DA5CB5B EQ PUSH2 0x114 JUMPI DUP1 PUSH4 0xB1E21749 EQ PUSH2 0x12F JUMPI DUP1 PUSH4 0xF2FDE38B EQ PUSH2 0x138 JUMPI PUSH1 0x0 DUP1 REVERT JUMPDEST DUP1 PUSH4 0x4D2E03A0 EQ PUSH2 0x104 JUMPI DUP1 PUSH4 0x79BA5097 EQ PUSH2 0x10C JUMPI PUSH1 0x0 DUP1 REVERT JUMPDEST DUP1 PUSH4 0xCA76175 EQ PUSH2 0xA8 JUMPI DUP1 PUSH4 0x3944EA3A EQ PUSH2 0xBD JUMPI DUP1 PUSH4 0x48A7D26D EQ PUSH2 0xDB JUMPI DUP1 PUSH4 0x4B0795A8 EQ PUSH2 0xFC JUMPI JUMPDEST PUSH1 0x0 DUP1 REVERT JUMPDEST PUSH2 0xBB PUSH2 0xB6 CALLDATASIZE PUSH1 0x4 PUSH2 0x10FF JUMP JUMPDEST PUSH2 0x14B JUMP JUMPDEST STOP JUMPDEST PUSH2 0xC5 PUSH2 0x1E8 JUMP JUMPDEST PUSH1 0x40 MLOAD PUSH2 0xD2 SWAP2 SWAP1 PUSH2 0x11B2 JUMP JUMPDEST PUSH1 0x40 MLOAD DUP1 SWAP2 SUB SWAP1 RETURN JUMPDEST PUSH2 0xEE PUSH2 0xE9 CALLDATASIZE PUSH1 0x4 PUSH2 0x11C5 JUMP JUMPDEST PUSH2 0x276 JUMP JUMPDEST PUSH1 0x40 MLOAD SWAP1 DUP2 MSTORE PUSH1 0x20 ADD PUSH2 0xD2 JUMP JUMPDEST PUSH2 0xC5 PUSH2 0x3A6 JUMP JUMPDEST PUSH2 0xC5 PUSH2 0x3B3 JUMP JUMPDEST PUSH2 0xBB PUSH2 0x3C0 JUMP JUMPDEST PUSH1 0x0 SLOAD PUSH1 0x40 MLOAD PUSH1 0x1 PUSH1 0x1 PUSH1 0xA0 SHL SUB SWAP1 SWAP2 AND DUP2 MSTORE PUSH1 0x20 ADD PUSH2 0xD2 JUMP JUMPDEST PUSH2 0xEE PUSH1 0x2 SLOAD DUP2 JUMP JUMPDEST PUSH2 0xBB PUSH2 0x146 CALLDATASIZE PUSH1 0x4 PUSH2 0x1254 JUMP JUMPDEST PUSH2 0x483 JUMP JUMPDEST CALLER PUSH1 0x1 PUSH1 0x1 PUSH1 0xA0 SHL SUB PUSH32 0x0 AND EQ PUSH2 0x1AD JUMPI PUSH1 0x40 MLOAD PUSH32 0xC6829F8300000000000000000000000000000000000000000000000000000000 DUP2 MSTORE PUSH1 0x4 ADD PUSH1 0x40 MLOAD DUP1 SWAP2 SUB SWAP1 REVERT JUMPDEST PUSH2 0x1B8 DUP4 DUP4 DUP4 PUSH2 0x497 JUMP JUMPDEST PUSH1 0x40 MLOAD DUP4 SWAP1 PUSH32 0x85E1543BF2F84FE80C6BADBCE3648C8539AD1DF4D2B3D822938CA0538BE727E6 SWAP1 PUSH1 0x0 SWAP1 LOG2 POP POP POP JUMP JUMPDEST PUSH1 0x3 DUP1 SLOAD PUSH2 0x1F5 SWAP1 PUSH2 0x127D JUMP JUMPDEST DUP1 PUSH1 0x1F ADD PUSH1 0x20 DUP1 SWAP2 DIV MUL PUSH1 0x20 ADD PUSH1 0x40 MLOAD SWAP1 DUP2 ADD PUSH1 0x40 MSTORE DUP1 SWAP3 SWAP2 SWAP1 DUP2 DUP2 MSTORE PUSH1 0x20 ADD DUP3 DUP1 SLOAD PUSH2 0x221 SWAP1 PUSH2 0x127D JUMP JUMPDEST DUP1 ISZERO PUSH2 0x26E JUMPI DUP1 PUSH1 0x1F LT PUSH2 0x243 JUMPI PUSH2 0x100 DUP1 DUP4 SLOAD DIV MUL DUP4 MSTORE SWAP2 PUSH1 0x20 ADD SWAP2 PUSH2 0x26E JUMP JUMPDEST DUP3 ADD SWAP2 SWAP1 PUSH1 0x0 MSTORE PUSH1 0x20 PUSH1 0x0 KECCAK256 SWAP1 JUMPDEST DUP2 SLOAD DUP2 MSTORE SWAP1 PUSH1 0x1 ADD SWAP1 PUSH1 0x20 ADD DUP1 DUP4 GT PUSH2 0x251 JUMPI DUP3 SWAP1 SUB PUSH1 0x1F AND DUP3 ADD SWAP2 JUMPDEST POP POP POP POP POP DUP2 JUMP JUMPDEST PUSH1 0x0 PUSH2 0x280 PUSH2 0x540 JUMP JUMPDEST PUSH2 0x2C1 PUSH1 0x40 DUP1 MLOAD PUSH1 0xE0 DUP2 ADD SWAP1 SWAP2 MSTORE DUP1 PUSH1 0x0 DUP2 MSTORE PUSH1 0x20 ADD PUSH1 0x0 DUP2 MSTORE PUSH1 0x20 ADD PUSH1 0x0 DUP2 MSTORE PUSH1 0x20 ADD PUSH1 0x60 DUP2 MSTORE PUSH1 0x20 ADD PUSH1 0x60 DUP2 MSTORE PUSH1 0x20 ADD PUSH1 0x60 DUP2 MSTORE PUSH1 0x20 ADD PUSH1 0x60 DUP2 MSTORE POP SWAP1 JUMP JUMPDEST PUSH2 0x35E PUSH1 0x6 DUP1 SLOAD PUSH2 0x2D1 SWAP1 PUSH2 0x127D JUMP JUMPDEST DUP1 PUSH1 0x1F ADD PUSH1 0x20 DUP1 SWAP2 DIV MUL PUSH1 0x20 ADD PUSH1 0x40 MLOAD SWAP1 DUP2 ADD PUSH1 0x40 MSTORE DUP1 SWAP3 SWAP2 SWAP1 DUP2 DUP2 MSTORE PUSH1 0x20 ADD DUP3 DUP1 SLOAD PUSH2 0x2FD SWAP1 PUSH2 0x127D JUMP JUMPDEST DUP1 ISZERO PUSH2 0x34A JUMPI DUP1 PUSH1 0x1F LT PUSH2 0x31F JUMPI PUSH2 0x100 DUP1 DUP4 SLOAD DIV MUL DUP4 MSTORE SWAP2 PUSH1 0x20 ADD SWAP2 PUSH2 0x34A JUMP JUMPDEST DUP3 ADD SWAP2 SWAP1 PUSH1 0x0 MSTORE PUSH1 0x20 PUSH1 0x0 KECCAK256 SWAP1 JUMPDEST DUP2 SLOAD DUP2 MSTORE SWAP1 PUSH1 0x1 ADD SWAP1 PUSH1 0x20 ADD DUP1 DUP4 GT PUSH2 0x32D JUMPI DUP3 SWAP1 SUB PUSH1 0x1F AND DUP3 ADD SWAP2 JUMPDEST POP POP POP POP POP DUP3 PUSH2 0x59C SWAP1 SWAP2 SWAP1 PUSH4 0xFFFFFFFF AND JUMP JUMPDEST DUP3 ISZERO PUSH2 0x378 JUMPI PUSH2 0x378 PUSH2 0x371 DUP5 DUP7 PUSH2 0x12B7 JUMP JUMPDEST DUP3 SWAP1 PUSH2 0x5AD JUMP JUMPDEST PUSH2 0x398 PUSH2 0x384 DUP3 PUSH2 0x5F0 JUMP JUMPDEST PUSH1 0x7 SLOAD PUSH1 0x8 SLOAD DUP9 SWAP2 PUSH4 0xFFFFFFFF AND SWAP1 PUSH2 0x96F JUMP JUMPDEST PUSH1 0x2 DUP2 SWAP1 SSTORE SWAP6 SWAP5 POP POP POP POP POP JUMP JUMPDEST PUSH1 0x4 DUP1 SLOAD PUSH2 0x1F5 SWAP1 PUSH2 0x127D JUMP JUMPDEST PUSH1 0x9 DUP1 SLOAD PUSH2 0x1F5 SWAP1 PUSH2 0x127D JUMP JUMPDEST PUSH1 0x1 SLOAD PUSH1 0x1 PUSH1 0x1 PUSH1 0xA0 SHL SUB AND CALLER EQ PUSH2 0x41F JUMPI PUSH1 0x40 MLOAD PUSH3 0x461BCD PUSH1 0xE5 SHL DUP2 MSTORE PUSH1 0x20 PUSH1 0x4 DUP3 ADD MSTORE PUSH1 0x16 PUSH1 0x24 DUP3 ADD MSTORE PUSH32 0x4D7573742062652070726F706F736564206F776E657200000000000000000000 PUSH1 0x44 DUP3 ADD MSTORE PUSH1 0x64 ADD JUMPDEST PUSH1 0x40 MLOAD DUP1 SWAP2 SUB SWAP1 REVERT JUMPDEST PUSH1 0x0 DUP1 SLOAD CALLER PUSH20 0xFFFFFFFFFFFFFFFFFFFFFFFFFFFFFFFFFFFFFFFF NOT DUP1 DUP4 AND DUP3 OR DUP5 SSTORE PUSH1 0x1 DUP1 SLOAD SWAP1 SWAP2 AND SWAP1 SSTORE PUSH1 0x40 MLOAD PUSH1 0x1 PUSH1 0x1 PUSH1 0xA0 SHL SUB SWAP1 SWAP3 AND SWAP3 SWAP1 SWAP2 DUP4 SWAP2 PUSH32 0x8BE0079C531659141344CD1FD0A4F28419497F9722A3DAAFE3B4186F6B6457E0 SWAP2 LOG3 POP JUMP JUMPDEST PUSH2 0x48B PUSH2 0x540 JUMP JUMPDEST PUSH2 0x494 DUP2 PUSH2 0xA41 JUMP JUMPDEST POP JUMP JUMPDEST DUP3 PUSH1 0x2 SLOAD EQ PUSH2 0x4D5 JUMPI PUSH1 0x40 MLOAD PUSH32 0xD068BF5B00000000000000000000000000000000000000000000000000000000 DUP2 MSTORE PUSH1 0x4 DUP2 ADD DUP5 SWAP1 MSTORE PUSH1 0x24 ADD PUSH2 0x416 JUMP JUMPDEST PUSH1 0x3 PUSH2 0x4E1 DUP4 DUP3 PUSH2 0x139D JUMP JUMPDEST POP PUSH1 0x9 PUSH2 0x4EE DUP4 DUP3 PUSH2 0x139D JUMP JUMPDEST POP PUSH1 0x4 PUSH2 0x4FB DUP3 DUP3 PUSH2 0x139D JUMP JUMPDEST POP DUP3 PUSH32 0x160ED0AAFFBEF6885155188B91459CB5A97D5DAADCCF7561D8C46DEEA6641B50 PUSH1 0x9 PUSH1 0x3 PUSH1 0x4 PUSH1 0x40 MLOAD PUSH2 0x533 SWAP4 SWAP3 SWAP2 SWAP1 PUSH2 0x14DA JUMP JUMPDEST PUSH1 0x40 MLOAD DUP1 SWAP2 SUB SWAP1 LOG2 POP POP POP JUMP JUMPDEST PUSH1 0x0 SLOAD PUSH1 0x1 PUSH1 0x1 PUSH1 0xA0 SHL SUB AND CALLER EQ PUSH2 0x59A JUMPI PUSH1 0x40 MLOAD PUSH3 0x461BCD PUSH1 0xE5 SHL DUP2 MSTORE PUSH1 0x20 PUSH1 0x4 DUP3 ADD MSTORE PUSH1 0x16 PUSH1 0x24 DUP3 ADD MSTORE PUSH32 0x4F6E6C792063616C6C61626C65206279206F776E657200000000000000000000 PUSH1 0x44 DUP3 ADD MSTORE PUSH1 0x64 ADD PUSH2 0x416 JUMP JUMPDEST JUMP JUMPDEST PUSH2 0x5A9 DUP3 PUSH1 0x0 DUP1 DUP5 PUSH2 0xAF7 JUMP JUMPDEST POP POP JUMP JUMPDEST DUP1 MLOAD PUSH1 0x0 SUB PUSH2 0x5E8 JUMPI PUSH1 0x40 MLOAD PUSH32 0xFE936CB700000000000000000000000000000000000000000000000000000000 DUP2 MSTORE PUSH1 0x4 ADD PUSH1 0x40 MLOAD DUP1 SWAP2 SUB SWAP1 REVERT JUMPDEST PUSH1 0xA0 SWAP1 SWAP2 ADD MSTORE JUMP JUMPDEST PUSH1 0x60 PUSH1 0x0 PUSH2 0x5FF PUSH2 0x100 PUSH2 0xB8E JUMP JUMPDEST SWAP1 POP PUSH2 0x649 PUSH1 0x40 MLOAD DUP1 PUSH1 0x40 ADD PUSH1 0x40 MSTORE DUP1 PUSH1 0xC DUP2 MSTORE PUSH1 0x20 ADD PUSH32 0x636F64654C6F636174696F6E0000000000000000000000000000000000000000 DUP2 MSTORE POP DUP3 PUSH2 0xBAF SWAP1 SWAP2 SWAP1 PUSH4 0xFFFFFFFF AND JUMP JUMPDEST DUP3 MLOAD PUSH2 0x667 SWAP1 PUSH1 0x2 DUP2 GT ISZERO PUSH2 0x660 JUMPI PUSH2 0x660 PUSH2 0x151D JUMP JUMPDEST DUP3 SWAP1 PUSH2 0xBCD JUMP JUMPDEST PUSH1 0x40 DUP1 MLOAD DUP1 DUP3 ADD SWAP1 SWAP2 MSTORE PUSH1 0x8 DUP2 MSTORE PUSH32 0x6C616E6775616765000000000000000000000000000000000000000000000000 PUSH1 0x20 DUP3 ADD MSTORE PUSH2 0x6A6 SWAP1 DUP3 SWAP1 PUSH2 0xBAF JUMP JUMPDEST PUSH1 0x40 DUP4 ADD MLOAD PUSH2 0x6BD SWAP1 DUP1 ISZERO PUSH2 0x660 JUMPI PUSH2 0x660 PUSH2 0x151D JUMP JUMPDEST PUSH1 0x40 DUP1 MLOAD DUP1 DUP3 ADD SWAP1 SWAP2 MSTORE PUSH1 0x6 DUP2 MSTORE PUSH32 0x736F757263650000000000000000000000000000000000000000000000000000 PUSH1 0x20 DUP3 ADD MSTORE PUSH2 0x6FC SWAP1 DUP3 SWAP1 PUSH2 0xBAF JUMP JUMPDEST PUSH1 0x60 DUP4 ADD MLOAD PUSH2 0x70C SWAP1 DUP3 SWAP1 PUSH2 0xBAF JUMP JUMPDEST PUSH1 0xA0 DUP4 ADD MLOAD MLOAD ISZERO PUSH2 0x7B9 JUMPI PUSH1 0x40 DUP1 MLOAD DUP1 DUP3 ADD SWAP1 SWAP2 MSTORE PUSH1 0x4 DUP2 MSTORE PUSH32 0x6172677300000000000000000000000000000000000000000000000000000000 PUSH1 0x20 DUP3 ADD MSTORE PUSH2 0x756 SWAP1 DUP3 SWAP1 PUSH2 0xBAF JUMP JUMPDEST PUSH2 0x75F DUP2 PUSH2 0xC06 JUMP JUMPDEST PUSH1 0x0 JUMPDEST DUP4 PUSH1 0xA0 ADD MLOAD MLOAD DUP2 LT ISZERO PUSH2 0x7AF JUMPI PUSH2 0x79F DUP5 PUSH1 0xA0 ADD MLOAD DUP3 DUP2 MLOAD DUP2 LT PUSH2 0x788 JUMPI PUSH2 0x788 PUSH2 0x1533 JUMP JUMPDEST PUSH1 0x20 MUL PUSH1 0x20 ADD ADD MLOAD DUP4 PUSH2 0xBAF SWAP1 SWAP2 SWAP1 PUSH4 0xFFFFFFFF AND JUMP JUMPDEST PUSH2 0x7A8 DUP2 PUSH2 0x155F JUMP JUMPDEST SWAP1 POP PUSH2 0x762 JUMP JUMPDEST POP PUSH2 0x7B9 DUP2 PUSH2 0xC2A JUMP JUMPDEST PUSH1 0x80 DUP4 ADD MLOAD MLOAD ISZERO PUSH2 0x8BA JUMPI PUSH1 0x0 DUP4 PUSH1 0x20 ADD MLOAD PUSH1 0x2 DUP2 GT ISZERO PUSH2 0x7DC JUMPI PUSH2 0x7DC PUSH2 0x151D JUMP JUMPDEST SUB PUSH2 0x813 JUMPI PUSH1 0x40 MLOAD PUSH32 0xA80D31F700000000000000000000000000000000000000000000000000000000 DUP2 MSTORE PUSH1 0x4 ADD PUSH1 0x40 MLOAD DUP1 SWAP2 SUB SWAP1 REVERT JUMPDEST PUSH1 0x40 DUP1 MLOAD DUP1 DUP3 ADD SWAP1 SWAP2 MSTORE PUSH1 0xF DUP2 MSTORE PUSH32 0x736563726574734C6F636174696F6E0000000000000000000000000000000000 PUSH1 0x20 DUP3 ADD MSTORE PUSH2 0x852 SWAP1 DUP3 SWAP1 PUSH2 0xBAF JUMP JUMPDEST PUSH2 0x86B DUP4 PUSH1 0x20 ADD MLOAD PUSH1 0x2 DUP2 GT ISZERO PUSH2 0x660 JUMPI PUSH2 0x660 PUSH2 0x151D JUMP JUMPDEST PUSH1 0x40 DUP1 MLOAD DUP1 DUP3 ADD SWAP1 SWAP2 MSTORE PUSH1 0x7 DUP2 MSTORE PUSH32 0x7365637265747300000000000000000000000000000000000000000000000000 PUSH1 0x20 DUP3 ADD MSTORE PUSH2 0x8AA SWAP1 DUP3 SWAP1 PUSH2 0xBAF JUMP JUMPDEST PUSH1 0x80 DUP4 ADD MLOAD PUSH2 0x8BA SWAP1 DUP3 SWAP1 PUSH2 0xC48 JUMP JUMPDEST PUSH1 0xC0 DUP4 ADD MLOAD MLOAD ISZERO PUSH2 0x967 JUMPI PUSH1 0x40 DUP1 MLOAD DUP1 DUP3 ADD SWAP1 SWAP2 MSTORE PUSH1 0x9 DUP2 MSTORE PUSH32 0x6279746573417267730000000000000000000000000000000000000000000000 PUSH1 0x20 DUP3 ADD MSTORE PUSH2 0x904 SWAP1 DUP3 SWAP1 PUSH2 0xBAF JUMP JUMPDEST PUSH2 0x90D DUP2 PUSH2 0xC06 JUMP JUMPDEST PUSH1 0x0 JUMPDEST DUP4 PUSH1 0xC0 ADD MLOAD MLOAD DUP2 LT ISZERO PUSH2 0x95D JUMPI PUSH2 0x94D DUP5 PUSH1 0xC0 ADD MLOAD DUP3 DUP2 MLOAD DUP2 LT PUSH2 0x936 JUMPI PUSH2 0x936 PUSH2 0x1533 JUMP JUMPDEST PUSH1 0x20 MUL PUSH1 0x20 ADD ADD MLOAD DUP4 PUSH2 0xC48 SWAP1 SWAP2 SWAP1 PUSH4 0xFFFFFFFF AND JUMP JUMPDEST PUSH2 0x956 DUP2 PUSH2 0x155F JUMP JUMPDEST SWAP1 POP PUSH2 0x910 JUMP JUMPDEST POP PUSH2 0x967 DUP2 PUSH2 0xC2A JUMP JUMPDEST MLOAD MLOAD SWAP3 SWAP2 POP POP JUMP JUMPDEST PUSH1 0x0 DUP1 PUSH32 0x0 PUSH1 0x1 PUSH1 0x1 PUSH1 0xA0 SHL SUB AND PUSH4 0x461D2762 DUP7 DUP9 PUSH1 0x1 DUP9 DUP9 PUSH1 0x40 MLOAD DUP7 PUSH4 0xFFFFFFFF AND PUSH1 0xE0 SHL DUP2 MSTORE PUSH1 0x4 ADD PUSH2 0x9C7 SWAP6 SWAP5 SWAP4 SWAP3 SWAP2 SWAP1 PUSH2 0x1578 JUMP JUMPDEST PUSH1 0x20 PUSH1 0x40 MLOAD DUP1 DUP4 SUB DUP2 PUSH1 0x0 DUP8 GAS CALL ISZERO DUP1 ISZERO PUSH2 0x9E6 JUMPI RETURNDATASIZE PUSH1 0x0 DUP1 RETURNDATACOPY RETURNDATASIZE PUSH1 0x0 REVERT JUMPDEST POP POP POP POP PUSH1 0x40 MLOAD RETURNDATASIZE PUSH1 0x1F NOT PUSH1 0x1F DUP3 ADD AND DUP3 ADD DUP1 PUSH1 0x40 MSTORE POP DUP2 ADD SWAP1 PUSH2 0xA0A SWAP2 SWAP1 PUSH2 0x15C2 JUMP JUMPDEST PUSH1 0x40 MLOAD SWAP1 SWAP2 POP DUP2 SWAP1 PUSH32 0x1131472297A800FEE664D1D89CFA8F7676FF07189ECC53F80BBB5F4969099DB8 SWAP1 PUSH1 0x0 SWAP1 LOG2 SWAP6 SWAP5 POP POP POP POP POP JUMP JUMPDEST CALLER PUSH1 0x1 PUSH1 0x1 PUSH1 0xA0 SHL SUB DUP3 AND SUB PUSH2 0xA99 JUMPI PUSH1 0x40 MLOAD PUSH3 0x461BCD PUSH1 0xE5 SHL DUP2 MSTORE PUSH1 0x20 PUSH1 0x4 DUP3 ADD MSTORE PUSH1 0x17 PUSH1 0x24 DUP3 ADD MSTORE PUSH32 0x43616E6E6F74207472616E7366657220746F2073656C66000000000000000000 PUSH1 0x44 DUP3 ADD MSTORE PUSH1 0x64 ADD PUSH2 0x416 JUMP JUMPDEST PUSH1 0x1 DUP1 SLOAD PUSH20 0xFFFFFFFFFFFFFFFFFFFFFFFFFFFFFFFFFFFFFFFF NOT AND PUSH1 0x1 PUSH1 0x1 PUSH1 0xA0 SHL SUB DUP4 DUP2 AND SWAP2 DUP3 OR SWAP1 SWAP3 SSTORE PUSH1 0x0 DUP1 SLOAD PUSH1 0x40 MLOAD SWAP3 SWAP4 AND SWAP2 PUSH32 0xED8889F560326EB138920D842192F0EB3DD22B4F139C87A2C57538E05BAE1278 SWAP2 SWAP1 LOG3 POP JUMP JUMPDEST DUP1 MLOAD PUSH1 0x0 SUB PUSH2 0xB32 JUMPI PUSH1 0x40 MLOAD PUSH32 0x22CE3EDD00000000000000000000000000000000000000000000000000000000 DUP2 MSTORE PUSH1 0x4 ADD PUSH1 0x40 MLOAD DUP1 SWAP2 SUB SWAP1 REVERT JUMPDEST DUP4 DUP4 PUSH1 0x2 DUP2 GT ISZERO PUSH2 0xB45 JUMPI PUSH2 0xB45 PUSH2 0x151D JUMP JUMPDEST SWAP1 DUP2 PUSH1 0x2 DUP2 GT ISZERO PUSH2 0xB58 JUMPI PUSH2 0xB58 PUSH2 0x151D JUMP JUMPDEST SWAP1 MSTORE POP PUSH1 0x40 DUP5 ADD DUP3 DUP1 ISZERO PUSH2 0xB6E JUMPI PUSH2 0xB6E PUSH2 0x151D JUMP JUMPDEST SWAP1 DUP2 DUP1 ISZERO PUSH2 0xB7E JUMPI PUSH2 0xB7E PUSH2 0x151D JUMP JUMPDEST SWAP1 MSTORE POP PUSH1 0x60 SWAP1 SWAP4 ADD SWAP3 SWAP1 SWAP3 MSTORE POP POP JUMP JUMPDEST PUSH2 0xB96 PUSH2 0x100B JUMP JUMPDEST DUP1 MLOAD PUSH2 0xBA2 SWAP1 DUP4 PUSH2 0xC55 JUMP JUMPDEST POP PUSH1 0x0 PUSH1 0x20 DUP3 ADD MSTORE SWAP2 SWAP1 POP JUMP JUMPDEST PUSH2 0xBBC DUP3 PUSH1 0x3 DUP4 MLOAD PUSH2 0xCCF JUMP JUMPDEST DUP2 MLOAD PUSH2 0xBC8 SWAP1 DUP3 PUSH2 0xDF6 JUMP JUMPDEST POP POP POP JUMP JUMPDEST DUP2 MLOAD PUSH2 0xBDA SWAP1 PUSH1 0xC2 PUSH2 0xE1E JUMP JUMPDEST POP PUSH2 0x5A9 DUP3 DUP3 PUSH1 0x40 MLOAD PUSH1 0x20 ADD PUSH2 0xBF2 SWAP2 DUP2 MSTORE PUSH1 0x20 ADD SWAP1 JUMP JUMPDEST PUSH1 0x40 MLOAD PUSH1 0x20 DUP2 DUP4 SUB SUB DUP2 MSTORE SWAP1 PUSH1 0x40 MSTORE PUSH2 0xC48 JUMP JUMPDEST PUSH2 0xC11 DUP2 PUSH1 0x4 PUSH2 0xE87 JUMP JUMPDEST PUSH1 0x1 DUP2 PUSH1 0x20 ADD DUP2 DUP2 MLOAD PUSH2 0xC24 SWAP2 SWAP1 PUSH2 0x15DB JUMP JUMPDEST SWAP1 MSTORE POP POP JUMP JUMPDEST PUSH2 0xC35 DUP2 PUSH1 0x7 PUSH2 0xE87 JUMP JUMPDEST PUSH1 0x1 DUP2 PUSH1 0x20 ADD DUP2 DUP2 MLOAD PUSH2 0xC24 SWAP2 SWAP1 PUSH2 0x15EE JUMP JUMPDEST PUSH2 0xBBC DUP3 PUSH1 0x2 DUP4 MLOAD PUSH2 0xCCF JUMP JUMPDEST PUSH1 0x40 DUP1 MLOAD DUP1 DUP3 ADD SWAP1 SWAP2 MSTORE PUSH1 0x60 DUP2 MSTORE PUSH1 0x0 PUSH1 0x20 DUP3 ADD MSTORE PUSH2 0xC75 PUSH1 0x20 DUP4 PUSH2 0x1601 JUMP JUMPDEST ISZERO PUSH2 0xC9D JUMPI PUSH2 0xC85 PUSH1 0x20 DUP4 PUSH2 0x1601 JUMP JUMPDEST PUSH2 0xC90 SWAP1 PUSH1 0x20 PUSH2 0x15EE JUMP JUMPDEST PUSH2 0xC9A SWAP1 DUP4 PUSH2 0x15DB JUMP JUMPDEST SWAP2 POP JUMPDEST PUSH1 0x20 DUP1 DUP5 ADD DUP4 SWAP1 MSTORE PUSH1 0x40 MLOAD DUP1 DUP6 MSTORE PUSH1 0x0 DUP2 MSTORE SWAP1 DUP2 DUP5 ADD ADD DUP2 DUP2 LT ISZERO PUSH2 0xCC1 JUMPI PUSH1 0x0 DUP1 REVERT JUMPDEST PUSH1 0x40 MSTORE POP DUP3 SWAP1 POP JUMPDEST SWAP3 SWAP2 POP POP JUMP JUMPDEST PUSH1 0x17 DUP2 PUSH8 0xFFFFFFFFFFFFFFFF AND GT PUSH2 0xCFC JUMPI DUP3 MLOAD PUSH2 0xCF6 SWAP1 PUSH1 0xE0 PUSH1 0x5 DUP6 SWAP1 SHL AND DUP4 OR PUSH2 0xE1E JUMP JUMPDEST POP POP POP POP JUMP JUMPDEST PUSH1 0xFF DUP2 PUSH8 0xFFFFFFFFFFFFFFFF AND GT PUSH2 0xD3E JUMPI DUP3 MLOAD PUSH2 0xD25 SWAP1 PUSH1 0x18 PUSH2 0x1FE0 PUSH1 0x5 DUP7 SWAP1 SHL AND OR PUSH2 0xE1E JUMP JUMPDEST POP DUP3 MLOAD PUSH2 0xCF6 SWAP1 PUSH8 0xFFFFFFFFFFFFFFFF DUP4 AND PUSH1 0x1 PUSH2 0xE9E JUMP JUMPDEST PUSH2 0xFFFF DUP2 PUSH8 0xFFFFFFFFFFFFFFFF AND GT PUSH2 0xD81 JUMPI DUP3 MLOAD PUSH2 0xD68 SWAP1 PUSH1 0x19 PUSH2 0x1FE0 PUSH1 0x5 DUP7 SWAP1 SHL AND OR PUSH2 0xE1E JUMP JUMPDEST POP DUP3 MLOAD PUSH2 0xCF6 SWAP1 PUSH8 0xFFFFFFFFFFFFFFFF DUP4 AND PUSH1 0x2 PUSH2 0xE9E JUMP JUMPDEST PUSH4 0xFFFFFFFF DUP2 PUSH8 0xFFFFFFFFFFFFFFFF AND GT PUSH2 0xDC6 JUMPI DUP3 MLOAD PUSH2 0xDAD SWAP1 PUSH1 0x1A PUSH2 0x1FE0 PUSH1 0x5 DUP7 SWAP1 SHL AND OR PUSH2 0xE1E JUMP JUMPDEST POP DUP3 MLOAD PUSH2 0xCF6 SWAP1 PUSH8 0xFFFFFFFFFFFFFFFF DUP4 AND PUSH1 0x4 PUSH2 0xE9E JUMP JUMPDEST DUP3 MLOAD PUSH2 0xDDD SWAP1 PUSH1 0x1B PUSH2 0x1FE0 PUSH1 0x5 DUP7 SWAP1 SHL AND OR PUSH2 0xE1E JUMP JUMPDEST POP DUP3 MLOAD PUSH2 0xCF6 SWAP1 PUSH8 0xFFFFFFFFFFFFFFFF DUP4 AND PUSH1 0x8 PUSH2 0xE9E JUMP JUMPDEST PUSH1 0x40 DUP1 MLOAD DUP1 DUP3 ADD SWAP1 SWAP2 MSTORE PUSH1 0x60 DUP2 MSTORE PUSH1 0x0 PUSH1 0x20 DUP3 ADD MSTORE PUSH2 0xE17 DUP4 DUP4 DUP5 MLOAD PUSH2 0xF23 JUMP JUMPDEST SWAP4 SWAP3 POP POP POP JUMP JUMPDEST PUSH1 0x40 DUP1 MLOAD DUP1 DUP3 ADD SWAP1 SWAP2 MSTORE PUSH1 0x60 DUP2 MSTORE PUSH1 0x0 PUSH1 0x20 DUP3 ADD MSTORE DUP3 MLOAD MLOAD PUSH1 0x0 PUSH2 0xE43 DUP3 PUSH1 0x1 PUSH2 0x15DB JUMP JUMPDEST SWAP1 POP DUP5 PUSH1 0x20 ADD MLOAD DUP3 LT PUSH2 0xE64 JUMPI PUSH2 0xE64 DUP6 PUSH2 0xE5F DUP4 PUSH1 0x2 PUSH2 0x1623 JUMP JUMPDEST PUSH2 0xFF4 JUMP JUMPDEST DUP5 MLOAD PUSH1 0x20 DUP4 DUP3 ADD ADD DUP6 DUP2 MSTORE8 POP DUP1 MLOAD DUP3 GT ISZERO PUSH2 0xE7D JUMPI DUP2 DUP2 MSTORE JUMPDEST POP SWAP4 SWAP5 SWAP4 POP POP POP POP JUMP JUMPDEST DUP2 MLOAD PUSH2 0xBC8 SWAP1 PUSH1 0x1F PUSH2 0x1FE0 PUSH1 0x5 DUP6 SWAP1 SHL AND OR PUSH2 0xE1E JUMP JUMPDEST PUSH1 0x40 DUP1 MLOAD DUP1 DUP3 ADD SWAP1 SWAP2 MSTORE PUSH1 0x60 DUP2 MSTORE PUSH1 0x0 PUSH1 0x20 DUP3 ADD MSTORE DUP4 MLOAD MLOAD PUSH1 0x0 PUSH2 0xEC2 DUP3 DUP6 PUSH2 0x15DB JUMP JUMPDEST SWAP1 POP DUP6 PUSH1 0x20 ADD MLOAD DUP2 GT ISZERO PUSH2 0xEDF JUMPI PUSH2 0xEDF DUP7 PUSH2 0xE5F DUP4 PUSH1 0x2 PUSH2 0x1623 JUMP JUMPDEST PUSH1 0x0 PUSH1 0x1 PUSH2 0xEEF DUP7 PUSH2 0x100 PUSH2 0x171E JUMP JUMPDEST PUSH2 0xEF9 SWAP2 SWAP1 PUSH2 0x15EE JUMP JUMPDEST SWAP1 POP DUP7 MLOAD DUP3 DUP2 ADD DUP8 DUP4 NOT DUP3 MLOAD AND OR DUP2 MSTORE POP DUP1 MLOAD DUP4 GT ISZERO PUSH2 0xF17 JUMPI DUP3 DUP2 MSTORE JUMPDEST POP SWAP6 SWAP7 SWAP6 POP POP POP POP POP POP JUMP JUMPDEST PUSH1 0x40 DUP1 MLOAD DUP1 DUP3 ADD SWAP1 SWAP2 MSTORE PUSH1 0x60 DUP2 MSTORE PUSH1 0x0 PUSH1 0x20 DUP3 ADD MSTORE DUP3 MLOAD DUP3 GT ISZERO PUSH2 0xF46 JUMPI PUSH1 0x0 DUP1 REVERT JUMPDEST DUP4 MLOAD MLOAD PUSH1 0x0 PUSH2 0xF55 DUP5 DUP4 PUSH2 0x15DB JUMP JUMPDEST SWAP1 POP DUP6 PUSH1 0x20 ADD MLOAD DUP2 GT ISZERO PUSH2 0xF72 JUMPI PUSH2 0xF72 DUP7 PUSH2 0xE5F DUP4 PUSH1 0x2 PUSH2 0x1623 JUMP JUMPDEST DUP6 MLOAD DUP1 MLOAD DUP4 DUP3 ADD PUSH1 0x20 ADD SWAP2 PUSH1 0x0 SWAP2 DUP1 DUP6 GT ISZERO PUSH2 0xF8C JUMPI DUP5 DUP3 MSTORE JUMPDEST POP POP POP PUSH1 0x20 DUP7 ADD JUMPDEST PUSH1 0x20 DUP7 LT PUSH2 0xFCC JUMPI DUP1 MLOAD DUP3 MSTORE PUSH2 0xFAB PUSH1 0x20 DUP4 PUSH2 0x15DB JUMP JUMPDEST SWAP2 POP PUSH2 0xFB8 PUSH1 0x20 DUP3 PUSH2 0x15DB JUMP JUMPDEST SWAP1 POP PUSH2 0xFC5 PUSH1 0x20 DUP8 PUSH2 0x15EE JUMP JUMPDEST SWAP6 POP PUSH2 0xF94 JUMP JUMPDEST MLOAD DUP2 MLOAD PUSH1 0x0 NOT PUSH1 0x20 DUP9 SWAP1 SUB PUSH2 0x100 EXP ADD SWAP1 DUP2 AND SWAP1 NOT SWAP2 SWAP1 SWAP2 AND OR SWAP1 MSTORE POP DUP5 SWAP2 POP POP SWAP4 SWAP3 POP POP POP JUMP JUMPDEST DUP2 MLOAD PUSH2 0x1000 DUP4 DUP4 PUSH2 0xC55 JUMP JUMPDEST POP PUSH2 0xCF6 DUP4 DUP3 PUSH2 0xDF6 JUMP JUMPDEST PUSH1 0x40 MLOAD DUP1 PUSH1 0x40 ADD PUSH1 0x40 MSTORE DUP1 PUSH2 0x1033 PUSH1 0x40 MLOAD DUP1 PUSH1 0x40 ADD PUSH1 0x40 MSTORE DUP1 PUSH1 0x60 DUP2 MSTORE PUSH1 0x20 ADD PUSH1 0x0 DUP2 MSTORE POP SWAP1 JUMP JUMPDEST DUP2 MSTORE PUSH1 0x20 ADD PUSH1 0x0 DUP2 MSTORE POP SWAP1 JUMP JUMPDEST PUSH4 0x4E487B71 PUSH1 0xE0 SHL PUSH1 0x0 MSTORE PUSH1 0x41 PUSH1 0x4 MSTORE PUSH1 0x24 PUSH1 0x0 REVERT JUMPDEST PUSH1 0x40 MLOAD PUSH1 0x1F DUP3 ADD PUSH1 0x1F NOT AND DUP2 ADD PUSH8 0xFFFFFFFFFFFFFFFF DUP2 GT DUP3 DUP3 LT OR ISZERO PUSH2 0x107F JUMPI PUSH2 0x107F PUSH2 0x1040 JUMP JUMPDEST PUSH1 0x40 MSTORE SWAP2 SWAP1 POP JUMP JUMPDEST PUSH1 0x0 PUSH8 0xFFFFFFFFFFFFFFFF DUP4 GT ISZERO PUSH2 0x10A1 JUMPI PUSH2 0x10A1 PUSH2 0x1040 JUMP JUMPDEST PUSH2 0x10B4 PUSH1 0x1F DUP5 ADD PUSH1 0x1F NOT AND PUSH1 0x20 ADD PUSH2 0x1056 JUMP JUMPDEST SWAP1 POP DUP3 DUP2 MSTORE DUP4 DUP4 DUP4 ADD GT ISZERO PUSH2 0x10C8 JUMPI PUSH1 0x0 DUP1 REVERT JUMPDEST DUP3 DUP3 PUSH1 0x20 DUP4 ADD CALLDATACOPY PUSH1 0x0 PUSH1 0x20 DUP5 DUP4 ADD ADD MSTORE SWAP4 SWAP3 POP POP POP JUMP JUMPDEST PUSH1 0x0 DUP3 PUSH1 0x1F DUP4 ADD SLT PUSH2 0x10F0 JUMPI PUSH1 0x0 DUP1 REVERT JUMPDEST PUSH2 0xE17 DUP4 DUP4 CALLDATALOAD PUSH1 0x20 DUP6 ADD PUSH2 0x1087 JUMP JUMPDEST PUSH1 0x0 DUP1 PUSH1 0x0 PUSH1 0x60 DUP5 DUP7 SUB SLT ISZERO PUSH2 0x1114 JUMPI PUSH1 0x0 DUP1 REVERT JUMPDEST DUP4 CALLDATALOAD SWAP3 POP PUSH1 0x20 DUP5 ADD CALLDATALOAD PUSH8 0xFFFFFFFFFFFFFFFF DUP1 DUP3 GT ISZERO PUSH2 0x1133 JUMPI PUSH1 0x0 DUP1 REVERT JUMPDEST PUSH2 0x113F DUP8 DUP4 DUP9 ADD PUSH2 0x10DF JUMP JUMPDEST SWAP4 POP PUSH1 0x40 DUP7 ADD CALLDATALOAD SWAP2 POP DUP1 DUP3 GT ISZERO PUSH2 0x1155 JUMPI PUSH1 0x0 DUP1 REVERT JUMPDEST POP PUSH2 0x1162 DUP7 DUP3 DUP8 ADD PUSH2 0x10DF JUMP JUMPDEST SWAP2 POP POP SWAP3 POP SWAP3 POP SWAP3 JUMP JUMPDEST PUSH1 0x0 DUP2 MLOAD DUP1 DUP5 MSTORE PUSH1 0x0 JUMPDEST DUP2 DUP2 LT ISZERO PUSH2 0x1192 JUMPI PUSH1 0x20 DUP2 DUP6 ADD DUP2 ADD MLOAD DUP7 DUP4 ADD DUP3 ADD MSTORE ADD PUSH2 0x1176 JUMP JUMPDEST POP PUSH1 0x0 PUSH1 0x20 DUP3 DUP7 ADD ADD MSTORE PUSH1 0x20 PUSH1 0x1F NOT PUSH1 0x1F DUP4 ADD AND DUP6 ADD ADD SWAP2 POP POP SWAP3 SWAP2 POP POP JUMP JUMPDEST PUSH1 0x20 DUP2 MSTORE PUSH1 0x0 PUSH2 0xE17 PUSH1 0x20 DUP4 ADD DUP5 PUSH2 0x116C JUMP JUMPDEST PUSH1 0x0 DUP1 PUSH1 0x0 PUSH1 0x40 DUP5 DUP7 SUB SLT ISZERO PUSH2 0x11DA JUMPI PUSH1 0x0 DUP1 REVERT JUMPDEST DUP4 CALLDATALOAD PUSH8 0xFFFFFFFFFFFFFFFF DUP1 DUP3 AND DUP3 EQ PUSH2 0x11F3 JUMPI PUSH1 0x0 DUP1 REVERT JUMPDEST SWAP1 SWAP4 POP PUSH1 0x20 DUP6 ADD CALLDATALOAD SWAP1 DUP1 DUP3 GT ISZERO PUSH2 0x1209 JUMPI PUSH1 0x0 DUP1 REVERT JUMPDEST DUP2 DUP7 ADD SWAP2 POP DUP7 PUSH1 0x1F DUP4 ADD SLT PUSH2 0x121D JUMPI PUSH1 0x0 DUP1 REVERT JUMPDEST DUP2 CALLDATALOAD DUP2 DUP2 GT ISZERO PUSH2 0x122C JUMPI PUSH1 0x0 DUP1 REVERT JUMPDEST DUP8 PUSH1 0x20 DUP3 PUSH1 0x5 SHL DUP6 ADD ADD GT ISZERO PUSH2 0x1241 JUMPI PUSH1 0x0 DUP1 REVERT JUMPDEST PUSH1 0x20 DUP4 ADD SWAP5 POP DUP1 SWAP4 POP POP POP POP SWAP3 POP SWAP3 POP SWAP3 JUMP JUMPDEST PUSH1 0x0 PUSH1 0x20 DUP3 DUP5 SUB SLT ISZERO PUSH2 0x1266 JUMPI PUSH1 0x0 DUP1 REVERT JUMPDEST DUP2 CALLDATALOAD PUSH1 0x1 PUSH1 0x1 PUSH1 0xA0 SHL SUB DUP2 AND DUP2 EQ PUSH2 0xE17 JUMPI PUSH1 0x0 DUP1 REVERT JUMPDEST PUSH1 0x1 DUP2 DUP2 SHR SWAP1 DUP3 AND DUP1 PUSH2 0x1291 JUMPI PUSH1 0x7F DUP3 AND SWAP2 POP JUMPDEST PUSH1 0x20 DUP3 LT DUP2 SUB PUSH2 0x12B1 JUMPI PUSH4 0x4E487B71 PUSH1 0xE0 SHL PUSH1 0x0 MSTORE PUSH1 0x22 PUSH1 0x4 MSTORE PUSH1 0x24 PUSH1 0x0 REVERT JUMPDEST POP SWAP2 SWAP1 POP JUMP JUMPDEST PUSH1 0x0 PUSH8 0xFFFFFFFFFFFFFFFF DUP1 DUP5 GT ISZERO PUSH2 0x12D2 JUMPI PUSH2 0x12D2 PUSH2 0x1040 JUMP JUMPDEST DUP4 PUSH1 0x5 SHL PUSH1 0x20 PUSH2 0x12E3 DUP2 DUP4 ADD PUSH2 0x1056 JUMP JUMPDEST DUP7 DUP2 MSTORE SWAP2 DUP6 ADD SWAP2 DUP2 DUP2 ADD SWAP1 CALLDATASIZE DUP5 GT ISZERO PUSH2 0x12FB JUMPI PUSH1 0x0 DUP1 REVERT JUMPDEST DUP7 JUMPDEST DUP5 DUP2 LT ISZERO PUSH2 0x1343 JUMPI DUP1 CALLDATALOAD DUP7 DUP2 GT ISZERO PUSH2 0x1315 JUMPI PUSH1 0x0 DUP1 DUP2 REVERT JUMPDEST DUP9 ADD CALLDATASIZE PUSH1 0x1F DUP3 ADD SLT PUSH2 0x1327 JUMPI PUSH1 0x0 DUP1 DUP2 REVERT JUMPDEST PUSH2 0x1335 CALLDATASIZE DUP3 CALLDATALOAD DUP8 DUP5 ADD PUSH2 0x1087 JUMP JUMPDEST DUP5 MSTORE POP SWAP2 DUP4 ADD SWAP2 DUP4 ADD PUSH2 0x12FD JUMP JUMPDEST POP SWAP8 SWAP7 POP POP POP POP POP POP POP JUMP JUMPDEST PUSH1 0x1F DUP3 GT ISZERO PUSH2 0xBC8 JUMPI PUSH1 0x0 DUP2 DUP2 MSTORE PUSH1 0x20 DUP2 KECCAK256 PUSH1 0x1F DUP6 ADD PUSH1 0x5 SHR DUP2 ADD PUSH1 0x20 DUP7 LT ISZERO PUSH2 0x1376 JUMPI POP DUP1 JUMPDEST PUSH1 0x1F DUP6 ADD PUSH1 0x5 SHR DUP3 ADD SWAP2 POP JUMPDEST DUP2 DUP2 LT ISZERO PUSH2 0x1395 JUMPI DUP3 DUP2 SSTORE PUSH1 0x1 ADD PUSH2 0x1382 JUMP JUMPDEST POP POP POP POP POP POP JUMP JUMPDEST DUP2 MLOAD PUSH8 0xFFFFFFFFFFFFFFFF DUP2 GT ISZERO PUSH2 0x13B7 JUMPI PUSH2 0x13B7 PUSH2 0x1040 JUMP JUMPDEST PUSH2 0x13CB DUP2 PUSH2 0x13C5 DUP5 SLOAD PUSH2 0x127D JUMP JUMPDEST DUP5 PUSH2 0x134F JUMP JUMPDEST PUSH1 0x20 DUP1 PUSH1 0x1F DUP4 GT PUSH1 0x1 DUP2 EQ PUSH2 0x1400 JUMPI PUSH1 0x0 DUP5 ISZERO PUSH2 0x13E8 JUMPI POP DUP6 DUP4 ADD MLOAD JUMPDEST PUSH1 0x0 NOT PUSH1 0x3 DUP7 SWAP1 SHL SHR NOT AND PUSH1 0x1 DUP6 SWAP1 SHL OR DUP6 SSTORE PUSH2 0x1395 JUMP JUMPDEST PUSH1 0x0 DUP6 DUP2 MSTORE PUSH1 0x20 DUP2 KECCAK256 PUSH1 0x1F NOT DUP7 AND SWAP2 JUMPDEST DUP3 DUP2 LT ISZERO PUSH2 0x142F JUMPI DUP9 DUP7 ADD MLOAD DUP3 SSTORE SWAP5 DUP5 ADD SWAP5 PUSH1 0x1 SWAP1 SWAP2 ADD SWAP1 DUP5 ADD PUSH2 0x1410 JUMP JUMPDEST POP DUP6 DUP3 LT ISZERO PUSH2 0x144D JUMPI DUP8 DUP6 ADD MLOAD PUSH1 0x0 NOT PUSH1 0x3 DUP9 SWAP1 SHL PUSH1 0xF8 AND SHR NOT AND DUP2 SSTORE JUMPDEST POP POP POP POP POP PUSH1 0x1 SWAP1 DUP2 SHL ADD SWAP1 SSTORE POP JUMP JUMPDEST PUSH1 0x0 DUP2 SLOAD PUSH2 0x146A DUP2 PUSH2 0x127D JUMP JUMPDEST DUP1 DUP6 MSTORE PUSH1 0x20 PUSH1 0x1 DUP4 DUP2 AND DUP1 ISZERO PUSH2 0x1487 JUMPI PUSH1 0x1 DUP2 EQ PUSH2 0x14A1 JUMPI PUSH2 0x14CF JUMP JUMPDEST PUSH1 0xFF NOT DUP6 AND DUP9 DUP5 ADD MSTORE DUP4 ISZERO ISZERO PUSH1 0x5 SHL DUP9 ADD DUP4 ADD SWAP6 POP PUSH2 0x14CF JUMP JUMPDEST DUP7 PUSH1 0x0 MSTORE DUP3 PUSH1 0x0 KECCAK256 PUSH1 0x0 JUMPDEST DUP6 DUP2 LT ISZERO PUSH2 0x14C7 JUMPI DUP2 SLOAD DUP11 DUP3 ADD DUP7 ADD MSTORE SWAP1 DUP4 ADD SWAP1 DUP5 ADD PUSH2 0x14AC JUMP JUMPDEST DUP10 ADD DUP5 ADD SWAP7 POP POP JUMPDEST POP POP POP POP POP SWAP3 SWAP2 POP POP JUMP JUMPDEST PUSH1 0x60 DUP2 MSTORE PUSH1 0x0 PUSH2 0x14ED PUSH1 0x60 DUP4 ADD DUP7 PUSH2 0x145D JUMP JUMPDEST DUP3 DUP2 SUB PUSH1 0x20 DUP5 ADD MSTORE PUSH2 0x14FF DUP2 DUP7 PUSH2 0x145D JUMP JUMPDEST SWAP1 POP DUP3 DUP2 SUB PUSH1 0x40 DUP5 ADD MSTORE PUSH2 0x1513 DUP2 DUP6 PUSH2 0x145D JUMP JUMPDEST SWAP7 SWAP6 POP POP POP POP POP POP JUMP JUMPDEST PUSH4 0x4E487B71 PUSH1 0xE0 SHL PUSH1 0x0 MSTORE PUSH1 0x21 PUSH1 0x4 MSTORE PUSH1 0x24 PUSH1 0x0 REVERT JUMPDEST PUSH4 0x4E487B71 PUSH1 0xE0 SHL PUSH1 0x0 MSTORE PUSH1 0x32 PUSH1 0x4 MSTORE PUSH1 0x24 PUSH1 0x0 REVERT JUMPDEST PUSH4 0x4E487B71 PUSH1 0xE0 SHL PUSH1 0x0 MSTORE PUSH1 0x11 PUSH1 0x4 MSTORE PUSH1 0x24 PUSH1 0x0 REVERT JUMPDEST PUSH1 0x0 PUSH1 0x1 DUP3 ADD PUSH2 0x1571 JUMPI PUSH2 0x1571 PUSH2 0x1549 JUMP JUMPDEST POP PUSH1 0x1 ADD SWAP1 JUMP JUMPDEST PUSH8 0xFFFFFFFFFFFFFFFF DUP7 AND DUP2 MSTORE PUSH1 0xA0 PUSH1 0x20 DUP3 ADD MSTORE PUSH1 0x0 PUSH2 0x159B PUSH1 0xA0 DUP4 ADD DUP8 PUSH2 0x116C JUMP JUMPDEST PUSH2 0xFFFF SWAP6 SWAP1 SWAP6 AND PUSH1 0x40 DUP4 ADD MSTORE POP PUSH4 0xFFFFFFFF SWAP3 SWAP1 SWAP3 AND PUSH1 0x60 DUP4 ADD MSTORE PUSH1 0x80 SWAP1 SWAP2 ADD MSTORE SWAP3 SWAP2 POP POP JUMP JUMPDEST PUSH1 0x0 PUSH1 0x20 DUP3 DUP5 SUB SLT ISZERO PUSH2 0x15D4 JUMPI PUSH1 0x0 DUP1 REVERT JUMPDEST POP MLOAD SWAP2 SWAP1 POP JUMP JUMPDEST DUP1 DUP3 ADD DUP1 DUP3 GT ISZERO PUSH2 0xCC9 JUMPI PUSH2 0xCC9 PUSH2 0x1549 JUMP JUMPDEST DUP2 DUP2 SUB DUP2 DUP2 GT ISZERO PUSH2 0xCC9 JUMPI PUSH2 0xCC9 PUSH2 0x1549 JUMP JUMPDEST PUSH1 0x0 DUP3 PUSH2 0x161E JUMPI PUSH4 0x4E487B71 PUSH1 0xE0 SHL PUSH1 0x0 MSTORE PUSH1 0x12 PUSH1 0x4 MSTORE PUSH1 0x24 PUSH1 0x0 REVERT JUMPDEST POP MOD SWAP1 JUMP JUMPDEST DUP1 DUP3 MUL DUP2 ISZERO DUP3 DUP3 DIV DUP5 EQ OR PUSH2 0xCC9 JUMPI PUSH2 0xCC9 PUSH2 0x1549 JUMP JUMPDEST PUSH1 0x1 DUP2 DUP2 JUMPDEST DUP1 DUP6 GT ISZERO PUSH2 0x1675 JUMPI DUP2 PUSH1 0x0 NOT DIV DUP3 GT ISZERO PUSH2 0x165B JUMPI PUSH2 0x165B PUSH2 0x1549 JUMP JUMPDEST DUP1 DUP6 AND ISZERO PUSH2 0x1668 JUMPI SWAP2 DUP2 MUL SWAP2 JUMPDEST SWAP4 DUP5 SHR SWAP4 SWAP1 DUP1 MUL SWAP1 PUSH2 0x163F JUMP JUMPDEST POP SWAP3 POP SWAP3 SWAP1 POP JUMP JUMPDEST PUSH1 0x0 DUP3 PUSH2 0x168C JUMPI POP PUSH1 0x1 PUSH2 0xCC9 JUMP JUMPDEST DUP2 PUSH2 0x1699 JUMPI POP PUSH1 0x0 PUSH2 0xCC9 JUMP JUMPDEST DUP2 PUSH1 0x1 DUP2 EQ PUSH2 0x16AF JUMPI PUSH1 0x2 DUP2 EQ PUSH2 0x16B9 JUMPI PUSH2 0x16D5 JUMP JUMPDEST PUSH1 0x1 SWAP2 POP POP PUSH2 0xCC9 JUMP JUMPDEST PUSH1 0xFF DUP5 GT ISZERO PUSH2 0x16CA JUMPI PUSH2 0x16CA PUSH2 0x1549 JUMP JUMPDEST POP POP PUSH1 0x1 DUP3 SHL PUSH2 0xCC9 JUMP JUMPDEST POP PUSH1 0x20 DUP4 LT PUSH2 0x133 DUP4 LT AND PUSH1 0x4E DUP5 LT PUSH1 0xB DUP5 LT AND OR ISZERO PUSH2 0x16F8 JUMPI POP DUP2 DUP2 EXP PUSH2 0xCC9 JUMP JUMPDEST PUSH2 0x1702 DUP4 DUP4 PUSH2 0x163A JUMP JUMPDEST DUP1 PUSH1 0x0 NOT DIV DUP3 GT ISZERO PUSH2 0x1716 JUMPI PUSH2 0x1716 PUSH2 0x1549 JUMP JUMPDEST MUL SWAP4 SWAP3 POP POP POP JUMP JUMPDEST PUSH1 0x0 PUSH2 0xE17 DUP4 DUP4 PUSH2 0x167D JUMP INVALID LOG2 PUSH5 0x6970667358 0x22 SLT KECCAK256 MSIZE PUSH11 0x6FC3ED8BB4D83890E72EE1 0xF8 SWAP14 SUB NOT 0xF6 0xAA EXP 0xE9 0xAA DUP12 0xC4 SWAP12 SUB 0xAB GAS PUSH1 0x15 0xE3 0xAE PUSH5 0x736F6C6343 STOP ADDMOD SGT STOP CALLER PUSH4 0x6F6E7374 KECCAK256 PUSH4 0x68617261 PUSH4 0x74657249 PUSH5 0x203D206172 PUSH8 0x735B305D3B636F6E PUSH20 0x7420617069526573706F6E7365203D2061776169 PUSH21 0x2046756E6374696F6E732E6D616B65487474705265 PUSH18 0x75657374287B75726C3A206068747470733A 0x2F 0x2F PUSH20 0x776170692E696E666F2F6170692F70656F706C65 0x2F 0x24 PUSH28 0x63686172616374657249647D2F607D293B6966202861706952657370 PUSH16 0x6E73652E6572726F7229207B7468726F PUSH24 0x204572726F72282752657175657374206661696C65642729 EXTCODESIZE PUSH30 0x636F6E7374207B2064617461207D203D20617069526573706F6E73653B72 PUSH6 0x7475726E2046 PUSH22 0x6E6374696F6E732E656E636F6465537472696E672864 PUSH2 0x7461 0x2E PUSH15 0x616D65293B00000000000000000000 "
		},
		"gasEstimates": {
			"creation": {
				"codeDepositCost": "1196800",
				"executionCost": "infinite",
				"totalCost": "infinite"
			},
			"external": {
				"acceptOwnership()": "52332",
				"character()": "infinite",
				"handleOracleFulfillment(bytes32,bytes,bytes)": "infinite",
				"owner()": "2323",
				"s_lastError()": "infinite",
				"s_lastRequestId()": "2339",
				"s_lastResponse()": "infinite",
				"sendRequest(uint64,string[])": "infinite",
				"transferOwnership(address)": "30455"
			},
			"internal": {
				"fulfillRequest(bytes32,bytes memory,bytes memory)": "infinite"
			}
		},
		"methodIdentifiers": {
			"acceptOwnership()": "79ba5097",
			"character()": "4d2e03a0",
			"handleOracleFulfillment(bytes32,bytes,bytes)": "0ca76175",
			"owner()": "8da5cb5b",
			"s_lastError()": "4b0795a8",
			"s_lastRequestId()": "b1e21749",
			"s_lastResponse()": "3944ea3a",
			"sendRequest(uint64,string[])": "48a7d26d",
			"transferOwnership(address)": "f2fde38b"
		}
	},
	"abi": [
		{
			"inputs": [],
			"stateMutability": "nonpayable",
			"type": "constructor"
		},
		{
			"inputs": [],
			"name": "EmptyArgs",
			"type": "error"
		},
		{
			"inputs": [],
			"name": "EmptySource",
			"type": "error"
		},
		{
			"inputs": [],
			"name": "NoInlineSecrets",
			"type": "error"
		},
		{
			"inputs": [],
			"name": "OnlyRouterCanFulfill",
			"type": "error"
		},
		{
			"inputs": [
				{
					"internalType": "bytes32",
					"name": "requestId",
					"type": "bytes32"
				}
			],
			"name": "UnexpectedRequestID",
			"type": "error"
		},
		{
			"anonymous": false,
			"inputs": [
				{
					"indexed": true,
					"internalType": "address",
					"name": "from",
					"type": "address"
				},
				{
					"indexed": true,
					"internalType": "address",
					"name": "to",
					"type": "address"
				}
			],
			"name": "OwnershipTransferRequested",
			"type": "event"
		},
		{
			"anonymous": false,
			"inputs": [
				{
					"indexed": true,
					"internalType": "address",
					"name": "from",
					"type": "address"
				},
				{
					"indexed": true,
					"internalType": "address",
					"name": "to",
					"type": "address"
				}
			],
			"name": "OwnershipTransferred",
			"type": "event"
		},
		{
			"anonymous": false,
			"inputs": [
				{
					"indexed": true,
					"internalType": "bytes32",
					"name": "id",
					"type": "bytes32"
				}
			],
			"name": "RequestFulfilled",
			"type": "event"
		},
		{
			"anonymous": false,
			"inputs": [
				{
					"indexed": true,
					"internalType": "bytes32",
					"name": "id",
					"type": "bytes32"
				}
			],
			"name": "RequestSent",
			"type": "event"
		},
		{
			"anonymous": false,
			"inputs": [
				{
					"indexed": true,
					"internalType": "bytes32",
					"name": "requestId",
					"type": "bytes32"
				},
				{
					"indexed": false,
					"internalType": "string",
					"name": "character",
					"type": "string"
				},
				{
					"indexed": false,
					"internalType": "bytes",
					"name": "response",
					"type": "bytes"
				},
				{
					"indexed": false,
					"internalType": "bytes",
					"name": "err",
					"type": "bytes"
				}
			],
			"name": "Response",
			"type": "event"
		},
		{
			"inputs": [],
			"name": "acceptOwnership",
			"outputs": [],
			"stateMutability": "nonpayable",
			"type": "function"
		},
		{
			"inputs": [],
			"name": "character",
			"outputs": [
				{
					"internalType": "string",
					"name": "",
					"type": "string"
				}
			],
			"stateMutability": "view",
			"type": "function"
		},
		{
			"inputs": [
				{
					"internalType": "bytes32",
					"name": "requestId",
					"type": "bytes32"
				},
				{
					"internalType": "bytes",
					"name": "response",
					"type": "bytes"
				},
				{
					"internalType": "bytes",
					"name": "err",
					"type": "bytes"
				}
			],
			"name": "handleOracleFulfillment",
			"outputs": [],
			"stateMutability": "nonpayable",
			"type": "function"
		},
		{
			"inputs": [],
			"name": "owner",
			"outputs": [
				{
					"internalType": "address",
					"name": "",
					"type": "address"
				}
			],
			"stateMutability": "view",
			"type": "function"
		},
		{
			"inputs": [],
			"name": "s_lastError",
			"outputs": [
				{
					"internalType": "bytes",
					"name": "",
					"type": "bytes"
				}
			],
			"stateMutability": "view",
			"type": "function"
		},
		{
			"inputs": [],
			"name": "s_lastRequestId",
			"outputs": [
				{
					"internalType": "bytes32",
					"name": "",
					"type": "bytes32"
				}
			],
			"stateMutability": "view",
			"type": "function"
		},
		{
			"inputs": [],
			"name": "s_lastResponse",
			"outputs": [
				{
					"internalType": "bytes",
					"name": "",
					"type": "bytes"
				}
			],
			"stateMutability": "view",
			"type": "function"
		},
		{
			"inputs": [
				{
					"internalType": "uint64",
					"name": "subscriptionId",
					"type": "uint64"
				},
				{
					"internalType": "string[]",
					"name": "args",
					"type": "string[]"
				}
			],
			"name": "sendRequest",
			"outputs": [
				{
					"internalType": "bytes32",
					"name": "requestId",
					"type": "bytes32"
				}
			],
			"stateMutability": "nonpayable",
			"type": "function"
		},
		{
			"inputs": [
				{
					"internalType": "address",
					"name": "to",
					"type": "address"
				}
			],
			"name": "transferOwnership",
			"outputs": [],
			"stateMutability": "nonpayable",
			"type": "function"
		}
	]
}