{
	"CCIP/Sender.sol": {
		"Sender": {
			"abi": [
				{
					"inputs": [
						{
							"internalType": "address",
							"name": "_router",
							"type": "address"
						},
						{
							"internalType": "address",
							"name": "_link",
							"type": "address"
						}
					],
					"stateMutability": "nonpayable",
					"type": "constructor"
				},
				{
					"inputs": [
						{
							"internalType": "uint256",
							"name": "currentBalance",
							"type": "uint256"
						},
						{
							"internalType": "uint256",
							"name": "calculatedFees",
							"type": "uint256"
						}
					],
					"name": "NotEnoughBalance",
					"type": "error"
				},
				{
					"anonymous": false,
					"inputs": [
						{
							"indexed": true,
							"internalType": "bytes32",
							"name": "messageId",
							"type": "bytes32"
						},
						{
							"indexed": true,
							"internalType": "uint64",
							"name": "destinationChainSelector",
							"type": "uint64"
						},
						{
							"indexed": false,
							"internalType": "address",
							"name": "receiver",
							"type": "address"
						},
						{
							"indexed": false,
							"internalType": "string",
							"name": "text",
							"type": "string"
						},
						{
							"indexed": false,
							"internalType": "address",
							"name": "feeToken",
							"type": "address"
						},
						{
							"indexed": false,
							"internalType": "uint256",
							"name": "fees",
							"type": "uint256"
						}
					],
					"name": "MessageSent",
					"type": "event"
				},
				{
					"anonymous": false,
					"inputs": [
						{
							"indexed": true,
							"internalType": "address",
							"name": "from",
							"type": "address"
						},
						{
							"indexed": true,
							"internalType": "address",
							"name": "to",
							"type": "address"
						}
					],
					"name": "OwnershipTransferRequested",
					"type": "event"
				},
				{
					"anonymous": false,
					"inputs": [
						{
							"indexed": true,
							"internalType": "address",
							"name": "from",
							"type": "address"
						},
						{
							"indexed": true,
							"internalType": "address",
							"name": "to",
							"type": "address"
						}
					],
					"name": "OwnershipTransferred",
					"type": "event"
				},
				{
					"inputs": [],
					"name": "acceptOwnership",
					"outputs": [],
					"stateMutability": "nonpayable",
					"type": "function"
				},
				{
					"inputs": [],
					"name": "owner",
					"outputs": [
						{
							"internalType": "address",
							"name": "",
							"type": "address"
						}
					],
					"stateMutability": "view",
					"type": "function"
				},
				{
					"inputs": [
						{
							"internalType": "uint64",
							"name": "destinationChainSelector",
							"type": "uint64"
						},
						{
							"internalType": "address",
							"name": "receiver",
							"type": "address"
						},
						{
							"internalType": "string",
							"name": "text",
							"type": "string"
						}
					],
					"name": "sendMessage",
					"outputs": [
						{
							"internalType": "bytes32",
							"name": "messageId",
							"type": "bytes32"
						}
					],
					"stateMutability": "nonpayable",
					"type": "function"
				},
				{
					"inputs": [
						{
							"internalType": "address",
							"name": "to",
							"type": "address"
						}
					],
					"name": "transferOwnership",
					"outputs": [],
					"stateMutability": "nonpayable",
					"type": "function"
				}
			],
			"devdoc": {
				"kind": "dev",
				"methods": {
					"constructor": {
						"params": {
							"_link": "The address of the link contract.",
							"_router": "The address of the router contract."
						}
					},
					"sendMessage(uint64,address,string)": {
						"details": "Assumes your contract has sufficient LINK.",
						"params": {
							"destinationChainSelector": "The identifier (aka selector) for the destination blockchain.",
							"receiver": "The address of the recipient on the destination blockchain.",
							"text": "The string text to be sent."
						},
						"returns": {
							"messageId": "The ID of the message that was sent."
						}
					}
				},
				"title": "- A simple contract for sending string data across chains.",
				"version": 1
			},
			"evm": {
				"assembly": "    /* \"CCIP/Sender.sol\":721:4180  contract Sender is OwnerIsCreator {... */\n  mstore(0x40, 0x80)\n    /* \"CCIP/Sender.sol\":1757:1900  constructor(address _router, address _link) {... */\n  callvalue\n  dup1\n  iszero\n  tag_1\n  jumpi\n  0x00\n  dup1\n  revert\ntag_1:\n  pop\n  mload(0x40)\n  sub(codesize, bytecodeSize)\n  dup1\n  bytecodeSize\n  dup4\n  codecopy\n  dup2\n  add\n  0x40\n  dup2\n  swap1\n  mstore\n  tag_2\n  swap2\n  tag_3\n  jump\t// in\ntag_2:\n    /* \"@chainlink/contracts-ccip@1.4.0/src/v0.8/shared/access/OwnerIsCreator.sol\":291:301  msg.sender */\n  caller\n  dup1\n    /* \"@chainlink/contracts-ccip@1.4.0/src/v0.8/shared/access/ConfirmedOwner.sol\":373:374  0 */\n  0x00\n    /* \"@chainlink/contracts-ccip@1.4.0/src/v0.8/shared/access/OwnerIsCreator.sol\":291:301  msg.sender */\n  dup2\n    /* \"@chainlink/contracts-ccip@1.4.0/src/v0.8/shared/access/ConfirmedOwnerWithProposal.sol\":586:645  require(newOwner != address(0), \"Cannot set owner to zero\") */\n  tag_9\n  jumpi\n  mload(0x40)\n  shl(0xe5, 0x461bcd)\n  dup2\n  mstore\n    /* \"#utility.yul\":696:698   */\n  0x20\n    /* \"@chainlink/contracts-ccip@1.4.0/src/v0.8/shared/access/ConfirmedOwnerWithProposal.sol\":586:645  require(newOwner != address(0), \"Cannot set owner to zero\") */\n  0x04\n  dup3\n  add\n    /* \"#utility.yul\":678:699   */\n  mstore\n    /* \"#utility.yul\":735:737   */\n  0x18\n    /* \"#utility.yul\":715:733   */\n  0x24\n  dup3\n  add\n    /* \"#utility.yul\":708:738   */\n  mstore\n    /* \"#utility.yul\":774:800   */\n  0x43616e6e6f7420736574206f776e657220746f207a65726f0000000000000000\n    /* \"#utility.yul\":754:772   */\n  0x44\n  dup3\n  add\n    /* \"#utility.yul\":747:801   */\n  mstore\n    /* \"#utility.yul\":818:836   */\n  0x64\n  add\n    /* \"@chainlink/contracts-ccip@1.4.0/src/v0.8/shared/access/ConfirmedOwnerWithProposal.sol\":586:645  require(newOwner != address(0), \"Cannot set owner to zero\") */\ntag_10:\n  mload(0x40)\n  dup1\n  swap2\n  sub\n  swap1\n  revert\ntag_9:\n    /* \"@chainlink/contracts-ccip@1.4.0/src/v0.8/shared/access/ConfirmedOwnerWithProposal.sol\":652:659  s_owner */\n  0x00\n    /* \"@chainlink/contracts-ccip@1.4.0/src/v0.8/shared/access/ConfirmedOwnerWithProposal.sol\":652:670  s_owner = newOwner */\n  dup1\n  sload\n  not(sub(shl(0xa0, 0x01), 0x01))\n  and\n  sub(shl(0xa0, 0x01), 0x01)\n  dup5\n  dup2\n  and\n  swap2\n  swap1\n  swap2\n  or\n  swap1\n  swap2\n  sstore\n    /* \"@chainlink/contracts-ccip@1.4.0/src/v0.8/shared/access/ConfirmedOwnerWithProposal.sol\":680:706  pendingOwner != address(0) */\n  dup2\n  and\n  iszero\n    /* \"@chainlink/contracts-ccip@1.4.0/src/v0.8/shared/access/ConfirmedOwnerWithProposal.sol\":676:755  if (pendingOwner != address(0)) {... */\n  tag_13\n  jumpi\n    /* \"@chainlink/contracts-ccip@1.4.0/src/v0.8/shared/access/ConfirmedOwnerWithProposal.sol\":716:748  _transferOwnership(pendingOwner) */\n  tag_13\n    /* \"@chainlink/contracts-ccip@1.4.0/src/v0.8/shared/access/ConfirmedOwnerWithProposal.sol\":735:747  pendingOwner */\n  dup2\n    /* \"@chainlink/contracts-ccip@1.4.0/src/v0.8/shared/access/ConfirmedOwnerWithProposal.sol\":716:734  _transferOwnership */\n  tag_14\n    /* \"@chainlink/contracts-ccip@1.4.0/src/v0.8/shared/access/ConfirmedOwnerWithProposal.sol\":716:748  _transferOwnership(pendingOwner) */\n  jump\t// in\ntag_13:\n  pop\n  pop\n    /* \"CCIP/Sender.sol\":1811:1819  s_router */\n  0x02\n    /* \"CCIP/Sender.sol\":1811:1844  s_router = IRouterClient(_router) */\n  dup1\n  sload\n  sub(shl(0xa0, 0x01), 0x01)\n  swap5\n  dup6\n  and\n  not(sub(shl(0xa0, 0x01), 0x01))\n  swap2\n  dup3\n  and\n  or\n  swap1\n  swap2\n  sstore\n    /* \"CCIP/Sender.sol\":1854:1865  s_linkToken */\n  0x03\n    /* \"CCIP/Sender.sol\":1854:1893  s_linkToken = LinkTokenInterface(_link) */\n  dup1\n  sload\n  swap4\n  swap1\n  swap5\n  and\n  swap3\n  and\n  swap2\n  swap1\n  swap2\n  or\n  swap1\n  swap2\n  sstore\n  pop\n    /* \"CCIP/Sender.sol\":721:4180  contract Sender is OwnerIsCreator {... */\n  jump(tag_24)\n    /* \"@chainlink/contracts-ccip@1.4.0/src/v0.8/shared/access/ConfirmedOwnerWithProposal.sol\":1528:1763  function _transferOwnership(address to) private {... */\ntag_14:\n    /* \"@chainlink/contracts-ccip@1.4.0/src/v0.8/shared/access/ConfirmedOwnerWithProposal.sol\":1643:1653  msg.sender */\n  caller\n  sub(shl(0xa0, 0x01), 0x01)\n    /* \"@chainlink/contracts-ccip@1.4.0/src/v0.8/shared/access/ConfirmedOwnerWithProposal.sol\":1637:1653  to != msg.sender */\n  dup3\n  and\n  sub\n    /* \"@chainlink/contracts-ccip@1.4.0/src/v0.8/shared/access/ConfirmedOwnerWithProposal.sol\":1629:1681  require(to != msg.sender, \"Cannot transfer to self\") */\n  tag_20\n  jumpi\n  mload(0x40)\n  shl(0xe5, 0x461bcd)\n  dup2\n  mstore\n    /* \"#utility.yul\":1049:1051   */\n  0x20\n    /* \"@chainlink/contracts-ccip@1.4.0/src/v0.8/shared/access/ConfirmedOwnerWithProposal.sol\":1629:1681  require(to != msg.sender, \"Cannot transfer to self\") */\n  0x04\n  dup3\n  add\n    /* \"#utility.yul\":1031:1052   */\n  mstore\n    /* \"#utility.yul\":1088:1090   */\n  0x17\n    /* \"#utility.yul\":1068:1086   */\n  0x24\n  dup3\n  add\n    /* \"#utility.yul\":1061:1091   */\n  mstore\n    /* \"#utility.yul\":1127:1152   */\n  0x43616e6e6f74207472616e7366657220746f2073656c66000000000000000000\n    /* \"#utility.yul\":1107:1125   */\n  0x44\n  dup3\n  add\n    /* \"#utility.yul\":1100:1153   */\n  mstore\n    /* \"#utility.yul\":1170:1188   */\n  0x64\n  add\n    /* \"@chainlink/contracts-ccip@1.4.0/src/v0.8/shared/access/ConfirmedOwnerWithProposal.sol\":1629:1681  require(to != msg.sender, \"Cannot transfer to self\") */\n  tag_10\n    /* \"#utility.yul\":847:1194   */\n  jump\n    /* \"@chainlink/contracts-ccip@1.4.0/src/v0.8/shared/access/ConfirmedOwnerWithProposal.sol\":1629:1681  require(to != msg.sender, \"Cannot transfer to self\") */\ntag_20:\n    /* \"@chainlink/contracts-ccip@1.4.0/src/v0.8/shared/access/ConfirmedOwnerWithProposal.sol\":1688:1702  s_pendingOwner */\n  0x01\n    /* \"@chainlink/contracts-ccip@1.4.0/src/v0.8/shared/access/ConfirmedOwnerWithProposal.sol\":1688:1707  s_pendingOwner = to */\n  dup1\n  sload\n  not(sub(shl(0xa0, 0x01), 0x01))\n  and\n  sub(shl(0xa0, 0x01), 0x01)\n  dup4\n  dup2\n  and\n  swap2\n  dup3\n  or\n  swap1\n  swap3\n  sstore\n  0x00\n    /* \"@chainlink/contracts-ccip@1.4.0/src/v0.8/shared/access/ConfirmedOwnerWithProposal.sol\":1746:1753  s_owner */\n  dup1\n  sload\n    /* \"@chainlink/contracts-ccip@1.4.0/src/v0.8/shared/access/ConfirmedOwnerWithProposal.sol\":1719:1758  OwnershipTransferRequested(s_owner, to) */\n  mload(0x40)\n    /* \"@chainlink/contracts-ccip@1.4.0/src/v0.8/shared/access/ConfirmedOwnerWithProposal.sol\":1688:1707  s_pendingOwner = to */\n  swap3\n  swap4\n    /* \"@chainlink/contracts-ccip@1.4.0/src/v0.8/shared/access/ConfirmedOwnerWithProposal.sol\":1746:1753  s_owner */\n  and\n  swap2\n    /* \"@chainlink/contracts-ccip@1.4.0/src/v0.8/shared/access/ConfirmedOwnerWithProposal.sol\":1719:1758  OwnershipTransferRequested(s_owner, to) */\n  0xed8889f560326eb138920d842192f0eb3dd22b4f139c87a2c57538e05bae1278\n  swap2\n  swap1\n  log3\n    /* \"@chainlink/contracts-ccip@1.4.0/src/v0.8/shared/access/ConfirmedOwnerWithProposal.sol\":1528:1763  function _transferOwnership(address to) private {... */\n  pop\n  jump\t// out\n    /* \"#utility.yul\":14:191   */\ntag_23:\n    /* \"#utility.yul\":93:106   */\n  dup1\n  mload\n  sub(shl(0xa0, 0x01), 0x01)\n    /* \"#utility.yul\":135:166   */\n  dup2\n  and\n    /* \"#utility.yul\":125:167   */\n  dup2\n  eq\n    /* \"#utility.yul\":115:185   */\n  tag_26\n  jumpi\n    /* \"#utility.yul\":181:182   */\n  0x00\n    /* \"#utility.yul\":178:179   */\n  dup1\n    /* \"#utility.yul\":171:183   */\n  revert\n    /* \"#utility.yul\":115:185   */\ntag_26:\n    /* \"#utility.yul\":14:191   */\n  swap2\n  swap1\n  pop\n  jump\t// out\n    /* \"#utility.yul\":196:489   */\ntag_3:\n    /* \"#utility.yul\":275:281   */\n  0x00\n    /* \"#utility.yul\":283:289   */\n  dup1\n    /* \"#utility.yul\":336:338   */\n  0x40\n    /* \"#utility.yul\":324:333   */\n  dup4\n    /* \"#utility.yul\":315:322   */\n  dup6\n    /* \"#utility.yul\":311:334   */\n  sub\n    /* \"#utility.yul\":307:339   */\n  slt\n    /* \"#utility.yul\":304:356   */\n  iszero\n  tag_28\n  jumpi\n    /* \"#utility.yul\":352:353   */\n  0x00\n    /* \"#utility.yul\":349:350   */\n  dup1\n    /* \"#utility.yul\":342:354   */\n  revert\n    /* \"#utility.yul\":304:356   */\ntag_28:\n    /* \"#utility.yul\":375:415   */\n  tag_29\n    /* \"#utility.yul\":405:414   */\n  dup4\n    /* \"#utility.yul\":375:415   */\n  tag_23\n  jump\t// in\ntag_29:\n    /* \"#utility.yul\":365:415   */\n  swap2\n  pop\n    /* \"#utility.yul\":434:483   */\n  tag_30\n    /* \"#utility.yul\":479:481   */\n  0x20\n    /* \"#utility.yul\":468:477   */\n  dup5\n    /* \"#utility.yul\":464:482   */\n  add\n    /* \"#utility.yul\":434:483   */\n  tag_23\n  jump\t// in\ntag_30:\n    /* \"#utility.yul\":424:483   */\n  swap1\n  pop\n    /* \"#utility.yul\":196:489   */\n  swap3\n  pop\n  swap3\n  swap1\n  pop\n  jump\t// out\n    /* \"#utility.yul\":847:1194   */\ntag_24:\n    /* \"CCIP/Sender.sol\":721:4180  contract Sender is OwnerIsCreator {... */\n  dataSize(sub_0)\n  dup1\n  dataOffset(sub_0)\n  0x00\n  codecopy\n  0x00\n  return\nstop\n\nsub_0: assembly {\n        /* \"CCIP/Sender.sol\":721:4180  contract Sender is OwnerIsCreator {... */\n      mstore(0x40, 0x80)\n      callvalue\n      dup1\n      iszero\n      tag_1\n      jumpi\n      0x00\n      dup1\n      revert\n    tag_1:\n      pop\n      jumpi(tag_2, lt(calldatasize, 0x04))\n      shr(0xe0, calldataload(0x00))\n      dup1\n      0x0eb5ad45\n      eq\n      tag_3\n      jumpi\n      dup1\n      0x79ba5097\n      eq\n      tag_4\n      jumpi\n      dup1\n      0x8da5cb5b\n      eq\n      tag_5\n      jumpi\n      dup1\n      0xf2fde38b\n      eq\n      tag_6\n      jumpi\n    tag_2:\n      0x00\n      dup1\n      revert\n        /* \"CCIP/Sender.sol\":2324:4178  function sendMessage(... */\n    tag_3:\n      tag_7\n      tag_8\n      calldatasize\n      0x04\n      tag_9\n      jump\t// in\n    tag_8:\n      tag_10\n      jump\t// in\n    tag_7:\n      mload(0x40)\n        /* \"#utility.yul\":1188:1213   */\n      swap1\n      dup2\n      mstore\n        /* \"#utility.yul\":1176:1178   */\n      0x20\n        /* \"#utility.yul\":1161:1179   */\n      add\n        /* \"CCIP/Sender.sol\":2324:4178  function sendMessage(... */\n    tag_11:\n      mload(0x40)\n      dup1\n      swap2\n      sub\n      swap1\n      return\n        /* \"@chainlink/contracts-ccip@1.4.0/src/v0.8/shared/access/ConfirmedOwnerWithProposal.sol\":1022:1334  function acceptOwnership() external override {... */\n    tag_4:\n      tag_13\n      tag_14\n      jump\t// in\n    tag_13:\n      stop\n        /* \"@chainlink/contracts-ccip@1.4.0/src/v0.8/shared/access/ConfirmedOwnerWithProposal.sol\":1374:1455  function owner() public view override returns (address) {... */\n    tag_5:\n        /* \"@chainlink/contracts-ccip@1.4.0/src/v0.8/shared/access/ConfirmedOwnerWithProposal.sol\":1421:1428  address */\n      0x00\n        /* \"@chainlink/contracts-ccip@1.4.0/src/v0.8/shared/access/ConfirmedOwnerWithProposal.sol\":1443:1450  s_owner */\n      sload\n        /* \"@chainlink/contracts-ccip@1.4.0/src/v0.8/shared/access/ConfirmedOwnerWithProposal.sol\":1374:1455  function owner() public view override returns (address) {... */\n      mload(0x40)\n      sub(shl(0xa0, 0x01), 0x01)\n        /* \"@chainlink/contracts-ccip@1.4.0/src/v0.8/shared/access/ConfirmedOwnerWithProposal.sol\":1443:1450  s_owner */\n      swap1\n      swap2\n      and\n        /* \"#utility.yul\":1502:1576   */\n      dup2\n      mstore\n        /* \"#utility.yul\":1490:1492   */\n      0x20\n        /* \"#utility.yul\":1475:1493   */\n      add\n        /* \"@chainlink/contracts-ccip@1.4.0/src/v0.8/shared/access/ConfirmedOwnerWithProposal.sol\":1374:1455  function owner() public view override returns (address) {... */\n      tag_11\n        /* \"#utility.yul\":1356:1582   */\n      jump\n        /* \"@chainlink/contracts-ccip@1.4.0/src/v0.8/shared/access/ConfirmedOwnerWithProposal.sol\":843:941  function transferOwnership(address to) public override onlyOwner {... */\n    tag_6:\n      tag_13\n      tag_20\n      calldatasize\n      0x04\n      tag_21\n      jump\t// in\n    tag_20:\n      tag_22\n      jump\t// in\n        /* \"CCIP/Sender.sol\":2324:4178  function sendMessage(... */\n    tag_10:\n        /* \"CCIP/Sender.sol\":2476:2493  bytes32 messageId */\n      0x00\n        /* \"@chainlink/contracts-ccip@1.4.0/src/v0.8/shared/access/ConfirmedOwnerWithProposal.sol\":2059:2079  _validateOwnership() */\n      tag_24\n        /* \"@chainlink/contracts-ccip@1.4.0/src/v0.8/shared/access/ConfirmedOwnerWithProposal.sol\":2059:2077  _validateOwnership */\n      tag_25\n        /* \"@chainlink/contracts-ccip@1.4.0/src/v0.8/shared/access/ConfirmedOwnerWithProposal.sol\":2059:2079  _validateOwnership() */\n      jump\t// in\n    tag_24:\n        /* \"CCIP/Sender.sol\":2665:3242  Client.EVM2AnyMessage({... */\n      0x40\n      dup1\n      mload\n      0xa0\n      dup2\n      add\n      swap1\n      swap2\n      mstore\n      sub(shl(0xa0, 0x01), 0x01)\n        /* \"#utility.yul\":1520:1575   */\n      dup6\n      and\n        /* \"CCIP/Sender.sol\":2711:2731  abi.encode(receiver) */\n      0xc0\n      dup3\n      add\n        /* \"#utility.yul\":1502:1576   */\n      mstore\n        /* \"CCIP/Sender.sol\":2619:2662  Client.EVM2AnyMessage memory evm2AnyMessage */\n      0x00\n      swap1\n        /* \"CCIP/Sender.sol\":2665:3242  Client.EVM2AnyMessage({... */\n      dup1\n        /* \"#utility.yul\":1475:1493   */\n      0xe0\n      dup2\n      add\n        /* \"CCIP/Sender.sol\":2711:2731  abi.encode(receiver) */\n      mload(0x40)\n      0x20\n      dup2\n      dup4\n      sub\n      sub\n      dup2\n      mstore\n      swap1\n      0x40\n      mstore\n        /* \"CCIP/Sender.sol\":2665:3242  Client.EVM2AnyMessage({... */\n      dup2\n      mstore\n      0x20\n      add\n        /* \"CCIP/Sender.sol\":2794:2798  text */\n      dup6\n      dup6\n        /* \"CCIP/Sender.sol\":2783:2799  abi.encode(text) */\n      add(0x20, mload(0x40))\n      tag_28\n      swap3\n      swap2\n      swap1\n      tag_29\n      jump\t// in\n    tag_28:\n      0x40\n      dup1\n      mload\n      not(0x1f)\n      dup2\n      dup5\n      sub\n      add\n      dup2\n      mstore\n      swap2\n      swap1\n      mstore\n        /* \"CCIP/Sender.sol\":2665:3242  Client.EVM2AnyMessage({... */\n      dup2\n      mstore\n        /* \"CCIP/Sender.sol\":2783:2799  abi.encode(text) */\n      0x20\n        /* \"CCIP/Sender.sol\":2665:3242  Client.EVM2AnyMessage({... */\n      add\n        /* \"CCIP/Sender.sol\":2877:2878  0 */\n      0x00\n        /* \"CCIP/Sender.sol\":2849:2879  new Client.EVMTokenAmount[](0) */\n      mload(0x40)\n      swap1\n      dup1\n      dup3\n      mstore\n      dup1\n      0x20\n      mul\n      0x20\n      add\n      dup3\n      add\n      0x40\n      mstore\n      dup1\n      iszero\n      tag_33\n      jumpi\n      dup2\n      0x20\n      add\n    tag_34:\n      0x40\n      dup1\n      mload\n      dup1\n      dup3\n      add\n      swap1\n      swap2\n      mstore\n      0x00\n      dup1\n      dup3\n      mstore\n      0x20\n      dup3\n      add\n      mstore\n      dup2\n      mstore\n      0x20\n      add\n      swap1\n      0x01\n      swap1\n      sub\n      swap1\n      dup2\n      tag_34\n      jumpi\n      swap1\n      pop\n    tag_33:\n      pop\n        /* \"CCIP/Sender.sol\":2665:3242  Client.EVM2AnyMessage({... */\n      dup2\n      mstore\n        /* \"CCIP/Sender.sol\":3219:3230  s_linkToken */\n      and(sub(shl(0xa0, 0x01), 0x01), sload(0x03))\n        /* \"CCIP/Sender.sol\":2665:3242  Client.EVM2AnyMessage({... */\n      0x20\n      dup1\n      dup4\n      add\n      swap2\n      swap1\n      swap2\n      mstore\n      0x40\n        /* \"CCIP/Sender.sol\":3051:3093  Client.EVMExtraArgsV1({gasLimit: 200_000}) */\n      dup1\n      mload\n      dup1\n      dup4\n      add\n      dup3\n      mstore\n        /* \"CCIP/Sender.sol\":3084:3091  200_000 */\n      0x030d40\n        /* \"CCIP/Sender.sol\":3051:3093  Client.EVMExtraArgsV1({gasLimit: 200_000}) */\n      swap1\n      dup2\n      swap1\n      mstore\n        /* \"@chainlink/contracts-ccip@1.4.0/src/v0.8/ccip/libraries/Client.sol\":1394:1450  abi.encodeWithSelector(EVM_EXTRA_ARGS_V1_TAG, extraArgs) */\n      dup2\n      mload\n      0x24\n      dup1\n      dup3\n      add\n        /* \"#utility.yul\":7216:7248   */\n      swap3\n      swap1\n      swap3\n      mstore\n        /* \"@chainlink/contracts-ccip@1.4.0/src/v0.8/ccip/libraries/Client.sol\":1394:1450  abi.encodeWithSelector(EVM_EXTRA_ARGS_V1_TAG, extraArgs) */\n      dup3\n      mload\n      dup1\n      dup3\n      sub\n      swap1\n      swap3\n      add\n      dup3\n      mstore\n        /* \"#utility.yul\":7189:7207   */\n      0x44\n      add\n        /* \"@chainlink/contracts-ccip@1.4.0/src/v0.8/ccip/libraries/Client.sol\":1394:1450  abi.encodeWithSelector(EVM_EXTRA_ARGS_V1_TAG, extraArgs) */\n      dup3\n      mstore\n      swap2\n      dup3\n      add\n      dup1\n      mload\n      0xffffffffffffffffffffffffffffffffffffffffffffffffffffffff\n      and\n        /* \"@chainlink/contracts-ccip@1.4.0/src/v0.8/ccip/libraries/Client.sol\":1417:1438  EVM_EXTRA_ARGS_V1_TAG */\n      0x97a657c900000000000000000000000000000000000000000000000000000000\n        /* \"@chainlink/contracts-ccip@1.4.0/src/v0.8/ccip/libraries/Client.sol\":1394:1450  abi.encodeWithSelector(EVM_EXTRA_ARGS_V1_TAG, extraArgs) */\n      or\n      swap1\n      mstore\n        /* \"CCIP/Sender.sol\":2665:3242  Client.EVM2AnyMessage({... */\n      swap1\n      swap2\n      add\n      mstore\n        /* \"CCIP/Sender.sol\":3320:3328  s_router */\n      sload(0x02)\n        /* \"CCIP/Sender.sol\":3320:3411  s_router.getFee(... */\n      mload(0x40)\n      0x20487ded00000000000000000000000000000000000000000000000000000000\n      dup2\n      mstore\n        /* \"CCIP/Sender.sol\":2619:3242  Client.EVM2AnyMessage memory evm2AnyMessage = Client.EVM2AnyMessage({... */\n      swap2\n      swap3\n      pop\n        /* \"CCIP/Sender.sol\":3305:3317  uint256 fees */\n      0x00\n      swap2\n      sub(shl(0xa0, 0x01), 0x01)\n        /* \"CCIP/Sender.sol\":3320:3328  s_router */\n      swap1\n      swap2\n      and\n      swap1\n        /* \"CCIP/Sender.sol\":3320:3335  s_router.getFee */\n      0x20487ded\n      swap1\n        /* \"CCIP/Sender.sol\":3320:3411  s_router.getFee(... */\n      tag_39\n      swap1\n        /* \"CCIP/Sender.sol\":3349:3373  destinationChainSelector */\n      dup11\n      swap1\n        /* \"CCIP/Sender.sol\":2619:3242  Client.EVM2AnyMessage memory evm2AnyMessage = Client.EVM2AnyMessage({... */\n      dup7\n      swap1\n        /* \"CCIP/Sender.sol\":3320:3411  s_router.getFee(... */\n      0x04\n      add\n      tag_40\n      jump\t// in\n    tag_39:\n      0x20\n      mload(0x40)\n      dup1\n      dup4\n      sub\n      dup2\n      dup7\n      gas\n      staticcall\n      iszero\n      dup1\n      iszero\n      tag_42\n      jumpi\n      returndatasize\n      0x00\n      dup1\n      returndatacopy\n      revert(0x00, returndatasize)\n    tag_42:\n      pop\n      pop\n      pop\n      pop\n      mload(0x40)\n      returndatasize\n      not(0x1f)\n      0x1f\n      dup3\n      add\n      and\n      dup3\n      add\n      dup1\n      0x40\n      mstore\n      pop\n      dup2\n      add\n      swap1\n      tag_43\n      swap2\n      swap1\n      tag_44\n      jump\t// in\n    tag_43:\n        /* \"CCIP/Sender.sol\":3433:3444  s_linkToken */\n      sload(0x03)\n        /* \"CCIP/Sender.sol\":3433:3469  s_linkToken.balanceOf(address(this)) */\n      mload(0x40)\n      shl(0xe0, 0x70a08231)\n      dup2\n      mstore\n        /* \"CCIP/Sender.sol\":3463:3467  this */\n      address\n        /* \"CCIP/Sender.sol\":3433:3469  s_linkToken.balanceOf(address(this)) */\n      0x04\n      dup3\n      add\n        /* \"#utility.yul\":1502:1576   */\n      mstore\n        /* \"CCIP/Sender.sol\":3305:3411  uint256 fees = s_router.getFee(... */\n      swap2\n      swap3\n      pop\n      sub(shl(0xa0, 0x01), 0x01)\n        /* \"CCIP/Sender.sol\":3433:3444  s_linkToken */\n      and\n      swap1\n        /* \"CCIP/Sender.sol\":3433:3454  s_linkToken.balanceOf */\n      0x70a08231\n      swap1\n        /* \"#utility.yul\":1475:1493   */\n      0x24\n      add\n        /* \"CCIP/Sender.sol\":3433:3469  s_linkToken.balanceOf(address(this)) */\n      0x20\n      mload(0x40)\n      dup1\n      dup4\n      sub\n      dup2\n      dup7\n      gas\n      staticcall\n      iszero\n      dup1\n      iszero\n      tag_47\n      jumpi\n      returndatasize\n      0x00\n      dup1\n      returndatacopy\n      revert(0x00, returndatasize)\n    tag_47:\n      pop\n      pop\n      pop\n      pop\n      mload(0x40)\n      returndatasize\n      not(0x1f)\n      0x1f\n      dup3\n      add\n      and\n      dup3\n      add\n      dup1\n      0x40\n      mstore\n      pop\n      dup2\n      add\n      swap1\n      tag_48\n      swap2\n      swap1\n      tag_44\n      jump\t// in\n    tag_48:\n        /* \"CCIP/Sender.sol\":3426:3430  fees */\n      dup2\n        /* \"CCIP/Sender.sol\":3426:3469  fees > s_linkToken.balanceOf(address(this)) */\n      gt\n        /* \"CCIP/Sender.sol\":3422:3550  if (fees > s_linkToken.balanceOf(address(this)))... */\n      iszero\n      tag_49\n      jumpi\n        /* \"CCIP/Sender.sol\":3507:3518  s_linkToken */\n      sload(0x03)\n        /* \"CCIP/Sender.sol\":3507:3543  s_linkToken.balanceOf(address(this)) */\n      mload(0x40)\n      shl(0xe0, 0x70a08231)\n      dup2\n      mstore\n        /* \"CCIP/Sender.sol\":3537:3541  this */\n      address\n        /* \"CCIP/Sender.sol\":3507:3543  s_linkToken.balanceOf(address(this)) */\n      0x04\n      dup3\n      add\n        /* \"#utility.yul\":1502:1576   */\n      mstore\n      sub(shl(0xa0, 0x01), 0x01)\n        /* \"CCIP/Sender.sol\":3507:3518  s_linkToken */\n      swap1\n      swap2\n      and\n      swap1\n        /* \"CCIP/Sender.sol\":3507:3528  s_linkToken.balanceOf */\n      0x70a08231\n      swap1\n        /* \"#utility.yul\":1475:1493   */\n      0x24\n      add\n        /* \"CCIP/Sender.sol\":3507:3543  s_linkToken.balanceOf(address(this)) */\n      0x20\n      mload(0x40)\n      dup1\n      dup4\n      sub\n      dup2\n      dup7\n      gas\n      staticcall\n      iszero\n      dup1\n      iszero\n      tag_52\n      jumpi\n      returndatasize\n      0x00\n      dup1\n      returndatacopy\n      revert(0x00, returndatasize)\n    tag_52:\n      pop\n      pop\n      pop\n      pop\n      mload(0x40)\n      returndatasize\n      not(0x1f)\n      0x1f\n      dup3\n      add\n      and\n      dup3\n      add\n      dup1\n      0x40\n      mstore\n      pop\n      dup2\n      add\n      swap1\n      tag_53\n      swap2\n      swap1\n      tag_44\n      jump\t// in\n    tag_53:\n        /* \"CCIP/Sender.sol\":3490:3550  NotEnoughBalance(s_linkToken.balanceOf(address(this)), fees) */\n      mload(0x40)\n      0x8f0f420600000000000000000000000000000000000000000000000000000000\n      dup2\n      mstore\n      0x04\n      dup2\n      add\n        /* \"#utility.yul\":4910:4935   */\n      swap2\n      swap1\n      swap2\n      mstore\n        /* \"#utility.yul\":4951:4969   */\n      0x24\n      dup2\n      add\n        /* \"#utility.yul\":4944:4978   */\n      dup3\n      swap1\n      mstore\n        /* \"#utility.yul\":4883:4901   */\n      0x44\n      add\n        /* \"CCIP/Sender.sol\":3490:3550  NotEnoughBalance(s_linkToken.balanceOf(address(this)), fees) */\n    tag_54:\n      mload(0x40)\n      dup1\n      swap2\n      sub\n      swap1\n      revert\n        /* \"CCIP/Sender.sol\":3422:3550  if (fees > s_linkToken.balanceOf(address(this)))... */\n    tag_49:\n        /* \"CCIP/Sender.sol\":3668:3679  s_linkToken */\n      sload(0x03)\n        /* \"CCIP/Sender.sol\":3696:3704  s_router */\n      sload(0x02)\n        /* \"CCIP/Sender.sol\":3668:3712  s_linkToken.approve(address(s_router), fees) */\n      mload(0x40)\n      0x095ea7b300000000000000000000000000000000000000000000000000000000\n      dup2\n      mstore\n      sub(shl(0xa0, 0x01), 0x01)\n        /* \"CCIP/Sender.sol\":3696:3704  s_router */\n      swap2\n      dup3\n      and\n        /* \"CCIP/Sender.sol\":3668:3712  s_linkToken.approve(address(s_router), fees) */\n      0x04\n      dup3\n      add\n        /* \"#utility.yul\":5163:5237   */\n      mstore\n        /* \"#utility.yul\":5253:5271   */\n      0x24\n      dup2\n      add\n        /* \"#utility.yul\":5246:5280   */\n      dup5\n      swap1\n      mstore\n        /* \"CCIP/Sender.sol\":3668:3679  s_linkToken */\n      swap2\n      and\n      swap1\n        /* \"CCIP/Sender.sol\":3668:3687  s_linkToken.approve */\n      0x095ea7b3\n      swap1\n        /* \"#utility.yul\":5136:5154   */\n      0x44\n      add\n        /* \"CCIP/Sender.sol\":3668:3712  s_linkToken.approve(address(s_router), fees) */\n      0x20\n      mload(0x40)\n      dup1\n      dup4\n      sub\n      dup2\n      0x00\n      dup8\n      gas\n      call\n      iszero\n      dup1\n      iszero\n      tag_59\n      jumpi\n      returndatasize\n      0x00\n      dup1\n      returndatacopy\n      revert(0x00, returndatasize)\n    tag_59:\n      pop\n      pop\n      pop\n      pop\n      mload(0x40)\n      returndatasize\n      not(0x1f)\n      0x1f\n      dup3\n      add\n      and\n      dup3\n      add\n      dup1\n      0x40\n      mstore\n      pop\n      dup2\n      add\n      swap1\n      tag_60\n      swap2\n      swap1\n      tag_61\n      jump\t// in\n    tag_60:\n      pop\n        /* \"CCIP/Sender.sol\":3816:3824  s_router */\n      sload(0x02)\n        /* \"CCIP/Sender.sol\":3816:3875  s_router.ccipSend(destinationChainSelector, evm2AnyMessage) */\n      mload(0x40)\n      0x96f4e9f900000000000000000000000000000000000000000000000000000000\n      dup2\n      mstore\n      sub(shl(0xa0, 0x01), 0x01)\n        /* \"CCIP/Sender.sol\":3816:3824  s_router */\n      swap1\n      swap2\n      and\n      swap1\n        /* \"CCIP/Sender.sol\":3816:3833  s_router.ccipSend */\n      0x96f4e9f9\n      swap1\n        /* \"CCIP/Sender.sol\":3816:3875  s_router.ccipSend(destinationChainSelector, evm2AnyMessage) */\n      tag_62\n      swap1\n        /* \"CCIP/Sender.sol\":3834:3858  destinationChainSelector */\n      dup11\n      swap1\n        /* \"CCIP/Sender.sol\":3860:3874  evm2AnyMessage */\n      dup7\n      swap1\n        /* \"CCIP/Sender.sol\":3816:3875  s_router.ccipSend(destinationChainSelector, evm2AnyMessage) */\n      0x04\n      add\n      tag_40\n      jump\t// in\n    tag_62:\n      0x20\n      mload(0x40)\n      dup1\n      dup4\n      sub\n      dup2\n      0x00\n      dup8\n      gas\n      call\n      iszero\n      dup1\n      iszero\n      tag_64\n      jumpi\n      returndatasize\n      0x00\n      dup1\n      returndatacopy\n      revert(0x00, returndatasize)\n    tag_64:\n      pop\n      pop\n      pop\n      pop\n      mload(0x40)\n      returndatasize\n      not(0x1f)\n      0x1f\n      dup3\n      add\n      and\n      dup3\n      add\n      dup1\n      0x40\n      mstore\n      pop\n      dup2\n      add\n      swap1\n      tag_65\n      swap2\n      swap1\n      tag_44\n      jump\t// in\n    tag_65:\n        /* \"CCIP/Sender.sol\":4071:4082  s_linkToken */\n      sload(0x03)\n        /* \"CCIP/Sender.sol\":3937:4111  MessageSent(... */\n      mload(0x40)\n        /* \"CCIP/Sender.sol\":3804:3875  messageId = s_router.ccipSend(destinationChainSelector, evm2AnyMessage) */\n      swap2\n      swap5\n      pop\n        /* \"CCIP/Sender.sol\":3937:4111  MessageSent(... */\n      0xffffffffffffffff\n      dup10\n      and\n      swap2\n        /* \"CCIP/Sender.sol\":3804:3875  messageId = s_router.ccipSend(destinationChainSelector, evm2AnyMessage) */\n      dup6\n      swap2\n        /* \"CCIP/Sender.sol\":3937:4111  MessageSent(... */\n      0xd36445359b3c6e26c120659aef090ce0f2eb005cf9af450d11aa1225609b4f4d\n      swap2\n      tag_67\n      swap2\n        /* \"CCIP/Sender.sol\":4023:4031  receiver */\n      dup12\n      swap2\n        /* \"CCIP/Sender.sol\":4045:4049  text */\n      dup12\n      swap2\n      dup12\n      swap2\n      sub(shl(0xa0, 0x01), 0x01)\n        /* \"CCIP/Sender.sol\":4071:4082  s_linkToken */\n      swap1\n      swap2\n      and\n      swap1\n        /* \"CCIP/Sender.sol\":4097:4101  fees */\n      dup10\n      swap1\n        /* \"CCIP/Sender.sol\":3937:4111  MessageSent(... */\n      tag_68\n      jump\t// in\n    tag_67:\n      mload(0x40)\n      dup1\n      swap2\n      sub\n      swap1\n      log3\n        /* \"CCIP/Sender.sol\":4155:4171  return messageId */\n      pop\n      pop\n        /* \"CCIP/Sender.sol\":2324:4178  function sendMessage(... */\n      swap5\n      swap4\n      pop\n      pop\n      pop\n      pop\n      jump\t// out\n        /* \"@chainlink/contracts-ccip@1.4.0/src/v0.8/shared/access/ConfirmedOwnerWithProposal.sol\":1022:1334  function acceptOwnership() external override {... */\n    tag_14:\n        /* \"@chainlink/contracts-ccip@1.4.0/src/v0.8/shared/access/ConfirmedOwnerWithProposal.sol\":1142:1156  s_pendingOwner */\n      and(sub(shl(0xa0, 0x01), 0x01), sload(0x01))\n        /* \"@chainlink/contracts-ccip@1.4.0/src/v0.8/shared/access/ConfirmedOwnerWithProposal.sol\":1128:1138  msg.sender */\n      caller\n        /* \"@chainlink/contracts-ccip@1.4.0/src/v0.8/shared/access/ConfirmedOwnerWithProposal.sol\":1128:1156  msg.sender == s_pendingOwner */\n      eq\n        /* \"@chainlink/contracts-ccip@1.4.0/src/v0.8/shared/access/ConfirmedOwnerWithProposal.sol\":1120:1183  require(msg.sender == s_pendingOwner, \"Must be proposed owner\") */\n      tag_70\n      jumpi\n      mload(0x40)\n      shl(0xe5, 0x461bcd)\n      dup2\n      mstore\n        /* \"#utility.yul\":6510:6512   */\n      0x20\n        /* \"@chainlink/contracts-ccip@1.4.0/src/v0.8/shared/access/ConfirmedOwnerWithProposal.sol\":1120:1183  require(msg.sender == s_pendingOwner, \"Must be proposed owner\") */\n      0x04\n      dup3\n      add\n        /* \"#utility.yul\":6492:6513   */\n      mstore\n        /* \"#utility.yul\":6549:6551   */\n      0x16\n        /* \"#utility.yul\":6529:6547   */\n      0x24\n      dup3\n      add\n        /* \"#utility.yul\":6522:6552   */\n      mstore\n        /* \"#utility.yul\":6588:6612   */\n      0x4d7573742062652070726f706f736564206f776e657200000000000000000000\n        /* \"#utility.yul\":6568:6586   */\n      0x44\n      dup3\n      add\n        /* \"#utility.yul\":6561:6613   */\n      mstore\n        /* \"#utility.yul\":6630:6648   */\n      0x64\n      add\n        /* \"@chainlink/contracts-ccip@1.4.0/src/v0.8/shared/access/ConfirmedOwnerWithProposal.sol\":1120:1183  require(msg.sender == s_pendingOwner, \"Must be proposed owner\") */\n      tag_54\n        /* \"#utility.yul\":6308:6654   */\n      jump\n        /* \"@chainlink/contracts-ccip@1.4.0/src/v0.8/shared/access/ConfirmedOwnerWithProposal.sol\":1120:1183  require(msg.sender == s_pendingOwner, \"Must be proposed owner\") */\n    tag_70:\n        /* \"@chainlink/contracts-ccip@1.4.0/src/v0.8/shared/access/ConfirmedOwnerWithProposal.sol\":1190:1206  address oldOwner */\n      0x00\n        /* \"@chainlink/contracts-ccip@1.4.0/src/v0.8/shared/access/ConfirmedOwnerWithProposal.sol\":1209:1216  s_owner */\n      dup1\n      sload\n        /* \"@chainlink/contracts-ccip@1.4.0/src/v0.8/shared/access/ConfirmedOwnerWithProposal.sol\":1232:1242  msg.sender */\n      caller\n      not(0xffffffffffffffffffffffffffffffffffffffff)\n        /* \"@chainlink/contracts-ccip@1.4.0/src/v0.8/shared/access/ConfirmedOwnerWithProposal.sol\":1222:1242  s_owner = msg.sender */\n      dup1\n      dup4\n      and\n      dup3\n      or\n      dup5\n      sstore\n      0x01\n        /* \"@chainlink/contracts-ccip@1.4.0/src/v0.8/shared/access/ConfirmedOwnerWithProposal.sol\":1248:1275  s_pendingOwner = address(0) */\n      dup1\n      sload\n      swap1\n      swap2\n      and\n      swap1\n      sstore\n        /* \"@chainlink/contracts-ccip@1.4.0/src/v0.8/shared/access/ConfirmedOwnerWithProposal.sol\":1287:1329  OwnershipTransferred(oldOwner, msg.sender) */\n      mload(0x40)\n      sub(shl(0xa0, 0x01), 0x01)\n        /* \"@chainlink/contracts-ccip@1.4.0/src/v0.8/shared/access/ConfirmedOwnerWithProposal.sol\":1209:1216  s_owner */\n      swap1\n      swap3\n      and\n      swap3\n        /* \"@chainlink/contracts-ccip@1.4.0/src/v0.8/shared/access/ConfirmedOwnerWithProposal.sol\":1232:1242  msg.sender */\n      swap1\n      swap2\n        /* \"@chainlink/contracts-ccip@1.4.0/src/v0.8/shared/access/ConfirmedOwnerWithProposal.sol\":1209:1216  s_owner */\n      dup4\n      swap2\n        /* \"@chainlink/contracts-ccip@1.4.0/src/v0.8/shared/access/ConfirmedOwnerWithProposal.sol\":1287:1329  OwnershipTransferred(oldOwner, msg.sender) */\n      0x8be0079c531659141344cd1fd0a4f28419497f9722a3daafe3b4186f6b6457e0\n      swap2\n      log3\n        /* \"@chainlink/contracts-ccip@1.4.0/src/v0.8/shared/access/ConfirmedOwnerWithProposal.sol\":1067:1334  {... */\n      pop\n        /* \"@chainlink/contracts-ccip@1.4.0/src/v0.8/shared/access/ConfirmedOwnerWithProposal.sol\":1022:1334  function acceptOwnership() external override {... */\n      jump\t// out\n        /* \"@chainlink/contracts-ccip@1.4.0/src/v0.8/shared/access/ConfirmedOwnerWithProposal.sol\":843:941  function transferOwnership(address to) public override onlyOwner {... */\n    tag_22:\n        /* \"@chainlink/contracts-ccip@1.4.0/src/v0.8/shared/access/ConfirmedOwnerWithProposal.sol\":2059:2079  _validateOwnership() */\n      tag_75\n        /* \"@chainlink/contracts-ccip@1.4.0/src/v0.8/shared/access/ConfirmedOwnerWithProposal.sol\":2059:2077  _validateOwnership */\n      tag_25\n        /* \"@chainlink/contracts-ccip@1.4.0/src/v0.8/shared/access/ConfirmedOwnerWithProposal.sol\":2059:2079  _validateOwnership() */\n      jump\t// in\n    tag_75:\n        /* \"@chainlink/contracts-ccip@1.4.0/src/v0.8/shared/access/ConfirmedOwnerWithProposal.sol\":914:936  _transferOwnership(to) */\n      tag_77\n        /* \"@chainlink/contracts-ccip@1.4.0/src/v0.8/shared/access/ConfirmedOwnerWithProposal.sol\":933:935  to */\n      dup2\n        /* \"@chainlink/contracts-ccip@1.4.0/src/v0.8/shared/access/ConfirmedOwnerWithProposal.sol\":914:932  _transferOwnership */\n      tag_78\n        /* \"@chainlink/contracts-ccip@1.4.0/src/v0.8/shared/access/ConfirmedOwnerWithProposal.sol\":914:936  _transferOwnership(to) */\n      jump\t// in\n    tag_77:\n        /* \"@chainlink/contracts-ccip@1.4.0/src/v0.8/shared/access/ConfirmedOwnerWithProposal.sol\":843:941  function transferOwnership(address to) public override onlyOwner {... */\n      pop\n      jump\t// out\n        /* \"@chainlink/contracts-ccip@1.4.0/src/v0.8/shared/access/ConfirmedOwnerWithProposal.sol\":1797:1955  function _validateOwnership() internal view {... */\n    tag_25:\n        /* \"@chainlink/contracts-ccip@1.4.0/src/v0.8/shared/access/ConfirmedOwnerWithProposal.sol\":1916:1923  s_owner */\n      and(sub(shl(0xa0, 0x01), 0x01), sload(0x00))\n        /* \"@chainlink/contracts-ccip@1.4.0/src/v0.8/shared/access/ConfirmedOwnerWithProposal.sol\":1902:1912  msg.sender */\n      caller\n        /* \"@chainlink/contracts-ccip@1.4.0/src/v0.8/shared/access/ConfirmedOwnerWithProposal.sol\":1902:1923  msg.sender == s_owner */\n      eq\n        /* \"@chainlink/contracts-ccip@1.4.0/src/v0.8/shared/access/ConfirmedOwnerWithProposal.sol\":1894:1950  require(msg.sender == s_owner, \"Only callable by owner\") */\n      tag_80\n      jumpi\n      mload(0x40)\n      shl(0xe5, 0x461bcd)\n      dup2\n      mstore\n        /* \"#utility.yul\":6861:6863   */\n      0x20\n        /* \"@chainlink/contracts-ccip@1.4.0/src/v0.8/shared/access/ConfirmedOwnerWithProposal.sol\":1894:1950  require(msg.sender == s_owner, \"Only callable by owner\") */\n      0x04\n      dup3\n      add\n        /* \"#utility.yul\":6843:6864   */\n      mstore\n        /* \"#utility.yul\":6900:6902   */\n      0x16\n        /* \"#utility.yul\":6880:6898   */\n      0x24\n      dup3\n      add\n        /* \"#utility.yul\":6873:6903   */\n      mstore\n        /* \"#utility.yul\":6939:6963   */\n      0x4f6e6c792063616c6c61626c65206279206f776e657200000000000000000000\n        /* \"#utility.yul\":6919:6937   */\n      0x44\n      dup3\n      add\n        /* \"#utility.yul\":6912:6964   */\n      mstore\n        /* \"#utility.yul\":6981:6999   */\n      0x64\n      add\n        /* \"@chainlink/contracts-ccip@1.4.0/src/v0.8/shared/access/ConfirmedOwnerWithProposal.sol\":1894:1950  require(msg.sender == s_owner, \"Only callable by owner\") */\n      tag_54\n        /* \"#utility.yul\":6659:7005   */\n      jump\n        /* \"@chainlink/contracts-ccip@1.4.0/src/v0.8/shared/access/ConfirmedOwnerWithProposal.sol\":1894:1950  require(msg.sender == s_owner, \"Only callable by owner\") */\n    tag_80:\n        /* \"@chainlink/contracts-ccip@1.4.0/src/v0.8/shared/access/ConfirmedOwnerWithProposal.sol\":1797:1955  function _validateOwnership() internal view {... */\n      jump\t// out\n        /* \"@chainlink/contracts-ccip@1.4.0/src/v0.8/shared/access/ConfirmedOwnerWithProposal.sol\":1528:1763  function _transferOwnership(address to) private {... */\n    tag_78:\n        /* \"@chainlink/contracts-ccip@1.4.0/src/v0.8/shared/access/ConfirmedOwnerWithProposal.sol\":1643:1653  msg.sender */\n      caller\n      sub(shl(0xa0, 0x01), 0x01)\n        /* \"@chainlink/contracts-ccip@1.4.0/src/v0.8/shared/access/ConfirmedOwnerWithProposal.sol\":1637:1653  to != msg.sender */\n      dup3\n      and\n      sub\n        /* \"@chainlink/contracts-ccip@1.4.0/src/v0.8/shared/access/ConfirmedOwnerWithProposal.sol\":1629:1681  require(to != msg.sender, \"Cannot transfer to self\") */\n      tag_87\n      jumpi\n      mload(0x40)\n      shl(0xe5, 0x461bcd)\n      dup2\n      mstore\n        /* \"#utility.yul\":7461:7463   */\n      0x20\n        /* \"@chainlink/contracts-ccip@1.4.0/src/v0.8/shared/access/ConfirmedOwnerWithProposal.sol\":1629:1681  require(to != msg.sender, \"Cannot transfer to self\") */\n      0x04\n      dup3\n      add\n        /* \"#utility.yul\":7443:7464   */\n      mstore\n        /* \"#utility.yul\":7500:7502   */\n      0x17\n        /* \"#utility.yul\":7480:7498   */\n      0x24\n      dup3\n      add\n        /* \"#utility.yul\":7473:7503   */\n      mstore\n        /* \"#utility.yul\":7539:7564   */\n      0x43616e6e6f74207472616e7366657220746f2073656c66000000000000000000\n        /* \"#utility.yul\":7519:7537   */\n      0x44\n      dup3\n      add\n        /* \"#utility.yul\":7512:7565   */\n      mstore\n        /* \"#utility.yul\":7582:7600   */\n      0x64\n      add\n        /* \"@chainlink/contracts-ccip@1.4.0/src/v0.8/shared/access/ConfirmedOwnerWithProposal.sol\":1629:1681  require(to != msg.sender, \"Cannot transfer to self\") */\n      tag_54\n        /* \"#utility.yul\":7259:7606   */\n      jump\n        /* \"@chainlink/contracts-ccip@1.4.0/src/v0.8/shared/access/ConfirmedOwnerWithProposal.sol\":1629:1681  require(to != msg.sender, \"Cannot transfer to self\") */\n    tag_87:\n        /* \"@chainlink/contracts-ccip@1.4.0/src/v0.8/shared/access/ConfirmedOwnerWithProposal.sol\":1688:1702  s_pendingOwner */\n      0x01\n        /* \"@chainlink/contracts-ccip@1.4.0/src/v0.8/shared/access/ConfirmedOwnerWithProposal.sol\":1688:1707  s_pendingOwner = to */\n      dup1\n      sload\n      not(0xffffffffffffffffffffffffffffffffffffffff)\n      and\n      sub(shl(0xa0, 0x01), 0x01)\n      dup4\n      dup2\n      and\n      swap2\n      dup3\n      or\n      swap1\n      swap3\n      sstore\n      0x00\n        /* \"@chainlink/contracts-ccip@1.4.0/src/v0.8/shared/access/ConfirmedOwnerWithProposal.sol\":1746:1753  s_owner */\n      dup1\n      sload\n        /* \"@chainlink/contracts-ccip@1.4.0/src/v0.8/shared/access/ConfirmedOwnerWithProposal.sol\":1719:1758  OwnershipTransferRequested(s_owner, to) */\n      mload(0x40)\n        /* \"@chainlink/contracts-ccip@1.4.0/src/v0.8/shared/access/ConfirmedOwnerWithProposal.sol\":1688:1707  s_pendingOwner = to */\n      swap3\n      swap4\n        /* \"@chainlink/contracts-ccip@1.4.0/src/v0.8/shared/access/ConfirmedOwnerWithProposal.sol\":1746:1753  s_owner */\n      and\n      swap2\n        /* \"@chainlink/contracts-ccip@1.4.0/src/v0.8/shared/access/ConfirmedOwnerWithProposal.sol\":1719:1758  OwnershipTransferRequested(s_owner, to) */\n      0xed8889f560326eb138920d842192f0eb3dd22b4f139c87a2c57538e05bae1278\n      swap2\n      swap1\n      log3\n        /* \"@chainlink/contracts-ccip@1.4.0/src/v0.8/shared/access/ConfirmedOwnerWithProposal.sol\":1528:1763  function _transferOwnership(address to) private {... */\n      pop\n      jump\t// out\n        /* \"#utility.yul\":14:210   */\n    tag_90:\n        /* \"#utility.yul\":82:102   */\n      dup1\n      calldataload\n      sub(shl(0xa0, 0x01), 0x01)\n        /* \"#utility.yul\":131:185   */\n      dup2\n      and\n        /* \"#utility.yul\":121:186   */\n      dup2\n      eq\n        /* \"#utility.yul\":111:204   */\n      tag_96\n      jumpi\n        /* \"#utility.yul\":200:201   */\n      0x00\n        /* \"#utility.yul\":197:198   */\n      dup1\n        /* \"#utility.yul\":190:202   */\n      revert\n        /* \"#utility.yul\":111:204   */\n    tag_96:\n        /* \"#utility.yul\":14:210   */\n      swap2\n      swap1\n      pop\n      jump\t// out\n        /* \"#utility.yul\":215:1037   */\n    tag_9:\n        /* \"#utility.yul\":303:309   */\n      0x00\n        /* \"#utility.yul\":311:317   */\n      dup1\n        /* \"#utility.yul\":319:325   */\n      0x00\n        /* \"#utility.yul\":327:333   */\n      dup1\n        /* \"#utility.yul\":380:382   */\n      0x60\n        /* \"#utility.yul\":368:377   */\n      dup6\n        /* \"#utility.yul\":359:366   */\n      dup8\n        /* \"#utility.yul\":355:378   */\n      sub\n        /* \"#utility.yul\":351:383   */\n      slt\n        /* \"#utility.yul\":348:400   */\n      iszero\n      tag_98\n      jumpi\n        /* \"#utility.yul\":396:397   */\n      0x00\n        /* \"#utility.yul\":393:394   */\n      dup1\n        /* \"#utility.yul\":386:398   */\n      revert\n        /* \"#utility.yul\":348:400   */\n    tag_98:\n        /* \"#utility.yul\":435:444   */\n      dup5\n        /* \"#utility.yul\":422:445   */\n      calldataload\n        /* \"#utility.yul\":464:482   */\n      0xffffffffffffffff\n        /* \"#utility.yul\":522:524   */\n      dup1\n        /* \"#utility.yul\":515:520   */\n      dup3\n        /* \"#utility.yul\":511:525   */\n      and\n        /* \"#utility.yul\":504:509   */\n      dup3\n        /* \"#utility.yul\":501:526   */\n      eq\n        /* \"#utility.yul\":491:544   */\n      tag_99\n      jumpi\n        /* \"#utility.yul\":540:541   */\n      0x00\n        /* \"#utility.yul\":537:538   */\n      dup1\n        /* \"#utility.yul\":530:542   */\n      revert\n        /* \"#utility.yul\":491:544   */\n    tag_99:\n        /* \"#utility.yul\":563:568   */\n      dup2\n        /* \"#utility.yul\":553:568   */\n      swap6\n      pop\n        /* \"#utility.yul\":587:625   */\n      tag_100\n        /* \"#utility.yul\":621:623   */\n      0x20\n        /* \"#utility.yul\":610:619   */\n      dup9\n        /* \"#utility.yul\":606:624   */\n      add\n        /* \"#utility.yul\":587:625   */\n      tag_90\n      jump\t// in\n    tag_100:\n        /* \"#utility.yul\":577:625   */\n      swap5\n      pop\n        /* \"#utility.yul\":676:678   */\n      0x40\n        /* \"#utility.yul\":665:674   */\n      dup8\n        /* \"#utility.yul\":661:679   */\n      add\n        /* \"#utility.yul\":648:680   */\n      calldataload\n        /* \"#utility.yul\":634:680   */\n      swap2\n      pop\n        /* \"#utility.yul\":703:705   */\n      dup1\n        /* \"#utility.yul\":695:701   */\n      dup3\n        /* \"#utility.yul\":692:706   */\n      gt\n        /* \"#utility.yul\":689:723   */\n      iszero\n      tag_101\n      jumpi\n        /* \"#utility.yul\":719:720   */\n      0x00\n        /* \"#utility.yul\":716:717   */\n      dup1\n        /* \"#utility.yul\":709:721   */\n      revert\n        /* \"#utility.yul\":689:723   */\n    tag_101:\n        /* \"#utility.yul\":757:763   */\n      dup2\n        /* \"#utility.yul\":746:755   */\n      dup8\n        /* \"#utility.yul\":742:764   */\n      add\n        /* \"#utility.yul\":732:764   */\n      swap2\n      pop\n        /* \"#utility.yul\":802:809   */\n      dup8\n        /* \"#utility.yul\":795:799   */\n      0x1f\n        /* \"#utility.yul\":791:793   */\n      dup4\n        /* \"#utility.yul\":787:800   */\n      add\n        /* \"#utility.yul\":783:810   */\n      slt\n        /* \"#utility.yul\":773:828   */\n      tag_102\n      jumpi\n        /* \"#utility.yul\":824:825   */\n      0x00\n        /* \"#utility.yul\":821:822   */\n      dup1\n        /* \"#utility.yul\":814:826   */\n      revert\n        /* \"#utility.yul\":773:828   */\n    tag_102:\n        /* \"#utility.yul\":864:866   */\n      dup2\n        /* \"#utility.yul\":851:867   */\n      calldataload\n        /* \"#utility.yul\":890:892   */\n      dup2\n        /* \"#utility.yul\":882:888   */\n      dup2\n        /* \"#utility.yul\":879:893   */\n      gt\n        /* \"#utility.yul\":876:910   */\n      iszero\n      tag_103\n      jumpi\n        /* \"#utility.yul\":906:907   */\n      0x00\n        /* \"#utility.yul\":903:904   */\n      dup1\n        /* \"#utility.yul\":896:908   */\n      revert\n        /* \"#utility.yul\":876:910   */\n    tag_103:\n        /* \"#utility.yul\":951:958   */\n      dup9\n        /* \"#utility.yul\":946:948   */\n      0x20\n        /* \"#utility.yul\":937:943   */\n      dup3\n        /* \"#utility.yul\":933:935   */\n      dup6\n        /* \"#utility.yul\":929:944   */\n      add\n        /* \"#utility.yul\":925:949   */\n      add\n        /* \"#utility.yul\":922:959   */\n      gt\n        /* \"#utility.yul\":919:976   */\n      iszero\n      tag_104\n      jumpi\n        /* \"#utility.yul\":972:973   */\n      0x00\n        /* \"#utility.yul\":969:970   */\n      dup1\n        /* \"#utility.yul\":962:974   */\n      revert\n        /* \"#utility.yul\":919:976   */\n    tag_104:\n        /* \"#utility.yul\":215:1037   */\n      swap6\n      swap9\n      swap5\n      swap8\n      pop\n      pop\n        /* \"#utility.yul\":1003:1005   */\n      0x20\n        /* \"#utility.yul\":995:1006   */\n      add\n      swap5\n      pop\n      pop\n      pop\n        /* \"#utility.yul\":215:1037   */\n      jump\t// out\n        /* \"#utility.yul\":1587:1773   */\n    tag_21:\n        /* \"#utility.yul\":1646:1652   */\n      0x00\n        /* \"#utility.yul\":1699:1701   */\n      0x20\n        /* \"#utility.yul\":1687:1696   */\n      dup3\n        /* \"#utility.yul\":1678:1685   */\n      dup5\n        /* \"#utility.yul\":1674:1697   */\n      sub\n        /* \"#utility.yul\":1670:1702   */\n      slt\n        /* \"#utility.yul\":1667:1719   */\n      iszero\n      tag_109\n      jumpi\n        /* \"#utility.yul\":1715:1716   */\n      0x00\n        /* \"#utility.yul\":1712:1713   */\n      dup1\n        /* \"#utility.yul\":1705:1717   */\n      revert\n        /* \"#utility.yul\":1667:1719   */\n    tag_109:\n        /* \"#utility.yul\":1738:1767   */\n      tag_110\n        /* \"#utility.yul\":1757:1766   */\n      dup3\n        /* \"#utility.yul\":1738:1767   */\n      tag_90\n      jump\t// in\n    tag_110:\n        /* \"#utility.yul\":1728:1767   */\n      swap4\n        /* \"#utility.yul\":1587:1773   */\n      swap3\n      pop\n      pop\n      pop\n      jump\t// out\n        /* \"#utility.yul\":1778:2045   */\n    tag_92:\n        /* \"#utility.yul\":1867:1873   */\n      dup2\n        /* \"#utility.yul\":1862:1865   */\n      dup4\n        /* \"#utility.yul\":1855:1874   */\n      mstore\n        /* \"#utility.yul\":1919:1925   */\n      dup2\n        /* \"#utility.yul\":1912:1917   */\n      dup2\n        /* \"#utility.yul\":1905:1909   */\n      0x20\n        /* \"#utility.yul\":1900:1903   */\n      dup6\n        /* \"#utility.yul\":1896:1910   */\n      add\n        /* \"#utility.yul\":1883:1926   */\n      calldatacopy\n      pop\n        /* \"#utility.yul\":1971:1972   */\n      0x00\n        /* \"#utility.yul\":1946:1962   */\n      dup3\n      dup3\n      add\n        /* \"#utility.yul\":1964:1968   */\n      0x20\n        /* \"#utility.yul\":1942:1969   */\n      swap1\n      dup2\n      add\n        /* \"#utility.yul\":1935:1973   */\n      swap2\n      swap1\n      swap2\n      mstore\n        /* \"#utility.yul\":2027:2029   */\n      0x1f\n        /* \"#utility.yul\":2006:2021   */\n      swap1\n      swap2\n      add\n      not(0x1f)\n        /* \"#utility.yul\":2002:2031   */\n      and\n        /* \"#utility.yul\":1993:2032   */\n      swap1\n      swap2\n      add\n        /* \"#utility.yul\":1989:2039   */\n      add\n      swap1\n        /* \"#utility.yul\":1778:2045   */\n      jump\t// out\n        /* \"#utility.yul\":2050:2297   */\n    tag_29:\n        /* \"#utility.yul\":2209:2211   */\n      0x20\n        /* \"#utility.yul\":2198:2207   */\n      dup2\n        /* \"#utility.yul\":2191:2212   */\n      mstore\n        /* \"#utility.yul\":2172:2176   */\n      0x00\n        /* \"#utility.yul\":2229:2291   */\n      tag_113\n        /* \"#utility.yul\":2287:2289   */\n      0x20\n        /* \"#utility.yul\":2276:2285   */\n      dup4\n        /* \"#utility.yul\":2272:2290   */\n      add\n        /* \"#utility.yul\":2264:2270   */\n      dup5\n        /* \"#utility.yul\":2256:2262   */\n      dup7\n        /* \"#utility.yul\":2229:2291   */\n      tag_92\n      jump\t// in\n    tag_113:\n        /* \"#utility.yul\":2221:2291   */\n      swap5\n        /* \"#utility.yul\":2050:2297   */\n      swap4\n      pop\n      pop\n      pop\n      pop\n      jump\t// out\n        /* \"#utility.yul\":2491:2913   */\n    tag_93:\n        /* \"#utility.yul\":2532:2535   */\n      0x00\n        /* \"#utility.yul\":2570:2575   */\n      dup2\n        /* \"#utility.yul\":2564:2576   */\n      mload\n        /* \"#utility.yul\":2597:2603   */\n      dup1\n        /* \"#utility.yul\":2592:2595   */\n      dup5\n        /* \"#utility.yul\":2585:2604   */\n      mstore\n        /* \"#utility.yul\":2622:2623   */\n      0x00\n        /* \"#utility.yul\":2632:2794   */\n    tag_116:\n        /* \"#utility.yul\":2646:2652   */\n      dup2\n        /* \"#utility.yul\":2643:2644   */\n      dup2\n        /* \"#utility.yul\":2640:2653   */\n      lt\n        /* \"#utility.yul\":2632:2794   */\n      iszero\n      tag_118\n      jumpi\n        /* \"#utility.yul\":2708:2712   */\n      0x20\n        /* \"#utility.yul\":2764:2777   */\n      dup2\n      dup6\n      add\n        /* \"#utility.yul\":2760:2782   */\n      dup2\n      add\n        /* \"#utility.yul\":2754:2783   */\n      mload\n        /* \"#utility.yul\":2736:2747   */\n      dup7\n      dup4\n      add\n        /* \"#utility.yul\":2732:2752   */\n      dup3\n      add\n        /* \"#utility.yul\":2725:2784   */\n      mstore\n        /* \"#utility.yul\":2661:2673   */\n      add\n        /* \"#utility.yul\":2632:2794   */\n      jump(tag_116)\n    tag_118:\n        /* \"#utility.yul\":2636:2639   */\n      pop\n        /* \"#utility.yul\":2839:2840   */\n      0x00\n        /* \"#utility.yul\":2832:2836   */\n      0x20\n        /* \"#utility.yul\":2823:2829   */\n      dup3\n        /* \"#utility.yul\":2818:2821   */\n      dup7\n        /* \"#utility.yul\":2814:2830   */\n      add\n        /* \"#utility.yul\":2810:2837   */\n      add\n        /* \"#utility.yul\":2803:2841   */\n      mstore\n        /* \"#utility.yul\":2902:2906   */\n      0x20\n        /* \"#utility.yul\":2895:2897   */\n      0x1f\n        /* \"#utility.yul\":2891:2898   */\n      not\n        /* \"#utility.yul\":2886:2888   */\n      0x1f\n        /* \"#utility.yul\":2878:2884   */\n      dup4\n        /* \"#utility.yul\":2874:2889   */\n      add\n        /* \"#utility.yul\":2870:2899   */\n      and\n        /* \"#utility.yul\":2865:2868   */\n      dup6\n        /* \"#utility.yul\":2861:2900   */\n      add\n        /* \"#utility.yul\":2857:2907   */\n      add\n        /* \"#utility.yul\":2850:2907   */\n      swap2\n      pop\n      pop\n        /* \"#utility.yul\":2491:2913   */\n      swap3\n      swap2\n      pop\n      pop\n      jump\t// out\n        /* \"#utility.yul\":2918:4542   */\n    tag_40:\n        /* \"#utility.yul\":3096:3100   */\n      0x00\n        /* \"#utility.yul\":3125:3127   */\n      0x40\n        /* \"#utility.yul\":3166:3184   */\n      0xffffffffffffffff\n        /* \"#utility.yul\":3158:3164   */\n      dup6\n        /* \"#utility.yul\":3154:3185   */\n      and\n        /* \"#utility.yul\":3143:3152   */\n      dup4\n        /* \"#utility.yul\":3136:3186   */\n      mstore\n        /* \"#utility.yul\":3205:3207   */\n      0x20\n        /* \"#utility.yul\":3243:3245   */\n      dup2\n        /* \"#utility.yul\":3238:3240   */\n      dup2\n        /* \"#utility.yul\":3227:3236   */\n      dup6\n        /* \"#utility.yul\":3223:3241   */\n      add\n        /* \"#utility.yul\":3216:3246   */\n      mstore\n        /* \"#utility.yul\":3281:3287   */\n      dup5\n        /* \"#utility.yul\":3275:3288   */\n      mload\n        /* \"#utility.yul\":3324:3328   */\n      0xa0\n        /* \"#utility.yul\":3319:3321   */\n      dup4\n        /* \"#utility.yul\":3308:3317   */\n      dup7\n        /* \"#utility.yul\":3304:3322   */\n      add\n        /* \"#utility.yul\":3297:3329   */\n      mstore\n        /* \"#utility.yul\":3352:3403   */\n      tag_120\n        /* \"#utility.yul\":3398:3401   */\n      0xe0\n        /* \"#utility.yul\":3387:3396   */\n      dup7\n        /* \"#utility.yul\":3383:3402   */\n      add\n        /* \"#utility.yul\":3369:3381   */\n      dup3\n        /* \"#utility.yul\":3352:3403   */\n      tag_93\n      jump\t// in\n    tag_120:\n        /* \"#utility.yul\":3338:3403   */\n      swap1\n      pop\n        /* \"#utility.yul\":3452:3454   */\n      dup2\n        /* \"#utility.yul\":3444:3450   */\n      dup7\n        /* \"#utility.yul\":3440:3455   */\n      add\n        /* \"#utility.yul\":3434:3456   */\n      mload\n        /* \"#utility.yul\":3479:3481   */\n      0x3f\n        /* \"#utility.yul\":3475:3482   */\n      not\n        /* \"#utility.yul\":3546:3548   */\n      dup1\n        /* \"#utility.yul\":3534:3543   */\n      dup8\n        /* \"#utility.yul\":3526:3532   */\n      dup5\n        /* \"#utility.yul\":3522:3544   */\n      sub\n        /* \"#utility.yul\":3518:3549   */\n      add\n        /* \"#utility.yul\":3513:3515   */\n      0x60\n        /* \"#utility.yul\":3502:3511   */\n      dup9\n        /* \"#utility.yul\":3498:3516   */\n      add\n        /* \"#utility.yul\":3491:3550   */\n      mstore\n        /* \"#utility.yul\":3573:3613   */\n      tag_121\n        /* \"#utility.yul\":3606:3612   */\n      dup4\n        /* \"#utility.yul\":3590:3604   */\n      dup4\n        /* \"#utility.yul\":3573:3613   */\n      tag_93\n      jump\t// in\n    tag_121:\n        /* \"#utility.yul\":3650:3665   */\n      dup9\n      dup7\n      add\n        /* \"#utility.yul\":3644:3666   */\n      mload\n        /* \"#utility.yul\":3707:3729   */\n      dup9\n      dup3\n      sub\n        /* \"#utility.yul\":3703:3734   */\n      dup4\n      add\n        /* \"#utility.yul\":3697:3700   */\n      0x80\n        /* \"#utility.yul\":3682:3701   */\n      dup11\n      add\n        /* \"#utility.yul\":3675:3735   */\n      mstore\n        /* \"#utility.yul\":3784:3805   */\n      dup1\n      mload\n        /* \"#utility.yul\":3814:3836   */\n      dup1\n      dup4\n      mstore\n        /* \"#utility.yul\":3890:3913   */\n      swap1\n      dup7\n      add\n      swap5\n      pop\n        /* \"#utility.yul\":3931:3932   */\n      0x00\n      swap4\n      pop\n        /* \"#utility.yul\":3852:3867   */\n      swap1\n      dup6\n      add\n      swap1\n        /* \"#utility.yul\":3941:4244   */\n    tag_122:\n        /* \"#utility.yul\":3955:3961   */\n      dup1\n        /* \"#utility.yul\":3952:3953   */\n      dup5\n        /* \"#utility.yul\":3949:3962   */\n      lt\n        /* \"#utility.yul\":3941:4244   */\n      iszero\n      tag_124\n      jumpi\n        /* \"#utility.yul\":4014:4027   */\n      dup5\n      mload\n        /* \"#utility.yul\":4056:4065   */\n      dup1\n      mload\n      sub(shl(0xa0, 0x01), 0x01)\n        /* \"#utility.yul\":4052:4110   */\n      and\n        /* \"#utility.yul\":4040:4111   */\n      dup4\n      mstore\n        /* \"#utility.yul\":4151:4162   */\n      dup7\n      add\n        /* \"#utility.yul\":4145:4163   */\n      mload\n        /* \"#utility.yul\":4131:4143   */\n      dup7\n      dup4\n      add\n        /* \"#utility.yul\":4124:4164   */\n      mstore\n        /* \"#utility.yul\":4219:4234   */\n      swap4\n      dup6\n      add\n      swap4\n        /* \"#utility.yul\":3977:3978   */\n      0x01\n        /* \"#utility.yul\":3970:3979   */\n      swap4\n      swap1\n      swap4\n      add\n      swap3\n        /* \"#utility.yul\":4184:4196   */\n      swap1\n      dup7\n      add\n      swap1\n        /* \"#utility.yul\":3941:4244   */\n      jump(tag_122)\n    tag_124:\n      pop\n        /* \"#utility.yul\":4293:4295   */\n      0x60\n        /* \"#utility.yul\":4281:4296   */\n      dup10\n      add\n        /* \"#utility.yul\":4275:4297   */\n      mload\n      sub(shl(0xa0, 0x01), 0x01)\n        /* \"#utility.yul\":1290:1344   */\n      and\n        /* \"#utility.yul\":4356:4360   */\n      0xa0\n        /* \"#utility.yul\":4341:4361   */\n      dup10\n      add\n        /* \"#utility.yul\":1278:1345   */\n      mstore\n        /* \"#utility.yul\":4411:4414   */\n      0x80\n        /* \"#utility.yul\":4399:4415   */\n      dup10\n      add\n        /* \"#utility.yul\":4393:4416   */\n      mload\n        /* \"#utility.yul\":4457:4476   */\n      dup9\n      dup3\n      sub\n        /* \"#utility.yul\":4453:4481   */\n      dup4\n      add\n        /* \"#utility.yul\":4447:4450   */\n      0xc0\n        /* \"#utility.yul\":4432:4451   */\n      dup11\n      add\n        /* \"#utility.yul\":4425:4482   */\n      mstore\n        /* \"#utility.yul\":4393:4416   */\n      swap6\n      pop\n        /* \"#utility.yul\":4499:4536   */\n      tag_126\n        /* \"#utility.yul\":4461:4464   */\n      dup2\n        /* \"#utility.yul\":4393:4416   */\n      dup8\n        /* \"#utility.yul\":4499:4536   */\n      tag_93\n      jump\t// in\n    tag_126:\n        /* \"#utility.yul\":4491:4536   */\n      swap11\n        /* \"#utility.yul\":2918:4542   */\n      swap10\n      pop\n      pop\n      pop\n      pop\n      pop\n      pop\n      pop\n      pop\n      pop\n      pop\n      jump\t// out\n        /* \"#utility.yul\":4547:4731   */\n    tag_44:\n        /* \"#utility.yul\":4617:4623   */\n      0x00\n        /* \"#utility.yul\":4670:4672   */\n      0x20\n        /* \"#utility.yul\":4658:4667   */\n      dup3\n        /* \"#utility.yul\":4649:4656   */\n      dup5\n        /* \"#utility.yul\":4645:4668   */\n      sub\n        /* \"#utility.yul\":4641:4673   */\n      slt\n        /* \"#utility.yul\":4638:4690   */\n      iszero\n      tag_128\n      jumpi\n        /* \"#utility.yul\":4686:4687   */\n      0x00\n        /* \"#utility.yul\":4683:4684   */\n      dup1\n        /* \"#utility.yul\":4676:4688   */\n      revert\n        /* \"#utility.yul\":4638:4690   */\n    tag_128:\n      pop\n        /* \"#utility.yul\":4709:4725   */\n      mload\n      swap2\n        /* \"#utility.yul\":4547:4731   */\n      swap1\n      pop\n      jump\t// out\n        /* \"#utility.yul\":5291:5568   */\n    tag_61:\n        /* \"#utility.yul\":5358:5364   */\n      0x00\n        /* \"#utility.yul\":5411:5413   */\n      0x20\n        /* \"#utility.yul\":5399:5408   */\n      dup3\n        /* \"#utility.yul\":5390:5397   */\n      dup5\n        /* \"#utility.yul\":5386:5409   */\n      sub\n        /* \"#utility.yul\":5382:5414   */\n      slt\n        /* \"#utility.yul\":5379:5431   */\n      iszero\n      tag_132\n      jumpi\n        /* \"#utility.yul\":5427:5428   */\n      0x00\n        /* \"#utility.yul\":5424:5425   */\n      dup1\n        /* \"#utility.yul\":5417:5429   */\n      revert\n        /* \"#utility.yul\":5379:5431   */\n    tag_132:\n        /* \"#utility.yul\":5459:5468   */\n      dup2\n        /* \"#utility.yul\":5453:5469   */\n      mload\n        /* \"#utility.yul\":5512:5517   */\n      dup1\n        /* \"#utility.yul\":5505:5518   */\n      iszero\n        /* \"#utility.yul\":5498:5519   */\n      iszero\n        /* \"#utility.yul\":5491:5496   */\n      dup2\n        /* \"#utility.yul\":5488:5520   */\n      eq\n        /* \"#utility.yul\":5478:5538   */\n      tag_110\n      jumpi\n        /* \"#utility.yul\":5534:5535   */\n      0x00\n        /* \"#utility.yul\":5531:5532   */\n      dup1\n        /* \"#utility.yul\":5524:5536   */\n      revert\n        /* \"#utility.yul\":5762:6303   */\n    tag_68:\n        /* \"#utility.yul\":5968:5972   */\n      0x00\n      sub(shl(0xa0, 0x01), 0x01)\n        /* \"#utility.yul\":6078:6080   */\n      dup1\n        /* \"#utility.yul\":6070:6076   */\n      dup9\n        /* \"#utility.yul\":6066:6081   */\n      and\n        /* \"#utility.yul\":6055:6064   */\n      dup4\n        /* \"#utility.yul\":6048:6082   */\n      mstore\n        /* \"#utility.yul\":6118:6121   */\n      0x80\n        /* \"#utility.yul\":6113:6115   */\n      0x20\n        /* \"#utility.yul\":6102:6111   */\n      dup5\n        /* \"#utility.yul\":6098:6116   */\n      add\n        /* \"#utility.yul\":6091:6122   */\n      mstore\n        /* \"#utility.yul\":6139:6202   */\n      tag_137\n        /* \"#utility.yul\":6197:6200   */\n      0x80\n        /* \"#utility.yul\":6186:6195   */\n      dup5\n        /* \"#utility.yul\":6182:6201   */\n      add\n        /* \"#utility.yul\":6174:6180   */\n      dup8\n        /* \"#utility.yul\":6166:6172   */\n      dup10\n        /* \"#utility.yul\":6139:6202   */\n      tag_92\n      jump\t// in\n    tag_137:\n        /* \"#utility.yul\":6238:6253   */\n      swap5\n      and\n        /* \"#utility.yul\":6233:6235   */\n      0x40\n        /* \"#utility.yul\":6218:6236   */\n      dup4\n      add\n        /* \"#utility.yul\":6211:6254   */\n      mstore\n      pop\n        /* \"#utility.yul\":6285:6287   */\n      0x60\n        /* \"#utility.yul\":6270:6288   */\n      add\n        /* \"#utility.yul\":6263:6297   */\n      mstore\n        /* \"#utility.yul\":6131:6202   */\n      swap4\n        /* \"#utility.yul\":5762:6303   */\n      swap3\n      pop\n      pop\n      pop\n      jump\t// out\n\n    auxdata: 0xa264697066735822122049a050e9247e2aaceddb510ae69cf9589ab66ee89d5c7493d8723655eb50c49864736f6c63430008130033\n}\n",
				"bytecode": {
					"linkReferences": {},
					"object": "608060405234801561001057600080fd5b50604051610be4380380610be483398101604081905261002f916101b2565b33806000816100855760405162461bcd60e51b815260206004820152601860248201527f43616e6e6f7420736574206f776e657220746f207a65726f000000000000000060448201526064015b60405180910390fd5b600080546001600160a01b0319166001600160a01b03848116919091179091558116156100b5576100b5816100ed565b5050600280546001600160a01b039485166001600160a01b0319918216179091556003805493909416921691909117909155506101e5565b336001600160a01b038216036101455760405162461bcd60e51b815260206004820152601760248201527f43616e6e6f74207472616e7366657220746f2073656c66000000000000000000604482015260640161007c565b600180546001600160a01b0319166001600160a01b0383811691821790925560008054604051929316917fed8889f560326eb138920d842192f0eb3dd22b4f139c87a2c57538e05bae12789190a350565b80516001600160a01b03811681146101ad57600080fd5b919050565b600080604083850312156101c557600080fd5b6101ce83610196565b91506101dc60208401610196565b90509250929050565b6109f0806101f46000396000f3fe608060405234801561001057600080fd5b506004361061004c5760003560e01c80630eb5ad451461005157806379ba5097146100775780638da5cb5b14610081578063f2fde38b1461009c575b600080fd5b61006461005f366004610729565b6100af565b6040519081526020015b60405180910390f35b61007f610529565b005b6000546040516001600160a01b03909116815260200161006e565b61007f6100aa3660046107c1565b6105e7565b60006100b96105fb565b6040805160a081019091526001600160a01b03851660c08201526000908060e081016040516020818303038152906040528152602001858560405160200161010292919061080c565b60408051601f198184030181529190528152602001600060405190808252806020026020018201604052801561015e57816020015b60408051808201909152600080825260208201528152602001906001900390816101375790505b5081526003546001600160a01b031660208083019190915260408051808301825262030d4090819052815160248082019290925282518082039092018252604401825291820180517bffffffffffffffffffffffffffffffffffffffffffffffffffffffff167f97a657c900000000000000000000000000000000000000000000000000000000179052909101526002546040517f20487ded0000000000000000000000000000000000000000000000000000000081529192506000916001600160a01b03909116906320487ded9061023d908a90869060040161086e565b602060405180830381865afa15801561025a573d6000803e3d6000fd5b505050506040513d601f19601f8201168201806040525081019061027e9190610948565b6003546040516370a0823160e01b81523060048201529192506001600160a01b0316906370a0823190602401602060405180830381865afa1580156102c7573d6000803e3d6000fd5b505050506040513d601f19601f820116820180604052508101906102eb9190610948565b8111156103a0576003546040516370a0823160e01b81523060048201526001600160a01b03909116906370a0823190602401602060405180830381865afa15801561033a573d6000803e3d6000fd5b505050506040513d601f19601f8201168201806040525081019061035e9190610948565b6040517f8f0f42060000000000000000000000000000000000000000000000000000000081526004810191909152602481018290526044015b60405180910390fd5b6003546002546040517f095ea7b30000000000000000000000000000000000000000000000000000000081526001600160a01b0391821660048201526024810184905291169063095ea7b3906044016020604051808303816000875af115801561040e573d6000803e3d6000fd5b505050506040513d601f19601f820116820180604052508101906104329190610961565b506002546040517f96f4e9f90000000000000000000000000000000000000000000000000000000081526001600160a01b03909116906396f4e9f99061047e908a90869060040161086e565b6020604051808303816000875af115801561049d573d6000803e3d6000fd5b505050506040513d601f19601f820116820180604052508101906104c19190610948565b60035460405191945067ffffffffffffffff89169185917fd36445359b3c6e26c120659aef090ce0f2eb005cf9af450d11aa1225609b4f4d91610517918b918b918b916001600160a01b03909116908990610983565b60405180910390a35050949350505050565b6001546001600160a01b031633146105835760405162461bcd60e51b815260206004820152601660248201527f4d7573742062652070726f706f736564206f776e6572000000000000000000006044820152606401610397565b600080543373ffffffffffffffffffffffffffffffffffffffff19808316821784556001805490911690556040516001600160a01b0390921692909183917f8be0079c531659141344cd1fd0a4f28419497f9722a3daafe3b4186f6b6457e091a350565b6105ef6105fb565b6105f881610657565b50565b6000546001600160a01b031633146106555760405162461bcd60e51b815260206004820152601660248201527f4f6e6c792063616c6c61626c65206279206f776e6572000000000000000000006044820152606401610397565b565b336001600160a01b038216036106af5760405162461bcd60e51b815260206004820152601760248201527f43616e6e6f74207472616e7366657220746f2073656c660000000000000000006044820152606401610397565b6001805473ffffffffffffffffffffffffffffffffffffffff19166001600160a01b0383811691821790925560008054604051929316917fed8889f560326eb138920d842192f0eb3dd22b4f139c87a2c57538e05bae12789190a350565b80356001600160a01b038116811461072457600080fd5b919050565b6000806000806060858703121561073f57600080fd5b843567ffffffffffffffff808216821461075857600080fd5b8195506107676020880161070d565b9450604087013591508082111561077d57600080fd5b818701915087601f83011261079157600080fd5b8135818111156107a057600080fd5b8860208285010111156107b257600080fd5b95989497505060200194505050565b6000602082840312156107d357600080fd5b6107dc8261070d565b9392505050565b81835281816020850137506000828201602090810191909152601f909101601f19169091010190565b6020815260006108206020830184866107e3565b949350505050565b6000815180845260005b8181101561084e57602081850181015186830182015201610832565b506000602082860101526020601f19601f83011685010191505092915050565b6000604067ffffffffffffffff8516835260208181850152845160a08386015261089b60e0860182610828565b905081860151603f19808784030160608801526108b88383610828565b88860151888203830160808a01528051808352908601945060009350908501905b8084101561090b57845180516001600160a01b03168352860151868301529385019360019390930192908601906108d9565b5060608901516001600160a01b031660a08901526080890151888203830160c08a0152955061093a8187610828565b9a9950505050505050505050565b60006020828403121561095a57600080fd5b5051919050565b60006020828403121561097357600080fd5b815180151581146107dc57600080fd5b60006001600160a01b038088168352608060208401526109a76080840187896107e3565b941660408301525060600152939250505056fea264697066735822122049a050e9247e2aaceddb510ae69cf9589ab66ee89d5c7493d8723655eb50c49864736f6c63430008130033",
					"opcodes": "PUSH1 0x80 PUSH1 0x40 MSTORE CALLVALUE DUP1 ISZERO PUSH2 0x10 JUMPI PUSH1 0x0 DUP1 REVERT JUMPDEST POP PUSH1 0x40 MLOAD PUSH2 0xBE4 CODESIZE SUB DUP1 PUSH2 0xBE4 DUP4 CODECOPY DUP2 ADD PUSH1 0x40 DUP2 SWAP1 MSTORE PUSH2 0x2F SWAP2 PUSH2 0x1B2 JUMP JUMPDEST CALLER DUP1 PUSH1 0x0 DUP2 PUSH2 0x85 JUMPI PUSH1 0x40 MLOAD PUSH3 0x461BCD PUSH1 0xE5 SHL DUP2 MSTORE PUSH1 0x20 PUSH1 0x4 DUP3 ADD MSTORE PUSH1 0x18 PUSH1 0x24 DUP3 ADD MSTORE PUSH32 0x43616E6E6F7420736574206F776E657220746F207A65726F0000000000000000 PUSH1 0x44 DUP3 ADD MSTORE PUSH1 0x64 ADD JUMPDEST PUSH1 0x40 MLOAD DUP1 SWAP2 SUB SWAP1 REVERT JUMPDEST PUSH1 0x0 DUP1 SLOAD PUSH1 0x1 PUSH1 0x1 PUSH1 0xA0 SHL SUB NOT AND PUSH1 0x1 PUSH1 0x1 PUSH1 0xA0 SHL SUB DUP5 DUP2 AND SWAP2 SWAP1 SWAP2 OR SWAP1 SWAP2 SSTORE DUP2 AND ISZERO PUSH2 0xB5 JUMPI PUSH2 0xB5 DUP2 PUSH2 0xED JUMP JUMPDEST POP POP PUSH1 0x2 DUP1 SLOAD PUSH1 0x1 PUSH1 0x1 PUSH1 0xA0 SHL SUB SWAP5 DUP6 AND PUSH1 0x1 PUSH1 0x1 PUSH1 0xA0 SHL SUB NOT SWAP2 DUP3 AND OR SWAP1 SWAP2 SSTORE PUSH1 0x3 DUP1 SLOAD SWAP4 SWAP1 SWAP5 AND SWAP3 AND SWAP2 SWAP1 SWAP2 OR SWAP1 SWAP2 SSTORE POP PUSH2 0x1E5 JUMP JUMPDEST CALLER PUSH1 0x1 PUSH1 0x1 PUSH1 0xA0 SHL SUB DUP3 AND SUB PUSH2 0x145 JUMPI PUSH1 0x40 MLOAD PUSH3 0x461BCD PUSH1 0xE5 SHL DUP2 MSTORE PUSH1 0x20 PUSH1 0x4 DUP3 ADD MSTORE PUSH1 0x17 PUSH1 0x24 DUP3 ADD MSTORE PUSH32 0x43616E6E6F74207472616E7366657220746F2073656C66000000000000000000 PUSH1 0x44 DUP3 ADD MSTORE PUSH1 0x64 ADD PUSH2 0x7C JUMP JUMPDEST PUSH1 0x1 DUP1 SLOAD PUSH1 0x1 PUSH1 0x1 PUSH1 0xA0 SHL SUB NOT AND PUSH1 0x1 PUSH1 0x1 PUSH1 0xA0 SHL SUB DUP4 DUP2 AND SWAP2 DUP3 OR SWAP1 SWAP3 SSTORE PUSH1 0x0 DUP1 SLOAD PUSH1 0x40 MLOAD SWAP3 SWAP4 AND SWAP2 PUSH32 0xED8889F560326EB138920D842192F0EB3DD22B4F139C87A2C57538E05BAE1278 SWAP2 SWAP1 LOG3 POP JUMP JUMPDEST DUP1 MLOAD PUSH1 0x1 PUSH1 0x1 PUSH1 0xA0 SHL SUB DUP2 AND DUP2 EQ PUSH2 0x1AD JUMPI PUSH1 0x0 DUP1 REVERT JUMPDEST SWAP2 SWAP1 POP JUMP JUMPDEST PUSH1 0x0 DUP1 PUSH1 0x40 DUP4 DUP6 SUB SLT ISZERO PUSH2 0x1C5 JUMPI PUSH1 0x0 DUP1 REVERT JUMPDEST PUSH2 0x1CE DUP4 PUSH2 0x196 JUMP JUMPDEST SWAP2 POP PUSH2 0x1DC PUSH1 0x20 DUP5 ADD PUSH2 0x196 JUMP JUMPDEST SWAP1 POP SWAP3 POP SWAP3 SWAP1 POP JUMP JUMPDEST PUSH2 0x9F0 DUP1 PUSH2 0x1F4 PUSH1 0x0 CODECOPY PUSH1 0x0 RETURN INVALID PUSH1 0x80 PUSH1 0x40 MSTORE CALLVALUE DUP1 ISZERO PUSH2 0x10 JUMPI PUSH1 0x0 DUP1 REVERT JUMPDEST POP PUSH1 0x4 CALLDATASIZE LT PUSH2 0x4C JUMPI PUSH1 0x0 CALLDATALOAD PUSH1 0xE0 SHR DUP1 PUSH4 0xEB5AD45 EQ PUSH2 0x51 JUMPI DUP1 PUSH4 0x79BA5097 EQ PUSH2 0x77 JUMPI DUP1 PUSH4 0x8DA5CB5B EQ PUSH2 0x81 JUMPI DUP1 PUSH4 0xF2FDE38B EQ PUSH2 0x9C JUMPI JUMPDEST PUSH1 0x0 DUP1 REVERT JUMPDEST PUSH2 0x64 PUSH2 0x5F CALLDATASIZE PUSH1 0x4 PUSH2 0x729 JUMP JUMPDEST PUSH2 0xAF JUMP JUMPDEST PUSH1 0x40 MLOAD SWAP1 DUP2 MSTORE PUSH1 0x20 ADD JUMPDEST PUSH1 0x40 MLOAD DUP1 SWAP2 SUB SWAP1 RETURN JUMPDEST PUSH2 0x7F PUSH2 0x529 JUMP JUMPDEST STOP JUMPDEST PUSH1 0x0 SLOAD PUSH1 0x40 MLOAD PUSH1 0x1 PUSH1 0x1 PUSH1 0xA0 SHL SUB SWAP1 SWAP2 AND DUP2 MSTORE PUSH1 0x20 ADD PUSH2 0x6E JUMP JUMPDEST PUSH2 0x7F PUSH2 0xAA CALLDATASIZE PUSH1 0x4 PUSH2 0x7C1 JUMP JUMPDEST PUSH2 0x5E7 JUMP JUMPDEST PUSH1 0x0 PUSH2 0xB9 PUSH2 0x5FB JUMP JUMPDEST PUSH1 0x40 DUP1 MLOAD PUSH1 0xA0 DUP2 ADD SWAP1 SWAP2 MSTORE PUSH1 0x1 PUSH1 0x1 PUSH1 0xA0 SHL SUB DUP6 AND PUSH1 0xC0 DUP3 ADD MSTORE PUSH1 0x0 SWAP1 DUP1 PUSH1 0xE0 DUP2 ADD PUSH1 0x40 MLOAD PUSH1 0x20 DUP2 DUP4 SUB SUB DUP2 MSTORE SWAP1 PUSH1 0x40 MSTORE DUP2 MSTORE PUSH1 0x20 ADD DUP6 DUP6 PUSH1 0x40 MLOAD PUSH1 0x20 ADD PUSH2 0x102 SWAP3 SWAP2 SWAP1 PUSH2 0x80C JUMP JUMPDEST PUSH1 0x40 DUP1 MLOAD PUSH1 0x1F NOT DUP2 DUP5 SUB ADD DUP2 MSTORE SWAP2 SWAP1 MSTORE DUP2 MSTORE PUSH1 0x20 ADD PUSH1 0x0 PUSH1 0x40 MLOAD SWAP1 DUP1 DUP3 MSTORE DUP1 PUSH1 0x20 MUL PUSH1 0x20 ADD DUP3 ADD PUSH1 0x40 MSTORE DUP1 ISZERO PUSH2 0x15E JUMPI DUP2 PUSH1 0x20 ADD JUMPDEST PUSH1 0x40 DUP1 MLOAD DUP1 DUP3 ADD SWAP1 SWAP2 MSTORE PUSH1 0x0 DUP1 DUP3 MSTORE PUSH1 0x20 DUP3 ADD MSTORE DUP2 MSTORE PUSH1 0x20 ADD SWAP1 PUSH1 0x1 SWAP1 SUB SWAP1 DUP2 PUSH2 0x137 JUMPI SWAP1 POP JUMPDEST POP DUP2 MSTORE PUSH1 0x3 SLOAD PUSH1 0x1 PUSH1 0x1 PUSH1 0xA0 SHL SUB AND PUSH1 0x20 DUP1 DUP4 ADD SWAP2 SWAP1 SWAP2 MSTORE PUSH1 0x40 DUP1 MLOAD DUP1 DUP4 ADD DUP3 MSTORE PUSH3 0x30D40 SWAP1 DUP2 SWAP1 MSTORE DUP2 MLOAD PUSH1 0x24 DUP1 DUP3 ADD SWAP3 SWAP1 SWAP3 MSTORE DUP3 MLOAD DUP1 DUP3 SUB SWAP1 SWAP3 ADD DUP3 MSTORE PUSH1 0x44 ADD DUP3 MSTORE SWAP2 DUP3 ADD DUP1 MLOAD PUSH28 0xFFFFFFFFFFFFFFFFFFFFFFFFFFFFFFFFFFFFFFFFFFFFFFFFFFFFFFFF AND PUSH32 0x97A657C900000000000000000000000000000000000000000000000000000000 OR SWAP1 MSTORE SWAP1 SWAP2 ADD MSTORE PUSH1 0x2 SLOAD PUSH1 0x40 MLOAD PUSH32 0x20487DED00000000000000000000000000000000000000000000000000000000 DUP2 MSTORE SWAP2 SWAP3 POP PUSH1 0x0 SWAP2 PUSH1 0x1 PUSH1 0x1 PUSH1 0xA0 SHL SUB SWAP1 SWAP2 AND SWAP1 PUSH4 0x20487DED SWAP1 PUSH2 0x23D SWAP1 DUP11 SWAP1 DUP7 SWAP1 PUSH1 0x4 ADD PUSH2 0x86E JUMP JUMPDEST PUSH1 0x20 PUSH1 0x40 MLOAD DUP1 DUP4 SUB DUP2 DUP7 GAS STATICCALL ISZERO DUP1 ISZERO PUSH2 0x25A JUMPI RETURNDATASIZE PUSH1 0x0 DUP1 RETURNDATACOPY RETURNDATASIZE PUSH1 0x0 REVERT JUMPDEST POP POP POP POP PUSH1 0x40 MLOAD RETURNDATASIZE PUSH1 0x1F NOT PUSH1 0x1F DUP3 ADD AND DUP3 ADD DUP1 PUSH1 0x40 MSTORE POP DUP2 ADD SWAP1 PUSH2 0x27E SWAP2 SWAP1 PUSH2 0x948 JUMP JUMPDEST PUSH1 0x3 SLOAD PUSH1 0x40 MLOAD PUSH4 0x70A08231 PUSH1 0xE0 SHL DUP2 MSTORE ADDRESS PUSH1 0x4 DUP3 ADD MSTORE SWAP2 SWAP3 POP PUSH1 0x1 PUSH1 0x1 PUSH1 0xA0 SHL SUB AND SWAP1 PUSH4 0x70A08231 SWAP1 PUSH1 0x24 ADD PUSH1 0x20 PUSH1 0x40 MLOAD DUP1 DUP4 SUB DUP2 DUP7 GAS STATICCALL ISZERO DUP1 ISZERO PUSH2 0x2C7 JUMPI RETURNDATASIZE PUSH1 0x0 DUP1 RETURNDATACOPY RETURNDATASIZE PUSH1 0x0 REVERT JUMPDEST POP POP POP POP PUSH1 0x40 MLOAD RETURNDATASIZE PUSH1 0x1F NOT PUSH1 0x1F DUP3 ADD AND DUP3 ADD DUP1 PUSH1 0x40 MSTORE POP DUP2 ADD SWAP1 PUSH2 0x2EB SWAP2 SWAP1 PUSH2 0x948 JUMP JUMPDEST DUP2 GT ISZERO PUSH2 0x3A0 JUMPI PUSH1 0x3 SLOAD PUSH1 0x40 MLOAD PUSH4 0x70A08231 PUSH1 0xE0 SHL DUP2 MSTORE ADDRESS PUSH1 0x4 DUP3 ADD MSTORE PUSH1 0x1 PUSH1 0x1 PUSH1 0xA0 SHL SUB SWAP1 SWAP2 AND SWAP1 PUSH4 0x70A08231 SWAP1 PUSH1 0x24 ADD PUSH1 0x20 PUSH1 0x40 MLOAD DUP1 DUP4 SUB DUP2 DUP7 GAS STATICCALL ISZERO DUP1 ISZERO PUSH2 0x33A JUMPI RETURNDATASIZE PUSH1 0x0 DUP1 RETURNDATACOPY RETURNDATASIZE PUSH1 0x0 REVERT JUMPDEST POP POP POP POP PUSH1 0x40 MLOAD RETURNDATASIZE PUSH1 0x1F NOT PUSH1 0x1F DUP3 ADD AND DUP3 ADD DUP1 PUSH1 0x40 MSTORE POP DUP2 ADD SWAP1 PUSH2 0x35E SWAP2 SWAP1 PUSH2 0x948 JUMP JUMPDEST PUSH1 0x40 MLOAD PUSH32 0x8F0F420600000000000000000000000000000000000000000000000000000000 DUP2 MSTORE PUSH1 0x4 DUP2 ADD SWAP2 SWAP1 SWAP2 MSTORE PUSH1 0x24 DUP2 ADD DUP3 SWAP1 MSTORE PUSH1 0x44 ADD JUMPDEST PUSH1 0x40 MLOAD DUP1 SWAP2 SUB SWAP1 REVERT JUMPDEST PUSH1 0x3 SLOAD PUSH1 0x2 SLOAD PUSH1 0x40 MLOAD PUSH32 0x95EA7B300000000000000000000000000000000000000000000000000000000 DUP2 MSTORE PUSH1 0x1 PUSH1 0x1 PUSH1 0xA0 SHL SUB SWAP2 DUP3 AND PUSH1 0x4 DUP3 ADD MSTORE PUSH1 0x24 DUP2 ADD DUP5 SWAP1 MSTORE SWAP2 AND SWAP1 PUSH4 0x95EA7B3 SWAP1 PUSH1 0x44 ADD PUSH1 0x20 PUSH1 0x40 MLOAD DUP1 DUP4 SUB DUP2 PUSH1 0x0 DUP8 GAS CALL ISZERO DUP1 ISZERO PUSH2 0x40E JUMPI RETURNDATASIZE PUSH1 0x0 DUP1 RETURNDATACOPY RETURNDATASIZE PUSH1 0x0 REVERT JUMPDEST POP POP POP POP PUSH1 0x40 MLOAD RETURNDATASIZE PUSH1 0x1F NOT PUSH1 0x1F DUP3 ADD AND DUP3 ADD DUP1 PUSH1 0x40 MSTORE POP DUP2 ADD SWAP1 PUSH2 0x432 SWAP2 SWAP1 PUSH2 0x961 JUMP JUMPDEST POP PUSH1 0x2 SLOAD PUSH1 0x40 MLOAD PUSH32 0x96F4E9F900000000000000000000000000000000000000000000000000000000 DUP2 MSTORE PUSH1 0x1 PUSH1 0x1 PUSH1 0xA0 SHL SUB SWAP1 SWAP2 AND SWAP1 PUSH4 0x96F4E9F9 SWAP1 PUSH2 0x47E SWAP1 DUP11 SWAP1 DUP7 SWAP1 PUSH1 0x4 ADD PUSH2 0x86E JUMP JUMPDEST PUSH1 0x20 PUSH1 0x40 MLOAD DUP1 DUP4 SUB DUP2 PUSH1 0x0 DUP8 GAS CALL ISZERO DUP1 ISZERO PUSH2 0x49D JUMPI RETURNDATASIZE PUSH1 0x0 DUP1 RETURNDATACOPY RETURNDATASIZE PUSH1 0x0 REVERT JUMPDEST POP POP POP POP PUSH1 0x40 MLOAD RETURNDATASIZE PUSH1 0x1F NOT PUSH1 0x1F DUP3 ADD AND DUP3 ADD DUP1 PUSH1 0x40 MSTORE POP DUP2 ADD SWAP1 PUSH2 0x4C1 SWAP2 SWAP1 PUSH2 0x948 JUMP JUMPDEST PUSH1 0x3 SLOAD PUSH1 0x40 MLOAD SWAP2 SWAP5 POP PUSH8 0xFFFFFFFFFFFFFFFF DUP10 AND SWAP2 DUP6 SWAP2 PUSH32 0xD36445359B3C6E26C120659AEF090CE0F2EB005CF9AF450D11AA1225609B4F4D SWAP2 PUSH2 0x517 SWAP2 DUP12 SWAP2 DUP12 SWAP2 DUP12 SWAP2 PUSH1 0x1 PUSH1 0x1 PUSH1 0xA0 SHL SUB SWAP1 SWAP2 AND SWAP1 DUP10 SWAP1 PUSH2 0x983 JUMP JUMPDEST PUSH1 0x40 MLOAD DUP1 SWAP2 SUB SWAP1 LOG3 POP POP SWAP5 SWAP4 POP POP POP POP JUMP JUMPDEST PUSH1 0x1 SLOAD PUSH1 0x1 PUSH1 0x1 PUSH1 0xA0 SHL SUB AND CALLER EQ PUSH2 0x583 JUMPI PUSH1 0x40 MLOAD PUSH3 0x461BCD PUSH1 0xE5 SHL DUP2 MSTORE PUSH1 0x20 PUSH1 0x4 DUP3 ADD MSTORE PUSH1 0x16 PUSH1 0x24 DUP3 ADD MSTORE PUSH32 0x4D7573742062652070726F706F736564206F776E657200000000000000000000 PUSH1 0x44 DUP3 ADD MSTORE PUSH1 0x64 ADD PUSH2 0x397 JUMP JUMPDEST PUSH1 0x0 DUP1 SLOAD CALLER PUSH20 0xFFFFFFFFFFFFFFFFFFFFFFFFFFFFFFFFFFFFFFFF NOT DUP1 DUP4 AND DUP3 OR DUP5 SSTORE PUSH1 0x1 DUP1 SLOAD SWAP1 SWAP2 AND SWAP1 SSTORE PUSH1 0x40 MLOAD PUSH1 0x1 PUSH1 0x1 PUSH1 0xA0 SHL SUB SWAP1 SWAP3 AND SWAP3 SWAP1 SWAP2 DUP4 SWAP2 PUSH32 0x8BE0079C531659141344CD1FD0A4F28419497F9722A3DAAFE3B4186F6B6457E0 SWAP2 LOG3 POP JUMP JUMPDEST PUSH2 0x5EF PUSH2 0x5FB JUMP JUMPDEST PUSH2 0x5F8 DUP2 PUSH2 0x657 JUMP JUMPDEST POP JUMP JUMPDEST PUSH1 0x0 SLOAD PUSH1 0x1 PUSH1 0x1 PUSH1 0xA0 SHL SUB AND CALLER EQ PUSH2 0x655 JUMPI PUSH1 0x40 MLOAD PUSH3 0x461BCD PUSH1 0xE5 SHL DUP2 MSTORE PUSH1 0x20 PUSH1 0x4 DUP3 ADD MSTORE PUSH1 0x16 PUSH1 0x24 DUP3 ADD MSTORE PUSH32 0x4F6E6C792063616C6C61626C65206279206F776E657200000000000000000000 PUSH1 0x44 DUP3 ADD MSTORE PUSH1 0x64 ADD PUSH2 0x397 JUMP JUMPDEST JUMP JUMPDEST CALLER PUSH1 0x1 PUSH1 0x1 PUSH1 0xA0 SHL SUB DUP3 AND SUB PUSH2 0x6AF JUMPI PUSH1 0x40 MLOAD PUSH3 0x461BCD PUSH1 0xE5 SHL DUP2 MSTORE PUSH1 0x20 PUSH1 0x4 DUP3 ADD MSTORE PUSH1 0x17 PUSH1 0x24 DUP3 ADD MSTORE PUSH32 0x43616E6E6F74207472616E7366657220746F2073656C66000000000000000000 PUSH1 0x44 DUP3 ADD MSTORE PUSH1 0x64 ADD PUSH2 0x397 JUMP JUMPDEST PUSH1 0x1 DUP1 SLOAD PUSH20 0xFFFFFFFFFFFFFFFFFFFFFFFFFFFFFFFFFFFFFFFF NOT AND PUSH1 0x1 PUSH1 0x1 PUSH1 0xA0 SHL SUB DUP4 DUP2 AND SWAP2 DUP3 OR SWAP1 SWAP3 SSTORE PUSH1 0x0 DUP1 SLOAD PUSH1 0x40 MLOAD SWAP3 SWAP4 AND SWAP2 PUSH32 0xED8889F560326EB138920D842192F0EB3DD22B4F139C87A2C57538E05BAE1278 SWAP2 SWAP1 LOG3 POP JUMP JUMPDEST DUP1 CALLDATALOAD PUSH1 0x1 PUSH1 0x1 PUSH1 0xA0 SHL SUB DUP2 AND DUP2 EQ PUSH2 0x724 JUMPI PUSH1 0x0 DUP1 REVERT JUMPDEST SWAP2 SWAP1 POP JUMP JUMPDEST PUSH1 0x0 DUP1 PUSH1 0x0 DUP1 PUSH1 0x60 DUP6 DUP8 SUB SLT ISZERO PUSH2 0x73F JUMPI PUSH1 0x0 DUP1 REVERT JUMPDEST DUP5 CALLDATALOAD PUSH8 0xFFFFFFFFFFFFFFFF DUP1 DUP3 AND DUP3 EQ PUSH2 0x758 JUMPI PUSH1 0x0 DUP1 REVERT JUMPDEST DUP2 SWAP6 POP PUSH2 0x767 PUSH1 0x20 DUP9 ADD PUSH2 0x70D JUMP JUMPDEST SWAP5 POP PUSH1 0x40 DUP8 ADD CALLDATALOAD SWAP2 POP DUP1 DUP3 GT ISZERO PUSH2 0x77D JUMPI PUSH1 0x0 DUP1 REVERT JUMPDEST DUP2 DUP8 ADD SWAP2 POP DUP8 PUSH1 0x1F DUP4 ADD SLT PUSH2 0x791 JUMPI PUSH1 0x0 DUP1 REVERT JUMPDEST DUP2 CALLDATALOAD DUP2 DUP2 GT ISZERO PUSH2 0x7A0 JUMPI PUSH1 0x0 DUP1 REVERT JUMPDEST DUP9 PUSH1 0x20 DUP3 DUP6 ADD ADD GT ISZERO PUSH2 0x7B2 JUMPI PUSH1 0x0 DUP1 REVERT JUMPDEST SWAP6 SWAP9 SWAP5 SWAP8 POP POP PUSH1 0x20 ADD SWAP5 POP POP POP JUMP JUMPDEST PUSH1 0x0 PUSH1 0x20 DUP3 DUP5 SUB SLT ISZERO PUSH2 0x7D3 JUMPI PUSH1 0x0 DUP1 REVERT JUMPDEST PUSH2 0x7DC DUP3 PUSH2 0x70D JUMP JUMPDEST SWAP4 SWAP3 POP POP POP JUMP JUMPDEST DUP2 DUP4 MSTORE DUP2 DUP2 PUSH1 0x20 DUP6 ADD CALLDATACOPY POP PUSH1 0x0 DUP3 DUP3 ADD PUSH1 0x20 SWAP1 DUP2 ADD SWAP2 SWAP1 SWAP2 MSTORE PUSH1 0x1F SWAP1 SWAP2 ADD PUSH1 0x1F NOT AND SWAP1 SWAP2 ADD ADD SWAP1 JUMP JUMPDEST PUSH1 0x20 DUP2 MSTORE PUSH1 0x0 PUSH2 0x820 PUSH1 0x20 DUP4 ADD DUP5 DUP7 PUSH2 0x7E3 JUMP JUMPDEST SWAP5 SWAP4 POP POP POP POP JUMP JUMPDEST PUSH1 0x0 DUP2 MLOAD DUP1 DUP5 MSTORE PUSH1 0x0 JUMPDEST DUP2 DUP2 LT ISZERO PUSH2 0x84E JUMPI PUSH1 0x20 DUP2 DUP6 ADD DUP2 ADD MLOAD DUP7 DUP4 ADD DUP3 ADD MSTORE ADD PUSH2 0x832 JUMP JUMPDEST POP PUSH1 0x0 PUSH1 0x20 DUP3 DUP7 ADD ADD MSTORE PUSH1 0x20 PUSH1 0x1F NOT PUSH1 0x1F DUP4 ADD AND DUP6 ADD ADD SWAP2 POP POP SWAP3 SWAP2 POP POP JUMP JUMPDEST PUSH1 0x0 PUSH1 0x40 PUSH8 0xFFFFFFFFFFFFFFFF DUP6 AND DUP4 MSTORE PUSH1 0x20 DUP2 DUP2 DUP6 ADD MSTORE DUP5 MLOAD PUSH1 0xA0 DUP4 DUP7 ADD MSTORE PUSH2 0x89B PUSH1 0xE0 DUP7 ADD DUP3 PUSH2 0x828 JUMP JUMPDEST SWAP1 POP DUP2 DUP7 ADD MLOAD PUSH1 0x3F NOT DUP1 DUP8 DUP5 SUB ADD PUSH1 0x60 DUP9 ADD MSTORE PUSH2 0x8B8 DUP4 DUP4 PUSH2 0x828 JUMP JUMPDEST DUP9 DUP7 ADD MLOAD DUP9 DUP3 SUB DUP4 ADD PUSH1 0x80 DUP11 ADD MSTORE DUP1 MLOAD DUP1 DUP4 MSTORE SWAP1 DUP7 ADD SWAP5 POP PUSH1 0x0 SWAP4 POP SWAP1 DUP6 ADD SWAP1 JUMPDEST DUP1 DUP5 LT ISZERO PUSH2 0x90B JUMPI DUP5 MLOAD DUP1 MLOAD PUSH1 0x1 PUSH1 0x1 PUSH1 0xA0 SHL SUB AND DUP4 MSTORE DUP7 ADD MLOAD DUP7 DUP4 ADD MSTORE SWAP4 DUP6 ADD SWAP4 PUSH1 0x1 SWAP4 SWAP1 SWAP4 ADD SWAP3 SWAP1 DUP7 ADD SWAP1 PUSH2 0x8D9 JUMP JUMPDEST POP PUSH1 0x60 DUP10 ADD MLOAD PUSH1 0x1 PUSH1 0x1 PUSH1 0xA0 SHL SUB AND PUSH1 0xA0 DUP10 ADD MSTORE PUSH1 0x80 DUP10 ADD MLOAD DUP9 DUP3 SUB DUP4 ADD PUSH1 0xC0 DUP11 ADD MSTORE SWAP6 POP PUSH2 0x93A DUP2 DUP8 PUSH2 0x828 JUMP JUMPDEST SWAP11 SWAP10 POP POP POP POP POP POP POP POP POP POP JUMP JUMPDEST PUSH1 0x0 PUSH1 0x20 DUP3 DUP5 SUB SLT ISZERO PUSH2 0x95A JUMPI PUSH1 0x0 DUP1 REVERT JUMPDEST POP MLOAD SWAP2 SWAP1 POP JUMP JUMPDEST PUSH1 0x0 PUSH1 0x20 DUP3 DUP5 SUB SLT ISZERO PUSH2 0x973 JUMPI PUSH1 0x0 DUP1 REVERT JUMPDEST DUP2 MLOAD DUP1 ISZERO ISZERO DUP2 EQ PUSH2 0x7DC JUMPI PUSH1 0x0 DUP1 REVERT JUMPDEST PUSH1 0x0 PUSH1 0x1 PUSH1 0x1 PUSH1 0xA0 SHL SUB DUP1 DUP9 AND DUP4 MSTORE PUSH1 0x80 PUSH1 0x20 DUP5 ADD MSTORE PUSH2 0x9A7 PUSH1 0x80 DUP5 ADD DUP8 DUP10 PUSH2 0x7E3 JUMP JUMPDEST SWAP5 AND PUSH1 0x40 DUP4 ADD MSTORE POP PUSH1 0x60 ADD MSTORE SWAP4 SWAP3 POP POP POP JUMP INVALID LOG2 PUSH5 0x6970667358 0x22 SLT KECCAK256 0x49 LOG0 POP 0xE9 0x24 PUSH31 0x2AACEDDB510AE69CF9589AB66EE89D5C7493D8723655EB50C49864736F6C63 NUMBER STOP ADDMOD SGT STOP CALLER "
				},
				"gasEstimates": {
					"creation": {
						"codeDepositCost": "508800",
						"executionCost": "infinite",
						"totalCost": "infinite"
					},
					"external": {
						"acceptOwnership()": "52287",
						"owner()": "2323",
						"sendMessage(uint64,address,string)": "infinite",
						"transferOwnership(address)": "30468"
					}
				},
				"methodIdentifiers": {
					"acceptOwnership()": "79ba5097",
					"owner()": "8da5cb5b",
					"sendMessage(uint64,address,string)": "0eb5ad45",
					"transferOwnership(address)": "f2fde38b"
				}
			},
			"storageLayout": {
				"storage": [
					{
						"astId": 136,
						"contract": "CCIP/Sender.sol:Sender",
						"label": "s_owner",
						"offset": 0,
						"slot": "0",
						"type": "t_address"
					},
					{
						"astId": 138,
						"contract": "CCIP/Sender.sol:Sender",
						"label": "s_pendingOwner",
						"offset": 0,
						"slot": "1",
						"type": "t_address"
					},
					{
						"astId": 453,
						"contract": "CCIP/Sender.sol:Sender",
						"label": "s_router",
						"offset": 0,
						"slot": "2",
						"type": "t_contract(IRouterClient)51"
					},
					{
						"astId": 456,
						"contract": "CCIP/Sender.sol:Sender",
						"label": "s_linkToken",
						"offset": 0,
						"slot": "3",
						"type": "t_contract(LinkTokenInterface)417"
					}
				],
				"types": {
					"t_address": {
						"encoding": "inplace",
						"label": "address",
						"numberOfBytes": "20"
					},
					"t_contract(IRouterClient)51": {
						"encoding": "inplace",
						"label": "contract IRouterClient",
						"numberOfBytes": "20"
					},
					"t_contract(LinkTokenInterface)417": {
						"encoding": "inplace",
						"label": "contract LinkTokenInterface",
						"numberOfBytes": "20"
					}
				}
			},
			"userdoc": {
				"kind": "user",
				"methods": {
					"acceptOwnership()": {
						"notice": "Allows an ownership transfer to be completed by the recipient."
					},
					"constructor": {
						"notice": "Constructor initializes the contract with the router address."
					},
					"owner()": {
						"notice": "Get the current owner"
					},
					"sendMessage(uint64,address,string)": {
						"notice": "Sends data to receiver on the destination chain."
					},
					"transferOwnership(address)": {
						"notice": "Allows an owner to begin transferring ownership to a new address."
					}
				},
				"version": 1
			}
		}
	}
}