{
	"data": {
		"bytecode": {
			"linkReferences": {},
			"object": "608060405234801561001057600080fd5b506040516113c53803806113c58339818101604052602081101561003357600080fd5b5051338060008161008b576040805162461bcd60e51b815260206004820152601860248201527f43616e6e6f7420736574206f776e657220746f207a65726f0000000000000000604482015290519081900360640190fd5b600080546001600160a01b0319166001600160a01b03848116919091179091558116156100bb576100bb816100d3565b5050506100cd8161018260201b60201c565b506101f1565b6001600160a01b038116331415610131576040805162461bcd60e51b815260206004820152601760248201527f43616e6e6f74207472616e7366657220746f2073656c66000000000000000000604482015290519081900360640190fd5b600180546001600160a01b0319166001600160a01b0383811691821790925560008054604051929316917fed8889f560326eb138920d842192f0eb3dd22b4f139c87a2c57538e05bae12789190a350565b60048054604080518082018252600161ffff80851691909101168082526001600160a01b0395909516602091820181905261ffff19909316851762010000600160b01b0319166201000084021790935560009384526003909252912080546001600160a01b0319169091179055565b6111c5806102006000396000f3fe608060405234801561001057600080fd5b50600436106101775760003560e01c80638da5cb5b116100d8578063b633620c1161008c578063f2fde38b11610066578063f2fde38b146103cb578063f8a2abd3146103f1578063feaf968c1461041757610177565b8063b633620c14610385578063c1597304146103a2578063e8c4be30146103c357610177565b80639a6fc8f5116100bd5780639a6fc8f514610319578063a928c09614610342578063b5ab58dc1461036857610177565b80638da5cb5b146103095780638f6b4d911461031157610177565b80636001ac531161012f5780637284e416116101145780637284e4161461027a57806379ba5097146102f75780638205bf6a1461030157610177565b80636001ac53146101ff578063668a0f021461027257610177565b806350d25bcd1161016057806350d25bcd146101be57806354fd4d50146101d857806358303b10146101e057610177565b8063245a7bfc1461017c578063313ce567146101a0575b600080fd5b61018461041f565b604080516001600160a01b039092168252519081900360200190f35b6101a8610434565b6040805160ff9092168252519081900360200190f35b6101c66104b8565b60408051918252519081900360200190f35b6101c661050b565b6101e861055e565b6040805161ffff9092168252519081900360200190f35b6102286004803603602081101561021557600080fd5b503569ffffffffffffffffffff16610568565b604051808669ffffffffffffffffffff1681526020018581526020018481526020018381526020018269ffffffffffffffffffff1681526020019550505050505060405180910390f35b6101c661067a565b61028261073b565b6040805160208082528351818301528351919283929083019185019080838360005b838110156102bc5781810151838201526020016102a4565b50505050905090810190601f1680156102e95780820380516001836020036101000a031916815260200191505b509250505060405180910390f35b6102ff610880565b005b6101c6610936565b610184610989565b610228610998565b6102286004803603602081101561032f57600080fd5b503569ffffffffffffffffffff16610aa0565b6102ff6004803603602081101561035857600080fd5b50356001600160a01b0316610b9d565b6101c66004803603602081101561037e57600080fd5b5035610c76565b6101c66004803603602081101561039b57600080fd5b5035610d56565b610184600480360360208110156103b857600080fd5b503561ffff16610dff565b610184610e1e565b6102ff600480360360208110156103e157600080fd5b50356001600160a01b0316610e2d565b6102ff6004803603602081101561040757600080fd5b50356001600160a01b0316610e41565b610228610ea2565b6004546201000090046001600160a01b031690565b6000600460000160029054906101000a90046001600160a01b03166001600160a01b031663313ce5676040518163ffffffff1660e01b815260040160206040518083038186803b15801561048757600080fd5b505afa15801561049b573d6000803e3d6000fd5b505050506040513d60208110156104b157600080fd5b5051905090565b6000600460000160029054906101000a90046001600160a01b03166001600160a01b03166350d25bcd6040518163ffffffff1660e01b815260040160206040518083038186803b15801561048757600080fd5b6000600460000160029054906101000a90046001600160a01b03166001600160a01b03166354fd4d506040518163ffffffff1660e01b815260040160206040518083038186803b15801561048757600080fd5b60045461ffff1690565b60025460009081908190819081906001600160a01b03166105d0576040805162461bcd60e51b815260206004820152601e60248201527f4e6f2070726f706f7365642061676772656761746f722070726573656e740000604482015290519081900360640190fd5b60025460408051639a6fc8f560e01b815269ffffffffffffffffffff8916600482015290516001600160a01b0390921691639a6fc8f59160248082019260a092909190829003018186803b15801561062757600080fd5b505afa15801561063b573d6000803e3d6000fd5b505050506040513d60a081101561065157600080fd5b508051602082015160408301516060840151608090940151929a91995097509195509350915050565b6040805180820182526004805461ffff8116808452620100009091046001600160a01b0316602080850182905285517f668a0f0200000000000000000000000000000000000000000000000000000000815295516000966107299563668a0f0293828201939092909190829003018186803b1580156106f857600080fd5b505afa15801561070c573d6000803e3d6000fd5b505050506040513d602081101561072257600080fd5b5051610f9c565b69ffffffffffffffffffff1691505090565b6060600460000160029054906101000a90046001600160a01b03166001600160a01b0316637284e4166040518163ffffffff1660e01b815260040160006040518083038186803b15801561078e57600080fd5b505afa1580156107a2573d6000803e3d6000fd5b505050506040513d6000823e601f3d908101601f1916820160405260208110156107cb57600080fd5b81019080805160405193929190846401000000008211156107eb57600080fd5b90830190602082018581111561080057600080fd5b825164010000000081118282018810171561081a57600080fd5b82525081516020918201929091019080838360005b8381101561084757818101518382015260200161082f565b50505050905090810190601f1680156108745780820380516001836020036101000a031916815260200191505b50604052505050905090565b6001546001600160a01b031633146108df576040805162461bcd60e51b815260206004820152601660248201527f4d7573742062652070726f706f736564206f776e657200000000000000000000604482015290519081900360640190fd5b60008054336001600160a01b0319808316821784556001805490911690556040516001600160a01b0390921692909183917f8be0079c531659141344cd1fd0a4f28419497f9722a3daafe3b4186f6b6457e091a350565b6000600460000160029054906101000a90046001600160a01b03166001600160a01b0316638205bf6a6040518163ffffffff1660e01b815260040160206040518083038186803b15801561048757600080fd5b6000546001600160a01b031690565b60025460009081908190819081906001600160a01b0316610a00576040805162461bcd60e51b815260206004820152601e60248201527f4e6f2070726f706f7365642061676772656761746f722070726573656e740000604482015290519081900360640190fd5b600260009054906101000a90046001600160a01b03166001600160a01b031663feaf968c6040518163ffffffff1660e01b815260040160a06040518083038186803b158015610a4e57600080fd5b505afa158015610a62573d6000803e3d6000fd5b505050506040513d60a0811015610a7857600080fd5b5080516020820151604083015160608401516080909401519299919850965091945092509050565b6000806000806000806000610ac08869ffffffffffffffffffff16610fbc565b61ffff821660009081526003602052604090819020548151639a6fc8f560e01b815267ffffffffffffffff8416600482015291519395509193506001600160a01b0390911691639a6fc8f59160248082019260a092909190829003018186803b158015610b2c57600080fd5b505afa158015610b40573d6000803e3d6000fd5b505050506040513d60a0811015610b5657600080fd5b508051602082015160408301516060840151608090940151929a5090985096509094509250610b89878787878787610fc4565b939c929b5090995097509095509350505050565b610ba5610ffa565b6002546001600160a01b03828116911614610c07576040805162461bcd60e51b815260206004820152601b60248201527f496e76616c69642070726f706f7365642061676772656761746f720000000000604482015290519081900360640190fd5b600454600280546001600160a01b03191690556201000090046001600160a01b0316610c328261105b565b816001600160a01b0316816001600160a01b03167f33745f67a407dcb785417f9c123dd3641479a102674b6e35c1f10975625b90e960405160405180910390a35050565b600069ffffffffffffffffffff821115610c9257506000610d51565b600080610c9e84610fbc565b61ffff821660009081526003602052604090205491935091506001600160a01b031680610cd15760009350505050610d51565b806001600160a01b031663b5ab58dc836040518263ffffffff1660e01b8152600401808267ffffffffffffffff16815260200191505060206040518083038186803b158015610d1f57600080fd5b505afa158015610d33573d6000803e3d6000fd5b505050506040513d6020811015610d4957600080fd5b505193505050505b919050565b600069ffffffffffffffffffff821115610d7257506000610d51565b600080610d7e84610fbc565b61ffff821660009081526003602052604090205491935091506001600160a01b031680610db15760009350505050610d51565b806001600160a01b031663b633620c836040518263ffffffff1660e01b8152600401808267ffffffffffffffff16815260200191505060206040518083038186803b158015610d1f57600080fd5b61ffff166000908152600360205260409020546001600160a01b031690565b6002546001600160a01b031690565b610e35610ffa565b610e3e816110e0565b50565b610e49610ffa565b600280546001600160a01b0319166001600160a01b0383811691821790925560045460405191926201000090910416907fc0f151710f03d713b71d9970cee0d5b11ddc9a7552abaa3f6ee818010f21600d90600090a350565b6040805180820182526004805461ffff811683526201000090046001600160a01b03166020830181905283517ffeaf968c000000000000000000000000000000000000000000000000000000008152935160009485948594859485949293909263feaf968c928281019260a0929190829003018186803b158015610f2557600080fd5b505afa158015610f39573d6000803e3d6000fd5b505050506040513d60a0811015610f4f57600080fd5b5080516020820151604083015160608401516080909401518551939a509198509650919450909250610f8a9087908790879087908790610fc4565b95509550955095509550509091929394565b67ffffffffffffffff1660409190911b69ffff0000000000000000161790565b604081901c91565b6000806000806000610fd6868c610f9c565b8a8a8a610fe38a8c610f9c565b939f929e50909c509a509098509650505050505050565b6000546001600160a01b03163314611059576040805162461bcd60e51b815260206004820152601660248201527f4f6e6c792063616c6c61626c65206279206f776e657200000000000000000000604482015290519081900360640190fd5b565b60048054604080518082018252600161ffff80851691909101168082526001600160a01b0395909516602091820181905261ffff1990931685177fffffffffffffffffffff0000000000000000000000000000000000000000ffff166201000084021790935560009384526003909252912080546001600160a01b0319169091179055565b6001600160a01b03811633141561113e576040805162461bcd60e51b815260206004820152601760248201527f43616e6e6f74207472616e7366657220746f2073656c66000000000000000000604482015290519081900360640190fd5b600180546001600160a01b0319166001600160a01b0383811691821790925560008054604051929316917fed8889f560326eb138920d842192f0eb3dd22b4f139c87a2c57538e05bae12789190a35056fea2646970667358221220d8db7d4e7553552ff4112495897c50d33256a94976c197a9134e8a4cb493946364736f6c63430007060033",
			"opcodes": "PUSH1 0x80 PUSH1 0x40 MSTORE CALLVALUE DUP1 ISZERO PUSH2 0x10 JUMPI PUSH1 0x0 DUP1 REVERT JUMPDEST POP PUSH1 0x40 MLOAD PUSH2 0x13C5 CODESIZE SUB DUP1 PUSH2 0x13C5 DUP4 CODECOPY DUP2 DUP2 ADD PUSH1 0x40 MSTORE PUSH1 0x20 DUP2 LT ISZERO PUSH2 0x33 JUMPI PUSH1 0x0 DUP1 REVERT JUMPDEST POP MLOAD CALLER DUP1 PUSH1 0x0 DUP2 PUSH2 0x8B JUMPI PUSH1 0x40 DUP1 MLOAD PUSH3 0x461BCD PUSH1 0xE5 SHL DUP2 MSTORE PUSH1 0x20 PUSH1 0x4 DUP3 ADD MSTORE PUSH1 0x18 PUSH1 0x24 DUP3 ADD MSTORE PUSH32 0x43616E6E6F7420736574206F776E657220746F207A65726F0000000000000000 PUSH1 0x44 DUP3 ADD MSTORE SWAP1 MLOAD SWAP1 DUP2 SWAP1 SUB PUSH1 0x64 ADD SWAP1 REVERT JUMPDEST PUSH1 0x0 DUP1 SLOAD PUSH1 0x1 PUSH1 0x1 PUSH1 0xA0 SHL SUB NOT AND PUSH1 0x1 PUSH1 0x1 PUSH1 0xA0 SHL SUB DUP5 DUP2 AND SWAP2 SWAP1 SWAP2 OR SWAP1 SWAP2 SSTORE DUP2 AND ISZERO PUSH2 0xBB JUMPI PUSH2 0xBB DUP2 PUSH2 0xD3 JUMP JUMPDEST POP POP POP PUSH2 0xCD DUP2 PUSH2 0x182 PUSH1 0x20 SHL PUSH1 0x20 SHR JUMP JUMPDEST POP PUSH2 0x1F1 JUMP JUMPDEST PUSH1 0x1 PUSH1 0x1 PUSH1 0xA0 SHL SUB DUP2 AND CALLER EQ ISZERO PUSH2 0x131 JUMPI PUSH1 0x40 DUP1 MLOAD PUSH3 0x461BCD PUSH1 0xE5 SHL DUP2 MSTORE PUSH1 0x20 PUSH1 0x4 DUP3 ADD MSTORE PUSH1 0x17 PUSH1 0x24 DUP3 ADD MSTORE PUSH32 0x43616E6E6F74207472616E7366657220746F2073656C66000000000000000000 PUSH1 0x44 DUP3 ADD MSTORE SWAP1 MLOAD SWAP1 DUP2 SWAP1 SUB PUSH1 0x64 ADD SWAP1 REVERT JUMPDEST PUSH1 0x1 DUP1 SLOAD PUSH1 0x1 PUSH1 0x1 PUSH1 0xA0 SHL SUB NOT AND PUSH1 0x1 PUSH1 0x1 PUSH1 0xA0 SHL SUB DUP4 DUP2 AND SWAP2 DUP3 OR SWAP1 SWAP3 SSTORE PUSH1 0x0 DUP1 SLOAD PUSH1 0x40 MLOAD SWAP3 SWAP4 AND SWAP2 PUSH32 0xED8889F560326EB138920D842192F0EB3DD22B4F139C87A2C57538E05BAE1278 SWAP2 SWAP1 LOG3 POP JUMP JUMPDEST PUSH1 0x4 DUP1 SLOAD PUSH1 0x40 DUP1 MLOAD DUP1 DUP3 ADD DUP3 MSTORE PUSH1 0x1 PUSH2 0xFFFF DUP1 DUP6 AND SWAP2 SWAP1 SWAP2 ADD AND DUP1 DUP3 MSTORE PUSH1 0x1 PUSH1 0x1 PUSH1 0xA0 SHL SUB SWAP6 SWAP1 SWAP6 AND PUSH1 0x20 SWAP2 DUP3 ADD DUP2 SWAP1 MSTORE PUSH2 0xFFFF NOT SWAP1 SWAP4 AND DUP6 OR PUSH3 0x10000 PUSH1 0x1 PUSH1 0xB0 SHL SUB NOT AND PUSH3 0x10000 DUP5 MUL OR SWAP1 SWAP4 SSTORE PUSH1 0x0 SWAP4 DUP5 MSTORE PUSH1 0x3 SWAP1 SWAP3 MSTORE SWAP2 KECCAK256 DUP1 SLOAD PUSH1 0x1 PUSH1 0x1 PUSH1 0xA0 SHL SUB NOT AND SWAP1 SWAP2 OR SWAP1 SSTORE JUMP JUMPDEST PUSH2 0x11C5 DUP1 PUSH2 0x200 PUSH1 0x0 CODECOPY PUSH1 0x0 RETURN INVALID PUSH1 0x80 PUSH1 0x40 MSTORE CALLVALUE DUP1 ISZERO PUSH2 0x10 JUMPI PUSH1 0x0 DUP1 REVERT JUMPDEST POP PUSH1 0x4 CALLDATASIZE LT PUSH2 0x177 JUMPI PUSH1 0x0 CALLDATALOAD PUSH1 0xE0 SHR DUP1 PUSH4 0x8DA5CB5B GT PUSH2 0xD8 JUMPI DUP1 PUSH4 0xB633620C GT PUSH2 0x8C JUMPI DUP1 PUSH4 0xF2FDE38B GT PUSH2 0x66 JUMPI DUP1 PUSH4 0xF2FDE38B EQ PUSH2 0x3CB JUMPI DUP1 PUSH4 0xF8A2ABD3 EQ PUSH2 0x3F1 JUMPI DUP1 PUSH4 0xFEAF968C EQ PUSH2 0x417 JUMPI PUSH2 0x177 JUMP JUMPDEST DUP1 PUSH4 0xB633620C EQ PUSH2 0x385 JUMPI DUP1 PUSH4 0xC1597304 EQ PUSH2 0x3A2 JUMPI DUP1 PUSH4 0xE8C4BE30 EQ PUSH2 0x3C3 JUMPI PUSH2 0x177 JUMP JUMPDEST DUP1 PUSH4 0x9A6FC8F5 GT PUSH2 0xBD JUMPI DUP1 PUSH4 0x9A6FC8F5 EQ PUSH2 0x319 JUMPI DUP1 PUSH4 0xA928C096 EQ PUSH2 0x342 JUMPI DUP1 PUSH4 0xB5AB58DC EQ PUSH2 0x368 JUMPI PUSH2 0x177 JUMP JUMPDEST DUP1 PUSH4 0x8DA5CB5B EQ PUSH2 0x309 JUMPI DUP1 PUSH4 0x8F6B4D91 EQ PUSH2 0x311 JUMPI PUSH2 0x177 JUMP JUMPDEST DUP1 PUSH4 0x6001AC53 GT PUSH2 0x12F JUMPI DUP1 PUSH4 0x7284E416 GT PUSH2 0x114 JUMPI DUP1 PUSH4 0x7284E416 EQ PUSH2 0x27A JUMPI DUP1 PUSH4 0x79BA5097 EQ PUSH2 0x2F7 JUMPI DUP1 PUSH4 0x8205BF6A EQ PUSH2 0x301 JUMPI PUSH2 0x177 JUMP JUMPDEST DUP1 PUSH4 0x6001AC53 EQ PUSH2 0x1FF JUMPI DUP1 PUSH4 0x668A0F02 EQ PUSH2 0x272 JUMPI PUSH2 0x177 JUMP JUMPDEST DUP1 PUSH4 0x50D25BCD GT PUSH2 0x160 JUMPI DUP1 PUSH4 0x50D25BCD EQ PUSH2 0x1BE JUMPI DUP1 PUSH4 0x54FD4D50 EQ PUSH2 0x1D8 JUMPI DUP1 PUSH4 0x58303B10 EQ PUSH2 0x1E0 JUMPI PUSH2 0x177 JUMP JUMPDEST DUP1 PUSH4 0x245A7BFC EQ PUSH2 0x17C JUMPI DUP1 PUSH4 0x313CE567 EQ PUSH2 0x1A0 JUMPI JUMPDEST PUSH1 0x0 DUP1 REVERT JUMPDEST PUSH2 0x184 PUSH2 0x41F JUMP JUMPDEST PUSH1 0x40 DUP1 MLOAD PUSH1 0x1 PUSH1 0x1 PUSH1 0xA0 SHL SUB SWAP1 SWAP3 AND DUP3 MSTORE MLOAD SWAP1 DUP2 SWAP1 SUB PUSH1 0x20 ADD SWAP1 RETURN JUMPDEST PUSH2 0x1A8 PUSH2 0x434 JUMP JUMPDEST PUSH1 0x40 DUP1 MLOAD PUSH1 0xFF SWAP1 SWAP3 AND DUP3 MSTORE MLOAD SWAP1 DUP2 SWAP1 SUB PUSH1 0x20 ADD SWAP1 RETURN JUMPDEST PUSH2 0x1C6 PUSH2 0x4B8 JUMP JUMPDEST PUSH1 0x40 DUP1 MLOAD SWAP2 DUP3 MSTORE MLOAD SWAP1 DUP2 SWAP1 SUB PUSH1 0x20 ADD SWAP1 RETURN JUMPDEST PUSH2 0x1C6 PUSH2 0x50B JUMP JUMPDEST PUSH2 0x1E8 PUSH2 0x55E JUMP JUMPDEST PUSH1 0x40 DUP1 MLOAD PUSH2 0xFFFF SWAP1 SWAP3 AND DUP3 MSTORE MLOAD SWAP1 DUP2 SWAP1 SUB PUSH1 0x20 ADD SWAP1 RETURN JUMPDEST PUSH2 0x228 PUSH1 0x4 DUP1 CALLDATASIZE SUB PUSH1 0x20 DUP2 LT ISZERO PUSH2 0x215 JUMPI PUSH1 0x0 DUP1 REVERT JUMPDEST POP CALLDATALOAD PUSH10 0xFFFFFFFFFFFFFFFFFFFF AND PUSH2 0x568 JUMP JUMPDEST PUSH1 0x40 MLOAD DUP1 DUP7 PUSH10 0xFFFFFFFFFFFFFFFFFFFF AND DUP2 MSTORE PUSH1 0x20 ADD DUP6 DUP2 MSTORE PUSH1 0x20 ADD DUP5 DUP2 MSTORE PUSH1 0x20 ADD DUP4 DUP2 MSTORE PUSH1 0x20 ADD DUP3 PUSH10 0xFFFFFFFFFFFFFFFFFFFF AND DUP2 MSTORE PUSH1 0x20 ADD SWAP6 POP POP POP POP POP POP PUSH1 0x40 MLOAD DUP1 SWAP2 SUB SWAP1 RETURN JUMPDEST PUSH2 0x1C6 PUSH2 0x67A JUMP JUMPDEST PUSH2 0x282 PUSH2 0x73B JUMP JUMPDEST PUSH1 0x40 DUP1 MLOAD PUSH1 0x20 DUP1 DUP3 MSTORE DUP4 MLOAD DUP2 DUP4 ADD MSTORE DUP4 MLOAD SWAP2 SWAP3 DUP4 SWAP3 SWAP1 DUP4 ADD SWAP2 DUP6 ADD SWAP1 DUP1 DUP4 DUP4 PUSH1 0x0 JUMPDEST DUP4 DUP2 LT ISZERO PUSH2 0x2BC JUMPI DUP2 DUP2 ADD MLOAD DUP4 DUP3 ADD MSTORE PUSH1 0x20 ADD PUSH2 0x2A4 JUMP JUMPDEST POP POP POP POP SWAP1 POP SWAP1 DUP2 ADD SWAP1 PUSH1 0x1F AND DUP1 ISZERO PUSH2 0x2E9 JUMPI DUP1 DUP3 SUB DUP1 MLOAD PUSH1 0x1 DUP4 PUSH1 0x20 SUB PUSH2 0x100 EXP SUB NOT AND DUP2 MSTORE PUSH1 0x20 ADD SWAP2 POP JUMPDEST POP SWAP3 POP POP POP PUSH1 0x40 MLOAD DUP1 SWAP2 SUB SWAP1 RETURN JUMPDEST PUSH2 0x2FF PUSH2 0x880 JUMP JUMPDEST STOP JUMPDEST PUSH2 0x1C6 PUSH2 0x936 JUMP JUMPDEST PUSH2 0x184 PUSH2 0x989 JUMP JUMPDEST PUSH2 0x228 PUSH2 0x998 JUMP JUMPDEST PUSH2 0x228 PUSH1 0x4 DUP1 CALLDATASIZE SUB PUSH1 0x20 DUP2 LT ISZERO PUSH2 0x32F JUMPI PUSH1 0x0 DUP1 REVERT JUMPDEST POP CALLDATALOAD PUSH10 0xFFFFFFFFFFFFFFFFFFFF AND PUSH2 0xAA0 JUMP JUMPDEST PUSH2 0x2FF PUSH1 0x4 DUP1 CALLDATASIZE SUB PUSH1 0x20 DUP2 LT ISZERO PUSH2 0x358 JUMPI PUSH1 0x0 DUP1 REVERT JUMPDEST POP CALLDATALOAD PUSH1 0x1 PUSH1 0x1 PUSH1 0xA0 SHL SUB AND PUSH2 0xB9D JUMP JUMPDEST PUSH2 0x1C6 PUSH1 0x4 DUP1 CALLDATASIZE SUB PUSH1 0x20 DUP2 LT ISZERO PUSH2 0x37E JUMPI PUSH1 0x0 DUP1 REVERT JUMPDEST POP CALLDATALOAD PUSH2 0xC76 JUMP JUMPDEST PUSH2 0x1C6 PUSH1 0x4 DUP1 CALLDATASIZE SUB PUSH1 0x20 DUP2 LT ISZERO PUSH2 0x39B JUMPI PUSH1 0x0 DUP1 REVERT JUMPDEST POP CALLDATALOAD PUSH2 0xD56 JUMP JUMPDEST PUSH2 0x184 PUSH1 0x4 DUP1 CALLDATASIZE SUB PUSH1 0x20 DUP2 LT ISZERO PUSH2 0x3B8 JUMPI PUSH1 0x0 DUP1 REVERT JUMPDEST POP CALLDATALOAD PUSH2 0xFFFF AND PUSH2 0xDFF JUMP JUMPDEST PUSH2 0x184 PUSH2 0xE1E JUMP JUMPDEST PUSH2 0x2FF PUSH1 0x4 DUP1 CALLDATASIZE SUB PUSH1 0x20 DUP2 LT ISZERO PUSH2 0x3E1 JUMPI PUSH1 0x0 DUP1 REVERT JUMPDEST POP CALLDATALOAD PUSH1 0x1 PUSH1 0x1 PUSH1 0xA0 SHL SUB AND PUSH2 0xE2D JUMP JUMPDEST PUSH2 0x2FF PUSH1 0x4 DUP1 CALLDATASIZE SUB PUSH1 0x20 DUP2 LT ISZERO PUSH2 0x407 JUMPI PUSH1 0x0 DUP1 REVERT JUMPDEST POP CALLDATALOAD PUSH1 0x1 PUSH1 0x1 PUSH1 0xA0 SHL SUB AND PUSH2 0xE41 JUMP JUMPDEST PUSH2 0x228 PUSH2 0xEA2 JUMP JUMPDEST PUSH1 0x4 SLOAD PUSH3 0x10000 SWAP1 DIV PUSH1 0x1 PUSH1 0x1 PUSH1 0xA0 SHL SUB AND SWAP1 JUMP JUMPDEST PUSH1 0x0 PUSH1 0x4 PUSH1 0x0 ADD PUSH1 0x2 SWAP1 SLOAD SWAP1 PUSH2 0x100 EXP SWAP1 DIV PUSH1 0x1 PUSH1 0x1 PUSH1 0xA0 SHL SUB AND PUSH1 0x1 PUSH1 0x1 PUSH1 0xA0 SHL SUB AND PUSH4 0x313CE567 PUSH1 0x40 MLOAD DUP2 PUSH4 0xFFFFFFFF AND PUSH1 0xE0 SHL DUP2 MSTORE PUSH1 0x4 ADD PUSH1 0x20 PUSH1 0x40 MLOAD DUP1 DUP4 SUB DUP2 DUP7 DUP1 EXTCODESIZE ISZERO DUP1 ISZERO PUSH2 0x487 JUMPI PUSH1 0x0 DUP1 REVERT JUMPDEST POP GAS STATICCALL ISZERO DUP1 ISZERO PUSH2 0x49B JUMPI RETURNDATASIZE PUSH1 0x0 DUP1 RETURNDATACOPY RETURNDATASIZE PUSH1 0x0 REVERT JUMPDEST POP POP POP POP PUSH1 0x40 MLOAD RETURNDATASIZE PUSH1 0x20 DUP2 LT ISZERO PUSH2 0x4B1 JUMPI PUSH1 0x0 DUP1 REVERT JUMPDEST POP MLOAD SWAP1 POP SWAP1 JUMP JUMPDEST PUSH1 0x0 PUSH1 0x4 PUSH1 0x0 ADD PUSH1 0x2 SWAP1 SLOAD SWAP1 PUSH2 0x100 EXP SWAP1 DIV PUSH1 0x1 PUSH1 0x1 PUSH1 0xA0 SHL SUB AND PUSH1 0x1 PUSH1 0x1 PUSH1 0xA0 SHL SUB AND PUSH4 0x50D25BCD PUSH1 0x40 MLOAD DUP2 PUSH4 0xFFFFFFFF AND PUSH1 0xE0 SHL DUP2 MSTORE PUSH1 0x4 ADD PUSH1 0x20 PUSH1 0x40 MLOAD DUP1 DUP4 SUB DUP2 DUP7 DUP1 EXTCODESIZE ISZERO DUP1 ISZERO PUSH2 0x487 JUMPI PUSH1 0x0 DUP1 REVERT JUMPDEST PUSH1 0x0 PUSH1 0x4 PUSH1 0x0 ADD PUSH1 0x2 SWAP1 SLOAD SWAP1 PUSH2 0x100 EXP SWAP1 DIV PUSH1 0x1 PUSH1 0x1 PUSH1 0xA0 SHL SUB AND PUSH1 0x1 PUSH1 0x1 PUSH1 0xA0 SHL SUB AND PUSH4 0x54FD4D50 PUSH1 0x40 MLOAD DUP2 PUSH4 0xFFFFFFFF AND PUSH1 0xE0 SHL DUP2 MSTORE PUSH1 0x4 ADD PUSH1 0x20 PUSH1 0x40 MLOAD DUP1 DUP4 SUB DUP2 DUP7 DUP1 EXTCODESIZE ISZERO DUP1 ISZERO PUSH2 0x487 JUMPI PUSH1 0x0 DUP1 REVERT JUMPDEST PUSH1 0x4 SLOAD PUSH2 0xFFFF AND SWAP1 JUMP JUMPDEST PUSH1 0x2 SLOAD PUSH1 0x0 SWAP1 DUP2 SWAP1 DUP2 SWAP1 DUP2 SWAP1 DUP2 SWAP1 PUSH1 0x1 PUSH1 0x1 PUSH1 0xA0 SHL SUB AND PUSH2 0x5D0 JUMPI PUSH1 0x40 DUP1 MLOAD PUSH3 0x461BCD PUSH1 0xE5 SHL DUP2 MSTORE PUSH1 0x20 PUSH1 0x4 DUP3 ADD MSTORE PUSH1 0x1E PUSH1 0x24 DUP3 ADD MSTORE PUSH32 0x4E6F2070726F706F7365642061676772656761746F722070726573656E740000 PUSH1 0x44 DUP3 ADD MSTORE SWAP1 MLOAD SWAP1 DUP2 SWAP1 SUB PUSH1 0x64 ADD SWAP1 REVERT JUMPDEST PUSH1 0x2 SLOAD PUSH1 0x40 DUP1 MLOAD PUSH4 0x9A6FC8F5 PUSH1 0xE0 SHL DUP2 MSTORE PUSH10 0xFFFFFFFFFFFFFFFFFFFF DUP10 AND PUSH1 0x4 DUP3 ADD MSTORE SWAP1 MLOAD PUSH1 0x1 PUSH1 0x1 PUSH1 0xA0 SHL SUB SWAP1 SWAP3 AND SWAP2 PUSH4 0x9A6FC8F5 SWAP2 PUSH1 0x24 DUP1 DUP3 ADD SWAP3 PUSH1 0xA0 SWAP3 SWAP1 SWAP2 SWAP1 DUP3 SWAP1 SUB ADD DUP2 DUP7 DUP1 EXTCODESIZE ISZERO DUP1 ISZERO PUSH2 0x627 JUMPI PUSH1 0x0 DUP1 REVERT JUMPDEST POP GAS STATICCALL ISZERO DUP1 ISZERO PUSH2 0x63B JUMPI RETURNDATASIZE PUSH1 0x0 DUP1 RETURNDATACOPY RETURNDATASIZE PUSH1 0x0 REVERT JUMPDEST POP POP POP POP PUSH1 0x40 MLOAD RETURNDATASIZE PUSH1 0xA0 DUP2 LT ISZERO PUSH2 0x651 JUMPI PUSH1 0x0 DUP1 REVERT JUMPDEST POP DUP1 MLOAD PUSH1 0x20 DUP3 ADD MLOAD PUSH1 0x40 DUP4 ADD MLOAD PUSH1 0x60 DUP5 ADD MLOAD PUSH1 0x80 SWAP1 SWAP5 ADD MLOAD SWAP3 SWAP11 SWAP2 SWAP10 POP SWAP8 POP SWAP2 SWAP6 POP SWAP4 POP SWAP2 POP POP JUMP JUMPDEST PUSH1 0x40 DUP1 MLOAD DUP1 DUP3 ADD DUP3 MSTORE PUSH1 0x4 DUP1 SLOAD PUSH2 0xFFFF DUP2 AND DUP1 DUP5 MSTORE PUSH3 0x10000 SWAP1 SWAP2 DIV PUSH1 0x1 PUSH1 0x1 PUSH1 0xA0 SHL SUB AND PUSH1 0x20 DUP1 DUP6 ADD DUP3 SWAP1 MSTORE DUP6 MLOAD PUSH32 0x668A0F0200000000000000000000000000000000000000000000000000000000 DUP2 MSTORE SWAP6 MLOAD PUSH1 0x0 SWAP7 PUSH2 0x729 SWAP6 PUSH4 0x668A0F02 SWAP4 DUP3 DUP3 ADD SWAP4 SWAP1 SWAP3 SWAP1 SWAP2 SWAP1 DUP3 SWAP1 SUB ADD DUP2 DUP7 DUP1 EXTCODESIZE ISZERO DUP1 ISZERO PUSH2 0x6F8 JUMPI PUSH1 0x0 DUP1 REVERT JUMPDEST POP GAS STATICCALL ISZERO DUP1 ISZERO PUSH2 0x70C JUMPI RETURNDATASIZE PUSH1 0x0 DUP1 RETURNDATACOPY RETURNDATASIZE PUSH1 0x0 REVERT JUMPDEST POP POP POP POP PUSH1 0x40 MLOAD RETURNDATASIZE PUSH1 0x20 DUP2 LT ISZERO PUSH2 0x722 JUMPI PUSH1 0x0 DUP1 REVERT JUMPDEST POP MLOAD PUSH2 0xF9C JUMP JUMPDEST PUSH10 0xFFFFFFFFFFFFFFFFFFFF AND SWAP2 POP POP SWAP1 JUMP JUMPDEST PUSH1 0x60 PUSH1 0x4 PUSH1 0x0 ADD PUSH1 0x2 SWAP1 SLOAD SWAP1 PUSH2 0x100 EXP SWAP1 DIV PUSH1 0x1 PUSH1 0x1 PUSH1 0xA0 SHL SUB AND PUSH1 0x1 PUSH1 0x1 PUSH1 0xA0 SHL SUB AND PUSH4 0x7284E416 PUSH1 0x40 MLOAD DUP2 PUSH4 0xFFFFFFFF AND PUSH1 0xE0 SHL DUP2 MSTORE PUSH1 0x4 ADD PUSH1 0x0 PUSH1 0x40 MLOAD DUP1 DUP4 SUB DUP2 DUP7 DUP1 EXTCODESIZE ISZERO DUP1 ISZERO PUSH2 0x78E JUMPI PUSH1 0x0 DUP1 REVERT JUMPDEST POP GAS STATICCALL ISZERO DUP1 ISZERO PUSH2 0x7A2 JUMPI RETURNDATASIZE PUSH1 0x0 DUP1 RETURNDATACOPY RETURNDATASIZE PUSH1 0x0 REVERT JUMPDEST POP POP POP POP PUSH1 0x40 MLOAD RETURNDATASIZE PUSH1 0x0 DUP3 RETURNDATACOPY PUSH1 0x1F RETURNDATASIZE SWAP1 DUP2 ADD PUSH1 0x1F NOT AND DUP3 ADD PUSH1 0x40 MSTORE PUSH1 0x20 DUP2 LT ISZERO PUSH2 0x7CB JUMPI PUSH1 0x0 DUP1 REVERT JUMPDEST DUP2 ADD SWAP1 DUP1 DUP1 MLOAD PUSH1 0x40 MLOAD SWAP4 SWAP3 SWAP2 SWAP1 DUP5 PUSH5 0x100000000 DUP3 GT ISZERO PUSH2 0x7EB JUMPI PUSH1 0x0 DUP1 REVERT JUMPDEST SWAP1 DUP4 ADD SWAP1 PUSH1 0x20 DUP3 ADD DUP6 DUP2 GT ISZERO PUSH2 0x800 JUMPI PUSH1 0x0 DUP1 REVERT JUMPDEST DUP3 MLOAD PUSH5 0x100000000 DUP2 GT DUP3 DUP3 ADD DUP9 LT OR ISZERO PUSH2 0x81A JUMPI PUSH1 0x0 DUP1 REVERT JUMPDEST DUP3 MSTORE POP DUP2 MLOAD PUSH1 0x20 SWAP2 DUP3 ADD SWAP3 SWAP1 SWAP2 ADD SWAP1 DUP1 DUP4 DUP4 PUSH1 0x0 JUMPDEST DUP4 DUP2 LT ISZERO PUSH2 0x847 JUMPI DUP2 DUP2 ADD MLOAD DUP4 DUP3 ADD MSTORE PUSH1 0x20 ADD PUSH2 0x82F JUMP JUMPDEST POP POP POP POP SWAP1 POP SWAP1 DUP2 ADD SWAP1 PUSH1 0x1F AND DUP1 ISZERO PUSH2 0x874 JUMPI DUP1 DUP3 SUB DUP1 MLOAD PUSH1 0x1 DUP4 PUSH1 0x20 SUB PUSH2 0x100 EXP SUB NOT AND DUP2 MSTORE PUSH1 0x20 ADD SWAP2 POP JUMPDEST POP PUSH1 0x40 MSTORE POP POP POP SWAP1 POP SWAP1 JUMP JUMPDEST PUSH1 0x1 SLOAD PUSH1 0x1 PUSH1 0x1 PUSH1 0xA0 SHL SUB AND CALLER EQ PUSH2 0x8DF JUMPI PUSH1 0x40 DUP1 MLOAD PUSH3 0x461BCD PUSH1 0xE5 SHL DUP2 MSTORE PUSH1 0x20 PUSH1 0x4 DUP3 ADD MSTORE PUSH1 0x16 PUSH1 0x24 DUP3 ADD MSTORE PUSH32 0x4D7573742062652070726F706F736564206F776E657200000000000000000000 PUSH1 0x44 DUP3 ADD MSTORE SWAP1 MLOAD SWAP1 DUP2 SWAP1 SUB PUSH1 0x64 ADD SWAP1 REVERT JUMPDEST PUSH1 0x0 DUP1 SLOAD CALLER PUSH1 0x1 PUSH1 0x1 PUSH1 0xA0 SHL SUB NOT DUP1 DUP4 AND DUP3 OR DUP5 SSTORE PUSH1 0x1 DUP1 SLOAD SWAP1 SWAP2 AND SWAP1 SSTORE PUSH1 0x40 MLOAD PUSH1 0x1 PUSH1 0x1 PUSH1 0xA0 SHL SUB SWAP1 SWAP3 AND SWAP3 SWAP1 SWAP2 DUP4 SWAP2 PUSH32 0x8BE0079C531659141344CD1FD0A4F28419497F9722A3DAAFE3B4186F6B6457E0 SWAP2 LOG3 POP JUMP JUMPDEST PUSH1 0x0 PUSH1 0x4 PUSH1 0x0 ADD PUSH1 0x2 SWAP1 SLOAD SWAP1 PUSH2 0x100 EXP SWAP1 DIV PUSH1 0x1 PUSH1 0x1 PUSH1 0xA0 SHL SUB AND PUSH1 0x1 PUSH1 0x1 PUSH1 0xA0 SHL SUB AND PUSH4 0x8205BF6A PUSH1 0x40 MLOAD DUP2 PUSH4 0xFFFFFFFF AND PUSH1 0xE0 SHL DUP2 MSTORE PUSH1 0x4 ADD PUSH1 0x20 PUSH1 0x40 MLOAD DUP1 DUP4 SUB DUP2 DUP7 DUP1 EXTCODESIZE ISZERO DUP1 ISZERO PUSH2 0x487 JUMPI PUSH1 0x0 DUP1 REVERT JUMPDEST PUSH1 0x0 SLOAD PUSH1 0x1 PUSH1 0x1 PUSH1 0xA0 SHL SUB AND SWAP1 JUMP JUMPDEST PUSH1 0x2 SLOAD PUSH1 0x0 SWAP1 DUP2 SWAP1 DUP2 SWAP1 DUP2 SWAP1 DUP2 SWAP1 PUSH1 0x1 PUSH1 0x1 PUSH1 0xA0 SHL SUB AND PUSH2 0xA00 JUMPI PUSH1 0x40 DUP1 MLOAD PUSH3 0x461BCD PUSH1 0xE5 SHL DUP2 MSTORE PUSH1 0x20 PUSH1 0x4 DUP3 ADD MSTORE PUSH1 0x1E PUSH1 0x24 DUP3 ADD MSTORE PUSH32 0x4E6F2070726F706F7365642061676772656761746F722070726573656E740000 PUSH1 0x44 DUP3 ADD MSTORE SWAP1 MLOAD SWAP1 DUP2 SWAP1 SUB PUSH1 0x64 ADD SWAP1 REVERT JUMPDEST PUSH1 0x2 PUSH1 0x0 SWAP1 SLOAD SWAP1 PUSH2 0x100 EXP SWAP1 DIV PUSH1 0x1 PUSH1 0x1 PUSH1 0xA0 SHL SUB AND PUSH1 0x1 PUSH1 0x1 PUSH1 0xA0 SHL SUB AND PUSH4 0xFEAF968C PUSH1 0x40 MLOAD DUP2 PUSH4 0xFFFFFFFF AND PUSH1 0xE0 SHL DUP2 MSTORE PUSH1 0x4 ADD PUSH1 0xA0 PUSH1 0x40 MLOAD DUP1 DUP4 SUB DUP2 DUP7 DUP1 EXTCODESIZE ISZERO DUP1 ISZERO PUSH2 0xA4E JUMPI PUSH1 0x0 DUP1 REVERT JUMPDEST POP GAS STATICCALL ISZERO DUP1 ISZERO PUSH2 0xA62 JUMPI RETURNDATASIZE PUSH1 0x0 DUP1 RETURNDATACOPY RETURNDATASIZE PUSH1 0x0 REVERT JUMPDEST POP POP POP POP PUSH1 0x40 MLOAD RETURNDATASIZE PUSH1 0xA0 DUP2 LT ISZERO PUSH2 0xA78 JUMPI PUSH1 0x0 DUP1 REVERT JUMPDEST POP DUP1 MLOAD PUSH1 0x20 DUP3 ADD MLOAD PUSH1 0x40 DUP4 ADD MLOAD PUSH1 0x60 DUP5 ADD MLOAD PUSH1 0x80 SWAP1 SWAP5 ADD MLOAD SWAP3 SWAP10 SWAP2 SWAP9 POP SWAP7 POP SWAP2 SWAP5 POP SWAP3 POP SWAP1 POP JUMP JUMPDEST PUSH1 0x0 DUP1 PUSH1 0x0 DUP1 PUSH1 0x0 DUP1 PUSH1 0x0 PUSH2 0xAC0 DUP9 PUSH10 0xFFFFFFFFFFFFFFFFFFFF AND PUSH2 0xFBC JUMP JUMPDEST PUSH2 0xFFFF DUP3 AND PUSH1 0x0 SWAP1 DUP2 MSTORE PUSH1 0x3 PUSH1 0x20 MSTORE PUSH1 0x40 SWAP1 DUP2 SWAP1 KECCAK256 SLOAD DUP2 MLOAD PUSH4 0x9A6FC8F5 PUSH1 0xE0 SHL DUP2 MSTORE PUSH8 0xFFFFFFFFFFFFFFFF DUP5 AND PUSH1 0x4 DUP3 ADD MSTORE SWAP2 MLOAD SWAP4 SWAP6 POP SWAP2 SWAP4 POP PUSH1 0x1 PUSH1 0x1 PUSH1 0xA0 SHL SUB SWAP1 SWAP2 AND SWAP2 PUSH4 0x9A6FC8F5 SWAP2 PUSH1 0x24 DUP1 DUP3 ADD SWAP3 PUSH1 0xA0 SWAP3 SWAP1 SWAP2 SWAP1 DUP3 SWAP1 SUB ADD DUP2 DUP7 DUP1 EXTCODESIZE ISZERO DUP1 ISZERO PUSH2 0xB2C JUMPI PUSH1 0x0 DUP1 REVERT JUMPDEST POP GAS STATICCALL ISZERO DUP1 ISZERO PUSH2 0xB40 JUMPI RETURNDATASIZE PUSH1 0x0 DUP1 RETURNDATACOPY RETURNDATASIZE PUSH1 0x0 REVERT JUMPDEST POP POP POP POP PUSH1 0x40 MLOAD RETURNDATASIZE PUSH1 0xA0 DUP2 LT ISZERO PUSH2 0xB56 JUMPI PUSH1 0x0 DUP1 REVERT JUMPDEST POP DUP1 MLOAD PUSH1 0x20 DUP3 ADD MLOAD PUSH1 0x40 DUP4 ADD MLOAD PUSH1 0x60 DUP5 ADD MLOAD PUSH1 0x80 SWAP1 SWAP5 ADD MLOAD SWAP3 SWAP11 POP SWAP1 SWAP9 POP SWAP7 POP SWAP1 SWAP5 POP SWAP3 POP PUSH2 0xB89 DUP8 DUP8 DUP8 DUP8 DUP8 DUP8 PUSH2 0xFC4 JUMP JUMPDEST SWAP4 SWAP13 SWAP3 SWAP12 POP SWAP1 SWAP10 POP SWAP8 POP SWAP1 SWAP6 POP SWAP4 POP POP POP POP JUMP JUMPDEST PUSH2 0xBA5 PUSH2 0xFFA JUMP JUMPDEST PUSH1 0x2 SLOAD PUSH1 0x1 PUSH1 0x1 PUSH1 0xA0 SHL SUB DUP3 DUP2 AND SWAP2 AND EQ PUSH2 0xC07 JUMPI PUSH1 0x40 DUP1 MLOAD PUSH3 0x461BCD PUSH1 0xE5 SHL DUP2 MSTORE PUSH1 0x20 PUSH1 0x4 DUP3 ADD MSTORE PUSH1 0x1B PUSH1 0x24 DUP3 ADD MSTORE PUSH32 0x496E76616C69642070726F706F7365642061676772656761746F720000000000 PUSH1 0x44 DUP3 ADD MSTORE SWAP1 MLOAD SWAP1 DUP2 SWAP1 SUB PUSH1 0x64 ADD SWAP1 REVERT JUMPDEST PUSH1 0x4 SLOAD PUSH1 0x2 DUP1 SLOAD PUSH1 0x1 PUSH1 0x1 PUSH1 0xA0 SHL SUB NOT AND SWAP1 SSTORE PUSH3 0x10000 SWAP1 DIV PUSH1 0x1 PUSH1 0x1 PUSH1 0xA0 SHL SUB AND PUSH2 0xC32 DUP3 PUSH2 0x105B JUMP JUMPDEST DUP2 PUSH1 0x1 PUSH1 0x1 PUSH1 0xA0 SHL SUB AND DUP2 PUSH1 0x1 PUSH1 0x1 PUSH1 0xA0 SHL SUB AND PUSH32 0x33745F67A407DCB785417F9C123DD3641479A102674B6E35C1F10975625B90E9 PUSH1 0x40 MLOAD PUSH1 0x40 MLOAD DUP1 SWAP2 SUB SWAP1 LOG3 POP POP JUMP JUMPDEST PUSH1 0x0 PUSH10 0xFFFFFFFFFFFFFFFFFFFF DUP3 GT ISZERO PUSH2 0xC92 JUMPI POP PUSH1 0x0 PUSH2 0xD51 JUMP JUMPDEST PUSH1 0x0 DUP1 PUSH2 0xC9E DUP5 PUSH2 0xFBC JUMP JUMPDEST PUSH2 0xFFFF DUP3 AND PUSH1 0x0 SWAP1 DUP2 MSTORE PUSH1 0x3 PUSH1 0x20 MSTORE PUSH1 0x40 SWAP1 KECCAK256 SLOAD SWAP2 SWAP4 POP SWAP2 POP PUSH1 0x1 PUSH1 0x1 PUSH1 0xA0 SHL SUB AND DUP1 PUSH2 0xCD1 JUMPI PUSH1 0x0 SWAP4 POP POP POP POP PUSH2 0xD51 JUMP JUMPDEST DUP1 PUSH1 0x1 PUSH1 0x1 PUSH1 0xA0 SHL SUB AND PUSH4 0xB5AB58DC DUP4 PUSH1 0x40 MLOAD DUP3 PUSH4 0xFFFFFFFF AND PUSH1 0xE0 SHL DUP2 MSTORE PUSH1 0x4 ADD DUP1 DUP3 PUSH8 0xFFFFFFFFFFFFFFFF AND DUP2 MSTORE PUSH1 0x20 ADD SWAP2 POP POP PUSH1 0x20 PUSH1 0x40 MLOAD DUP1 DUP4 SUB DUP2 DUP7 DUP1 EXTCODESIZE ISZERO DUP1 ISZERO PUSH2 0xD1F JUMPI PUSH1 0x0 DUP1 REVERT JUMPDEST POP GAS STATICCALL ISZERO DUP1 ISZERO PUSH2 0xD33 JUMPI RETURNDATASIZE PUSH1 0x0 DUP1 RETURNDATACOPY RETURNDATASIZE PUSH1 0x0 REVERT JUMPDEST POP POP POP POP PUSH1 0x40 MLOAD RETURNDATASIZE PUSH1 0x20 DUP2 LT ISZERO PUSH2 0xD49 JUMPI PUSH1 0x0 DUP1 REVERT JUMPDEST POP MLOAD SWAP4 POP POP POP POP JUMPDEST SWAP2 SWAP1 POP JUMP JUMPDEST PUSH1 0x0 PUSH10 0xFFFFFFFFFFFFFFFFFFFF DUP3 GT ISZERO PUSH2 0xD72 JUMPI POP PUSH1 0x0 PUSH2 0xD51 JUMP JUMPDEST PUSH1 0x0 DUP1 PUSH2 0xD7E DUP5 PUSH2 0xFBC JUMP JUMPDEST PUSH2 0xFFFF DUP3 AND PUSH1 0x0 SWAP1 DUP2 MSTORE PUSH1 0x3 PUSH1 0x20 MSTORE PUSH1 0x40 SWAP1 KECCAK256 SLOAD SWAP2 SWAP4 POP SWAP2 POP PUSH1 0x1 PUSH1 0x1 PUSH1 0xA0 SHL SUB AND DUP1 PUSH2 0xDB1 JUMPI PUSH1 0x0 SWAP4 POP POP POP POP PUSH2 0xD51 JUMP JUMPDEST DUP1 PUSH1 0x1 PUSH1 0x1 PUSH1 0xA0 SHL SUB AND PUSH4 0xB633620C DUP4 PUSH1 0x40 MLOAD DUP3 PUSH4 0xFFFFFFFF AND PUSH1 0xE0 SHL DUP2 MSTORE PUSH1 0x4 ADD DUP1 DUP3 PUSH8 0xFFFFFFFFFFFFFFFF AND DUP2 MSTORE PUSH1 0x20 ADD SWAP2 POP POP PUSH1 0x20 PUSH1 0x40 MLOAD DUP1 DUP4 SUB DUP2 DUP7 DUP1 EXTCODESIZE ISZERO DUP1 ISZERO PUSH2 0xD1F JUMPI PUSH1 0x0 DUP1 REVERT JUMPDEST PUSH2 0xFFFF AND PUSH1 0x0 SWAP1 DUP2 MSTORE PUSH1 0x3 PUSH1 0x20 MSTORE PUSH1 0x40 SWAP1 KECCAK256 SLOAD PUSH1 0x1 PUSH1 0x1 PUSH1 0xA0 SHL SUB AND SWAP1 JUMP JUMPDEST PUSH1 0x2 SLOAD PUSH1 0x1 PUSH1 0x1 PUSH1 0xA0 SHL SUB AND SWAP1 JUMP JUMPDEST PUSH2 0xE35 PUSH2 0xFFA JUMP JUMPDEST PUSH2 0xE3E DUP2 PUSH2 0x10E0 JUMP JUMPDEST POP JUMP JUMPDEST PUSH2 0xE49 PUSH2 0xFFA JUMP JUMPDEST PUSH1 0x2 DUP1 SLOAD PUSH1 0x1 PUSH1 0x1 PUSH1 0xA0 SHL SUB NOT AND PUSH1 0x1 PUSH1 0x1 PUSH1 0xA0 SHL SUB DUP4 DUP2 AND SWAP2 DUP3 OR SWAP1 SWAP3 SSTORE PUSH1 0x4 SLOAD PUSH1 0x40 MLOAD SWAP2 SWAP3 PUSH3 0x10000 SWAP1 SWAP2 DIV AND SWAP1 PUSH32 0xC0F151710F03D713B71D9970CEE0D5B11DDC9A7552ABAA3F6EE818010F21600D SWAP1 PUSH1 0x0 SWAP1 LOG3 POP JUMP JUMPDEST PUSH1 0x40 DUP1 MLOAD DUP1 DUP3 ADD DUP3 MSTORE PUSH1 0x4 DUP1 SLOAD PUSH2 0xFFFF DUP2 AND DUP4 MSTORE PUSH3 0x10000 SWAP1 DIV PUSH1 0x1 PUSH1 0x1 PUSH1 0xA0 SHL SUB AND PUSH1 0x20 DUP4 ADD DUP2 SWAP1 MSTORE DUP4 MLOAD PUSH32 0xFEAF968C00000000000000000000000000000000000000000000000000000000 DUP2 MSTORE SWAP4 MLOAD PUSH1 0x0 SWAP5 DUP6 SWAP5 DUP6 SWAP5 DUP6 SWAP5 DUP6 SWAP5 SWAP3 SWAP4 SWAP1 SWAP3 PUSH4 0xFEAF968C SWAP3 DUP3 DUP2 ADD SWAP3 PUSH1 0xA0 SWAP3 SWAP2 SWAP1 DUP3 SWAP1 SUB ADD DUP2 DUP7 DUP1 EXTCODESIZE ISZERO DUP1 ISZERO PUSH2 0xF25 JUMPI PUSH1 0x0 DUP1 REVERT JUMPDEST POP GAS STATICCALL ISZERO DUP1 ISZERO PUSH2 0xF39 JUMPI RETURNDATASIZE PUSH1 0x0 DUP1 RETURNDATACOPY RETURNDATASIZE PUSH1 0x0 REVERT JUMPDEST POP POP POP POP PUSH1 0x40 MLOAD RETURNDATASIZE PUSH1 0xA0 DUP2 LT ISZERO PUSH2 0xF4F JUMPI PUSH1 0x0 DUP1 REVERT JUMPDEST POP DUP1 MLOAD PUSH1 0x20 DUP3 ADD MLOAD PUSH1 0x40 DUP4 ADD MLOAD PUSH1 0x60 DUP5 ADD MLOAD PUSH1 0x80 SWAP1 SWAP5 ADD MLOAD DUP6 MLOAD SWAP4 SWAP11 POP SWAP2 SWAP9 POP SWAP7 POP SWAP2 SWAP5 POP SWAP1 SWAP3 POP PUSH2 0xF8A SWAP1 DUP8 SWAP1 DUP8 SWAP1 DUP8 SWAP1 DUP8 SWAP1 DUP8 SWAP1 PUSH2 0xFC4 JUMP JUMPDEST SWAP6 POP SWAP6 POP SWAP6 POP SWAP6 POP SWAP6 POP POP SWAP1 SWAP2 SWAP3 SWAP4 SWAP5 JUMP JUMPDEST PUSH8 0xFFFFFFFFFFFFFFFF AND PUSH1 0x40 SWAP2 SWAP1 SWAP2 SHL PUSH10 0xFFFF0000000000000000 AND OR SWAP1 JUMP JUMPDEST PUSH1 0x40 DUP2 SWAP1 SHR SWAP2 JUMP JUMPDEST PUSH1 0x0 DUP1 PUSH1 0x0 DUP1 PUSH1 0x0 PUSH2 0xFD6 DUP7 DUP13 PUSH2 0xF9C JUMP JUMPDEST DUP11 DUP11 DUP11 PUSH2 0xFE3 DUP11 DUP13 PUSH2 0xF9C JUMP JUMPDEST SWAP4 SWAP16 SWAP3 SWAP15 POP SWAP1 SWAP13 POP SWAP11 POP SWAP1 SWAP9 POP SWAP7 POP POP POP POP POP POP POP JUMP JUMPDEST PUSH1 0x0 SLOAD PUSH1 0x1 PUSH1 0x1 PUSH1 0xA0 SHL SUB AND CALLER EQ PUSH2 0x1059 JUMPI PUSH1 0x40 DUP1 MLOAD PUSH3 0x461BCD PUSH1 0xE5 SHL DUP2 MSTORE PUSH1 0x20 PUSH1 0x4 DUP3 ADD MSTORE PUSH1 0x16 PUSH1 0x24 DUP3 ADD MSTORE PUSH32 0x4F6E6C792063616C6C61626C65206279206F776E657200000000000000000000 PUSH1 0x44 DUP3 ADD MSTORE SWAP1 MLOAD SWAP1 DUP2 SWAP1 SUB PUSH1 0x64 ADD SWAP1 REVERT JUMPDEST JUMP JUMPDEST PUSH1 0x4 DUP1 SLOAD PUSH1 0x40 DUP1 MLOAD DUP1 DUP3 ADD DUP3 MSTORE PUSH1 0x1 PUSH2 0xFFFF DUP1 DUP6 AND SWAP2 SWAP1 SWAP2 ADD AND DUP1 DUP3 MSTORE PUSH1 0x1 PUSH1 0x1 PUSH1 0xA0 SHL SUB SWAP6 SWAP1 SWAP6 AND PUSH1 0x20 SWAP2 DUP3 ADD DUP2 SWAP1 MSTORE PUSH2 0xFFFF NOT SWAP1 SWAP4 AND DUP6 OR PUSH32 0xFFFFFFFFFFFFFFFFFFFF0000000000000000000000000000000000000000FFFF AND PUSH3 0x10000 DUP5 MUL OR SWAP1 SWAP4 SSTORE PUSH1 0x0 SWAP4 DUP5 MSTORE PUSH1 0x3 SWAP1 SWAP3 MSTORE SWAP2 KECCAK256 DUP1 SLOAD PUSH1 0x1 PUSH1 0x1 PUSH1 0xA0 SHL SUB NOT AND SWAP1 SWAP2 OR SWAP1 SSTORE JUMP JUMPDEST PUSH1 0x1 PUSH1 0x1 PUSH1 0xA0 SHL SUB DUP2 AND CALLER EQ ISZERO PUSH2 0x113E JUMPI PUSH1 0x40 DUP1 MLOAD PUSH3 0x461BCD PUSH1 0xE5 SHL DUP2 MSTORE PUSH1 0x20 PUSH1 0x4 DUP3 ADD MSTORE PUSH1 0x17 PUSH1 0x24 DUP3 ADD MSTORE PUSH32 0x43616E6E6F74207472616E7366657220746F2073656C66000000000000000000 PUSH1 0x44 DUP3 ADD MSTORE SWAP1 MLOAD SWAP1 DUP2 SWAP1 SUB PUSH1 0x64 ADD SWAP1 REVERT JUMPDEST PUSH1 0x1 DUP1 SLOAD PUSH1 0x1 PUSH1 0x1 PUSH1 0xA0 SHL SUB NOT AND PUSH1 0x1 PUSH1 0x1 PUSH1 0xA0 SHL SUB DUP4 DUP2 AND SWAP2 DUP3 OR SWAP1 SWAP3 SSTORE PUSH1 0x0 DUP1 SLOAD PUSH1 0x40 MLOAD SWAP3 SWAP4 AND SWAP2 PUSH32 0xED8889F560326EB138920D842192F0EB3DD22B4F139C87A2C57538E05BAE1278 SWAP2 SWAP1 LOG3 POP JUMP INVALID LOG2 PUSH5 0x6970667358 0x22 SLT KECCAK256 0xD8 0xDB PUSH30 0x4E7553552FF4112495897C50D33256A94976C197A9134E8A4CB493946364 PUSH20 0x6F6C634300070600330000000000000000000000 "
		},
		"gasEstimates": {
			"creation": {
				"codeDepositCost": "909800",
				"executionCost": "infinite",
				"totalCost": "infinite"
			},
			"external": {
				"acceptOwnership()": "44266",
				"aggregator()": "1095",
				"confirmAggregator(address)": "67125",
				"decimals()": "infinite",
				"description()": "infinite",
				"getAnswer(uint256)": "infinite",
				"getRoundData(uint80)": "infinite",
				"getTimestamp(uint256)": "infinite",
				"latestAnswer()": "infinite",
				"latestRound()": "infinite",
				"latestRoundData()": "infinite",
				"latestTimestamp()": "infinite",
				"owner()": "1083",
				"phaseAggregators(uint16)": "1224",
				"phaseId()": "1103",
				"proposeAggregator(address)": "24349",
				"proposedAggregator()": "1126",
				"proposedGetRoundData(uint80)": "infinite",
				"proposedLatestRoundData()": "infinite",
				"transferOwnership(address)": "24385",
				"version()": "infinite"
			},
			"internal": {
				"addPhase(uint16,uint64)": "42",
				"addPhaseIds(uint80,int256,uint256,uint256,uint80,uint16)": "infinite",
				"parseIds(uint256)": "24",
				"setAggregator(address)": "infinite"
			}
		},
		"methodIdentifiers": {
			"acceptOwnership()": "79ba5097",
			"aggregator()": "245a7bfc",
			"confirmAggregator(address)": "a928c096",
			"decimals()": "313ce567",
			"description()": "7284e416",
			"getAnswer(uint256)": "b5ab58dc",
			"getRoundData(uint80)": "9a6fc8f5",
			"getTimestamp(uint256)": "b633620c",
			"latestAnswer()": "50d25bcd",
			"latestRound()": "668a0f02",
			"latestRoundData()": "feaf968c",
			"latestTimestamp()": "8205bf6a",
			"owner()": "8da5cb5b",
			"phaseAggregators(uint16)": "c1597304",
			"phaseId()": "58303b10",
			"proposeAggregator(address)": "f8a2abd3",
			"proposedAggregator()": "e8c4be30",
			"proposedGetRoundData(uint80)": "6001ac53",
			"proposedLatestRoundData()": "8f6b4d91",
			"transferOwnership(address)": "f2fde38b",
			"version()": "54fd4d50"
		}
	},
	"abi": [
		{
			"inputs": [
				{
					"internalType": "address",
					"name": "aggregatorAddress",
					"type": "address"
				}
			],
			"stateMutability": "nonpayable",
			"type": "constructor"
		},
		{
			"anonymous": false,
			"inputs": [
				{
					"indexed": true,
					"internalType": "address",
					"name": "previous",
					"type": "address"
				},
				{
					"indexed": true,
					"internalType": "address",
					"name": "latest",
					"type": "address"
				}
			],
			"name": "AggregatorConfirmed",
			"type": "event"
		},
		{
			"anonymous": false,
			"inputs": [
				{
					"indexed": true,
					"internalType": "address",
					"name": "current",
					"type": "address"
				},
				{
					"indexed": true,
					"internalType": "address",
					"name": "proposed",
					"type": "address"
				}
			],
			"name": "AggregatorProposed",
			"type": "event"
		},
		{
			"anonymous": false,
			"inputs": [
				{
					"indexed": true,
					"internalType": "int256",
					"name": "current",
					"type": "int256"
				},
				{
					"indexed": true,
					"internalType": "uint256",
					"name": "roundId",
					"type": "uint256"
				},
				{
					"indexed": false,
					"internalType": "uint256",
					"name": "updatedAt",
					"type": "uint256"
				}
			],
			"name": "AnswerUpdated",
			"type": "event"
		},
		{
			"anonymous": false,
			"inputs": [
				{
					"indexed": true,
					"internalType": "uint256",
					"name": "roundId",
					"type": "uint256"
				},
				{
					"indexed": true,
					"internalType": "address",
					"name": "startedBy",
					"type": "address"
				},
				{
					"indexed": false,
					"internalType": "uint256",
					"name": "startedAt",
					"type": "uint256"
				}
			],
			"name": "NewRound",
			"type": "event"
		},
		{
			"anonymous": false,
			"inputs": [
				{
					"indexed": true,
					"internalType": "address",
					"name": "from",
					"type": "address"
				},
				{
					"indexed": true,
					"internalType": "address",
					"name": "to",
					"type": "address"
				}
			],
			"name": "OwnershipTransferRequested",
			"type": "event"
		},
		{
			"anonymous": false,
			"inputs": [
				{
					"indexed": true,
					"internalType": "address",
					"name": "from",
					"type": "address"
				},
				{
					"indexed": true,
					"internalType": "address",
					"name": "to",
					"type": "address"
				}
			],
			"name": "OwnershipTransferred",
			"type": "event"
		},
		{
			"inputs": [],
			"name": "acceptOwnership",
			"outputs": [],
			"stateMutability": "nonpayable",
			"type": "function"
		},
		{
			"inputs": [],
			"name": "aggregator",
			"outputs": [
				{
					"internalType": "address",
					"name": "",
					"type": "address"
				}
			],
			"stateMutability": "view",
			"type": "function"
		},
		{
			"inputs": [
				{
					"internalType": "address",
					"name": "aggregatorAddress",
					"type": "address"
				}
			],
			"name": "confirmAggregator",
			"outputs": [],
			"stateMutability": "nonpayable",
			"type": "function"
		},
		{
			"inputs": [],
			"name": "decimals",
			"outputs": [
				{
					"internalType": "uint8",
					"name": "",
					"type": "uint8"
				}
			],
			"stateMutability": "view",
			"type": "function"
		},
		{
			"inputs": [],
			"name": "description",
			"outputs": [
				{
					"internalType": "string",
					"name": "",
					"type": "string"
				}
			],
			"stateMutability": "view",
			"type": "function"
		},
		{
			"inputs": [
				{
					"internalType": "uint256",
					"name": "roundId",
					"type": "uint256"
				}
			],
			"name": "getAnswer",
			"outputs": [
				{
					"internalType": "int256",
					"name": "answer",
					"type": "int256"
				}
			],
			"stateMutability": "view",
			"type": "function"
		},
		{
			"inputs": [
				{
					"internalType": "uint80",
					"name": "roundId",
					"type": "uint80"
				}
			],
			"name": "getRoundData",
			"outputs": [
				{
					"internalType": "uint80",
					"name": "id",
					"type": "uint80"
				},
				{
					"internalType": "int256",
					"name": "answer",
					"type": "int256"
				},
				{
					"internalType": "uint256",
					"name": "startedAt",
					"type": "uint256"
				},
				{
					"internalType": "uint256",
					"name": "updatedAt",
					"type": "uint256"
				},
				{
					"internalType": "uint80",
					"name": "answeredInRound",
					"type": "uint80"
				}
			],
			"stateMutability": "view",
			"type": "function"
		},
		{
			"inputs": [
				{
					"internalType": "uint256",
					"name": "roundId",
					"type": "uint256"
				}
			],
			"name": "getTimestamp",
			"outputs": [
				{
					"internalType": "uint256",
					"name": "updatedAt",
					"type": "uint256"
				}
			],
			"stateMutability": "view",
			"type": "function"
		},
		{
			"inputs": [],
			"name": "latestAnswer",
			"outputs": [
				{
					"internalType": "int256",
					"name": "answer",
					"type": "int256"
				}
			],
			"stateMutability": "view",
			"type": "function"
		},
		{
			"inputs": [],
			"name": "latestRound",
			"outputs": [
				{
					"internalType": "uint256",
					"name": "roundId",
					"type": "uint256"
				}
			],
			"stateMutability": "view",
			"type": "function"
		},
		{
			"inputs": [],
			"name": "latestRoundData",
			"outputs": [
				{
					"internalType": "uint80",
					"name": "id",
					"type": "uint80"
				},
				{
					"internalType": "int256",
					"name": "answer",
					"type": "int256"
				},
				{
					"internalType": "uint256",
					"name": "startedAt",
					"type": "uint256"
				},
				{
					"internalType": "uint256",
					"name": "updatedAt",
					"type": "uint256"
				},
				{
					"internalType": "uint80",
					"name": "answeredInRound",
					"type": "uint80"
				}
			],
			"stateMutability": "view",
			"type": "function"
		},
		{
			"inputs": [],
			"name": "latestTimestamp",
			"outputs": [
				{
					"internalType": "uint256",
					"name": "updatedAt",
					"type": "uint256"
				}
			],
			"stateMutability": "view",
			"type": "function"
		},
		{
			"inputs": [],
			"name": "owner",
			"outputs": [
				{
					"internalType": "address",
					"name": "",
					"type": "address"
				}
			],
			"stateMutability": "view",
			"type": "function"
		},
		{
			"inputs": [
				{
					"internalType": "uint16",
					"name": "phaseId",
					"type": "uint16"
				}
			],
			"name": "phaseAggregators",
			"outputs": [
				{
					"internalType": "address",
					"name": "",
					"type": "address"
				}
			],
			"stateMutability": "view",
			"type": "function"
		},
		{
			"inputs": [],
			"name": "phaseId",
			"outputs": [
				{
					"internalType": "uint16",
					"name": "",
					"type": "uint16"
				}
			],
			"stateMutability": "view",
			"type": "function"
		},
		{
			"inputs": [
				{
					"internalType": "address",
					"name": "aggregatorAddress",
					"type": "address"
				}
			],
			"name": "proposeAggregator",
			"outputs": [],
			"stateMutability": "nonpayable",
			"type": "function"
		},
		{
			"inputs": [],
			"name": "proposedAggregator",
			"outputs": [
				{
					"internalType": "address",
					"name": "",
					"type": "address"
				}
			],
			"stateMutability": "view",
			"type": "function"
		},
		{
			"inputs": [
				{
					"internalType": "uint80",
					"name": "roundId",
					"type": "uint80"
				}
			],
			"name": "proposedGetRoundData",
			"outputs": [
				{
					"internalType": "uint80",
					"name": "id",
					"type": "uint80"
				},
				{
					"internalType": "int256",
					"name": "answer",
					"type": "int256"
				},
				{
					"internalType": "uint256",
					"name": "startedAt",
					"type": "uint256"
				},
				{
					"internalType": "uint256",
					"name": "updatedAt",
					"type": "uint256"
				},
				{
					"internalType": "uint80",
					"name": "answeredInRound",
					"type": "uint80"
				}
			],
			"stateMutability": "view",
			"type": "function"
		},
		{
			"inputs": [],
			"name": "proposedLatestRoundData",
			"outputs": [
				{
					"internalType": "uint80",
					"name": "id",
					"type": "uint80"
				},
				{
					"internalType": "int256",
					"name": "answer",
					"type": "int256"
				},
				{
					"internalType": "uint256",
					"name": "startedAt",
					"type": "uint256"
				},
				{
					"internalType": "uint256",
					"name": "updatedAt",
					"type": "uint256"
				},
				{
					"internalType": "uint80",
					"name": "answeredInRound",
					"type": "uint80"
				}
			],
			"stateMutability": "view",
			"type": "function"
		},
		{
			"inputs": [
				{
					"internalType": "address",
					"name": "to",
					"type": "address"
				}
			],
			"name": "transferOwnership",
			"outputs": [],
			"stateMutability": "nonpayable",
			"type": "function"
		},
		{
			"inputs": [],
			"name": "version",
			"outputs": [
				{
					"internalType": "uint256",
					"name": "",
					"type": "uint256"
				}
			],
			"stateMutability": "view",
			"type": "function"
		}
	]
}