{
	"data": {
		"bytecode": {
			"linkReferences": {},
			"object": "608060405234801561001057600080fd5b50610107806100206000396000f3fe6080604052348015600f57600080fd5b5060043610603c5760003560e01c806306661abd146041578063a87d942c14605b578063d09de08a146061575b600080fd5b60476069565b604051605291906089565b60405180910390f35b6047606f565b60676075565b005b60005481565b60005490565b6000805490806082836092565b9190505550565b90815260200190565b600060001982141560ca577f4e487b710000000000000000000000000000000000000000000000000000000081526011600452602481fd5b506001019056fea2646970667358221220e6a715393f6ce32e0b961b2737efd53cb6a9664b47cf200ed26cfcade1235b5a64736f6c63430008010033",
			"opcodes": "PUSH1 0x80 PUSH1 0x40 MSTORE CALLVALUE DUP1 ISZERO PUSH2 0x10 JUMPI PUSH1 0x0 DUP1 REVERT JUMPDEST POP PUSH2 0x107 DUP1 PUSH2 0x20 PUSH1 0x0 CODECOPY PUSH1 0x0 RETURN INVALID PUSH1 0x80 PUSH1 0x40 MSTORE CALLVALUE DUP1 ISZERO PUSH1 0xF JUMPI PUSH1 0x0 DUP1 REVERT JUMPDEST POP PUSH1 0x4 CALLDATASIZE LT PUSH1 0x3C JUMPI PUSH1 0x0 CALLDATALOAD PUSH1 0xE0 SHR DUP1 PUSH4 0x6661ABD EQ PUSH1 0x41 JUMPI DUP1 PUSH4 0xA87D942C EQ PUSH1 0x5B JUMPI DUP1 PUSH4 0xD09DE08A EQ PUSH1 0x61 JUMPI JUMPDEST PUSH1 0x0 DUP1 REVERT JUMPDEST PUSH1 0x47 PUSH1 0x69 JUMP JUMPDEST PUSH1 0x40 MLOAD PUSH1 0x52 SWAP2 SWAP1 PUSH1 0x89 JUMP JUMPDEST PUSH1 0x40 MLOAD DUP1 SWAP2 SUB SWAP1 RETURN JUMPDEST PUSH1 0x47 PUSH1 0x6F JUMP JUMPDEST PUSH1 0x67 PUSH1 0x75 JUMP JUMPDEST STOP JUMPDEST PUSH1 0x0 SLOAD DUP2 JUMP JUMPDEST PUSH1 0x0 SLOAD SWAP1 JUMP JUMPDEST PUSH1 0x0 DUP1 SLOAD SWAP1 DUP1 PUSH1 0x82 DUP4 PUSH1 0x92 JUMP JUMPDEST SWAP2 SWAP1 POP SSTORE POP JUMP JUMPDEST SWAP1 DUP2 MSTORE PUSH1 0x20 ADD SWAP1 JUMP JUMPDEST PUSH1 0x0 PUSH1 0x0 NOT DUP3 EQ ISZERO PUSH1 0xCA JUMPI PUSH32 0x4E487B7100000000000000000000000000000000000000000000000000000000 DUP2 MSTORE PUSH1 0x11 PUSH1 0x4 MSTORE PUSH1 0x24 DUP2 REVERT JUMPDEST POP PUSH1 0x1 ADD SWAP1 JUMP INVALID LOG2 PUSH5 0x6970667358 0x22 SLT KECCAK256 0xE6 0xA7 ISZERO CODECOPY EXTCODEHASH PUSH13 0xE32E0B961B2737EFD53CB6A966 0x4B SELFBALANCE 0xCF KECCAK256 0xE 0xD2 PUSH13 0xFCADE1235B5A64736F6C634300 ADDMOD ADD STOP CALLER "
		},
		"gasEstimates": {
			"creation": {
				"codeDepositCost": "52600",
				"executionCost": "105",
				"totalCost": "52705"
			},
			"external": {
				"count()": "1006",
				"getCount()": "1028",
				"increment()": "21058"
			}
		},
		"methodIdentifiers": {
			"count()": "06661abd",
			"getCount()": "a87d942c",
			"increment()": "d09de08a"
		}
	},
	"abi": [
		{
			"inputs": [],
			"name": "count",
			"outputs": [
				{
					"internalType": "uint256",
					"name": "",
					"type": "uint256"
				}
			],
			"stateMutability": "view",
			"type": "function"
		},
		{
			"inputs": [],
			"name": "getCount",
			"outputs": [
				{
					"internalType": "uint256",
					"name": "",
					"type": "uint256"
				}
			],
			"stateMutability": "view",
			"type": "function"
		},
		{
			"inputs": [],
			"name": "increment",
			"outputs": [],
			"stateMutability": "nonpayable",
			"type": "function"
		}
	]
}